{
  "address": "0x85d347AF541132F53CcE42d5336BC48CEDC42200",
  "abi": [
    {
      "anonymous": false,
      "inputs": [
        {
          "indexed": true,
          "internalType": "uint256",
          "name": "_id",
          "type": "uint256"
        },
        {
          "indexed": false,
          "internalType": "bool",
          "name": "_decision",
          "type": "bool"
        }
      ],
      "name": "answeredPropose",
      "type": "event"
    },
    {
      "anonymous": false,
      "inputs": [
        {
          "indexed": true,
          "internalType": "address",
          "name": "consumer",
          "type": "address"
        }
      ],
      "name": "newConsumerRegistered",
      "type": "event"
    },
    {
      "anonymous": false,
      "inputs": [
        {
          "indexed": true,
          "internalType": "address",
          "name": "_distributor",
          "type": "address"
        }
      ],
      "name": "newDistributorAdded",
      "type": "event"
    },
    {
      "anonymous": false,
      "inputs": [
        {
          "indexed": true,
          "internalType": "address",
          "name": "_distributor",
          "type": "address"
        }
      ],
      "name": "newProposeAdded",
      "type": "event"
    },
    {
      "inputs": [
        {
          "internalType": "uint256",
          "name": "_cnpj",
          "type": "uint256"
        },
        {
          "internalType": "uint256",
          "name": "_pricePerMonthKWH",
          "type": "uint256"
        },
        {
          "internalType": "uint256",
          "name": "_localId",
          "type": "uint256"
        }
      ],
      "name": "addDistributor",
      "outputs": [],
      "stateMutability": "nonpayable",
      "type": "function"
    },
    {
      "inputs": [
        {
          "internalType": "uint256",
          "name": "_energyConsume",
          "type": "uint256"
        },
        {
          "internalType": "uint256",
          "name": "_pricePerMonth",
          "type": "uint256"
        },
        {
          "internalType": "address",
          "name": "_distributor",
          "type": "address"
        },
        {
          "internalType": "uint256",
          "name": "_localId",
          "type": "uint256"
        }
      ],
      "name": "addPropose",
      "outputs": [],
      "stateMutability": "nonpayable",
      "type": "function"
    },
    {
      "inputs": [
        {
          "internalType": "uint256",
          "name": "_id",
          "type": "uint256"
        },
        {
          "internalType": "bool",
          "name": "_decision",
          "type": "bool"
        }
      ],
      "name": "answerPropose",
      "outputs": [],
      "stateMutability": "nonpayable",
      "type": "function"
    },
    {
      "inputs": [
        {
          "internalType": "uint256",
          "name": "_localId",
          "type": "uint256"
        }
      ],
      "name": "bestOptions",
      "outputs": [
        {
          "components": [
            {
              "internalType": "uint256",
              "name": "cnpj",
              "type": "uint256"
            },
            {
              "internalType": "uint256",
              "name": "pricePerMonthKWH",
              "type": "uint256"
            },
            {
              "internalType": "uint256",
              "name": "localId",
              "type": "uint256"
            },
            {
              "internalType": "bool",
              "name": "active",
              "type": "bool"
            }
          ],
          "internalType": "struct BaoEnergy.Distributor[]",
          "name": "",
          "type": "tuple[]"
        }
      ],
      "stateMutability": "view",
      "type": "function"
    },
    {
      "inputs": [
        {
          "internalType": "address",
          "name": "",
          "type": "address"
        }
      ],
      "name": "consumerToUserContract",
      "outputs": [
        {
          "internalType": "address",
          "name": "consumer",
          "type": "address"
        },
        {
          "internalType": "uint256",
          "name": "energyConsume",
          "type": "uint256"
        },
        {
          "internalType": "uint256",
          "name": "pricePerMonth",
          "type": "uint256"
        },
        {
          "internalType": "uint256",
          "name": "timeStamp",
          "type": "uint256"
        },
        {
          "internalType": "uint256",
          "name": "localId",
          "type": "uint256"
        },
        {
          "internalType": "bool",
          "name": "active",
          "type": "bool"
        },
        {
          "internalType": "uint256",
          "name": "contractDeadLine",
          "type": "uint256"
        }
      ],
      "stateMutability": "view",
      "type": "function"
    },
    {
      "inputs": [
        {
          "internalType": "address",
          "name": "",
          "type": "address"
        }
      ],
      "name": "consumers",
      "outputs": [
        {
          "internalType": "bool",
          "name": "isMemberOfFreeEnergyMarket",
          "type": "bool"
        },
        {
          "internalType": "uint256",
          "name": "cnpj",
          "type": "uint256"
        },
        {
          "internalType": "uint256",
          "name": "localId",
          "type": "uint256"
        },
        {
          "internalType": "bool",
          "name": "active",
          "type": "bool"
        }
      ],
      "stateMutability": "view",
      "type": "function"
    },
    {
      "inputs": [
        {
          "internalType": "address",
          "name": "",
          "type": "address"
        }
      ],
      "name": "distributors",
      "outputs": [
        {
          "internalType": "uint256",
          "name": "cnpj",
          "type": "uint256"
        },
        {
          "internalType": "uint256",
          "name": "pricePerMonthKWH",
          "type": "uint256"
        },
        {
          "internalType": "uint256",
          "name": "localId",
          "type": "uint256"
        },
        {
          "internalType": "bool",
          "name": "active",
          "type": "bool"
        }
      ],
      "stateMutability": "view",
      "type": "function"
    },
    {
      "inputs": [],
      "name": "getProposes",
      "outputs": [
        {
          "components": [
            {
              "components": [
                {
                  "internalType": "address",
                  "name": "consumer",
                  "type": "address"
                },
                {
                  "internalType": "uint256",
                  "name": "energyConsume",
                  "type": "uint256"
                },
                {
                  "internalType": "uint256",
                  "name": "pricePerMonth",
                  "type": "uint256"
                },
                {
                  "internalType": "uint256",
                  "name": "timeStamp",
                  "type": "uint256"
                },
                {
                  "internalType": "uint256",
                  "name": "localId",
                  "type": "uint256"
                },
                {
                  "internalType": "bool",
                  "name": "active",
                  "type": "bool"
                },
                {
                  "internalType": "uint256",
                  "name": "contractDeadLine",
                  "type": "uint256"
                }
              ],
              "internalType": "struct BaoEnergy.UserContract",
              "name": "userContract",
              "type": "tuple"
            },
            {
              "internalType": "address",
              "name": "distributor",
              "type": "address"
            },
            {
              "internalType": "address",
              "name": "consumer",
              "type": "address"
            },
            {
              "internalType": "bool",
              "name": "answered",
              "type": "bool"
            }
          ],
          "internalType": "struct BaoEnergy.Propose[]",
          "name": "",
          "type": "tuple[]"
        }
      ],
      "stateMutability": "view",
      "type": "function"
    },
    {
      "inputs": [
        {
          "internalType": "uint256",
          "name": "",
          "type": "uint256"
        },
        {
          "internalType": "uint256",
          "name": "",
          "type": "uint256"
        }
      ],
      "name": "localIdToDistributors",
      "outputs": [
        {
          "internalType": "uint256",
          "name": "cnpj",
          "type": "uint256"
        },
        {
          "internalType": "uint256",
          "name": "pricePerMonthKWH",
          "type": "uint256"
        },
        {
          "internalType": "uint256",
          "name": "localId",
          "type": "uint256"
        },
        {
          "internalType": "bool",
          "name": "active",
          "type": "bool"
        }
      ],
      "stateMutability": "view",
      "type": "function"
    },
    {
      "inputs": [
        {
          "internalType": "uint256",
          "name": "",
          "type": "uint256"
        },
        {
          "internalType": "uint256",
          "name": "",
          "type": "uint256"
        }
      ],
      "name": "localToContract",
      "outputs": [
        {
          "internalType": "address",
          "name": "consumer",
          "type": "address"
        },
        {
          "internalType": "uint256",
          "name": "energyConsume",
          "type": "uint256"
        },
        {
          "internalType": "uint256",
          "name": "pricePerMonth",
          "type": "uint256"
        },
        {
          "internalType": "uint256",
          "name": "timeStamp",
          "type": "uint256"
        },
        {
          "internalType": "uint256",
          "name": "localId",
          "type": "uint256"
        },
        {
          "internalType": "bool",
          "name": "active",
          "type": "bool"
        },
        {
          "internalType": "uint256",
          "name": "contractDeadLine",
          "type": "uint256"
        }
      ],
      "stateMutability": "view",
      "type": "function"
    },
    {
      "inputs": [
        {
          "internalType": "address",
          "name": "",
          "type": "address"
        },
        {
          "internalType": "uint256",
          "name": "",
          "type": "uint256"
        }
      ],
      "name": "proposes",
      "outputs": [
        {
          "components": [
            {
              "internalType": "address",
              "name": "consumer",
              "type": "address"
            },
            {
              "internalType": "uint256",
              "name": "energyConsume",
              "type": "uint256"
            },
            {
              "internalType": "uint256",
              "name": "pricePerMonth",
              "type": "uint256"
            },
            {
              "internalType": "uint256",
              "name": "timeStamp",
              "type": "uint256"
            },
            {
              "internalType": "uint256",
              "name": "localId",
              "type": "uint256"
            },
            {
              "internalType": "bool",
              "name": "active",
              "type": "bool"
            },
            {
              "internalType": "uint256",
              "name": "contractDeadLine",
              "type": "uint256"
            }
          ],
          "internalType": "struct BaoEnergy.UserContract",
          "name": "userContract",
          "type": "tuple"
        },
        {
          "internalType": "address",
          "name": "distributor",
          "type": "address"
        },
        {
          "internalType": "address",
          "name": "consumer",
          "type": "address"
        },
        {
          "internalType": "bool",
          "name": "answered",
          "type": "bool"
        }
      ],
      "stateMutability": "view",
      "type": "function"
    },
    {
      "inputs": [
        {
          "internalType": "uint256",
          "name": "_cnpj",
          "type": "uint256"
        },
        {
          "internalType": "uint256",
          "name": "_localId",
          "type": "uint256"
        },
        {
          "internalType": "bool",
          "name": "_isMemberOfFreeEnergyMarket",
          "type": "bool"
        }
      ],
      "name": "registerConsumer",
      "outputs": [],
      "stateMutability": "nonpayable",
      "type": "function"
    }
  ],
  "transactionHash": "0x2644667a6e676374bf2275a0ab1fc17237d89ea6e8b3c2775b4cee67ebc8dd5c",
  "args": [],
  "numDeployments": 1,
  "solcInputHash": "ea58f117ba36d1478602f7b3dc657c67",
  "bytecode": "0x608060405234801561001057600080fd5b506110e3806100206000396000f3fe608060405234801561001057600080fd5b50600436106100b45760003560e01c80637c732f85116100715780637c732f85146102235780639af96a7314610236578063c2729bfb1461026b578063cc6427841461027e578063d3e64ffa146102b6578063f3de41ad146102cb57600080fd5b806305ef317a146100b95780630bf53668146101585780632e8376dc146101b85780632eafc905146101cd578063642cb091146101e05780636d37a20214610203575b600080fd5b6101126100c7366004610d55565b600560208190526000918252604090912080546001820154600283015460038401546004850154958501546006909501546001600160a01b03909416959294919390929160ff169087565b604080516001600160a01b03909816885260208801969096529486019390935260608501919091526080840152151560a083015260c082015260e0015b60405180910390f35b610194610166366004610d55565b6002602081905260009182526040909120805460018201549282015460039092015460ff9182169392911684565b6040805194151585526020850193909352918301521515606082015260800161014f565b6101cb6101c6366004610d77565b6102de565b005b6101cb6101db366004610da3565b6103ef565b6101f36101ee366004610de0565b610644565b60405161014f9493929190610e56565b610216610211366004610e90565b6106f6565b60405161014f9190610ea9565b6101cb610231366004610f1f565b61078f565b610249610244366004610f54565b61085c565b604080519485526020850193909352918301521515606082015260800161014f565b6101cb610279366004610f76565b6108a5565b61024961028c366004610d55565b60046020526000908152604090208054600182015460028301546003909301549192909160ff1684565b6102be610bdd565b60405161014f9190610fa2565b6101126102d9366004610f54565b610ccf565b3360009081526002602052604090206003015460ff161561031a5760405162461bcd60e51b815260040161031190611012565b60405180910390fd5b60408051608081018252848152602080820185815282840185815260016060850181815260008881526003808752888220805480860182559083528783208951600492830290910190815587518187015586516002808301919091558551918401805492151560ff1993841617905533808652929099528a84208a5181559751958801959095559451968601969096559051939094018054931515939091169290921790915592519192917f539fce68fd46dd4d63494ec1197510a27bfb96eb9b09f050eec103bbdf2b315b9190a250505050565b3360009081526002602052604090206003015460ff166104515760405162461bcd60e51b815260206004820152601860248201527f566f6365206e616f206520756d20636f6e73756d69646f7200000000000000006044820152606401610311565b6001600160a01b03821660009081526004602052604090206003015460ff166104cd5760405162461bcd60e51b815260206004820152602860248201527f4f20656e64657265636f207061737361646f206e616f206520756d20646973746044820152673934b13ab4b237b960c11b6064820152608401610311565b60006040518060e00160405280336001600160a01b031681526020018681526020018581526020014281526020018381526020016001151581526020014262278d006105199190611070565b905260408051608080820183528382523360208084019182526001600160a01b03898116858701818152600060608089018281528483528287528a83208054600181810183559185528885208c51805160099093029091018054928a166001600160a01b031993841617815599810151928a0192909255818d015160028a015592810151600389015598890151600488015560a089015160058801805491151560ff1990921691909117905560c090980151600687015595516007860180549186169190971617909555516008909301805495511515600160a01b026001600160a81b03199096169390921692909217939093179092559251939450909290917f0d7314c5e85e24751b97c4af5bf2002b2fc093e77d2d0a27785467743c21a17691a2505050505050565b6000602052816000526040600020818154811061066057600080fd5b60009182526020918290206040805160e081018252600990930290910180546001600160a01b0390811684526001820154948401949094526002810154918301919091526003810154606083015260048101546080830152600581015460ff908116151560a0840152600682015460c08401526007820154600890920154929550908316935091811691600160a01b9091041684565b606060036000838152602001908152602001600020805480602002602001604051908101604052809291908181526020016000905b82821015610784576000848152602090819020604080516080810182526004860290920180548352600180820154848601526002820154928401929092526003015460ff1615156060830152908352909201910161072b565b505050509050919050565b3360009081526004602052604090206003015460ff16156107c25760405162461bcd60e51b815260040161031190611012565b60408051608081018252821515815260208082018681528284018681526001606085018181523360008181526002968790528881208851815490151560ff19918216178255965194810194909455935195830195909555516003909101805491151591909316179091559251919290917fb7a62362dd2be01445191c65d35b774ea413e6b88e82b9ca3b52ab8a4f5e24509190a250505050565b6003602052816000526040600020818154811061087857600080fd5b60009182526020909120600490910201805460018201546002830154600390930154919450925060ff1684565b3360009081526004602052604090206003015460ff166109075760405162461bcd60e51b815260206004820152601a60248201527f566f6365206e616f206520756d20646973747269627569646f720000000000006044820152606401610311565b33600090815260208190526040812080548490811061092857610928611097565b600091825260209091206009909102016007810154909150336001600160a01b03909116036109aa5760405162461bcd60e51b815260206004820152602860248201527f566f6365206e616f2065206f20646973747269627569646f722064657373612060448201526770726f706f73746160c01b6064820152608401610311565b60088101805460ff60a01b1916600160a01b1790558115610bad5780600001600560008360080160009054906101000a90046001600160a01b03166001600160a01b03166001600160a01b031681526020019081526020016000206000820160009054906101000a90046001600160a01b03168160000160006101000a8154816001600160a01b0302191690836001600160a01b03160217905550600182015481600101556002820154816002015560038201548160030155600482015481600401556005820160009054906101000a900460ff168160050160006101000a81548160ff0219169083151502179055506006820154816006015590505060016000826000016004015481526020019081526020016000208160000190806001815401808255809150506001900390600052602060002090600702016000909190919091506000820160009054906101000a90046001600160a01b03168160000160006101000a8154816001600160a01b0302191690836001600160a01b03160217905550600182015481600101556002820154816002015560038201548160030155600482015481600401556005820160009054906101000a900460ff168160050160006101000a81548160ff02191690831515021790555060068201548160060155505060018160080160146101000a81548160ff0219169083151502179055505b60405133907f0d7314c5e85e24751b97c4af5bf2002b2fc093e77d2d0a27785467743c21a17690600090a2505050565b33600090815260208181526040808320805482518185028101850190935280835260609492939192909184015b82821015610cc657600084815260209081902060408051610160810182526009860290920180546001600160a01b039081166080850190815260018084015460a0870152600284015460c0870152600384015460e08701526004840154610100870152600584015460ff90811615156101208801526006850154610140880152918652600784015483168688015260089093015491821693850193909352600160a01b9004909116151560608301529083529092019101610c0a565b50505050905090565b60016020528160005260406000208181548110610ceb57600080fd5b600091825260209091206007909102018054600182015460028301546003840154600485015460058601546006909601546001600160a01b0390951697509295509093909260ff9091169087565b80356001600160a01b0381168114610d5057600080fd5b919050565b600060208284031215610d6757600080fd5b610d7082610d39565b9392505050565b600080600060608486031215610d8c57600080fd5b505081359360208301359350604090920135919050565b60008060008060808587031215610db957600080fd5b8435935060208501359250610dd060408601610d39565b9396929550929360600135925050565b60008060408385031215610df357600080fd5b610dfc83610d39565b946020939093013593505050565b80516001600160a01b031682526020808201519083015260408082015190830152606080820151908301526080808201519083015260a08181015115159083015260c090810151910152565b6101408101610e658287610e0a565b6001600160a01b0394851660e083015292909316610100840152151561012090920191909152919050565b600060208284031215610ea257600080fd5b5035919050565b602080825282518282018190526000919060409081850190868401855b82811015610f02578151805185528681015187860152858101518686015260609081015115159085015260809093019290850190600101610ec6565b5091979650505050505050565b80358015158114610d5057600080fd5b600080600060608486031215610f3457600080fd5b8335925060208401359150610f4b60408501610f0f565b90509250925092565b60008060408385031215610f6757600080fd5b50508035926020909101359150565b60008060408385031215610f8957600080fd5b82359150610f9960208401610f0f565b90509250929050565b602080825282518282018190526000919060409081850190868401855b82811015610f02578151610fd4858251610e0a565b808701516001600160a01b0390811660e087015286820151166101008601526060015115156101208501526101409093019290850190600101610fbf565b602080825260409082018190527f566f6365206e616f20706f64652073657220756d20646973747269627569646f908201527f72206520756d20636f6e73756d69646f7220616f206d65736d6f2074656d706f606082015260800190565b8082018082111561109157634e487b7160e01b600052601160045260246000fd5b92915050565b634e487b7160e01b600052603260045260246000fdfea26469706673582212203e59b67b7b1af53e0c7b4bbd0cb7e0b322d4d368707c7fae4b2df086852a4b7264736f6c63430008110033",
  "devdoc": {
    "kind": "dev",
    "methods": {},
    "version": 1
  },
  "userdoc": {
    "kind": "user",
    "methods": {},
    "version": 1
  },
  "storageLayout": {
    "storage": [
      {
        "astId": 94,
        "contract": "contracts/BaoEnergy.sol:BaoEnergy",
        "label": "proposes",
        "offset": 0,
        "slot": "0",
        "type": "t_mapping(t_address,t_array(t_struct(Propose)44_storage)dyn_storage)"
      },
      {
        "astId": 100,
        "contract": "contracts/BaoEnergy.sol:BaoEnergy",
        "label": "localToContract",
        "offset": 0,
        "slot": "1",
        "type": "t_mapping(t_uint256,t_array(t_struct(UserContract)34_storage)dyn_storage)"
      },
      {
        "astId": 105,
        "contract": "contracts/BaoEnergy.sol:BaoEnergy",
        "label": "consumers",
        "offset": 0,
        "slot": "2",
        "type": "t_mapping(t_address,t_struct(Consumer)10_storage)"
      },
      {
        "astId": 111,
        "contract": "contracts/BaoEnergy.sol:BaoEnergy",
        "label": "localIdToDistributors",
        "offset": 0,
        "slot": "3",
        "type": "t_mapping(t_uint256,t_array(t_struct(Distributor)19_storage)dyn_storage)"
      },
      {
        "astId": 116,
        "contract": "contracts/BaoEnergy.sol:BaoEnergy",
        "label": "distributors",
        "offset": 0,
        "slot": "4",
        "type": "t_mapping(t_address,t_struct(Distributor)19_storage)"
      },
      {
        "astId": 121,
        "contract": "contracts/BaoEnergy.sol:BaoEnergy",
        "label": "consumerToUserContract",
        "offset": 0,
        "slot": "5",
        "type": "t_mapping(t_address,t_struct(UserContract)34_storage)"
      }
    ],
    "types": {
      "t_address": {
        "encoding": "inplace",
        "label": "address",
        "numberOfBytes": "20"
      },
      "t_array(t_struct(Distributor)19_storage)dyn_storage": {
        "base": "t_struct(Distributor)19_storage",
        "encoding": "dynamic_array",
        "label": "struct BaoEnergy.Distributor[]",
        "numberOfBytes": "32"
      },
      "t_array(t_struct(Propose)44_storage)dyn_storage": {
        "base": "t_struct(Propose)44_storage",
        "encoding": "dynamic_array",
        "label": "struct BaoEnergy.Propose[]",
        "numberOfBytes": "32"
      },
      "t_array(t_struct(UserContract)34_storage)dyn_storage": {
        "base": "t_struct(UserContract)34_storage",
        "encoding": "dynamic_array",
        "label": "struct BaoEnergy.UserContract[]",
        "numberOfBytes": "32"
      },
      "t_bool": {
        "encoding": "inplace",
        "label": "bool",
        "numberOfBytes": "1"
      },
      "t_mapping(t_address,t_array(t_struct(Propose)44_storage)dyn_storage)": {
        "encoding": "mapping",
        "key": "t_address",
        "label": "mapping(address => struct BaoEnergy.Propose[])",
        "numberOfBytes": "32",
        "value": "t_array(t_struct(Propose)44_storage)dyn_storage"
      },
      "t_mapping(t_address,t_struct(Consumer)10_storage)": {
        "encoding": "mapping",
        "key": "t_address",
        "label": "mapping(address => struct BaoEnergy.Consumer)",
        "numberOfBytes": "32",
        "value": "t_struct(Consumer)10_storage"
      },
      "t_mapping(t_address,t_struct(Distributor)19_storage)": {
        "encoding": "mapping",
        "key": "t_address",
        "label": "mapping(address => struct BaoEnergy.Distributor)",
        "numberOfBytes": "32",
        "value": "t_struct(Distributor)19_storage"
      },
      "t_mapping(t_address,t_struct(UserContract)34_storage)": {
        "encoding": "mapping",
        "key": "t_address",
        "label": "mapping(address => struct BaoEnergy.UserContract)",
        "numberOfBytes": "32",
        "value": "t_struct(UserContract)34_storage"
      },
      "t_mapping(t_uint256,t_array(t_struct(Distributor)19_storage)dyn_storage)": {
        "encoding": "mapping",
        "key": "t_uint256",
        "label": "mapping(uint256 => struct BaoEnergy.Distributor[])",
        "numberOfBytes": "32",
        "value": "t_array(t_struct(Distributor)19_storage)dyn_storage"
      },
      "t_mapping(t_uint256,t_array(t_struct(UserContract)34_storage)dyn_storage)": {
        "encoding": "mapping",
        "key": "t_uint256",
        "label": "mapping(uint256 => struct BaoEnergy.UserContract[])",
        "numberOfBytes": "32",
        "value": "t_array(t_struct(UserContract)34_storage)dyn_storage"
      },
      "t_struct(Consumer)10_storage": {
        "encoding": "inplace",
        "label": "struct BaoEnergy.Consumer",
        "members": [
          {
            "astId": 3,
            "contract": "contracts/BaoEnergy.sol:BaoEnergy",
            "label": "isMemberOfFreeEnergyMarket",
            "offset": 0,
            "slot": "0",
            "type": "t_bool"
          },
          {
            "astId": 5,
            "contract": "contracts/BaoEnergy.sol:BaoEnergy",
            "label": "cnpj",
            "offset": 0,
            "slot": "1",
            "type": "t_uint256"
          },
          {
            "astId": 7,
            "contract": "contracts/BaoEnergy.sol:BaoEnergy",
            "label": "localId",
            "offset": 0,
            "slot": "2",
            "type": "t_uint256"
          },
          {
            "astId": 9,
            "contract": "contracts/BaoEnergy.sol:BaoEnergy",
            "label": "active",
            "offset": 0,
            "slot": "3",
            "type": "t_bool"
          }
        ],
        "numberOfBytes": "128"
      },
      "t_struct(Distributor)19_storage": {
        "encoding": "inplace",
        "label": "struct BaoEnergy.Distributor",
        "members": [
          {
            "astId": 12,
            "contract": "contracts/BaoEnergy.sol:BaoEnergy",
            "label": "cnpj",
            "offset": 0,
            "slot": "0",
            "type": "t_uint256"
          },
          {
            "astId": 14,
            "contract": "contracts/BaoEnergy.sol:BaoEnergy",
            "label": "pricePerMonthKWH",
            "offset": 0,
            "slot": "1",
            "type": "t_uint256"
          },
          {
            "astId": 16,
            "contract": "contracts/BaoEnergy.sol:BaoEnergy",
            "label": "localId",
            "offset": 0,
            "slot": "2",
            "type": "t_uint256"
          },
          {
            "astId": 18,
            "contract": "contracts/BaoEnergy.sol:BaoEnergy",
            "label": "active",
            "offset": 0,
            "slot": "3",
            "type": "t_bool"
          }
        ],
        "numberOfBytes": "128"
      },
      "t_struct(Propose)44_storage": {
        "encoding": "inplace",
        "label": "struct BaoEnergy.Propose",
        "members": [
          {
            "astId": 37,
            "contract": "contracts/BaoEnergy.sol:BaoEnergy",
            "label": "userContract",
            "offset": 0,
            "slot": "0",
            "type": "t_struct(UserContract)34_storage"
          },
          {
            "astId": 39,
            "contract": "contracts/BaoEnergy.sol:BaoEnergy",
            "label": "distributor",
            "offset": 0,
            "slot": "7",
            "type": "t_address"
          },
          {
            "astId": 41,
            "contract": "contracts/BaoEnergy.sol:BaoEnergy",
            "label": "consumer",
            "offset": 0,
            "slot": "8",
            "type": "t_address"
          },
          {
            "astId": 43,
            "contract": "contracts/BaoEnergy.sol:BaoEnergy",
            "label": "answered",
            "offset": 20,
            "slot": "8",
            "type": "t_bool"
          }
        ],
        "numberOfBytes": "288"
      },
      "t_struct(UserContract)34_storage": {
        "encoding": "inplace",
        "label": "struct BaoEnergy.UserContract",
        "members": [
          {
            "astId": 21,
            "contract": "contracts/BaoEnergy.sol:BaoEnergy",
            "label": "consumer",
            "offset": 0,
            "slot": "0",
            "type": "t_address"
          },
          {
            "astId": 23,
            "contract": "contracts/BaoEnergy.sol:BaoEnergy",
            "label": "energyConsume",
            "offset": 0,
            "slot": "1",
            "type": "t_uint256"
          },
          {
            "astId": 25,
            "contract": "contracts/BaoEnergy.sol:BaoEnergy",
            "label": "pricePerMonth",
            "offset": 0,
            "slot": "2",
            "type": "t_uint256"
          },
          {
            "astId": 27,
            "contract": "contracts/BaoEnergy.sol:BaoEnergy",
            "label": "timeStamp",
            "offset": 0,
            "slot": "3",
            "type": "t_uint256"
          },
          {
            "astId": 29,
            "contract": "contracts/BaoEnergy.sol:BaoEnergy",
            "label": "localId",
            "offset": 0,
            "slot": "4",
            "type": "t_uint256"
          },
          {
            "astId": 31,
            "contract": "contracts/BaoEnergy.sol:BaoEnergy",
            "label": "active",
            "offset": 0,
            "slot": "5",
            "type": "t_bool"
          },
          {
            "astId": 33,
            "contract": "contracts/BaoEnergy.sol:BaoEnergy",
            "label": "contractDeadLine",
            "offset": 0,
            "slot": "6",
            "type": "t_uint256"
          }
        ],
        "numberOfBytes": "224"
      },
      "t_uint256": {
        "encoding": "inplace",
        "label": "uint256",
        "numberOfBytes": "32"
      }
    }
  }
}