{
  "address": "0x3843b4231B17296657CC59405210070A6efC4D5d",
  "abi": [
    {
      "inputs": [
        {
          "internalType": "uint64",
          "name": "functionsSubscriptionId",
          "type": "uint64"
        }
      ],
      "stateMutability": "nonpayable",
      "type": "constructor"
    },
    {
      "inputs": [],
      "name": "EmptyArgs",
      "type": "error"
    },
    {
      "inputs": [],
      "name": "EmptySource",
      "type": "error"
    },
    {
      "inputs": [],
      "name": "NoInlineSecrets",
      "type": "error"
    },
    {
      "inputs": [],
      "name": "OnlyRouterCanFulfill",
      "type": "error"
    },
    {
      "anonymous": false,
      "inputs": [
        {
          "indexed": true,
          "internalType": "bytes32",
          "name": "id",
          "type": "bytes32"
        }
      ],
      "name": "RequestFulfilled",
      "type": "event"
    },
    {
      "anonymous": false,
      "inputs": [
        {
          "indexed": true,
          "internalType": "bytes32",
          "name": "id",
          "type": "bytes32"
        }
      ],
      "name": "RequestSent",
      "type": "event"
    },
    {
      "anonymous": false,
      "inputs": [
        {
          "indexed": true,
          "internalType": "bytes32",
          "name": "requestId",
          "type": "bytes32"
        },
        {
          "indexed": false,
          "internalType": "string",
          "name": "averagePrice",
          "type": "string"
        },
        {
          "indexed": false,
          "internalType": "bytes",
          "name": "response",
          "type": "bytes"
        },
        {
          "indexed": false,
          "internalType": "bytes",
          "name": "err",
          "type": "bytes"
        }
      ],
      "name": "Response",
      "type": "event"
    },
    {
      "anonymous": false,
      "inputs": [
        {
          "indexed": true,
          "internalType": "uint256",
          "name": "_id",
          "type": "uint256"
        },
        {
          "indexed": false,
          "internalType": "bool",
          "name": "_decision",
          "type": "bool"
        }
      ],
      "name": "answeredPropose",
      "type": "event"
    },
    {
      "anonymous": false,
      "inputs": [
        {
          "indexed": true,
          "internalType": "address",
          "name": "consumer",
          "type": "address"
        }
      ],
      "name": "newConsumerRegistered",
      "type": "event"
    },
    {
      "anonymous": false,
      "inputs": [
        {
          "indexed": true,
          "internalType": "address",
          "name": "_distributor",
          "type": "address"
        }
      ],
      "name": "newDistributorAdded",
      "type": "event"
    },
    {
      "anonymous": false,
      "inputs": [
        {
          "indexed": true,
          "internalType": "address",
          "name": "_distributor",
          "type": "address"
        }
      ],
      "name": "newProposeAdded",
      "type": "event"
    },
    {
      "inputs": [
        {
          "internalType": "uint256",
          "name": "_cnpj",
          "type": "uint256"
        },
        {
          "internalType": "uint256",
          "name": "_pricePerMonthKWH",
          "type": "uint256"
        },
        {
          "internalType": "uint256",
          "name": "_localId",
          "type": "uint256"
        }
      ],
      "name": "addDistributor",
      "outputs": [],
      "stateMutability": "nonpayable",
      "type": "function"
    },
    {
      "inputs": [
        {
          "internalType": "uint256",
          "name": "_energyConsume",
          "type": "uint256"
        },
        {
          "internalType": "uint256",
          "name": "_pricePerMonth",
          "type": "uint256"
        },
        {
          "internalType": "address",
          "name": "_distributor",
          "type": "address"
        },
        {
          "internalType": "uint256",
          "name": "_localId",
          "type": "uint256"
        }
      ],
      "name": "addPropose",
      "outputs": [],
      "stateMutability": "nonpayable",
      "type": "function"
    },
    {
      "inputs": [
        {
          "internalType": "uint256",
          "name": "_id",
          "type": "uint256"
        },
        {
          "internalType": "bool",
          "name": "_decision",
          "type": "bool"
        }
      ],
      "name": "answerPropose",
      "outputs": [],
      "stateMutability": "nonpayable",
      "type": "function"
    },
    {
      "inputs": [
        {
          "internalType": "uint256",
          "name": "_localId",
          "type": "uint256"
        }
      ],
      "name": "bestOptions",
      "outputs": [
        {
          "components": [
            {
              "internalType": "uint256",
              "name": "cnpj",
              "type": "uint256"
            },
            {
              "internalType": "uint256",
              "name": "pricePerMonthKWH",
              "type": "uint256"
            },
            {
              "internalType": "uint256",
              "name": "localId",
              "type": "uint256"
            },
            {
              "internalType": "bool",
              "name": "active",
              "type": "bool"
            }
          ],
          "internalType": "struct BaoEnergy.Distributor[]",
          "name": "",
          "type": "tuple[]"
        }
      ],
      "stateMutability": "view",
      "type": "function"
    },
    {
      "inputs": [
        {
          "internalType": "address",
          "name": "",
          "type": "address"
        }
      ],
      "name": "consumerToUserContract",
      "outputs": [
        {
          "internalType": "uint256",
          "name": "energyConsume",
          "type": "uint256"
        },
        {
          "internalType": "uint256",
          "name": "pricePerMonth",
          "type": "uint256"
        },
        {
          "internalType": "uint256",
          "name": "timeStamp",
          "type": "uint256"
        },
        {
          "internalType": "uint256",
          "name": "localId",
          "type": "uint256"
        },
        {
          "internalType": "bool",
          "name": "active",
          "type": "bool"
        },
        {
          "internalType": "uint256",
          "name": "contractDeadLine",
          "type": "uint256"
        }
      ],
      "stateMutability": "view",
      "type": "function"
    },
    {
      "inputs": [
        {
          "internalType": "address",
          "name": "",
          "type": "address"
        }
      ],
      "name": "consumers",
      "outputs": [
        {
          "internalType": "bool",
          "name": "isMemberOfFreeEnergyMarket",
          "type": "bool"
        },
        {
          "internalType": "uint256",
          "name": "cnpj",
          "type": "uint256"
        },
        {
          "internalType": "uint256",
          "name": "localId",
          "type": "uint256"
        },
        {
          "internalType": "bool",
          "name": "active",
          "type": "bool"
        }
      ],
      "stateMutability": "view",
      "type": "function"
    },
    {
      "inputs": [
        {
          "internalType": "address",
          "name": "",
          "type": "address"
        }
      ],
      "name": "distributors",
      "outputs": [
        {
          "internalType": "uint256",
          "name": "cnpj",
          "type": "uint256"
        },
        {
          "internalType": "uint256",
          "name": "pricePerMonthKWH",
          "type": "uint256"
        },
        {
          "internalType": "uint256",
          "name": "localId",
          "type": "uint256"
        },
        {
          "internalType": "bool",
          "name": "active",
          "type": "bool"
        }
      ],
      "stateMutability": "view",
      "type": "function"
    },
    {
      "inputs": [
        {
          "internalType": "string",
          "name": "deviceId",
          "type": "string"
        }
      ],
      "name": "getMeasure",
      "outputs": [
        {
          "internalType": "bytes32",
          "name": "",
          "type": "bytes32"
        }
      ],
      "stateMutability": "nonpayable",
      "type": "function"
    },
    {
      "inputs": [],
      "name": "getProposes",
      "outputs": [
        {
          "components": [
            {
              "components": [
                {
                  "internalType": "uint256",
                  "name": "energyConsume",
                  "type": "uint256"
                },
                {
                  "internalType": "uint256",
                  "name": "pricePerMonth",
                  "type": "uint256"
                },
                {
                  "internalType": "uint256",
                  "name": "timeStamp",
                  "type": "uint256"
                },
                {
                  "internalType": "uint256",
                  "name": "localId",
                  "type": "uint256"
                },
                {
                  "internalType": "bool",
                  "name": "active",
                  "type": "bool"
                },
                {
                  "internalType": "uint256",
                  "name": "contractDeadLine",
                  "type": "uint256"
                }
              ],
              "internalType": "struct BaoFunction.UserContract",
              "name": "userContract",
              "type": "tuple"
            },
            {
              "internalType": "address",
              "name": "distributor",
              "type": "address"
            },
            {
              "internalType": "address",
              "name": "consumer",
              "type": "address"
            },
            {
              "internalType": "bool",
              "name": "answered",
              "type": "bool"
            }
          ],
          "internalType": "struct BaoEnergy.Propose[]",
          "name": "",
          "type": "tuple[]"
        }
      ],
      "stateMutability": "view",
      "type": "function"
    },
    {
      "inputs": [
        {
          "internalType": "bytes32",
          "name": "requestId",
          "type": "bytes32"
        },
        {
          "internalType": "bytes",
          "name": "response",
          "type": "bytes"
        },
        {
          "internalType": "bytes",
          "name": "err",
          "type": "bytes"
        }
      ],
      "name": "handleOracleFulfillment",
      "outputs": [],
      "stateMutability": "nonpayable",
      "type": "function"
    },
    {
      "inputs": [],
      "name": "lastError",
      "outputs": [
        {
          "internalType": "bytes",
          "name": "",
          "type": "bytes"
        }
      ],
      "stateMutability": "view",
      "type": "function"
    },
    {
      "inputs": [],
      "name": "lastRequestId",
      "outputs": [
        {
          "internalType": "bytes32",
          "name": "",
          "type": "bytes32"
        }
      ],
      "stateMutability": "view",
      "type": "function"
    },
    {
      "inputs": [],
      "name": "lastResponse",
      "outputs": [
        {
          "internalType": "bytes",
          "name": "",
          "type": "bytes"
        }
      ],
      "stateMutability": "view",
      "type": "function"
    },
    {
      "inputs": [
        {
          "internalType": "uint256",
          "name": "",
          "type": "uint256"
        },
        {
          "internalType": "uint256",
          "name": "",
          "type": "uint256"
        }
      ],
      "name": "localIdToDistributors",
      "outputs": [
        {
          "internalType": "uint256",
          "name": "cnpj",
          "type": "uint256"
        },
        {
          "internalType": "uint256",
          "name": "pricePerMonthKWH",
          "type": "uint256"
        },
        {
          "internalType": "uint256",
          "name": "localId",
          "type": "uint256"
        },
        {
          "internalType": "bool",
          "name": "active",
          "type": "bool"
        }
      ],
      "stateMutability": "view",
      "type": "function"
    },
    {
      "inputs": [
        {
          "internalType": "uint256",
          "name": "",
          "type": "uint256"
        },
        {
          "internalType": "uint256",
          "name": "",
          "type": "uint256"
        }
      ],
      "name": "localToContract",
      "outputs": [
        {
          "internalType": "uint256",
          "name": "energyConsume",
          "type": "uint256"
        },
        {
          "internalType": "uint256",
          "name": "pricePerMonth",
          "type": "uint256"
        },
        {
          "internalType": "uint256",
          "name": "timeStamp",
          "type": "uint256"
        },
        {
          "internalType": "uint256",
          "name": "localId",
          "type": "uint256"
        },
        {
          "internalType": "bool",
          "name": "active",
          "type": "bool"
        },
        {
          "internalType": "uint256",
          "name": "contractDeadLine",
          "type": "uint256"
        }
      ],
      "stateMutability": "view",
      "type": "function"
    },
    {
      "inputs": [
        {
          "internalType": "address",
          "name": "",
          "type": "address"
        },
        {
          "internalType": "uint256",
          "name": "",
          "type": "uint256"
        }
      ],
      "name": "proposes",
      "outputs": [
        {
          "components": [
            {
              "internalType": "uint256",
              "name": "energyConsume",
              "type": "uint256"
            },
            {
              "internalType": "uint256",
              "name": "pricePerMonth",
              "type": "uint256"
            },
            {
              "internalType": "uint256",
              "name": "timeStamp",
              "type": "uint256"
            },
            {
              "internalType": "uint256",
              "name": "localId",
              "type": "uint256"
            },
            {
              "internalType": "bool",
              "name": "active",
              "type": "bool"
            },
            {
              "internalType": "uint256",
              "name": "contractDeadLine",
              "type": "uint256"
            }
          ],
          "internalType": "struct BaoFunction.UserContract",
          "name": "userContract",
          "type": "tuple"
        },
        {
          "internalType": "address",
          "name": "distributor",
          "type": "address"
        },
        {
          "internalType": "address",
          "name": "consumer",
          "type": "address"
        },
        {
          "internalType": "bool",
          "name": "answered",
          "type": "bool"
        }
      ],
      "stateMutability": "view",
      "type": "function"
    },
    {
      "inputs": [
        {
          "internalType": "uint256",
          "name": "_cnpj",
          "type": "uint256"
        },
        {
          "internalType": "uint256",
          "name": "_localId",
          "type": "uint256"
        },
        {
          "internalType": "bool",
          "name": "_isMemberOfFreeEnergyMarket",
          "type": "bool"
        }
      ],
      "name": "registerConsumer",
      "outputs": [],
      "stateMutability": "nonpayable",
      "type": "function"
    },
    {
      "inputs": [
        {
          "internalType": "uint256",
          "name": "",
          "type": "uint256"
        }
      ],
      "name": "requestIds",
      "outputs": [
        {
          "internalType": "bytes32",
          "name": "",
          "type": "bytes32"
        }
      ],
      "stateMutability": "view",
      "type": "function"
    },
    {
      "inputs": [
        {
          "internalType": "bytes32",
          "name": "",
          "type": "bytes32"
        }
      ],
      "name": "requests",
      "outputs": [
        {
          "internalType": "address",
          "name": "wallet",
          "type": "address"
        },
        {
          "internalType": "bool",
          "name": "fulfilled",
          "type": "bool"
        },
        {
          "internalType": "bool",
          "name": "exists",
          "type": "bool"
        },
        {
          "internalType": "bytes",
          "name": "response",
          "type": "bytes"
        },
        {
          "internalType": "bytes",
          "name": "err",
          "type": "bytes"
        }
      ],
      "stateMutability": "view",
      "type": "function"
    },
    {
      "inputs": [],
      "name": "source",
      "outputs": [
        {
          "internalType": "string",
          "name": "",
          "type": "string"
        }
      ],
      "stateMutability": "view",
      "type": "function"
    },
    {
      "inputs": [],
      "name": "subscriptionId",
      "outputs": [
        {
          "internalType": "uint64",
          "name": "",
          "type": "uint64"
        }
      ],
      "stateMutability": "view",
      "type": "function"
    }
  ],
  "transactionHash": "0x0c5db9eb0f77da8f3c3c717468ab646a40fa428c6f6725ba01b5744b3b51625c",
  "args": [
    2199
  ],
  "numDeployments": 2,
  "solcInputHash": "9f6b27167902623658fd223ee7d62722",
  "bytecode": "0x600780546001600160a01b03191673b83e47c2bc239b3bf370bc41e1459a34b41238d01790557f66756e2d657468657265756d2d7365706f6c69612d31000000000000000000006008556009805463ffffffff1916620493e0179055610100604052602360a0818152906200299c60c039600a906200007f908262000195565b503480156200008d57600080fd5b50604051620029bf380380620029bf833981016040819052620000b09162000261565b6007546001600160a01b0316608052600980546001600160401b0390921664010000000002600160201b600160601b031990921691909117905562000293565b634e487b7160e01b600052604160045260246000fd5b600181811c908216806200011b57607f821691505b6020821081036200013c57634e487b7160e01b600052602260045260246000fd5b50919050565b601f8211156200019057600081815260208120601f850160051c810160208610156200016b5750805b601f850160051c820191505b818110156200018c5782815560010162000177565b5050505b505050565b81516001600160401b03811115620001b157620001b1620000f0565b620001c981620001c2845462000106565b8462000142565b602080601f831160018114620002015760008415620001e85750858301515b600019600386901b1c1916600185901b1785556200018c565b600085815260208120601f198616915b82811015620002325788860151825594840194600190910190840162000211565b5085821015620002515787850151600019600388901b60f8161c191681555b5050505050600190811b01905550565b6000602082840312156200027457600080fd5b81516001600160401b03811681146200028c57600080fd5b9392505050565b6080516126e6620002b66000396000818161068601526115bd01526126e66000f3fe608060405234801561001057600080fd5b50600436106101375760003560e01c806367e828bf116100b85780639d8669851161007c5780639d86698514610369578063c2729bfb1461038d578063cc642784146103a0578063d3e64ffa146103d8578063f3de41ad146103ed578063fc2a88c31461040057600080fd5b806367e828bf146102e65780636d37a202146102ee5780637c732f851461030e5780638796ba8c146103215780639af96a731461033457600080fd5b806329f0de3f116100ff57806329f0de3f146102805780632e8376dc146102955780632eafc905146102a857806362747e42146102bb578063642cb091146102c357600080fd5b806305ef317a1461013c57806305ff4a51146101b957806309c1ba2e146101da5780630bf536681461020d5780630ca761751461026b575b600080fd5b61018561014a366004611d33565b600060208190529081526040902080546001820154600283015460038401546004850154600590950154939492939192909160ff9091169086565b6040805196875260208701959095529385019290925260608401521515608083015260a082015260c0015b60405180910390f35b6101cc6101c7366004611dd9565b610409565b6040519081526020016101b0565b6009546101f59064010000000090046001600160401b031681565b6040516001600160401b0390911681526020016101b0565b61024761021b366004611d33565b600d60205260009081526040902080546001820154600283015460039093015460ff9283169391921684565b604080519415158552602085019390935291830152151560608201526080016101b0565b61027e610279366004611e49565b61067b565b005b6102886106ff565b6040516101b09190611efb565b61027e6102a3366004611f0e565b61078d565b61027e6102b6366004611f3a565b61089f565b610288610ad4565b6102d66102d1366004611f77565b610ae1565b6040516101b09493929190611fa1565b610288610b83565b6103016102fc366004612011565b610b90565b6040516101b0919061202a565b61027e61031c3660046120a0565b610c29565b6101cc61032f366004612011565b610cf2565b6103476103423660046120d5565b610d13565b60408051948552602085019390935291830152151560608201526080016101b0565b61037c610377366004612011565b610d5c565b6040516101b09594939291906120f7565b61027e61039b366004612149565b610eae565b6103476103ae366004611d33565b600f6020526000908152604090208054600182015460028301546003909301549192909160ff1684565b6103e0611165565b6040516101b09190612175565b6101856103fb3660046120d5565b61124b565b6101cc60025481565b604080516001808252818301909252600091829190816020015b6060815260200190600190039081610423579050509050828160008151811061044e5761044e61221b565b602002602001018190525061049a6040805160e0810190915280600081526020016000815260200160008152602001606081526020016060815260200160608152602001606081525090565b610537600a80546104aa90612231565b80601f01602080910402602001604051908101604052809291908181526020018280546104d690612231565b80156105235780601f106104f857610100808354040283529160200191610523565b820191906000526020600020905b81548152906001019060200180831161050657829003601f168201915b5050505050826112a590919063ffffffff16565b8151156105485761054881836112b6565b610578610554826112e0565b6009546008546001600160401b036401000000008304169163ffffffff16906115b8565b60028190556040805160a081018252338152600060208083018281526001848601818152865180850188528581526060870190815287518086018952868152608088015297855260059093529490922083518154935192511515600160a81b0260ff60a81b19931515600160a01b026001600160a81b03199095166001600160a01b0392909216919091179390931791909116919091178155925190929182019061062390826122b9565b506080820151600282019061063890826122b9565b5050600254600680546001810182556000919091527ff652222313e28459528d920b65115c16c04f3efc82aaedc97be59f3f377c0d3f0181905595945050505050565b336001600160a01b037f000000000000000000000000000000000000000000000000000000000000000016146106c45760405163c6829f8360e01b815260040160405180910390fd5b6106cf83838361168a565b60405183907f85e1543bf2f84fe80c6badbce3648c8539ad1df4d2b3d822938ca0538be727e690600090a2505050565b6004805461070c90612231565b80601f016020809104026020016040519081016040528092919081815260200182805461073890612231565b80156107855780601f1061075a57610100808354040283529160200191610785565b820191906000526020600020905b81548152906001019060200180831161076857829003601f168201915b505050505081565b336000908152600d602052604090206003015460ff16156107c95760405162461bcd60e51b81526004016107c090612378565b60405180910390fd5b6040805160808101825284815260208082018581528284018581526001606085018181526000888152600e8652878120805480850182559082528682208851600490920201908155855181850155845160028083019190915583516003928301805491151560ff1992831617905533808552600f9099528a84208a518155975195880195909555945194860194909455905193909201805493151593909116929092179091559251919290917f539fce68fd46dd4d63494ec1197510a27bfb96eb9b09f050eec103bbdf2b315b9190a250505050565b336000908152600d602052604090206003015460ff166109015760405162461bcd60e51b815260206004820152601860248201527f566f6365206e616f206520756d20636f6e73756d69646f72000000000000000060448201526064016107c0565b6001600160a01b0382166000908152600f602052604090206003015460ff1661097d5760405162461bcd60e51b815260206004820152602860248201527f4f20656e64657265636f207061737361646f206e616f206520756d20646973746044820152673934b13ab4b237b960c11b60648201526084016107c0565b60006040518060c001604052808681526020018581526020014281526020018381526020016001151581526020014262278d006109ba91906123ec565b905260408051608080820183528382523360208084019182526001600160a01b0389811685870181815260006060808901828152848352600b87528a83208054600180820183559185528885208c51805160089093029091019182559889015191810191909155878c015160028201559187015160038301559786015160048201805460ff191691151591909117905560a090950151600586015594516006850180546001600160a01b03191691851691909117905551600790930180549551939092166001600160a81b031990951694909417600160a01b921515929092029190911790559251939450909290917f0d7314c5e85e24751b97c4af5bf2002b2fc093e77d2d0a27785467743c21a17691a2505050505050565b6003805461070c90612231565b600b6020528160005260406000208181548110610afd57600080fd5b60009182526020918290206040805160c08101825260089093029091018054835260018101549383019390935260028301549082015260038201546060820152600482015460ff90811615156080830152600583015460a083015260068301546007909301549194506001600160a01b03928316935091811691600160a01b9091041684565b600a805461070c90612231565b6060600e6000838152602001908152602001600020805480602002602001604051908101604052809291908181526020016000905b82821015610c1e576000848152602090819020604080516080810182526004860290920180548352600180820154848601526002820154928401929092526003015460ff16151560608301529083529092019101610bc5565b505050509050919050565b336000908152600f602052604090206003015460ff1615610c5c5760405162461bcd60e51b81526004016107c090612378565b6040805160808101825282151581526020808201868152828401868152600160608501818152336000818152600d9096528786208751815490151560ff19918216178255955193810193909355925160028301555160039091018054911515919093161790915592519192917fb7a62362dd2be01445191c65d35b774ea413e6b88e82b9ca3b52ab8a4f5e24509190a250505050565b60068181548110610d0257600080fd5b600091825260209091200154905081565b600e6020528160005260406000208181548110610d2f57600080fd5b60009182526020909120600490910201805460018201546002830154600390930154919450925060ff1684565b600560205260009081526040902080546001820180546001600160a01b0383169360ff600160a01b8504811694600160a81b900416929091610d9d90612231565b80601f0160208091040260200160405190810160405280929190818152602001828054610dc990612231565b8015610e165780601f10610deb57610100808354040283529160200191610e16565b820191906000526020600020905b815481529060010190602001808311610df957829003601f168201915b505050505090806002018054610e2b90612231565b80601f0160208091040260200160405190810160405280929190818152602001828054610e5790612231565b8015610ea45780601f10610e7957610100808354040283529160200191610ea4565b820191906000526020600020905b815481529060010190602001808311610e8757829003601f168201915b5050505050905085565b336000908152600f602052604090206003015460ff16610f105760405162461bcd60e51b815260206004820152601a60248201527f566f6365206e616f206520756d20646973747269627569646f7200000000000060448201526064016107c0565b336000908152600b60205260408120805484908110610f3157610f3161221b565b600091825260209091206008909102016006810154909150336001600160a01b0390911603610fb35760405162461bcd60e51b815260206004820152602860248201527f566f6365206e616f2065206f20646973747269627569646f722064657373612060448201526770726f706f73746160c01b60648201526084016107c0565b60078101805460ff60a01b1916600160a01b179055811561113557806000016000808360070160009054906101000a90046001600160a01b03166001600160a01b03166001600160a01b03168152602001908152602001600020600082015481600001556001820154816001015560028201548160020155600382015481600301556004820160009054906101000a900460ff168160040160006101000a81548160ff02191690831515021790555060058201548160050155905050600c600082600001600301548152602001908152602001600020816000019080600181540180825580915050600190039060005260206000209060060201600090919091909150600082015481600001556001820154816001015560028201548160020155600382015481600301556004820160009054906101000a900460ff168160040160006101000a81548160ff02191690831515021790555060058201548160050155505060018160070160146101000a81548160ff0219169083151502179055505b60405133907f0d7314c5e85e24751b97c4af5bf2002b2fc093e77d2d0a27785467743c21a17690600090a2505050565b336000908152600b60209081526040808320805482518185028101850190935280835260609492939192909184015b8282101561124257600084815260209081902060408051610140810182526008860290920180546080840190815260018083015460a0860152600283015460c0860152600383015460e0860152600483015460ff9081161515610100870152600584015461012087015291855260068301546001600160a01b039081168688015260079093015492831693850193909352600160a01b90910416151560608301529083529092019101611194565b50505050905090565b600c602052816000526040600020818154811061126757600080fd5b600091825260209091206006909102018054600182015460028301546003840154600485015460059095015493965091945092909160ff9091169086565b6112b282600080846117ef565b5050565b80516000036112d85760405163fe936cb760e01b815260040160405180910390fd5b60a090910152565b606060006112ef61010061186d565b90506113286040518060400160405280600c81526020016b31b7b232a637b1b0ba34b7b760a11b8152508261188e90919063ffffffff16565b825161134690600281111561133f5761133f6123ff565b82906118ac565b6040805180820190915260088152676c616e677561676560c01b602082015261137090829061188e565b604083015161138790801561133f5761133f6123ff565b604080518082019091526006815265736f7572636560d01b60208201526113af90829061188e565b60608301516113bf90829061188e565b60a08301515115611453576040805180820190915260048152636172677360e01b60208201526113f090829061188e565b6113f9816118e5565b60005b8360a0015151811015611449576114398460a0015182815181106114225761142261221b565b60200260200101518361188e90919063ffffffff16565b61144281612415565b90506113fc565b5061145381611909565b6080830151511561151757600083602001516002811115611476576114766123ff565b036114945760405163a80d31f760e01b815260040160405180910390fd5b60408051808201909152600f81526e39b2b1b932ba39a637b1b0ba34b7b760891b60208201526114c590829061188e565b6114de8360200151600281111561133f5761133f6123ff565b6040805180820190915260078152667365637265747360c81b602082015261150790829061188e565b6080830151611517908290611927565b60c083015151156115b05760408051808201909152600981526862797465734172677360b81b602082015261154d90829061188e565b611556816118e5565b60005b8360c00151518110156115a6576115968460c00151828151811061157f5761157f61221b565b60200260200101518361192790919063ffffffff16565b61159f81612415565b9050611559565b506115b081611909565b515192915050565b6000807f00000000000000000000000000000000000000000000000000000000000000006001600160a01b031663461d27628688600188886040518663ffffffff1660e01b815260040161161095949392919061242e565b6020604051808303816000875af115801561162f573d6000803e3d6000fd5b505050506040513d601f19601f820116820180604052508101906116539190612477565b60405190915081907f1131472297a800fee664d1d89cfa8f7676ff07189ecc53f80bbb5f4969099db890600090a295945050505050565b600083815260056020526040902054600160a81b900460ff166116e35760405162461bcd60e51b81526020600482015260116024820152701c995c5d595cdd081b9bdd08199bdd5b99607a1b60448201526064016107c0565b60046116ef82826122b9565b5060036116fc83826122b9565b506000838152600560205260409020805460ff60a01b1916600160a01b17815560010161172983826122b9565b50600083815260056020526040902060020161174582826122b9565b506000838152600560209081526040808320546001600160a01b0316808452918390529091206004015460ff161561179d57600061178284612490565b6001600160a01b038316600090815260208190526040902055505b60016117a984826122b9565b50837f160ed0aaffbef6885155188b91459cb5a97d5daadccf7561d8c46deea6641b506001600360046040516117e193929190612531565b60405180910390a250505050565b8051600003611811576040516322ce3edd60e01b815260040160405180910390fd5b83836002811115611824576118246123ff565b90816002811115611837576118376123ff565b9052506040840182801561184d5761184d6123ff565b9081801561185d5761185d6123ff565b9052506060909301929092525050565b611875611ce2565b80516118819083611934565b5060006020820152919050565b61189b82600383516119ae565b81516118a79082611acd565b505050565b81516118b99060c2611af5565b506112b282826040516020016118d191815260200190565b604051602081830303815290604052611927565b6118f0816004611b5e565b60018160200181815161190391906123ec565b90525050565b611914816007611b5e565b6001816020018181516119039190612574565b61189b82600283516119ae565b604080518082019091526060815260006020820152611954602083612587565b1561197c57611964602083612587565b61196f906020612574565b61197990836123ec565b91505b6020808401839052604051808552600081529081840101818110156119a057600080fd5b604052508290505b92915050565b6017816001600160401b0316116119da5782516119d49060e0600585901b168317611af5565b50505050565b60ff816001600160401b031611611a1a578251611a02906018611fe0600586901b1617611af5565b5082516119d4906001600160401b0383166001611b75565b61ffff816001600160401b031611611a5b578251611a43906019611fe0600586901b1617611af5565b5082516119d4906001600160401b0383166002611b75565b63ffffffff816001600160401b031611611a9e578251611a8690601a611fe0600586901b1617611af5565b5082516119d4906001600160401b0383166004611b75565b8251611ab590601b611fe0600586901b1617611af5565b5082516119d4906001600160401b0383166008611b75565b604080518082019091526060815260006020820152611aee83838451611bfa565b9392505050565b6040805180820190915260608152600060208201528251516000611b1a8260016123ec565b905084602001518210611b3b57611b3b85611b368360026125a9565b611ccb565b8451602083820101858153508051821115611b54578181525b5093949350505050565b81516118a790601f611fe0600585901b1617611af5565b6040805180820190915260608152600060208201528351516000611b9982856123ec565b90508560200151811115611bb657611bb686611b368360026125a9565b60006001611bc6866101006126a4565b611bd09190612574565b90508651828101878319825116178152508051831115611bee578281525b50959695505050505050565b6040805180820190915260608152600060208201528251821115611c1d57600080fd5b8351516000611c2c84836123ec565b90508560200151811115611c4957611c4986611b368360026125a9565b855180518382016020019160009180851115611c63578482525b505050602086015b60208610611ca35780518252611c826020836123ec565b9150611c8f6020826123ec565b9050611c9c602087612574565b9550611c6b565b51815160001960208890036101000a0190811690199190911617905250849150509392505050565b8151611cd78383611934565b506119d48382611acd565b6040518060400160405280611d0a604051806040016040528060608152602001600081525090565b8152602001600081525090565b80356001600160a01b0381168114611d2e57600080fd5b919050565b600060208284031215611d4557600080fd5b611aee82611d17565b634e487b7160e01b600052604160045260246000fd5b60006001600160401b0380841115611d7e57611d7e611d4e565b604051601f8501601f19908116603f01168101908282118183101715611da657611da6611d4e565b81604052809350858152868686011115611dbf57600080fd5b858560208301376000602087830101525050509392505050565b600060208284031215611deb57600080fd5b81356001600160401b03811115611e0157600080fd5b8201601f81018413611e1257600080fd5b611e2184823560208401611d64565b949350505050565b600082601f830112611e3a57600080fd5b611aee83833560208501611d64565b600080600060608486031215611e5e57600080fd5b8335925060208401356001600160401b0380821115611e7c57600080fd5b611e8887838801611e29565b93506040860135915080821115611e9e57600080fd5b50611eab86828701611e29565b9150509250925092565b6000815180845260005b81811015611edb57602081850181015186830182015201611ebf565b506000602082860101526020601f19601f83011685010191505092915050565b602081526000611aee6020830184611eb5565b600080600060608486031215611f2357600080fd5b505081359360208301359350604090920135919050565b60008060008060808587031215611f5057600080fd5b8435935060208501359250611f6760408601611d17565b9396929550929360600135925050565b60008060408385031215611f8a57600080fd5b611f9383611d17565b946020939093013593505050565b6101208101611fe782878051825260208101516020830152604081015160408301526060810151606083015260808101511515608083015260a081015160a08301525050565b6001600160a01b0394851660c08301529290931660e0840152151561010090920191909152919050565b60006020828403121561202357600080fd5b5035919050565b602080825282518282018190526000919060409081850190868401855b82811015612083578151805185528681015187860152858101518686015260609081015115159085015260809093019290850190600101612047565b5091979650505050505050565b80358015158114611d2e57600080fd5b6000806000606084860312156120b557600080fd5b83359250602084013591506120cc60408501612090565b90509250925092565b600080604083850312156120e857600080fd5b50508035926020909101359150565b6001600160a01b03861681528415156020820152831515604082015260a06060820181905260009061212b90830185611eb5565b828103608084015261213d8185611eb5565b98975050505050505050565b6000806040838503121561215c57600080fd5b8235915061216c60208401612090565b90509250929050565b602080825282518282018190526000919060409081850190868401855b828110156120835781516121de8582518051825260208101516020830152604081015160408301526060810151606083015260808101511515608083015260a081015160a08301525050565b808701516001600160a01b0390811660c0870152868201511660e08601526060015115156101008501526101209093019290850190600101612192565b634e487b7160e01b600052603260045260246000fd5b600181811c9082168061224557607f821691505b60208210810361226557634e487b7160e01b600052602260045260246000fd5b50919050565b601f8211156118a757600081815260208120601f850160051c810160208610156122925750805b601f850160051c820191505b818110156122b15782815560010161229e565b505050505050565b81516001600160401b038111156122d2576122d2611d4e565b6122e6816122e08454612231565b8461226b565b602080601f83116001811461231b57600084156123035750858301515b600019600386901b1c1916600185901b1785556122b1565b600085815260208120601f198616915b8281101561234a5788860151825594840194600190910190840161232b565b50858210156123685787850151600019600388901b60f8161c191681555b5050505050600190811b01905550565b602080825260409082018190527f566f6365206e616f20706f64652073657220756d20646973747269627569646f908201527f72206520756d20636f6e73756d69646f7220616f206d65736d6f2074656d706f606082015260800190565b634e487b7160e01b600052601160045260246000fd5b808201808211156119a8576119a86123d6565b634e487b7160e01b600052602160045260246000fd5b600060018201612427576124276123d6565b5060010190565b6001600160401b038616815260a06020820152600061245060a0830187611eb5565b61ffff9590951660408301525063ffffffff92909216606083015260809091015292915050565b60006020828403121561248957600080fd5b5051919050565b805160208083015191908110156122655760001960209190910360031b1b16919050565b600081546124c181612231565b8085526020600183811680156124de57600181146124f857612526565b60ff1985168884015283151560051b880183019550612526565b866000528260002060005b8581101561251e5781548a8201860152908301908401612503565b890184019650505b505050505092915050565b60608152600061254460608301866124b4565b828103602084015261255681866124b4565b9050828103604084015261256a81856124b4565b9695505050505050565b818103818111156119a8576119a86123d6565b6000826125a457634e487b7160e01b600052601260045260246000fd5b500690565b80820281158282048414176119a8576119a86123d6565b600181815b808511156125fb5781600019048211156125e1576125e16123d6565b808516156125ee57918102915b93841c93908002906125c5565b509250929050565b600082612612575060016119a8565b8161261f575060006119a8565b8160018114612635576002811461263f5761265b565b60019150506119a8565b60ff841115612650576126506123d6565b50506001821b6119a8565b5060208310610133831016604e8410600b841016171561267e575081810a6119a8565b61268883836125c0565b806000190482111561269c5761269c6123d6565b029392505050565b6000611aee838361260356fea2646970667358221220277201af5b0a5ae978c0c1e16385e73d1617006f521b15f32033127c227f65ae64736f6c6343000813003372657475726e2046756e6374696f6e732e656e636f6465496e7432353628373634293b",
  "devdoc": {
    "kind": "dev",
    "methods": {
      "handleOracleFulfillment(bytes32,bytes,bytes)": {
        "details": "Either response or error parameter will be set, but never both.",
        "params": {
          "err": "Aggregated error either from the request's source code or from the execution pipeline.",
          "requestId": "The requestId returned by FunctionsClient.sendRequest().",
          "response": "Aggregated response from the request's source code."
        }
      }
    },
    "version": 1
  },
  "userdoc": {
    "kind": "user",
    "methods": {
      "handleOracleFulfillment(bytes32,bytes,bytes)": {
        "notice": "Chainlink Functions response handler called by the Functions Router during fullilment from the designated transmitter node in an OCR round."
      }
    },
    "version": 1
  },
  "storageLayout": {
    "storage": [
      {
        "astId": 2646,
        "contract": "contracts/BaoEnergy.sol:BaoEnergy",
        "label": "consumerToUserContract",
        "offset": 0,
        "slot": "0",
        "type": "t_mapping(t_address,t_struct(UserContract)2641_storage)"
      },
      {
        "astId": 2648,
        "contract": "contracts/BaoEnergy.sol:BaoEnergy",
        "label": "answer",
        "offset": 0,
        "slot": "1",
        "type": "t_string_storage"
      },
      {
        "astId": 2650,
        "contract": "contracts/BaoEnergy.sol:BaoEnergy",
        "label": "lastRequestId",
        "offset": 0,
        "slot": "2",
        "type": "t_bytes32"
      },
      {
        "astId": 2652,
        "contract": "contracts/BaoEnergy.sol:BaoEnergy",
        "label": "lastResponse",
        "offset": 0,
        "slot": "3",
        "type": "t_bytes_storage"
      },
      {
        "astId": 2654,
        "contract": "contracts/BaoEnergy.sol:BaoEnergy",
        "label": "lastError",
        "offset": 0,
        "slot": "4",
        "type": "t_bytes_storage"
      },
      {
        "astId": 2670,
        "contract": "contracts/BaoEnergy.sol:BaoEnergy",
        "label": "requests",
        "offset": 0,
        "slot": "5",
        "type": "t_mapping(t_bytes32,t_struct(RequestStatus)2665_storage)"
      },
      {
        "astId": 2673,
        "contract": "contracts/BaoEnergy.sol:BaoEnergy",
        "label": "requestIds",
        "offset": 0,
        "slot": "6",
        "type": "t_array(t_bytes32)dyn_storage"
      },
      {
        "astId": 2686,
        "contract": "contracts/BaoEnergy.sol:BaoEnergy",
        "label": "router",
        "offset": 0,
        "slot": "7",
        "type": "t_address"
      },
      {
        "astId": 2689,
        "contract": "contracts/BaoEnergy.sol:BaoEnergy",
        "label": "donID",
        "offset": 0,
        "slot": "8",
        "type": "t_bytes32"
      },
      {
        "astId": 2692,
        "contract": "contracts/BaoEnergy.sol:BaoEnergy",
        "label": "gasLimit",
        "offset": 0,
        "slot": "9",
        "type": "t_uint32"
      },
      {
        "astId": 2694,
        "contract": "contracts/BaoEnergy.sol:BaoEnergy",
        "label": "subscriptionId",
        "offset": 4,
        "slot": "9",
        "type": "t_uint64"
      },
      {
        "astId": 2697,
        "contract": "contracts/BaoEnergy.sol:BaoEnergy",
        "label": "source",
        "offset": 0,
        "slot": "10",
        "type": "t_string_storage"
      },
      {
        "astId": 2335,
        "contract": "contracts/BaoEnergy.sol:BaoEnergy",
        "label": "proposes",
        "offset": 0,
        "slot": "11",
        "type": "t_mapping(t_address,t_array(t_struct(Propose)2285_storage)dyn_storage)"
      },
      {
        "astId": 2341,
        "contract": "contracts/BaoEnergy.sol:BaoEnergy",
        "label": "localToContract",
        "offset": 0,
        "slot": "12",
        "type": "t_mapping(t_uint256,t_array(t_struct(UserContract)2641_storage)dyn_storage)"
      },
      {
        "astId": 2346,
        "contract": "contracts/BaoEnergy.sol:BaoEnergy",
        "label": "consumers",
        "offset": 0,
        "slot": "13",
        "type": "t_mapping(t_address,t_struct(Consumer)2266_storage)"
      },
      {
        "astId": 2352,
        "contract": "contracts/BaoEnergy.sol:BaoEnergy",
        "label": "localIdToDistributors",
        "offset": 0,
        "slot": "14",
        "type": "t_mapping(t_uint256,t_array(t_struct(Distributor)2275_storage)dyn_storage)"
      },
      {
        "astId": 2357,
        "contract": "contracts/BaoEnergy.sol:BaoEnergy",
        "label": "distributors",
        "offset": 0,
        "slot": "15",
        "type": "t_mapping(t_address,t_struct(Distributor)2275_storage)"
      }
    ],
    "types": {
      "t_address": {
        "encoding": "inplace",
        "label": "address",
        "numberOfBytes": "20"
      },
      "t_array(t_bytes32)dyn_storage": {
        "base": "t_bytes32",
        "encoding": "dynamic_array",
        "label": "bytes32[]",
        "numberOfBytes": "32"
      },
      "t_array(t_struct(Distributor)2275_storage)dyn_storage": {
        "base": "t_struct(Distributor)2275_storage",
        "encoding": "dynamic_array",
        "label": "struct BaoEnergy.Distributor[]",
        "numberOfBytes": "32"
      },
      "t_array(t_struct(Propose)2285_storage)dyn_storage": {
        "base": "t_struct(Propose)2285_storage",
        "encoding": "dynamic_array",
        "label": "struct BaoEnergy.Propose[]",
        "numberOfBytes": "32"
      },
      "t_array(t_struct(UserContract)2641_storage)dyn_storage": {
        "base": "t_struct(UserContract)2641_storage",
        "encoding": "dynamic_array",
        "label": "struct BaoFunction.UserContract[]",
        "numberOfBytes": "32"
      },
      "t_bool": {
        "encoding": "inplace",
        "label": "bool",
        "numberOfBytes": "1"
      },
      "t_bytes32": {
        "encoding": "inplace",
        "label": "bytes32",
        "numberOfBytes": "32"
      },
      "t_bytes_storage": {
        "encoding": "bytes",
        "label": "bytes",
        "numberOfBytes": "32"
      },
      "t_mapping(t_address,t_array(t_struct(Propose)2285_storage)dyn_storage)": {
        "encoding": "mapping",
        "key": "t_address",
        "label": "mapping(address => struct BaoEnergy.Propose[])",
        "numberOfBytes": "32",
        "value": "t_array(t_struct(Propose)2285_storage)dyn_storage"
      },
      "t_mapping(t_address,t_struct(Consumer)2266_storage)": {
        "encoding": "mapping",
        "key": "t_address",
        "label": "mapping(address => struct BaoEnergy.Consumer)",
        "numberOfBytes": "32",
        "value": "t_struct(Consumer)2266_storage"
      },
      "t_mapping(t_address,t_struct(Distributor)2275_storage)": {
        "encoding": "mapping",
        "key": "t_address",
        "label": "mapping(address => struct BaoEnergy.Distributor)",
        "numberOfBytes": "32",
        "value": "t_struct(Distributor)2275_storage"
      },
      "t_mapping(t_address,t_struct(UserContract)2641_storage)": {
        "encoding": "mapping",
        "key": "t_address",
        "label": "mapping(address => struct BaoFunction.UserContract)",
        "numberOfBytes": "32",
        "value": "t_struct(UserContract)2641_storage"
      },
      "t_mapping(t_bytes32,t_struct(RequestStatus)2665_storage)": {
        "encoding": "mapping",
        "key": "t_bytes32",
        "label": "mapping(bytes32 => struct BaoFunction.RequestStatus)",
        "numberOfBytes": "32",
        "value": "t_struct(RequestStatus)2665_storage"
      },
      "t_mapping(t_uint256,t_array(t_struct(Distributor)2275_storage)dyn_storage)": {
        "encoding": "mapping",
        "key": "t_uint256",
        "label": "mapping(uint256 => struct BaoEnergy.Distributor[])",
        "numberOfBytes": "32",
        "value": "t_array(t_struct(Distributor)2275_storage)dyn_storage"
      },
      "t_mapping(t_uint256,t_array(t_struct(UserContract)2641_storage)dyn_storage)": {
        "encoding": "mapping",
        "key": "t_uint256",
        "label": "mapping(uint256 => struct BaoFunction.UserContract[])",
        "numberOfBytes": "32",
        "value": "t_array(t_struct(UserContract)2641_storage)dyn_storage"
      },
      "t_string_storage": {
        "encoding": "bytes",
        "label": "string",
        "numberOfBytes": "32"
      },
      "t_struct(Consumer)2266_storage": {
        "encoding": "inplace",
        "label": "struct BaoEnergy.Consumer",
        "members": [
          {
            "astId": 2259,
            "contract": "contracts/BaoEnergy.sol:BaoEnergy",
            "label": "isMemberOfFreeEnergyMarket",
            "offset": 0,
            "slot": "0",
            "type": "t_bool"
          },
          {
            "astId": 2261,
            "contract": "contracts/BaoEnergy.sol:BaoEnergy",
            "label": "cnpj",
            "offset": 0,
            "slot": "1",
            "type": "t_uint256"
          },
          {
            "astId": 2263,
            "contract": "contracts/BaoEnergy.sol:BaoEnergy",
            "label": "localId",
            "offset": 0,
            "slot": "2",
            "type": "t_uint256"
          },
          {
            "astId": 2265,
            "contract": "contracts/BaoEnergy.sol:BaoEnergy",
            "label": "active",
            "offset": 0,
            "slot": "3",
            "type": "t_bool"
          }
        ],
        "numberOfBytes": "128"
      },
      "t_struct(Distributor)2275_storage": {
        "encoding": "inplace",
        "label": "struct BaoEnergy.Distributor",
        "members": [
          {
            "astId": 2268,
            "contract": "contracts/BaoEnergy.sol:BaoEnergy",
            "label": "cnpj",
            "offset": 0,
            "slot": "0",
            "type": "t_uint256"
          },
          {
            "astId": 2270,
            "contract": "contracts/BaoEnergy.sol:BaoEnergy",
            "label": "pricePerMonthKWH",
            "offset": 0,
            "slot": "1",
            "type": "t_uint256"
          },
          {
            "astId": 2272,
            "contract": "contracts/BaoEnergy.sol:BaoEnergy",
            "label": "localId",
            "offset": 0,
            "slot": "2",
            "type": "t_uint256"
          },
          {
            "astId": 2274,
            "contract": "contracts/BaoEnergy.sol:BaoEnergy",
            "label": "active",
            "offset": 0,
            "slot": "3",
            "type": "t_bool"
          }
        ],
        "numberOfBytes": "128"
      },
      "t_struct(Propose)2285_storage": {
        "encoding": "inplace",
        "label": "struct BaoEnergy.Propose",
        "members": [
          {
            "astId": 2278,
            "contract": "contracts/BaoEnergy.sol:BaoEnergy",
            "label": "userContract",
            "offset": 0,
            "slot": "0",
            "type": "t_struct(UserContract)2641_storage"
          },
          {
            "astId": 2280,
            "contract": "contracts/BaoEnergy.sol:BaoEnergy",
            "label": "distributor",
            "offset": 0,
            "slot": "6",
            "type": "t_address"
          },
          {
            "astId": 2282,
            "contract": "contracts/BaoEnergy.sol:BaoEnergy",
            "label": "consumer",
            "offset": 0,
            "slot": "7",
            "type": "t_address"
          },
          {
            "astId": 2284,
            "contract": "contracts/BaoEnergy.sol:BaoEnergy",
            "label": "answered",
            "offset": 20,
            "slot": "7",
            "type": "t_bool"
          }
        ],
        "numberOfBytes": "256"
      },
      "t_struct(RequestStatus)2665_storage": {
        "encoding": "inplace",
        "label": "struct BaoFunction.RequestStatus",
        "members": [
          {
            "astId": 2656,
            "contract": "contracts/BaoEnergy.sol:BaoEnergy",
            "label": "wallet",
            "offset": 0,
            "slot": "0",
            "type": "t_address"
          },
          {
            "astId": 2658,
            "contract": "contracts/BaoEnergy.sol:BaoEnergy",
            "label": "fulfilled",
            "offset": 20,
            "slot": "0",
            "type": "t_bool"
          },
          {
            "astId": 2660,
            "contract": "contracts/BaoEnergy.sol:BaoEnergy",
            "label": "exists",
            "offset": 21,
            "slot": "0",
            "type": "t_bool"
          },
          {
            "astId": 2662,
            "contract": "contracts/BaoEnergy.sol:BaoEnergy",
            "label": "response",
            "offset": 0,
            "slot": "1",
            "type": "t_bytes_storage"
          },
          {
            "astId": 2664,
            "contract": "contracts/BaoEnergy.sol:BaoEnergy",
            "label": "err",
            "offset": 0,
            "slot": "2",
            "type": "t_bytes_storage"
          }
        ],
        "numberOfBytes": "96"
      },
      "t_struct(UserContract)2641_storage": {
        "encoding": "inplace",
        "label": "struct BaoFunction.UserContract",
        "members": [
          {
            "astId": 2630,
            "contract": "contracts/BaoEnergy.sol:BaoEnergy",
            "label": "energyConsume",
            "offset": 0,
            "slot": "0",
            "type": "t_uint256"
          },
          {
            "astId": 2632,
            "contract": "contracts/BaoEnergy.sol:BaoEnergy",
            "label": "pricePerMonth",
            "offset": 0,
            "slot": "1",
            "type": "t_uint256"
          },
          {
            "astId": 2634,
            "contract": "contracts/BaoEnergy.sol:BaoEnergy",
            "label": "timeStamp",
            "offset": 0,
            "slot": "2",
            "type": "t_uint256"
          },
          {
            "astId": 2636,
            "contract": "contracts/BaoEnergy.sol:BaoEnergy",
            "label": "localId",
            "offset": 0,
            "slot": "3",
            "type": "t_uint256"
          },
          {
            "astId": 2638,
            "contract": "contracts/BaoEnergy.sol:BaoEnergy",
            "label": "active",
            "offset": 0,
            "slot": "4",
            "type": "t_bool"
          },
          {
            "astId": 2640,
            "contract": "contracts/BaoEnergy.sol:BaoEnergy",
            "label": "contractDeadLine",
            "offset": 0,
            "slot": "5",
            "type": "t_uint256"
          }
        ],
        "numberOfBytes": "192"
      },
      "t_uint256": {
        "encoding": "inplace",
        "label": "uint256",
        "numberOfBytes": "32"
      },
      "t_uint32": {
        "encoding": "inplace",
        "label": "uint32",
        "numberOfBytes": "4"
      },
      "t_uint64": {
        "encoding": "inplace",
        "label": "uint64",
        "numberOfBytes": "8"
      }
    }
  }
}