{
  "_format": "hh-sol-artifact-1",
  "contractName": "BaoFunction",
  "sourceName": "contracts/BaoFunction.sol",
  "abi": [
    {
      "inputs": [
        {
          "internalType": "uint64",
          "name": "functionsSubscriptionId",
          "type": "uint64"
        }
      ],
      "stateMutability": "nonpayable",
      "type": "constructor"
    },
    {
      "inputs": [],
      "name": "EmptyArgs",
      "type": "error"
    },
    {
      "inputs": [],
      "name": "EmptySource",
      "type": "error"
    },
    {
      "inputs": [],
      "name": "NoInlineSecrets",
      "type": "error"
    },
    {
      "inputs": [],
      "name": "OnlyRouterCanFulfill",
      "type": "error"
    },
    {
      "anonymous": false,
      "inputs": [
        {
          "indexed": true,
          "internalType": "bytes32",
          "name": "id",
          "type": "bytes32"
        }
      ],
      "name": "RequestFulfilled",
      "type": "event"
    },
    {
      "anonymous": false,
      "inputs": [
        {
          "indexed": true,
          "internalType": "bytes32",
          "name": "id",
          "type": "bytes32"
        }
      ],
      "name": "RequestSent",
      "type": "event"
    },
    {
      "anonymous": false,
      "inputs": [
        {
          "indexed": true,
          "internalType": "bytes32",
          "name": "requestId",
          "type": "bytes32"
        },
        {
          "indexed": false,
          "internalType": "string",
          "name": "averagePrice",
          "type": "string"
        },
        {
          "indexed": false,
          "internalType": "bytes",
          "name": "response",
          "type": "bytes"
        },
        {
          "indexed": false,
          "internalType": "bytes",
          "name": "err",
          "type": "bytes"
        }
      ],
      "name": "Response",
      "type": "event"
    },
    {
      "inputs": [
        {
          "internalType": "address",
          "name": "",
          "type": "address"
        }
      ],
      "name": "consumerToUserContract",
      "outputs": [
        {
          "internalType": "uint256",
          "name": "energyConsume",
          "type": "uint256"
        },
        {
          "internalType": "uint256",
          "name": "pricePerMonth",
          "type": "uint256"
        },
        {
          "internalType": "uint256",
          "name": "timeStamp",
          "type": "uint256"
        },
        {
          "internalType": "uint256",
          "name": "localId",
          "type": "uint256"
        },
        {
          "internalType": "bool",
          "name": "active",
          "type": "bool"
        },
        {
          "internalType": "uint256",
          "name": "contractDeadLine",
          "type": "uint256"
        }
      ],
      "stateMutability": "view",
      "type": "function"
    },
    {
      "inputs": [
        {
          "internalType": "string",
          "name": "deviceId",
          "type": "string"
        }
      ],
      "name": "getMeasure",
      "outputs": [
        {
          "internalType": "bytes32",
          "name": "",
          "type": "bytes32"
        }
      ],
      "stateMutability": "nonpayable",
      "type": "function"
    },
    {
      "inputs": [
        {
          "internalType": "bytes32",
          "name": "requestId",
          "type": "bytes32"
        },
        {
          "internalType": "bytes",
          "name": "response",
          "type": "bytes"
        },
        {
          "internalType": "bytes",
          "name": "err",
          "type": "bytes"
        }
      ],
      "name": "handleOracleFulfillment",
      "outputs": [],
      "stateMutability": "nonpayable",
      "type": "function"
    },
    {
      "inputs": [],
      "name": "lastError",
      "outputs": [
        {
          "internalType": "bytes",
          "name": "",
          "type": "bytes"
        }
      ],
      "stateMutability": "view",
      "type": "function"
    },
    {
      "inputs": [],
      "name": "lastRequestId",
      "outputs": [
        {
          "internalType": "bytes32",
          "name": "",
          "type": "bytes32"
        }
      ],
      "stateMutability": "view",
      "type": "function"
    },
    {
      "inputs": [],
      "name": "lastResponse",
      "outputs": [
        {
          "internalType": "bytes",
          "name": "",
          "type": "bytes"
        }
      ],
      "stateMutability": "view",
      "type": "function"
    },
    {
      "inputs": [
        {
          "internalType": "uint256",
          "name": "",
          "type": "uint256"
        }
      ],
      "name": "requestIds",
      "outputs": [
        {
          "internalType": "bytes32",
          "name": "",
          "type": "bytes32"
        }
      ],
      "stateMutability": "view",
      "type": "function"
    },
    {
      "inputs": [
        {
          "internalType": "bytes32",
          "name": "",
          "type": "bytes32"
        }
      ],
      "name": "requests",
      "outputs": [
        {
          "internalType": "address",
          "name": "wallet",
          "type": "address"
        },
        {
          "internalType": "bool",
          "name": "fulfilled",
          "type": "bool"
        },
        {
          "internalType": "bool",
          "name": "exists",
          "type": "bool"
        },
        {
          "internalType": "bytes",
          "name": "response",
          "type": "bytes"
        },
        {
          "internalType": "bytes",
          "name": "err",
          "type": "bytes"
        }
      ],
      "stateMutability": "view",
      "type": "function"
    },
    {
      "inputs": [],
      "name": "source",
      "outputs": [
        {
          "internalType": "string",
          "name": "",
          "type": "string"
        }
      ],
      "stateMutability": "view",
      "type": "function"
    },
    {
      "inputs": [],
      "name": "subscriptionId",
      "outputs": [
        {
          "internalType": "uint64",
          "name": "",
          "type": "uint64"
        }
      ],
      "stateMutability": "view",
      "type": "function"
    }
  ],
  "bytecode": "0x60a060405273b83e47c2bc239b3bf370bc41e1459a34b41238d0600760006101000a81548173ffffffffffffffffffffffffffffffffffffffff021916908373ffffffffffffffffffffffffffffffffffffffff1602179055507f66756e2d657468657265756d2d7365706f6c69612d310000000000000000000060001b600855620493e0600960006101000a81548163ffffffff021916908363ffffffff16021790555060405180606001604052806023815260200162002ed760239139600a9081620000ce919062000404565b50348015620000dc57600080fd5b5060405162002efa38038062002efa833981810160405281019062000102919062000535565b600760009054906101000a900473ffffffffffffffffffffffffffffffffffffffff168073ffffffffffffffffffffffffffffffffffffffff1660808173ffffffffffffffffffffffffffffffffffffffff16815250505080600960046101000a81548167ffffffffffffffff021916908367ffffffffffffffff1602179055505062000567565b600081519050919050565b7f4e487b7100000000000000000000000000000000000000000000000000000000600052604160045260246000fd5b7f4e487b7100000000000000000000000000000000000000000000000000000000600052602260045260246000fd5b600060028204905060018216806200020c57607f821691505b602082108103620002225762000221620001c4565b5b50919050565b60008190508160005260206000209050919050565b60006020601f8301049050919050565b600082821b905092915050565b6000600883026200028c7fffffffffffffffffffffffffffffffffffffffffffffffffffffffffffffffff826200024d565b6200029886836200024d565b95508019841693508086168417925050509392505050565b6000819050919050565b6000819050919050565b6000620002e5620002df620002d984620002b0565b620002ba565b620002b0565b9050919050565b6000819050919050565b6200030183620002c4565b620003196200031082620002ec565b8484546200025a565b825550505050565b600090565b6200033062000321565b6200033d818484620002f6565b505050565b5b8181101562000365576200035960008262000326565b60018101905062000343565b5050565b601f821115620003b4576200037e8162000228565b62000389846200023d565b8101602085101562000399578190505b620003b1620003a8856200023d565b83018262000342565b50505b505050565b600082821c905092915050565b6000620003d960001984600802620003b9565b1980831691505092915050565b6000620003f48383620003c6565b9150826002028217905092915050565b6200040f826200018a565b67ffffffffffffffff8111156200042b576200042a62000195565b5b620004378254620001f3565b6200044482828562000369565b600060209050601f8311600181146200047c576000841562000467578287015190505b620004738582620003e6565b865550620004e3565b601f1984166200048c8662000228565b60005b82811015620004b6578489015182556001820191506020850194506020810190506200048f565b86831015620004d65784890151620004d2601f891682620003c6565b8355505b6001600288020188555050505b505050505050565b600080fd5b600067ffffffffffffffff82169050919050565b6200050f81620004f0565b81146200051b57600080fd5b50565b6000815190506200052f8162000504565b92915050565b6000602082840312156200054e576200054d620004eb565b5b60006200055e848285016200051e565b91505092915050565b60805161294d6200058a600039600081816105610152610def015261294d6000f3fe608060405234801561001057600080fd5b506004361061009e5760003560e01c806362747e421161006657806362747e421461016057806367e828bf1461017e5780638796ba8c1461019c5780639d866985146101cc578063fc2a88c3146102005761009e565b806305ef317a146100a357806305ff4a51146100d857806309c1ba2e146101085780630ca761751461012657806329f0de3f14610142575b600080fd5b6100bd60048036038101906100b89190611847565b61021e565b6040516100cf969594939291906118a8565b60405180910390f35b6100f260048036038101906100ed9190611a4f565b610267565b6040516100ff9190611ab1565b60405180910390f35b610110610545565b60405161011d9190611aef565b60405180910390f35b610140600480360381019061013b9190611bd7565b61055f565b005b61014a610621565b6040516101579190611ce1565b60405180910390f35b6101686106af565b6040516101759190611ce1565b60405180910390f35b61018661073d565b6040516101939190611d58565b60405180910390f35b6101b660048036038101906101b19190611da6565b6107cb565b6040516101c39190611ab1565b60405180910390f35b6101e660048036038101906101e19190611dd3565b6107ef565b6040516101f7959493929190611e0f565b60405180910390f35b61020861096f565b6040516102159190611ab1565b60405180910390f35b60006020528060005260406000206000915090508060000154908060010154908060020154908060030154908060040160009054906101000a900460ff16908060050154905086565b600080600167ffffffffffffffff81111561028557610284611924565b5b6040519080825280602002602001820160405280156102b857816020015b60608152602001906001900390816102a35790505b50905082816000815181106102d0576102cf611e70565b5b60200260200101819052506102e3611729565b610380600a80546102f390611ece565b80601f016020809104026020016040519081016040528092919081815260200182805461031f90611ece565b801561036c5780601f106103415761010080835404028352916020019161036c565b820191906000526020600020905b81548152906001019060200180831161034f57829003601f168201915b50505050508261097590919063ffffffff16565b60008251111561039e5761039d828261098690919063ffffffff16565b5b6103dc6103aa826109ce565b600960049054906101000a900467ffffffffffffffff16600960009054906101000a900463ffffffff16600854610dea565b6002819055506040518060a001604052803373ffffffffffffffffffffffffffffffffffffffff1681526020016000151581526020016001151581526020016040518060200160405280600081525081526020016040518060200160405280600081525081525060056000600254815260200190815260200160002060008201518160000160006101000a81548173ffffffffffffffffffffffffffffffffffffffff021916908373ffffffffffffffffffffffffffffffffffffffff16021790555060208201518160000160146101000a81548160ff02191690831515021790555060408201518160000160156101000a81548160ff02191690831515021790555060608201518160010190816104f491906120ab565b50608082015181600201908161050a91906120ab565b509050506006600254908060018154018082558091505060019003906000526020600020016000909190919091505560025492505050919050565b600960049054906101000a900467ffffffffffffffff1681565b7f000000000000000000000000000000000000000000000000000000000000000073ffffffffffffffffffffffffffffffffffffffff163373ffffffffffffffffffffffffffffffffffffffff16146105e4576040517fc6829f8300000000000000000000000000000000000000000000000000000000815260040160405180910390fd5b6105ef838383610ecd565b827f85e1543bf2f84fe80c6badbce3648c8539ad1df4d2b3d822938ca0538be727e660405160405180910390a2505050565b6004805461062e90611ece565b80601f016020809104026020016040519081016040528092919081815260200182805461065a90611ece565b80156106a75780601f1061067c576101008083540402835291602001916106a7565b820191906000526020600020905b81548152906001019060200180831161068a57829003601f168201915b505050505081565b600380546106bc90611ece565b80601f01602080910402602001604051908101604052809291908181526020018280546106e890611ece565b80156107355780601f1061070a57610100808354040283529160200191610735565b820191906000526020600020905b81548152906001019060200180831161071857829003601f168201915b505050505081565b600a805461074a90611ece565b80601f016020809104026020016040519081016040528092919081815260200182805461077690611ece565b80156107c35780601f10610798576101008083540402835291602001916107c3565b820191906000526020600020905b8154815290600101906020018083116107a657829003601f168201915b505050505081565b600681815481106107db57600080fd5b906000526020600020016000915090505481565b60056020528060005260406000206000915090508060000160009054906101000a900473ffffffffffffffffffffffffffffffffffffffff16908060000160149054906101000a900460ff16908060000160159054906101000a900460ff169080600101805461085e90611ece565b80601f016020809104026020016040519081016040528092919081815260200182805461088a90611ece565b80156108d75780601f106108ac576101008083540402835291602001916108d7565b820191906000526020600020905b8154815290600101906020018083116108ba57829003601f168201915b5050505050908060020180546108ec90611ece565b80601f016020809104026020016040519081016040528092919081815260200182805461091890611ece565b80156109655780601f1061093a57610100808354040283529160200191610965565b820191906000526020600020905b81548152906001019060200180831161094857829003601f168201915b5050505050905085565b60025481565b6109828260008084611104565b5050565b60008151036109c1576040517ffe936cb700000000000000000000000000000000000000000000000000000000815260040160405180910390fd5b808260a001819052505050565b606060006109dd6101006111ae565b9050610a276040518060400160405280600c81526020017f636f64654c6f636174696f6e0000000000000000000000000000000000000000815250826111d590919063ffffffff16565b610a5083600001516002811115610a4157610a4061217d565b5b826111fe90919063ffffffff16565b610a986040518060400160405280600881526020017f6c616e6775616765000000000000000000000000000000000000000000000000815250826111d590919063ffffffff16565b610ac183604001516000811115610ab257610ab161217d565b5b826111fe90919063ffffffff16565b610b096040518060400160405280600681526020017f736f757263650000000000000000000000000000000000000000000000000000815250826111d590919063ffffffff16565b610b208360600151826111d590919063ffffffff16565b60008360a00151511115610bdc57610b766040518060400160405280600481526020017f6172677300000000000000000000000000000000000000000000000000000000815250826111d590919063ffffffff16565b610b7f8161124e565b60005b8360a0015151811015610bd157610bc08460a001518281518110610ba957610ba8611e70565b5b6020026020010151836111d590919063ffffffff16565b80610bca906121db565b9050610b82565b50610bdb81611276565b5b60008360800151511115610d1d5760006002811115610bfe57610bfd61217d565b5b83602001516002811115610c1557610c1461217d565b5b03610c4c576040517fa80d31f700000000000000000000000000000000000000000000000000000000815260040160405180910390fd5b610c946040518060400160405280600f81526020017f736563726574734c6f636174696f6e0000000000000000000000000000000000815250826111d590919063ffffffff16565b610cbd83602001516002811115610cae57610cad61217d565b5b826111fe90919063ffffffff16565b610d056040518060400160405280600781526020017f7365637265747300000000000000000000000000000000000000000000000000815250826111d590919063ffffffff16565b610d1c83608001518261129e90919063ffffffff16565b5b60008360c00151511115610dd957610d736040518060400160405280600981526020017f6279746573417267730000000000000000000000000000000000000000000000815250826111d590919063ffffffff16565b610d7c8161124e565b60005b8360c0015151811015610dce57610dbd8460c001518281518110610da657610da5611e70565b5b60200260200101518361129e90919063ffffffff16565b80610dc7906121db565b9050610d7f565b50610dd881611276565b5b806000015160000151915050919050565b6000807f000000000000000000000000000000000000000000000000000000000000000073ffffffffffffffffffffffffffffffffffffffff1663461d27628688600188886040518663ffffffff1660e01b8152600401610e4f95949392919061225f565b6020604051808303816000875af1158015610e6e573d6000803e3d6000fd5b505050506040513d601f19601f82011682018060405250810190610e9291906122ce565b9050807f1131472297a800fee664d1d89cfa8f7676ff07189ecc53f80bbb5f4969099db860405160405180910390a280915050949350505050565b6005600084815260200190815260200160002060000160159054906101000a900460ff16610f30576040517f08c379a0000000000000000000000000000000000000000000000000000000008152600401610f2790612347565b60405180910390fd5b8060049081610f3f91906120ab565b508160039081610f4f91906120ab565b5060016005600085815260200190815260200160002060000160146101000a81548160ff02191690831515021790555081600560008581526020019081526020016000206001019081610fa291906120ab565b5080600560008581526020019081526020016000206002019081610fc691906120ab565b5060006005600085815260200190815260200160002060000160009054906101000a900473ffffffffffffffffffffffffffffffffffffffff1690506000808273ffffffffffffffffffffffffffffffffffffffff1673ffffffffffffffffffffffffffffffffffffffff16815260200190815260200160002060040160009054906101000a900460ff16156110af576000836110629061238c565b60001c9050806000808473ffffffffffffffffffffffffffffffffffffffff1673ffffffffffffffffffffffffffffffffffffffff16815260200190815260200160002060000181905550505b82600190816110be919061244e565b50837f160ed0aaffbef6885155188b91459cb5a97d5daadccf7561d8c46deea6641b506001600360046040516110f693929190612628565b60405180910390a250505050565b600081510361113f576040517f22ce3edd00000000000000000000000000000000000000000000000000000000815260040160405180910390fd5b82846000019060028111156111575761115661217d565b5b9081600281111561116b5761116a61217d565b5b8152505081846040019060008111156111875761118661217d565b5b9081600081111561119b5761119a61217d565b5b8152505080846060018190525050505050565b6111b661179b565b6111c48160000151836112c7565b506000816020018181525050919050565b6111e28260038351611340565b6111f98183600001516114e990919063ffffffff16565b505050565b61122060026005600660ff16901b17836000015161150590919063ffffffff16565b5061124a82826040516020016112369190612674565b60405160208183030381529060405261129e565b5050565b61125981600461156f565b60018160200181815161126c919061268f565b9150818152505050565b61128181600761156f565b60018160200181815161129491906126c3565b9150818152505050565b6112ab8260028351611340565b6112c28183600001516114e990919063ffffffff16565b505050565b6112cf6117bb565b60006020836112de9190612726565b1461130a576020826112f09190612726565b60206112fc91906126c3565b82611307919061268f565b91505b81836020018181525050604051808452600081528281016020018181101561133157600080fd5b80604052505082905092915050565b60178167ffffffffffffffff161161137b576113758160058460ff16901b60ff1617846000015161150590919063ffffffff16565b506114e4565b60ff8167ffffffffffffffff16116113d9576113ae601860058460ff16901b17846000015161150590919063ffffffff16565b506113d38167ffffffffffffffff16600185600001516115959092919063ffffffff16565b506114e3565b61ffff8167ffffffffffffffff16116114385761140d601960058460ff16901b17846000015161150590919063ffffffff16565b506114328167ffffffffffffffff16600285600001516115959092919063ffffffff16565b506114e2565b63ffffffff8167ffffffffffffffff16116114995761146e601a60058460ff16901b17846000015161150590919063ffffffff16565b506114938167ffffffffffffffff16600485600001516115959092919063ffffffff16565b506114e1565b6114ba601b60058460ff16901b17846000015161150590919063ffffffff16565b506114df8167ffffffffffffffff16600885600001516115959092919063ffffffff16565b505b5b5b5b505050565b6114f16117bb565b6114fd83838451611622565b905092915050565b61150d6117bb565b600083600001515190506000600182611526919061268f565b90508460200151821061154a57611549856002836115449190612757565b611705565b5b84516020838201018581538151831115611562578282525b5050849250505092915050565b611590601f60058360ff16901b17836000015161150590919063ffffffff16565b505050565b61159d6117bb565b60008460000151519050600081846115b5919061268f565b905085602001518111156115da576115d9866002836115d49190612757565b611705565b5b60006001856101006115ec91906128cc565b6115f691906126c3565b905086518281018783198251161781528151841115611613578382525b50508693505050509392505050565b61162a6117bb565b825182111561163857600080fd5b6000846000015151905060008382611650919061268f565b90508560200151811115611675576116748660028361166f9190612757565b611705565b5b60008087518051856020830101935080851115611690578482525b60208901925050505b602086106116d757805182526020826116b2919061268f565b91506020816116c1919061268f565b90506020866116d091906126c3565b9550611699565b60006001876020036101000a0390508019825116818451168181178552505050879450505050509392505050565b60008260000151905061171883836112c7565b5061172383826114e9565b50505050565b6040518060e00160405280600060028111156117485761174761217d565b5b8152602001600060028111156117615761176061217d565b5b81526020016000808111156117795761177861217d565b5b8152602001606081526020016060815260200160608152602001606081525090565b60405180604001604052806117ae6117bb565b8152602001600081525090565b604051806040016040528060608152602001600081525090565b6000604051905090565b600080fd5b600080fd5b600073ffffffffffffffffffffffffffffffffffffffff82169050919050565b6000611814826117e9565b9050919050565b61182481611809565b811461182f57600080fd5b50565b6000813590506118418161181b565b92915050565b60006020828403121561185d5761185c6117df565b5b600061186b84828501611832565b91505092915050565b6000819050919050565b61188781611874565b82525050565b60008115159050919050565b6118a28161188d565b82525050565b600060c0820190506118bd600083018961187e565b6118ca602083018861187e565b6118d7604083018761187e565b6118e4606083018661187e565b6118f16080830185611899565b6118fe60a083018461187e565b979650505050505050565b600080fd5b600080fd5b6000601f19601f8301169050919050565b7f4e487b7100000000000000000000000000000000000000000000000000000000600052604160045260246000fd5b61195c82611913565b810181811067ffffffffffffffff8211171561197b5761197a611924565b5b80604052505050565b600061198e6117d5565b905061199a8282611953565b919050565b600067ffffffffffffffff8211156119ba576119b9611924565b5b6119c382611913565b9050602081019050919050565b82818337600083830152505050565b60006119f26119ed8461199f565b611984565b905082815260208101848484011115611a0e57611a0d61190e565b5b611a198482856119d0565b509392505050565b600082601f830112611a3657611a35611909565b5b8135611a468482602086016119df565b91505092915050565b600060208284031215611a6557611a646117df565b5b600082013567ffffffffffffffff811115611a8357611a826117e4565b5b611a8f84828501611a21565b91505092915050565b6000819050919050565b611aab81611a98565b82525050565b6000602082019050611ac66000830184611aa2565b92915050565b600067ffffffffffffffff82169050919050565b611ae981611acc565b82525050565b6000602082019050611b046000830184611ae0565b92915050565b611b1381611a98565b8114611b1e57600080fd5b50565b600081359050611b3081611b0a565b92915050565b600067ffffffffffffffff821115611b5157611b50611924565b5b611b5a82611913565b9050602081019050919050565b6000611b7a611b7584611b36565b611984565b905082815260208101848484011115611b9657611b9561190e565b5b611ba18482856119d0565b509392505050565b600082601f830112611bbe57611bbd611909565b5b8135611bce848260208601611b67565b91505092915050565b600080600060608486031215611bf057611bef6117df565b5b6000611bfe86828701611b21565b935050602084013567ffffffffffffffff811115611c1f57611c1e6117e4565b5b611c2b86828701611ba9565b925050604084013567ffffffffffffffff811115611c4c57611c4b6117e4565b5b611c5886828701611ba9565b9150509250925092565b600081519050919050565b600082825260208201905092915050565b60005b83811015611c9c578082015181840152602081019050611c81565b60008484015250505050565b6000611cb382611c62565b611cbd8185611c6d565b9350611ccd818560208601611c7e565b611cd681611913565b840191505092915050565b60006020820190508181036000830152611cfb8184611ca8565b905092915050565b600081519050919050565b600082825260208201905092915050565b6000611d2a82611d03565b611d348185611d0e565b9350611d44818560208601611c7e565b611d4d81611913565b840191505092915050565b60006020820190508181036000830152611d728184611d1f565b905092915050565b611d8381611874565b8114611d8e57600080fd5b50565b600081359050611da081611d7a565b92915050565b600060208284031215611dbc57611dbb6117df565b5b6000611dca84828501611d91565b91505092915050565b600060208284031215611de957611de86117df565b5b6000611df784828501611b21565b91505092915050565b611e0981611809565b82525050565b600060a082019050611e246000830188611e00565b611e316020830187611899565b611e3e6040830186611899565b8181036060830152611e508185611ca8565b90508181036080830152611e648184611ca8565b90509695505050505050565b7f4e487b7100000000000000000000000000000000000000000000000000000000600052603260045260246000fd5b7f4e487b7100000000000000000000000000000000000000000000000000000000600052602260045260246000fd5b60006002820490506001821680611ee657607f821691505b602082108103611ef957611ef8611e9f565b5b50919050565b60008190508160005260206000209050919050565b60006020601f8301049050919050565b600082821b905092915050565b600060088302611f617fffffffffffffffffffffffffffffffffffffffffffffffffffffffffffffffff82611f24565b611f6b8683611f24565b95508019841693508086168417925050509392505050565b6000819050919050565b6000611fa8611fa3611f9e84611874565b611f83565b611874565b9050919050565b6000819050919050565b611fc283611f8d565b611fd6611fce82611faf565b848454611f31565b825550505050565b600090565b611feb611fde565b611ff6818484611fb9565b505050565b5b8181101561201a5761200f600082611fe3565b600181019050611ffc565b5050565b601f82111561205f5761203081611eff565b61203984611f14565b81016020851015612048578190505b61205c61205485611f14565b830182611ffb565b50505b505050565b600082821c905092915050565b600061208260001984600802612064565b1980831691505092915050565b600061209b8383612071565b9150826002028217905092915050565b6120b482611c62565b67ffffffffffffffff8111156120cd576120cc611924565b5b6120d78254611ece565b6120e282828561201e565b600060209050601f8311600181146121155760008415612103578287015190505b61210d858261208f565b865550612175565b601f19841661212386611eff565b60005b8281101561214b57848901518255600182019150602085019450602081019050612126565b868310156121685784890151612164601f891682612071565b8355505b6001600288020188555050505b505050505050565b7f4e487b7100000000000000000000000000000000000000000000000000000000600052602160045260246000fd5b7f4e487b7100000000000000000000000000000000000000000000000000000000600052601160045260246000fd5b60006121e682611874565b91507fffffffffffffffffffffffffffffffffffffffffffffffffffffffffffffffff8203612218576122176121ac565b5b600182019050919050565b600061ffff82169050919050565b61223a81612223565b82525050565b600063ffffffff82169050919050565b61225981612240565b82525050565b600060a0820190506122746000830188611ae0565b81810360208301526122868187611ca8565b90506122956040830186612231565b6122a26060830185612250565b6122af6080830184611aa2565b9695505050505050565b6000815190506122c881611b0a565b92915050565b6000602082840312156122e4576122e36117df565b5b60006122f2848285016122b9565b91505092915050565b7f72657175657374206e6f7420666f756e64000000000000000000000000000000600082015250565b6000612331601183611d0e565b915061233c826122fb565b602082019050919050565b6000602082019050818103600083015261236081612324565b9050919050565b6000819050602082019050919050565b60006123838251611a98565b80915050919050565b600061239782611c62565b826123a184612367565b90506123ac81612377565b925060208210156123ec576123e77fffffffffffffffffffffffffffffffffffffffffffffffffffffffffffffffff83602003600802611f24565b831692505b5050919050565b60008190508160005260206000209050919050565b601f8211156124495761241a816123f3565b61242384611f14565b81016020851015612432578190505b61244661243e85611f14565b830182611ffb565b50505b505050565b61245782611d03565b67ffffffffffffffff8111156124705761246f611924565b5b61247a8254611ece565b612485828285612408565b600060209050601f8311600181146124b857600084156124a6578287015190505b6124b0858261208f565b865550612518565b601f1984166124c6866123f3565b60005b828110156124ee578489015182556001820191506020850194506020810190506124c9565b8683101561250b5784890151612507601f891682612071565b8355505b6001600288020188555050505b505050505050565b6000815461252d81611ece565b6125378186611d0e565b9450600182166000811461255257600181146125685761259b565b60ff19831686528115156020028601935061259b565b612571856123f3565b60005b8381101561259357815481890152600182019150602081019050612574565b808801955050505b50505092915050565b600081546125b181611ece565b6125bb8186611c6d565b945060018216600081146125d657600181146125ec5761261f565b60ff19831686528115156020028601935061261f565b6125f585611eff565b60005b83811015612617578154818901526001820191506020810190506125f8565b808801955050505b50505092915050565b600060608201905081810360008301526126428186612520565b9050818103602083015261265681856125a4565b9050818103604083015261266a81846125a4565b9050949350505050565b6000602082019050612689600083018461187e565b92915050565b600061269a82611874565b91506126a583611874565b92508282019050808211156126bd576126bc6121ac565b5b92915050565b60006126ce82611874565b91506126d983611874565b92508282039050818111156126f1576126f06121ac565b5b92915050565b7f4e487b7100000000000000000000000000000000000000000000000000000000600052601260045260246000fd5b600061273182611874565b915061273c83611874565b92508261274c5761274b6126f7565b5b828206905092915050565b600061276282611874565b915061276d83611874565b925082820261277b81611874565b91508282048414831517612792576127916121ac565b5b5092915050565b60008160011c9050919050565b6000808291508390505b60018511156127f0578086048111156127cc576127cb6121ac565b5b60018516156127db5780820291505b80810290506127e985612799565b94506127b0565b94509492505050565b60008261280957600190506128c5565b8161281757600090506128c5565b816001811461282d576002811461283757612866565b60019150506128c5565b60ff841115612849576128486121ac565b5b8360020a9150848211156128605761285f6121ac565b5b506128c5565b5060208310610133831016604e8410600b841016171561289b5782820a905083811115612896576128956121ac565b5b6128c5565b6128a884848460016127a6565b925090508184048111156128bf576128be6121ac565b5b81810290505b9392505050565b60006128d782611874565b91506128e283611874565b925061290f7fffffffffffffffffffffffffffffffffffffffffffffffffffffffffffffffff84846127f9565b90509291505056fea2646970667358221220cf67ccdfcc8f3e05ecfffbaec6be9bd411a25eb28315f267cb9ff0f0c4b8b0b164736f6c6343000813003372657475726e2046756e6374696f6e732e656e636f6465496e7432353628373634293b",
  "linkReferences": {},
  "deployedLinkReferences": {}
}