{
  "_format": "hh-sol-artifact-1",
  "contractName": "BaoStorage",
  "sourceName": "contracts/BaoStorage.sol",
  "abi": [
    {
      "inputs": [
        {
          "internalType": "uint256",
          "name": "_energyConsume",
          "type": "uint256"
        },
        {
          "internalType": "uint256",
          "name": "_pricePerMonth",
          "type": "uint256"
        },
        {
          "internalType": "uint256",
          "name": "_timeStamp",
          "type": "uint256"
        },
        {
          "internalType": "uint256",
          "name": "_localId",
          "type": "uint256"
        },
        {
          "internalType": "bool",
          "name": "_active",
          "type": "bool"
        },
        {
          "internalType": "uint256",
          "name": "_contractDeadLine",
          "type": "uint256"
        }
      ],
      "name": "addUserContract",
      "outputs": [],
      "stateMutability": "nonpayable",
      "type": "function"
    },
    {
      "inputs": [
        {
          "internalType": "uint256",
          "name": "_localId",
          "type": "uint256"
        }
      ],
      "name": "getUserContracts",
      "outputs": [
        {
          "components": [
            {
              "internalType": "uint256",
              "name": "energyConsume",
              "type": "uint256"
            },
            {
              "internalType": "uint256",
              "name": "pricePerMonth",
              "type": "uint256"
            },
            {
              "internalType": "uint256",
              "name": "timeStamp",
              "type": "uint256"
            },
            {
              "internalType": "uint256",
              "name": "localId",
              "type": "uint256"
            },
            {
              "internalType": "bool",
              "name": "active",
              "type": "bool"
            },
            {
              "internalType": "uint256",
              "name": "contractDeadLine",
              "type": "uint256"
            }
          ],
          "internalType": "struct BaoStorage.UserContract[]",
          "name": "",
          "type": "tuple[]"
        }
      ],
      "stateMutability": "view",
      "type": "function"
    },
    {
      "inputs": [],
      "name": "greeting",
      "outputs": [
        {
          "internalType": "string",
          "name": "",
          "type": "string"
        }
      ],
      "stateMutability": "view",
      "type": "function"
    },
    {
      "inputs": [
        {
          "internalType": "uint256",
          "name": "",
          "type": "uint256"
        },
        {
          "internalType": "uint256",
          "name": "",
          "type": "uint256"
        }
      ],
      "name": "localToContract",
      "outputs": [
        {
          "internalType": "uint256",
          "name": "energyConsume",
          "type": "uint256"
        },
        {
          "internalType": "uint256",
          "name": "pricePerMonth",
          "type": "uint256"
        },
        {
          "internalType": "uint256",
          "name": "timeStamp",
          "type": "uint256"
        },
        {
          "internalType": "uint256",
          "name": "localId",
          "type": "uint256"
        },
        {
          "internalType": "bool",
          "name": "active",
          "type": "bool"
        },
        {
          "internalType": "uint256",
          "name": "contractDeadLine",
          "type": "uint256"
        }
      ],
      "stateMutability": "view",
      "type": "function"
    },
    {
      "inputs": [
        {
          "internalType": "string",
          "name": "greeting_",
          "type": "string"
        }
      ],
      "name": "setGreeting",
      "outputs": [],
      "stateMutability": "nonpayable",
      "type": "function"
    }
  ],
  "bytecode": "0x60806040526040518060400160405280600c81526020017f48656c6c6f20576f726c64210000000000000000000000000000000000000000815250600190816200004a9190620002d9565b503480156200005857600080fd5b50620003c0565b600081519050919050565b7f4e487b7100000000000000000000000000000000000000000000000000000000600052604160045260246000fd5b7f4e487b7100000000000000000000000000000000000000000000000000000000600052602260045260246000fd5b60006002820490506001821680620000e157607f821691505b602082108103620000f757620000f662000099565b5b50919050565b60008190508160005260206000209050919050565b60006020601f8301049050919050565b600082821b905092915050565b600060088302620001617fffffffffffffffffffffffffffffffffffffffffffffffffffffffffffffffff8262000122565b6200016d868362000122565b95508019841693508086168417925050509392505050565b6000819050919050565b6000819050919050565b6000620001ba620001b4620001ae8462000185565b6200018f565b62000185565b9050919050565b6000819050919050565b620001d68362000199565b620001ee620001e582620001c1565b8484546200012f565b825550505050565b600090565b62000205620001f6565b62000212818484620001cb565b505050565b5b818110156200023a576200022e600082620001fb565b60018101905062000218565b5050565b601f82111562000289576200025381620000fd565b6200025e8462000112565b810160208510156200026e578190505b620002866200027d8562000112565b83018262000217565b50505b505050565b600082821c905092915050565b6000620002ae600019846008026200028e565b1980831691505092915050565b6000620002c983836200029b565b9150826002028217905092915050565b620002e4826200005f565b67ffffffffffffffff8111156200030057620002ff6200006a565b5b6200030c8254620000c8565b620003198282856200023e565b600060209050601f8311600181146200035157600084156200033c578287015190505b620003488582620002bb565b865550620003b8565b601f1984166200036186620000fd565b60005b828110156200038b5784890151825560018201915060208501945060208101905062000364565b86831015620003ab5784890151620003a7601f8916826200029b565b8355505b6001600288020188555050505b505050505050565b610c5180620003d06000396000f3fe608060405234801561001057600080fd5b50600436106100575760003560e01c8063a41368621461005c578063af279d4814610078578063b0d187d714610094578063ef690cc0146100c4578063f3de41ad146100e2575b600080fd5b61007660048036038101906100719190610502565b610117565b005b610092600480360381019061008d91906105b9565b61012a565b005b6100ae60048036038101906100a99190610646565b6101f6565b6040516100bb91906107bb565b60405180910390f35b6100cc6102b4565b6040516100d9919061085c565b60405180910390f35b6100fc60048036038101906100f7919061087e565b610342565b60405161010e969594939291906108dc565b60405180910390f35b80600190816101269190610b49565b5050565b60006040518060c0016040528088815260200187815260200186815260200185815260200184151581526020018381525090506000808581526020019081526020016000208190806001815401808255809150506001900390600052602060002090600602016000909190919091506000820151816000015560208201518160010155604082015181600201556060820151816003015560808201518160040160006101000a81548160ff02191690831515021790555060a08201518160050155505050505050505050565b6060600080838152602001908152602001600020805480602002602001604051908101604052809291908181526020016000905b828210156102a957838290600052602060002090600602016040518060c0016040529081600082015481526020016001820154815260200160028201548152602001600382015481526020016004820160009054906101000a900460ff161515151581526020016005820154815250508152602001906001019061022a565b505050509050919050565b600180546102c19061096c565b80601f01602080910402602001604051908101604052809291908181526020018280546102ed9061096c565b801561033a5780601f1061030f5761010080835404028352916020019161033a565b820191906000526020600020905b81548152906001019060200180831161031d57829003601f168201915b505050505081565b6000602052816000526040600020818154811061035e57600080fd5b9060005260206000209060060201600091509150508060000154908060010154908060020154908060030154908060040160009054906101000a900460ff16908060050154905086565b6000604051905090565b600080fd5b600080fd5b600080fd5b600080fd5b6000601f19601f8301169050919050565b7f4e487b7100000000000000000000000000000000000000000000000000000000600052604160045260246000fd5b61040f826103c6565b810181811067ffffffffffffffff8211171561042e5761042d6103d7565b5b80604052505050565b60006104416103a8565b905061044d8282610406565b919050565b600067ffffffffffffffff82111561046d5761046c6103d7565b5b610476826103c6565b9050602081019050919050565b82818337600083830152505050565b60006104a56104a084610452565b610437565b9050828152602081018484840111156104c1576104c06103c1565b5b6104cc848285610483565b509392505050565b600082601f8301126104e9576104e86103bc565b5b81356104f9848260208601610492565b91505092915050565b600060208284031215610518576105176103b2565b5b600082013567ffffffffffffffff811115610536576105356103b7565b5b610542848285016104d4565b91505092915050565b6000819050919050565b61055e8161054b565b811461056957600080fd5b50565b60008135905061057b81610555565b92915050565b60008115159050919050565b61059681610581565b81146105a157600080fd5b50565b6000813590506105b38161058d565b92915050565b60008060008060008060c087890312156105d6576105d56103b2565b5b60006105e489828a0161056c565b96505060206105f589828a0161056c565b955050604061060689828a0161056c565b945050606061061789828a0161056c565b935050608061062889828a016105a4565b92505060a061063989828a0161056c565b9150509295509295509295565b60006020828403121561065c5761065b6103b2565b5b600061066a8482850161056c565b91505092915050565b600081519050919050565b600082825260208201905092915050565b6000819050602082019050919050565b6106a88161054b565b82525050565b6106b781610581565b82525050565b60c0820160008201516106d3600085018261069f565b5060208201516106e6602085018261069f565b5060408201516106f9604085018261069f565b50606082015161070c606085018261069f565b50608082015161071f60808501826106ae565b5060a082015161073260a085018261069f565b50505050565b600061074483836106bd565b60c08301905092915050565b6000602082019050919050565b600061076882610673565b610772818561067e565b935061077d8361068f565b8060005b838110156107ae5781516107958882610738565b97506107a083610750565b925050600181019050610781565b5085935050505092915050565b600060208201905081810360008301526107d5818461075d565b905092915050565b600081519050919050565b600082825260208201905092915050565b60005b838110156108175780820151818401526020810190506107fc565b60008484015250505050565b600061082e826107dd565b61083881856107e8565b93506108488185602086016107f9565b610851816103c6565b840191505092915050565b600060208201905081810360008301526108768184610823565b905092915050565b60008060408385031215610895576108946103b2565b5b60006108a38582860161056c565b92505060206108b48582860161056c565b9150509250929050565b6108c78161054b565b82525050565b6108d681610581565b82525050565b600060c0820190506108f160008301896108be565b6108fe60208301886108be565b61090b60408301876108be565b61091860608301866108be565b61092560808301856108cd565b61093260a08301846108be565b979650505050505050565b7f4e487b7100000000000000000000000000000000000000000000000000000000600052602260045260246000fd5b6000600282049050600182168061098457607f821691505b6020821081036109975761099661093d565b5b50919050565b60008190508160005260206000209050919050565b60006020601f8301049050919050565b600082821b905092915050565b6000600883026109ff7fffffffffffffffffffffffffffffffffffffffffffffffffffffffffffffffff826109c2565b610a0986836109c2565b95508019841693508086168417925050509392505050565b6000819050919050565b6000610a46610a41610a3c8461054b565b610a21565b61054b565b9050919050565b6000819050919050565b610a6083610a2b565b610a74610a6c82610a4d565b8484546109cf565b825550505050565b600090565b610a89610a7c565b610a94818484610a57565b505050565b5b81811015610ab857610aad600082610a81565b600181019050610a9a565b5050565b601f821115610afd57610ace8161099d565b610ad7846109b2565b81016020851015610ae6578190505b610afa610af2856109b2565b830182610a99565b50505b505050565b600082821c905092915050565b6000610b2060001984600802610b02565b1980831691505092915050565b6000610b398383610b0f565b9150826002028217905092915050565b610b52826107dd565b67ffffffffffffffff811115610b6b57610b6a6103d7565b5b610b75825461096c565b610b80828285610abc565b600060209050601f831160018114610bb35760008415610ba1578287015190505b610bab8582610b2d565b865550610c13565b601f198416610bc18661099d565b60005b82811015610be957848901518255600182019150602085019450602081019050610bc4565b86831015610c065784890151610c02601f891682610b0f565b8355505b6001600288020188555050505b50505050505056fea2646970667358221220c80fda8acc4029f57ea698115fff5ea2248c10f76cb9ab06126b5c7692dbffd664736f6c63430008130033",
  "linkReferences": {},
  "deployedLinkReferences": {}
}