{"contracts/BaoFunction.sol":{"BaoFunction":{"abi":[{"inputs":[{"internalType":"uint64","name":"functionsSubscriptionId","type":"uint64"}],"stateMutability":"nonpayable","type":"constructor"},{"inputs":[],"name":"EmptyArgs","type":"error"},{"inputs":[],"name":"EmptySource","type":"error"},{"inputs":[],"name":"NoInlineSecrets","type":"error"},{"inputs":[],"name":"OnlyRouterCanFulfill","type":"error"},{"anonymous":false,"inputs":[{"indexed":true,"internalType":"bytes32","name":"id","type":"bytes32"}],"name":"RequestFulfilled","type":"event"},{"anonymous":false,"inputs":[{"indexed":true,"internalType":"bytes32","name":"id","type":"bytes32"}],"name":"RequestSent","type":"event"},{"anonymous":false,"inputs":[{"indexed":true,"internalType":"bytes32","name":"requestId","type":"bytes32"},{"indexed":false,"internalType":"string","name":"averagePrice","type":"string"},{"indexed":false,"internalType":"bytes","name":"response","type":"bytes"},{"indexed":false,"internalType":"bytes","name":"err","type":"bytes"}],"name":"Response","type":"event"},{"inputs":[{"internalType":"address","name":"","type":"address"}],"name":"consumerToUserContract","outputs":[{"internalType":"uint256","name":"energyConsume","type":"uint256"},{"internalType":"uint256","name":"pricePerMonth","type":"uint256"},{"internalType":"uint256","name":"timeStamp","type":"uint256"},{"internalType":"uint256","name":"localId","type":"uint256"},{"internalType":"bool","name":"active","type":"bool"},{"internalType":"uint256","name":"contractDeadLine","type":"uint256"}],"stateMutability":"view","type":"function"},{"inputs":[{"internalType":"string","name":"deviceId","type":"string"}],"name":"getMeasure","outputs":[{"internalType":"bytes32","name":"","type":"bytes32"}],"stateMutability":"nonpayable","type":"function"},{"inputs":[{"internalType":"bytes32","name":"requestId","type":"bytes32"},{"internalType":"bytes","name":"response","type":"bytes"},{"internalType":"bytes","name":"err","type":"bytes"}],"name":"handleOracleFulfillment","outputs":[],"stateMutability":"nonpayable","type":"function"},{"inputs":[],"name":"lastError","outputs":[{"internalType":"bytes","name":"","type":"bytes"}],"stateMutability":"view","type":"function"},{"inputs":[],"name":"lastRequestId","outputs":[{"internalType":"bytes32","name":"","type":"bytes32"}],"stateMutability":"view","type":"function"},{"inputs":[],"name":"lastResponse","outputs":[{"internalType":"bytes","name":"","type":"bytes"}],"stateMutability":"view","type":"function"},{"inputs":[{"internalType":"uint256","name":"","type":"uint256"}],"name":"requestIds","outputs":[{"internalType":"bytes32","name":"","type":"bytes32"}],"stateMutability":"view","type":"function"},{"inputs":[{"internalType":"bytes32","name":"","type":"bytes32"}],"name":"requests","outputs":[{"internalType":"address","name":"wallet","type":"address"},{"internalType":"bool","name":"fulfilled","type":"bool"},{"internalType":"bool","name":"exists","type":"bool"},{"internalType":"bytes","name":"response","type":"bytes"},{"internalType":"bytes","name":"err","type":"bytes"}],"stateMutability":"view","type":"function"},{"inputs":[],"name":"source","outputs":[{"internalType":"string","name":"","type":"string"}],"stateMutability":"view","type":"function"},{"inputs":[],"name":"subscriptionId","outputs":[{"internalType":"uint64","name":"","type":"uint64"}],"stateMutability":"view","type":"function"}],"evm":{"bytecode":{"linkReferences":{},"object":"60a060405273b83e47c2bc239b3bf370bc41e1459a34b41238d0600760006101000a81548173ffffffffffffffffffffffffffffffffffffffff021916908373ffffffffffffffffffffffffffffffffffffffff1602179055507f66756e2d657468657265756d2d7365706f6c69612d310000000000000000000060001b600855620493e0600960006101000a81548163ffffffff021916908363ffffffff16021790555060405180606001604052806023815260200162002ed760239139600a9081620000ce919062000404565b50348015620000dc57600080fd5b5060405162002efa38038062002efa833981810160405281019062000102919062000535565b600760009054906101000a900473ffffffffffffffffffffffffffffffffffffffff168073ffffffffffffffffffffffffffffffffffffffff1660808173ffffffffffffffffffffffffffffffffffffffff16815250505080600960046101000a81548167ffffffffffffffff021916908367ffffffffffffffff1602179055505062000567565b600081519050919050565b7f4e487b7100000000000000000000000000000000000000000000000000000000600052604160045260246000fd5b7f4e487b7100000000000000000000000000000000000000000000000000000000600052602260045260246000fd5b600060028204905060018216806200020c57607f821691505b602082108103620002225762000221620001c4565b5b50919050565b60008190508160005260206000209050919050565b60006020601f8301049050919050565b600082821b905092915050565b6000600883026200028c7fffffffffffffffffffffffffffffffffffffffffffffffffffffffffffffffff826200024d565b6200029886836200024d565b95508019841693508086168417925050509392505050565b6000819050919050565b6000819050919050565b6000620002e5620002df620002d984620002b0565b620002ba565b620002b0565b9050919050565b6000819050919050565b6200030183620002c4565b620003196200031082620002ec565b8484546200025a565b825550505050565b600090565b6200033062000321565b6200033d818484620002f6565b505050565b5b8181101562000365576200035960008262000326565b60018101905062000343565b5050565b601f821115620003b4576200037e8162000228565b62000389846200023d565b8101602085101562000399578190505b620003b1620003a8856200023d565b83018262000342565b50505b505050565b600082821c905092915050565b6000620003d960001984600802620003b9565b1980831691505092915050565b6000620003f48383620003c6565b9150826002028217905092915050565b6200040f826200018a565b67ffffffffffffffff8111156200042b576200042a62000195565b5b620004378254620001f3565b6200044482828562000369565b600060209050601f8311600181146200047c576000841562000467578287015190505b620004738582620003e6565b865550620004e3565b601f1984166200048c8662000228565b60005b82811015620004b6578489015182556001820191506020850194506020810190506200048f565b86831015620004d65784890151620004d2601f891682620003c6565b8355505b6001600288020188555050505b505050505050565b600080fd5b600067ffffffffffffffff82169050919050565b6200050f81620004f0565b81146200051b57600080fd5b50565b6000815190506200052f8162000504565b92915050565b6000602082840312156200054e576200054d620004eb565b5b60006200055e848285016200051e565b91505092915050565b60805161294d6200058a600039600081816105610152610def015261294d6000f3fe608060405234801561001057600080fd5b506004361061009e5760003560e01c806362747e421161006657806362747e421461016057806367e828bf1461017e5780638796ba8c1461019c5780639d866985146101cc578063fc2a88c3146102005761009e565b806305ef317a146100a357806305ff4a51146100d857806309c1ba2e146101085780630ca761751461012657806329f0de3f14610142575b600080fd5b6100bd60048036038101906100b89190611847565b61021e565b6040516100cf969594939291906118a8565b60405180910390f35b6100f260048036038101906100ed9190611a4f565b610267565b6040516100ff9190611ab1565b60405180910390f35b610110610545565b60405161011d9190611aef565b60405180910390f35b610140600480360381019061013b9190611bd7565b61055f565b005b61014a610621565b6040516101579190611ce1565b60405180910390f35b6101686106af565b6040516101759190611ce1565b60405180910390f35b61018661073d565b6040516101939190611d58565b60405180910390f35b6101b660048036038101906101b19190611da6565b6107cb565b6040516101c39190611ab1565b60405180910390f35b6101e660048036038101906101e19190611dd3565b6107ef565b6040516101f7959493929190611e0f565b60405180910390f35b61020861096f565b6040516102159190611ab1565b60405180910390f35b60006020528060005260406000206000915090508060000154908060010154908060020154908060030154908060040160009054906101000a900460ff16908060050154905086565b600080600167ffffffffffffffff81111561028557610284611924565b5b6040519080825280602002602001820160405280156102b857816020015b60608152602001906001900390816102a35790505b50905082816000815181106102d0576102cf611e70565b5b60200260200101819052506102e3611729565b610380600a80546102f390611ece565b80601f016020809104026020016040519081016040528092919081815260200182805461031f90611ece565b801561036c5780601f106103415761010080835404028352916020019161036c565b820191906000526020600020905b81548152906001019060200180831161034f57829003601f168201915b50505050508261097590919063ffffffff16565b60008251111561039e5761039d828261098690919063ffffffff16565b5b6103dc6103aa826109ce565b600960049054906101000a900467ffffffffffffffff16600960009054906101000a900463ffffffff16600854610dea565b6002819055506040518060a001604052803373ffffffffffffffffffffffffffffffffffffffff1681526020016000151581526020016001151581526020016040518060200160405280600081525081526020016040518060200160405280600081525081525060056000600254815260200190815260200160002060008201518160000160006101000a81548173ffffffffffffffffffffffffffffffffffffffff021916908373ffffffffffffffffffffffffffffffffffffffff16021790555060208201518160000160146101000a81548160ff02191690831515021790555060408201518160000160156101000a81548160ff02191690831515021790555060608201518160010190816104f491906120ab565b50608082015181600201908161050a91906120ab565b509050506006600254908060018154018082558091505060019003906000526020600020016000909190919091505560025492505050919050565b600960049054906101000a900467ffffffffffffffff1681565b7f000000000000000000000000000000000000000000000000000000000000000073ffffffffffffffffffffffffffffffffffffffff163373ffffffffffffffffffffffffffffffffffffffff16146105e4576040517fc6829f8300000000000000000000000000000000000000000000000000000000815260040160405180910390fd5b6105ef838383610ecd565b827f85e1543bf2f84fe80c6badbce3648c8539ad1df4d2b3d822938ca0538be727e660405160405180910390a2505050565b6004805461062e90611ece565b80601f016020809104026020016040519081016040528092919081815260200182805461065a90611ece565b80156106a75780601f1061067c576101008083540402835291602001916106a7565b820191906000526020600020905b81548152906001019060200180831161068a57829003601f168201915b505050505081565b600380546106bc90611ece565b80601f01602080910402602001604051908101604052809291908181526020018280546106e890611ece565b80156107355780601f1061070a57610100808354040283529160200191610735565b820191906000526020600020905b81548152906001019060200180831161071857829003601f168201915b505050505081565b600a805461074a90611ece565b80601f016020809104026020016040519081016040528092919081815260200182805461077690611ece565b80156107c35780601f10610798576101008083540402835291602001916107c3565b820191906000526020600020905b8154815290600101906020018083116107a657829003601f168201915b505050505081565b600681815481106107db57600080fd5b906000526020600020016000915090505481565b60056020528060005260406000206000915090508060000160009054906101000a900473ffffffffffffffffffffffffffffffffffffffff16908060000160149054906101000a900460ff16908060000160159054906101000a900460ff169080600101805461085e90611ece565b80601f016020809104026020016040519081016040528092919081815260200182805461088a90611ece565b80156108d75780601f106108ac576101008083540402835291602001916108d7565b820191906000526020600020905b8154815290600101906020018083116108ba57829003601f168201915b5050505050908060020180546108ec90611ece565b80601f016020809104026020016040519081016040528092919081815260200182805461091890611ece565b80156109655780601f1061093a57610100808354040283529160200191610965565b820191906000526020600020905b81548152906001019060200180831161094857829003601f168201915b5050505050905085565b60025481565b6109828260008084611104565b5050565b60008151036109c1576040517ffe936cb700000000000000000000000000000000000000000000000000000000815260040160405180910390fd5b808260a001819052505050565b606060006109dd6101006111ae565b9050610a276040518060400160405280600c81526020017f636f64654c6f636174696f6e0000000000000000000000000000000000000000815250826111d590919063ffffffff16565b610a5083600001516002811115610a4157610a4061217d565b5b826111fe90919063ffffffff16565b610a986040518060400160405280600881526020017f6c616e6775616765000000000000000000000000000000000000000000000000815250826111d590919063ffffffff16565b610ac183604001516000811115610ab257610ab161217d565b5b826111fe90919063ffffffff16565b610b096040518060400160405280600681526020017f736f757263650000000000000000000000000000000000000000000000000000815250826111d590919063ffffffff16565b610b208360600151826111d590919063ffffffff16565b60008360a00151511115610bdc57610b766040518060400160405280600481526020017f6172677300000000000000000000000000000000000000000000000000000000815250826111d590919063ffffffff16565b610b7f8161124e565b60005b8360a0015151811015610bd157610bc08460a001518281518110610ba957610ba8611e70565b5b6020026020010151836111d590919063ffffffff16565b80610bca906121db565b9050610b82565b50610bdb81611276565b5b60008360800151511115610d1d5760006002811115610bfe57610bfd61217d565b5b83602001516002811115610c1557610c1461217d565b5b03610c4c576040517fa80d31f700000000000000000000000000000000000000000000000000000000815260040160405180910390fd5b610c946040518060400160405280600f81526020017f736563726574734c6f636174696f6e0000000000000000000000000000000000815250826111d590919063ffffffff16565b610cbd83602001516002811115610cae57610cad61217d565b5b826111fe90919063ffffffff16565b610d056040518060400160405280600781526020017f7365637265747300000000000000000000000000000000000000000000000000815250826111d590919063ffffffff16565b610d1c83608001518261129e90919063ffffffff16565b5b60008360c00151511115610dd957610d736040518060400160405280600981526020017f6279746573417267730000000000000000000000000000000000000000000000815250826111d590919063ffffffff16565b610d7c8161124e565b60005b8360c0015151811015610dce57610dbd8460c001518281518110610da657610da5611e70565b5b60200260200101518361129e90919063ffffffff16565b80610dc7906121db565b9050610d7f565b50610dd881611276565b5b806000015160000151915050919050565b6000807f000000000000000000000000000000000000000000000000000000000000000073ffffffffffffffffffffffffffffffffffffffff1663461d27628688600188886040518663ffffffff1660e01b8152600401610e4f95949392919061225f565b6020604051808303816000875af1158015610e6e573d6000803e3d6000fd5b505050506040513d601f19601f82011682018060405250810190610e9291906122ce565b9050807f1131472297a800fee664d1d89cfa8f7676ff07189ecc53f80bbb5f4969099db860405160405180910390a280915050949350505050565b6005600084815260200190815260200160002060000160159054906101000a900460ff16610f30576040517f08c379a0000000000000000000000000000000000000000000000000000000008152600401610f2790612347565b60405180910390fd5b8060049081610f3f91906120ab565b508160039081610f4f91906120ab565b5060016005600085815260200190815260200160002060000160146101000a81548160ff02191690831515021790555081600560008581526020019081526020016000206001019081610fa291906120ab565b5080600560008581526020019081526020016000206002019081610fc691906120ab565b5060006005600085815260200190815260200160002060000160009054906101000a900473ffffffffffffffffffffffffffffffffffffffff1690506000808273ffffffffffffffffffffffffffffffffffffffff1673ffffffffffffffffffffffffffffffffffffffff16815260200190815260200160002060040160009054906101000a900460ff16156110af576000836110629061238c565b60001c9050806000808473ffffffffffffffffffffffffffffffffffffffff1673ffffffffffffffffffffffffffffffffffffffff16815260200190815260200160002060000181905550505b82600190816110be919061244e565b50837f160ed0aaffbef6885155188b91459cb5a97d5daadccf7561d8c46deea6641b506001600360046040516110f693929190612628565b60405180910390a250505050565b600081510361113f576040517f22ce3edd00000000000000000000000000000000000000000000000000000000815260040160405180910390fd5b82846000019060028111156111575761115661217d565b5b9081600281111561116b5761116a61217d565b5b8152505081846040019060008111156111875761118661217d565b5b9081600081111561119b5761119a61217d565b5b8152505080846060018190525050505050565b6111b661179b565b6111c48160000151836112c7565b506000816020018181525050919050565b6111e28260038351611340565b6111f98183600001516114e990919063ffffffff16565b505050565b61122060026005600660ff16901b17836000015161150590919063ffffffff16565b5061124a82826040516020016112369190612674565b60405160208183030381529060405261129e565b5050565b61125981600461156f565b60018160200181815161126c919061268f565b9150818152505050565b61128181600761156f565b60018160200181815161129491906126c3565b9150818152505050565b6112ab8260028351611340565b6112c28183600001516114e990919063ffffffff16565b505050565b6112cf6117bb565b60006020836112de9190612726565b1461130a576020826112f09190612726565b60206112fc91906126c3565b82611307919061268f565b91505b81836020018181525050604051808452600081528281016020018181101561133157600080fd5b80604052505082905092915050565b60178167ffffffffffffffff161161137b576113758160058460ff16901b60ff1617846000015161150590919063ffffffff16565b506114e4565b60ff8167ffffffffffffffff16116113d9576113ae601860058460ff16901b17846000015161150590919063ffffffff16565b506113d38167ffffffffffffffff16600185600001516115959092919063ffffffff16565b506114e3565b61ffff8167ffffffffffffffff16116114385761140d601960058460ff16901b17846000015161150590919063ffffffff16565b506114328167ffffffffffffffff16600285600001516115959092919063ffffffff16565b506114e2565b63ffffffff8167ffffffffffffffff16116114995761146e601a60058460ff16901b17846000015161150590919063ffffffff16565b506114938167ffffffffffffffff16600485600001516115959092919063ffffffff16565b506114e1565b6114ba601b60058460ff16901b17846000015161150590919063ffffffff16565b506114df8167ffffffffffffffff16600885600001516115959092919063ffffffff16565b505b5b5b5b505050565b6114f16117bb565b6114fd83838451611622565b905092915050565b61150d6117bb565b600083600001515190506000600182611526919061268f565b90508460200151821061154a57611549856002836115449190612757565b611705565b5b84516020838201018581538151831115611562578282525b5050849250505092915050565b611590601f60058360ff16901b17836000015161150590919063ffffffff16565b505050565b61159d6117bb565b60008460000151519050600081846115b5919061268f565b905085602001518111156115da576115d9866002836115d49190612757565b611705565b5b60006001856101006115ec91906128cc565b6115f691906126c3565b905086518281018783198251161781528151841115611613578382525b50508693505050509392505050565b61162a6117bb565b825182111561163857600080fd5b6000846000015151905060008382611650919061268f565b90508560200151811115611675576116748660028361166f9190612757565b611705565b5b60008087518051856020830101935080851115611690578482525b60208901925050505b602086106116d757805182526020826116b2919061268f565b91506020816116c1919061268f565b90506020866116d091906126c3565b9550611699565b60006001876020036101000a0390508019825116818451168181178552505050879450505050509392505050565b60008260000151905061171883836112c7565b5061172383826114e9565b50505050565b6040518060e00160405280600060028111156117485761174761217d565b5b8152602001600060028111156117615761176061217d565b5b81526020016000808111156117795761177861217d565b5b8152602001606081526020016060815260200160608152602001606081525090565b60405180604001604052806117ae6117bb565b8152602001600081525090565b604051806040016040528060608152602001600081525090565b6000604051905090565b600080fd5b600080fd5b600073ffffffffffffffffffffffffffffffffffffffff82169050919050565b6000611814826117e9565b9050919050565b61182481611809565b811461182f57600080fd5b50565b6000813590506118418161181b565b92915050565b60006020828403121561185d5761185c6117df565b5b600061186b84828501611832565b91505092915050565b6000819050919050565b61188781611874565b82525050565b60008115159050919050565b6118a28161188d565b82525050565b600060c0820190506118bd600083018961187e565b6118ca602083018861187e565b6118d7604083018761187e565b6118e4606083018661187e565b6118f16080830185611899565b6118fe60a083018461187e565b979650505050505050565b600080fd5b600080fd5b6000601f19601f8301169050919050565b7f4e487b7100000000000000000000000000000000000000000000000000000000600052604160045260246000fd5b61195c82611913565b810181811067ffffffffffffffff8211171561197b5761197a611924565b5b80604052505050565b600061198e6117d5565b905061199a8282611953565b919050565b600067ffffffffffffffff8211156119ba576119b9611924565b5b6119c382611913565b9050602081019050919050565b82818337600083830152505050565b60006119f26119ed8461199f565b611984565b905082815260208101848484011115611a0e57611a0d61190e565b5b611a198482856119d0565b509392505050565b600082601f830112611a3657611a35611909565b5b8135611a468482602086016119df565b91505092915050565b600060208284031215611a6557611a646117df565b5b600082013567ffffffffffffffff811115611a8357611a826117e4565b5b611a8f84828501611a21565b91505092915050565b6000819050919050565b611aab81611a98565b82525050565b6000602082019050611ac66000830184611aa2565b92915050565b600067ffffffffffffffff82169050919050565b611ae981611acc565b82525050565b6000602082019050611b046000830184611ae0565b92915050565b611b1381611a98565b8114611b1e57600080fd5b50565b600081359050611b3081611b0a565b92915050565b600067ffffffffffffffff821115611b5157611b50611924565b5b611b5a82611913565b9050602081019050919050565b6000611b7a611b7584611b36565b611984565b905082815260208101848484011115611b9657611b9561190e565b5b611ba18482856119d0565b509392505050565b600082601f830112611bbe57611bbd611909565b5b8135611bce848260208601611b67565b91505092915050565b600080600060608486031215611bf057611bef6117df565b5b6000611bfe86828701611b21565b935050602084013567ffffffffffffffff811115611c1f57611c1e6117e4565b5b611c2b86828701611ba9565b925050604084013567ffffffffffffffff811115611c4c57611c4b6117e4565b5b611c5886828701611ba9565b9150509250925092565b600081519050919050565b600082825260208201905092915050565b60005b83811015611c9c578082015181840152602081019050611c81565b60008484015250505050565b6000611cb382611c62565b611cbd8185611c6d565b9350611ccd818560208601611c7e565b611cd681611913565b840191505092915050565b60006020820190508181036000830152611cfb8184611ca8565b905092915050565b600081519050919050565b600082825260208201905092915050565b6000611d2a82611d03565b611d348185611d0e565b9350611d44818560208601611c7e565b611d4d81611913565b840191505092915050565b60006020820190508181036000830152611d728184611d1f565b905092915050565b611d8381611874565b8114611d8e57600080fd5b50565b600081359050611da081611d7a565b92915050565b600060208284031215611dbc57611dbb6117df565b5b6000611dca84828501611d91565b91505092915050565b600060208284031215611de957611de86117df565b5b6000611df784828501611b21565b91505092915050565b611e0981611809565b82525050565b600060a082019050611e246000830188611e00565b611e316020830187611899565b611e3e6040830186611899565b8181036060830152611e508185611ca8565b90508181036080830152611e648184611ca8565b90509695505050505050565b7f4e487b7100000000000000000000000000000000000000000000000000000000600052603260045260246000fd5b7f4e487b7100000000000000000000000000000000000000000000000000000000600052602260045260246000fd5b60006002820490506001821680611ee657607f821691505b602082108103611ef957611ef8611e9f565b5b50919050565b60008190508160005260206000209050919050565b60006020601f8301049050919050565b600082821b905092915050565b600060088302611f617fffffffffffffffffffffffffffffffffffffffffffffffffffffffffffffffff82611f24565b611f6b8683611f24565b95508019841693508086168417925050509392505050565b6000819050919050565b6000611fa8611fa3611f9e84611874565b611f83565b611874565b9050919050565b6000819050919050565b611fc283611f8d565b611fd6611fce82611faf565b848454611f31565b825550505050565b600090565b611feb611fde565b611ff6818484611fb9565b505050565b5b8181101561201a5761200f600082611fe3565b600181019050611ffc565b5050565b601f82111561205f5761203081611eff565b61203984611f14565b81016020851015612048578190505b61205c61205485611f14565b830182611ffb565b50505b505050565b600082821c905092915050565b600061208260001984600802612064565b1980831691505092915050565b600061209b8383612071565b9150826002028217905092915050565b6120b482611c62565b67ffffffffffffffff8111156120cd576120cc611924565b5b6120d78254611ece565b6120e282828561201e565b600060209050601f8311600181146121155760008415612103578287015190505b61210d858261208f565b865550612175565b601f19841661212386611eff565b60005b8281101561214b57848901518255600182019150602085019450602081019050612126565b868310156121685784890151612164601f891682612071565b8355505b6001600288020188555050505b505050505050565b7f4e487b7100000000000000000000000000000000000000000000000000000000600052602160045260246000fd5b7f4e487b7100000000000000000000000000000000000000000000000000000000600052601160045260246000fd5b60006121e682611874565b91507fffffffffffffffffffffffffffffffffffffffffffffffffffffffffffffffff8203612218576122176121ac565b5b600182019050919050565b600061ffff82169050919050565b61223a81612223565b82525050565b600063ffffffff82169050919050565b61225981612240565b82525050565b600060a0820190506122746000830188611ae0565b81810360208301526122868187611ca8565b90506122956040830186612231565b6122a26060830185612250565b6122af6080830184611aa2565b9695505050505050565b6000815190506122c881611b0a565b92915050565b6000602082840312156122e4576122e36117df565b5b60006122f2848285016122b9565b91505092915050565b7f72657175657374206e6f7420666f756e64000000000000000000000000000000600082015250565b6000612331601183611d0e565b915061233c826122fb565b602082019050919050565b6000602082019050818103600083015261236081612324565b9050919050565b6000819050602082019050919050565b60006123838251611a98565b80915050919050565b600061239782611c62565b826123a184612367565b90506123ac81612377565b925060208210156123ec576123e77fffffffffffffffffffffffffffffffffffffffffffffffffffffffffffffffff83602003600802611f24565b831692505b5050919050565b60008190508160005260206000209050919050565b601f8211156124495761241a816123f3565b61242384611f14565b81016020851015612432578190505b61244661243e85611f14565b830182611ffb565b50505b505050565b61245782611d03565b67ffffffffffffffff8111156124705761246f611924565b5b61247a8254611ece565b612485828285612408565b600060209050601f8311600181146124b857600084156124a6578287015190505b6124b0858261208f565b865550612518565b601f1984166124c6866123f3565b60005b828110156124ee578489015182556001820191506020850194506020810190506124c9565b8683101561250b5784890151612507601f891682612071565b8355505b6001600288020188555050505b505050505050565b6000815461252d81611ece565b6125378186611d0e565b9450600182166000811461255257600181146125685761259b565b60ff19831686528115156020028601935061259b565b612571856123f3565b60005b8381101561259357815481890152600182019150602081019050612574565b808801955050505b50505092915050565b600081546125b181611ece565b6125bb8186611c6d565b945060018216600081146125d657600181146125ec5761261f565b60ff19831686528115156020028601935061261f565b6125f585611eff565b60005b83811015612617578154818901526001820191506020810190506125f8565b808801955050505b50505092915050565b600060608201905081810360008301526126428186612520565b9050818103602083015261265681856125a4565b9050818103604083015261266a81846125a4565b9050949350505050565b6000602082019050612689600083018461187e565b92915050565b600061269a82611874565b91506126a583611874565b92508282019050808211156126bd576126bc6121ac565b5b92915050565b60006126ce82611874565b91506126d983611874565b92508282039050818111156126f1576126f06121ac565b5b92915050565b7f4e487b7100000000000000000000000000000000000000000000000000000000600052601260045260246000fd5b600061273182611874565b915061273c83611874565b92508261274c5761274b6126f7565b5b828206905092915050565b600061276282611874565b915061276d83611874565b925082820261277b81611874565b91508282048414831517612792576127916121ac565b5b5092915050565b60008160011c9050919050565b6000808291508390505b60018511156127f0578086048111156127cc576127cb6121ac565b5b60018516156127db5780820291505b80810290506127e985612799565b94506127b0565b94509492505050565b60008261280957600190506128c5565b8161281757600090506128c5565b816001811461282d576002811461283757612866565b60019150506128c5565b60ff841115612849576128486121ac565b5b8360020a9150848211156128605761285f6121ac565b5b506128c5565b5060208310610133831016604e8410600b841016171561289b5782820a905083811115612896576128956121ac565b5b6128c5565b6128a884848460016127a6565b925090508184048111156128bf576128be6121ac565b5b81810290505b9392505050565b60006128d782611874565b91506128e283611874565b925061290f7fffffffffffffffffffffffffffffffffffffffffffffffffffffffffffffffff84846127f9565b90509291505056fea2646970667358221220cf67ccdfcc8f3e05ecfffbaec6be9bd411a25eb28315f267cb9ff0f0c4b8b0b164736f6c6343000813003372657475726e2046756e6374696f6e732e656e636f6465496e7432353628373634293b","opcodes":"PUSH1 0xA0 PUSH1 0x40 MSTORE PUSH20 0xB83E47C2BC239B3BF370BC41E1459A34B41238D0 PUSH1 0x7 PUSH1 0x0 PUSH2 0x100 EXP DUP2 SLOAD DUP2 PUSH20 0xFFFFFFFFFFFFFFFFFFFFFFFFFFFFFFFFFFFFFFFF MUL NOT AND SWAP1 DUP4 PUSH20 0xFFFFFFFFFFFFFFFFFFFFFFFFFFFFFFFFFFFFFFFF AND MUL OR SWAP1 SSTORE POP PUSH32 0x66756E2D657468657265756D2D7365706F6C69612D3100000000000000000000 PUSH1 0x0 SHL PUSH1 0x8 SSTORE PUSH3 0x493E0 PUSH1 0x9 PUSH1 0x0 PUSH2 0x100 EXP DUP2 SLOAD DUP2 PUSH4 0xFFFFFFFF MUL NOT AND SWAP1 DUP4 PUSH4 0xFFFFFFFF AND MUL OR SWAP1 SSTORE POP PUSH1 0x40 MLOAD DUP1 PUSH1 0x60 ADD PUSH1 0x40 MSTORE DUP1 PUSH1 0x23 DUP2 MSTORE PUSH1 0x20 ADD PUSH3 0x2ED7 PUSH1 0x23 SWAP2 CODECOPY PUSH1 0xA SWAP1 DUP2 PUSH3 0xCE SWAP2 SWAP1 PUSH3 0x404 JUMP JUMPDEST POP CALLVALUE DUP1 ISZERO PUSH3 0xDC JUMPI PUSH1 0x0 DUP1 REVERT JUMPDEST POP PUSH1 0x40 MLOAD PUSH3 0x2EFA CODESIZE SUB DUP1 PUSH3 0x2EFA DUP4 CODECOPY DUP2 DUP2 ADD PUSH1 0x40 MSTORE DUP2 ADD SWAP1 PUSH3 0x102 SWAP2 SWAP1 PUSH3 0x535 JUMP JUMPDEST PUSH1 0x7 PUSH1 0x0 SWAP1 SLOAD SWAP1 PUSH2 0x100 EXP SWAP1 DIV PUSH20 0xFFFFFFFFFFFFFFFFFFFFFFFFFFFFFFFFFFFFFFFF AND DUP1 PUSH20 0xFFFFFFFFFFFFFFFFFFFFFFFFFFFFFFFFFFFFFFFF AND PUSH1 0x80 DUP2 PUSH20 0xFFFFFFFFFFFFFFFFFFFFFFFFFFFFFFFFFFFFFFFF AND DUP2 MSTORE POP POP POP DUP1 PUSH1 0x9 PUSH1 0x4 PUSH2 0x100 EXP DUP2 SLOAD DUP2 PUSH8 0xFFFFFFFFFFFFFFFF MUL NOT AND SWAP1 DUP4 PUSH8 0xFFFFFFFFFFFFFFFF AND MUL OR SWAP1 SSTORE POP POP PUSH3 0x567 JUMP JUMPDEST PUSH1 0x0 DUP2 MLOAD SWAP1 POP SWAP2 SWAP1 POP JUMP JUMPDEST PUSH32 0x4E487B7100000000000000000000000000000000000000000000000000000000 PUSH1 0x0 MSTORE PUSH1 0x41 PUSH1 0x4 MSTORE PUSH1 0x24 PUSH1 0x0 REVERT JUMPDEST PUSH32 0x4E487B7100000000000000000000000000000000000000000000000000000000 PUSH1 0x0 MSTORE PUSH1 0x22 PUSH1 0x4 MSTORE PUSH1 0x24 PUSH1 0x0 REVERT JUMPDEST PUSH1 0x0 PUSH1 0x2 DUP3 DIV SWAP1 POP PUSH1 0x1 DUP3 AND DUP1 PUSH3 0x20C JUMPI PUSH1 0x7F DUP3 AND SWAP2 POP JUMPDEST PUSH1 0x20 DUP3 LT DUP2 SUB PUSH3 0x222 JUMPI PUSH3 0x221 PUSH3 0x1C4 JUMP JUMPDEST JUMPDEST POP SWAP2 SWAP1 POP JUMP JUMPDEST PUSH1 0x0 DUP2 SWAP1 POP DUP2 PUSH1 0x0 MSTORE PUSH1 0x20 PUSH1 0x0 KECCAK256 SWAP1 POP SWAP2 SWAP1 POP JUMP JUMPDEST PUSH1 0x0 PUSH1 0x20 PUSH1 0x1F DUP4 ADD DIV SWAP1 POP SWAP2 SWAP1 POP JUMP JUMPDEST PUSH1 0x0 DUP3 DUP3 SHL SWAP1 POP SWAP3 SWAP2 POP POP JUMP JUMPDEST PUSH1 0x0 PUSH1 0x8 DUP4 MUL PUSH3 0x28C PUSH32 0xFFFFFFFFFFFFFFFFFFFFFFFFFFFFFFFFFFFFFFFFFFFFFFFFFFFFFFFFFFFFFFFF DUP3 PUSH3 0x24D JUMP JUMPDEST PUSH3 0x298 DUP7 DUP4 PUSH3 0x24D JUMP JUMPDEST SWAP6 POP DUP1 NOT DUP5 AND SWAP4 POP DUP1 DUP7 AND DUP5 OR SWAP3 POP POP POP SWAP4 SWAP3 POP POP POP JUMP JUMPDEST PUSH1 0x0 DUP2 SWAP1 POP SWAP2 SWAP1 POP JUMP JUMPDEST PUSH1 0x0 DUP2 SWAP1 POP SWAP2 SWAP1 POP JUMP JUMPDEST PUSH1 0x0 PUSH3 0x2E5 PUSH3 0x2DF PUSH3 0x2D9 DUP5 PUSH3 0x2B0 JUMP JUMPDEST PUSH3 0x2BA JUMP JUMPDEST PUSH3 0x2B0 JUMP JUMPDEST SWAP1 POP SWAP2 SWAP1 POP JUMP JUMPDEST PUSH1 0x0 DUP2 SWAP1 POP SWAP2 SWAP1 POP JUMP JUMPDEST PUSH3 0x301 DUP4 PUSH3 0x2C4 JUMP JUMPDEST PUSH3 0x319 PUSH3 0x310 DUP3 PUSH3 0x2EC JUMP JUMPDEST DUP5 DUP5 SLOAD PUSH3 0x25A JUMP JUMPDEST DUP3 SSTORE POP POP POP POP JUMP JUMPDEST PUSH1 0x0 SWAP1 JUMP JUMPDEST PUSH3 0x330 PUSH3 0x321 JUMP JUMPDEST PUSH3 0x33D DUP2 DUP5 DUP5 PUSH3 0x2F6 JUMP JUMPDEST POP POP POP JUMP JUMPDEST JUMPDEST DUP2 DUP2 LT ISZERO PUSH3 0x365 JUMPI PUSH3 0x359 PUSH1 0x0 DUP3 PUSH3 0x326 JUMP JUMPDEST PUSH1 0x1 DUP2 ADD SWAP1 POP PUSH3 0x343 JUMP JUMPDEST POP POP JUMP JUMPDEST PUSH1 0x1F DUP3 GT ISZERO PUSH3 0x3B4 JUMPI PUSH3 0x37E DUP2 PUSH3 0x228 JUMP JUMPDEST PUSH3 0x389 DUP5 PUSH3 0x23D JUMP JUMPDEST DUP2 ADD PUSH1 0x20 DUP6 LT ISZERO PUSH3 0x399 JUMPI DUP2 SWAP1 POP JUMPDEST PUSH3 0x3B1 PUSH3 0x3A8 DUP6 PUSH3 0x23D JUMP JUMPDEST DUP4 ADD DUP3 PUSH3 0x342 JUMP JUMPDEST POP POP JUMPDEST POP POP POP JUMP JUMPDEST PUSH1 0x0 DUP3 DUP3 SHR SWAP1 POP SWAP3 SWAP2 POP POP JUMP JUMPDEST PUSH1 0x0 PUSH3 0x3D9 PUSH1 0x0 NOT DUP5 PUSH1 0x8 MUL PUSH3 0x3B9 JUMP JUMPDEST NOT DUP1 DUP4 AND SWAP2 POP POP SWAP3 SWAP2 POP POP JUMP JUMPDEST PUSH1 0x0 PUSH3 0x3F4 DUP4 DUP4 PUSH3 0x3C6 JUMP JUMPDEST SWAP2 POP DUP3 PUSH1 0x2 MUL DUP3 OR SWAP1 POP SWAP3 SWAP2 POP POP JUMP JUMPDEST PUSH3 0x40F DUP3 PUSH3 0x18A JUMP JUMPDEST PUSH8 0xFFFFFFFFFFFFFFFF DUP2 GT ISZERO PUSH3 0x42B JUMPI PUSH3 0x42A PUSH3 0x195 JUMP JUMPDEST JUMPDEST PUSH3 0x437 DUP3 SLOAD PUSH3 0x1F3 JUMP JUMPDEST PUSH3 0x444 DUP3 DUP3 DUP6 PUSH3 0x369 JUMP JUMPDEST PUSH1 0x0 PUSH1 0x20 SWAP1 POP PUSH1 0x1F DUP4 GT PUSH1 0x1 DUP2 EQ PUSH3 0x47C JUMPI PUSH1 0x0 DUP5 ISZERO PUSH3 0x467 JUMPI DUP3 DUP8 ADD MLOAD SWAP1 POP JUMPDEST PUSH3 0x473 DUP6 DUP3 PUSH3 0x3E6 JUMP JUMPDEST DUP7 SSTORE POP PUSH3 0x4E3 JUMP JUMPDEST PUSH1 0x1F NOT DUP5 AND PUSH3 0x48C DUP7 PUSH3 0x228 JUMP JUMPDEST PUSH1 0x0 JUMPDEST DUP3 DUP2 LT ISZERO PUSH3 0x4B6 JUMPI DUP5 DUP10 ADD MLOAD DUP3 SSTORE PUSH1 0x1 DUP3 ADD SWAP2 POP PUSH1 0x20 DUP6 ADD SWAP5 POP PUSH1 0x20 DUP2 ADD SWAP1 POP PUSH3 0x48F JUMP JUMPDEST DUP7 DUP4 LT ISZERO PUSH3 0x4D6 JUMPI DUP5 DUP10 ADD MLOAD PUSH3 0x4D2 PUSH1 0x1F DUP10 AND DUP3 PUSH3 0x3C6 JUMP JUMPDEST DUP4 SSTORE POP JUMPDEST PUSH1 0x1 PUSH1 0x2 DUP9 MUL ADD DUP9 SSTORE POP POP POP JUMPDEST POP POP POP POP POP POP JUMP JUMPDEST PUSH1 0x0 DUP1 REVERT JUMPDEST PUSH1 0x0 PUSH8 0xFFFFFFFFFFFFFFFF DUP3 AND SWAP1 POP SWAP2 SWAP1 POP JUMP JUMPDEST PUSH3 0x50F DUP2 PUSH3 0x4F0 JUMP JUMPDEST DUP2 EQ PUSH3 0x51B JUMPI PUSH1 0x0 DUP1 REVERT JUMPDEST POP JUMP JUMPDEST PUSH1 0x0 DUP2 MLOAD SWAP1 POP PUSH3 0x52F DUP2 PUSH3 0x504 JUMP JUMPDEST SWAP3 SWAP2 POP POP JUMP JUMPDEST PUSH1 0x0 PUSH1 0x20 DUP3 DUP5 SUB SLT ISZERO PUSH3 0x54E JUMPI PUSH3 0x54D PUSH3 0x4EB JUMP JUMPDEST JUMPDEST PUSH1 0x0 PUSH3 0x55E DUP5 DUP3 DUP6 ADD PUSH3 0x51E JUMP JUMPDEST SWAP2 POP POP SWAP3 SWAP2 POP POP JUMP JUMPDEST PUSH1 0x80 MLOAD PUSH2 0x294D PUSH3 0x58A PUSH1 0x0 CODECOPY PUSH1 0x0 DUP2 DUP2 PUSH2 0x561 ADD MSTORE PUSH2 0xDEF ADD MSTORE PUSH2 0x294D PUSH1 0x0 RETURN INVALID PUSH1 0x80 PUSH1 0x40 MSTORE CALLVALUE DUP1 ISZERO PUSH2 0x10 JUMPI PUSH1 0x0 DUP1 REVERT JUMPDEST POP PUSH1 0x4 CALLDATASIZE LT PUSH2 0x9E JUMPI PUSH1 0x0 CALLDATALOAD PUSH1 0xE0 SHR DUP1 PUSH4 0x62747E42 GT PUSH2 0x66 JUMPI DUP1 PUSH4 0x62747E42 EQ PUSH2 0x160 JUMPI DUP1 PUSH4 0x67E828BF EQ PUSH2 0x17E JUMPI DUP1 PUSH4 0x8796BA8C EQ PUSH2 0x19C JUMPI DUP1 PUSH4 0x9D866985 EQ PUSH2 0x1CC JUMPI DUP1 PUSH4 0xFC2A88C3 EQ PUSH2 0x200 JUMPI PUSH2 0x9E JUMP JUMPDEST DUP1 PUSH4 0x5EF317A EQ PUSH2 0xA3 JUMPI DUP1 PUSH4 0x5FF4A51 EQ PUSH2 0xD8 JUMPI DUP1 PUSH4 0x9C1BA2E EQ PUSH2 0x108 JUMPI DUP1 PUSH4 0xCA76175 EQ PUSH2 0x126 JUMPI DUP1 PUSH4 0x29F0DE3F EQ PUSH2 0x142 JUMPI JUMPDEST PUSH1 0x0 DUP1 REVERT JUMPDEST PUSH2 0xBD PUSH1 0x4 DUP1 CALLDATASIZE SUB DUP2 ADD SWAP1 PUSH2 0xB8 SWAP2 SWAP1 PUSH2 0x1847 JUMP JUMPDEST PUSH2 0x21E JUMP JUMPDEST PUSH1 0x40 MLOAD PUSH2 0xCF SWAP7 SWAP6 SWAP5 SWAP4 SWAP3 SWAP2 SWAP1 PUSH2 0x18A8 JUMP JUMPDEST PUSH1 0x40 MLOAD DUP1 SWAP2 SUB SWAP1 RETURN JUMPDEST PUSH2 0xF2 PUSH1 0x4 DUP1 CALLDATASIZE SUB DUP2 ADD SWAP1 PUSH2 0xED SWAP2 SWAP1 PUSH2 0x1A4F JUMP JUMPDEST PUSH2 0x267 JUMP JUMPDEST PUSH1 0x40 MLOAD PUSH2 0xFF SWAP2 SWAP1 PUSH2 0x1AB1 JUMP JUMPDEST PUSH1 0x40 MLOAD DUP1 SWAP2 SUB SWAP1 RETURN JUMPDEST PUSH2 0x110 PUSH2 0x545 JUMP JUMPDEST PUSH1 0x40 MLOAD PUSH2 0x11D SWAP2 SWAP1 PUSH2 0x1AEF JUMP JUMPDEST PUSH1 0x40 MLOAD DUP1 SWAP2 SUB SWAP1 RETURN JUMPDEST PUSH2 0x140 PUSH1 0x4 DUP1 CALLDATASIZE SUB DUP2 ADD SWAP1 PUSH2 0x13B SWAP2 SWAP1 PUSH2 0x1BD7 JUMP JUMPDEST PUSH2 0x55F JUMP JUMPDEST STOP JUMPDEST PUSH2 0x14A PUSH2 0x621 JUMP JUMPDEST PUSH1 0x40 MLOAD PUSH2 0x157 SWAP2 SWAP1 PUSH2 0x1CE1 JUMP JUMPDEST PUSH1 0x40 MLOAD DUP1 SWAP2 SUB SWAP1 RETURN JUMPDEST PUSH2 0x168 PUSH2 0x6AF JUMP JUMPDEST PUSH1 0x40 MLOAD PUSH2 0x175 SWAP2 SWAP1 PUSH2 0x1CE1 JUMP JUMPDEST PUSH1 0x40 MLOAD DUP1 SWAP2 SUB SWAP1 RETURN JUMPDEST PUSH2 0x186 PUSH2 0x73D JUMP JUMPDEST PUSH1 0x40 MLOAD PUSH2 0x193 SWAP2 SWAP1 PUSH2 0x1D58 JUMP JUMPDEST PUSH1 0x40 MLOAD DUP1 SWAP2 SUB SWAP1 RETURN JUMPDEST PUSH2 0x1B6 PUSH1 0x4 DUP1 CALLDATASIZE SUB DUP2 ADD SWAP1 PUSH2 0x1B1 SWAP2 SWAP1 PUSH2 0x1DA6 JUMP JUMPDEST PUSH2 0x7CB JUMP JUMPDEST PUSH1 0x40 MLOAD PUSH2 0x1C3 SWAP2 SWAP1 PUSH2 0x1AB1 JUMP JUMPDEST PUSH1 0x40 MLOAD DUP1 SWAP2 SUB SWAP1 RETURN JUMPDEST PUSH2 0x1E6 PUSH1 0x4 DUP1 CALLDATASIZE SUB DUP2 ADD SWAP1 PUSH2 0x1E1 SWAP2 SWAP1 PUSH2 0x1DD3 JUMP JUMPDEST PUSH2 0x7EF JUMP JUMPDEST PUSH1 0x40 MLOAD PUSH2 0x1F7 SWAP6 SWAP5 SWAP4 SWAP3 SWAP2 SWAP1 PUSH2 0x1E0F JUMP JUMPDEST PUSH1 0x40 MLOAD DUP1 SWAP2 SUB SWAP1 RETURN JUMPDEST PUSH2 0x208 PUSH2 0x96F JUMP JUMPDEST PUSH1 0x40 MLOAD PUSH2 0x215 SWAP2 SWAP1 PUSH2 0x1AB1 JUMP JUMPDEST PUSH1 0x40 MLOAD DUP1 SWAP2 SUB SWAP1 RETURN JUMPDEST PUSH1 0x0 PUSH1 0x20 MSTORE DUP1 PUSH1 0x0 MSTORE PUSH1 0x40 PUSH1 0x0 KECCAK256 PUSH1 0x0 SWAP2 POP SWAP1 POP DUP1 PUSH1 0x0 ADD SLOAD SWAP1 DUP1 PUSH1 0x1 ADD SLOAD SWAP1 DUP1 PUSH1 0x2 ADD SLOAD SWAP1 DUP1 PUSH1 0x3 ADD SLOAD SWAP1 DUP1 PUSH1 0x4 ADD PUSH1 0x0 SWAP1 SLOAD SWAP1 PUSH2 0x100 EXP SWAP1 DIV PUSH1 0xFF AND SWAP1 DUP1 PUSH1 0x5 ADD SLOAD SWAP1 POP DUP7 JUMP JUMPDEST PUSH1 0x0 DUP1 PUSH1 0x1 PUSH8 0xFFFFFFFFFFFFFFFF DUP2 GT ISZERO PUSH2 0x285 JUMPI PUSH2 0x284 PUSH2 0x1924 JUMP JUMPDEST JUMPDEST PUSH1 0x40 MLOAD SWAP1 DUP1 DUP3 MSTORE DUP1 PUSH1 0x20 MUL PUSH1 0x20 ADD DUP3 ADD PUSH1 0x40 MSTORE DUP1 ISZERO PUSH2 0x2B8 JUMPI DUP2 PUSH1 0x20 ADD JUMPDEST PUSH1 0x60 DUP2 MSTORE PUSH1 0x20 ADD SWAP1 PUSH1 0x1 SWAP1 SUB SWAP1 DUP2 PUSH2 0x2A3 JUMPI SWAP1 POP JUMPDEST POP SWAP1 POP DUP3 DUP2 PUSH1 0x0 DUP2 MLOAD DUP2 LT PUSH2 0x2D0 JUMPI PUSH2 0x2CF PUSH2 0x1E70 JUMP JUMPDEST JUMPDEST PUSH1 0x20 MUL PUSH1 0x20 ADD ADD DUP2 SWAP1 MSTORE POP PUSH2 0x2E3 PUSH2 0x1729 JUMP JUMPDEST PUSH2 0x380 PUSH1 0xA DUP1 SLOAD PUSH2 0x2F3 SWAP1 PUSH2 0x1ECE JUMP JUMPDEST DUP1 PUSH1 0x1F ADD PUSH1 0x20 DUP1 SWAP2 DIV MUL PUSH1 0x20 ADD PUSH1 0x40 MLOAD SWAP1 DUP2 ADD PUSH1 0x40 MSTORE DUP1 SWAP3 SWAP2 SWAP1 DUP2 DUP2 MSTORE PUSH1 0x20 ADD DUP3 DUP1 SLOAD PUSH2 0x31F SWAP1 PUSH2 0x1ECE JUMP JUMPDEST DUP1 ISZERO PUSH2 0x36C JUMPI DUP1 PUSH1 0x1F LT PUSH2 0x341 JUMPI PUSH2 0x100 DUP1 DUP4 SLOAD DIV MUL DUP4 MSTORE SWAP2 PUSH1 0x20 ADD SWAP2 PUSH2 0x36C JUMP JUMPDEST DUP3 ADD SWAP2 SWAP1 PUSH1 0x0 MSTORE PUSH1 0x20 PUSH1 0x0 KECCAK256 SWAP1 JUMPDEST DUP2 SLOAD DUP2 MSTORE SWAP1 PUSH1 0x1 ADD SWAP1 PUSH1 0x20 ADD DUP1 DUP4 GT PUSH2 0x34F JUMPI DUP3 SWAP1 SUB PUSH1 0x1F AND DUP3 ADD SWAP2 JUMPDEST POP POP POP POP POP DUP3 PUSH2 0x975 SWAP1 SWAP2 SWAP1 PUSH4 0xFFFFFFFF AND JUMP JUMPDEST PUSH1 0x0 DUP3 MLOAD GT ISZERO PUSH2 0x39E JUMPI PUSH2 0x39D DUP3 DUP3 PUSH2 0x986 SWAP1 SWAP2 SWAP1 PUSH4 0xFFFFFFFF AND JUMP JUMPDEST JUMPDEST PUSH2 0x3DC PUSH2 0x3AA DUP3 PUSH2 0x9CE JUMP JUMPDEST PUSH1 0x9 PUSH1 0x4 SWAP1 SLOAD SWAP1 PUSH2 0x100 EXP SWAP1 DIV PUSH8 0xFFFFFFFFFFFFFFFF AND PUSH1 0x9 PUSH1 0x0 SWAP1 SLOAD SWAP1 PUSH2 0x100 EXP SWAP1 DIV PUSH4 0xFFFFFFFF AND PUSH1 0x8 SLOAD PUSH2 0xDEA JUMP JUMPDEST PUSH1 0x2 DUP2 SWAP1 SSTORE POP PUSH1 0x40 MLOAD DUP1 PUSH1 0xA0 ADD PUSH1 0x40 MSTORE DUP1 CALLER PUSH20 0xFFFFFFFFFFFFFFFFFFFFFFFFFFFFFFFFFFFFFFFF AND DUP2 MSTORE PUSH1 0x20 ADD PUSH1 0x0 ISZERO ISZERO DUP2 MSTORE PUSH1 0x20 ADD PUSH1 0x1 ISZERO ISZERO DUP2 MSTORE PUSH1 0x20 ADD PUSH1 0x40 MLOAD DUP1 PUSH1 0x20 ADD PUSH1 0x40 MSTORE DUP1 PUSH1 0x0 DUP2 MSTORE POP DUP2 MSTORE PUSH1 0x20 ADD PUSH1 0x40 MLOAD DUP1 PUSH1 0x20 ADD PUSH1 0x40 MSTORE DUP1 PUSH1 0x0 DUP2 MSTORE POP DUP2 MSTORE POP PUSH1 0x5 PUSH1 0x0 PUSH1 0x2 SLOAD DUP2 MSTORE PUSH1 0x20 ADD SWAP1 DUP2 MSTORE PUSH1 0x20 ADD PUSH1 0x0 KECCAK256 PUSH1 0x0 DUP3 ADD MLOAD DUP2 PUSH1 0x0 ADD PUSH1 0x0 PUSH2 0x100 EXP DUP2 SLOAD DUP2 PUSH20 0xFFFFFFFFFFFFFFFFFFFFFFFFFFFFFFFFFFFFFFFF MUL NOT AND SWAP1 DUP4 PUSH20 0xFFFFFFFFFFFFFFFFFFFFFFFFFFFFFFFFFFFFFFFF AND MUL OR SWAP1 SSTORE POP PUSH1 0x20 DUP3 ADD MLOAD DUP2 PUSH1 0x0 ADD PUSH1 0x14 PUSH2 0x100 EXP DUP2 SLOAD DUP2 PUSH1 0xFF MUL NOT AND SWAP1 DUP4 ISZERO ISZERO MUL OR SWAP1 SSTORE POP PUSH1 0x40 DUP3 ADD MLOAD DUP2 PUSH1 0x0 ADD PUSH1 0x15 PUSH2 0x100 EXP DUP2 SLOAD DUP2 PUSH1 0xFF MUL NOT AND SWAP1 DUP4 ISZERO ISZERO MUL OR SWAP1 SSTORE POP PUSH1 0x60 DUP3 ADD MLOAD DUP2 PUSH1 0x1 ADD SWAP1 DUP2 PUSH2 0x4F4 SWAP2 SWAP1 PUSH2 0x20AB JUMP JUMPDEST POP PUSH1 0x80 DUP3 ADD MLOAD DUP2 PUSH1 0x2 ADD SWAP1 DUP2 PUSH2 0x50A SWAP2 SWAP1 PUSH2 0x20AB JUMP JUMPDEST POP SWAP1 POP POP PUSH1 0x6 PUSH1 0x2 SLOAD SWAP1 DUP1 PUSH1 0x1 DUP2 SLOAD ADD DUP1 DUP3 SSTORE DUP1 SWAP2 POP POP PUSH1 0x1 SWAP1 SUB SWAP1 PUSH1 0x0 MSTORE PUSH1 0x20 PUSH1 0x0 KECCAK256 ADD PUSH1 0x0 SWAP1 SWAP2 SWAP1 SWAP2 SWAP1 SWAP2 POP SSTORE PUSH1 0x2 SLOAD SWAP3 POP POP POP SWAP2 SWAP1 POP JUMP JUMPDEST PUSH1 0x9 PUSH1 0x4 SWAP1 SLOAD SWAP1 PUSH2 0x100 EXP SWAP1 DIV PUSH8 0xFFFFFFFFFFFFFFFF AND DUP2 JUMP JUMPDEST PUSH32 0x0 PUSH20 0xFFFFFFFFFFFFFFFFFFFFFFFFFFFFFFFFFFFFFFFF AND CALLER PUSH20 0xFFFFFFFFFFFFFFFFFFFFFFFFFFFFFFFFFFFFFFFF AND EQ PUSH2 0x5E4 JUMPI PUSH1 0x40 MLOAD PUSH32 0xC6829F8300000000000000000000000000000000000000000000000000000000 DUP2 MSTORE PUSH1 0x4 ADD PUSH1 0x40 MLOAD DUP1 SWAP2 SUB SWAP1 REVERT JUMPDEST PUSH2 0x5EF DUP4 DUP4 DUP4 PUSH2 0xECD JUMP JUMPDEST DUP3 PUSH32 0x85E1543BF2F84FE80C6BADBCE3648C8539AD1DF4D2B3D822938CA0538BE727E6 PUSH1 0x40 MLOAD PUSH1 0x40 MLOAD DUP1 SWAP2 SUB SWAP1 LOG2 POP POP POP JUMP JUMPDEST PUSH1 0x4 DUP1 SLOAD PUSH2 0x62E SWAP1 PUSH2 0x1ECE JUMP JUMPDEST DUP1 PUSH1 0x1F ADD PUSH1 0x20 DUP1 SWAP2 DIV MUL PUSH1 0x20 ADD PUSH1 0x40 MLOAD SWAP1 DUP2 ADD PUSH1 0x40 MSTORE DUP1 SWAP3 SWAP2 SWAP1 DUP2 DUP2 MSTORE PUSH1 0x20 ADD DUP3 DUP1 SLOAD PUSH2 0x65A SWAP1 PUSH2 0x1ECE JUMP JUMPDEST DUP1 ISZERO PUSH2 0x6A7 JUMPI DUP1 PUSH1 0x1F LT PUSH2 0x67C JUMPI PUSH2 0x100 DUP1 DUP4 SLOAD DIV MUL DUP4 MSTORE SWAP2 PUSH1 0x20 ADD SWAP2 PUSH2 0x6A7 JUMP JUMPDEST DUP3 ADD SWAP2 SWAP1 PUSH1 0x0 MSTORE PUSH1 0x20 PUSH1 0x0 KECCAK256 SWAP1 JUMPDEST DUP2 SLOAD DUP2 MSTORE SWAP1 PUSH1 0x1 ADD SWAP1 PUSH1 0x20 ADD DUP1 DUP4 GT PUSH2 0x68A JUMPI DUP3 SWAP1 SUB PUSH1 0x1F AND DUP3 ADD SWAP2 JUMPDEST POP POP POP POP POP DUP2 JUMP JUMPDEST PUSH1 0x3 DUP1 SLOAD PUSH2 0x6BC SWAP1 PUSH2 0x1ECE JUMP JUMPDEST DUP1 PUSH1 0x1F ADD PUSH1 0x20 DUP1 SWAP2 DIV MUL PUSH1 0x20 ADD PUSH1 0x40 MLOAD SWAP1 DUP2 ADD PUSH1 0x40 MSTORE DUP1 SWAP3 SWAP2 SWAP1 DUP2 DUP2 MSTORE PUSH1 0x20 ADD DUP3 DUP1 SLOAD PUSH2 0x6E8 SWAP1 PUSH2 0x1ECE JUMP JUMPDEST DUP1 ISZERO PUSH2 0x735 JUMPI DUP1 PUSH1 0x1F LT PUSH2 0x70A JUMPI PUSH2 0x100 DUP1 DUP4 SLOAD DIV MUL DUP4 MSTORE SWAP2 PUSH1 0x20 ADD SWAP2 PUSH2 0x735 JUMP JUMPDEST DUP3 ADD SWAP2 SWAP1 PUSH1 0x0 MSTORE PUSH1 0x20 PUSH1 0x0 KECCAK256 SWAP1 JUMPDEST DUP2 SLOAD DUP2 MSTORE SWAP1 PUSH1 0x1 ADD SWAP1 PUSH1 0x20 ADD DUP1 DUP4 GT PUSH2 0x718 JUMPI DUP3 SWAP1 SUB PUSH1 0x1F AND DUP3 ADD SWAP2 JUMPDEST POP POP POP POP POP DUP2 JUMP JUMPDEST PUSH1 0xA DUP1 SLOAD PUSH2 0x74A SWAP1 PUSH2 0x1ECE JUMP JUMPDEST DUP1 PUSH1 0x1F ADD PUSH1 0x20 DUP1 SWAP2 DIV MUL PUSH1 0x20 ADD PUSH1 0x40 MLOAD SWAP1 DUP2 ADD PUSH1 0x40 MSTORE DUP1 SWAP3 SWAP2 SWAP1 DUP2 DUP2 MSTORE PUSH1 0x20 ADD DUP3 DUP1 SLOAD PUSH2 0x776 SWAP1 PUSH2 0x1ECE JUMP JUMPDEST DUP1 ISZERO PUSH2 0x7C3 JUMPI DUP1 PUSH1 0x1F LT PUSH2 0x798 JUMPI PUSH2 0x100 DUP1 DUP4 SLOAD DIV MUL DUP4 MSTORE SWAP2 PUSH1 0x20 ADD SWAP2 PUSH2 0x7C3 JUMP JUMPDEST DUP3 ADD SWAP2 SWAP1 PUSH1 0x0 MSTORE PUSH1 0x20 PUSH1 0x0 KECCAK256 SWAP1 JUMPDEST DUP2 SLOAD DUP2 MSTORE SWAP1 PUSH1 0x1 ADD SWAP1 PUSH1 0x20 ADD DUP1 DUP4 GT PUSH2 0x7A6 JUMPI DUP3 SWAP1 SUB PUSH1 0x1F AND DUP3 ADD SWAP2 JUMPDEST POP POP POP POP POP DUP2 JUMP JUMPDEST PUSH1 0x6 DUP2 DUP2 SLOAD DUP2 LT PUSH2 0x7DB JUMPI PUSH1 0x0 DUP1 REVERT JUMPDEST SWAP1 PUSH1 0x0 MSTORE PUSH1 0x20 PUSH1 0x0 KECCAK256 ADD PUSH1 0x0 SWAP2 POP SWAP1 POP SLOAD DUP2 JUMP JUMPDEST PUSH1 0x5 PUSH1 0x20 MSTORE DUP1 PUSH1 0x0 MSTORE PUSH1 0x40 PUSH1 0x0 KECCAK256 PUSH1 0x0 SWAP2 POP SWAP1 POP DUP1 PUSH1 0x0 ADD PUSH1 0x0 SWAP1 SLOAD SWAP1 PUSH2 0x100 EXP SWAP1 DIV PUSH20 0xFFFFFFFFFFFFFFFFFFFFFFFFFFFFFFFFFFFFFFFF AND SWAP1 DUP1 PUSH1 0x0 ADD PUSH1 0x14 SWAP1 SLOAD SWAP1 PUSH2 0x100 EXP SWAP1 DIV PUSH1 0xFF AND SWAP1 DUP1 PUSH1 0x0 ADD PUSH1 0x15 SWAP1 SLOAD SWAP1 PUSH2 0x100 EXP SWAP1 DIV PUSH1 0xFF AND SWAP1 DUP1 PUSH1 0x1 ADD DUP1 SLOAD PUSH2 0x85E SWAP1 PUSH2 0x1ECE JUMP JUMPDEST DUP1 PUSH1 0x1F ADD PUSH1 0x20 DUP1 SWAP2 DIV MUL PUSH1 0x20 ADD PUSH1 0x40 MLOAD SWAP1 DUP2 ADD PUSH1 0x40 MSTORE DUP1 SWAP3 SWAP2 SWAP1 DUP2 DUP2 MSTORE PUSH1 0x20 ADD DUP3 DUP1 SLOAD PUSH2 0x88A SWAP1 PUSH2 0x1ECE JUMP JUMPDEST DUP1 ISZERO PUSH2 0x8D7 JUMPI DUP1 PUSH1 0x1F LT PUSH2 0x8AC JUMPI PUSH2 0x100 DUP1 DUP4 SLOAD DIV MUL DUP4 MSTORE SWAP2 PUSH1 0x20 ADD SWAP2 PUSH2 0x8D7 JUMP JUMPDEST DUP3 ADD SWAP2 SWAP1 PUSH1 0x0 MSTORE PUSH1 0x20 PUSH1 0x0 KECCAK256 SWAP1 JUMPDEST DUP2 SLOAD DUP2 MSTORE SWAP1 PUSH1 0x1 ADD SWAP1 PUSH1 0x20 ADD DUP1 DUP4 GT PUSH2 0x8BA JUMPI DUP3 SWAP1 SUB PUSH1 0x1F AND DUP3 ADD SWAP2 JUMPDEST POP POP POP POP POP SWAP1 DUP1 PUSH1 0x2 ADD DUP1 SLOAD PUSH2 0x8EC SWAP1 PUSH2 0x1ECE JUMP JUMPDEST DUP1 PUSH1 0x1F ADD PUSH1 0x20 DUP1 SWAP2 DIV MUL PUSH1 0x20 ADD PUSH1 0x40 MLOAD SWAP1 DUP2 ADD PUSH1 0x40 MSTORE DUP1 SWAP3 SWAP2 SWAP1 DUP2 DUP2 MSTORE PUSH1 0x20 ADD DUP3 DUP1 SLOAD PUSH2 0x918 SWAP1 PUSH2 0x1ECE JUMP JUMPDEST DUP1 ISZERO PUSH2 0x965 JUMPI DUP1 PUSH1 0x1F LT PUSH2 0x93A JUMPI PUSH2 0x100 DUP1 DUP4 SLOAD DIV MUL DUP4 MSTORE SWAP2 PUSH1 0x20 ADD SWAP2 PUSH2 0x965 JUMP JUMPDEST DUP3 ADD SWAP2 SWAP1 PUSH1 0x0 MSTORE PUSH1 0x20 PUSH1 0x0 KECCAK256 SWAP1 JUMPDEST DUP2 SLOAD DUP2 MSTORE SWAP1 PUSH1 0x1 ADD SWAP1 PUSH1 0x20 ADD DUP1 DUP4 GT PUSH2 0x948 JUMPI DUP3 SWAP1 SUB PUSH1 0x1F AND DUP3 ADD SWAP2 JUMPDEST POP POP POP POP POP SWAP1 POP DUP6 JUMP JUMPDEST PUSH1 0x2 SLOAD DUP2 JUMP JUMPDEST PUSH2 0x982 DUP3 PUSH1 0x0 DUP1 DUP5 PUSH2 0x1104 JUMP JUMPDEST POP POP JUMP JUMPDEST PUSH1 0x0 DUP2 MLOAD SUB PUSH2 0x9C1 JUMPI PUSH1 0x40 MLOAD PUSH32 0xFE936CB700000000000000000000000000000000000000000000000000000000 DUP2 MSTORE PUSH1 0x4 ADD PUSH1 0x40 MLOAD DUP1 SWAP2 SUB SWAP1 REVERT JUMPDEST DUP1 DUP3 PUSH1 0xA0 ADD DUP2 SWAP1 MSTORE POP POP POP JUMP JUMPDEST PUSH1 0x60 PUSH1 0x0 PUSH2 0x9DD PUSH2 0x100 PUSH2 0x11AE JUMP JUMPDEST SWAP1 POP PUSH2 0xA27 PUSH1 0x40 MLOAD DUP1 PUSH1 0x40 ADD PUSH1 0x40 MSTORE DUP1 PUSH1 0xC DUP2 MSTORE PUSH1 0x20 ADD PUSH32 0x636F64654C6F636174696F6E0000000000000000000000000000000000000000 DUP2 MSTORE POP DUP3 PUSH2 0x11D5 SWAP1 SWAP2 SWAP1 PUSH4 0xFFFFFFFF AND JUMP JUMPDEST PUSH2 0xA50 DUP4 PUSH1 0x0 ADD MLOAD PUSH1 0x2 DUP2 GT ISZERO PUSH2 0xA41 JUMPI PUSH2 0xA40 PUSH2 0x217D JUMP JUMPDEST JUMPDEST DUP3 PUSH2 0x11FE SWAP1 SWAP2 SWAP1 PUSH4 0xFFFFFFFF AND JUMP JUMPDEST PUSH2 0xA98 PUSH1 0x40 MLOAD DUP1 PUSH1 0x40 ADD PUSH1 0x40 MSTORE DUP1 PUSH1 0x8 DUP2 MSTORE PUSH1 0x20 ADD PUSH32 0x6C616E6775616765000000000000000000000000000000000000000000000000 DUP2 MSTORE POP DUP3 PUSH2 0x11D5 SWAP1 SWAP2 SWAP1 PUSH4 0xFFFFFFFF AND JUMP JUMPDEST PUSH2 0xAC1 DUP4 PUSH1 0x40 ADD MLOAD PUSH1 0x0 DUP2 GT ISZERO PUSH2 0xAB2 JUMPI PUSH2 0xAB1 PUSH2 0x217D JUMP JUMPDEST JUMPDEST DUP3 PUSH2 0x11FE SWAP1 SWAP2 SWAP1 PUSH4 0xFFFFFFFF AND JUMP JUMPDEST PUSH2 0xB09 PUSH1 0x40 MLOAD DUP1 PUSH1 0x40 ADD PUSH1 0x40 MSTORE DUP1 PUSH1 0x6 DUP2 MSTORE PUSH1 0x20 ADD PUSH32 0x736F757263650000000000000000000000000000000000000000000000000000 DUP2 MSTORE POP DUP3 PUSH2 0x11D5 SWAP1 SWAP2 SWAP1 PUSH4 0xFFFFFFFF AND JUMP JUMPDEST PUSH2 0xB20 DUP4 PUSH1 0x60 ADD MLOAD DUP3 PUSH2 0x11D5 SWAP1 SWAP2 SWAP1 PUSH4 0xFFFFFFFF AND JUMP JUMPDEST PUSH1 0x0 DUP4 PUSH1 0xA0 ADD MLOAD MLOAD GT ISZERO PUSH2 0xBDC JUMPI PUSH2 0xB76 PUSH1 0x40 MLOAD DUP1 PUSH1 0x40 ADD PUSH1 0x40 MSTORE DUP1 PUSH1 0x4 DUP2 MSTORE PUSH1 0x20 ADD PUSH32 0x6172677300000000000000000000000000000000000000000000000000000000 DUP2 MSTORE POP DUP3 PUSH2 0x11D5 SWAP1 SWAP2 SWAP1 PUSH4 0xFFFFFFFF AND JUMP JUMPDEST PUSH2 0xB7F DUP2 PUSH2 0x124E JUMP JUMPDEST PUSH1 0x0 JUMPDEST DUP4 PUSH1 0xA0 ADD MLOAD MLOAD DUP2 LT ISZERO PUSH2 0xBD1 JUMPI PUSH2 0xBC0 DUP5 PUSH1 0xA0 ADD MLOAD DUP3 DUP2 MLOAD DUP2 LT PUSH2 0xBA9 JUMPI PUSH2 0xBA8 PUSH2 0x1E70 JUMP JUMPDEST JUMPDEST PUSH1 0x20 MUL PUSH1 0x20 ADD ADD MLOAD DUP4 PUSH2 0x11D5 SWAP1 SWAP2 SWAP1 PUSH4 0xFFFFFFFF AND JUMP JUMPDEST DUP1 PUSH2 0xBCA SWAP1 PUSH2 0x21DB JUMP JUMPDEST SWAP1 POP PUSH2 0xB82 JUMP JUMPDEST POP PUSH2 0xBDB DUP2 PUSH2 0x1276 JUMP JUMPDEST JUMPDEST PUSH1 0x0 DUP4 PUSH1 0x80 ADD MLOAD MLOAD GT ISZERO PUSH2 0xD1D JUMPI PUSH1 0x0 PUSH1 0x2 DUP2 GT ISZERO PUSH2 0xBFE JUMPI PUSH2 0xBFD PUSH2 0x217D JUMP JUMPDEST JUMPDEST DUP4 PUSH1 0x20 ADD MLOAD PUSH1 0x2 DUP2 GT ISZERO PUSH2 0xC15 JUMPI PUSH2 0xC14 PUSH2 0x217D JUMP JUMPDEST JUMPDEST SUB PUSH2 0xC4C JUMPI PUSH1 0x40 MLOAD PUSH32 0xA80D31F700000000000000000000000000000000000000000000000000000000 DUP2 MSTORE PUSH1 0x4 ADD PUSH1 0x40 MLOAD DUP1 SWAP2 SUB SWAP1 REVERT JUMPDEST PUSH2 0xC94 PUSH1 0x40 MLOAD DUP1 PUSH1 0x40 ADD PUSH1 0x40 MSTORE DUP1 PUSH1 0xF DUP2 MSTORE PUSH1 0x20 ADD PUSH32 0x736563726574734C6F636174696F6E0000000000000000000000000000000000 DUP2 MSTORE POP DUP3 PUSH2 0x11D5 SWAP1 SWAP2 SWAP1 PUSH4 0xFFFFFFFF AND JUMP JUMPDEST PUSH2 0xCBD DUP4 PUSH1 0x20 ADD MLOAD PUSH1 0x2 DUP2 GT ISZERO PUSH2 0xCAE JUMPI PUSH2 0xCAD PUSH2 0x217D JUMP JUMPDEST JUMPDEST DUP3 PUSH2 0x11FE SWAP1 SWAP2 SWAP1 PUSH4 0xFFFFFFFF AND JUMP JUMPDEST PUSH2 0xD05 PUSH1 0x40 MLOAD DUP1 PUSH1 0x40 ADD PUSH1 0x40 MSTORE DUP1 PUSH1 0x7 DUP2 MSTORE PUSH1 0x20 ADD PUSH32 0x7365637265747300000000000000000000000000000000000000000000000000 DUP2 MSTORE POP DUP3 PUSH2 0x11D5 SWAP1 SWAP2 SWAP1 PUSH4 0xFFFFFFFF AND JUMP JUMPDEST PUSH2 0xD1C DUP4 PUSH1 0x80 ADD MLOAD DUP3 PUSH2 0x129E SWAP1 SWAP2 SWAP1 PUSH4 0xFFFFFFFF AND JUMP JUMPDEST JUMPDEST PUSH1 0x0 DUP4 PUSH1 0xC0 ADD MLOAD MLOAD GT ISZERO PUSH2 0xDD9 JUMPI PUSH2 0xD73 PUSH1 0x40 MLOAD DUP1 PUSH1 0x40 ADD PUSH1 0x40 MSTORE DUP1 PUSH1 0x9 DUP2 MSTORE PUSH1 0x20 ADD PUSH32 0x6279746573417267730000000000000000000000000000000000000000000000 DUP2 MSTORE POP DUP3 PUSH2 0x11D5 SWAP1 SWAP2 SWAP1 PUSH4 0xFFFFFFFF AND JUMP JUMPDEST PUSH2 0xD7C DUP2 PUSH2 0x124E JUMP JUMPDEST PUSH1 0x0 JUMPDEST DUP4 PUSH1 0xC0 ADD MLOAD MLOAD DUP2 LT ISZERO PUSH2 0xDCE JUMPI PUSH2 0xDBD DUP5 PUSH1 0xC0 ADD MLOAD DUP3 DUP2 MLOAD DUP2 LT PUSH2 0xDA6 JUMPI PUSH2 0xDA5 PUSH2 0x1E70 JUMP JUMPDEST JUMPDEST PUSH1 0x20 MUL PUSH1 0x20 ADD ADD MLOAD DUP4 PUSH2 0x129E SWAP1 SWAP2 SWAP1 PUSH4 0xFFFFFFFF AND JUMP JUMPDEST DUP1 PUSH2 0xDC7 SWAP1 PUSH2 0x21DB JUMP JUMPDEST SWAP1 POP PUSH2 0xD7F JUMP JUMPDEST POP PUSH2 0xDD8 DUP2 PUSH2 0x1276 JUMP JUMPDEST JUMPDEST DUP1 PUSH1 0x0 ADD MLOAD PUSH1 0x0 ADD MLOAD SWAP2 POP POP SWAP2 SWAP1 POP JUMP JUMPDEST PUSH1 0x0 DUP1 PUSH32 0x0 PUSH20 0xFFFFFFFFFFFFFFFFFFFFFFFFFFFFFFFFFFFFFFFF AND PUSH4 0x461D2762 DUP7 DUP9 PUSH1 0x1 DUP9 DUP9 PUSH1 0x40 MLOAD DUP7 PUSH4 0xFFFFFFFF AND PUSH1 0xE0 SHL DUP2 MSTORE PUSH1 0x4 ADD PUSH2 0xE4F SWAP6 SWAP5 SWAP4 SWAP3 SWAP2 SWAP1 PUSH2 0x225F JUMP JUMPDEST PUSH1 0x20 PUSH1 0x40 MLOAD DUP1 DUP4 SUB DUP2 PUSH1 0x0 DUP8 GAS CALL ISZERO DUP1 ISZERO PUSH2 0xE6E JUMPI RETURNDATASIZE PUSH1 0x0 DUP1 RETURNDATACOPY RETURNDATASIZE PUSH1 0x0 REVERT JUMPDEST POP POP POP POP PUSH1 0x40 MLOAD RETURNDATASIZE PUSH1 0x1F NOT PUSH1 0x1F DUP3 ADD AND DUP3 ADD DUP1 PUSH1 0x40 MSTORE POP DUP2 ADD SWAP1 PUSH2 0xE92 SWAP2 SWAP1 PUSH2 0x22CE JUMP JUMPDEST SWAP1 POP DUP1 PUSH32 0x1131472297A800FEE664D1D89CFA8F7676FF07189ECC53F80BBB5F4969099DB8 PUSH1 0x40 MLOAD PUSH1 0x40 MLOAD DUP1 SWAP2 SUB SWAP1 LOG2 DUP1 SWAP2 POP POP SWAP5 SWAP4 POP POP POP POP JUMP JUMPDEST PUSH1 0x5 PUSH1 0x0 DUP5 DUP2 MSTORE PUSH1 0x20 ADD SWAP1 DUP2 MSTORE PUSH1 0x20 ADD PUSH1 0x0 KECCAK256 PUSH1 0x0 ADD PUSH1 0x15 SWAP1 SLOAD SWAP1 PUSH2 0x100 EXP SWAP1 DIV PUSH1 0xFF AND PUSH2 0xF30 JUMPI PUSH1 0x40 MLOAD PUSH32 0x8C379A000000000000000000000000000000000000000000000000000000000 DUP2 MSTORE PUSH1 0x4 ADD PUSH2 0xF27 SWAP1 PUSH2 0x2347 JUMP JUMPDEST PUSH1 0x40 MLOAD DUP1 SWAP2 SUB SWAP1 REVERT JUMPDEST DUP1 PUSH1 0x4 SWAP1 DUP2 PUSH2 0xF3F SWAP2 SWAP1 PUSH2 0x20AB JUMP JUMPDEST POP DUP2 PUSH1 0x3 SWAP1 DUP2 PUSH2 0xF4F SWAP2 SWAP1 PUSH2 0x20AB JUMP JUMPDEST POP PUSH1 0x1 PUSH1 0x5 PUSH1 0x0 DUP6 DUP2 MSTORE PUSH1 0x20 ADD SWAP1 DUP2 MSTORE PUSH1 0x20 ADD PUSH1 0x0 KECCAK256 PUSH1 0x0 ADD PUSH1 0x14 PUSH2 0x100 EXP DUP2 SLOAD DUP2 PUSH1 0xFF MUL NOT AND SWAP1 DUP4 ISZERO ISZERO MUL OR SWAP1 SSTORE POP DUP2 PUSH1 0x5 PUSH1 0x0 DUP6 DUP2 MSTORE PUSH1 0x20 ADD SWAP1 DUP2 MSTORE PUSH1 0x20 ADD PUSH1 0x0 KECCAK256 PUSH1 0x1 ADD SWAP1 DUP2 PUSH2 0xFA2 SWAP2 SWAP1 PUSH2 0x20AB JUMP JUMPDEST POP DUP1 PUSH1 0x5 PUSH1 0x0 DUP6 DUP2 MSTORE PUSH1 0x20 ADD SWAP1 DUP2 MSTORE PUSH1 0x20 ADD PUSH1 0x0 KECCAK256 PUSH1 0x2 ADD SWAP1 DUP2 PUSH2 0xFC6 SWAP2 SWAP1 PUSH2 0x20AB JUMP JUMPDEST POP PUSH1 0x0 PUSH1 0x5 PUSH1 0x0 DUP6 DUP2 MSTORE PUSH1 0x20 ADD SWAP1 DUP2 MSTORE PUSH1 0x20 ADD PUSH1 0x0 KECCAK256 PUSH1 0x0 ADD PUSH1 0x0 SWAP1 SLOAD SWAP1 PUSH2 0x100 EXP SWAP1 DIV PUSH20 0xFFFFFFFFFFFFFFFFFFFFFFFFFFFFFFFFFFFFFFFF AND SWAP1 POP PUSH1 0x0 DUP1 DUP3 PUSH20 0xFFFFFFFFFFFFFFFFFFFFFFFFFFFFFFFFFFFFFFFF AND PUSH20 0xFFFFFFFFFFFFFFFFFFFFFFFFFFFFFFFFFFFFFFFF AND DUP2 MSTORE PUSH1 0x20 ADD SWAP1 DUP2 MSTORE PUSH1 0x20 ADD PUSH1 0x0 KECCAK256 PUSH1 0x4 ADD PUSH1 0x0 SWAP1 SLOAD SWAP1 PUSH2 0x100 EXP SWAP1 DIV PUSH1 0xFF AND ISZERO PUSH2 0x10AF JUMPI PUSH1 0x0 DUP4 PUSH2 0x1062 SWAP1 PUSH2 0x238C JUMP JUMPDEST PUSH1 0x0 SHR SWAP1 POP DUP1 PUSH1 0x0 DUP1 DUP5 PUSH20 0xFFFFFFFFFFFFFFFFFFFFFFFFFFFFFFFFFFFFFFFF AND PUSH20 0xFFFFFFFFFFFFFFFFFFFFFFFFFFFFFFFFFFFFFFFF AND DUP2 MSTORE PUSH1 0x20 ADD SWAP1 DUP2 MSTORE PUSH1 0x20 ADD PUSH1 0x0 KECCAK256 PUSH1 0x0 ADD DUP2 SWAP1 SSTORE POP POP JUMPDEST DUP3 PUSH1 0x1 SWAP1 DUP2 PUSH2 0x10BE SWAP2 SWAP1 PUSH2 0x244E JUMP JUMPDEST POP DUP4 PUSH32 0x160ED0AAFFBEF6885155188B91459CB5A97D5DAADCCF7561D8C46DEEA6641B50 PUSH1 0x1 PUSH1 0x3 PUSH1 0x4 PUSH1 0x40 MLOAD PUSH2 0x10F6 SWAP4 SWAP3 SWAP2 SWAP1 PUSH2 0x2628 JUMP JUMPDEST PUSH1 0x40 MLOAD DUP1 SWAP2 SUB SWAP1 LOG2 POP POP POP POP JUMP JUMPDEST PUSH1 0x0 DUP2 MLOAD SUB PUSH2 0x113F JUMPI PUSH1 0x40 MLOAD PUSH32 0x22CE3EDD00000000000000000000000000000000000000000000000000000000 DUP2 MSTORE PUSH1 0x4 ADD PUSH1 0x40 MLOAD DUP1 SWAP2 SUB SWAP1 REVERT JUMPDEST DUP3 DUP5 PUSH1 0x0 ADD SWAP1 PUSH1 0x2 DUP2 GT ISZERO PUSH2 0x1157 JUMPI PUSH2 0x1156 PUSH2 0x217D JUMP JUMPDEST JUMPDEST SWAP1 DUP2 PUSH1 0x2 DUP2 GT ISZERO PUSH2 0x116B JUMPI PUSH2 0x116A PUSH2 0x217D JUMP JUMPDEST JUMPDEST DUP2 MSTORE POP POP DUP2 DUP5 PUSH1 0x40 ADD SWAP1 PUSH1 0x0 DUP2 GT ISZERO PUSH2 0x1187 JUMPI PUSH2 0x1186 PUSH2 0x217D JUMP JUMPDEST JUMPDEST SWAP1 DUP2 PUSH1 0x0 DUP2 GT ISZERO PUSH2 0x119B JUMPI PUSH2 0x119A PUSH2 0x217D JUMP JUMPDEST JUMPDEST DUP2 MSTORE POP POP DUP1 DUP5 PUSH1 0x60 ADD DUP2 SWAP1 MSTORE POP POP POP POP POP JUMP JUMPDEST PUSH2 0x11B6 PUSH2 0x179B JUMP JUMPDEST PUSH2 0x11C4 DUP2 PUSH1 0x0 ADD MLOAD DUP4 PUSH2 0x12C7 JUMP JUMPDEST POP PUSH1 0x0 DUP2 PUSH1 0x20 ADD DUP2 DUP2 MSTORE POP POP SWAP2 SWAP1 POP JUMP JUMPDEST PUSH2 0x11E2 DUP3 PUSH1 0x3 DUP4 MLOAD PUSH2 0x1340 JUMP JUMPDEST PUSH2 0x11F9 DUP2 DUP4 PUSH1 0x0 ADD MLOAD PUSH2 0x14E9 SWAP1 SWAP2 SWAP1 PUSH4 0xFFFFFFFF AND JUMP JUMPDEST POP POP POP JUMP JUMPDEST PUSH2 0x1220 PUSH1 0x2 PUSH1 0x5 PUSH1 0x6 PUSH1 0xFF AND SWAP1 SHL OR DUP4 PUSH1 0x0 ADD MLOAD PUSH2 0x1505 SWAP1 SWAP2 SWAP1 PUSH4 0xFFFFFFFF AND JUMP JUMPDEST POP PUSH2 0x124A DUP3 DUP3 PUSH1 0x40 MLOAD PUSH1 0x20 ADD PUSH2 0x1236 SWAP2 SWAP1 PUSH2 0x2674 JUMP JUMPDEST PUSH1 0x40 MLOAD PUSH1 0x20 DUP2 DUP4 SUB SUB DUP2 MSTORE SWAP1 PUSH1 0x40 MSTORE PUSH2 0x129E JUMP JUMPDEST POP POP JUMP JUMPDEST PUSH2 0x1259 DUP2 PUSH1 0x4 PUSH2 0x156F JUMP JUMPDEST PUSH1 0x1 DUP2 PUSH1 0x20 ADD DUP2 DUP2 MLOAD PUSH2 0x126C SWAP2 SWAP1 PUSH2 0x268F JUMP JUMPDEST SWAP2 POP DUP2 DUP2 MSTORE POP POP POP JUMP JUMPDEST PUSH2 0x1281 DUP2 PUSH1 0x7 PUSH2 0x156F JUMP JUMPDEST PUSH1 0x1 DUP2 PUSH1 0x20 ADD DUP2 DUP2 MLOAD PUSH2 0x1294 SWAP2 SWAP1 PUSH2 0x26C3 JUMP JUMPDEST SWAP2 POP DUP2 DUP2 MSTORE POP POP POP JUMP JUMPDEST PUSH2 0x12AB DUP3 PUSH1 0x2 DUP4 MLOAD PUSH2 0x1340 JUMP JUMPDEST PUSH2 0x12C2 DUP2 DUP4 PUSH1 0x0 ADD MLOAD PUSH2 0x14E9 SWAP1 SWAP2 SWAP1 PUSH4 0xFFFFFFFF AND JUMP JUMPDEST POP POP POP JUMP JUMPDEST PUSH2 0x12CF PUSH2 0x17BB JUMP JUMPDEST PUSH1 0x0 PUSH1 0x20 DUP4 PUSH2 0x12DE SWAP2 SWAP1 PUSH2 0x2726 JUMP JUMPDEST EQ PUSH2 0x130A JUMPI PUSH1 0x20 DUP3 PUSH2 0x12F0 SWAP2 SWAP1 PUSH2 0x2726 JUMP JUMPDEST PUSH1 0x20 PUSH2 0x12FC SWAP2 SWAP1 PUSH2 0x26C3 JUMP JUMPDEST DUP3 PUSH2 0x1307 SWAP2 SWAP1 PUSH2 0x268F JUMP JUMPDEST SWAP2 POP JUMPDEST DUP2 DUP4 PUSH1 0x20 ADD DUP2 DUP2 MSTORE POP POP PUSH1 0x40 MLOAD DUP1 DUP5 MSTORE PUSH1 0x0 DUP2 MSTORE DUP3 DUP2 ADD PUSH1 0x20 ADD DUP2 DUP2 LT ISZERO PUSH2 0x1331 JUMPI PUSH1 0x0 DUP1 REVERT JUMPDEST DUP1 PUSH1 0x40 MSTORE POP POP DUP3 SWAP1 POP SWAP3 SWAP2 POP POP JUMP JUMPDEST PUSH1 0x17 DUP2 PUSH8 0xFFFFFFFFFFFFFFFF AND GT PUSH2 0x137B JUMPI PUSH2 0x1375 DUP2 PUSH1 0x5 DUP5 PUSH1 0xFF AND SWAP1 SHL PUSH1 0xFF AND OR DUP5 PUSH1 0x0 ADD MLOAD PUSH2 0x1505 SWAP1 SWAP2 SWAP1 PUSH4 0xFFFFFFFF AND JUMP JUMPDEST POP PUSH2 0x14E4 JUMP JUMPDEST PUSH1 0xFF DUP2 PUSH8 0xFFFFFFFFFFFFFFFF AND GT PUSH2 0x13D9 JUMPI PUSH2 0x13AE PUSH1 0x18 PUSH1 0x5 DUP5 PUSH1 0xFF AND SWAP1 SHL OR DUP5 PUSH1 0x0 ADD MLOAD PUSH2 0x1505 SWAP1 SWAP2 SWAP1 PUSH4 0xFFFFFFFF AND JUMP JUMPDEST POP PUSH2 0x13D3 DUP2 PUSH8 0xFFFFFFFFFFFFFFFF AND PUSH1 0x1 DUP6 PUSH1 0x0 ADD MLOAD PUSH2 0x1595 SWAP1 SWAP3 SWAP2 SWAP1 PUSH4 0xFFFFFFFF AND JUMP JUMPDEST POP PUSH2 0x14E3 JUMP JUMPDEST PUSH2 0xFFFF DUP2 PUSH8 0xFFFFFFFFFFFFFFFF AND GT PUSH2 0x1438 JUMPI PUSH2 0x140D PUSH1 0x19 PUSH1 0x5 DUP5 PUSH1 0xFF AND SWAP1 SHL OR DUP5 PUSH1 0x0 ADD MLOAD PUSH2 0x1505 SWAP1 SWAP2 SWAP1 PUSH4 0xFFFFFFFF AND JUMP JUMPDEST POP PUSH2 0x1432 DUP2 PUSH8 0xFFFFFFFFFFFFFFFF AND PUSH1 0x2 DUP6 PUSH1 0x0 ADD MLOAD PUSH2 0x1595 SWAP1 SWAP3 SWAP2 SWAP1 PUSH4 0xFFFFFFFF AND JUMP JUMPDEST POP PUSH2 0x14E2 JUMP JUMPDEST PUSH4 0xFFFFFFFF DUP2 PUSH8 0xFFFFFFFFFFFFFFFF AND GT PUSH2 0x1499 JUMPI PUSH2 0x146E PUSH1 0x1A PUSH1 0x5 DUP5 PUSH1 0xFF AND SWAP1 SHL OR DUP5 PUSH1 0x0 ADD MLOAD PUSH2 0x1505 SWAP1 SWAP2 SWAP1 PUSH4 0xFFFFFFFF AND JUMP JUMPDEST POP PUSH2 0x1493 DUP2 PUSH8 0xFFFFFFFFFFFFFFFF AND PUSH1 0x4 DUP6 PUSH1 0x0 ADD MLOAD PUSH2 0x1595 SWAP1 SWAP3 SWAP2 SWAP1 PUSH4 0xFFFFFFFF AND JUMP JUMPDEST POP PUSH2 0x14E1 JUMP JUMPDEST PUSH2 0x14BA PUSH1 0x1B PUSH1 0x5 DUP5 PUSH1 0xFF AND SWAP1 SHL OR DUP5 PUSH1 0x0 ADD MLOAD PUSH2 0x1505 SWAP1 SWAP2 SWAP1 PUSH4 0xFFFFFFFF AND JUMP JUMPDEST POP PUSH2 0x14DF DUP2 PUSH8 0xFFFFFFFFFFFFFFFF AND PUSH1 0x8 DUP6 PUSH1 0x0 ADD MLOAD PUSH2 0x1595 SWAP1 SWAP3 SWAP2 SWAP1 PUSH4 0xFFFFFFFF AND JUMP JUMPDEST POP JUMPDEST JUMPDEST JUMPDEST JUMPDEST POP POP POP JUMP JUMPDEST PUSH2 0x14F1 PUSH2 0x17BB JUMP JUMPDEST PUSH2 0x14FD DUP4 DUP4 DUP5 MLOAD PUSH2 0x1622 JUMP JUMPDEST SWAP1 POP SWAP3 SWAP2 POP POP JUMP JUMPDEST PUSH2 0x150D PUSH2 0x17BB JUMP JUMPDEST PUSH1 0x0 DUP4 PUSH1 0x0 ADD MLOAD MLOAD SWAP1 POP PUSH1 0x0 PUSH1 0x1 DUP3 PUSH2 0x1526 SWAP2 SWAP1 PUSH2 0x268F JUMP JUMPDEST SWAP1 POP DUP5 PUSH1 0x20 ADD MLOAD DUP3 LT PUSH2 0x154A JUMPI PUSH2 0x1549 DUP6 PUSH1 0x2 DUP4 PUSH2 0x1544 SWAP2 SWAP1 PUSH2 0x2757 JUMP JUMPDEST PUSH2 0x1705 JUMP JUMPDEST JUMPDEST DUP5 MLOAD PUSH1 0x20 DUP4 DUP3 ADD ADD DUP6 DUP2 MSTORE8 DUP2 MLOAD DUP4 GT ISZERO PUSH2 0x1562 JUMPI DUP3 DUP3 MSTORE JUMPDEST POP POP DUP5 SWAP3 POP POP POP SWAP3 SWAP2 POP POP JUMP JUMPDEST PUSH2 0x1590 PUSH1 0x1F PUSH1 0x5 DUP4 PUSH1 0xFF AND SWAP1 SHL OR DUP4 PUSH1 0x0 ADD MLOAD PUSH2 0x1505 SWAP1 SWAP2 SWAP1 PUSH4 0xFFFFFFFF AND JUMP JUMPDEST POP POP POP JUMP JUMPDEST PUSH2 0x159D PUSH2 0x17BB JUMP JUMPDEST PUSH1 0x0 DUP5 PUSH1 0x0 ADD MLOAD MLOAD SWAP1 POP PUSH1 0x0 DUP2 DUP5 PUSH2 0x15B5 SWAP2 SWAP1 PUSH2 0x268F JUMP JUMPDEST SWAP1 POP DUP6 PUSH1 0x20 ADD MLOAD DUP2 GT ISZERO PUSH2 0x15DA JUMPI PUSH2 0x15D9 DUP7 PUSH1 0x2 DUP4 PUSH2 0x15D4 SWAP2 SWAP1 PUSH2 0x2757 JUMP JUMPDEST PUSH2 0x1705 JUMP JUMPDEST JUMPDEST PUSH1 0x0 PUSH1 0x1 DUP6 PUSH2 0x100 PUSH2 0x15EC SWAP2 SWAP1 PUSH2 0x28CC JUMP JUMPDEST PUSH2 0x15F6 SWAP2 SWAP1 PUSH2 0x26C3 JUMP JUMPDEST SWAP1 POP DUP7 MLOAD DUP3 DUP2 ADD DUP8 DUP4 NOT DUP3 MLOAD AND OR DUP2 MSTORE DUP2 MLOAD DUP5 GT ISZERO PUSH2 0x1613 JUMPI DUP4 DUP3 MSTORE JUMPDEST POP POP DUP7 SWAP4 POP POP POP POP SWAP4 SWAP3 POP POP POP JUMP JUMPDEST PUSH2 0x162A PUSH2 0x17BB JUMP JUMPDEST DUP3 MLOAD DUP3 GT ISZERO PUSH2 0x1638 JUMPI PUSH1 0x0 DUP1 REVERT JUMPDEST PUSH1 0x0 DUP5 PUSH1 0x0 ADD MLOAD MLOAD SWAP1 POP PUSH1 0x0 DUP4 DUP3 PUSH2 0x1650 SWAP2 SWAP1 PUSH2 0x268F JUMP JUMPDEST SWAP1 POP DUP6 PUSH1 0x20 ADD MLOAD DUP2 GT ISZERO PUSH2 0x1675 JUMPI PUSH2 0x1674 DUP7 PUSH1 0x2 DUP4 PUSH2 0x166F SWAP2 SWAP1 PUSH2 0x2757 JUMP JUMPDEST PUSH2 0x1705 JUMP JUMPDEST JUMPDEST PUSH1 0x0 DUP1 DUP8 MLOAD DUP1 MLOAD DUP6 PUSH1 0x20 DUP4 ADD ADD SWAP4 POP DUP1 DUP6 GT ISZERO PUSH2 0x1690 JUMPI DUP5 DUP3 MSTORE JUMPDEST PUSH1 0x20 DUP10 ADD SWAP3 POP POP POP JUMPDEST PUSH1 0x20 DUP7 LT PUSH2 0x16D7 JUMPI DUP1 MLOAD DUP3 MSTORE PUSH1 0x20 DUP3 PUSH2 0x16B2 SWAP2 SWAP1 PUSH2 0x268F JUMP JUMPDEST SWAP2 POP PUSH1 0x20 DUP2 PUSH2 0x16C1 SWAP2 SWAP1 PUSH2 0x268F JUMP JUMPDEST SWAP1 POP PUSH1 0x20 DUP7 PUSH2 0x16D0 SWAP2 SWAP1 PUSH2 0x26C3 JUMP JUMPDEST SWAP6 POP PUSH2 0x1699 JUMP JUMPDEST PUSH1 0x0 PUSH1 0x1 DUP8 PUSH1 0x20 SUB PUSH2 0x100 EXP SUB SWAP1 POP DUP1 NOT DUP3 MLOAD AND DUP2 DUP5 MLOAD AND DUP2 DUP2 OR DUP6 MSTORE POP POP POP DUP8 SWAP5 POP POP POP POP POP SWAP4 SWAP3 POP POP POP JUMP JUMPDEST PUSH1 0x0 DUP3 PUSH1 0x0 ADD MLOAD SWAP1 POP PUSH2 0x1718 DUP4 DUP4 PUSH2 0x12C7 JUMP JUMPDEST POP PUSH2 0x1723 DUP4 DUP3 PUSH2 0x14E9 JUMP JUMPDEST POP POP POP POP JUMP JUMPDEST PUSH1 0x40 MLOAD DUP1 PUSH1 0xE0 ADD PUSH1 0x40 MSTORE DUP1 PUSH1 0x0 PUSH1 0x2 DUP2 GT ISZERO PUSH2 0x1748 JUMPI PUSH2 0x1747 PUSH2 0x217D JUMP JUMPDEST JUMPDEST DUP2 MSTORE PUSH1 0x20 ADD PUSH1 0x0 PUSH1 0x2 DUP2 GT ISZERO PUSH2 0x1761 JUMPI PUSH2 0x1760 PUSH2 0x217D JUMP JUMPDEST JUMPDEST DUP2 MSTORE PUSH1 0x20 ADD PUSH1 0x0 DUP1 DUP2 GT ISZERO PUSH2 0x1779 JUMPI PUSH2 0x1778 PUSH2 0x217D JUMP JUMPDEST JUMPDEST DUP2 MSTORE PUSH1 0x20 ADD PUSH1 0x60 DUP2 MSTORE PUSH1 0x20 ADD PUSH1 0x60 DUP2 MSTORE PUSH1 0x20 ADD PUSH1 0x60 DUP2 MSTORE PUSH1 0x20 ADD PUSH1 0x60 DUP2 MSTORE POP SWAP1 JUMP JUMPDEST PUSH1 0x40 MLOAD DUP1 PUSH1 0x40 ADD PUSH1 0x40 MSTORE DUP1 PUSH2 0x17AE PUSH2 0x17BB JUMP JUMPDEST DUP2 MSTORE PUSH1 0x20 ADD PUSH1 0x0 DUP2 MSTORE POP SWAP1 JUMP JUMPDEST PUSH1 0x40 MLOAD DUP1 PUSH1 0x40 ADD PUSH1 0x40 MSTORE DUP1 PUSH1 0x60 DUP2 MSTORE PUSH1 0x20 ADD PUSH1 0x0 DUP2 MSTORE POP SWAP1 JUMP JUMPDEST PUSH1 0x0 PUSH1 0x40 MLOAD SWAP1 POP SWAP1 JUMP JUMPDEST PUSH1 0x0 DUP1 REVERT JUMPDEST PUSH1 0x0 DUP1 REVERT JUMPDEST PUSH1 0x0 PUSH20 0xFFFFFFFFFFFFFFFFFFFFFFFFFFFFFFFFFFFFFFFF DUP3 AND SWAP1 POP SWAP2 SWAP1 POP JUMP JUMPDEST PUSH1 0x0 PUSH2 0x1814 DUP3 PUSH2 0x17E9 JUMP JUMPDEST SWAP1 POP SWAP2 SWAP1 POP JUMP JUMPDEST PUSH2 0x1824 DUP2 PUSH2 0x1809 JUMP JUMPDEST DUP2 EQ PUSH2 0x182F JUMPI PUSH1 0x0 DUP1 REVERT JUMPDEST POP JUMP JUMPDEST PUSH1 0x0 DUP2 CALLDATALOAD SWAP1 POP PUSH2 0x1841 DUP2 PUSH2 0x181B JUMP JUMPDEST SWAP3 SWAP2 POP POP JUMP JUMPDEST PUSH1 0x0 PUSH1 0x20 DUP3 DUP5 SUB SLT ISZERO PUSH2 0x185D JUMPI PUSH2 0x185C PUSH2 0x17DF JUMP JUMPDEST JUMPDEST PUSH1 0x0 PUSH2 0x186B DUP5 DUP3 DUP6 ADD PUSH2 0x1832 JUMP JUMPDEST SWAP2 POP POP SWAP3 SWAP2 POP POP JUMP JUMPDEST PUSH1 0x0 DUP2 SWAP1 POP SWAP2 SWAP1 POP JUMP JUMPDEST PUSH2 0x1887 DUP2 PUSH2 0x1874 JUMP JUMPDEST DUP3 MSTORE POP POP JUMP JUMPDEST PUSH1 0x0 DUP2 ISZERO ISZERO SWAP1 POP SWAP2 SWAP1 POP JUMP JUMPDEST PUSH2 0x18A2 DUP2 PUSH2 0x188D JUMP JUMPDEST DUP3 MSTORE POP POP JUMP JUMPDEST PUSH1 0x0 PUSH1 0xC0 DUP3 ADD SWAP1 POP PUSH2 0x18BD PUSH1 0x0 DUP4 ADD DUP10 PUSH2 0x187E JUMP JUMPDEST PUSH2 0x18CA PUSH1 0x20 DUP4 ADD DUP9 PUSH2 0x187E JUMP JUMPDEST PUSH2 0x18D7 PUSH1 0x40 DUP4 ADD DUP8 PUSH2 0x187E JUMP JUMPDEST PUSH2 0x18E4 PUSH1 0x60 DUP4 ADD DUP7 PUSH2 0x187E JUMP JUMPDEST PUSH2 0x18F1 PUSH1 0x80 DUP4 ADD DUP6 PUSH2 0x1899 JUMP JUMPDEST PUSH2 0x18FE PUSH1 0xA0 DUP4 ADD DUP5 PUSH2 0x187E JUMP JUMPDEST SWAP8 SWAP7 POP POP POP POP POP POP POP JUMP JUMPDEST PUSH1 0x0 DUP1 REVERT JUMPDEST PUSH1 0x0 DUP1 REVERT JUMPDEST PUSH1 0x0 PUSH1 0x1F NOT PUSH1 0x1F DUP4 ADD AND SWAP1 POP SWAP2 SWAP1 POP JUMP JUMPDEST PUSH32 0x4E487B7100000000000000000000000000000000000000000000000000000000 PUSH1 0x0 MSTORE PUSH1 0x41 PUSH1 0x4 MSTORE PUSH1 0x24 PUSH1 0x0 REVERT JUMPDEST PUSH2 0x195C DUP3 PUSH2 0x1913 JUMP JUMPDEST DUP2 ADD DUP2 DUP2 LT PUSH8 0xFFFFFFFFFFFFFFFF DUP3 GT OR ISZERO PUSH2 0x197B JUMPI PUSH2 0x197A PUSH2 0x1924 JUMP JUMPDEST JUMPDEST DUP1 PUSH1 0x40 MSTORE POP POP POP JUMP JUMPDEST PUSH1 0x0 PUSH2 0x198E PUSH2 0x17D5 JUMP JUMPDEST SWAP1 POP PUSH2 0x199A DUP3 DUP3 PUSH2 0x1953 JUMP JUMPDEST SWAP2 SWAP1 POP JUMP JUMPDEST PUSH1 0x0 PUSH8 0xFFFFFFFFFFFFFFFF DUP3 GT ISZERO PUSH2 0x19BA JUMPI PUSH2 0x19B9 PUSH2 0x1924 JUMP JUMPDEST JUMPDEST PUSH2 0x19C3 DUP3 PUSH2 0x1913 JUMP JUMPDEST SWAP1 POP PUSH1 0x20 DUP2 ADD SWAP1 POP SWAP2 SWAP1 POP JUMP JUMPDEST DUP3 DUP2 DUP4 CALLDATACOPY PUSH1 0x0 DUP4 DUP4 ADD MSTORE POP POP POP JUMP JUMPDEST PUSH1 0x0 PUSH2 0x19F2 PUSH2 0x19ED DUP5 PUSH2 0x199F JUMP JUMPDEST PUSH2 0x1984 JUMP JUMPDEST SWAP1 POP DUP3 DUP2 MSTORE PUSH1 0x20 DUP2 ADD DUP5 DUP5 DUP5 ADD GT ISZERO PUSH2 0x1A0E JUMPI PUSH2 0x1A0D PUSH2 0x190E JUMP JUMPDEST JUMPDEST PUSH2 0x1A19 DUP5 DUP3 DUP6 PUSH2 0x19D0 JUMP JUMPDEST POP SWAP4 SWAP3 POP POP POP JUMP JUMPDEST PUSH1 0x0 DUP3 PUSH1 0x1F DUP4 ADD SLT PUSH2 0x1A36 JUMPI PUSH2 0x1A35 PUSH2 0x1909 JUMP JUMPDEST JUMPDEST DUP2 CALLDATALOAD PUSH2 0x1A46 DUP5 DUP3 PUSH1 0x20 DUP7 ADD PUSH2 0x19DF JUMP JUMPDEST SWAP2 POP POP SWAP3 SWAP2 POP POP JUMP JUMPDEST PUSH1 0x0 PUSH1 0x20 DUP3 DUP5 SUB SLT ISZERO PUSH2 0x1A65 JUMPI PUSH2 0x1A64 PUSH2 0x17DF JUMP JUMPDEST JUMPDEST PUSH1 0x0 DUP3 ADD CALLDATALOAD PUSH8 0xFFFFFFFFFFFFFFFF DUP2 GT ISZERO PUSH2 0x1A83 JUMPI PUSH2 0x1A82 PUSH2 0x17E4 JUMP JUMPDEST JUMPDEST PUSH2 0x1A8F DUP5 DUP3 DUP6 ADD PUSH2 0x1A21 JUMP JUMPDEST SWAP2 POP POP SWAP3 SWAP2 POP POP JUMP JUMPDEST PUSH1 0x0 DUP2 SWAP1 POP SWAP2 SWAP1 POP JUMP JUMPDEST PUSH2 0x1AAB DUP2 PUSH2 0x1A98 JUMP JUMPDEST DUP3 MSTORE POP POP JUMP JUMPDEST PUSH1 0x0 PUSH1 0x20 DUP3 ADD SWAP1 POP PUSH2 0x1AC6 PUSH1 0x0 DUP4 ADD DUP5 PUSH2 0x1AA2 JUMP JUMPDEST SWAP3 SWAP2 POP POP JUMP JUMPDEST PUSH1 0x0 PUSH8 0xFFFFFFFFFFFFFFFF DUP3 AND SWAP1 POP SWAP2 SWAP1 POP JUMP JUMPDEST PUSH2 0x1AE9 DUP2 PUSH2 0x1ACC JUMP JUMPDEST DUP3 MSTORE POP POP JUMP JUMPDEST PUSH1 0x0 PUSH1 0x20 DUP3 ADD SWAP1 POP PUSH2 0x1B04 PUSH1 0x0 DUP4 ADD DUP5 PUSH2 0x1AE0 JUMP JUMPDEST SWAP3 SWAP2 POP POP JUMP JUMPDEST PUSH2 0x1B13 DUP2 PUSH2 0x1A98 JUMP JUMPDEST DUP2 EQ PUSH2 0x1B1E JUMPI PUSH1 0x0 DUP1 REVERT JUMPDEST POP JUMP JUMPDEST PUSH1 0x0 DUP2 CALLDATALOAD SWAP1 POP PUSH2 0x1B30 DUP2 PUSH2 0x1B0A JUMP JUMPDEST SWAP3 SWAP2 POP POP JUMP JUMPDEST PUSH1 0x0 PUSH8 0xFFFFFFFFFFFFFFFF DUP3 GT ISZERO PUSH2 0x1B51 JUMPI PUSH2 0x1B50 PUSH2 0x1924 JUMP JUMPDEST JUMPDEST PUSH2 0x1B5A DUP3 PUSH2 0x1913 JUMP JUMPDEST SWAP1 POP PUSH1 0x20 DUP2 ADD SWAP1 POP SWAP2 SWAP1 POP JUMP JUMPDEST PUSH1 0x0 PUSH2 0x1B7A PUSH2 0x1B75 DUP5 PUSH2 0x1B36 JUMP JUMPDEST PUSH2 0x1984 JUMP JUMPDEST SWAP1 POP DUP3 DUP2 MSTORE PUSH1 0x20 DUP2 ADD DUP5 DUP5 DUP5 ADD GT ISZERO PUSH2 0x1B96 JUMPI PUSH2 0x1B95 PUSH2 0x190E JUMP JUMPDEST JUMPDEST PUSH2 0x1BA1 DUP5 DUP3 DUP6 PUSH2 0x19D0 JUMP JUMPDEST POP SWAP4 SWAP3 POP POP POP JUMP JUMPDEST PUSH1 0x0 DUP3 PUSH1 0x1F DUP4 ADD SLT PUSH2 0x1BBE JUMPI PUSH2 0x1BBD PUSH2 0x1909 JUMP JUMPDEST JUMPDEST DUP2 CALLDATALOAD PUSH2 0x1BCE DUP5 DUP3 PUSH1 0x20 DUP7 ADD PUSH2 0x1B67 JUMP JUMPDEST SWAP2 POP POP SWAP3 SWAP2 POP POP JUMP JUMPDEST PUSH1 0x0 DUP1 PUSH1 0x0 PUSH1 0x60 DUP5 DUP7 SUB SLT ISZERO PUSH2 0x1BF0 JUMPI PUSH2 0x1BEF PUSH2 0x17DF JUMP JUMPDEST JUMPDEST PUSH1 0x0 PUSH2 0x1BFE DUP7 DUP3 DUP8 ADD PUSH2 0x1B21 JUMP JUMPDEST SWAP4 POP POP PUSH1 0x20 DUP5 ADD CALLDATALOAD PUSH8 0xFFFFFFFFFFFFFFFF DUP2 GT ISZERO PUSH2 0x1C1F JUMPI PUSH2 0x1C1E PUSH2 0x17E4 JUMP JUMPDEST JUMPDEST PUSH2 0x1C2B DUP7 DUP3 DUP8 ADD PUSH2 0x1BA9 JUMP JUMPDEST SWAP3 POP POP PUSH1 0x40 DUP5 ADD CALLDATALOAD PUSH8 0xFFFFFFFFFFFFFFFF DUP2 GT ISZERO PUSH2 0x1C4C JUMPI PUSH2 0x1C4B PUSH2 0x17E4 JUMP JUMPDEST JUMPDEST PUSH2 0x1C58 DUP7 DUP3 DUP8 ADD PUSH2 0x1BA9 JUMP JUMPDEST SWAP2 POP POP SWAP3 POP SWAP3 POP SWAP3 JUMP JUMPDEST PUSH1 0x0 DUP2 MLOAD SWAP1 POP SWAP2 SWAP1 POP JUMP JUMPDEST PUSH1 0x0 DUP3 DUP3 MSTORE PUSH1 0x20 DUP3 ADD SWAP1 POP SWAP3 SWAP2 POP POP JUMP JUMPDEST PUSH1 0x0 JUMPDEST DUP4 DUP2 LT ISZERO PUSH2 0x1C9C JUMPI DUP1 DUP3 ADD MLOAD DUP2 DUP5 ADD MSTORE PUSH1 0x20 DUP2 ADD SWAP1 POP PUSH2 0x1C81 JUMP JUMPDEST PUSH1 0x0 DUP5 DUP5 ADD MSTORE POP POP POP POP JUMP JUMPDEST PUSH1 0x0 PUSH2 0x1CB3 DUP3 PUSH2 0x1C62 JUMP JUMPDEST PUSH2 0x1CBD DUP2 DUP6 PUSH2 0x1C6D JUMP JUMPDEST SWAP4 POP PUSH2 0x1CCD DUP2 DUP6 PUSH1 0x20 DUP7 ADD PUSH2 0x1C7E JUMP JUMPDEST PUSH2 0x1CD6 DUP2 PUSH2 0x1913 JUMP JUMPDEST DUP5 ADD SWAP2 POP POP SWAP3 SWAP2 POP POP JUMP JUMPDEST PUSH1 0x0 PUSH1 0x20 DUP3 ADD SWAP1 POP DUP2 DUP2 SUB PUSH1 0x0 DUP4 ADD MSTORE PUSH2 0x1CFB DUP2 DUP5 PUSH2 0x1CA8 JUMP JUMPDEST SWAP1 POP SWAP3 SWAP2 POP POP JUMP JUMPDEST PUSH1 0x0 DUP2 MLOAD SWAP1 POP SWAP2 SWAP1 POP JUMP JUMPDEST PUSH1 0x0 DUP3 DUP3 MSTORE PUSH1 0x20 DUP3 ADD SWAP1 POP SWAP3 SWAP2 POP POP JUMP JUMPDEST PUSH1 0x0 PUSH2 0x1D2A DUP3 PUSH2 0x1D03 JUMP JUMPDEST PUSH2 0x1D34 DUP2 DUP6 PUSH2 0x1D0E JUMP JUMPDEST SWAP4 POP PUSH2 0x1D44 DUP2 DUP6 PUSH1 0x20 DUP7 ADD PUSH2 0x1C7E JUMP JUMPDEST PUSH2 0x1D4D DUP2 PUSH2 0x1913 JUMP JUMPDEST DUP5 ADD SWAP2 POP POP SWAP3 SWAP2 POP POP JUMP JUMPDEST PUSH1 0x0 PUSH1 0x20 DUP3 ADD SWAP1 POP DUP2 DUP2 SUB PUSH1 0x0 DUP4 ADD MSTORE PUSH2 0x1D72 DUP2 DUP5 PUSH2 0x1D1F JUMP JUMPDEST SWAP1 POP SWAP3 SWAP2 POP POP JUMP JUMPDEST PUSH2 0x1D83 DUP2 PUSH2 0x1874 JUMP JUMPDEST DUP2 EQ PUSH2 0x1D8E JUMPI PUSH1 0x0 DUP1 REVERT JUMPDEST POP JUMP JUMPDEST PUSH1 0x0 DUP2 CALLDATALOAD SWAP1 POP PUSH2 0x1DA0 DUP2 PUSH2 0x1D7A JUMP JUMPDEST SWAP3 SWAP2 POP POP JUMP JUMPDEST PUSH1 0x0 PUSH1 0x20 DUP3 DUP5 SUB SLT ISZERO PUSH2 0x1DBC JUMPI PUSH2 0x1DBB PUSH2 0x17DF JUMP JUMPDEST JUMPDEST PUSH1 0x0 PUSH2 0x1DCA DUP5 DUP3 DUP6 ADD PUSH2 0x1D91 JUMP JUMPDEST SWAP2 POP POP SWAP3 SWAP2 POP POP JUMP JUMPDEST PUSH1 0x0 PUSH1 0x20 DUP3 DUP5 SUB SLT ISZERO PUSH2 0x1DE9 JUMPI PUSH2 0x1DE8 PUSH2 0x17DF JUMP JUMPDEST JUMPDEST PUSH1 0x0 PUSH2 0x1DF7 DUP5 DUP3 DUP6 ADD PUSH2 0x1B21 JUMP JUMPDEST SWAP2 POP POP SWAP3 SWAP2 POP POP JUMP JUMPDEST PUSH2 0x1E09 DUP2 PUSH2 0x1809 JUMP JUMPDEST DUP3 MSTORE POP POP JUMP JUMPDEST PUSH1 0x0 PUSH1 0xA0 DUP3 ADD SWAP1 POP PUSH2 0x1E24 PUSH1 0x0 DUP4 ADD DUP9 PUSH2 0x1E00 JUMP JUMPDEST PUSH2 0x1E31 PUSH1 0x20 DUP4 ADD DUP8 PUSH2 0x1899 JUMP JUMPDEST PUSH2 0x1E3E PUSH1 0x40 DUP4 ADD DUP7 PUSH2 0x1899 JUMP JUMPDEST DUP2 DUP2 SUB PUSH1 0x60 DUP4 ADD MSTORE PUSH2 0x1E50 DUP2 DUP6 PUSH2 0x1CA8 JUMP JUMPDEST SWAP1 POP DUP2 DUP2 SUB PUSH1 0x80 DUP4 ADD MSTORE PUSH2 0x1E64 DUP2 DUP5 PUSH2 0x1CA8 JUMP JUMPDEST SWAP1 POP SWAP7 SWAP6 POP POP POP POP POP POP JUMP JUMPDEST PUSH32 0x4E487B7100000000000000000000000000000000000000000000000000000000 PUSH1 0x0 MSTORE PUSH1 0x32 PUSH1 0x4 MSTORE PUSH1 0x24 PUSH1 0x0 REVERT JUMPDEST PUSH32 0x4E487B7100000000000000000000000000000000000000000000000000000000 PUSH1 0x0 MSTORE PUSH1 0x22 PUSH1 0x4 MSTORE PUSH1 0x24 PUSH1 0x0 REVERT JUMPDEST PUSH1 0x0 PUSH1 0x2 DUP3 DIV SWAP1 POP PUSH1 0x1 DUP3 AND DUP1 PUSH2 0x1EE6 JUMPI PUSH1 0x7F DUP3 AND SWAP2 POP JUMPDEST PUSH1 0x20 DUP3 LT DUP2 SUB PUSH2 0x1EF9 JUMPI PUSH2 0x1EF8 PUSH2 0x1E9F JUMP JUMPDEST JUMPDEST POP SWAP2 SWAP1 POP JUMP JUMPDEST PUSH1 0x0 DUP2 SWAP1 POP DUP2 PUSH1 0x0 MSTORE PUSH1 0x20 PUSH1 0x0 KECCAK256 SWAP1 POP SWAP2 SWAP1 POP JUMP JUMPDEST PUSH1 0x0 PUSH1 0x20 PUSH1 0x1F DUP4 ADD DIV SWAP1 POP SWAP2 SWAP1 POP JUMP JUMPDEST PUSH1 0x0 DUP3 DUP3 SHL SWAP1 POP SWAP3 SWAP2 POP POP JUMP JUMPDEST PUSH1 0x0 PUSH1 0x8 DUP4 MUL PUSH2 0x1F61 PUSH32 0xFFFFFFFFFFFFFFFFFFFFFFFFFFFFFFFFFFFFFFFFFFFFFFFFFFFFFFFFFFFFFFFF DUP3 PUSH2 0x1F24 JUMP JUMPDEST PUSH2 0x1F6B DUP7 DUP4 PUSH2 0x1F24 JUMP JUMPDEST SWAP6 POP DUP1 NOT DUP5 AND SWAP4 POP DUP1 DUP7 AND DUP5 OR SWAP3 POP POP POP SWAP4 SWAP3 POP POP POP JUMP JUMPDEST PUSH1 0x0 DUP2 SWAP1 POP SWAP2 SWAP1 POP JUMP JUMPDEST PUSH1 0x0 PUSH2 0x1FA8 PUSH2 0x1FA3 PUSH2 0x1F9E DUP5 PUSH2 0x1874 JUMP JUMPDEST PUSH2 0x1F83 JUMP JUMPDEST PUSH2 0x1874 JUMP JUMPDEST SWAP1 POP SWAP2 SWAP1 POP JUMP JUMPDEST PUSH1 0x0 DUP2 SWAP1 POP SWAP2 SWAP1 POP JUMP JUMPDEST PUSH2 0x1FC2 DUP4 PUSH2 0x1F8D JUMP JUMPDEST PUSH2 0x1FD6 PUSH2 0x1FCE DUP3 PUSH2 0x1FAF JUMP JUMPDEST DUP5 DUP5 SLOAD PUSH2 0x1F31 JUMP JUMPDEST DUP3 SSTORE POP POP POP POP JUMP JUMPDEST PUSH1 0x0 SWAP1 JUMP JUMPDEST PUSH2 0x1FEB PUSH2 0x1FDE JUMP JUMPDEST PUSH2 0x1FF6 DUP2 DUP5 DUP5 PUSH2 0x1FB9 JUMP JUMPDEST POP POP POP JUMP JUMPDEST JUMPDEST DUP2 DUP2 LT ISZERO PUSH2 0x201A JUMPI PUSH2 0x200F PUSH1 0x0 DUP3 PUSH2 0x1FE3 JUMP JUMPDEST PUSH1 0x1 DUP2 ADD SWAP1 POP PUSH2 0x1FFC JUMP JUMPDEST POP POP JUMP JUMPDEST PUSH1 0x1F DUP3 GT ISZERO PUSH2 0x205F JUMPI PUSH2 0x2030 DUP2 PUSH2 0x1EFF JUMP JUMPDEST PUSH2 0x2039 DUP5 PUSH2 0x1F14 JUMP JUMPDEST DUP2 ADD PUSH1 0x20 DUP6 LT ISZERO PUSH2 0x2048 JUMPI DUP2 SWAP1 POP JUMPDEST PUSH2 0x205C PUSH2 0x2054 DUP6 PUSH2 0x1F14 JUMP JUMPDEST DUP4 ADD DUP3 PUSH2 0x1FFB JUMP JUMPDEST POP POP JUMPDEST POP POP POP JUMP JUMPDEST PUSH1 0x0 DUP3 DUP3 SHR SWAP1 POP SWAP3 SWAP2 POP POP JUMP JUMPDEST PUSH1 0x0 PUSH2 0x2082 PUSH1 0x0 NOT DUP5 PUSH1 0x8 MUL PUSH2 0x2064 JUMP JUMPDEST NOT DUP1 DUP4 AND SWAP2 POP POP SWAP3 SWAP2 POP POP JUMP JUMPDEST PUSH1 0x0 PUSH2 0x209B DUP4 DUP4 PUSH2 0x2071 JUMP JUMPDEST SWAP2 POP DUP3 PUSH1 0x2 MUL DUP3 OR SWAP1 POP SWAP3 SWAP2 POP POP JUMP JUMPDEST PUSH2 0x20B4 DUP3 PUSH2 0x1C62 JUMP JUMPDEST PUSH8 0xFFFFFFFFFFFFFFFF DUP2 GT ISZERO PUSH2 0x20CD JUMPI PUSH2 0x20CC PUSH2 0x1924 JUMP JUMPDEST JUMPDEST PUSH2 0x20D7 DUP3 SLOAD PUSH2 0x1ECE JUMP JUMPDEST PUSH2 0x20E2 DUP3 DUP3 DUP6 PUSH2 0x201E JUMP JUMPDEST PUSH1 0x0 PUSH1 0x20 SWAP1 POP PUSH1 0x1F DUP4 GT PUSH1 0x1 DUP2 EQ PUSH2 0x2115 JUMPI PUSH1 0x0 DUP5 ISZERO PUSH2 0x2103 JUMPI DUP3 DUP8 ADD MLOAD SWAP1 POP JUMPDEST PUSH2 0x210D DUP6 DUP3 PUSH2 0x208F JUMP JUMPDEST DUP7 SSTORE POP PUSH2 0x2175 JUMP JUMPDEST PUSH1 0x1F NOT DUP5 AND PUSH2 0x2123 DUP7 PUSH2 0x1EFF JUMP JUMPDEST PUSH1 0x0 JUMPDEST DUP3 DUP2 LT ISZERO PUSH2 0x214B JUMPI DUP5 DUP10 ADD MLOAD DUP3 SSTORE PUSH1 0x1 DUP3 ADD SWAP2 POP PUSH1 0x20 DUP6 ADD SWAP5 POP PUSH1 0x20 DUP2 ADD SWAP1 POP PUSH2 0x2126 JUMP JUMPDEST DUP7 DUP4 LT ISZERO PUSH2 0x2168 JUMPI DUP5 DUP10 ADD MLOAD PUSH2 0x2164 PUSH1 0x1F DUP10 AND DUP3 PUSH2 0x2071 JUMP JUMPDEST DUP4 SSTORE POP JUMPDEST PUSH1 0x1 PUSH1 0x2 DUP9 MUL ADD DUP9 SSTORE POP POP POP JUMPDEST POP POP POP POP POP POP JUMP JUMPDEST PUSH32 0x4E487B7100000000000000000000000000000000000000000000000000000000 PUSH1 0x0 MSTORE PUSH1 0x21 PUSH1 0x4 MSTORE PUSH1 0x24 PUSH1 0x0 REVERT JUMPDEST PUSH32 0x4E487B7100000000000000000000000000000000000000000000000000000000 PUSH1 0x0 MSTORE PUSH1 0x11 PUSH1 0x4 MSTORE PUSH1 0x24 PUSH1 0x0 REVERT JUMPDEST PUSH1 0x0 PUSH2 0x21E6 DUP3 PUSH2 0x1874 JUMP JUMPDEST SWAP2 POP PUSH32 0xFFFFFFFFFFFFFFFFFFFFFFFFFFFFFFFFFFFFFFFFFFFFFFFFFFFFFFFFFFFFFFFF DUP3 SUB PUSH2 0x2218 JUMPI PUSH2 0x2217 PUSH2 0x21AC JUMP JUMPDEST JUMPDEST PUSH1 0x1 DUP3 ADD SWAP1 POP SWAP2 SWAP1 POP JUMP JUMPDEST PUSH1 0x0 PUSH2 0xFFFF DUP3 AND SWAP1 POP SWAP2 SWAP1 POP JUMP JUMPDEST PUSH2 0x223A DUP2 PUSH2 0x2223 JUMP JUMPDEST DUP3 MSTORE POP POP JUMP JUMPDEST PUSH1 0x0 PUSH4 0xFFFFFFFF DUP3 AND SWAP1 POP SWAP2 SWAP1 POP JUMP JUMPDEST PUSH2 0x2259 DUP2 PUSH2 0x2240 JUMP JUMPDEST DUP3 MSTORE POP POP JUMP JUMPDEST PUSH1 0x0 PUSH1 0xA0 DUP3 ADD SWAP1 POP PUSH2 0x2274 PUSH1 0x0 DUP4 ADD DUP9 PUSH2 0x1AE0 JUMP JUMPDEST DUP2 DUP2 SUB PUSH1 0x20 DUP4 ADD MSTORE PUSH2 0x2286 DUP2 DUP8 PUSH2 0x1CA8 JUMP JUMPDEST SWAP1 POP PUSH2 0x2295 PUSH1 0x40 DUP4 ADD DUP7 PUSH2 0x2231 JUMP JUMPDEST PUSH2 0x22A2 PUSH1 0x60 DUP4 ADD DUP6 PUSH2 0x2250 JUMP JUMPDEST PUSH2 0x22AF PUSH1 0x80 DUP4 ADD DUP5 PUSH2 0x1AA2 JUMP JUMPDEST SWAP7 SWAP6 POP POP POP POP POP POP JUMP JUMPDEST PUSH1 0x0 DUP2 MLOAD SWAP1 POP PUSH2 0x22C8 DUP2 PUSH2 0x1B0A JUMP JUMPDEST SWAP3 SWAP2 POP POP JUMP JUMPDEST PUSH1 0x0 PUSH1 0x20 DUP3 DUP5 SUB SLT ISZERO PUSH2 0x22E4 JUMPI PUSH2 0x22E3 PUSH2 0x17DF JUMP JUMPDEST JUMPDEST PUSH1 0x0 PUSH2 0x22F2 DUP5 DUP3 DUP6 ADD PUSH2 0x22B9 JUMP JUMPDEST SWAP2 POP POP SWAP3 SWAP2 POP POP JUMP JUMPDEST PUSH32 0x72657175657374206E6F7420666F756E64000000000000000000000000000000 PUSH1 0x0 DUP3 ADD MSTORE POP JUMP JUMPDEST PUSH1 0x0 PUSH2 0x2331 PUSH1 0x11 DUP4 PUSH2 0x1D0E JUMP JUMPDEST SWAP2 POP PUSH2 0x233C DUP3 PUSH2 0x22FB JUMP JUMPDEST PUSH1 0x20 DUP3 ADD SWAP1 POP SWAP2 SWAP1 POP JUMP JUMPDEST PUSH1 0x0 PUSH1 0x20 DUP3 ADD SWAP1 POP DUP2 DUP2 SUB PUSH1 0x0 DUP4 ADD MSTORE PUSH2 0x2360 DUP2 PUSH2 0x2324 JUMP JUMPDEST SWAP1 POP SWAP2 SWAP1 POP JUMP JUMPDEST PUSH1 0x0 DUP2 SWAP1 POP PUSH1 0x20 DUP3 ADD SWAP1 POP SWAP2 SWAP1 POP JUMP JUMPDEST PUSH1 0x0 PUSH2 0x2383 DUP3 MLOAD PUSH2 0x1A98 JUMP JUMPDEST DUP1 SWAP2 POP POP SWAP2 SWAP1 POP JUMP JUMPDEST PUSH1 0x0 PUSH2 0x2397 DUP3 PUSH2 0x1C62 JUMP JUMPDEST DUP3 PUSH2 0x23A1 DUP5 PUSH2 0x2367 JUMP JUMPDEST SWAP1 POP PUSH2 0x23AC DUP2 PUSH2 0x2377 JUMP JUMPDEST SWAP3 POP PUSH1 0x20 DUP3 LT ISZERO PUSH2 0x23EC JUMPI PUSH2 0x23E7 PUSH32 0xFFFFFFFFFFFFFFFFFFFFFFFFFFFFFFFFFFFFFFFFFFFFFFFFFFFFFFFFFFFFFFFF DUP4 PUSH1 0x20 SUB PUSH1 0x8 MUL PUSH2 0x1F24 JUMP JUMPDEST DUP4 AND SWAP3 POP JUMPDEST POP POP SWAP2 SWAP1 POP JUMP JUMPDEST PUSH1 0x0 DUP2 SWAP1 POP DUP2 PUSH1 0x0 MSTORE PUSH1 0x20 PUSH1 0x0 KECCAK256 SWAP1 POP SWAP2 SWAP1 POP JUMP JUMPDEST PUSH1 0x1F DUP3 GT ISZERO PUSH2 0x2449 JUMPI PUSH2 0x241A DUP2 PUSH2 0x23F3 JUMP JUMPDEST PUSH2 0x2423 DUP5 PUSH2 0x1F14 JUMP JUMPDEST DUP2 ADD PUSH1 0x20 DUP6 LT ISZERO PUSH2 0x2432 JUMPI DUP2 SWAP1 POP JUMPDEST PUSH2 0x2446 PUSH2 0x243E DUP6 PUSH2 0x1F14 JUMP JUMPDEST DUP4 ADD DUP3 PUSH2 0x1FFB JUMP JUMPDEST POP POP JUMPDEST POP POP POP JUMP JUMPDEST PUSH2 0x2457 DUP3 PUSH2 0x1D03 JUMP JUMPDEST PUSH8 0xFFFFFFFFFFFFFFFF DUP2 GT ISZERO PUSH2 0x2470 JUMPI PUSH2 0x246F PUSH2 0x1924 JUMP JUMPDEST JUMPDEST PUSH2 0x247A DUP3 SLOAD PUSH2 0x1ECE JUMP JUMPDEST PUSH2 0x2485 DUP3 DUP3 DUP6 PUSH2 0x2408 JUMP JUMPDEST PUSH1 0x0 PUSH1 0x20 SWAP1 POP PUSH1 0x1F DUP4 GT PUSH1 0x1 DUP2 EQ PUSH2 0x24B8 JUMPI PUSH1 0x0 DUP5 ISZERO PUSH2 0x24A6 JUMPI DUP3 DUP8 ADD MLOAD SWAP1 POP JUMPDEST PUSH2 0x24B0 DUP6 DUP3 PUSH2 0x208F JUMP JUMPDEST DUP7 SSTORE POP PUSH2 0x2518 JUMP JUMPDEST PUSH1 0x1F NOT DUP5 AND PUSH2 0x24C6 DUP7 PUSH2 0x23F3 JUMP JUMPDEST PUSH1 0x0 JUMPDEST DUP3 DUP2 LT ISZERO PUSH2 0x24EE JUMPI DUP5 DUP10 ADD MLOAD DUP3 SSTORE PUSH1 0x1 DUP3 ADD SWAP2 POP PUSH1 0x20 DUP6 ADD SWAP5 POP PUSH1 0x20 DUP2 ADD SWAP1 POP PUSH2 0x24C9 JUMP JUMPDEST DUP7 DUP4 LT ISZERO PUSH2 0x250B JUMPI DUP5 DUP10 ADD MLOAD PUSH2 0x2507 PUSH1 0x1F DUP10 AND DUP3 PUSH2 0x2071 JUMP JUMPDEST DUP4 SSTORE POP JUMPDEST PUSH1 0x1 PUSH1 0x2 DUP9 MUL ADD DUP9 SSTORE POP POP POP JUMPDEST POP POP POP POP POP POP JUMP JUMPDEST PUSH1 0x0 DUP2 SLOAD PUSH2 0x252D DUP2 PUSH2 0x1ECE JUMP JUMPDEST PUSH2 0x2537 DUP2 DUP7 PUSH2 0x1D0E JUMP JUMPDEST SWAP5 POP PUSH1 0x1 DUP3 AND PUSH1 0x0 DUP2 EQ PUSH2 0x2552 JUMPI PUSH1 0x1 DUP2 EQ PUSH2 0x2568 JUMPI PUSH2 0x259B JUMP JUMPDEST PUSH1 0xFF NOT DUP4 AND DUP7 MSTORE DUP2 ISZERO ISZERO PUSH1 0x20 MUL DUP7 ADD SWAP4 POP PUSH2 0x259B JUMP JUMPDEST PUSH2 0x2571 DUP6 PUSH2 0x23F3 JUMP JUMPDEST PUSH1 0x0 JUMPDEST DUP4 DUP2 LT ISZERO PUSH2 0x2593 JUMPI DUP2 SLOAD DUP2 DUP10 ADD MSTORE PUSH1 0x1 DUP3 ADD SWAP2 POP PUSH1 0x20 DUP2 ADD SWAP1 POP PUSH2 0x2574 JUMP JUMPDEST DUP1 DUP9 ADD SWAP6 POP POP POP JUMPDEST POP POP POP SWAP3 SWAP2 POP POP JUMP JUMPDEST PUSH1 0x0 DUP2 SLOAD PUSH2 0x25B1 DUP2 PUSH2 0x1ECE JUMP JUMPDEST PUSH2 0x25BB DUP2 DUP7 PUSH2 0x1C6D JUMP JUMPDEST SWAP5 POP PUSH1 0x1 DUP3 AND PUSH1 0x0 DUP2 EQ PUSH2 0x25D6 JUMPI PUSH1 0x1 DUP2 EQ PUSH2 0x25EC JUMPI PUSH2 0x261F JUMP JUMPDEST PUSH1 0xFF NOT DUP4 AND DUP7 MSTORE DUP2 ISZERO ISZERO PUSH1 0x20 MUL DUP7 ADD SWAP4 POP PUSH2 0x261F JUMP JUMPDEST PUSH2 0x25F5 DUP6 PUSH2 0x1EFF JUMP JUMPDEST PUSH1 0x0 JUMPDEST DUP4 DUP2 LT ISZERO PUSH2 0x2617 JUMPI DUP2 SLOAD DUP2 DUP10 ADD MSTORE PUSH1 0x1 DUP3 ADD SWAP2 POP PUSH1 0x20 DUP2 ADD SWAP1 POP PUSH2 0x25F8 JUMP JUMPDEST DUP1 DUP9 ADD SWAP6 POP POP POP JUMPDEST POP POP POP SWAP3 SWAP2 POP POP JUMP JUMPDEST PUSH1 0x0 PUSH1 0x60 DUP3 ADD SWAP1 POP DUP2 DUP2 SUB PUSH1 0x0 DUP4 ADD MSTORE PUSH2 0x2642 DUP2 DUP7 PUSH2 0x2520 JUMP JUMPDEST SWAP1 POP DUP2 DUP2 SUB PUSH1 0x20 DUP4 ADD MSTORE PUSH2 0x2656 DUP2 DUP6 PUSH2 0x25A4 JUMP JUMPDEST SWAP1 POP DUP2 DUP2 SUB PUSH1 0x40 DUP4 ADD MSTORE PUSH2 0x266A DUP2 DUP5 PUSH2 0x25A4 JUMP JUMPDEST SWAP1 POP SWAP5 SWAP4 POP POP POP POP JUMP JUMPDEST PUSH1 0x0 PUSH1 0x20 DUP3 ADD SWAP1 POP PUSH2 0x2689 PUSH1 0x0 DUP4 ADD DUP5 PUSH2 0x187E JUMP JUMPDEST SWAP3 SWAP2 POP POP JUMP JUMPDEST PUSH1 0x0 PUSH2 0x269A DUP3 PUSH2 0x1874 JUMP JUMPDEST SWAP2 POP PUSH2 0x26A5 DUP4 PUSH2 0x1874 JUMP JUMPDEST SWAP3 POP DUP3 DUP3 ADD SWAP1 POP DUP1 DUP3 GT ISZERO PUSH2 0x26BD JUMPI PUSH2 0x26BC PUSH2 0x21AC JUMP JUMPDEST JUMPDEST SWAP3 SWAP2 POP POP JUMP JUMPDEST PUSH1 0x0 PUSH2 0x26CE DUP3 PUSH2 0x1874 JUMP JUMPDEST SWAP2 POP PUSH2 0x26D9 DUP4 PUSH2 0x1874 JUMP JUMPDEST SWAP3 POP DUP3 DUP3 SUB SWAP1 POP DUP2 DUP2 GT ISZERO PUSH2 0x26F1 JUMPI PUSH2 0x26F0 PUSH2 0x21AC JUMP JUMPDEST JUMPDEST SWAP3 SWAP2 POP POP JUMP JUMPDEST PUSH32 0x4E487B7100000000000000000000000000000000000000000000000000000000 PUSH1 0x0 MSTORE PUSH1 0x12 PUSH1 0x4 MSTORE PUSH1 0x24 PUSH1 0x0 REVERT JUMPDEST PUSH1 0x0 PUSH2 0x2731 DUP3 PUSH2 0x1874 JUMP JUMPDEST SWAP2 POP PUSH2 0x273C DUP4 PUSH2 0x1874 JUMP JUMPDEST SWAP3 POP DUP3 PUSH2 0x274C JUMPI PUSH2 0x274B PUSH2 0x26F7 JUMP JUMPDEST JUMPDEST DUP3 DUP3 MOD SWAP1 POP SWAP3 SWAP2 POP POP JUMP JUMPDEST PUSH1 0x0 PUSH2 0x2762 DUP3 PUSH2 0x1874 JUMP JUMPDEST SWAP2 POP PUSH2 0x276D DUP4 PUSH2 0x1874 JUMP JUMPDEST SWAP3 POP DUP3 DUP3 MUL PUSH2 0x277B DUP2 PUSH2 0x1874 JUMP JUMPDEST SWAP2 POP DUP3 DUP3 DIV DUP5 EQ DUP4 ISZERO OR PUSH2 0x2792 JUMPI PUSH2 0x2791 PUSH2 0x21AC JUMP JUMPDEST JUMPDEST POP SWAP3 SWAP2 POP POP JUMP JUMPDEST PUSH1 0x0 DUP2 PUSH1 0x1 SHR SWAP1 POP SWAP2 SWAP1 POP JUMP JUMPDEST PUSH1 0x0 DUP1 DUP3 SWAP2 POP DUP4 SWAP1 POP JUMPDEST PUSH1 0x1 DUP6 GT ISZERO PUSH2 0x27F0 JUMPI DUP1 DUP7 DIV DUP2 GT ISZERO PUSH2 0x27CC JUMPI PUSH2 0x27CB PUSH2 0x21AC JUMP JUMPDEST JUMPDEST PUSH1 0x1 DUP6 AND ISZERO PUSH2 0x27DB JUMPI DUP1 DUP3 MUL SWAP2 POP JUMPDEST DUP1 DUP2 MUL SWAP1 POP PUSH2 0x27E9 DUP6 PUSH2 0x2799 JUMP JUMPDEST SWAP5 POP PUSH2 0x27B0 JUMP JUMPDEST SWAP5 POP SWAP5 SWAP3 POP POP POP JUMP JUMPDEST PUSH1 0x0 DUP3 PUSH2 0x2809 JUMPI PUSH1 0x1 SWAP1 POP PUSH2 0x28C5 JUMP JUMPDEST DUP2 PUSH2 0x2817 JUMPI PUSH1 0x0 SWAP1 POP PUSH2 0x28C5 JUMP JUMPDEST DUP2 PUSH1 0x1 DUP2 EQ PUSH2 0x282D JUMPI PUSH1 0x2 DUP2 EQ PUSH2 0x2837 JUMPI PUSH2 0x2866 JUMP JUMPDEST PUSH1 0x1 SWAP2 POP POP PUSH2 0x28C5 JUMP JUMPDEST PUSH1 0xFF DUP5 GT ISZERO PUSH2 0x2849 JUMPI PUSH2 0x2848 PUSH2 0x21AC JUMP JUMPDEST JUMPDEST DUP4 PUSH1 0x2 EXP SWAP2 POP DUP5 DUP3 GT ISZERO PUSH2 0x2860 JUMPI PUSH2 0x285F PUSH2 0x21AC JUMP JUMPDEST JUMPDEST POP PUSH2 0x28C5 JUMP JUMPDEST POP PUSH1 0x20 DUP4 LT PUSH2 0x133 DUP4 LT AND PUSH1 0x4E DUP5 LT PUSH1 0xB DUP5 LT AND OR ISZERO PUSH2 0x289B JUMPI DUP3 DUP3 EXP SWAP1 POP DUP4 DUP2 GT ISZERO PUSH2 0x2896 JUMPI PUSH2 0x2895 PUSH2 0x21AC JUMP JUMPDEST JUMPDEST PUSH2 0x28C5 JUMP JUMPDEST PUSH2 0x28A8 DUP5 DUP5 DUP5 PUSH1 0x1 PUSH2 0x27A6 JUMP JUMPDEST SWAP3 POP SWAP1 POP DUP2 DUP5 DIV DUP2 GT ISZERO PUSH2 0x28BF JUMPI PUSH2 0x28BE PUSH2 0x21AC JUMP JUMPDEST JUMPDEST DUP2 DUP2 MUL SWAP1 POP JUMPDEST SWAP4 SWAP3 POP POP POP JUMP JUMPDEST PUSH1 0x0 PUSH2 0x28D7 DUP3 PUSH2 0x1874 JUMP JUMPDEST SWAP2 POP PUSH2 0x28E2 DUP4 PUSH2 0x1874 JUMP JUMPDEST SWAP3 POP PUSH2 0x290F PUSH32 0xFFFFFFFFFFFFFFFFFFFFFFFFFFFFFFFFFFFFFFFFFFFFFFFFFFFFFFFFFFFFFFFF DUP5 DUP5 PUSH2 0x27F9 JUMP JUMPDEST SWAP1 POP SWAP3 SWAP2 POP POP JUMP INVALID LOG2 PUSH5 0x6970667358 0x22 SLT KECCAK256 0xCF PUSH8 0xCCDFCC8F3E05ECFF 0xFB 0xAE 0xC6 0xBE SWAP12 0xD4 GT LOG2 0x5E 0xB2 DUP4 ISZERO CALLCODE PUSH8 0xCB9FF0F0C4B8B0B1 PUSH5 0x736F6C6343 STOP ADDMOD SGT STOP CALLER PUSH19 0x657475726E2046756E6374696F6E732E656E63 PUSH16 0x6465496E7432353628373634293B0000 "},"methodIdentifiers":{"consumerToUserContract(address)":"05ef317a","getMeasure(string)":"05ff4a51","handleOracleFulfillment(bytes32,bytes,bytes)":"0ca76175","lastError()":"29f0de3f","lastRequestId()":"fc2a88c3","lastResponse()":"62747e42","requestIds(uint256)":"8796ba8c","requests(bytes32)":"9d866985","source()":"67e828bf","subscriptionId()":"09c1ba2e"}}}}}