{"contracts/BaoEnergy.sol":{"BaoEnergy":{"abi":[{"inputs":[{"internalType":"uint64","name":"_functionsSubscriptionId","type":"uint64"},{"internalType":"address","name":"_owner","type":"address"}],"stateMutability":"nonpayable","type":"constructor"},{"inputs":[],"name":"OnlyRouterCanFulfill","type":"error"},{"anonymous":false,"inputs":[{"indexed":true,"internalType":"bytes32","name":"id","type":"bytes32"}],"name":"RequestFulfilled","type":"event"},{"anonymous":false,"inputs":[{"indexed":true,"internalType":"bytes32","name":"id","type":"bytes32"}],"name":"RequestSent","type":"event"},{"anonymous":false,"inputs":[{"indexed":true,"internalType":"bytes32","name":"requestId","type":"bytes32"},{"indexed":false,"internalType":"string","name":"averagePrice","type":"string"},{"indexed":false,"internalType":"bytes","name":"response","type":"bytes"},{"indexed":false,"internalType":"bytes","name":"err","type":"bytes"}],"name":"Response","type":"event"},{"anonymous":false,"inputs":[{"indexed":true,"internalType":"uint256","name":"_id","type":"uint256"},{"indexed":false,"internalType":"bool","name":"_decision","type":"bool"}],"name":"answeredPropose","type":"event"},{"anonymous":false,"inputs":[{"indexed":true,"internalType":"address","name":"consumer","type":"address"}],"name":"newConsumerRegistered","type":"event"},{"anonymous":false,"inputs":[{"indexed":true,"internalType":"address","name":"_distributor","type":"address"}],"name":"newDistributorAdded","type":"event"},{"anonymous":false,"inputs":[{"indexed":true,"internalType":"address","name":"_distributor","type":"address"}],"name":"newProposeAdded","type":"event"},{"inputs":[{"internalType":"uint256","name":"_cnpj","type":"uint256"},{"internalType":"uint256","name":"_pricePerMonthKWH","type":"uint256"},{"internalType":"uint256","name":"_localId","type":"uint256"}],"name":"addDistributor","outputs":[],"stateMutability":"nonpayable","type":"function"},{"inputs":[{"internalType":"uint256","name":"_energyConsume","type":"uint256"},{"internalType":"uint256","name":"_pricePerMonth","type":"uint256"},{"internalType":"address","name":"_distributor","type":"address"},{"internalType":"uint256","name":"_localId","type":"uint256"}],"name":"addPropose","outputs":[],"stateMutability":"nonpayable","type":"function"},{"inputs":[{"internalType":"uint256","name":"_id","type":"uint256"},{"internalType":"bool","name":"_decision","type":"bool"}],"name":"answerPropose","outputs":[],"stateMutability":"nonpayable","type":"function"},{"inputs":[{"internalType":"uint256","name":"_localId","type":"uint256"}],"name":"bestOptions","outputs":[{"components":[{"internalType":"uint256","name":"cnpj","type":"uint256"},{"internalType":"uint256","name":"pricePerMonthKWH","type":"uint256"},{"internalType":"uint256","name":"localId","type":"uint256"},{"internalType":"bool","name":"active","type":"bool"}],"internalType":"struct BaoEnergy.Distributor[]","name":"","type":"tuple[]"}],"stateMutability":"view","type":"function"},{"inputs":[{"internalType":"address","name":"","type":"address"}],"name":"consumerToUserContract","outputs":[{"internalType":"uint256","name":"energyConsume","type":"uint256"},{"internalType":"uint256","name":"pricePerMonth","type":"uint256"},{"internalType":"uint256","name":"timeStamp","type":"uint256"},{"internalType":"uint256","name":"localId","type":"uint256"},{"internalType":"bool","name":"active","type":"bool"},{"internalType":"uint256","name":"contractDeadLine","type":"uint256"}],"stateMutability":"view","type":"function"},{"inputs":[{"internalType":"address","name":"","type":"address"}],"name":"consumers","outputs":[{"internalType":"bool","name":"isMemberOfFreeEnergyMarket","type":"bool"},{"internalType":"uint256","name":"cnpj","type":"uint256"},{"internalType":"uint256","name":"localId","type":"uint256"},{"internalType":"bool","name":"active","type":"bool"}],"stateMutability":"view","type":"function"},{"inputs":[{"internalType":"address","name":"","type":"address"}],"name":"distributors","outputs":[{"internalType":"uint256","name":"cnpj","type":"uint256"},{"internalType":"uint256","name":"pricePerMonthKWH","type":"uint256"},{"internalType":"uint256","name":"localId","type":"uint256"},{"internalType":"bool","name":"active","type":"bool"}],"stateMutability":"view","type":"function"},{"inputs":[{"internalType":"uint256","name":"_localId","type":"uint256"}],"name":"getAllMeanPrice","outputs":[{"internalType":"bytes32","name":"","type":"bytes32"}],"stateMutability":"nonpayable","type":"function"},{"inputs":[],"name":"getProposes","outputs":[{"components":[{"components":[{"internalType":"uint256","name":"energyConsume","type":"uint256"},{"internalType":"uint256","name":"pricePerMonth","type":"uint256"},{"internalType":"uint256","name":"timeStamp","type":"uint256"},{"internalType":"uint256","name":"localId","type":"uint256"},{"internalType":"bool","name":"active","type":"bool"},{"internalType":"uint256","name":"contractDeadLine","type":"uint256"}],"internalType":"struct BaoEnergy.UserContract","name":"userContract","type":"tuple"},{"internalType":"address","name":"distributor","type":"address"},{"internalType":"address","name":"consumer","type":"address"},{"internalType":"bool","name":"answered","type":"bool"}],"internalType":"struct BaoEnergy.Propose[]","name":"","type":"tuple[]"}],"stateMutability":"view","type":"function"},{"inputs":[{"internalType":"bytes32","name":"requestId","type":"bytes32"},{"internalType":"bytes","name":"response","type":"bytes"},{"internalType":"bytes","name":"err","type":"bytes"}],"name":"handleOracleFulfillment","outputs":[],"stateMutability":"nonpayable","type":"function"},{"inputs":[],"name":"lastError","outputs":[{"internalType":"bytes","name":"","type":"bytes"}],"stateMutability":"view","type":"function"},{"inputs":[],"name":"lastRequestId","outputs":[{"internalType":"bytes32","name":"","type":"bytes32"}],"stateMutability":"view","type":"function"},{"inputs":[],"name":"lastResponse","outputs":[{"internalType":"bytes","name":"","type":"bytes"}],"stateMutability":"view","type":"function"},{"inputs":[{"internalType":"uint256","name":"","type":"uint256"},{"internalType":"uint256","name":"","type":"uint256"}],"name":"localIdToDistributors","outputs":[{"internalType":"uint256","name":"cnpj","type":"uint256"},{"internalType":"uint256","name":"pricePerMonthKWH","type":"uint256"},{"internalType":"uint256","name":"localId","type":"uint256"},{"internalType":"bool","name":"active","type":"bool"}],"stateMutability":"view","type":"function"},{"inputs":[{"internalType":"address","name":"","type":"address"},{"internalType":"uint256","name":"","type":"uint256"}],"name":"proposes","outputs":[{"components":[{"internalType":"uint256","name":"energyConsume","type":"uint256"},{"internalType":"uint256","name":"pricePerMonth","type":"uint256"},{"internalType":"uint256","name":"timeStamp","type":"uint256"},{"internalType":"uint256","name":"localId","type":"uint256"},{"internalType":"bool","name":"active","type":"bool"},{"internalType":"uint256","name":"contractDeadLine","type":"uint256"}],"internalType":"struct BaoEnergy.UserContract","name":"userContract","type":"tuple"},{"internalType":"address","name":"distributor","type":"address"},{"internalType":"address","name":"consumer","type":"address"},{"internalType":"bool","name":"answered","type":"bool"}],"stateMutability":"view","type":"function"},{"inputs":[{"internalType":"uint256","name":"_cnpj","type":"uint256"},{"internalType":"uint256","name":"_localId","type":"uint256"},{"internalType":"bool","name":"_isMemberOfFreeEnergyMarket","type":"bool"}],"name":"registerConsumer","outputs":[],"stateMutability":"nonpayable","type":"function"},{"inputs":[{"internalType":"uint256","name":"","type":"uint256"}],"name":"requestIds","outputs":[{"internalType":"bytes32","name":"","type":"bytes32"}],"stateMutability":"view","type":"function"},{"inputs":[{"internalType":"bytes32","name":"","type":"bytes32"}],"name":"requests","outputs":[{"internalType":"bool","name":"fulfilled","type":"bool"},{"internalType":"bool","name":"exists","type":"bool"},{"internalType":"bytes","name":"response","type":"bytes"},{"internalType":"bytes","name":"err","type":"bytes"}],"stateMutability":"view","type":"function"},{"inputs":[],"name":"source","outputs":[{"internalType":"string","name":"","type":"string"}],"stateMutability":"view","type":"function"},{"inputs":[],"name":"subscriptionId","outputs":[{"internalType":"uint64","name":"","type":"uint64"}],"stateMutability":"view","type":"function"}],"evm":{"bytecode":{"linkReferences":{},"object":"60a060405273b83e47c2bc239b3bf370bc41e1459a34b41238d0600660006101000a81548173ffffffffffffffffffffffffffffffffffffffff021916908373ffffffffffffffffffffffffffffffffffffffff1602179055507f66756e2d657468657265756d2d7365706f6c69612d310000000000000000000060001b600755620493e0600860006101000a81548163ffffffff021916908363ffffffff16021790555060405180610180016040528061015881526020016200336e610158913960099081620000d191906200044d565b50348015620000df57600080fd5b50604051620034c6380380620034c68339818101604052810190620001059190620005e3565b8082600660009054906101000a900473ffffffffffffffffffffffffffffffffffffffff168073ffffffffffffffffffffffffffffffffffffffff1660808173ffffffffffffffffffffffffffffffffffffffff16815250505080600860046101000a81548167ffffffffffffffff021916908367ffffffffffffffff1602179055505080600a60006101000a81548173ffffffffffffffffffffffffffffffffffffffff021916908373ffffffffffffffffffffffffffffffffffffffff1602179055505050506200062a565b600081519050919050565b7f4e487b7100000000000000000000000000000000000000000000000000000000600052604160045260246000fd5b7f4e487b7100000000000000000000000000000000000000000000000000000000600052602260045260246000fd5b600060028204905060018216806200025557607f821691505b6020821081036200026b576200026a6200020d565b5b50919050565b60008190508160005260206000209050919050565b60006020601f8301049050919050565b600082821b905092915050565b600060088302620002d57fffffffffffffffffffffffffffffffffffffffffffffffffffffffffffffffff8262000296565b620002e1868362000296565b95508019841693508086168417925050509392505050565b6000819050919050565b6000819050919050565b60006200032e620003286200032284620002f9565b62000303565b620002f9565b9050919050565b6000819050919050565b6200034a836200030d565b62000362620003598262000335565b848454620002a3565b825550505050565b600090565b620003796200036a565b620003868184846200033f565b505050565b5b81811015620003ae57620003a26000826200036f565b6001810190506200038c565b5050565b601f821115620003fd57620003c78162000271565b620003d28462000286565b81016020851015620003e2578190505b620003fa620003f18562000286565b8301826200038b565b50505b505050565b600082821c905092915050565b6000620004226000198460080262000402565b1980831691505092915050565b60006200043d83836200040f565b9150826002028217905092915050565b6200045882620001d3565b67ffffffffffffffff811115620004745762000473620001de565b5b6200048082546200023c565b6200048d828285620003b2565b600060209050601f831160018114620004c55760008415620004b0578287015190505b620004bc85826200042f565b8655506200052c565b601f198416620004d58662000271565b60005b82811015620004ff57848901518255600182019150602085019450602081019050620004d8565b868310156200051f57848901516200051b601f8916826200040f565b8355505b6001600288020188555050505b505050505050565b600080fd5b600067ffffffffffffffff82169050919050565b620005588162000539565b81146200056457600080fd5b50565b60008151905062000578816200054d565b92915050565b600073ffffffffffffffffffffffffffffffffffffffff82169050919050565b6000620005ab826200057e565b9050919050565b620005bd816200059e565b8114620005c957600080fd5b50565b600081519050620005dd81620005b2565b92915050565b60008060408385031215620005fd57620005fc62000534565b5b60006200060d8582860162000567565b92505060206200062085828601620005cc565b9150509250929050565b608051612d286200064660003960006104e40152612d286000f3fe608060405234801561001057600080fd5b506004361061012c5760003560e01c80636d37a202116100ad5780639d866985116100715780639d86698514610377578063c2729bfb146103aa578063cc642784146103c6578063d3e64ffa146103f9578063fc2a88c3146104175761012c565b80636d37a202146102985780637c732f85146102c85780638796ba8c146102e457806390e1e607146103145780639af96a73146103445761012c565b80632e8376dc116100f45780632e8376dc146101f15780632eafc9051461020d57806362747e4214610229578063642cb0911461024757806367e828bf1461027a5761012c565b806305ef317a1461013157806309c1ba2e146101665780630bf53668146101845780630ca76175146101b757806329f0de3f146101d3575b600080fd5b61014b6004803603810190610146919061189a565b610435565b60405161015d969594939291906118fb565b60405180910390f35b61016e61047e565b60405161017b919061197f565b60405180910390f35b61019e6004803603810190610199919061189a565b610498565b6040516101ae949392919061199a565b60405180910390f35b6101d160048036038101906101cc9190611b5b565b6104e2565b005b6101db6105a4565b6040516101e89190611c65565b60405180910390f35b61020b60048036038101906102069190611cb3565b610632565b005b61022760048036038101906102229190611d06565b610831565b005b610231610ba6565b60405161023e9190611c65565b60405180910390f35b610261600480360381019061025c9190611d6d565b610c34565b6040516102719493929190611e55565b60405180910390f35b610282610d25565b60405161028f9190611ef1565b60405180910390f35b6102b260048036038101906102ad9190611f13565b610db3565b6040516102bf9190612044565b60405180910390f35b6102e260048036038101906102dd9190612092565b610e5e565b005b6102fe60048036038101906102f99190611f13565b610ff8565b60405161030b91906120f4565b60405180910390f35b61032e60048036038101906103299190611f13565b61101c565b60405161033b91906120f4565b60405180910390f35b61035e6004803603810190610359919061210f565b611049565b60405161036e949392919061214f565b60405180910390f35b610391600480360381019061038c9190612194565b6110a3565b6040516103a194939291906121c1565b60405180910390f35b6103c460048036038101906103bf9190612214565b6111fd565b005b6103e060048036038101906103db919061189a565b6114d3565b6040516103f0949392919061214f565b60405180910390f35b610401611510565b60405161040e91906123e5565b60405180910390f35b61041f6116d4565b60405161042c91906120f4565b60405180910390f35b600f6020528060005260406000206000915090508060000154908060010154908060020154908060030154908060040160009054906101000a900460ff16908060050154905086565b600860049054906101000a900467ffffffffffffffff1681565b600c6020528060005260406000206000915090508060000160009054906101000a900460ff16908060010154908060020154908060030160009054906101000a900460ff16905084565b7f000000000000000000000000000000000000000000000000000000000000000073ffffffffffffffffffffffffffffffffffffffff163373ffffffffffffffffffffffffffffffffffffffff1614610567576040517fc6829f8300000000000000000000000000000000000000000000000000000000815260040160405180910390fd5b6105728383836116da565b827f85e1543bf2f84fe80c6badbce3648c8539ad1df4d2b3d822938ca0538be727e660405160405180910390a2505050565b600380546105b190612436565b80601f01602080910402602001604051908101604052809291908181526020018280546105dd90612436565b801561062a5780601f106105ff5761010080835404028352916020019161062a565b820191906000526020600020905b81548152906001019060200180831161060d57829003601f168201915b505050505081565b600c60003373ffffffffffffffffffffffffffffffffffffffff1673ffffffffffffffffffffffffffffffffffffffff16815260200190815260200160002060030160009054906101000a900460ff16156106c2576040517f08c379a00000000000000000000000000000000000000000000000000000000081526004016106b9906124d9565b60405180910390fd5b60006040518060800160405280858152602001848152602001838152602001600115158152509050600d600083815260200190815260200160002081908060018154018082558091505060019003906000526020600020906004020160009091909190915060008201518160000155602082015181600101556040820151816002015560608201518160030160006101000a81548160ff021916908315150217905550505080600e60003373ffffffffffffffffffffffffffffffffffffffff1673ffffffffffffffffffffffffffffffffffffffff16815260200190815260200160002060008201518160000155602082015181600101556040820151816002015560608201518160030160006101000a81548160ff0219169083151502179055509050503373ffffffffffffffffffffffffffffffffffffffff167f539fce68fd46dd4d63494ec1197510a27bfb96eb9b09f050eec103bbdf2b315b60405160405180910390a250505050565b600c60003373ffffffffffffffffffffffffffffffffffffffff1673ffffffffffffffffffffffffffffffffffffffff16815260200190815260200160002060030160009054906101000a900460ff166108c0576040517f08c379a00000000000000000000000000000000000000000000000000000000081526004016108b790612545565b60405180910390fd5b600e60008373ffffffffffffffffffffffffffffffffffffffff1673ffffffffffffffffffffffffffffffffffffffff16815260200190815260200160002060030160009054906101000a900460ff1661094f576040517f08c379a0000000000000000000000000000000000000000000000000000000008152600401610946906125d7565b60405180910390fd5b60006040518060c0016040528086815260200185815260200142815260200183815260200160011515815260200162278d004261098c9190612626565b8152509050600060405180608001604052808381526020013373ffffffffffffffffffffffffffffffffffffffff1681526020018573ffffffffffffffffffffffffffffffffffffffff168152602001600015158152509050600b60008573ffffffffffffffffffffffffffffffffffffffff1673ffffffffffffffffffffffffffffffffffffffff1681526020019081526020016000208190806001815401808255809150506001900390600052602060002090600802016000909190919091506000820151816000016000820151816000015560208201518160010155604082015181600201556060820151816003015560808201518160040160006101000a81548160ff02191690831515021790555060a08201518160050155505060208201518160060160006101000a81548173ffffffffffffffffffffffffffffffffffffffff021916908373ffffffffffffffffffffffffffffffffffffffff16021790555060408201518160070160006101000a81548173ffffffffffffffffffffffffffffffffffffffff021916908373ffffffffffffffffffffffffffffffffffffffff16021790555060608201518160070160146101000a81548160ff02191690831515021790555050508373ffffffffffffffffffffffffffffffffffffffff167f0d7314c5e85e24751b97c4af5bf2002b2fc093e77d2d0a27785467743c21a17660405160405180910390a2505050505050565b60028054610bb390612436565b80601f0160208091040260200160405190810160405280929190818152602001828054610bdf90612436565b8015610c2c5780601f10610c0157610100808354040283529160200191610c2c565b820191906000526020600020905b815481529060010190602001808311610c0f57829003601f168201915b505050505081565b600b6020528160005260406000208181548110610c5057600080fd5b906000526020600020906008020160009150915050806000016040518060c0016040529081600082015481526020016001820154815260200160028201548152602001600382015481526020016004820160009054906101000a900460ff16151515158152602001600582015481525050908060060160009054906101000a900473ffffffffffffffffffffffffffffffffffffffff16908060070160009054906101000a900473ffffffffffffffffffffffffffffffffffffffff16908060070160149054906101000a900460ff16905084565b60098054610d3290612436565b80601f0160208091040260200160405190810160405280929190818152602001828054610d5e90612436565b8015610dab5780601f10610d8057610100808354040283529160200191610dab565b820191906000526020600020905b815481529060010190602001808311610d8e57829003601f168201915b505050505081565b6060600d6000838152602001908152602001600020805480602002602001604051908101604052809291908181526020016000905b82821015610e5357838290600052602060002090600402016040518060800160405290816000820154815260200160018201548152602001600282015481526020016003820160009054906101000a900460ff16151515158152505081526020019060010190610de8565b505050509050919050565b600e60003373ffffffffffffffffffffffffffffffffffffffff1673ffffffffffffffffffffffffffffffffffffffff16815260200190815260200160002060030160009054906101000a900460ff1615610eee576040517f08c379a0000000000000000000000000000000000000000000000000000000008152600401610ee5906124d9565b60405180910390fd5b60006040518060800160405280831515815260200185815260200184815260200160011515815250905080600c60003373ffffffffffffffffffffffffffffffffffffffff1673ffffffffffffffffffffffffffffffffffffffff16815260200190815260200160002060008201518160000160006101000a81548160ff021916908315150217905550602082015181600101556040820151816002015560608201518160030160006101000a81548160ff0219169083151502179055509050503373ffffffffffffffffffffffffffffffffffffffff167fb7a62362dd2be01445191c65d35b774ea413e6b88e82b9ca3b52ab8a4f5e245060405160405180910390a250505050565b6005818154811061100857600080fd5b906000526020600020016000915090505481565b60007f666f6f626172000000000000000000000000000000000000000000000000000060001b9050919050565b600d602052816000526040600020818154811061106557600080fd5b9060005260206000209060040201600091509150508060000154908060010154908060020154908060030160009054906101000a900460ff16905084565b60046020528060005260406000206000915090508060000160009054906101000a900460ff16908060000160019054906101000a900460ff16908060010180546110ec90612436565b80601f016020809104026020016040519081016040528092919081815260200182805461111890612436565b80156111655780601f1061113a57610100808354040283529160200191611165565b820191906000526020600020905b81548152906001019060200180831161114857829003601f168201915b50505050509080600201805461117a90612436565b80601f01602080910402602001604051908101604052809291908181526020018280546111a690612436565b80156111f35780601f106111c8576101008083540402835291602001916111f3565b820191906000526020600020905b8154815290600101906020018083116111d657829003601f168201915b5050505050905084565b600e60003373ffffffffffffffffffffffffffffffffffffffff1673ffffffffffffffffffffffffffffffffffffffff16815260200190815260200160002060030160009054906101000a900460ff1661128c576040517f08c379a0000000000000000000000000000000000000000000000000000000008152600401611283906126a6565b60405180910390fd5b6000600b60003373ffffffffffffffffffffffffffffffffffffffff1673ffffffffffffffffffffffffffffffffffffffff16815260200190815260200160002083815481106112df576112de6126c6565b5b906000526020600020906008020190503373ffffffffffffffffffffffffffffffffffffffff168160060160009054906101000a900473ffffffffffffffffffffffffffffffffffffffff1673ffffffffffffffffffffffffffffffffffffffff1603611381576040517f08c379a000000000000000000000000000000000000000000000000000000000815260040161137890612767565b60405180910390fd5b60018160070160146101000a81548160ff021916908315150217905550811561148b5780600001600f60008360070160009054906101000a900473ffffffffffffffffffffffffffffffffffffffff1673ffffffffffffffffffffffffffffffffffffffff1673ffffffffffffffffffffffffffffffffffffffff168152602001908152602001600020600082015481600001556001820154816001015560028201548160020155600382015481600301556004820160009054906101000a900460ff168160040160006101000a81548160ff0219169083151502179055506005820154816005015590505060018160070160146101000a81548160ff0219169083151502179055505b3373ffffffffffffffffffffffffffffffffffffffff167f0d7314c5e85e24751b97c4af5bf2002b2fc093e77d2d0a27785467743c21a17660405160405180910390a2505050565b600e6020528060005260406000206000915090508060000154908060010154908060020154908060030160009054906101000a900460ff16905084565b6060600b60003373ffffffffffffffffffffffffffffffffffffffff1673ffffffffffffffffffffffffffffffffffffffff168152602001908152602001600020805480602002602001604051908101604052809291908181526020016000905b828210156116cb5783829060005260206000209060080201604051806080016040529081600082016040518060c0016040529081600082015481526020016001820154815260200160028201548152602001600382015481526020016004820160009054906101000a900460ff1615151515815260200160058201548152505081526020016006820160009054906101000a900473ffffffffffffffffffffffffffffffffffffffff1673ffffffffffffffffffffffffffffffffffffffff1673ffffffffffffffffffffffffffffffffffffffff1681526020016007820160009054906101000a900473ffffffffffffffffffffffffffffffffffffffff1673ffffffffffffffffffffffffffffffffffffffff1673ffffffffffffffffffffffffffffffffffffffff1681526020016007820160149054906101000a900460ff16151515158152505081526020019060010190611571565b50505050905090565b60015481565b6004600084815260200190815260200160002060000160019054906101000a900460ff1661173d576040517f08c379a0000000000000000000000000000000000000000000000000000000008152600401611734906127d3565b60405180910390fd5b806003908161174c919061299f565b50816002908161175c919061299f565b5060016004600085815260200190815260200160002060000160006101000a81548160ff021916908315150217905550816004600085815260200190815260200160002060010190816117af919061299f565b50806004600085815260200190815260200160002060020190816117d3919061299f565b5081600090816117e39190612acc565b50827f160ed0aaffbef6885155188b91459cb5a97d5daadccf7561d8c46deea6641b5060006002600360405161181b93929190612ca6565b60405180910390a2505050565b6000604051905090565b600080fd5b600080fd5b600073ffffffffffffffffffffffffffffffffffffffff82169050919050565b60006118678261183c565b9050919050565b6118778161185c565b811461188257600080fd5b50565b6000813590506118948161186e565b92915050565b6000602082840312156118b0576118af611832565b5b60006118be84828501611885565b91505092915050565b6000819050919050565b6118da816118c7565b82525050565b60008115159050919050565b6118f5816118e0565b82525050565b600060c08201905061191060008301896118d1565b61191d60208301886118d1565b61192a60408301876118d1565b61193760608301866118d1565b61194460808301856118ec565b61195160a08301846118d1565b979650505050505050565b600067ffffffffffffffff82169050919050565b6119798161195c565b82525050565b60006020820190506119946000830184611970565b92915050565b60006080820190506119af60008301876118ec565b6119bc60208301866118d1565b6119c960408301856118d1565b6119d660608301846118ec565b95945050505050565b6000819050919050565b6119f2816119df565b81146119fd57600080fd5b50565b600081359050611a0f816119e9565b92915050565b600080fd5b600080fd5b6000601f19601f8301169050919050565b7f4e487b7100000000000000000000000000000000000000000000000000000000600052604160045260246000fd5b611a6882611a1f565b810181811067ffffffffffffffff82111715611a8757611a86611a30565b5b80604052505050565b6000611a9a611828565b9050611aa68282611a5f565b919050565b600067ffffffffffffffff821115611ac657611ac5611a30565b5b611acf82611a1f565b9050602081019050919050565b82818337600083830152505050565b6000611afe611af984611aab565b611a90565b905082815260208101848484011115611b1a57611b19611a1a565b5b611b25848285611adc565b509392505050565b600082601f830112611b4257611b41611a15565b5b8135611b52848260208601611aeb565b91505092915050565b600080600060608486031215611b7457611b73611832565b5b6000611b8286828701611a00565b935050602084013567ffffffffffffffff811115611ba357611ba2611837565b5b611baf86828701611b2d565b925050604084013567ffffffffffffffff811115611bd057611bcf611837565b5b611bdc86828701611b2d565b9150509250925092565b600081519050919050565b600082825260208201905092915050565b60005b83811015611c20578082015181840152602081019050611c05565b60008484015250505050565b6000611c3782611be6565b611c418185611bf1565b9350611c51818560208601611c02565b611c5a81611a1f565b840191505092915050565b60006020820190508181036000830152611c7f8184611c2c565b905092915050565b611c90816118c7565b8114611c9b57600080fd5b50565b600081359050611cad81611c87565b92915050565b600080600060608486031215611ccc57611ccb611832565b5b6000611cda86828701611c9e565b9350506020611ceb86828701611c9e565b9250506040611cfc86828701611c9e565b9150509250925092565b60008060008060808587031215611d2057611d1f611832565b5b6000611d2e87828801611c9e565b9450506020611d3f87828801611c9e565b9350506040611d5087828801611885565b9250506060611d6187828801611c9e565b91505092959194509250565b60008060408385031215611d8457611d83611832565b5b6000611d9285828601611885565b9250506020611da385828601611c9e565b9150509250929050565b611db6816118c7565b82525050565b611dc5816118e0565b82525050565b60c082016000820151611de16000850182611dad565b506020820151611df46020850182611dad565b506040820151611e076040850182611dad565b506060820151611e1a6060850182611dad565b506080820151611e2d6080850182611dbc565b5060a0820151611e4060a0850182611dad565b50505050565b611e4f8161185c565b82525050565b600061012082019050611e6b6000830187611dcb565b611e7860c0830186611e46565b611e8560e0830185611e46565b611e936101008301846118ec565b95945050505050565b600081519050919050565b600082825260208201905092915050565b6000611ec382611e9c565b611ecd8185611ea7565b9350611edd818560208601611c02565b611ee681611a1f565b840191505092915050565b60006020820190508181036000830152611f0b8184611eb8565b905092915050565b600060208284031215611f2957611f28611832565b5b6000611f3784828501611c9e565b91505092915050565b600081519050919050565b600082825260208201905092915050565b6000819050602082019050919050565b608082016000820151611f826000850182611dad565b506020820151611f956020850182611dad565b506040820151611fa86040850182611dad565b506060820151611fbb6060850182611dbc565b50505050565b6000611fcd8383611f6c565b60808301905092915050565b6000602082019050919050565b6000611ff182611f40565b611ffb8185611f4b565b935061200683611f5c565b8060005b8381101561203757815161201e8882611fc1565b975061202983611fd9565b92505060018101905061200a565b5085935050505092915050565b6000602082019050818103600083015261205e8184611fe6565b905092915050565b61206f816118e0565b811461207a57600080fd5b50565b60008135905061208c81612066565b92915050565b6000806000606084860312156120ab576120aa611832565b5b60006120b986828701611c9e565b93505060206120ca86828701611c9e565b92505060406120db8682870161207d565b9150509250925092565b6120ee816119df565b82525050565b600060208201905061210960008301846120e5565b92915050565b6000806040838503121561212657612125611832565b5b600061213485828601611c9e565b925050602061214585828601611c9e565b9150509250929050565b600060808201905061216460008301876118d1565b61217160208301866118d1565b61217e60408301856118d1565b61218b60608301846118ec565b95945050505050565b6000602082840312156121aa576121a9611832565b5b60006121b884828501611a00565b91505092915050565b60006080820190506121d660008301876118ec565b6121e360208301866118ec565b81810360408301526121f58185611c2c565b905081810360608301526122098184611c2c565b905095945050505050565b6000806040838503121561222b5761222a611832565b5b600061223985828601611c9e565b925050602061224a8582860161207d565b9150509250929050565b600081519050919050565b600082825260208201905092915050565b6000819050602082019050919050565b60c0820160008201516122966000850182611dad565b5060208201516122a96020850182611dad565b5060408201516122bc6040850182611dad565b5060608201516122cf6060850182611dad565b5060808201516122e26080850182611dbc565b5060a08201516122f560a0850182611dad565b50505050565b6123048161185c565b82525050565b610120820160008201516123216000850182612280565b50602082015161233460c08501826122fb565b50604082015161234760e08501826122fb565b50606082015161235b610100850182611dbc565b50505050565b600061236d838361230a565b6101208301905092915050565b6000602082019050919050565b600061239282612254565b61239c818561225f565b93506123a783612270565b8060005b838110156123d85781516123bf8882612361565b97506123ca8361237a565b9250506001810190506123ab565b5085935050505092915050565b600060208201905081810360008301526123ff8184612387565b905092915050565b7f4e487b7100000000000000000000000000000000000000000000000000000000600052602260045260246000fd5b6000600282049050600182168061244e57607f821691505b60208210810361246157612460612407565b5b50919050565b7f566f6365206e616f20706f64652073657220756d20646973747269627569646f60008201527f72206520756d20636f6e73756d69646f7220616f206d65736d6f2074656d706f602082015250565b60006124c3604083611ea7565b91506124ce82612467565b604082019050919050565b600060208201905081810360008301526124f2816124b6565b9050919050565b7f566f6365206e616f206520756d20636f6e73756d69646f720000000000000000600082015250565b600061252f601883611ea7565b915061253a826124f9565b602082019050919050565b6000602082019050818103600083015261255e81612522565b9050919050565b7f4f20656e64657265636f207061737361646f206e616f206520756d206469737460008201527f7269627569646f72000000000000000000000000000000000000000000000000602082015250565b60006125c1602883611ea7565b91506125cc82612565565b604082019050919050565b600060208201905081810360008301526125f0816125b4565b9050919050565b7f4e487b7100000000000000000000000000000000000000000000000000000000600052601160045260246000fd5b6000612631826118c7565b915061263c836118c7565b9250828201905080821115612654576126536125f7565b5b92915050565b7f566f6365206e616f206520756d20646973747269627569646f72000000000000600082015250565b6000612690601a83611ea7565b915061269b8261265a565b602082019050919050565b600060208201905081810360008301526126bf81612683565b9050919050565b7f4e487b7100000000000000000000000000000000000000000000000000000000600052603260045260246000fd5b7f566f6365206e616f2065206f20646973747269627569646f722064657373612060008201527f70726f706f737461000000000000000000000000000000000000000000000000602082015250565b6000612751602883611ea7565b915061275c826126f5565b604082019050919050565b6000602082019050818103600083015261278081612744565b9050919050565b7f72657175657374206e6f7420666f756e64000000000000000000000000000000600082015250565b60006127bd601183611ea7565b91506127c882612787565b602082019050919050565b600060208201905081810360008301526127ec816127b0565b9050919050565b60008190508160005260206000209050919050565b60006020601f8301049050919050565b600082821b905092915050565b6000600883026128557fffffffffffffffffffffffffffffffffffffffffffffffffffffffffffffffff82612818565b61285f8683612818565b95508019841693508086168417925050509392505050565b6000819050919050565b600061289c612897612892846118c7565b612877565b6118c7565b9050919050565b6000819050919050565b6128b683612881565b6128ca6128c2826128a3565b848454612825565b825550505050565b600090565b6128df6128d2565b6128ea8184846128ad565b505050565b5b8181101561290e576129036000826128d7565b6001810190506128f0565b5050565b601f82111561295357612924816127f3565b61292d84612808565b8101602085101561293c578190505b61295061294885612808565b8301826128ef565b50505b505050565b600082821c905092915050565b600061297660001984600802612958565b1980831691505092915050565b600061298f8383612965565b9150826002028217905092915050565b6129a882611be6565b67ffffffffffffffff8111156129c1576129c0611a30565b5b6129cb8254612436565b6129d6828285612912565b600060209050601f831160018114612a0957600084156129f7578287015190505b612a018582612983565b865550612a69565b601f198416612a17866127f3565b60005b82811015612a3f57848901518255600182019150602085019450602081019050612a1a565b86831015612a5c5784890151612a58601f891682612965565b8355505b6001600288020188555050505b505050505050565b60008190508160005260206000209050919050565b601f821115612ac757612a9881612a71565b612aa184612808565b81016020851015612ab0578190505b612ac4612abc85612808565b8301826128ef565b50505b505050565b612ad582611e9c565b67ffffffffffffffff811115612aee57612aed611a30565b5b612af88254612436565b612b03828285612a86565b600060209050601f831160018114612b365760008415612b24578287015190505b612b2e8582612983565b865550612b96565b601f198416612b4486612a71565b60005b82811015612b6c57848901518255600182019150602085019450602081019050612b47565b86831015612b895784890151612b85601f891682612965565b8355505b6001600288020188555050505b505050505050565b60008154612bab81612436565b612bb58186611ea7565b94506001821660008114612bd05760018114612be657612c19565b60ff198316865281151560200286019350612c19565b612bef85612a71565b60005b83811015612c1157815481890152600182019150602081019050612bf2565b808801955050505b50505092915050565b60008154612c2f81612436565b612c398186611bf1565b94506001821660008114612c545760018114612c6a57612c9d565b60ff198316865281151560200286019350612c9d565b612c73856127f3565b60005b83811015612c9557815481890152600182019150602081019050612c76565b808801955050505b50505092915050565b60006060820190508181036000830152612cc08186612b9e565b90508181036020830152612cd48185612c22565b90508181036040830152612ce88184612c22565b905094935050505056fea26469706673582212204ec57ab1a4fc783e65714167dc63bf84178972d1c27a9625fa5388d046ea9ada64736f6c63430008130033636f6e737420656e65726779436f6e747261637473203d20617267735b305d3b636f6e737420617069526573706f6e7365203d2061776169742046756e6374696f6e732e6d616b654874747052657175657374287b75726c3a206068747470733a2f2f62616f656e657267792d617069322e6f6e72656e6465722e636f6d2f63616c63756c6174652f3f76616c7565733d7b656e65726779436f6e7472616374737d602c726573706f6e7365547970653a202774657874277d293b69662028617069526573706f6e73652e6572726f7229207b7468726f77204572726f72282752657175657374206661696c656427293b7d636f6e7374207b2064617461207d203d20617069526573706f6e73653b6c6574206e657744617461203d204a534f4e2e737472696e6769667928646174612972657475726e2046756e6374696f6e732e656e636f6465537472696e67286e657744617461293b","opcodes":"PUSH1 0xA0 PUSH1 0x40 MSTORE PUSH20 0xB83E47C2BC239B3BF370BC41E1459A34B41238D0 PUSH1 0x6 PUSH1 0x0 PUSH2 0x100 EXP DUP2 SLOAD DUP2 PUSH20 0xFFFFFFFFFFFFFFFFFFFFFFFFFFFFFFFFFFFFFFFF MUL NOT AND SWAP1 DUP4 PUSH20 0xFFFFFFFFFFFFFFFFFFFFFFFFFFFFFFFFFFFFFFFF AND MUL OR SWAP1 SSTORE POP PUSH32 0x66756E2D657468657265756D2D7365706F6C69612D3100000000000000000000 PUSH1 0x0 SHL PUSH1 0x7 SSTORE PUSH3 0x493E0 PUSH1 0x8 PUSH1 0x0 PUSH2 0x100 EXP DUP2 SLOAD DUP2 PUSH4 0xFFFFFFFF MUL NOT AND SWAP1 DUP4 PUSH4 0xFFFFFFFF AND MUL OR SWAP1 SSTORE POP PUSH1 0x40 MLOAD DUP1 PUSH2 0x180 ADD PUSH1 0x40 MSTORE DUP1 PUSH2 0x158 DUP2 MSTORE PUSH1 0x20 ADD PUSH3 0x336E PUSH2 0x158 SWAP2 CODECOPY PUSH1 0x9 SWAP1 DUP2 PUSH3 0xD1 SWAP2 SWAP1 PUSH3 0x44D JUMP JUMPDEST POP CALLVALUE DUP1 ISZERO PUSH3 0xDF JUMPI PUSH1 0x0 DUP1 REVERT JUMPDEST POP PUSH1 0x40 MLOAD PUSH3 0x34C6 CODESIZE SUB DUP1 PUSH3 0x34C6 DUP4 CODECOPY DUP2 DUP2 ADD PUSH1 0x40 MSTORE DUP2 ADD SWAP1 PUSH3 0x105 SWAP2 SWAP1 PUSH3 0x5E3 JUMP JUMPDEST DUP1 DUP3 PUSH1 0x6 PUSH1 0x0 SWAP1 SLOAD SWAP1 PUSH2 0x100 EXP SWAP1 DIV PUSH20 0xFFFFFFFFFFFFFFFFFFFFFFFFFFFFFFFFFFFFFFFF AND DUP1 PUSH20 0xFFFFFFFFFFFFFFFFFFFFFFFFFFFFFFFFFFFFFFFF AND PUSH1 0x80 DUP2 PUSH20 0xFFFFFFFFFFFFFFFFFFFFFFFFFFFFFFFFFFFFFFFF AND DUP2 MSTORE POP POP POP DUP1 PUSH1 0x8 PUSH1 0x4 PUSH2 0x100 EXP DUP2 SLOAD DUP2 PUSH8 0xFFFFFFFFFFFFFFFF MUL NOT AND SWAP1 DUP4 PUSH8 0xFFFFFFFFFFFFFFFF AND MUL OR SWAP1 SSTORE POP POP DUP1 PUSH1 0xA PUSH1 0x0 PUSH2 0x100 EXP DUP2 SLOAD DUP2 PUSH20 0xFFFFFFFFFFFFFFFFFFFFFFFFFFFFFFFFFFFFFFFF MUL NOT AND SWAP1 DUP4 PUSH20 0xFFFFFFFFFFFFFFFFFFFFFFFFFFFFFFFFFFFFFFFF AND MUL OR SWAP1 SSTORE POP POP POP POP PUSH3 0x62A JUMP JUMPDEST PUSH1 0x0 DUP2 MLOAD SWAP1 POP SWAP2 SWAP1 POP JUMP JUMPDEST PUSH32 0x4E487B7100000000000000000000000000000000000000000000000000000000 PUSH1 0x0 MSTORE PUSH1 0x41 PUSH1 0x4 MSTORE PUSH1 0x24 PUSH1 0x0 REVERT JUMPDEST PUSH32 0x4E487B7100000000000000000000000000000000000000000000000000000000 PUSH1 0x0 MSTORE PUSH1 0x22 PUSH1 0x4 MSTORE PUSH1 0x24 PUSH1 0x0 REVERT JUMPDEST PUSH1 0x0 PUSH1 0x2 DUP3 DIV SWAP1 POP PUSH1 0x1 DUP3 AND DUP1 PUSH3 0x255 JUMPI PUSH1 0x7F DUP3 AND SWAP2 POP JUMPDEST PUSH1 0x20 DUP3 LT DUP2 SUB PUSH3 0x26B JUMPI PUSH3 0x26A PUSH3 0x20D JUMP JUMPDEST JUMPDEST POP SWAP2 SWAP1 POP JUMP JUMPDEST PUSH1 0x0 DUP2 SWAP1 POP DUP2 PUSH1 0x0 MSTORE PUSH1 0x20 PUSH1 0x0 KECCAK256 SWAP1 POP SWAP2 SWAP1 POP JUMP JUMPDEST PUSH1 0x0 PUSH1 0x20 PUSH1 0x1F DUP4 ADD DIV SWAP1 POP SWAP2 SWAP1 POP JUMP JUMPDEST PUSH1 0x0 DUP3 DUP3 SHL SWAP1 POP SWAP3 SWAP2 POP POP JUMP JUMPDEST PUSH1 0x0 PUSH1 0x8 DUP4 MUL PUSH3 0x2D5 PUSH32 0xFFFFFFFFFFFFFFFFFFFFFFFFFFFFFFFFFFFFFFFFFFFFFFFFFFFFFFFFFFFFFFFF DUP3 PUSH3 0x296 JUMP JUMPDEST PUSH3 0x2E1 DUP7 DUP4 PUSH3 0x296 JUMP JUMPDEST SWAP6 POP DUP1 NOT DUP5 AND SWAP4 POP DUP1 DUP7 AND DUP5 OR SWAP3 POP POP POP SWAP4 SWAP3 POP POP POP JUMP JUMPDEST PUSH1 0x0 DUP2 SWAP1 POP SWAP2 SWAP1 POP JUMP JUMPDEST PUSH1 0x0 DUP2 SWAP1 POP SWAP2 SWAP1 POP JUMP JUMPDEST PUSH1 0x0 PUSH3 0x32E PUSH3 0x328 PUSH3 0x322 DUP5 PUSH3 0x2F9 JUMP JUMPDEST PUSH3 0x303 JUMP JUMPDEST PUSH3 0x2F9 JUMP JUMPDEST SWAP1 POP SWAP2 SWAP1 POP JUMP JUMPDEST PUSH1 0x0 DUP2 SWAP1 POP SWAP2 SWAP1 POP JUMP JUMPDEST PUSH3 0x34A DUP4 PUSH3 0x30D JUMP JUMPDEST PUSH3 0x362 PUSH3 0x359 DUP3 PUSH3 0x335 JUMP JUMPDEST DUP5 DUP5 SLOAD PUSH3 0x2A3 JUMP JUMPDEST DUP3 SSTORE POP POP POP POP JUMP JUMPDEST PUSH1 0x0 SWAP1 JUMP JUMPDEST PUSH3 0x379 PUSH3 0x36A JUMP JUMPDEST PUSH3 0x386 DUP2 DUP5 DUP5 PUSH3 0x33F JUMP JUMPDEST POP POP POP JUMP JUMPDEST JUMPDEST DUP2 DUP2 LT ISZERO PUSH3 0x3AE JUMPI PUSH3 0x3A2 PUSH1 0x0 DUP3 PUSH3 0x36F JUMP JUMPDEST PUSH1 0x1 DUP2 ADD SWAP1 POP PUSH3 0x38C JUMP JUMPDEST POP POP JUMP JUMPDEST PUSH1 0x1F DUP3 GT ISZERO PUSH3 0x3FD JUMPI PUSH3 0x3C7 DUP2 PUSH3 0x271 JUMP JUMPDEST PUSH3 0x3D2 DUP5 PUSH3 0x286 JUMP JUMPDEST DUP2 ADD PUSH1 0x20 DUP6 LT ISZERO PUSH3 0x3E2 JUMPI DUP2 SWAP1 POP JUMPDEST PUSH3 0x3FA PUSH3 0x3F1 DUP6 PUSH3 0x286 JUMP JUMPDEST DUP4 ADD DUP3 PUSH3 0x38B JUMP JUMPDEST POP POP JUMPDEST POP POP POP JUMP JUMPDEST PUSH1 0x0 DUP3 DUP3 SHR SWAP1 POP SWAP3 SWAP2 POP POP JUMP JUMPDEST PUSH1 0x0 PUSH3 0x422 PUSH1 0x0 NOT DUP5 PUSH1 0x8 MUL PUSH3 0x402 JUMP JUMPDEST NOT DUP1 DUP4 AND SWAP2 POP POP SWAP3 SWAP2 POP POP JUMP JUMPDEST PUSH1 0x0 PUSH3 0x43D DUP4 DUP4 PUSH3 0x40F JUMP JUMPDEST SWAP2 POP DUP3 PUSH1 0x2 MUL DUP3 OR SWAP1 POP SWAP3 SWAP2 POP POP JUMP JUMPDEST PUSH3 0x458 DUP3 PUSH3 0x1D3 JUMP JUMPDEST PUSH8 0xFFFFFFFFFFFFFFFF DUP2 GT ISZERO PUSH3 0x474 JUMPI PUSH3 0x473 PUSH3 0x1DE JUMP JUMPDEST JUMPDEST PUSH3 0x480 DUP3 SLOAD PUSH3 0x23C JUMP JUMPDEST PUSH3 0x48D DUP3 DUP3 DUP6 PUSH3 0x3B2 JUMP JUMPDEST PUSH1 0x0 PUSH1 0x20 SWAP1 POP PUSH1 0x1F DUP4 GT PUSH1 0x1 DUP2 EQ PUSH3 0x4C5 JUMPI PUSH1 0x0 DUP5 ISZERO PUSH3 0x4B0 JUMPI DUP3 DUP8 ADD MLOAD SWAP1 POP JUMPDEST PUSH3 0x4BC DUP6 DUP3 PUSH3 0x42F JUMP JUMPDEST DUP7 SSTORE POP PUSH3 0x52C JUMP JUMPDEST PUSH1 0x1F NOT DUP5 AND PUSH3 0x4D5 DUP7 PUSH3 0x271 JUMP JUMPDEST PUSH1 0x0 JUMPDEST DUP3 DUP2 LT ISZERO PUSH3 0x4FF JUMPI DUP5 DUP10 ADD MLOAD DUP3 SSTORE PUSH1 0x1 DUP3 ADD SWAP2 POP PUSH1 0x20 DUP6 ADD SWAP5 POP PUSH1 0x20 DUP2 ADD SWAP1 POP PUSH3 0x4D8 JUMP JUMPDEST DUP7 DUP4 LT ISZERO PUSH3 0x51F JUMPI DUP5 DUP10 ADD MLOAD PUSH3 0x51B PUSH1 0x1F DUP10 AND DUP3 PUSH3 0x40F JUMP JUMPDEST DUP4 SSTORE POP JUMPDEST PUSH1 0x1 PUSH1 0x2 DUP9 MUL ADD DUP9 SSTORE POP POP POP JUMPDEST POP POP POP POP POP POP JUMP JUMPDEST PUSH1 0x0 DUP1 REVERT JUMPDEST PUSH1 0x0 PUSH8 0xFFFFFFFFFFFFFFFF DUP3 AND SWAP1 POP SWAP2 SWAP1 POP JUMP JUMPDEST PUSH3 0x558 DUP2 PUSH3 0x539 JUMP JUMPDEST DUP2 EQ PUSH3 0x564 JUMPI PUSH1 0x0 DUP1 REVERT JUMPDEST POP JUMP JUMPDEST PUSH1 0x0 DUP2 MLOAD SWAP1 POP PUSH3 0x578 DUP2 PUSH3 0x54D JUMP JUMPDEST SWAP3 SWAP2 POP POP JUMP JUMPDEST PUSH1 0x0 PUSH20 0xFFFFFFFFFFFFFFFFFFFFFFFFFFFFFFFFFFFFFFFF DUP3 AND SWAP1 POP SWAP2 SWAP1 POP JUMP JUMPDEST PUSH1 0x0 PUSH3 0x5AB DUP3 PUSH3 0x57E JUMP JUMPDEST SWAP1 POP SWAP2 SWAP1 POP JUMP JUMPDEST PUSH3 0x5BD DUP2 PUSH3 0x59E JUMP JUMPDEST DUP2 EQ PUSH3 0x5C9 JUMPI PUSH1 0x0 DUP1 REVERT JUMPDEST POP JUMP JUMPDEST PUSH1 0x0 DUP2 MLOAD SWAP1 POP PUSH3 0x5DD DUP2 PUSH3 0x5B2 JUMP JUMPDEST SWAP3 SWAP2 POP POP JUMP JUMPDEST PUSH1 0x0 DUP1 PUSH1 0x40 DUP4 DUP6 SUB SLT ISZERO PUSH3 0x5FD JUMPI PUSH3 0x5FC PUSH3 0x534 JUMP JUMPDEST JUMPDEST PUSH1 0x0 PUSH3 0x60D DUP6 DUP3 DUP7 ADD PUSH3 0x567 JUMP JUMPDEST SWAP3 POP POP PUSH1 0x20 PUSH3 0x620 DUP6 DUP3 DUP7 ADD PUSH3 0x5CC JUMP JUMPDEST SWAP2 POP POP SWAP3 POP SWAP3 SWAP1 POP JUMP JUMPDEST PUSH1 0x80 MLOAD PUSH2 0x2D28 PUSH3 0x646 PUSH1 0x0 CODECOPY PUSH1 0x0 PUSH2 0x4E4 ADD MSTORE PUSH2 0x2D28 PUSH1 0x0 RETURN INVALID PUSH1 0x80 PUSH1 0x40 MSTORE CALLVALUE DUP1 ISZERO PUSH2 0x10 JUMPI PUSH1 0x0 DUP1 REVERT JUMPDEST POP PUSH1 0x4 CALLDATASIZE LT PUSH2 0x12C JUMPI PUSH1 0x0 CALLDATALOAD PUSH1 0xE0 SHR DUP1 PUSH4 0x6D37A202 GT PUSH2 0xAD JUMPI DUP1 PUSH4 0x9D866985 GT PUSH2 0x71 JUMPI DUP1 PUSH4 0x9D866985 EQ PUSH2 0x377 JUMPI DUP1 PUSH4 0xC2729BFB EQ PUSH2 0x3AA JUMPI DUP1 PUSH4 0xCC642784 EQ PUSH2 0x3C6 JUMPI DUP1 PUSH4 0xD3E64FFA EQ PUSH2 0x3F9 JUMPI DUP1 PUSH4 0xFC2A88C3 EQ PUSH2 0x417 JUMPI PUSH2 0x12C JUMP JUMPDEST DUP1 PUSH4 0x6D37A202 EQ PUSH2 0x298 JUMPI DUP1 PUSH4 0x7C732F85 EQ PUSH2 0x2C8 JUMPI DUP1 PUSH4 0x8796BA8C EQ PUSH2 0x2E4 JUMPI DUP1 PUSH4 0x90E1E607 EQ PUSH2 0x314 JUMPI DUP1 PUSH4 0x9AF96A73 EQ PUSH2 0x344 JUMPI PUSH2 0x12C JUMP JUMPDEST DUP1 PUSH4 0x2E8376DC GT PUSH2 0xF4 JUMPI DUP1 PUSH4 0x2E8376DC EQ PUSH2 0x1F1 JUMPI DUP1 PUSH4 0x2EAFC905 EQ PUSH2 0x20D JUMPI DUP1 PUSH4 0x62747E42 EQ PUSH2 0x229 JUMPI DUP1 PUSH4 0x642CB091 EQ PUSH2 0x247 JUMPI DUP1 PUSH4 0x67E828BF EQ PUSH2 0x27A JUMPI PUSH2 0x12C JUMP JUMPDEST DUP1 PUSH4 0x5EF317A EQ PUSH2 0x131 JUMPI DUP1 PUSH4 0x9C1BA2E EQ PUSH2 0x166 JUMPI DUP1 PUSH4 0xBF53668 EQ PUSH2 0x184 JUMPI DUP1 PUSH4 0xCA76175 EQ PUSH2 0x1B7 JUMPI DUP1 PUSH4 0x29F0DE3F EQ PUSH2 0x1D3 JUMPI JUMPDEST PUSH1 0x0 DUP1 REVERT JUMPDEST PUSH2 0x14B PUSH1 0x4 DUP1 CALLDATASIZE SUB DUP2 ADD SWAP1 PUSH2 0x146 SWAP2 SWAP1 PUSH2 0x189A JUMP JUMPDEST PUSH2 0x435 JUMP JUMPDEST PUSH1 0x40 MLOAD PUSH2 0x15D SWAP7 SWAP6 SWAP5 SWAP4 SWAP3 SWAP2 SWAP1 PUSH2 0x18FB JUMP JUMPDEST PUSH1 0x40 MLOAD DUP1 SWAP2 SUB SWAP1 RETURN JUMPDEST PUSH2 0x16E PUSH2 0x47E JUMP JUMPDEST PUSH1 0x40 MLOAD PUSH2 0x17B SWAP2 SWAP1 PUSH2 0x197F JUMP JUMPDEST PUSH1 0x40 MLOAD DUP1 SWAP2 SUB SWAP1 RETURN JUMPDEST PUSH2 0x19E PUSH1 0x4 DUP1 CALLDATASIZE SUB DUP2 ADD SWAP1 PUSH2 0x199 SWAP2 SWAP1 PUSH2 0x189A JUMP JUMPDEST PUSH2 0x498 JUMP JUMPDEST PUSH1 0x40 MLOAD PUSH2 0x1AE SWAP5 SWAP4 SWAP3 SWAP2 SWAP1 PUSH2 0x199A JUMP JUMPDEST PUSH1 0x40 MLOAD DUP1 SWAP2 SUB SWAP1 RETURN JUMPDEST PUSH2 0x1D1 PUSH1 0x4 DUP1 CALLDATASIZE SUB DUP2 ADD SWAP1 PUSH2 0x1CC SWAP2 SWAP1 PUSH2 0x1B5B JUMP JUMPDEST PUSH2 0x4E2 JUMP JUMPDEST STOP JUMPDEST PUSH2 0x1DB PUSH2 0x5A4 JUMP JUMPDEST PUSH1 0x40 MLOAD PUSH2 0x1E8 SWAP2 SWAP1 PUSH2 0x1C65 JUMP JUMPDEST PUSH1 0x40 MLOAD DUP1 SWAP2 SUB SWAP1 RETURN JUMPDEST PUSH2 0x20B PUSH1 0x4 DUP1 CALLDATASIZE SUB DUP2 ADD SWAP1 PUSH2 0x206 SWAP2 SWAP1 PUSH2 0x1CB3 JUMP JUMPDEST PUSH2 0x632 JUMP JUMPDEST STOP JUMPDEST PUSH2 0x227 PUSH1 0x4 DUP1 CALLDATASIZE SUB DUP2 ADD SWAP1 PUSH2 0x222 SWAP2 SWAP1 PUSH2 0x1D06 JUMP JUMPDEST PUSH2 0x831 JUMP JUMPDEST STOP JUMPDEST PUSH2 0x231 PUSH2 0xBA6 JUMP JUMPDEST PUSH1 0x40 MLOAD PUSH2 0x23E SWAP2 SWAP1 PUSH2 0x1C65 JUMP JUMPDEST PUSH1 0x40 MLOAD DUP1 SWAP2 SUB SWAP1 RETURN JUMPDEST PUSH2 0x261 PUSH1 0x4 DUP1 CALLDATASIZE SUB DUP2 ADD SWAP1 PUSH2 0x25C SWAP2 SWAP1 PUSH2 0x1D6D JUMP JUMPDEST PUSH2 0xC34 JUMP JUMPDEST PUSH1 0x40 MLOAD PUSH2 0x271 SWAP5 SWAP4 SWAP3 SWAP2 SWAP1 PUSH2 0x1E55 JUMP JUMPDEST PUSH1 0x40 MLOAD DUP1 SWAP2 SUB SWAP1 RETURN JUMPDEST PUSH2 0x282 PUSH2 0xD25 JUMP JUMPDEST PUSH1 0x40 MLOAD PUSH2 0x28F SWAP2 SWAP1 PUSH2 0x1EF1 JUMP JUMPDEST PUSH1 0x40 MLOAD DUP1 SWAP2 SUB SWAP1 RETURN JUMPDEST PUSH2 0x2B2 PUSH1 0x4 DUP1 CALLDATASIZE SUB DUP2 ADD SWAP1 PUSH2 0x2AD SWAP2 SWAP1 PUSH2 0x1F13 JUMP JUMPDEST PUSH2 0xDB3 JUMP JUMPDEST PUSH1 0x40 MLOAD PUSH2 0x2BF SWAP2 SWAP1 PUSH2 0x2044 JUMP JUMPDEST PUSH1 0x40 MLOAD DUP1 SWAP2 SUB SWAP1 RETURN JUMPDEST PUSH2 0x2E2 PUSH1 0x4 DUP1 CALLDATASIZE SUB DUP2 ADD SWAP1 PUSH2 0x2DD SWAP2 SWAP1 PUSH2 0x2092 JUMP JUMPDEST PUSH2 0xE5E JUMP JUMPDEST STOP JUMPDEST PUSH2 0x2FE PUSH1 0x4 DUP1 CALLDATASIZE SUB DUP2 ADD SWAP1 PUSH2 0x2F9 SWAP2 SWAP1 PUSH2 0x1F13 JUMP JUMPDEST PUSH2 0xFF8 JUMP JUMPDEST PUSH1 0x40 MLOAD PUSH2 0x30B SWAP2 SWAP1 PUSH2 0x20F4 JUMP JUMPDEST PUSH1 0x40 MLOAD DUP1 SWAP2 SUB SWAP1 RETURN JUMPDEST PUSH2 0x32E PUSH1 0x4 DUP1 CALLDATASIZE SUB DUP2 ADD SWAP1 PUSH2 0x329 SWAP2 SWAP1 PUSH2 0x1F13 JUMP JUMPDEST PUSH2 0x101C JUMP JUMPDEST PUSH1 0x40 MLOAD PUSH2 0x33B SWAP2 SWAP1 PUSH2 0x20F4 JUMP JUMPDEST PUSH1 0x40 MLOAD DUP1 SWAP2 SUB SWAP1 RETURN JUMPDEST PUSH2 0x35E PUSH1 0x4 DUP1 CALLDATASIZE SUB DUP2 ADD SWAP1 PUSH2 0x359 SWAP2 SWAP1 PUSH2 0x210F JUMP JUMPDEST PUSH2 0x1049 JUMP JUMPDEST PUSH1 0x40 MLOAD PUSH2 0x36E SWAP5 SWAP4 SWAP3 SWAP2 SWAP1 PUSH2 0x214F JUMP JUMPDEST PUSH1 0x40 MLOAD DUP1 SWAP2 SUB SWAP1 RETURN JUMPDEST PUSH2 0x391 PUSH1 0x4 DUP1 CALLDATASIZE SUB DUP2 ADD SWAP1 PUSH2 0x38C SWAP2 SWAP1 PUSH2 0x2194 JUMP JUMPDEST PUSH2 0x10A3 JUMP JUMPDEST PUSH1 0x40 MLOAD PUSH2 0x3A1 SWAP5 SWAP4 SWAP3 SWAP2 SWAP1 PUSH2 0x21C1 JUMP JUMPDEST PUSH1 0x40 MLOAD DUP1 SWAP2 SUB SWAP1 RETURN JUMPDEST PUSH2 0x3C4 PUSH1 0x4 DUP1 CALLDATASIZE SUB DUP2 ADD SWAP1 PUSH2 0x3BF SWAP2 SWAP1 PUSH2 0x2214 JUMP JUMPDEST PUSH2 0x11FD JUMP JUMPDEST STOP JUMPDEST PUSH2 0x3E0 PUSH1 0x4 DUP1 CALLDATASIZE SUB DUP2 ADD SWAP1 PUSH2 0x3DB SWAP2 SWAP1 PUSH2 0x189A JUMP JUMPDEST PUSH2 0x14D3 JUMP JUMPDEST PUSH1 0x40 MLOAD PUSH2 0x3F0 SWAP5 SWAP4 SWAP3 SWAP2 SWAP1 PUSH2 0x214F JUMP JUMPDEST PUSH1 0x40 MLOAD DUP1 SWAP2 SUB SWAP1 RETURN JUMPDEST PUSH2 0x401 PUSH2 0x1510 JUMP JUMPDEST PUSH1 0x40 MLOAD PUSH2 0x40E SWAP2 SWAP1 PUSH2 0x23E5 JUMP JUMPDEST PUSH1 0x40 MLOAD DUP1 SWAP2 SUB SWAP1 RETURN JUMPDEST PUSH2 0x41F PUSH2 0x16D4 JUMP JUMPDEST PUSH1 0x40 MLOAD PUSH2 0x42C SWAP2 SWAP1 PUSH2 0x20F4 JUMP JUMPDEST PUSH1 0x40 MLOAD DUP1 SWAP2 SUB SWAP1 RETURN JUMPDEST PUSH1 0xF PUSH1 0x20 MSTORE DUP1 PUSH1 0x0 MSTORE PUSH1 0x40 PUSH1 0x0 KECCAK256 PUSH1 0x0 SWAP2 POP SWAP1 POP DUP1 PUSH1 0x0 ADD SLOAD SWAP1 DUP1 PUSH1 0x1 ADD SLOAD SWAP1 DUP1 PUSH1 0x2 ADD SLOAD SWAP1 DUP1 PUSH1 0x3 ADD SLOAD SWAP1 DUP1 PUSH1 0x4 ADD PUSH1 0x0 SWAP1 SLOAD SWAP1 PUSH2 0x100 EXP SWAP1 DIV PUSH1 0xFF AND SWAP1 DUP1 PUSH1 0x5 ADD SLOAD SWAP1 POP DUP7 JUMP JUMPDEST PUSH1 0x8 PUSH1 0x4 SWAP1 SLOAD SWAP1 PUSH2 0x100 EXP SWAP1 DIV PUSH8 0xFFFFFFFFFFFFFFFF AND DUP2 JUMP JUMPDEST PUSH1 0xC PUSH1 0x20 MSTORE DUP1 PUSH1 0x0 MSTORE PUSH1 0x40 PUSH1 0x0 KECCAK256 PUSH1 0x0 SWAP2 POP SWAP1 POP DUP1 PUSH1 0x0 ADD PUSH1 0x0 SWAP1 SLOAD SWAP1 PUSH2 0x100 EXP SWAP1 DIV PUSH1 0xFF AND SWAP1 DUP1 PUSH1 0x1 ADD SLOAD SWAP1 DUP1 PUSH1 0x2 ADD SLOAD SWAP1 DUP1 PUSH1 0x3 ADD PUSH1 0x0 SWAP1 SLOAD SWAP1 PUSH2 0x100 EXP SWAP1 DIV PUSH1 0xFF AND SWAP1 POP DUP5 JUMP JUMPDEST PUSH32 0x0 PUSH20 0xFFFFFFFFFFFFFFFFFFFFFFFFFFFFFFFFFFFFFFFF AND CALLER PUSH20 0xFFFFFFFFFFFFFFFFFFFFFFFFFFFFFFFFFFFFFFFF AND EQ PUSH2 0x567 JUMPI PUSH1 0x40 MLOAD PUSH32 0xC6829F8300000000000000000000000000000000000000000000000000000000 DUP2 MSTORE PUSH1 0x4 ADD PUSH1 0x40 MLOAD DUP1 SWAP2 SUB SWAP1 REVERT JUMPDEST PUSH2 0x572 DUP4 DUP4 DUP4 PUSH2 0x16DA JUMP JUMPDEST DUP3 PUSH32 0x85E1543BF2F84FE80C6BADBCE3648C8539AD1DF4D2B3D822938CA0538BE727E6 PUSH1 0x40 MLOAD PUSH1 0x40 MLOAD DUP1 SWAP2 SUB SWAP1 LOG2 POP POP POP JUMP JUMPDEST PUSH1 0x3 DUP1 SLOAD PUSH2 0x5B1 SWAP1 PUSH2 0x2436 JUMP JUMPDEST DUP1 PUSH1 0x1F ADD PUSH1 0x20 DUP1 SWAP2 DIV MUL PUSH1 0x20 ADD PUSH1 0x40 MLOAD SWAP1 DUP2 ADD PUSH1 0x40 MSTORE DUP1 SWAP3 SWAP2 SWAP1 DUP2 DUP2 MSTORE PUSH1 0x20 ADD DUP3 DUP1 SLOAD PUSH2 0x5DD SWAP1 PUSH2 0x2436 JUMP JUMPDEST DUP1 ISZERO PUSH2 0x62A JUMPI DUP1 PUSH1 0x1F LT PUSH2 0x5FF JUMPI PUSH2 0x100 DUP1 DUP4 SLOAD DIV MUL DUP4 MSTORE SWAP2 PUSH1 0x20 ADD SWAP2 PUSH2 0x62A JUMP JUMPDEST DUP3 ADD SWAP2 SWAP1 PUSH1 0x0 MSTORE PUSH1 0x20 PUSH1 0x0 KECCAK256 SWAP1 JUMPDEST DUP2 SLOAD DUP2 MSTORE SWAP1 PUSH1 0x1 ADD SWAP1 PUSH1 0x20 ADD DUP1 DUP4 GT PUSH2 0x60D JUMPI DUP3 SWAP1 SUB PUSH1 0x1F AND DUP3 ADD SWAP2 JUMPDEST POP POP POP POP POP DUP2 JUMP JUMPDEST PUSH1 0xC PUSH1 0x0 CALLER PUSH20 0xFFFFFFFFFFFFFFFFFFFFFFFFFFFFFFFFFFFFFFFF AND PUSH20 0xFFFFFFFFFFFFFFFFFFFFFFFFFFFFFFFFFFFFFFFF AND DUP2 MSTORE PUSH1 0x20 ADD SWAP1 DUP2 MSTORE PUSH1 0x20 ADD PUSH1 0x0 KECCAK256 PUSH1 0x3 ADD PUSH1 0x0 SWAP1 SLOAD SWAP1 PUSH2 0x100 EXP SWAP1 DIV PUSH1 0xFF AND ISZERO PUSH2 0x6C2 JUMPI PUSH1 0x40 MLOAD PUSH32 0x8C379A000000000000000000000000000000000000000000000000000000000 DUP2 MSTORE PUSH1 0x4 ADD PUSH2 0x6B9 SWAP1 PUSH2 0x24D9 JUMP JUMPDEST PUSH1 0x40 MLOAD DUP1 SWAP2 SUB SWAP1 REVERT JUMPDEST PUSH1 0x0 PUSH1 0x40 MLOAD DUP1 PUSH1 0x80 ADD PUSH1 0x40 MSTORE DUP1 DUP6 DUP2 MSTORE PUSH1 0x20 ADD DUP5 DUP2 MSTORE PUSH1 0x20 ADD DUP4 DUP2 MSTORE PUSH1 0x20 ADD PUSH1 0x1 ISZERO ISZERO DUP2 MSTORE POP SWAP1 POP PUSH1 0xD PUSH1 0x0 DUP4 DUP2 MSTORE PUSH1 0x20 ADD SWAP1 DUP2 MSTORE PUSH1 0x20 ADD PUSH1 0x0 KECCAK256 DUP2 SWAP1 DUP1 PUSH1 0x1 DUP2 SLOAD ADD DUP1 DUP3 SSTORE DUP1 SWAP2 POP POP PUSH1 0x1 SWAP1 SUB SWAP1 PUSH1 0x0 MSTORE PUSH1 0x20 PUSH1 0x0 KECCAK256 SWAP1 PUSH1 0x4 MUL ADD PUSH1 0x0 SWAP1 SWAP2 SWAP1 SWAP2 SWAP1 SWAP2 POP PUSH1 0x0 DUP3 ADD MLOAD DUP2 PUSH1 0x0 ADD SSTORE PUSH1 0x20 DUP3 ADD MLOAD DUP2 PUSH1 0x1 ADD SSTORE PUSH1 0x40 DUP3 ADD MLOAD DUP2 PUSH1 0x2 ADD SSTORE PUSH1 0x60 DUP3 ADD MLOAD DUP2 PUSH1 0x3 ADD PUSH1 0x0 PUSH2 0x100 EXP DUP2 SLOAD DUP2 PUSH1 0xFF MUL NOT AND SWAP1 DUP4 ISZERO ISZERO MUL OR SWAP1 SSTORE POP POP POP DUP1 PUSH1 0xE PUSH1 0x0 CALLER PUSH20 0xFFFFFFFFFFFFFFFFFFFFFFFFFFFFFFFFFFFFFFFF AND PUSH20 0xFFFFFFFFFFFFFFFFFFFFFFFFFFFFFFFFFFFFFFFF AND DUP2 MSTORE PUSH1 0x20 ADD SWAP1 DUP2 MSTORE PUSH1 0x20 ADD PUSH1 0x0 KECCAK256 PUSH1 0x0 DUP3 ADD MLOAD DUP2 PUSH1 0x0 ADD SSTORE PUSH1 0x20 DUP3 ADD MLOAD DUP2 PUSH1 0x1 ADD SSTORE PUSH1 0x40 DUP3 ADD MLOAD DUP2 PUSH1 0x2 ADD SSTORE PUSH1 0x60 DUP3 ADD MLOAD DUP2 PUSH1 0x3 ADD PUSH1 0x0 PUSH2 0x100 EXP DUP2 SLOAD DUP2 PUSH1 0xFF MUL NOT AND SWAP1 DUP4 ISZERO ISZERO MUL OR SWAP1 SSTORE POP SWAP1 POP POP CALLER PUSH20 0xFFFFFFFFFFFFFFFFFFFFFFFFFFFFFFFFFFFFFFFF AND PUSH32 0x539FCE68FD46DD4D63494EC1197510A27BFB96EB9B09F050EEC103BBDF2B315B PUSH1 0x40 MLOAD PUSH1 0x40 MLOAD DUP1 SWAP2 SUB SWAP1 LOG2 POP POP POP POP JUMP JUMPDEST PUSH1 0xC PUSH1 0x0 CALLER PUSH20 0xFFFFFFFFFFFFFFFFFFFFFFFFFFFFFFFFFFFFFFFF AND PUSH20 0xFFFFFFFFFFFFFFFFFFFFFFFFFFFFFFFFFFFFFFFF AND DUP2 MSTORE PUSH1 0x20 ADD SWAP1 DUP2 MSTORE PUSH1 0x20 ADD PUSH1 0x0 KECCAK256 PUSH1 0x3 ADD PUSH1 0x0 SWAP1 SLOAD SWAP1 PUSH2 0x100 EXP SWAP1 DIV PUSH1 0xFF AND PUSH2 0x8C0 JUMPI PUSH1 0x40 MLOAD PUSH32 0x8C379A000000000000000000000000000000000000000000000000000000000 DUP2 MSTORE PUSH1 0x4 ADD PUSH2 0x8B7 SWAP1 PUSH2 0x2545 JUMP JUMPDEST PUSH1 0x40 MLOAD DUP1 SWAP2 SUB SWAP1 REVERT JUMPDEST PUSH1 0xE PUSH1 0x0 DUP4 PUSH20 0xFFFFFFFFFFFFFFFFFFFFFFFFFFFFFFFFFFFFFFFF AND PUSH20 0xFFFFFFFFFFFFFFFFFFFFFFFFFFFFFFFFFFFFFFFF AND DUP2 MSTORE PUSH1 0x20 ADD SWAP1 DUP2 MSTORE PUSH1 0x20 ADD PUSH1 0x0 KECCAK256 PUSH1 0x3 ADD PUSH1 0x0 SWAP1 SLOAD SWAP1 PUSH2 0x100 EXP SWAP1 DIV PUSH1 0xFF AND PUSH2 0x94F JUMPI PUSH1 0x40 MLOAD PUSH32 0x8C379A000000000000000000000000000000000000000000000000000000000 DUP2 MSTORE PUSH1 0x4 ADD PUSH2 0x946 SWAP1 PUSH2 0x25D7 JUMP JUMPDEST PUSH1 0x40 MLOAD DUP1 SWAP2 SUB SWAP1 REVERT JUMPDEST PUSH1 0x0 PUSH1 0x40 MLOAD DUP1 PUSH1 0xC0 ADD PUSH1 0x40 MSTORE DUP1 DUP7 DUP2 MSTORE PUSH1 0x20 ADD DUP6 DUP2 MSTORE PUSH1 0x20 ADD TIMESTAMP DUP2 MSTORE PUSH1 0x20 ADD DUP4 DUP2 MSTORE PUSH1 0x20 ADD PUSH1 0x1 ISZERO ISZERO DUP2 MSTORE PUSH1 0x20 ADD PUSH3 0x278D00 TIMESTAMP PUSH2 0x98C SWAP2 SWAP1 PUSH2 0x2626 JUMP JUMPDEST DUP2 MSTORE POP SWAP1 POP PUSH1 0x0 PUSH1 0x40 MLOAD DUP1 PUSH1 0x80 ADD PUSH1 0x40 MSTORE DUP1 DUP4 DUP2 MSTORE PUSH1 0x20 ADD CALLER PUSH20 0xFFFFFFFFFFFFFFFFFFFFFFFFFFFFFFFFFFFFFFFF AND DUP2 MSTORE PUSH1 0x20 ADD DUP6 PUSH20 0xFFFFFFFFFFFFFFFFFFFFFFFFFFFFFFFFFFFFFFFF AND DUP2 MSTORE PUSH1 0x20 ADD PUSH1 0x0 ISZERO ISZERO DUP2 MSTORE POP SWAP1 POP PUSH1 0xB PUSH1 0x0 DUP6 PUSH20 0xFFFFFFFFFFFFFFFFFFFFFFFFFFFFFFFFFFFFFFFF AND PUSH20 0xFFFFFFFFFFFFFFFFFFFFFFFFFFFFFFFFFFFFFFFF AND DUP2 MSTORE PUSH1 0x20 ADD SWAP1 DUP2 MSTORE PUSH1 0x20 ADD PUSH1 0x0 KECCAK256 DUP2 SWAP1 DUP1 PUSH1 0x1 DUP2 SLOAD ADD DUP1 DUP3 SSTORE DUP1 SWAP2 POP POP PUSH1 0x1 SWAP1 SUB SWAP1 PUSH1 0x0 MSTORE PUSH1 0x20 PUSH1 0x0 KECCAK256 SWAP1 PUSH1 0x8 MUL ADD PUSH1 0x0 SWAP1 SWAP2 SWAP1 SWAP2 SWAP1 SWAP2 POP PUSH1 0x0 DUP3 ADD MLOAD DUP2 PUSH1 0x0 ADD PUSH1 0x0 DUP3 ADD MLOAD DUP2 PUSH1 0x0 ADD SSTORE PUSH1 0x20 DUP3 ADD MLOAD DUP2 PUSH1 0x1 ADD SSTORE PUSH1 0x40 DUP3 ADD MLOAD DUP2 PUSH1 0x2 ADD SSTORE PUSH1 0x60 DUP3 ADD MLOAD DUP2 PUSH1 0x3 ADD SSTORE PUSH1 0x80 DUP3 ADD MLOAD DUP2 PUSH1 0x4 ADD PUSH1 0x0 PUSH2 0x100 EXP DUP2 SLOAD DUP2 PUSH1 0xFF MUL NOT AND SWAP1 DUP4 ISZERO ISZERO MUL OR SWAP1 SSTORE POP PUSH1 0xA0 DUP3 ADD MLOAD DUP2 PUSH1 0x5 ADD SSTORE POP POP PUSH1 0x20 DUP3 ADD MLOAD DUP2 PUSH1 0x6 ADD PUSH1 0x0 PUSH2 0x100 EXP DUP2 SLOAD DUP2 PUSH20 0xFFFFFFFFFFFFFFFFFFFFFFFFFFFFFFFFFFFFFFFF MUL NOT AND SWAP1 DUP4 PUSH20 0xFFFFFFFFFFFFFFFFFFFFFFFFFFFFFFFFFFFFFFFF AND MUL OR SWAP1 SSTORE POP PUSH1 0x40 DUP3 ADD MLOAD DUP2 PUSH1 0x7 ADD PUSH1 0x0 PUSH2 0x100 EXP DUP2 SLOAD DUP2 PUSH20 0xFFFFFFFFFFFFFFFFFFFFFFFFFFFFFFFFFFFFFFFF MUL NOT AND SWAP1 DUP4 PUSH20 0xFFFFFFFFFFFFFFFFFFFFFFFFFFFFFFFFFFFFFFFF AND MUL OR SWAP1 SSTORE POP PUSH1 0x60 DUP3 ADD MLOAD DUP2 PUSH1 0x7 ADD PUSH1 0x14 PUSH2 0x100 EXP DUP2 SLOAD DUP2 PUSH1 0xFF MUL NOT AND SWAP1 DUP4 ISZERO ISZERO MUL OR SWAP1 SSTORE POP POP POP DUP4 PUSH20 0xFFFFFFFFFFFFFFFFFFFFFFFFFFFFFFFFFFFFFFFF AND PUSH32 0xD7314C5E85E24751B97C4AF5BF2002B2FC093E77D2D0A27785467743C21A176 PUSH1 0x40 MLOAD PUSH1 0x40 MLOAD DUP1 SWAP2 SUB SWAP1 LOG2 POP POP POP POP POP POP JUMP JUMPDEST PUSH1 0x2 DUP1 SLOAD PUSH2 0xBB3 SWAP1 PUSH2 0x2436 JUMP JUMPDEST DUP1 PUSH1 0x1F ADD PUSH1 0x20 DUP1 SWAP2 DIV MUL PUSH1 0x20 ADD PUSH1 0x40 MLOAD SWAP1 DUP2 ADD PUSH1 0x40 MSTORE DUP1 SWAP3 SWAP2 SWAP1 DUP2 DUP2 MSTORE PUSH1 0x20 ADD DUP3 DUP1 SLOAD PUSH2 0xBDF SWAP1 PUSH2 0x2436 JUMP JUMPDEST DUP1 ISZERO PUSH2 0xC2C JUMPI DUP1 PUSH1 0x1F LT PUSH2 0xC01 JUMPI PUSH2 0x100 DUP1 DUP4 SLOAD DIV MUL DUP4 MSTORE SWAP2 PUSH1 0x20 ADD SWAP2 PUSH2 0xC2C JUMP JUMPDEST DUP3 ADD SWAP2 SWAP1 PUSH1 0x0 MSTORE PUSH1 0x20 PUSH1 0x0 KECCAK256 SWAP1 JUMPDEST DUP2 SLOAD DUP2 MSTORE SWAP1 PUSH1 0x1 ADD SWAP1 PUSH1 0x20 ADD DUP1 DUP4 GT PUSH2 0xC0F JUMPI DUP3 SWAP1 SUB PUSH1 0x1F AND DUP3 ADD SWAP2 JUMPDEST POP POP POP POP POP DUP2 JUMP JUMPDEST PUSH1 0xB PUSH1 0x20 MSTORE DUP2 PUSH1 0x0 MSTORE PUSH1 0x40 PUSH1 0x0 KECCAK256 DUP2 DUP2 SLOAD DUP2 LT PUSH2 0xC50 JUMPI PUSH1 0x0 DUP1 REVERT JUMPDEST SWAP1 PUSH1 0x0 MSTORE PUSH1 0x20 PUSH1 0x0 KECCAK256 SWAP1 PUSH1 0x8 MUL ADD PUSH1 0x0 SWAP2 POP SWAP2 POP POP DUP1 PUSH1 0x0 ADD PUSH1 0x40 MLOAD DUP1 PUSH1 0xC0 ADD PUSH1 0x40 MSTORE SWAP1 DUP2 PUSH1 0x0 DUP3 ADD SLOAD DUP2 MSTORE PUSH1 0x20 ADD PUSH1 0x1 DUP3 ADD SLOAD DUP2 MSTORE PUSH1 0x20 ADD PUSH1 0x2 DUP3 ADD SLOAD DUP2 MSTORE PUSH1 0x20 ADD PUSH1 0x3 DUP3 ADD SLOAD DUP2 MSTORE PUSH1 0x20 ADD PUSH1 0x4 DUP3 ADD PUSH1 0x0 SWAP1 SLOAD SWAP1 PUSH2 0x100 EXP SWAP1 DIV PUSH1 0xFF AND ISZERO ISZERO ISZERO ISZERO DUP2 MSTORE PUSH1 0x20 ADD PUSH1 0x5 DUP3 ADD SLOAD DUP2 MSTORE POP POP SWAP1 DUP1 PUSH1 0x6 ADD PUSH1 0x0 SWAP1 SLOAD SWAP1 PUSH2 0x100 EXP SWAP1 DIV PUSH20 0xFFFFFFFFFFFFFFFFFFFFFFFFFFFFFFFFFFFFFFFF AND SWAP1 DUP1 PUSH1 0x7 ADD PUSH1 0x0 SWAP1 SLOAD SWAP1 PUSH2 0x100 EXP SWAP1 DIV PUSH20 0xFFFFFFFFFFFFFFFFFFFFFFFFFFFFFFFFFFFFFFFF AND SWAP1 DUP1 PUSH1 0x7 ADD PUSH1 0x14 SWAP1 SLOAD SWAP1 PUSH2 0x100 EXP SWAP1 DIV PUSH1 0xFF AND SWAP1 POP DUP5 JUMP JUMPDEST PUSH1 0x9 DUP1 SLOAD PUSH2 0xD32 SWAP1 PUSH2 0x2436 JUMP JUMPDEST DUP1 PUSH1 0x1F ADD PUSH1 0x20 DUP1 SWAP2 DIV MUL PUSH1 0x20 ADD PUSH1 0x40 MLOAD SWAP1 DUP2 ADD PUSH1 0x40 MSTORE DUP1 SWAP3 SWAP2 SWAP1 DUP2 DUP2 MSTORE PUSH1 0x20 ADD DUP3 DUP1 SLOAD PUSH2 0xD5E SWAP1 PUSH2 0x2436 JUMP JUMPDEST DUP1 ISZERO PUSH2 0xDAB JUMPI DUP1 PUSH1 0x1F LT PUSH2 0xD80 JUMPI PUSH2 0x100 DUP1 DUP4 SLOAD DIV MUL DUP4 MSTORE SWAP2 PUSH1 0x20 ADD SWAP2 PUSH2 0xDAB JUMP JUMPDEST DUP3 ADD SWAP2 SWAP1 PUSH1 0x0 MSTORE PUSH1 0x20 PUSH1 0x0 KECCAK256 SWAP1 JUMPDEST DUP2 SLOAD DUP2 MSTORE SWAP1 PUSH1 0x1 ADD SWAP1 PUSH1 0x20 ADD DUP1 DUP4 GT PUSH2 0xD8E JUMPI DUP3 SWAP1 SUB PUSH1 0x1F AND DUP3 ADD SWAP2 JUMPDEST POP POP POP POP POP DUP2 JUMP JUMPDEST PUSH1 0x60 PUSH1 0xD PUSH1 0x0 DUP4 DUP2 MSTORE PUSH1 0x20 ADD SWAP1 DUP2 MSTORE PUSH1 0x20 ADD PUSH1 0x0 KECCAK256 DUP1 SLOAD DUP1 PUSH1 0x20 MUL PUSH1 0x20 ADD PUSH1 0x40 MLOAD SWAP1 DUP2 ADD PUSH1 0x40 MSTORE DUP1 SWAP3 SWAP2 SWAP1 DUP2 DUP2 MSTORE PUSH1 0x20 ADD PUSH1 0x0 SWAP1 JUMPDEST DUP3 DUP3 LT ISZERO PUSH2 0xE53 JUMPI DUP4 DUP3 SWAP1 PUSH1 0x0 MSTORE PUSH1 0x20 PUSH1 0x0 KECCAK256 SWAP1 PUSH1 0x4 MUL ADD PUSH1 0x40 MLOAD DUP1 PUSH1 0x80 ADD PUSH1 0x40 MSTORE SWAP1 DUP2 PUSH1 0x0 DUP3 ADD SLOAD DUP2 MSTORE PUSH1 0x20 ADD PUSH1 0x1 DUP3 ADD SLOAD DUP2 MSTORE PUSH1 0x20 ADD PUSH1 0x2 DUP3 ADD SLOAD DUP2 MSTORE PUSH1 0x20 ADD PUSH1 0x3 DUP3 ADD PUSH1 0x0 SWAP1 SLOAD SWAP1 PUSH2 0x100 EXP SWAP1 DIV PUSH1 0xFF AND ISZERO ISZERO ISZERO ISZERO DUP2 MSTORE POP POP DUP2 MSTORE PUSH1 0x20 ADD SWAP1 PUSH1 0x1 ADD SWAP1 PUSH2 0xDE8 JUMP JUMPDEST POP POP POP POP SWAP1 POP SWAP2 SWAP1 POP JUMP JUMPDEST PUSH1 0xE PUSH1 0x0 CALLER PUSH20 0xFFFFFFFFFFFFFFFFFFFFFFFFFFFFFFFFFFFFFFFF AND PUSH20 0xFFFFFFFFFFFFFFFFFFFFFFFFFFFFFFFFFFFFFFFF AND DUP2 MSTORE PUSH1 0x20 ADD SWAP1 DUP2 MSTORE PUSH1 0x20 ADD PUSH1 0x0 KECCAK256 PUSH1 0x3 ADD PUSH1 0x0 SWAP1 SLOAD SWAP1 PUSH2 0x100 EXP SWAP1 DIV PUSH1 0xFF AND ISZERO PUSH2 0xEEE JUMPI PUSH1 0x40 MLOAD PUSH32 0x8C379A000000000000000000000000000000000000000000000000000000000 DUP2 MSTORE PUSH1 0x4 ADD PUSH2 0xEE5 SWAP1 PUSH2 0x24D9 JUMP JUMPDEST PUSH1 0x40 MLOAD DUP1 SWAP2 SUB SWAP1 REVERT JUMPDEST PUSH1 0x0 PUSH1 0x40 MLOAD DUP1 PUSH1 0x80 ADD PUSH1 0x40 MSTORE DUP1 DUP4 ISZERO ISZERO DUP2 MSTORE PUSH1 0x20 ADD DUP6 DUP2 MSTORE PUSH1 0x20 ADD DUP5 DUP2 MSTORE PUSH1 0x20 ADD PUSH1 0x1 ISZERO ISZERO DUP2 MSTORE POP SWAP1 POP DUP1 PUSH1 0xC PUSH1 0x0 CALLER PUSH20 0xFFFFFFFFFFFFFFFFFFFFFFFFFFFFFFFFFFFFFFFF AND PUSH20 0xFFFFFFFFFFFFFFFFFFFFFFFFFFFFFFFFFFFFFFFF AND DUP2 MSTORE PUSH1 0x20 ADD SWAP1 DUP2 MSTORE PUSH1 0x20 ADD PUSH1 0x0 KECCAK256 PUSH1 0x0 DUP3 ADD MLOAD DUP2 PUSH1 0x0 ADD PUSH1 0x0 PUSH2 0x100 EXP DUP2 SLOAD DUP2 PUSH1 0xFF MUL NOT AND SWAP1 DUP4 ISZERO ISZERO MUL OR SWAP1 SSTORE POP PUSH1 0x20 DUP3 ADD MLOAD DUP2 PUSH1 0x1 ADD SSTORE PUSH1 0x40 DUP3 ADD MLOAD DUP2 PUSH1 0x2 ADD SSTORE PUSH1 0x60 DUP3 ADD MLOAD DUP2 PUSH1 0x3 ADD PUSH1 0x0 PUSH2 0x100 EXP DUP2 SLOAD DUP2 PUSH1 0xFF MUL NOT AND SWAP1 DUP4 ISZERO ISZERO MUL OR SWAP1 SSTORE POP SWAP1 POP POP CALLER PUSH20 0xFFFFFFFFFFFFFFFFFFFFFFFFFFFFFFFFFFFFFFFF AND PUSH32 0xB7A62362DD2BE01445191C65D35B774EA413E6B88E82B9CA3B52AB8A4F5E2450 PUSH1 0x40 MLOAD PUSH1 0x40 MLOAD DUP1 SWAP2 SUB SWAP1 LOG2 POP POP POP POP JUMP JUMPDEST PUSH1 0x5 DUP2 DUP2 SLOAD DUP2 LT PUSH2 0x1008 JUMPI PUSH1 0x0 DUP1 REVERT JUMPDEST SWAP1 PUSH1 0x0 MSTORE PUSH1 0x20 PUSH1 0x0 KECCAK256 ADD PUSH1 0x0 SWAP2 POP SWAP1 POP SLOAD DUP2 JUMP JUMPDEST PUSH1 0x0 PUSH32 0x666F6F6261720000000000000000000000000000000000000000000000000000 PUSH1 0x0 SHL SWAP1 POP SWAP2 SWAP1 POP JUMP JUMPDEST PUSH1 0xD PUSH1 0x20 MSTORE DUP2 PUSH1 0x0 MSTORE PUSH1 0x40 PUSH1 0x0 KECCAK256 DUP2 DUP2 SLOAD DUP2 LT PUSH2 0x1065 JUMPI PUSH1 0x0 DUP1 REVERT JUMPDEST SWAP1 PUSH1 0x0 MSTORE PUSH1 0x20 PUSH1 0x0 KECCAK256 SWAP1 PUSH1 0x4 MUL ADD PUSH1 0x0 SWAP2 POP SWAP2 POP POP DUP1 PUSH1 0x0 ADD SLOAD SWAP1 DUP1 PUSH1 0x1 ADD SLOAD SWAP1 DUP1 PUSH1 0x2 ADD SLOAD SWAP1 DUP1 PUSH1 0x3 ADD PUSH1 0x0 SWAP1 SLOAD SWAP1 PUSH2 0x100 EXP SWAP1 DIV PUSH1 0xFF AND SWAP1 POP DUP5 JUMP JUMPDEST PUSH1 0x4 PUSH1 0x20 MSTORE DUP1 PUSH1 0x0 MSTORE PUSH1 0x40 PUSH1 0x0 KECCAK256 PUSH1 0x0 SWAP2 POP SWAP1 POP DUP1 PUSH1 0x0 ADD PUSH1 0x0 SWAP1 SLOAD SWAP1 PUSH2 0x100 EXP SWAP1 DIV PUSH1 0xFF AND SWAP1 DUP1 PUSH1 0x0 ADD PUSH1 0x1 SWAP1 SLOAD SWAP1 PUSH2 0x100 EXP SWAP1 DIV PUSH1 0xFF AND SWAP1 DUP1 PUSH1 0x1 ADD DUP1 SLOAD PUSH2 0x10EC SWAP1 PUSH2 0x2436 JUMP JUMPDEST DUP1 PUSH1 0x1F ADD PUSH1 0x20 DUP1 SWAP2 DIV MUL PUSH1 0x20 ADD PUSH1 0x40 MLOAD SWAP1 DUP2 ADD PUSH1 0x40 MSTORE DUP1 SWAP3 SWAP2 SWAP1 DUP2 DUP2 MSTORE PUSH1 0x20 ADD DUP3 DUP1 SLOAD PUSH2 0x1118 SWAP1 PUSH2 0x2436 JUMP JUMPDEST DUP1 ISZERO PUSH2 0x1165 JUMPI DUP1 PUSH1 0x1F LT PUSH2 0x113A JUMPI PUSH2 0x100 DUP1 DUP4 SLOAD DIV MUL DUP4 MSTORE SWAP2 PUSH1 0x20 ADD SWAP2 PUSH2 0x1165 JUMP JUMPDEST DUP3 ADD SWAP2 SWAP1 PUSH1 0x0 MSTORE PUSH1 0x20 PUSH1 0x0 KECCAK256 SWAP1 JUMPDEST DUP2 SLOAD DUP2 MSTORE SWAP1 PUSH1 0x1 ADD SWAP1 PUSH1 0x20 ADD DUP1 DUP4 GT PUSH2 0x1148 JUMPI DUP3 SWAP1 SUB PUSH1 0x1F AND DUP3 ADD SWAP2 JUMPDEST POP POP POP POP POP SWAP1 DUP1 PUSH1 0x2 ADD DUP1 SLOAD PUSH2 0x117A SWAP1 PUSH2 0x2436 JUMP JUMPDEST DUP1 PUSH1 0x1F ADD PUSH1 0x20 DUP1 SWAP2 DIV MUL PUSH1 0x20 ADD PUSH1 0x40 MLOAD SWAP1 DUP2 ADD PUSH1 0x40 MSTORE DUP1 SWAP3 SWAP2 SWAP1 DUP2 DUP2 MSTORE PUSH1 0x20 ADD DUP3 DUP1 SLOAD PUSH2 0x11A6 SWAP1 PUSH2 0x2436 JUMP JUMPDEST DUP1 ISZERO PUSH2 0x11F3 JUMPI DUP1 PUSH1 0x1F LT PUSH2 0x11C8 JUMPI PUSH2 0x100 DUP1 DUP4 SLOAD DIV MUL DUP4 MSTORE SWAP2 PUSH1 0x20 ADD SWAP2 PUSH2 0x11F3 JUMP JUMPDEST DUP3 ADD SWAP2 SWAP1 PUSH1 0x0 MSTORE PUSH1 0x20 PUSH1 0x0 KECCAK256 SWAP1 JUMPDEST DUP2 SLOAD DUP2 MSTORE SWAP1 PUSH1 0x1 ADD SWAP1 PUSH1 0x20 ADD DUP1 DUP4 GT PUSH2 0x11D6 JUMPI DUP3 SWAP1 SUB PUSH1 0x1F AND DUP3 ADD SWAP2 JUMPDEST POP POP POP POP POP SWAP1 POP DUP5 JUMP JUMPDEST PUSH1 0xE PUSH1 0x0 CALLER PUSH20 0xFFFFFFFFFFFFFFFFFFFFFFFFFFFFFFFFFFFFFFFF AND PUSH20 0xFFFFFFFFFFFFFFFFFFFFFFFFFFFFFFFFFFFFFFFF AND DUP2 MSTORE PUSH1 0x20 ADD SWAP1 DUP2 MSTORE PUSH1 0x20 ADD PUSH1 0x0 KECCAK256 PUSH1 0x3 ADD PUSH1 0x0 SWAP1 SLOAD SWAP1 PUSH2 0x100 EXP SWAP1 DIV PUSH1 0xFF AND PUSH2 0x128C JUMPI PUSH1 0x40 MLOAD PUSH32 0x8C379A000000000000000000000000000000000000000000000000000000000 DUP2 MSTORE PUSH1 0x4 ADD PUSH2 0x1283 SWAP1 PUSH2 0x26A6 JUMP JUMPDEST PUSH1 0x40 MLOAD DUP1 SWAP2 SUB SWAP1 REVERT JUMPDEST PUSH1 0x0 PUSH1 0xB PUSH1 0x0 CALLER PUSH20 0xFFFFFFFFFFFFFFFFFFFFFFFFFFFFFFFFFFFFFFFF AND PUSH20 0xFFFFFFFFFFFFFFFFFFFFFFFFFFFFFFFFFFFFFFFF AND DUP2 MSTORE PUSH1 0x20 ADD SWAP1 DUP2 MSTORE PUSH1 0x20 ADD PUSH1 0x0 KECCAK256 DUP4 DUP2 SLOAD DUP2 LT PUSH2 0x12DF JUMPI PUSH2 0x12DE PUSH2 0x26C6 JUMP JUMPDEST JUMPDEST SWAP1 PUSH1 0x0 MSTORE PUSH1 0x20 PUSH1 0x0 KECCAK256 SWAP1 PUSH1 0x8 MUL ADD SWAP1 POP CALLER PUSH20 0xFFFFFFFFFFFFFFFFFFFFFFFFFFFFFFFFFFFFFFFF AND DUP2 PUSH1 0x6 ADD PUSH1 0x0 SWAP1 SLOAD SWAP1 PUSH2 0x100 EXP SWAP1 DIV PUSH20 0xFFFFFFFFFFFFFFFFFFFFFFFFFFFFFFFFFFFFFFFF AND PUSH20 0xFFFFFFFFFFFFFFFFFFFFFFFFFFFFFFFFFFFFFFFF AND SUB PUSH2 0x1381 JUMPI PUSH1 0x40 MLOAD PUSH32 0x8C379A000000000000000000000000000000000000000000000000000000000 DUP2 MSTORE PUSH1 0x4 ADD PUSH2 0x1378 SWAP1 PUSH2 0x2767 JUMP JUMPDEST PUSH1 0x40 MLOAD DUP1 SWAP2 SUB SWAP1 REVERT JUMPDEST PUSH1 0x1 DUP2 PUSH1 0x7 ADD PUSH1 0x14 PUSH2 0x100 EXP DUP2 SLOAD DUP2 PUSH1 0xFF MUL NOT AND SWAP1 DUP4 ISZERO ISZERO MUL OR SWAP1 SSTORE POP DUP2 ISZERO PUSH2 0x148B JUMPI DUP1 PUSH1 0x0 ADD PUSH1 0xF PUSH1 0x0 DUP4 PUSH1 0x7 ADD PUSH1 0x0 SWAP1 SLOAD SWAP1 PUSH2 0x100 EXP SWAP1 DIV PUSH20 0xFFFFFFFFFFFFFFFFFFFFFFFFFFFFFFFFFFFFFFFF AND PUSH20 0xFFFFFFFFFFFFFFFFFFFFFFFFFFFFFFFFFFFFFFFF AND PUSH20 0xFFFFFFFFFFFFFFFFFFFFFFFFFFFFFFFFFFFFFFFF AND DUP2 MSTORE PUSH1 0x20 ADD SWAP1 DUP2 MSTORE PUSH1 0x20 ADD PUSH1 0x0 KECCAK256 PUSH1 0x0 DUP3 ADD SLOAD DUP2 PUSH1 0x0 ADD SSTORE PUSH1 0x1 DUP3 ADD SLOAD DUP2 PUSH1 0x1 ADD SSTORE PUSH1 0x2 DUP3 ADD SLOAD DUP2 PUSH1 0x2 ADD SSTORE PUSH1 0x3 DUP3 ADD SLOAD DUP2 PUSH1 0x3 ADD SSTORE PUSH1 0x4 DUP3 ADD PUSH1 0x0 SWAP1 SLOAD SWAP1 PUSH2 0x100 EXP SWAP1 DIV PUSH1 0xFF AND DUP2 PUSH1 0x4 ADD PUSH1 0x0 PUSH2 0x100 EXP DUP2 SLOAD DUP2 PUSH1 0xFF MUL NOT AND SWAP1 DUP4 ISZERO ISZERO MUL OR SWAP1 SSTORE POP PUSH1 0x5 DUP3 ADD SLOAD DUP2 PUSH1 0x5 ADD SSTORE SWAP1 POP POP PUSH1 0x1 DUP2 PUSH1 0x7 ADD PUSH1 0x14 PUSH2 0x100 EXP DUP2 SLOAD DUP2 PUSH1 0xFF MUL NOT AND SWAP1 DUP4 ISZERO ISZERO MUL OR SWAP1 SSTORE POP JUMPDEST CALLER PUSH20 0xFFFFFFFFFFFFFFFFFFFFFFFFFFFFFFFFFFFFFFFF AND PUSH32 0xD7314C5E85E24751B97C4AF5BF2002B2FC093E77D2D0A27785467743C21A176 PUSH1 0x40 MLOAD PUSH1 0x40 MLOAD DUP1 SWAP2 SUB SWAP1 LOG2 POP POP POP JUMP JUMPDEST PUSH1 0xE PUSH1 0x20 MSTORE DUP1 PUSH1 0x0 MSTORE PUSH1 0x40 PUSH1 0x0 KECCAK256 PUSH1 0x0 SWAP2 POP SWAP1 POP DUP1 PUSH1 0x0 ADD SLOAD SWAP1 DUP1 PUSH1 0x1 ADD SLOAD SWAP1 DUP1 PUSH1 0x2 ADD SLOAD SWAP1 DUP1 PUSH1 0x3 ADD PUSH1 0x0 SWAP1 SLOAD SWAP1 PUSH2 0x100 EXP SWAP1 DIV PUSH1 0xFF AND SWAP1 POP DUP5 JUMP JUMPDEST PUSH1 0x60 PUSH1 0xB PUSH1 0x0 CALLER PUSH20 0xFFFFFFFFFFFFFFFFFFFFFFFFFFFFFFFFFFFFFFFF AND PUSH20 0xFFFFFFFFFFFFFFFFFFFFFFFFFFFFFFFFFFFFFFFF AND DUP2 MSTORE PUSH1 0x20 ADD SWAP1 DUP2 MSTORE PUSH1 0x20 ADD PUSH1 0x0 KECCAK256 DUP1 SLOAD DUP1 PUSH1 0x20 MUL PUSH1 0x20 ADD PUSH1 0x40 MLOAD SWAP1 DUP2 ADD PUSH1 0x40 MSTORE DUP1 SWAP3 SWAP2 SWAP1 DUP2 DUP2 MSTORE PUSH1 0x20 ADD PUSH1 0x0 SWAP1 JUMPDEST DUP3 DUP3 LT ISZERO PUSH2 0x16CB JUMPI DUP4 DUP3 SWAP1 PUSH1 0x0 MSTORE PUSH1 0x20 PUSH1 0x0 KECCAK256 SWAP1 PUSH1 0x8 MUL ADD PUSH1 0x40 MLOAD DUP1 PUSH1 0x80 ADD PUSH1 0x40 MSTORE SWAP1 DUP2 PUSH1 0x0 DUP3 ADD PUSH1 0x40 MLOAD DUP1 PUSH1 0xC0 ADD PUSH1 0x40 MSTORE SWAP1 DUP2 PUSH1 0x0 DUP3 ADD SLOAD DUP2 MSTORE PUSH1 0x20 ADD PUSH1 0x1 DUP3 ADD SLOAD DUP2 MSTORE PUSH1 0x20 ADD PUSH1 0x2 DUP3 ADD SLOAD DUP2 MSTORE PUSH1 0x20 ADD PUSH1 0x3 DUP3 ADD SLOAD DUP2 MSTORE PUSH1 0x20 ADD PUSH1 0x4 DUP3 ADD PUSH1 0x0 SWAP1 SLOAD SWAP1 PUSH2 0x100 EXP SWAP1 DIV PUSH1 0xFF AND ISZERO ISZERO ISZERO ISZERO DUP2 MSTORE PUSH1 0x20 ADD PUSH1 0x5 DUP3 ADD SLOAD DUP2 MSTORE POP POP DUP2 MSTORE PUSH1 0x20 ADD PUSH1 0x6 DUP3 ADD PUSH1 0x0 SWAP1 SLOAD SWAP1 PUSH2 0x100 EXP SWAP1 DIV PUSH20 0xFFFFFFFFFFFFFFFFFFFFFFFFFFFFFFFFFFFFFFFF AND PUSH20 0xFFFFFFFFFFFFFFFFFFFFFFFFFFFFFFFFFFFFFFFF AND PUSH20 0xFFFFFFFFFFFFFFFFFFFFFFFFFFFFFFFFFFFFFFFF AND DUP2 MSTORE PUSH1 0x20 ADD PUSH1 0x7 DUP3 ADD PUSH1 0x0 SWAP1 SLOAD SWAP1 PUSH2 0x100 EXP SWAP1 DIV PUSH20 0xFFFFFFFFFFFFFFFFFFFFFFFFFFFFFFFFFFFFFFFF AND PUSH20 0xFFFFFFFFFFFFFFFFFFFFFFFFFFFFFFFFFFFFFFFF AND PUSH20 0xFFFFFFFFFFFFFFFFFFFFFFFFFFFFFFFFFFFFFFFF AND DUP2 MSTORE PUSH1 0x20 ADD PUSH1 0x7 DUP3 ADD PUSH1 0x14 SWAP1 SLOAD SWAP1 PUSH2 0x100 EXP SWAP1 DIV PUSH1 0xFF AND ISZERO ISZERO ISZERO ISZERO DUP2 MSTORE POP POP DUP2 MSTORE PUSH1 0x20 ADD SWAP1 PUSH1 0x1 ADD SWAP1 PUSH2 0x1571 JUMP JUMPDEST POP POP POP POP SWAP1 POP SWAP1 JUMP JUMPDEST PUSH1 0x1 SLOAD DUP2 JUMP JUMPDEST PUSH1 0x4 PUSH1 0x0 DUP5 DUP2 MSTORE PUSH1 0x20 ADD SWAP1 DUP2 MSTORE PUSH1 0x20 ADD PUSH1 0x0 KECCAK256 PUSH1 0x0 ADD PUSH1 0x1 SWAP1 SLOAD SWAP1 PUSH2 0x100 EXP SWAP1 DIV PUSH1 0xFF AND PUSH2 0x173D JUMPI PUSH1 0x40 MLOAD PUSH32 0x8C379A000000000000000000000000000000000000000000000000000000000 DUP2 MSTORE PUSH1 0x4 ADD PUSH2 0x1734 SWAP1 PUSH2 0x27D3 JUMP JUMPDEST PUSH1 0x40 MLOAD DUP1 SWAP2 SUB SWAP1 REVERT JUMPDEST DUP1 PUSH1 0x3 SWAP1 DUP2 PUSH2 0x174C SWAP2 SWAP1 PUSH2 0x299F JUMP JUMPDEST POP DUP2 PUSH1 0x2 SWAP1 DUP2 PUSH2 0x175C SWAP2 SWAP1 PUSH2 0x299F JUMP JUMPDEST POP PUSH1 0x1 PUSH1 0x4 PUSH1 0x0 DUP6 DUP2 MSTORE PUSH1 0x20 ADD SWAP1 DUP2 MSTORE PUSH1 0x20 ADD PUSH1 0x0 KECCAK256 PUSH1 0x0 ADD PUSH1 0x0 PUSH2 0x100 EXP DUP2 SLOAD DUP2 PUSH1 0xFF MUL NOT AND SWAP1 DUP4 ISZERO ISZERO MUL OR SWAP1 SSTORE POP DUP2 PUSH1 0x4 PUSH1 0x0 DUP6 DUP2 MSTORE PUSH1 0x20 ADD SWAP1 DUP2 MSTORE PUSH1 0x20 ADD PUSH1 0x0 KECCAK256 PUSH1 0x1 ADD SWAP1 DUP2 PUSH2 0x17AF SWAP2 SWAP1 PUSH2 0x299F JUMP JUMPDEST POP DUP1 PUSH1 0x4 PUSH1 0x0 DUP6 DUP2 MSTORE PUSH1 0x20 ADD SWAP1 DUP2 MSTORE PUSH1 0x20 ADD PUSH1 0x0 KECCAK256 PUSH1 0x2 ADD SWAP1 DUP2 PUSH2 0x17D3 SWAP2 SWAP1 PUSH2 0x299F JUMP JUMPDEST POP DUP2 PUSH1 0x0 SWAP1 DUP2 PUSH2 0x17E3 SWAP2 SWAP1 PUSH2 0x2ACC JUMP JUMPDEST POP DUP3 PUSH32 0x160ED0AAFFBEF6885155188B91459CB5A97D5DAADCCF7561D8C46DEEA6641B50 PUSH1 0x0 PUSH1 0x2 PUSH1 0x3 PUSH1 0x40 MLOAD PUSH2 0x181B SWAP4 SWAP3 SWAP2 SWAP1 PUSH2 0x2CA6 JUMP JUMPDEST PUSH1 0x40 MLOAD DUP1 SWAP2 SUB SWAP1 LOG2 POP POP POP JUMP JUMPDEST PUSH1 0x0 PUSH1 0x40 MLOAD SWAP1 POP SWAP1 JUMP JUMPDEST PUSH1 0x0 DUP1 REVERT JUMPDEST PUSH1 0x0 DUP1 REVERT JUMPDEST PUSH1 0x0 PUSH20 0xFFFFFFFFFFFFFFFFFFFFFFFFFFFFFFFFFFFFFFFF DUP3 AND SWAP1 POP SWAP2 SWAP1 POP JUMP JUMPDEST PUSH1 0x0 PUSH2 0x1867 DUP3 PUSH2 0x183C JUMP JUMPDEST SWAP1 POP SWAP2 SWAP1 POP JUMP JUMPDEST PUSH2 0x1877 DUP2 PUSH2 0x185C JUMP JUMPDEST DUP2 EQ PUSH2 0x1882 JUMPI PUSH1 0x0 DUP1 REVERT JUMPDEST POP JUMP JUMPDEST PUSH1 0x0 DUP2 CALLDATALOAD SWAP1 POP PUSH2 0x1894 DUP2 PUSH2 0x186E JUMP JUMPDEST SWAP3 SWAP2 POP POP JUMP JUMPDEST PUSH1 0x0 PUSH1 0x20 DUP3 DUP5 SUB SLT ISZERO PUSH2 0x18B0 JUMPI PUSH2 0x18AF PUSH2 0x1832 JUMP JUMPDEST JUMPDEST PUSH1 0x0 PUSH2 0x18BE DUP5 DUP3 DUP6 ADD PUSH2 0x1885 JUMP JUMPDEST SWAP2 POP POP SWAP3 SWAP2 POP POP JUMP JUMPDEST PUSH1 0x0 DUP2 SWAP1 POP SWAP2 SWAP1 POP JUMP JUMPDEST PUSH2 0x18DA DUP2 PUSH2 0x18C7 JUMP JUMPDEST DUP3 MSTORE POP POP JUMP JUMPDEST PUSH1 0x0 DUP2 ISZERO ISZERO SWAP1 POP SWAP2 SWAP1 POP JUMP JUMPDEST PUSH2 0x18F5 DUP2 PUSH2 0x18E0 JUMP JUMPDEST DUP3 MSTORE POP POP JUMP JUMPDEST PUSH1 0x0 PUSH1 0xC0 DUP3 ADD SWAP1 POP PUSH2 0x1910 PUSH1 0x0 DUP4 ADD DUP10 PUSH2 0x18D1 JUMP JUMPDEST PUSH2 0x191D PUSH1 0x20 DUP4 ADD DUP9 PUSH2 0x18D1 JUMP JUMPDEST PUSH2 0x192A PUSH1 0x40 DUP4 ADD DUP8 PUSH2 0x18D1 JUMP JUMPDEST PUSH2 0x1937 PUSH1 0x60 DUP4 ADD DUP7 PUSH2 0x18D1 JUMP JUMPDEST PUSH2 0x1944 PUSH1 0x80 DUP4 ADD DUP6 PUSH2 0x18EC JUMP JUMPDEST PUSH2 0x1951 PUSH1 0xA0 DUP4 ADD DUP5 PUSH2 0x18D1 JUMP JUMPDEST SWAP8 SWAP7 POP POP POP POP POP POP POP JUMP JUMPDEST PUSH1 0x0 PUSH8 0xFFFFFFFFFFFFFFFF DUP3 AND SWAP1 POP SWAP2 SWAP1 POP JUMP JUMPDEST PUSH2 0x1979 DUP2 PUSH2 0x195C JUMP JUMPDEST DUP3 MSTORE POP POP JUMP JUMPDEST PUSH1 0x0 PUSH1 0x20 DUP3 ADD SWAP1 POP PUSH2 0x1994 PUSH1 0x0 DUP4 ADD DUP5 PUSH2 0x1970 JUMP JUMPDEST SWAP3 SWAP2 POP POP JUMP JUMPDEST PUSH1 0x0 PUSH1 0x80 DUP3 ADD SWAP1 POP PUSH2 0x19AF PUSH1 0x0 DUP4 ADD DUP8 PUSH2 0x18EC JUMP JUMPDEST PUSH2 0x19BC PUSH1 0x20 DUP4 ADD DUP7 PUSH2 0x18D1 JUMP JUMPDEST PUSH2 0x19C9 PUSH1 0x40 DUP4 ADD DUP6 PUSH2 0x18D1 JUMP JUMPDEST PUSH2 0x19D6 PUSH1 0x60 DUP4 ADD DUP5 PUSH2 0x18EC JUMP JUMPDEST SWAP6 SWAP5 POP POP POP POP POP JUMP JUMPDEST PUSH1 0x0 DUP2 SWAP1 POP SWAP2 SWAP1 POP JUMP JUMPDEST PUSH2 0x19F2 DUP2 PUSH2 0x19DF JUMP JUMPDEST DUP2 EQ PUSH2 0x19FD JUMPI PUSH1 0x0 DUP1 REVERT JUMPDEST POP JUMP JUMPDEST PUSH1 0x0 DUP2 CALLDATALOAD SWAP1 POP PUSH2 0x1A0F DUP2 PUSH2 0x19E9 JUMP JUMPDEST SWAP3 SWAP2 POP POP JUMP JUMPDEST PUSH1 0x0 DUP1 REVERT JUMPDEST PUSH1 0x0 DUP1 REVERT JUMPDEST PUSH1 0x0 PUSH1 0x1F NOT PUSH1 0x1F DUP4 ADD AND SWAP1 POP SWAP2 SWAP1 POP JUMP JUMPDEST PUSH32 0x4E487B7100000000000000000000000000000000000000000000000000000000 PUSH1 0x0 MSTORE PUSH1 0x41 PUSH1 0x4 MSTORE PUSH1 0x24 PUSH1 0x0 REVERT JUMPDEST PUSH2 0x1A68 DUP3 PUSH2 0x1A1F JUMP JUMPDEST DUP2 ADD DUP2 DUP2 LT PUSH8 0xFFFFFFFFFFFFFFFF DUP3 GT OR ISZERO PUSH2 0x1A87 JUMPI PUSH2 0x1A86 PUSH2 0x1A30 JUMP JUMPDEST JUMPDEST DUP1 PUSH1 0x40 MSTORE POP POP POP JUMP JUMPDEST PUSH1 0x0 PUSH2 0x1A9A PUSH2 0x1828 JUMP JUMPDEST SWAP1 POP PUSH2 0x1AA6 DUP3 DUP3 PUSH2 0x1A5F JUMP JUMPDEST SWAP2 SWAP1 POP JUMP JUMPDEST PUSH1 0x0 PUSH8 0xFFFFFFFFFFFFFFFF DUP3 GT ISZERO PUSH2 0x1AC6 JUMPI PUSH2 0x1AC5 PUSH2 0x1A30 JUMP JUMPDEST JUMPDEST PUSH2 0x1ACF DUP3 PUSH2 0x1A1F JUMP JUMPDEST SWAP1 POP PUSH1 0x20 DUP2 ADD SWAP1 POP SWAP2 SWAP1 POP JUMP JUMPDEST DUP3 DUP2 DUP4 CALLDATACOPY PUSH1 0x0 DUP4 DUP4 ADD MSTORE POP POP POP JUMP JUMPDEST PUSH1 0x0 PUSH2 0x1AFE PUSH2 0x1AF9 DUP5 PUSH2 0x1AAB JUMP JUMPDEST PUSH2 0x1A90 JUMP JUMPDEST SWAP1 POP DUP3 DUP2 MSTORE PUSH1 0x20 DUP2 ADD DUP5 DUP5 DUP5 ADD GT ISZERO PUSH2 0x1B1A JUMPI PUSH2 0x1B19 PUSH2 0x1A1A JUMP JUMPDEST JUMPDEST PUSH2 0x1B25 DUP5 DUP3 DUP6 PUSH2 0x1ADC JUMP JUMPDEST POP SWAP4 SWAP3 POP POP POP JUMP JUMPDEST PUSH1 0x0 DUP3 PUSH1 0x1F DUP4 ADD SLT PUSH2 0x1B42 JUMPI PUSH2 0x1B41 PUSH2 0x1A15 JUMP JUMPDEST JUMPDEST DUP2 CALLDATALOAD PUSH2 0x1B52 DUP5 DUP3 PUSH1 0x20 DUP7 ADD PUSH2 0x1AEB JUMP JUMPDEST SWAP2 POP POP SWAP3 SWAP2 POP POP JUMP JUMPDEST PUSH1 0x0 DUP1 PUSH1 0x0 PUSH1 0x60 DUP5 DUP7 SUB SLT ISZERO PUSH2 0x1B74 JUMPI PUSH2 0x1B73 PUSH2 0x1832 JUMP JUMPDEST JUMPDEST PUSH1 0x0 PUSH2 0x1B82 DUP7 DUP3 DUP8 ADD PUSH2 0x1A00 JUMP JUMPDEST SWAP4 POP POP PUSH1 0x20 DUP5 ADD CALLDATALOAD PUSH8 0xFFFFFFFFFFFFFFFF DUP2 GT ISZERO PUSH2 0x1BA3 JUMPI PUSH2 0x1BA2 PUSH2 0x1837 JUMP JUMPDEST JUMPDEST PUSH2 0x1BAF DUP7 DUP3 DUP8 ADD PUSH2 0x1B2D JUMP JUMPDEST SWAP3 POP POP PUSH1 0x40 DUP5 ADD CALLDATALOAD PUSH8 0xFFFFFFFFFFFFFFFF DUP2 GT ISZERO PUSH2 0x1BD0 JUMPI PUSH2 0x1BCF PUSH2 0x1837 JUMP JUMPDEST JUMPDEST PUSH2 0x1BDC DUP7 DUP3 DUP8 ADD PUSH2 0x1B2D JUMP JUMPDEST SWAP2 POP POP SWAP3 POP SWAP3 POP SWAP3 JUMP JUMPDEST PUSH1 0x0 DUP2 MLOAD SWAP1 POP SWAP2 SWAP1 POP JUMP JUMPDEST PUSH1 0x0 DUP3 DUP3 MSTORE PUSH1 0x20 DUP3 ADD SWAP1 POP SWAP3 SWAP2 POP POP JUMP JUMPDEST PUSH1 0x0 JUMPDEST DUP4 DUP2 LT ISZERO PUSH2 0x1C20 JUMPI DUP1 DUP3 ADD MLOAD DUP2 DUP5 ADD MSTORE PUSH1 0x20 DUP2 ADD SWAP1 POP PUSH2 0x1C05 JUMP JUMPDEST PUSH1 0x0 DUP5 DUP5 ADD MSTORE POP POP POP POP JUMP JUMPDEST PUSH1 0x0 PUSH2 0x1C37 DUP3 PUSH2 0x1BE6 JUMP JUMPDEST PUSH2 0x1C41 DUP2 DUP6 PUSH2 0x1BF1 JUMP JUMPDEST SWAP4 POP PUSH2 0x1C51 DUP2 DUP6 PUSH1 0x20 DUP7 ADD PUSH2 0x1C02 JUMP JUMPDEST PUSH2 0x1C5A DUP2 PUSH2 0x1A1F JUMP JUMPDEST DUP5 ADD SWAP2 POP POP SWAP3 SWAP2 POP POP JUMP JUMPDEST PUSH1 0x0 PUSH1 0x20 DUP3 ADD SWAP1 POP DUP2 DUP2 SUB PUSH1 0x0 DUP4 ADD MSTORE PUSH2 0x1C7F DUP2 DUP5 PUSH2 0x1C2C JUMP JUMPDEST SWAP1 POP SWAP3 SWAP2 POP POP JUMP JUMPDEST PUSH2 0x1C90 DUP2 PUSH2 0x18C7 JUMP JUMPDEST DUP2 EQ PUSH2 0x1C9B JUMPI PUSH1 0x0 DUP1 REVERT JUMPDEST POP JUMP JUMPDEST PUSH1 0x0 DUP2 CALLDATALOAD SWAP1 POP PUSH2 0x1CAD DUP2 PUSH2 0x1C87 JUMP JUMPDEST SWAP3 SWAP2 POP POP JUMP JUMPDEST PUSH1 0x0 DUP1 PUSH1 0x0 PUSH1 0x60 DUP5 DUP7 SUB SLT ISZERO PUSH2 0x1CCC JUMPI PUSH2 0x1CCB PUSH2 0x1832 JUMP JUMPDEST JUMPDEST PUSH1 0x0 PUSH2 0x1CDA DUP7 DUP3 DUP8 ADD PUSH2 0x1C9E JUMP JUMPDEST SWAP4 POP POP PUSH1 0x20 PUSH2 0x1CEB DUP7 DUP3 DUP8 ADD PUSH2 0x1C9E JUMP JUMPDEST SWAP3 POP POP PUSH1 0x40 PUSH2 0x1CFC DUP7 DUP3 DUP8 ADD PUSH2 0x1C9E JUMP JUMPDEST SWAP2 POP POP SWAP3 POP SWAP3 POP SWAP3 JUMP JUMPDEST PUSH1 0x0 DUP1 PUSH1 0x0 DUP1 PUSH1 0x80 DUP6 DUP8 SUB SLT ISZERO PUSH2 0x1D20 JUMPI PUSH2 0x1D1F PUSH2 0x1832 JUMP JUMPDEST JUMPDEST PUSH1 0x0 PUSH2 0x1D2E DUP8 DUP3 DUP9 ADD PUSH2 0x1C9E JUMP JUMPDEST SWAP5 POP POP PUSH1 0x20 PUSH2 0x1D3F DUP8 DUP3 DUP9 ADD PUSH2 0x1C9E JUMP JUMPDEST SWAP4 POP POP PUSH1 0x40 PUSH2 0x1D50 DUP8 DUP3 DUP9 ADD PUSH2 0x1885 JUMP JUMPDEST SWAP3 POP POP PUSH1 0x60 PUSH2 0x1D61 DUP8 DUP3 DUP9 ADD PUSH2 0x1C9E JUMP JUMPDEST SWAP2 POP POP SWAP3 SWAP6 SWAP2 SWAP5 POP SWAP3 POP JUMP JUMPDEST PUSH1 0x0 DUP1 PUSH1 0x40 DUP4 DUP6 SUB SLT ISZERO PUSH2 0x1D84 JUMPI PUSH2 0x1D83 PUSH2 0x1832 JUMP JUMPDEST JUMPDEST PUSH1 0x0 PUSH2 0x1D92 DUP6 DUP3 DUP7 ADD PUSH2 0x1885 JUMP JUMPDEST SWAP3 POP POP PUSH1 0x20 PUSH2 0x1DA3 DUP6 DUP3 DUP7 ADD PUSH2 0x1C9E JUMP JUMPDEST SWAP2 POP POP SWAP3 POP SWAP3 SWAP1 POP JUMP JUMPDEST PUSH2 0x1DB6 DUP2 PUSH2 0x18C7 JUMP JUMPDEST DUP3 MSTORE POP POP JUMP JUMPDEST PUSH2 0x1DC5 DUP2 PUSH2 0x18E0 JUMP JUMPDEST DUP3 MSTORE POP POP JUMP JUMPDEST PUSH1 0xC0 DUP3 ADD PUSH1 0x0 DUP3 ADD MLOAD PUSH2 0x1DE1 PUSH1 0x0 DUP6 ADD DUP3 PUSH2 0x1DAD JUMP JUMPDEST POP PUSH1 0x20 DUP3 ADD MLOAD PUSH2 0x1DF4 PUSH1 0x20 DUP6 ADD DUP3 PUSH2 0x1DAD JUMP JUMPDEST POP PUSH1 0x40 DUP3 ADD MLOAD PUSH2 0x1E07 PUSH1 0x40 DUP6 ADD DUP3 PUSH2 0x1DAD JUMP JUMPDEST POP PUSH1 0x60 DUP3 ADD MLOAD PUSH2 0x1E1A PUSH1 0x60 DUP6 ADD DUP3 PUSH2 0x1DAD JUMP JUMPDEST POP PUSH1 0x80 DUP3 ADD MLOAD PUSH2 0x1E2D PUSH1 0x80 DUP6 ADD DUP3 PUSH2 0x1DBC JUMP JUMPDEST POP PUSH1 0xA0 DUP3 ADD MLOAD PUSH2 0x1E40 PUSH1 0xA0 DUP6 ADD DUP3 PUSH2 0x1DAD JUMP JUMPDEST POP POP POP POP JUMP JUMPDEST PUSH2 0x1E4F DUP2 PUSH2 0x185C JUMP JUMPDEST DUP3 MSTORE POP POP JUMP JUMPDEST PUSH1 0x0 PUSH2 0x120 DUP3 ADD SWAP1 POP PUSH2 0x1E6B PUSH1 0x0 DUP4 ADD DUP8 PUSH2 0x1DCB JUMP JUMPDEST PUSH2 0x1E78 PUSH1 0xC0 DUP4 ADD DUP7 PUSH2 0x1E46 JUMP JUMPDEST PUSH2 0x1E85 PUSH1 0xE0 DUP4 ADD DUP6 PUSH2 0x1E46 JUMP JUMPDEST PUSH2 0x1E93 PUSH2 0x100 DUP4 ADD DUP5 PUSH2 0x18EC JUMP JUMPDEST SWAP6 SWAP5 POP POP POP POP POP JUMP JUMPDEST PUSH1 0x0 DUP2 MLOAD SWAP1 POP SWAP2 SWAP1 POP JUMP JUMPDEST PUSH1 0x0 DUP3 DUP3 MSTORE PUSH1 0x20 DUP3 ADD SWAP1 POP SWAP3 SWAP2 POP POP JUMP JUMPDEST PUSH1 0x0 PUSH2 0x1EC3 DUP3 PUSH2 0x1E9C JUMP JUMPDEST PUSH2 0x1ECD DUP2 DUP6 PUSH2 0x1EA7 JUMP JUMPDEST SWAP4 POP PUSH2 0x1EDD DUP2 DUP6 PUSH1 0x20 DUP7 ADD PUSH2 0x1C02 JUMP JUMPDEST PUSH2 0x1EE6 DUP2 PUSH2 0x1A1F JUMP JUMPDEST DUP5 ADD SWAP2 POP POP SWAP3 SWAP2 POP POP JUMP JUMPDEST PUSH1 0x0 PUSH1 0x20 DUP3 ADD SWAP1 POP DUP2 DUP2 SUB PUSH1 0x0 DUP4 ADD MSTORE PUSH2 0x1F0B DUP2 DUP5 PUSH2 0x1EB8 JUMP JUMPDEST SWAP1 POP SWAP3 SWAP2 POP POP JUMP JUMPDEST PUSH1 0x0 PUSH1 0x20 DUP3 DUP5 SUB SLT ISZERO PUSH2 0x1F29 JUMPI PUSH2 0x1F28 PUSH2 0x1832 JUMP JUMPDEST JUMPDEST PUSH1 0x0 PUSH2 0x1F37 DUP5 DUP3 DUP6 ADD PUSH2 0x1C9E JUMP JUMPDEST SWAP2 POP POP SWAP3 SWAP2 POP POP JUMP JUMPDEST PUSH1 0x0 DUP2 MLOAD SWAP1 POP SWAP2 SWAP1 POP JUMP JUMPDEST PUSH1 0x0 DUP3 DUP3 MSTORE PUSH1 0x20 DUP3 ADD SWAP1 POP SWAP3 SWAP2 POP POP JUMP JUMPDEST PUSH1 0x0 DUP2 SWAP1 POP PUSH1 0x20 DUP3 ADD SWAP1 POP SWAP2 SWAP1 POP JUMP JUMPDEST PUSH1 0x80 DUP3 ADD PUSH1 0x0 DUP3 ADD MLOAD PUSH2 0x1F82 PUSH1 0x0 DUP6 ADD DUP3 PUSH2 0x1DAD JUMP JUMPDEST POP PUSH1 0x20 DUP3 ADD MLOAD PUSH2 0x1F95 PUSH1 0x20 DUP6 ADD DUP3 PUSH2 0x1DAD JUMP JUMPDEST POP PUSH1 0x40 DUP3 ADD MLOAD PUSH2 0x1FA8 PUSH1 0x40 DUP6 ADD DUP3 PUSH2 0x1DAD JUMP JUMPDEST POP PUSH1 0x60 DUP3 ADD MLOAD PUSH2 0x1FBB PUSH1 0x60 DUP6 ADD DUP3 PUSH2 0x1DBC JUMP JUMPDEST POP POP POP POP JUMP JUMPDEST PUSH1 0x0 PUSH2 0x1FCD DUP4 DUP4 PUSH2 0x1F6C JUMP JUMPDEST PUSH1 0x80 DUP4 ADD SWAP1 POP SWAP3 SWAP2 POP POP JUMP JUMPDEST PUSH1 0x0 PUSH1 0x20 DUP3 ADD SWAP1 POP SWAP2 SWAP1 POP JUMP JUMPDEST PUSH1 0x0 PUSH2 0x1FF1 DUP3 PUSH2 0x1F40 JUMP JUMPDEST PUSH2 0x1FFB DUP2 DUP6 PUSH2 0x1F4B JUMP JUMPDEST SWAP4 POP PUSH2 0x2006 DUP4 PUSH2 0x1F5C JUMP JUMPDEST DUP1 PUSH1 0x0 JUMPDEST DUP4 DUP2 LT ISZERO PUSH2 0x2037 JUMPI DUP2 MLOAD PUSH2 0x201E DUP9 DUP3 PUSH2 0x1FC1 JUMP JUMPDEST SWAP8 POP PUSH2 0x2029 DUP4 PUSH2 0x1FD9 JUMP JUMPDEST SWAP3 POP POP PUSH1 0x1 DUP2 ADD SWAP1 POP PUSH2 0x200A JUMP JUMPDEST POP DUP6 SWAP4 POP POP POP POP SWAP3 SWAP2 POP POP JUMP JUMPDEST PUSH1 0x0 PUSH1 0x20 DUP3 ADD SWAP1 POP DUP2 DUP2 SUB PUSH1 0x0 DUP4 ADD MSTORE PUSH2 0x205E DUP2 DUP5 PUSH2 0x1FE6 JUMP JUMPDEST SWAP1 POP SWAP3 SWAP2 POP POP JUMP JUMPDEST PUSH2 0x206F DUP2 PUSH2 0x18E0 JUMP JUMPDEST DUP2 EQ PUSH2 0x207A JUMPI PUSH1 0x0 DUP1 REVERT JUMPDEST POP JUMP JUMPDEST PUSH1 0x0 DUP2 CALLDATALOAD SWAP1 POP PUSH2 0x208C DUP2 PUSH2 0x2066 JUMP JUMPDEST SWAP3 SWAP2 POP POP JUMP JUMPDEST PUSH1 0x0 DUP1 PUSH1 0x0 PUSH1 0x60 DUP5 DUP7 SUB SLT ISZERO PUSH2 0x20AB JUMPI PUSH2 0x20AA PUSH2 0x1832 JUMP JUMPDEST JUMPDEST PUSH1 0x0 PUSH2 0x20B9 DUP7 DUP3 DUP8 ADD PUSH2 0x1C9E JUMP JUMPDEST SWAP4 POP POP PUSH1 0x20 PUSH2 0x20CA DUP7 DUP3 DUP8 ADD PUSH2 0x1C9E JUMP JUMPDEST SWAP3 POP POP PUSH1 0x40 PUSH2 0x20DB DUP7 DUP3 DUP8 ADD PUSH2 0x207D JUMP JUMPDEST SWAP2 POP POP SWAP3 POP SWAP3 POP SWAP3 JUMP JUMPDEST PUSH2 0x20EE DUP2 PUSH2 0x19DF JUMP JUMPDEST DUP3 MSTORE POP POP JUMP JUMPDEST PUSH1 0x0 PUSH1 0x20 DUP3 ADD SWAP1 POP PUSH2 0x2109 PUSH1 0x0 DUP4 ADD DUP5 PUSH2 0x20E5 JUMP JUMPDEST SWAP3 SWAP2 POP POP JUMP JUMPDEST PUSH1 0x0 DUP1 PUSH1 0x40 DUP4 DUP6 SUB SLT ISZERO PUSH2 0x2126 JUMPI PUSH2 0x2125 PUSH2 0x1832 JUMP JUMPDEST JUMPDEST PUSH1 0x0 PUSH2 0x2134 DUP6 DUP3 DUP7 ADD PUSH2 0x1C9E JUMP JUMPDEST SWAP3 POP POP PUSH1 0x20 PUSH2 0x2145 DUP6 DUP3 DUP7 ADD PUSH2 0x1C9E JUMP JUMPDEST SWAP2 POP POP SWAP3 POP SWAP3 SWAP1 POP JUMP JUMPDEST PUSH1 0x0 PUSH1 0x80 DUP3 ADD SWAP1 POP PUSH2 0x2164 PUSH1 0x0 DUP4 ADD DUP8 PUSH2 0x18D1 JUMP JUMPDEST PUSH2 0x2171 PUSH1 0x20 DUP4 ADD DUP7 PUSH2 0x18D1 JUMP JUMPDEST PUSH2 0x217E PUSH1 0x40 DUP4 ADD DUP6 PUSH2 0x18D1 JUMP JUMPDEST PUSH2 0x218B PUSH1 0x60 DUP4 ADD DUP5 PUSH2 0x18EC JUMP JUMPDEST SWAP6 SWAP5 POP POP POP POP POP JUMP JUMPDEST PUSH1 0x0 PUSH1 0x20 DUP3 DUP5 SUB SLT ISZERO PUSH2 0x21AA JUMPI PUSH2 0x21A9 PUSH2 0x1832 JUMP JUMPDEST JUMPDEST PUSH1 0x0 PUSH2 0x21B8 DUP5 DUP3 DUP6 ADD PUSH2 0x1A00 JUMP JUMPDEST SWAP2 POP POP SWAP3 SWAP2 POP POP JUMP JUMPDEST PUSH1 0x0 PUSH1 0x80 DUP3 ADD SWAP1 POP PUSH2 0x21D6 PUSH1 0x0 DUP4 ADD DUP8 PUSH2 0x18EC JUMP JUMPDEST PUSH2 0x21E3 PUSH1 0x20 DUP4 ADD DUP7 PUSH2 0x18EC JUMP JUMPDEST DUP2 DUP2 SUB PUSH1 0x40 DUP4 ADD MSTORE PUSH2 0x21F5 DUP2 DUP6 PUSH2 0x1C2C JUMP JUMPDEST SWAP1 POP DUP2 DUP2 SUB PUSH1 0x60 DUP4 ADD MSTORE PUSH2 0x2209 DUP2 DUP5 PUSH2 0x1C2C JUMP JUMPDEST SWAP1 POP SWAP6 SWAP5 POP POP POP POP POP JUMP JUMPDEST PUSH1 0x0 DUP1 PUSH1 0x40 DUP4 DUP6 SUB SLT ISZERO PUSH2 0x222B JUMPI PUSH2 0x222A PUSH2 0x1832 JUMP JUMPDEST JUMPDEST PUSH1 0x0 PUSH2 0x2239 DUP6 DUP3 DUP7 ADD PUSH2 0x1C9E JUMP JUMPDEST SWAP3 POP POP PUSH1 0x20 PUSH2 0x224A DUP6 DUP3 DUP7 ADD PUSH2 0x207D JUMP JUMPDEST SWAP2 POP POP SWAP3 POP SWAP3 SWAP1 POP JUMP JUMPDEST PUSH1 0x0 DUP2 MLOAD SWAP1 POP SWAP2 SWAP1 POP JUMP JUMPDEST PUSH1 0x0 DUP3 DUP3 MSTORE PUSH1 0x20 DUP3 ADD SWAP1 POP SWAP3 SWAP2 POP POP JUMP JUMPDEST PUSH1 0x0 DUP2 SWAP1 POP PUSH1 0x20 DUP3 ADD SWAP1 POP SWAP2 SWAP1 POP JUMP JUMPDEST PUSH1 0xC0 DUP3 ADD PUSH1 0x0 DUP3 ADD MLOAD PUSH2 0x2296 PUSH1 0x0 DUP6 ADD DUP3 PUSH2 0x1DAD JUMP JUMPDEST POP PUSH1 0x20 DUP3 ADD MLOAD PUSH2 0x22A9 PUSH1 0x20 DUP6 ADD DUP3 PUSH2 0x1DAD JUMP JUMPDEST POP PUSH1 0x40 DUP3 ADD MLOAD PUSH2 0x22BC PUSH1 0x40 DUP6 ADD DUP3 PUSH2 0x1DAD JUMP JUMPDEST POP PUSH1 0x60 DUP3 ADD MLOAD PUSH2 0x22CF PUSH1 0x60 DUP6 ADD DUP3 PUSH2 0x1DAD JUMP JUMPDEST POP PUSH1 0x80 DUP3 ADD MLOAD PUSH2 0x22E2 PUSH1 0x80 DUP6 ADD DUP3 PUSH2 0x1DBC JUMP JUMPDEST POP PUSH1 0xA0 DUP3 ADD MLOAD PUSH2 0x22F5 PUSH1 0xA0 DUP6 ADD DUP3 PUSH2 0x1DAD JUMP JUMPDEST POP POP POP POP JUMP JUMPDEST PUSH2 0x2304 DUP2 PUSH2 0x185C JUMP JUMPDEST DUP3 MSTORE POP POP JUMP JUMPDEST PUSH2 0x120 DUP3 ADD PUSH1 0x0 DUP3 ADD MLOAD PUSH2 0x2321 PUSH1 0x0 DUP6 ADD DUP3 PUSH2 0x2280 JUMP JUMPDEST POP PUSH1 0x20 DUP3 ADD MLOAD PUSH2 0x2334 PUSH1 0xC0 DUP6 ADD DUP3 PUSH2 0x22FB JUMP JUMPDEST POP PUSH1 0x40 DUP3 ADD MLOAD PUSH2 0x2347 PUSH1 0xE0 DUP6 ADD DUP3 PUSH2 0x22FB JUMP JUMPDEST POP PUSH1 0x60 DUP3 ADD MLOAD PUSH2 0x235B PUSH2 0x100 DUP6 ADD DUP3 PUSH2 0x1DBC JUMP JUMPDEST POP POP POP POP JUMP JUMPDEST PUSH1 0x0 PUSH2 0x236D DUP4 DUP4 PUSH2 0x230A JUMP JUMPDEST PUSH2 0x120 DUP4 ADD SWAP1 POP SWAP3 SWAP2 POP POP JUMP JUMPDEST PUSH1 0x0 PUSH1 0x20 DUP3 ADD SWAP1 POP SWAP2 SWAP1 POP JUMP JUMPDEST PUSH1 0x0 PUSH2 0x2392 DUP3 PUSH2 0x2254 JUMP JUMPDEST PUSH2 0x239C DUP2 DUP6 PUSH2 0x225F JUMP JUMPDEST SWAP4 POP PUSH2 0x23A7 DUP4 PUSH2 0x2270 JUMP JUMPDEST DUP1 PUSH1 0x0 JUMPDEST DUP4 DUP2 LT ISZERO PUSH2 0x23D8 JUMPI DUP2 MLOAD PUSH2 0x23BF DUP9 DUP3 PUSH2 0x2361 JUMP JUMPDEST SWAP8 POP PUSH2 0x23CA DUP4 PUSH2 0x237A JUMP JUMPDEST SWAP3 POP POP PUSH1 0x1 DUP2 ADD SWAP1 POP PUSH2 0x23AB JUMP JUMPDEST POP DUP6 SWAP4 POP POP POP POP SWAP3 SWAP2 POP POP JUMP JUMPDEST PUSH1 0x0 PUSH1 0x20 DUP3 ADD SWAP1 POP DUP2 DUP2 SUB PUSH1 0x0 DUP4 ADD MSTORE PUSH2 0x23FF DUP2 DUP5 PUSH2 0x2387 JUMP JUMPDEST SWAP1 POP SWAP3 SWAP2 POP POP JUMP JUMPDEST PUSH32 0x4E487B7100000000000000000000000000000000000000000000000000000000 PUSH1 0x0 MSTORE PUSH1 0x22 PUSH1 0x4 MSTORE PUSH1 0x24 PUSH1 0x0 REVERT JUMPDEST PUSH1 0x0 PUSH1 0x2 DUP3 DIV SWAP1 POP PUSH1 0x1 DUP3 AND DUP1 PUSH2 0x244E JUMPI PUSH1 0x7F DUP3 AND SWAP2 POP JUMPDEST PUSH1 0x20 DUP3 LT DUP2 SUB PUSH2 0x2461 JUMPI PUSH2 0x2460 PUSH2 0x2407 JUMP JUMPDEST JUMPDEST POP SWAP2 SWAP1 POP JUMP JUMPDEST PUSH32 0x566F6365206E616F20706F64652073657220756D20646973747269627569646F PUSH1 0x0 DUP3 ADD MSTORE PUSH32 0x72206520756D20636F6E73756D69646F7220616F206D65736D6F2074656D706F PUSH1 0x20 DUP3 ADD MSTORE POP JUMP JUMPDEST PUSH1 0x0 PUSH2 0x24C3 PUSH1 0x40 DUP4 PUSH2 0x1EA7 JUMP JUMPDEST SWAP2 POP PUSH2 0x24CE DUP3 PUSH2 0x2467 JUMP JUMPDEST PUSH1 0x40 DUP3 ADD SWAP1 POP SWAP2 SWAP1 POP JUMP JUMPDEST PUSH1 0x0 PUSH1 0x20 DUP3 ADD SWAP1 POP DUP2 DUP2 SUB PUSH1 0x0 DUP4 ADD MSTORE PUSH2 0x24F2 DUP2 PUSH2 0x24B6 JUMP JUMPDEST SWAP1 POP SWAP2 SWAP1 POP JUMP JUMPDEST PUSH32 0x566F6365206E616F206520756D20636F6E73756D69646F720000000000000000 PUSH1 0x0 DUP3 ADD MSTORE POP JUMP JUMPDEST PUSH1 0x0 PUSH2 0x252F PUSH1 0x18 DUP4 PUSH2 0x1EA7 JUMP JUMPDEST SWAP2 POP PUSH2 0x253A DUP3 PUSH2 0x24F9 JUMP JUMPDEST PUSH1 0x20 DUP3 ADD SWAP1 POP SWAP2 SWAP1 POP JUMP JUMPDEST PUSH1 0x0 PUSH1 0x20 DUP3 ADD SWAP1 POP DUP2 DUP2 SUB PUSH1 0x0 DUP4 ADD MSTORE PUSH2 0x255E DUP2 PUSH2 0x2522 JUMP JUMPDEST SWAP1 POP SWAP2 SWAP1 POP JUMP JUMPDEST PUSH32 0x4F20656E64657265636F207061737361646F206E616F206520756D2064697374 PUSH1 0x0 DUP3 ADD MSTORE PUSH32 0x7269627569646F72000000000000000000000000000000000000000000000000 PUSH1 0x20 DUP3 ADD MSTORE POP JUMP JUMPDEST PUSH1 0x0 PUSH2 0x25C1 PUSH1 0x28 DUP4 PUSH2 0x1EA7 JUMP JUMPDEST SWAP2 POP PUSH2 0x25CC DUP3 PUSH2 0x2565 JUMP JUMPDEST PUSH1 0x40 DUP3 ADD SWAP1 POP SWAP2 SWAP1 POP JUMP JUMPDEST PUSH1 0x0 PUSH1 0x20 DUP3 ADD SWAP1 POP DUP2 DUP2 SUB PUSH1 0x0 DUP4 ADD MSTORE PUSH2 0x25F0 DUP2 PUSH2 0x25B4 JUMP JUMPDEST SWAP1 POP SWAP2 SWAP1 POP JUMP JUMPDEST PUSH32 0x4E487B7100000000000000000000000000000000000000000000000000000000 PUSH1 0x0 MSTORE PUSH1 0x11 PUSH1 0x4 MSTORE PUSH1 0x24 PUSH1 0x0 REVERT JUMPDEST PUSH1 0x0 PUSH2 0x2631 DUP3 PUSH2 0x18C7 JUMP JUMPDEST SWAP2 POP PUSH2 0x263C DUP4 PUSH2 0x18C7 JUMP JUMPDEST SWAP3 POP DUP3 DUP3 ADD SWAP1 POP DUP1 DUP3 GT ISZERO PUSH2 0x2654 JUMPI PUSH2 0x2653 PUSH2 0x25F7 JUMP JUMPDEST JUMPDEST SWAP3 SWAP2 POP POP JUMP JUMPDEST PUSH32 0x566F6365206E616F206520756D20646973747269627569646F72000000000000 PUSH1 0x0 DUP3 ADD MSTORE POP JUMP JUMPDEST PUSH1 0x0 PUSH2 0x2690 PUSH1 0x1A DUP4 PUSH2 0x1EA7 JUMP JUMPDEST SWAP2 POP PUSH2 0x269B DUP3 PUSH2 0x265A JUMP JUMPDEST PUSH1 0x20 DUP3 ADD SWAP1 POP SWAP2 SWAP1 POP JUMP JUMPDEST PUSH1 0x0 PUSH1 0x20 DUP3 ADD SWAP1 POP DUP2 DUP2 SUB PUSH1 0x0 DUP4 ADD MSTORE PUSH2 0x26BF DUP2 PUSH2 0x2683 JUMP JUMPDEST SWAP1 POP SWAP2 SWAP1 POP JUMP JUMPDEST PUSH32 0x4E487B7100000000000000000000000000000000000000000000000000000000 PUSH1 0x0 MSTORE PUSH1 0x32 PUSH1 0x4 MSTORE PUSH1 0x24 PUSH1 0x0 REVERT JUMPDEST PUSH32 0x566F6365206E616F2065206F20646973747269627569646F7220646573736120 PUSH1 0x0 DUP3 ADD MSTORE PUSH32 0x70726F706F737461000000000000000000000000000000000000000000000000 PUSH1 0x20 DUP3 ADD MSTORE POP JUMP JUMPDEST PUSH1 0x0 PUSH2 0x2751 PUSH1 0x28 DUP4 PUSH2 0x1EA7 JUMP JUMPDEST SWAP2 POP PUSH2 0x275C DUP3 PUSH2 0x26F5 JUMP JUMPDEST PUSH1 0x40 DUP3 ADD SWAP1 POP SWAP2 SWAP1 POP JUMP JUMPDEST PUSH1 0x0 PUSH1 0x20 DUP3 ADD SWAP1 POP DUP2 DUP2 SUB PUSH1 0x0 DUP4 ADD MSTORE PUSH2 0x2780 DUP2 PUSH2 0x2744 JUMP JUMPDEST SWAP1 POP SWAP2 SWAP1 POP JUMP JUMPDEST PUSH32 0x72657175657374206E6F7420666F756E64000000000000000000000000000000 PUSH1 0x0 DUP3 ADD MSTORE POP JUMP JUMPDEST PUSH1 0x0 PUSH2 0x27BD PUSH1 0x11 DUP4 PUSH2 0x1EA7 JUMP JUMPDEST SWAP2 POP PUSH2 0x27C8 DUP3 PUSH2 0x2787 JUMP JUMPDEST PUSH1 0x20 DUP3 ADD SWAP1 POP SWAP2 SWAP1 POP JUMP JUMPDEST PUSH1 0x0 PUSH1 0x20 DUP3 ADD SWAP1 POP DUP2 DUP2 SUB PUSH1 0x0 DUP4 ADD MSTORE PUSH2 0x27EC DUP2 PUSH2 0x27B0 JUMP JUMPDEST SWAP1 POP SWAP2 SWAP1 POP JUMP JUMPDEST PUSH1 0x0 DUP2 SWAP1 POP DUP2 PUSH1 0x0 MSTORE PUSH1 0x20 PUSH1 0x0 KECCAK256 SWAP1 POP SWAP2 SWAP1 POP JUMP JUMPDEST PUSH1 0x0 PUSH1 0x20 PUSH1 0x1F DUP4 ADD DIV SWAP1 POP SWAP2 SWAP1 POP JUMP JUMPDEST PUSH1 0x0 DUP3 DUP3 SHL SWAP1 POP SWAP3 SWAP2 POP POP JUMP JUMPDEST PUSH1 0x0 PUSH1 0x8 DUP4 MUL PUSH2 0x2855 PUSH32 0xFFFFFFFFFFFFFFFFFFFFFFFFFFFFFFFFFFFFFFFFFFFFFFFFFFFFFFFFFFFFFFFF DUP3 PUSH2 0x2818 JUMP JUMPDEST PUSH2 0x285F DUP7 DUP4 PUSH2 0x2818 JUMP JUMPDEST SWAP6 POP DUP1 NOT DUP5 AND SWAP4 POP DUP1 DUP7 AND DUP5 OR SWAP3 POP POP POP SWAP4 SWAP3 POP POP POP JUMP JUMPDEST PUSH1 0x0 DUP2 SWAP1 POP SWAP2 SWAP1 POP JUMP JUMPDEST PUSH1 0x0 PUSH2 0x289C PUSH2 0x2897 PUSH2 0x2892 DUP5 PUSH2 0x18C7 JUMP JUMPDEST PUSH2 0x2877 JUMP JUMPDEST PUSH2 0x18C7 JUMP JUMPDEST SWAP1 POP SWAP2 SWAP1 POP JUMP JUMPDEST PUSH1 0x0 DUP2 SWAP1 POP SWAP2 SWAP1 POP JUMP JUMPDEST PUSH2 0x28B6 DUP4 PUSH2 0x2881 JUMP JUMPDEST PUSH2 0x28CA PUSH2 0x28C2 DUP3 PUSH2 0x28A3 JUMP JUMPDEST DUP5 DUP5 SLOAD PUSH2 0x2825 JUMP JUMPDEST DUP3 SSTORE POP POP POP POP JUMP JUMPDEST PUSH1 0x0 SWAP1 JUMP JUMPDEST PUSH2 0x28DF PUSH2 0x28D2 JUMP JUMPDEST PUSH2 0x28EA DUP2 DUP5 DUP5 PUSH2 0x28AD JUMP JUMPDEST POP POP POP JUMP JUMPDEST JUMPDEST DUP2 DUP2 LT ISZERO PUSH2 0x290E JUMPI PUSH2 0x2903 PUSH1 0x0 DUP3 PUSH2 0x28D7 JUMP JUMPDEST PUSH1 0x1 DUP2 ADD SWAP1 POP PUSH2 0x28F0 JUMP JUMPDEST POP POP JUMP JUMPDEST PUSH1 0x1F DUP3 GT ISZERO PUSH2 0x2953 JUMPI PUSH2 0x2924 DUP2 PUSH2 0x27F3 JUMP JUMPDEST PUSH2 0x292D DUP5 PUSH2 0x2808 JUMP JUMPDEST DUP2 ADD PUSH1 0x20 DUP6 LT ISZERO PUSH2 0x293C JUMPI DUP2 SWAP1 POP JUMPDEST PUSH2 0x2950 PUSH2 0x2948 DUP6 PUSH2 0x2808 JUMP JUMPDEST DUP4 ADD DUP3 PUSH2 0x28EF JUMP JUMPDEST POP POP JUMPDEST POP POP POP JUMP JUMPDEST PUSH1 0x0 DUP3 DUP3 SHR SWAP1 POP SWAP3 SWAP2 POP POP JUMP JUMPDEST PUSH1 0x0 PUSH2 0x2976 PUSH1 0x0 NOT DUP5 PUSH1 0x8 MUL PUSH2 0x2958 JUMP JUMPDEST NOT DUP1 DUP4 AND SWAP2 POP POP SWAP3 SWAP2 POP POP JUMP JUMPDEST PUSH1 0x0 PUSH2 0x298F DUP4 DUP4 PUSH2 0x2965 JUMP JUMPDEST SWAP2 POP DUP3 PUSH1 0x2 MUL DUP3 OR SWAP1 POP SWAP3 SWAP2 POP POP JUMP JUMPDEST PUSH2 0x29A8 DUP3 PUSH2 0x1BE6 JUMP JUMPDEST PUSH8 0xFFFFFFFFFFFFFFFF DUP2 GT ISZERO PUSH2 0x29C1 JUMPI PUSH2 0x29C0 PUSH2 0x1A30 JUMP JUMPDEST JUMPDEST PUSH2 0x29CB DUP3 SLOAD PUSH2 0x2436 JUMP JUMPDEST PUSH2 0x29D6 DUP3 DUP3 DUP6 PUSH2 0x2912 JUMP JUMPDEST PUSH1 0x0 PUSH1 0x20 SWAP1 POP PUSH1 0x1F DUP4 GT PUSH1 0x1 DUP2 EQ PUSH2 0x2A09 JUMPI PUSH1 0x0 DUP5 ISZERO PUSH2 0x29F7 JUMPI DUP3 DUP8 ADD MLOAD SWAP1 POP JUMPDEST PUSH2 0x2A01 DUP6 DUP3 PUSH2 0x2983 JUMP JUMPDEST DUP7 SSTORE POP PUSH2 0x2A69 JUMP JUMPDEST PUSH1 0x1F NOT DUP5 AND PUSH2 0x2A17 DUP7 PUSH2 0x27F3 JUMP JUMPDEST PUSH1 0x0 JUMPDEST DUP3 DUP2 LT ISZERO PUSH2 0x2A3F JUMPI DUP5 DUP10 ADD MLOAD DUP3 SSTORE PUSH1 0x1 DUP3 ADD SWAP2 POP PUSH1 0x20 DUP6 ADD SWAP5 POP PUSH1 0x20 DUP2 ADD SWAP1 POP PUSH2 0x2A1A JUMP JUMPDEST DUP7 DUP4 LT ISZERO PUSH2 0x2A5C JUMPI DUP5 DUP10 ADD MLOAD PUSH2 0x2A58 PUSH1 0x1F DUP10 AND DUP3 PUSH2 0x2965 JUMP JUMPDEST DUP4 SSTORE POP JUMPDEST PUSH1 0x1 PUSH1 0x2 DUP9 MUL ADD DUP9 SSTORE POP POP POP JUMPDEST POP POP POP POP POP POP JUMP JUMPDEST PUSH1 0x0 DUP2 SWAP1 POP DUP2 PUSH1 0x0 MSTORE PUSH1 0x20 PUSH1 0x0 KECCAK256 SWAP1 POP SWAP2 SWAP1 POP JUMP JUMPDEST PUSH1 0x1F DUP3 GT ISZERO PUSH2 0x2AC7 JUMPI PUSH2 0x2A98 DUP2 PUSH2 0x2A71 JUMP JUMPDEST PUSH2 0x2AA1 DUP5 PUSH2 0x2808 JUMP JUMPDEST DUP2 ADD PUSH1 0x20 DUP6 LT ISZERO PUSH2 0x2AB0 JUMPI DUP2 SWAP1 POP JUMPDEST PUSH2 0x2AC4 PUSH2 0x2ABC DUP6 PUSH2 0x2808 JUMP JUMPDEST DUP4 ADD DUP3 PUSH2 0x28EF JUMP JUMPDEST POP POP JUMPDEST POP POP POP JUMP JUMPDEST PUSH2 0x2AD5 DUP3 PUSH2 0x1E9C JUMP JUMPDEST PUSH8 0xFFFFFFFFFFFFFFFF DUP2 GT ISZERO PUSH2 0x2AEE JUMPI PUSH2 0x2AED PUSH2 0x1A30 JUMP JUMPDEST JUMPDEST PUSH2 0x2AF8 DUP3 SLOAD PUSH2 0x2436 JUMP JUMPDEST PUSH2 0x2B03 DUP3 DUP3 DUP6 PUSH2 0x2A86 JUMP JUMPDEST PUSH1 0x0 PUSH1 0x20 SWAP1 POP PUSH1 0x1F DUP4 GT PUSH1 0x1 DUP2 EQ PUSH2 0x2B36 JUMPI PUSH1 0x0 DUP5 ISZERO PUSH2 0x2B24 JUMPI DUP3 DUP8 ADD MLOAD SWAP1 POP JUMPDEST PUSH2 0x2B2E DUP6 DUP3 PUSH2 0x2983 JUMP JUMPDEST DUP7 SSTORE POP PUSH2 0x2B96 JUMP JUMPDEST PUSH1 0x1F NOT DUP5 AND PUSH2 0x2B44 DUP7 PUSH2 0x2A71 JUMP JUMPDEST PUSH1 0x0 JUMPDEST DUP3 DUP2 LT ISZERO PUSH2 0x2B6C JUMPI DUP5 DUP10 ADD MLOAD DUP3 SSTORE PUSH1 0x1 DUP3 ADD SWAP2 POP PUSH1 0x20 DUP6 ADD SWAP5 POP PUSH1 0x20 DUP2 ADD SWAP1 POP PUSH2 0x2B47 JUMP JUMPDEST DUP7 DUP4 LT ISZERO PUSH2 0x2B89 JUMPI DUP5 DUP10 ADD MLOAD PUSH2 0x2B85 PUSH1 0x1F DUP10 AND DUP3 PUSH2 0x2965 JUMP JUMPDEST DUP4 SSTORE POP JUMPDEST PUSH1 0x1 PUSH1 0x2 DUP9 MUL ADD DUP9 SSTORE POP POP POP JUMPDEST POP POP POP POP POP POP JUMP JUMPDEST PUSH1 0x0 DUP2 SLOAD PUSH2 0x2BAB DUP2 PUSH2 0x2436 JUMP JUMPDEST PUSH2 0x2BB5 DUP2 DUP7 PUSH2 0x1EA7 JUMP JUMPDEST SWAP5 POP PUSH1 0x1 DUP3 AND PUSH1 0x0 DUP2 EQ PUSH2 0x2BD0 JUMPI PUSH1 0x1 DUP2 EQ PUSH2 0x2BE6 JUMPI PUSH2 0x2C19 JUMP JUMPDEST PUSH1 0xFF NOT DUP4 AND DUP7 MSTORE DUP2 ISZERO ISZERO PUSH1 0x20 MUL DUP7 ADD SWAP4 POP PUSH2 0x2C19 JUMP JUMPDEST PUSH2 0x2BEF DUP6 PUSH2 0x2A71 JUMP JUMPDEST PUSH1 0x0 JUMPDEST DUP4 DUP2 LT ISZERO PUSH2 0x2C11 JUMPI DUP2 SLOAD DUP2 DUP10 ADD MSTORE PUSH1 0x1 DUP3 ADD SWAP2 POP PUSH1 0x20 DUP2 ADD SWAP1 POP PUSH2 0x2BF2 JUMP JUMPDEST DUP1 DUP9 ADD SWAP6 POP POP POP JUMPDEST POP POP POP SWAP3 SWAP2 POP POP JUMP JUMPDEST PUSH1 0x0 DUP2 SLOAD PUSH2 0x2C2F DUP2 PUSH2 0x2436 JUMP JUMPDEST PUSH2 0x2C39 DUP2 DUP7 PUSH2 0x1BF1 JUMP JUMPDEST SWAP5 POP PUSH1 0x1 DUP3 AND PUSH1 0x0 DUP2 EQ PUSH2 0x2C54 JUMPI PUSH1 0x1 DUP2 EQ PUSH2 0x2C6A JUMPI PUSH2 0x2C9D JUMP JUMPDEST PUSH1 0xFF NOT DUP4 AND DUP7 MSTORE DUP2 ISZERO ISZERO PUSH1 0x20 MUL DUP7 ADD SWAP4 POP PUSH2 0x2C9D JUMP JUMPDEST PUSH2 0x2C73 DUP6 PUSH2 0x27F3 JUMP JUMPDEST PUSH1 0x0 JUMPDEST DUP4 DUP2 LT ISZERO PUSH2 0x2C95 JUMPI DUP2 SLOAD DUP2 DUP10 ADD MSTORE PUSH1 0x1 DUP3 ADD SWAP2 POP PUSH1 0x20 DUP2 ADD SWAP1 POP PUSH2 0x2C76 JUMP JUMPDEST DUP1 DUP9 ADD SWAP6 POP POP POP JUMPDEST POP POP POP SWAP3 SWAP2 POP POP JUMP JUMPDEST PUSH1 0x0 PUSH1 0x60 DUP3 ADD SWAP1 POP DUP2 DUP2 SUB PUSH1 0x0 DUP4 ADD MSTORE PUSH2 0x2CC0 DUP2 DUP7 PUSH2 0x2B9E JUMP JUMPDEST SWAP1 POP DUP2 DUP2 SUB PUSH1 0x20 DUP4 ADD MSTORE PUSH2 0x2CD4 DUP2 DUP6 PUSH2 0x2C22 JUMP JUMPDEST SWAP1 POP DUP2 DUP2 SUB PUSH1 0x40 DUP4 ADD MSTORE PUSH2 0x2CE8 DUP2 DUP5 PUSH2 0x2C22 JUMP JUMPDEST SWAP1 POP SWAP5 SWAP4 POP POP POP POP JUMP INVALID LOG2 PUSH5 0x6970667358 0x22 SLT KECCAK256 0x4E 0xC5 PUSH27 0xB1A4FC783E65714167DC63BF84178972D1C27A9625FA5388D046EA SWAP11 0xDA PUSH5 0x736F6C6343 STOP ADDMOD SGT STOP CALLER PUSH4 0x6F6E7374 KECCAK256 PUSH6 0x6E6572677943 PUSH16 0x6E747261637473203D20617267735B30 0x5D EXTCODESIZE PUSH4 0x6F6E7374 KECCAK256 PUSH2 0x7069 MSTORE PUSH6 0x73706F6E7365 KECCAK256 RETURNDATASIZE KECCAK256 PUSH2 0x7761 PUSH10 0x742046756E6374696F6E PUSH20 0x2E6D616B654874747052657175657374287B7572 PUSH13 0x3A206068747470733A2F2F6261 PUSH16 0x656E657267792D617069322E6F6E7265 PUSH15 0x6465722E636F6D2F63616C63756C61 PUSH21 0x652F3F76616C7565733D7B656E65726779436F6E74 PUSH19 0x616374737D602C726573706F6E736554797065 GASPRICE KECCAK256 0x27 PUSH21 0x657874277D293B69662028617069526573706F6E73 PUSH6 0x2E6572726F72 0x29 KECCAK256 PUSH28 0x7468726F77204572726F72282752657175657374206661696C656427 0x29 EXTCODESIZE PUSH30 0x636F6E7374207B2064617461207D203D20617069526573706F6E73653B6C PUSH6 0x74206E657744 PUSH2 0x7461 KECCAK256 RETURNDATASIZE KECCAK256 0x4A MSTORE8 0x4F 0x4E 0x2E PUSH20 0x7472696E6769667928646174612972657475726E KECCAK256 CHAINID PUSH22 0x6E6374696F6E732E656E636F6465537472696E67286E PUSH6 0x774461746129 EXTCODESIZE "},"methodIdentifiers":{"addDistributor(uint256,uint256,uint256)":"2e8376dc","addPropose(uint256,uint256,address,uint256)":"2eafc905","answerPropose(uint256,bool)":"c2729bfb","bestOptions(uint256)":"6d37a202","consumerToUserContract(address)":"05ef317a","consumers(address)":"0bf53668","distributors(address)":"cc642784","getAllMeanPrice(uint256)":"90e1e607","getProposes()":"d3e64ffa","handleOracleFulfillment(bytes32,bytes,bytes)":"0ca76175","lastError()":"29f0de3f","lastRequestId()":"fc2a88c3","lastResponse()":"62747e42","localIdToDistributors(uint256,uint256)":"9af96a73","proposes(address,uint256)":"642cb091","registerConsumer(uint256,uint256,bool)":"7c732f85","requestIds(uint256)":"8796ba8c","requests(bytes32)":"9d866985","source()":"67e828bf","subscriptionId()":"09c1ba2e"}}}}}