{"contracts/BaoStorage.sol":{"BaoStorage":{"abi":[{"inputs":[{"components":[{"internalType":"uint256","name":"energyConsume","type":"uint256"},{"internalType":"uint256","name":"pricePerMonth","type":"uint256"},{"internalType":"uint256","name":"timeStamp","type":"uint256"},{"internalType":"uint256","name":"localId","type":"uint256"},{"internalType":"bool","name":"active","type":"bool"},{"internalType":"uint256","name":"contractDeadLine","type":"uint256"}],"internalType":"struct BaoStorage.UserContract","name":"_userContract","type":"tuple"}],"name":"addUserContract","outputs":[],"stateMutability":"nonpayable","type":"function"},{"inputs":[{"internalType":"uint256","name":"_localId","type":"uint256"}],"name":"getUserContracts","outputs":[{"components":[{"internalType":"uint256","name":"energyConsume","type":"uint256"},{"internalType":"uint256","name":"pricePerMonth","type":"uint256"},{"internalType":"uint256","name":"timeStamp","type":"uint256"},{"internalType":"uint256","name":"localId","type":"uint256"},{"internalType":"bool","name":"active","type":"bool"},{"internalType":"uint256","name":"contractDeadLine","type":"uint256"}],"internalType":"struct BaoStorage.UserContract[]","name":"","type":"tuple[]"}],"stateMutability":"view","type":"function"},{"inputs":[{"internalType":"uint256","name":"","type":"uint256"},{"internalType":"uint256","name":"","type":"uint256"}],"name":"localToContract","outputs":[{"internalType":"uint256","name":"energyConsume","type":"uint256"},{"internalType":"uint256","name":"pricePerMonth","type":"uint256"},{"internalType":"uint256","name":"timeStamp","type":"uint256"},{"internalType":"uint256","name":"localId","type":"uint256"},{"internalType":"bool","name":"active","type":"bool"},{"internalType":"uint256","name":"contractDeadLine","type":"uint256"}],"stateMutability":"view","type":"function"}],"evm":{"bytecode":{"linkReferences":{},"object":"608060405234801561001057600080fd5b506106e9806100206000396000f3fe608060405234801561001057600080fd5b50600436106100415760003560e01c80639f7b414114610046578063b0d187d714610062578063f3de41ad14610092575b600080fd5b610060600480360381019061005b9190610430565b6100c7565b005b61007c6004803603810190610077919061045d565b61015e565b60405161008991906105d2565b60405180910390f35b6100ac60048036038101906100a791906105f4565b61021c565b6040516100be96959493929190610652565b60405180910390f35b600080826060015181526020019081526020016000208190806001815401808255809150506001900390600052602060002090600602016000909190919091506000820151816000015560208201518160010155604082015181600201556060820151816003015560808201518160040160006101000a81548160ff02191690831515021790555060a08201518160050155505050565b6060600080838152602001908152602001600020805480602002602001604051908101604052809291908181526020016000905b8282101561021157838290600052602060002090600602016040518060c0016040529081600082015481526020016001820154815260200160028201548152602001600382015481526020016004820160009054906101000a900460ff1615151515815260200160058201548152505081526020019060010190610192565b505050509050919050565b6000602052816000526040600020818154811061023857600080fd5b9060005260206000209060060201600091509150508060000154908060010154908060020154908060030154908060040160009054906101000a900460ff16908060050154905086565b6000604051905090565b600080fd5b600080fd5b6000601f19601f8301169050919050565b7f4e487b7100000000000000000000000000000000000000000000000000000000600052604160045260246000fd5b6102df82610296565b810181811067ffffffffffffffff821117156102fe576102fd6102a7565b5b80604052505050565b6000610311610282565b905061031d82826102d6565b919050565b6000819050919050565b61033581610322565b811461034057600080fd5b50565b6000813590506103528161032c565b92915050565b60008115159050919050565b61036d81610358565b811461037857600080fd5b50565b60008135905061038a81610364565b92915050565b600060c082840312156103a6576103a5610291565b5b6103b060c0610307565b905060006103c084828501610343565b60008301525060206103d484828501610343565b60208301525060406103e884828501610343565b60408301525060606103fc84828501610343565b60608301525060806104108482850161037b565b60808301525060a061042484828501610343565b60a08301525092915050565b600060c082840312156104465761044561028c565b5b600061045484828501610390565b91505092915050565b6000602082840312156104735761047261028c565b5b600061048184828501610343565b91505092915050565b600081519050919050565b600082825260208201905092915050565b6000819050602082019050919050565b6104bf81610322565b82525050565b6104ce81610358565b82525050565b60c0820160008201516104ea60008501826104b6565b5060208201516104fd60208501826104b6565b50604082015161051060408501826104b6565b50606082015161052360608501826104b6565b50608082015161053660808501826104c5565b5060a082015161054960a08501826104b6565b50505050565b600061055b83836104d4565b60c08301905092915050565b6000602082019050919050565b600061057f8261048a565b6105898185610495565b9350610594836104a6565b8060005b838110156105c55781516105ac888261054f565b97506105b783610567565b925050600181019050610598565b5085935050505092915050565b600060208201905081810360008301526105ec8184610574565b905092915050565b6000806040838503121561060b5761060a61028c565b5b600061061985828601610343565b925050602061062a85828601610343565b9150509250929050565b61063d81610322565b82525050565b61064c81610358565b82525050565b600060c0820190506106676000830189610634565b6106746020830188610634565b6106816040830187610634565b61068e6060830186610634565b61069b6080830185610643565b6106a860a0830184610634565b97965050505050505056fea264697066735822122074a41457f6c65666295d73e352b24062290178b2ad0d152b317f51620fc7d1c664736f6c63430008130033","opcodes":"PUSH1 0x80 PUSH1 0x40 MSTORE CALLVALUE DUP1 ISZERO PUSH2 0x10 JUMPI PUSH1 0x0 DUP1 REVERT JUMPDEST POP PUSH2 0x6E9 DUP1 PUSH2 0x20 PUSH1 0x0 CODECOPY PUSH1 0x0 RETURN INVALID PUSH1 0x80 PUSH1 0x40 MSTORE CALLVALUE DUP1 ISZERO PUSH2 0x10 JUMPI PUSH1 0x0 DUP1 REVERT JUMPDEST POP PUSH1 0x4 CALLDATASIZE LT PUSH2 0x41 JUMPI PUSH1 0x0 CALLDATALOAD PUSH1 0xE0 SHR DUP1 PUSH4 0x9F7B4141 EQ PUSH2 0x46 JUMPI DUP1 PUSH4 0xB0D187D7 EQ PUSH2 0x62 JUMPI DUP1 PUSH4 0xF3DE41AD EQ PUSH2 0x92 JUMPI JUMPDEST PUSH1 0x0 DUP1 REVERT JUMPDEST PUSH2 0x60 PUSH1 0x4 DUP1 CALLDATASIZE SUB DUP2 ADD SWAP1 PUSH2 0x5B SWAP2 SWAP1 PUSH2 0x430 JUMP JUMPDEST PUSH2 0xC7 JUMP JUMPDEST STOP JUMPDEST PUSH2 0x7C PUSH1 0x4 DUP1 CALLDATASIZE SUB DUP2 ADD SWAP1 PUSH2 0x77 SWAP2 SWAP1 PUSH2 0x45D JUMP JUMPDEST PUSH2 0x15E JUMP JUMPDEST PUSH1 0x40 MLOAD PUSH2 0x89 SWAP2 SWAP1 PUSH2 0x5D2 JUMP JUMPDEST PUSH1 0x40 MLOAD DUP1 SWAP2 SUB SWAP1 RETURN JUMPDEST PUSH2 0xAC PUSH1 0x4 DUP1 CALLDATASIZE SUB DUP2 ADD SWAP1 PUSH2 0xA7 SWAP2 SWAP1 PUSH2 0x5F4 JUMP JUMPDEST PUSH2 0x21C JUMP JUMPDEST PUSH1 0x40 MLOAD PUSH2 0xBE SWAP7 SWAP6 SWAP5 SWAP4 SWAP3 SWAP2 SWAP1 PUSH2 0x652 JUMP JUMPDEST PUSH1 0x40 MLOAD DUP1 SWAP2 SUB SWAP1 RETURN JUMPDEST PUSH1 0x0 DUP1 DUP3 PUSH1 0x60 ADD MLOAD DUP2 MSTORE PUSH1 0x20 ADD SWAP1 DUP2 MSTORE PUSH1 0x20 ADD PUSH1 0x0 KECCAK256 DUP2 SWAP1 DUP1 PUSH1 0x1 DUP2 SLOAD ADD DUP1 DUP3 SSTORE DUP1 SWAP2 POP POP PUSH1 0x1 SWAP1 SUB SWAP1 PUSH1 0x0 MSTORE PUSH1 0x20 PUSH1 0x0 KECCAK256 SWAP1 PUSH1 0x6 MUL ADD PUSH1 0x0 SWAP1 SWAP2 SWAP1 SWAP2 SWAP1 SWAP2 POP PUSH1 0x0 DUP3 ADD MLOAD DUP2 PUSH1 0x0 ADD SSTORE PUSH1 0x20 DUP3 ADD MLOAD DUP2 PUSH1 0x1 ADD SSTORE PUSH1 0x40 DUP3 ADD MLOAD DUP2 PUSH1 0x2 ADD SSTORE PUSH1 0x60 DUP3 ADD MLOAD DUP2 PUSH1 0x3 ADD SSTORE PUSH1 0x80 DUP3 ADD MLOAD DUP2 PUSH1 0x4 ADD PUSH1 0x0 PUSH2 0x100 EXP DUP2 SLOAD DUP2 PUSH1 0xFF MUL NOT AND SWAP1 DUP4 ISZERO ISZERO MUL OR SWAP1 SSTORE POP PUSH1 0xA0 DUP3 ADD MLOAD DUP2 PUSH1 0x5 ADD SSTORE POP POP POP JUMP JUMPDEST PUSH1 0x60 PUSH1 0x0 DUP1 DUP4 DUP2 MSTORE PUSH1 0x20 ADD SWAP1 DUP2 MSTORE PUSH1 0x20 ADD PUSH1 0x0 KECCAK256 DUP1 SLOAD DUP1 PUSH1 0x20 MUL PUSH1 0x20 ADD PUSH1 0x40 MLOAD SWAP1 DUP2 ADD PUSH1 0x40 MSTORE DUP1 SWAP3 SWAP2 SWAP1 DUP2 DUP2 MSTORE PUSH1 0x20 ADD PUSH1 0x0 SWAP1 JUMPDEST DUP3 DUP3 LT ISZERO PUSH2 0x211 JUMPI DUP4 DUP3 SWAP1 PUSH1 0x0 MSTORE PUSH1 0x20 PUSH1 0x0 KECCAK256 SWAP1 PUSH1 0x6 MUL ADD PUSH1 0x40 MLOAD DUP1 PUSH1 0xC0 ADD PUSH1 0x40 MSTORE SWAP1 DUP2 PUSH1 0x0 DUP3 ADD SLOAD DUP2 MSTORE PUSH1 0x20 ADD PUSH1 0x1 DUP3 ADD SLOAD DUP2 MSTORE PUSH1 0x20 ADD PUSH1 0x2 DUP3 ADD SLOAD DUP2 MSTORE PUSH1 0x20 ADD PUSH1 0x3 DUP3 ADD SLOAD DUP2 MSTORE PUSH1 0x20 ADD PUSH1 0x4 DUP3 ADD PUSH1 0x0 SWAP1 SLOAD SWAP1 PUSH2 0x100 EXP SWAP1 DIV PUSH1 0xFF AND ISZERO ISZERO ISZERO ISZERO DUP2 MSTORE PUSH1 0x20 ADD PUSH1 0x5 DUP3 ADD SLOAD DUP2 MSTORE POP POP DUP2 MSTORE PUSH1 0x20 ADD SWAP1 PUSH1 0x1 ADD SWAP1 PUSH2 0x192 JUMP JUMPDEST POP POP POP POP SWAP1 POP SWAP2 SWAP1 POP JUMP JUMPDEST PUSH1 0x0 PUSH1 0x20 MSTORE DUP2 PUSH1 0x0 MSTORE PUSH1 0x40 PUSH1 0x0 KECCAK256 DUP2 DUP2 SLOAD DUP2 LT PUSH2 0x238 JUMPI PUSH1 0x0 DUP1 REVERT JUMPDEST SWAP1 PUSH1 0x0 MSTORE PUSH1 0x20 PUSH1 0x0 KECCAK256 SWAP1 PUSH1 0x6 MUL ADD PUSH1 0x0 SWAP2 POP SWAP2 POP POP DUP1 PUSH1 0x0 ADD SLOAD SWAP1 DUP1 PUSH1 0x1 ADD SLOAD SWAP1 DUP1 PUSH1 0x2 ADD SLOAD SWAP1 DUP1 PUSH1 0x3 ADD SLOAD SWAP1 DUP1 PUSH1 0x4 ADD PUSH1 0x0 SWAP1 SLOAD SWAP1 PUSH2 0x100 EXP SWAP1 DIV PUSH1 0xFF AND SWAP1 DUP1 PUSH1 0x5 ADD SLOAD SWAP1 POP DUP7 JUMP JUMPDEST PUSH1 0x0 PUSH1 0x40 MLOAD SWAP1 POP SWAP1 JUMP JUMPDEST PUSH1 0x0 DUP1 REVERT JUMPDEST PUSH1 0x0 DUP1 REVERT JUMPDEST PUSH1 0x0 PUSH1 0x1F NOT PUSH1 0x1F DUP4 ADD AND SWAP1 POP SWAP2 SWAP1 POP JUMP JUMPDEST PUSH32 0x4E487B7100000000000000000000000000000000000000000000000000000000 PUSH1 0x0 MSTORE PUSH1 0x41 PUSH1 0x4 MSTORE PUSH1 0x24 PUSH1 0x0 REVERT JUMPDEST PUSH2 0x2DF DUP3 PUSH2 0x296 JUMP JUMPDEST DUP2 ADD DUP2 DUP2 LT PUSH8 0xFFFFFFFFFFFFFFFF DUP3 GT OR ISZERO PUSH2 0x2FE JUMPI PUSH2 0x2FD PUSH2 0x2A7 JUMP JUMPDEST JUMPDEST DUP1 PUSH1 0x40 MSTORE POP POP POP JUMP JUMPDEST PUSH1 0x0 PUSH2 0x311 PUSH2 0x282 JUMP JUMPDEST SWAP1 POP PUSH2 0x31D DUP3 DUP3 PUSH2 0x2D6 JUMP JUMPDEST SWAP2 SWAP1 POP JUMP JUMPDEST PUSH1 0x0 DUP2 SWAP1 POP SWAP2 SWAP1 POP JUMP JUMPDEST PUSH2 0x335 DUP2 PUSH2 0x322 JUMP JUMPDEST DUP2 EQ PUSH2 0x340 JUMPI PUSH1 0x0 DUP1 REVERT JUMPDEST POP JUMP JUMPDEST PUSH1 0x0 DUP2 CALLDATALOAD SWAP1 POP PUSH2 0x352 DUP2 PUSH2 0x32C JUMP JUMPDEST SWAP3 SWAP2 POP POP JUMP JUMPDEST PUSH1 0x0 DUP2 ISZERO ISZERO SWAP1 POP SWAP2 SWAP1 POP JUMP JUMPDEST PUSH2 0x36D DUP2 PUSH2 0x358 JUMP JUMPDEST DUP2 EQ PUSH2 0x378 JUMPI PUSH1 0x0 DUP1 REVERT JUMPDEST POP JUMP JUMPDEST PUSH1 0x0 DUP2 CALLDATALOAD SWAP1 POP PUSH2 0x38A DUP2 PUSH2 0x364 JUMP JUMPDEST SWAP3 SWAP2 POP POP JUMP JUMPDEST PUSH1 0x0 PUSH1 0xC0 DUP3 DUP5 SUB SLT ISZERO PUSH2 0x3A6 JUMPI PUSH2 0x3A5 PUSH2 0x291 JUMP JUMPDEST JUMPDEST PUSH2 0x3B0 PUSH1 0xC0 PUSH2 0x307 JUMP JUMPDEST SWAP1 POP PUSH1 0x0 PUSH2 0x3C0 DUP5 DUP3 DUP6 ADD PUSH2 0x343 JUMP JUMPDEST PUSH1 0x0 DUP4 ADD MSTORE POP PUSH1 0x20 PUSH2 0x3D4 DUP5 DUP3 DUP6 ADD PUSH2 0x343 JUMP JUMPDEST PUSH1 0x20 DUP4 ADD MSTORE POP PUSH1 0x40 PUSH2 0x3E8 DUP5 DUP3 DUP6 ADD PUSH2 0x343 JUMP JUMPDEST PUSH1 0x40 DUP4 ADD MSTORE POP PUSH1 0x60 PUSH2 0x3FC DUP5 DUP3 DUP6 ADD PUSH2 0x343 JUMP JUMPDEST PUSH1 0x60 DUP4 ADD MSTORE POP PUSH1 0x80 PUSH2 0x410 DUP5 DUP3 DUP6 ADD PUSH2 0x37B JUMP JUMPDEST PUSH1 0x80 DUP4 ADD MSTORE POP PUSH1 0xA0 PUSH2 0x424 DUP5 DUP3 DUP6 ADD PUSH2 0x343 JUMP JUMPDEST PUSH1 0xA0 DUP4 ADD MSTORE POP SWAP3 SWAP2 POP POP JUMP JUMPDEST PUSH1 0x0 PUSH1 0xC0 DUP3 DUP5 SUB SLT ISZERO PUSH2 0x446 JUMPI PUSH2 0x445 PUSH2 0x28C JUMP JUMPDEST JUMPDEST PUSH1 0x0 PUSH2 0x454 DUP5 DUP3 DUP6 ADD PUSH2 0x390 JUMP JUMPDEST SWAP2 POP POP SWAP3 SWAP2 POP POP JUMP JUMPDEST PUSH1 0x0 PUSH1 0x20 DUP3 DUP5 SUB SLT ISZERO PUSH2 0x473 JUMPI PUSH2 0x472 PUSH2 0x28C JUMP JUMPDEST JUMPDEST PUSH1 0x0 PUSH2 0x481 DUP5 DUP3 DUP6 ADD PUSH2 0x343 JUMP JUMPDEST SWAP2 POP POP SWAP3 SWAP2 POP POP JUMP JUMPDEST PUSH1 0x0 DUP2 MLOAD SWAP1 POP SWAP2 SWAP1 POP JUMP JUMPDEST PUSH1 0x0 DUP3 DUP3 MSTORE PUSH1 0x20 DUP3 ADD SWAP1 POP SWAP3 SWAP2 POP POP JUMP JUMPDEST PUSH1 0x0 DUP2 SWAP1 POP PUSH1 0x20 DUP3 ADD SWAP1 POP SWAP2 SWAP1 POP JUMP JUMPDEST PUSH2 0x4BF DUP2 PUSH2 0x322 JUMP JUMPDEST DUP3 MSTORE POP POP JUMP JUMPDEST PUSH2 0x4CE DUP2 PUSH2 0x358 JUMP JUMPDEST DUP3 MSTORE POP POP JUMP JUMPDEST PUSH1 0xC0 DUP3 ADD PUSH1 0x0 DUP3 ADD MLOAD PUSH2 0x4EA PUSH1 0x0 DUP6 ADD DUP3 PUSH2 0x4B6 JUMP JUMPDEST POP PUSH1 0x20 DUP3 ADD MLOAD PUSH2 0x4FD PUSH1 0x20 DUP6 ADD DUP3 PUSH2 0x4B6 JUMP JUMPDEST POP PUSH1 0x40 DUP3 ADD MLOAD PUSH2 0x510 PUSH1 0x40 DUP6 ADD DUP3 PUSH2 0x4B6 JUMP JUMPDEST POP PUSH1 0x60 DUP3 ADD MLOAD PUSH2 0x523 PUSH1 0x60 DUP6 ADD DUP3 PUSH2 0x4B6 JUMP JUMPDEST POP PUSH1 0x80 DUP3 ADD MLOAD PUSH2 0x536 PUSH1 0x80 DUP6 ADD DUP3 PUSH2 0x4C5 JUMP JUMPDEST POP PUSH1 0xA0 DUP3 ADD MLOAD PUSH2 0x549 PUSH1 0xA0 DUP6 ADD DUP3 PUSH2 0x4B6 JUMP JUMPDEST POP POP POP POP JUMP JUMPDEST PUSH1 0x0 PUSH2 0x55B DUP4 DUP4 PUSH2 0x4D4 JUMP JUMPDEST PUSH1 0xC0 DUP4 ADD SWAP1 POP SWAP3 SWAP2 POP POP JUMP JUMPDEST PUSH1 0x0 PUSH1 0x20 DUP3 ADD SWAP1 POP SWAP2 SWAP1 POP JUMP JUMPDEST PUSH1 0x0 PUSH2 0x57F DUP3 PUSH2 0x48A JUMP JUMPDEST PUSH2 0x589 DUP2 DUP6 PUSH2 0x495 JUMP JUMPDEST SWAP4 POP PUSH2 0x594 DUP4 PUSH2 0x4A6 JUMP JUMPDEST DUP1 PUSH1 0x0 JUMPDEST DUP4 DUP2 LT ISZERO PUSH2 0x5C5 JUMPI DUP2 MLOAD PUSH2 0x5AC DUP9 DUP3 PUSH2 0x54F JUMP JUMPDEST SWAP8 POP PUSH2 0x5B7 DUP4 PUSH2 0x567 JUMP JUMPDEST SWAP3 POP POP PUSH1 0x1 DUP2 ADD SWAP1 POP PUSH2 0x598 JUMP JUMPDEST POP DUP6 SWAP4 POP POP POP POP SWAP3 SWAP2 POP POP JUMP JUMPDEST PUSH1 0x0 PUSH1 0x20 DUP3 ADD SWAP1 POP DUP2 DUP2 SUB PUSH1 0x0 DUP4 ADD MSTORE PUSH2 0x5EC DUP2 DUP5 PUSH2 0x574 JUMP JUMPDEST SWAP1 POP SWAP3 SWAP2 POP POP JUMP JUMPDEST PUSH1 0x0 DUP1 PUSH1 0x40 DUP4 DUP6 SUB SLT ISZERO PUSH2 0x60B JUMPI PUSH2 0x60A PUSH2 0x28C JUMP JUMPDEST JUMPDEST PUSH1 0x0 PUSH2 0x619 DUP6 DUP3 DUP7 ADD PUSH2 0x343 JUMP JUMPDEST SWAP3 POP POP PUSH1 0x20 PUSH2 0x62A DUP6 DUP3 DUP7 ADD PUSH2 0x343 JUMP JUMPDEST SWAP2 POP POP SWAP3 POP SWAP3 SWAP1 POP JUMP JUMPDEST PUSH2 0x63D DUP2 PUSH2 0x322 JUMP JUMPDEST DUP3 MSTORE POP POP JUMP JUMPDEST PUSH2 0x64C DUP2 PUSH2 0x358 JUMP JUMPDEST DUP3 MSTORE POP POP JUMP JUMPDEST PUSH1 0x0 PUSH1 0xC0 DUP3 ADD SWAP1 POP PUSH2 0x667 PUSH1 0x0 DUP4 ADD DUP10 PUSH2 0x634 JUMP JUMPDEST PUSH2 0x674 PUSH1 0x20 DUP4 ADD DUP9 PUSH2 0x634 JUMP JUMPDEST PUSH2 0x681 PUSH1 0x40 DUP4 ADD DUP8 PUSH2 0x634 JUMP JUMPDEST PUSH2 0x68E PUSH1 0x60 DUP4 ADD DUP7 PUSH2 0x634 JUMP JUMPDEST PUSH2 0x69B PUSH1 0x80 DUP4 ADD DUP6 PUSH2 0x643 JUMP JUMPDEST PUSH2 0x6A8 PUSH1 0xA0 DUP4 ADD DUP5 PUSH2 0x634 JUMP JUMPDEST SWAP8 SWAP7 POP POP POP POP POP POP POP JUMP INVALID LOG2 PUSH5 0x6970667358 0x22 SLT KECCAK256 PUSH21 0xA41457F6C65666295D73E352B24062290178B2AD0D ISZERO 0x2B BALANCE PUSH32 0x51620FC7D1C664736F6C63430008130033000000000000000000000000000000 "},"methodIdentifiers":{"addUserContract((uint256,uint256,uint256,uint256,bool,uint256))":"9f7b4141","getUserContracts(uint256)":"b0d187d7","localToContract(uint256,uint256)":"f3de41ad"}}}}}