{"contracts/BaoFunction.sol":{"BaoFunction":{"abi":[{"inputs":[{"internalType":"uint64","name":"functionsSubscriptionId","type":"uint64"}],"stateMutability":"nonpayable","type":"constructor"},{"inputs":[],"name":"OnlyRouterCanFulfill","type":"error"},{"anonymous":false,"inputs":[{"indexed":true,"internalType":"bytes32","name":"id","type":"bytes32"}],"name":"RequestFulfilled","type":"event"},{"anonymous":false,"inputs":[{"indexed":true,"internalType":"bytes32","name":"id","type":"bytes32"}],"name":"RequestSent","type":"event"},{"anonymous":false,"inputs":[{"indexed":true,"internalType":"bytes32","name":"requestId","type":"bytes32"},{"indexed":false,"internalType":"string","name":"averagePrice","type":"string"},{"indexed":false,"internalType":"bytes","name":"response","type":"bytes"},{"indexed":false,"internalType":"bytes","name":"err","type":"bytes"}],"name":"Response","type":"event"},{"inputs":[{"internalType":"uint256","name":"_localId","type":"uint256"}],"name":"getAllMeanPrice","outputs":[{"internalType":"bytes32","name":"","type":"bytes32"}],"stateMutability":"nonpayable","type":"function"},{"inputs":[{"internalType":"bytes32","name":"requestId","type":"bytes32"},{"internalType":"bytes","name":"response","type":"bytes"},{"internalType":"bytes","name":"err","type":"bytes"}],"name":"handleOracleFulfillment","outputs":[],"stateMutability":"nonpayable","type":"function"},{"inputs":[],"name":"lastError","outputs":[{"internalType":"bytes","name":"","type":"bytes"}],"stateMutability":"view","type":"function"},{"inputs":[],"name":"lastRequestId","outputs":[{"internalType":"bytes32","name":"","type":"bytes32"}],"stateMutability":"view","type":"function"},{"inputs":[],"name":"lastResponse","outputs":[{"internalType":"bytes","name":"","type":"bytes"}],"stateMutability":"view","type":"function"},{"inputs":[{"internalType":"uint256","name":"","type":"uint256"}],"name":"requestIds","outputs":[{"internalType":"bytes32","name":"","type":"bytes32"}],"stateMutability":"view","type":"function"},{"inputs":[{"internalType":"bytes32","name":"","type":"bytes32"}],"name":"requests","outputs":[{"internalType":"bool","name":"fulfilled","type":"bool"},{"internalType":"bool","name":"exists","type":"bool"},{"internalType":"bytes","name":"response","type":"bytes"},{"internalType":"bytes","name":"err","type":"bytes"}],"stateMutability":"view","type":"function"},{"inputs":[],"name":"source","outputs":[{"internalType":"string","name":"","type":"string"}],"stateMutability":"view","type":"function"},{"inputs":[],"name":"subscriptionId","outputs":[{"internalType":"uint64","name":"","type":"uint64"}],"stateMutability":"view","type":"function"}],"evm":{"bytecode":{"linkReferences":{},"object":"60a060405273b83e47c2bc239b3bf370bc41e1459a34b41238d0600660006101000a81548173ffffffffffffffffffffffffffffffffffffffff021916908373ffffffffffffffffffffffffffffffffffffffff1602179055507f66756e2d657468657265756d2d7365706f6c69612d310000000000000000000060001b600755620493e0600860006101000a81548163ffffffff021916908363ffffffff160217905550604051806101800160405280610158815260200162001782610158913960099081620000d1919062000407565b50348015620000df57600080fd5b50604051620018da380380620018da833981810160405281019062000105919062000538565b600660009054906101000a900473ffffffffffffffffffffffffffffffffffffffff168073ffffffffffffffffffffffffffffffffffffffff1660808173ffffffffffffffffffffffffffffffffffffffff16815250505080600860046101000a81548167ffffffffffffffff021916908367ffffffffffffffff160217905550506200056a565b600081519050919050565b7f4e487b7100000000000000000000000000000000000000000000000000000000600052604160045260246000fd5b7f4e487b7100000000000000000000000000000000000000000000000000000000600052602260045260246000fd5b600060028204905060018216806200020f57607f821691505b602082108103620002255762000224620001c7565b5b50919050565b60008190508160005260206000209050919050565b60006020601f8301049050919050565b600082821b905092915050565b6000600883026200028f7fffffffffffffffffffffffffffffffffffffffffffffffffffffffffffffffff8262000250565b6200029b868362000250565b95508019841693508086168417925050509392505050565b6000819050919050565b6000819050919050565b6000620002e8620002e2620002dc84620002b3565b620002bd565b620002b3565b9050919050565b6000819050919050565b6200030483620002c7565b6200031c6200031382620002ef565b8484546200025d565b825550505050565b600090565b6200033362000324565b62000340818484620002f9565b505050565b5b8181101562000368576200035c60008262000329565b60018101905062000346565b5050565b601f821115620003b75762000381816200022b565b6200038c8462000240565b810160208510156200039c578190505b620003b4620003ab8562000240565b83018262000345565b50505b505050565b600082821c905092915050565b6000620003dc60001984600802620003bc565b1980831691505092915050565b6000620003f78383620003c9565b9150826002028217905092915050565b62000412826200018d565b67ffffffffffffffff8111156200042e576200042d62000198565b5b6200043a8254620001f6565b620004478282856200036c565b600060209050601f8311600181146200047f57600084156200046a578287015190505b620004768582620003e9565b865550620004e6565b601f1984166200048f866200022b565b60005b82811015620004b95784890151825560018201915060208501945060208101905062000492565b86831015620004d95784890151620004d5601f891682620003c9565b8355505b6001600288020188555050505b505050505050565b600080fd5b600067ffffffffffffffff82169050919050565b6200051281620004f3565b81146200051e57600080fd5b50565b600081519050620005328162000507565b92915050565b600060208284031215620005515762000550620004ee565b5b6000620005618482850162000521565b91505092915050565b6080516111fc6200058660003960006101f901526111fc6000f3fe608060405234801561001057600080fd5b50600436106100935760003560e01c806367e828bf1161006657806367e828bf1461010e5780638796ba8c1461012c57806390e1e6071461015c5780639d8669851461018c578063fc2a88c3146101bf57610093565b806309c1ba2e146100985780630ca76175146100b657806329f0de3f146100d257806362747e42146100f0575b600080fd5b6100a06101dd565b6040516100ad9190610785565b60405180910390f35b6100d060048036038101906100cb9190610930565b6101f7565b005b6100da6102b9565b6040516100e79190610a3a565b60405180910390f35b6100f8610347565b6040516101059190610a3a565b60405180910390f35b6101166103d5565b6040516101239190610ab1565b60405180910390f35b61014660048036038101906101419190610b09565b610463565b6040516101539190610b45565b60405180910390f35b61017660048036038101906101719190610b09565b610487565b6040516101839190610b45565b60405180910390f35b6101a660048036038101906101a19190610b60565b6104b4565b6040516101b69493929190610ba8565b60405180910390f35b6101c761060e565b6040516101d49190610b45565b60405180910390f35b600860049054906101000a900467ffffffffffffffff1681565b7f000000000000000000000000000000000000000000000000000000000000000073ffffffffffffffffffffffffffffffffffffffff163373ffffffffffffffffffffffffffffffffffffffff161461027c576040517fc6829f8300000000000000000000000000000000000000000000000000000000815260040160405180910390fd5b610287838383610614565b827f85e1543bf2f84fe80c6badbce3648c8539ad1df4d2b3d822938ca0538be727e660405160405180910390a2505050565b600380546102c690610c2a565b80601f01602080910402602001604051908101604052809291908181526020018280546102f290610c2a565b801561033f5780601f106103145761010080835404028352916020019161033f565b820191906000526020600020905b81548152906001019060200180831161032257829003601f168201915b505050505081565b6002805461035490610c2a565b80601f016020809104026020016040519081016040528092919081815260200182805461038090610c2a565b80156103cd5780601f106103a2576101008083540402835291602001916103cd565b820191906000526020600020905b8154815290600101906020018083116103b057829003601f168201915b505050505081565b600980546103e290610c2a565b80601f016020809104026020016040519081016040528092919081815260200182805461040e90610c2a565b801561045b5780601f106104305761010080835404028352916020019161045b565b820191906000526020600020905b81548152906001019060200180831161043e57829003601f168201915b505050505081565b6005818154811061047357600080fd5b906000526020600020016000915090505481565b60007f666f6f626172000000000000000000000000000000000000000000000000000060001b9050919050565b60046020528060005260406000206000915090508060000160009054906101000a900460ff16908060000160019054906101000a900460ff16908060010180546104fd90610c2a565b80601f016020809104026020016040519081016040528092919081815260200182805461052990610c2a565b80156105765780601f1061054b57610100808354040283529160200191610576565b820191906000526020600020905b81548152906001019060200180831161055957829003601f168201915b50505050509080600201805461058b90610c2a565b80601f01602080910402602001604051908101604052809291908181526020018280546105b790610c2a565b80156106045780601f106105d957610100808354040283529160200191610604565b820191906000526020600020905b8154815290600101906020018083116105e757829003601f168201915b5050505050905084565b60015481565b6004600084815260200190815260200160002060000160019054906101000a900460ff16610677576040517f08c379a000000000000000000000000000000000000000000000000000000000815260040161066e90610ca7565b60405180910390fd5b80600390816106869190610e73565b5081600290816106969190610e73565b5060016004600085815260200190815260200160002060000160006101000a81548160ff021916908315150217905550816004600085815260200190815260200160002060010190816106e99190610e73565b508060046000858152602001908152602001600020600201908161070d9190610e73565b50816000908161071d9190610fa0565b50827f160ed0aaffbef6885155188b91459cb5a97d5daadccf7561d8c46deea6641b506000600260036040516107559392919061117a565b60405180910390a2505050565b600067ffffffffffffffff82169050919050565b61077f81610762565b82525050565b600060208201905061079a6000830184610776565b92915050565b6000604051905090565b600080fd5b600080fd5b6000819050919050565b6107c7816107b4565b81146107d257600080fd5b50565b6000813590506107e4816107be565b92915050565b600080fd5b600080fd5b6000601f19601f8301169050919050565b7f4e487b7100000000000000000000000000000000000000000000000000000000600052604160045260246000fd5b61083d826107f4565b810181811067ffffffffffffffff8211171561085c5761085b610805565b5b80604052505050565b600061086f6107a0565b905061087b8282610834565b919050565b600067ffffffffffffffff82111561089b5761089a610805565b5b6108a4826107f4565b9050602081019050919050565b82818337600083830152505050565b60006108d36108ce84610880565b610865565b9050828152602081018484840111156108ef576108ee6107ef565b5b6108fa8482856108b1565b509392505050565b600082601f830112610917576109166107ea565b5b81356109278482602086016108c0565b91505092915050565b600080600060608486031215610949576109486107aa565b5b6000610957868287016107d5565b935050602084013567ffffffffffffffff811115610978576109776107af565b5b61098486828701610902565b925050604084013567ffffffffffffffff8111156109a5576109a46107af565b5b6109b186828701610902565b9150509250925092565b600081519050919050565b600082825260208201905092915050565b60005b838110156109f55780820151818401526020810190506109da565b60008484015250505050565b6000610a0c826109bb565b610a1681856109c6565b9350610a268185602086016109d7565b610a2f816107f4565b840191505092915050565b60006020820190508181036000830152610a548184610a01565b905092915050565b600081519050919050565b600082825260208201905092915050565b6000610a8382610a5c565b610a8d8185610a67565b9350610a9d8185602086016109d7565b610aa6816107f4565b840191505092915050565b60006020820190508181036000830152610acb8184610a78565b905092915050565b6000819050919050565b610ae681610ad3565b8114610af157600080fd5b50565b600081359050610b0381610add565b92915050565b600060208284031215610b1f57610b1e6107aa565b5b6000610b2d84828501610af4565b91505092915050565b610b3f816107b4565b82525050565b6000602082019050610b5a6000830184610b36565b92915050565b600060208284031215610b7657610b756107aa565b5b6000610b84848285016107d5565b91505092915050565b60008115159050919050565b610ba281610b8d565b82525050565b6000608082019050610bbd6000830187610b99565b610bca6020830186610b99565b8181036040830152610bdc8185610a01565b90508181036060830152610bf08184610a01565b905095945050505050565b7f4e487b7100000000000000000000000000000000000000000000000000000000600052602260045260246000fd5b60006002820490506001821680610c4257607f821691505b602082108103610c5557610c54610bfb565b5b50919050565b7f72657175657374206e6f7420666f756e64000000000000000000000000000000600082015250565b6000610c91601183610a67565b9150610c9c82610c5b565b602082019050919050565b60006020820190508181036000830152610cc081610c84565b9050919050565b60008190508160005260206000209050919050565b60006020601f8301049050919050565b600082821b905092915050565b600060088302610d297fffffffffffffffffffffffffffffffffffffffffffffffffffffffffffffffff82610cec565b610d338683610cec565b95508019841693508086168417925050509392505050565b6000819050919050565b6000610d70610d6b610d6684610ad3565b610d4b565b610ad3565b9050919050565b6000819050919050565b610d8a83610d55565b610d9e610d9682610d77565b848454610cf9565b825550505050565b600090565b610db3610da6565b610dbe818484610d81565b505050565b5b81811015610de257610dd7600082610dab565b600181019050610dc4565b5050565b601f821115610e2757610df881610cc7565b610e0184610cdc565b81016020851015610e10578190505b610e24610e1c85610cdc565b830182610dc3565b50505b505050565b600082821c905092915050565b6000610e4a60001984600802610e2c565b1980831691505092915050565b6000610e638383610e39565b9150826002028217905092915050565b610e7c826109bb565b67ffffffffffffffff811115610e9557610e94610805565b5b610e9f8254610c2a565b610eaa828285610de6565b600060209050601f831160018114610edd5760008415610ecb578287015190505b610ed58582610e57565b865550610f3d565b601f198416610eeb86610cc7565b60005b82811015610f1357848901518255600182019150602085019450602081019050610eee565b86831015610f305784890151610f2c601f891682610e39565b8355505b6001600288020188555050505b505050505050565b60008190508160005260206000209050919050565b601f821115610f9b57610f6c81610f45565b610f7584610cdc565b81016020851015610f84578190505b610f98610f9085610cdc565b830182610dc3565b50505b505050565b610fa982610a5c565b67ffffffffffffffff811115610fc257610fc1610805565b5b610fcc8254610c2a565b610fd7828285610f5a565b600060209050601f83116001811461100a5760008415610ff8578287015190505b6110028582610e57565b86555061106a565b601f19841661101886610f45565b60005b828110156110405784890151825560018201915060208501945060208101905061101b565b8683101561105d5784890151611059601f891682610e39565b8355505b6001600288020188555050505b505050505050565b6000815461107f81610c2a565b6110898186610a67565b945060018216600081146110a457600181146110ba576110ed565b60ff1983168652811515602002860193506110ed565b6110c385610f45565b60005b838110156110e5578154818901526001820191506020810190506110c6565b808801955050505b50505092915050565b6000815461110381610c2a565b61110d81866109c6565b94506001821660008114611128576001811461113e57611171565b60ff198316865281151560200286019350611171565b61114785610cc7565b60005b838110156111695781548189015260018201915060208101905061114a565b808801955050505b50505092915050565b600060608201905081810360008301526111948186611072565b905081810360208301526111a881856110f6565b905081810360408301526111bc81846110f6565b905094935050505056fea264697066735822122063c7a5f2c790718e02728c7809eef0461cdc44332bcbf4da455d55528231713d64736f6c63430008130033636f6e737420656e65726779436f6e747261637473203d20617267735b305d3b636f6e737420617069526573706f6e7365203d2061776169742046756e6374696f6e732e6d616b654874747052657175657374287b75726c3a206068747470733a2f2f62616f656e657267792d617069322e6f6e72656e6465722e636f6d2f63616c63756c6174652f3f76616c7565733d7b656e65726779436f6e7472616374737d602c726573706f6e7365547970653a202774657874277d293b69662028617069526573706f6e73652e6572726f7229207b7468726f77204572726f72282752657175657374206661696c656427293b7d636f6e7374207b2064617461207d203d20617069526573706f6e73653b6c6574206e657744617461203d204a534f4e2e737472696e6769667928646174612972657475726e2046756e6374696f6e732e656e636f6465537472696e67286e657744617461293b","opcodes":"PUSH1 0xA0 PUSH1 0x40 MSTORE PUSH20 0xB83E47C2BC239B3BF370BC41E1459A34B41238D0 PUSH1 0x6 PUSH1 0x0 PUSH2 0x100 EXP DUP2 SLOAD DUP2 PUSH20 0xFFFFFFFFFFFFFFFFFFFFFFFFFFFFFFFFFFFFFFFF MUL NOT AND SWAP1 DUP4 PUSH20 0xFFFFFFFFFFFFFFFFFFFFFFFFFFFFFFFFFFFFFFFF AND MUL OR SWAP1 SSTORE POP PUSH32 0x66756E2D657468657265756D2D7365706F6C69612D3100000000000000000000 PUSH1 0x0 SHL PUSH1 0x7 SSTORE PUSH3 0x493E0 PUSH1 0x8 PUSH1 0x0 PUSH2 0x100 EXP DUP2 SLOAD DUP2 PUSH4 0xFFFFFFFF MUL NOT AND SWAP1 DUP4 PUSH4 0xFFFFFFFF AND MUL OR SWAP1 SSTORE POP PUSH1 0x40 MLOAD DUP1 PUSH2 0x180 ADD PUSH1 0x40 MSTORE DUP1 PUSH2 0x158 DUP2 MSTORE PUSH1 0x20 ADD PUSH3 0x1782 PUSH2 0x158 SWAP2 CODECOPY PUSH1 0x9 SWAP1 DUP2 PUSH3 0xD1 SWAP2 SWAP1 PUSH3 0x407 JUMP JUMPDEST POP CALLVALUE DUP1 ISZERO PUSH3 0xDF JUMPI PUSH1 0x0 DUP1 REVERT JUMPDEST POP PUSH1 0x40 MLOAD PUSH3 0x18DA CODESIZE SUB DUP1 PUSH3 0x18DA DUP4 CODECOPY DUP2 DUP2 ADD PUSH1 0x40 MSTORE DUP2 ADD SWAP1 PUSH3 0x105 SWAP2 SWAP1 PUSH3 0x538 JUMP JUMPDEST PUSH1 0x6 PUSH1 0x0 SWAP1 SLOAD SWAP1 PUSH2 0x100 EXP SWAP1 DIV PUSH20 0xFFFFFFFFFFFFFFFFFFFFFFFFFFFFFFFFFFFFFFFF AND DUP1 PUSH20 0xFFFFFFFFFFFFFFFFFFFFFFFFFFFFFFFFFFFFFFFF AND PUSH1 0x80 DUP2 PUSH20 0xFFFFFFFFFFFFFFFFFFFFFFFFFFFFFFFFFFFFFFFF AND DUP2 MSTORE POP POP POP DUP1 PUSH1 0x8 PUSH1 0x4 PUSH2 0x100 EXP DUP2 SLOAD DUP2 PUSH8 0xFFFFFFFFFFFFFFFF MUL NOT AND SWAP1 DUP4 PUSH8 0xFFFFFFFFFFFFFFFF AND MUL OR SWAP1 SSTORE POP POP PUSH3 0x56A JUMP JUMPDEST PUSH1 0x0 DUP2 MLOAD SWAP1 POP SWAP2 SWAP1 POP JUMP JUMPDEST PUSH32 0x4E487B7100000000000000000000000000000000000000000000000000000000 PUSH1 0x0 MSTORE PUSH1 0x41 PUSH1 0x4 MSTORE PUSH1 0x24 PUSH1 0x0 REVERT JUMPDEST PUSH32 0x4E487B7100000000000000000000000000000000000000000000000000000000 PUSH1 0x0 MSTORE PUSH1 0x22 PUSH1 0x4 MSTORE PUSH1 0x24 PUSH1 0x0 REVERT JUMPDEST PUSH1 0x0 PUSH1 0x2 DUP3 DIV SWAP1 POP PUSH1 0x1 DUP3 AND DUP1 PUSH3 0x20F JUMPI PUSH1 0x7F DUP3 AND SWAP2 POP JUMPDEST PUSH1 0x20 DUP3 LT DUP2 SUB PUSH3 0x225 JUMPI PUSH3 0x224 PUSH3 0x1C7 JUMP JUMPDEST JUMPDEST POP SWAP2 SWAP1 POP JUMP JUMPDEST PUSH1 0x0 DUP2 SWAP1 POP DUP2 PUSH1 0x0 MSTORE PUSH1 0x20 PUSH1 0x0 KECCAK256 SWAP1 POP SWAP2 SWAP1 POP JUMP JUMPDEST PUSH1 0x0 PUSH1 0x20 PUSH1 0x1F DUP4 ADD DIV SWAP1 POP SWAP2 SWAP1 POP JUMP JUMPDEST PUSH1 0x0 DUP3 DUP3 SHL SWAP1 POP SWAP3 SWAP2 POP POP JUMP JUMPDEST PUSH1 0x0 PUSH1 0x8 DUP4 MUL PUSH3 0x28F PUSH32 0xFFFFFFFFFFFFFFFFFFFFFFFFFFFFFFFFFFFFFFFFFFFFFFFFFFFFFFFFFFFFFFFF DUP3 PUSH3 0x250 JUMP JUMPDEST PUSH3 0x29B DUP7 DUP4 PUSH3 0x250 JUMP JUMPDEST SWAP6 POP DUP1 NOT DUP5 AND SWAP4 POP DUP1 DUP7 AND DUP5 OR SWAP3 POP POP POP SWAP4 SWAP3 POP POP POP JUMP JUMPDEST PUSH1 0x0 DUP2 SWAP1 POP SWAP2 SWAP1 POP JUMP JUMPDEST PUSH1 0x0 DUP2 SWAP1 POP SWAP2 SWAP1 POP JUMP JUMPDEST PUSH1 0x0 PUSH3 0x2E8 PUSH3 0x2E2 PUSH3 0x2DC DUP5 PUSH3 0x2B3 JUMP JUMPDEST PUSH3 0x2BD JUMP JUMPDEST PUSH3 0x2B3 JUMP JUMPDEST SWAP1 POP SWAP2 SWAP1 POP JUMP JUMPDEST PUSH1 0x0 DUP2 SWAP1 POP SWAP2 SWAP1 POP JUMP JUMPDEST PUSH3 0x304 DUP4 PUSH3 0x2C7 JUMP JUMPDEST PUSH3 0x31C PUSH3 0x313 DUP3 PUSH3 0x2EF JUMP JUMPDEST DUP5 DUP5 SLOAD PUSH3 0x25D JUMP JUMPDEST DUP3 SSTORE POP POP POP POP JUMP JUMPDEST PUSH1 0x0 SWAP1 JUMP JUMPDEST PUSH3 0x333 PUSH3 0x324 JUMP JUMPDEST PUSH3 0x340 DUP2 DUP5 DUP5 PUSH3 0x2F9 JUMP JUMPDEST POP POP POP JUMP JUMPDEST JUMPDEST DUP2 DUP2 LT ISZERO PUSH3 0x368 JUMPI PUSH3 0x35C PUSH1 0x0 DUP3 PUSH3 0x329 JUMP JUMPDEST PUSH1 0x1 DUP2 ADD SWAP1 POP PUSH3 0x346 JUMP JUMPDEST POP POP JUMP JUMPDEST PUSH1 0x1F DUP3 GT ISZERO PUSH3 0x3B7 JUMPI PUSH3 0x381 DUP2 PUSH3 0x22B JUMP JUMPDEST PUSH3 0x38C DUP5 PUSH3 0x240 JUMP JUMPDEST DUP2 ADD PUSH1 0x20 DUP6 LT ISZERO PUSH3 0x39C JUMPI DUP2 SWAP1 POP JUMPDEST PUSH3 0x3B4 PUSH3 0x3AB DUP6 PUSH3 0x240 JUMP JUMPDEST DUP4 ADD DUP3 PUSH3 0x345 JUMP JUMPDEST POP POP JUMPDEST POP POP POP JUMP JUMPDEST PUSH1 0x0 DUP3 DUP3 SHR SWAP1 POP SWAP3 SWAP2 POP POP JUMP JUMPDEST PUSH1 0x0 PUSH3 0x3DC PUSH1 0x0 NOT DUP5 PUSH1 0x8 MUL PUSH3 0x3BC JUMP JUMPDEST NOT DUP1 DUP4 AND SWAP2 POP POP SWAP3 SWAP2 POP POP JUMP JUMPDEST PUSH1 0x0 PUSH3 0x3F7 DUP4 DUP4 PUSH3 0x3C9 JUMP JUMPDEST SWAP2 POP DUP3 PUSH1 0x2 MUL DUP3 OR SWAP1 POP SWAP3 SWAP2 POP POP JUMP JUMPDEST PUSH3 0x412 DUP3 PUSH3 0x18D JUMP JUMPDEST PUSH8 0xFFFFFFFFFFFFFFFF DUP2 GT ISZERO PUSH3 0x42E JUMPI PUSH3 0x42D PUSH3 0x198 JUMP JUMPDEST JUMPDEST PUSH3 0x43A DUP3 SLOAD PUSH3 0x1F6 JUMP JUMPDEST PUSH3 0x447 DUP3 DUP3 DUP6 PUSH3 0x36C JUMP JUMPDEST PUSH1 0x0 PUSH1 0x20 SWAP1 POP PUSH1 0x1F DUP4 GT PUSH1 0x1 DUP2 EQ PUSH3 0x47F JUMPI PUSH1 0x0 DUP5 ISZERO PUSH3 0x46A JUMPI DUP3 DUP8 ADD MLOAD SWAP1 POP JUMPDEST PUSH3 0x476 DUP6 DUP3 PUSH3 0x3E9 JUMP JUMPDEST DUP7 SSTORE POP PUSH3 0x4E6 JUMP JUMPDEST PUSH1 0x1F NOT DUP5 AND PUSH3 0x48F DUP7 PUSH3 0x22B JUMP JUMPDEST PUSH1 0x0 JUMPDEST DUP3 DUP2 LT ISZERO PUSH3 0x4B9 JUMPI DUP5 DUP10 ADD MLOAD DUP3 SSTORE PUSH1 0x1 DUP3 ADD SWAP2 POP PUSH1 0x20 DUP6 ADD SWAP5 POP PUSH1 0x20 DUP2 ADD SWAP1 POP PUSH3 0x492 JUMP JUMPDEST DUP7 DUP4 LT ISZERO PUSH3 0x4D9 JUMPI DUP5 DUP10 ADD MLOAD PUSH3 0x4D5 PUSH1 0x1F DUP10 AND DUP3 PUSH3 0x3C9 JUMP JUMPDEST DUP4 SSTORE POP JUMPDEST PUSH1 0x1 PUSH1 0x2 DUP9 MUL ADD DUP9 SSTORE POP POP POP JUMPDEST POP POP POP POP POP POP JUMP JUMPDEST PUSH1 0x0 DUP1 REVERT JUMPDEST PUSH1 0x0 PUSH8 0xFFFFFFFFFFFFFFFF DUP3 AND SWAP1 POP SWAP2 SWAP1 POP JUMP JUMPDEST PUSH3 0x512 DUP2 PUSH3 0x4F3 JUMP JUMPDEST DUP2 EQ PUSH3 0x51E JUMPI PUSH1 0x0 DUP1 REVERT JUMPDEST POP JUMP JUMPDEST PUSH1 0x0 DUP2 MLOAD SWAP1 POP PUSH3 0x532 DUP2 PUSH3 0x507 JUMP JUMPDEST SWAP3 SWAP2 POP POP JUMP JUMPDEST PUSH1 0x0 PUSH1 0x20 DUP3 DUP5 SUB SLT ISZERO PUSH3 0x551 JUMPI PUSH3 0x550 PUSH3 0x4EE JUMP JUMPDEST JUMPDEST PUSH1 0x0 PUSH3 0x561 DUP5 DUP3 DUP6 ADD PUSH3 0x521 JUMP JUMPDEST SWAP2 POP POP SWAP3 SWAP2 POP POP JUMP JUMPDEST PUSH1 0x80 MLOAD PUSH2 0x11FC PUSH3 0x586 PUSH1 0x0 CODECOPY PUSH1 0x0 PUSH2 0x1F9 ADD MSTORE PUSH2 0x11FC PUSH1 0x0 RETURN INVALID PUSH1 0x80 PUSH1 0x40 MSTORE CALLVALUE DUP1 ISZERO PUSH2 0x10 JUMPI PUSH1 0x0 DUP1 REVERT JUMPDEST POP PUSH1 0x4 CALLDATASIZE LT PUSH2 0x93 JUMPI PUSH1 0x0 CALLDATALOAD PUSH1 0xE0 SHR DUP1 PUSH4 0x67E828BF GT PUSH2 0x66 JUMPI DUP1 PUSH4 0x67E828BF EQ PUSH2 0x10E JUMPI DUP1 PUSH4 0x8796BA8C EQ PUSH2 0x12C JUMPI DUP1 PUSH4 0x90E1E607 EQ PUSH2 0x15C JUMPI DUP1 PUSH4 0x9D866985 EQ PUSH2 0x18C JUMPI DUP1 PUSH4 0xFC2A88C3 EQ PUSH2 0x1BF JUMPI PUSH2 0x93 JUMP JUMPDEST DUP1 PUSH4 0x9C1BA2E EQ PUSH2 0x98 JUMPI DUP1 PUSH4 0xCA76175 EQ PUSH2 0xB6 JUMPI DUP1 PUSH4 0x29F0DE3F EQ PUSH2 0xD2 JUMPI DUP1 PUSH4 0x62747E42 EQ PUSH2 0xF0 JUMPI JUMPDEST PUSH1 0x0 DUP1 REVERT JUMPDEST PUSH2 0xA0 PUSH2 0x1DD JUMP JUMPDEST PUSH1 0x40 MLOAD PUSH2 0xAD SWAP2 SWAP1 PUSH2 0x785 JUMP JUMPDEST PUSH1 0x40 MLOAD DUP1 SWAP2 SUB SWAP1 RETURN JUMPDEST PUSH2 0xD0 PUSH1 0x4 DUP1 CALLDATASIZE SUB DUP2 ADD SWAP1 PUSH2 0xCB SWAP2 SWAP1 PUSH2 0x930 JUMP JUMPDEST PUSH2 0x1F7 JUMP JUMPDEST STOP JUMPDEST PUSH2 0xDA PUSH2 0x2B9 JUMP JUMPDEST PUSH1 0x40 MLOAD PUSH2 0xE7 SWAP2 SWAP1 PUSH2 0xA3A JUMP JUMPDEST PUSH1 0x40 MLOAD DUP1 SWAP2 SUB SWAP1 RETURN JUMPDEST PUSH2 0xF8 PUSH2 0x347 JUMP JUMPDEST PUSH1 0x40 MLOAD PUSH2 0x105 SWAP2 SWAP1 PUSH2 0xA3A JUMP JUMPDEST PUSH1 0x40 MLOAD DUP1 SWAP2 SUB SWAP1 RETURN JUMPDEST PUSH2 0x116 PUSH2 0x3D5 JUMP JUMPDEST PUSH1 0x40 MLOAD PUSH2 0x123 SWAP2 SWAP1 PUSH2 0xAB1 JUMP JUMPDEST PUSH1 0x40 MLOAD DUP1 SWAP2 SUB SWAP1 RETURN JUMPDEST PUSH2 0x146 PUSH1 0x4 DUP1 CALLDATASIZE SUB DUP2 ADD SWAP1 PUSH2 0x141 SWAP2 SWAP1 PUSH2 0xB09 JUMP JUMPDEST PUSH2 0x463 JUMP JUMPDEST PUSH1 0x40 MLOAD PUSH2 0x153 SWAP2 SWAP1 PUSH2 0xB45 JUMP JUMPDEST PUSH1 0x40 MLOAD DUP1 SWAP2 SUB SWAP1 RETURN JUMPDEST PUSH2 0x176 PUSH1 0x4 DUP1 CALLDATASIZE SUB DUP2 ADD SWAP1 PUSH2 0x171 SWAP2 SWAP1 PUSH2 0xB09 JUMP JUMPDEST PUSH2 0x487 JUMP JUMPDEST PUSH1 0x40 MLOAD PUSH2 0x183 SWAP2 SWAP1 PUSH2 0xB45 JUMP JUMPDEST PUSH1 0x40 MLOAD DUP1 SWAP2 SUB SWAP1 RETURN JUMPDEST PUSH2 0x1A6 PUSH1 0x4 DUP1 CALLDATASIZE SUB DUP2 ADD SWAP1 PUSH2 0x1A1 SWAP2 SWAP1 PUSH2 0xB60 JUMP JUMPDEST PUSH2 0x4B4 JUMP JUMPDEST PUSH1 0x40 MLOAD PUSH2 0x1B6 SWAP5 SWAP4 SWAP3 SWAP2 SWAP1 PUSH2 0xBA8 JUMP JUMPDEST PUSH1 0x40 MLOAD DUP1 SWAP2 SUB SWAP1 RETURN JUMPDEST PUSH2 0x1C7 PUSH2 0x60E JUMP JUMPDEST PUSH1 0x40 MLOAD PUSH2 0x1D4 SWAP2 SWAP1 PUSH2 0xB45 JUMP JUMPDEST PUSH1 0x40 MLOAD DUP1 SWAP2 SUB SWAP1 RETURN JUMPDEST PUSH1 0x8 PUSH1 0x4 SWAP1 SLOAD SWAP1 PUSH2 0x100 EXP SWAP1 DIV PUSH8 0xFFFFFFFFFFFFFFFF AND DUP2 JUMP JUMPDEST PUSH32 0x0 PUSH20 0xFFFFFFFFFFFFFFFFFFFFFFFFFFFFFFFFFFFFFFFF AND CALLER PUSH20 0xFFFFFFFFFFFFFFFFFFFFFFFFFFFFFFFFFFFFFFFF AND EQ PUSH2 0x27C JUMPI PUSH1 0x40 MLOAD PUSH32 0xC6829F8300000000000000000000000000000000000000000000000000000000 DUP2 MSTORE PUSH1 0x4 ADD PUSH1 0x40 MLOAD DUP1 SWAP2 SUB SWAP1 REVERT JUMPDEST PUSH2 0x287 DUP4 DUP4 DUP4 PUSH2 0x614 JUMP JUMPDEST DUP3 PUSH32 0x85E1543BF2F84FE80C6BADBCE3648C8539AD1DF4D2B3D822938CA0538BE727E6 PUSH1 0x40 MLOAD PUSH1 0x40 MLOAD DUP1 SWAP2 SUB SWAP1 LOG2 POP POP POP JUMP JUMPDEST PUSH1 0x3 DUP1 SLOAD PUSH2 0x2C6 SWAP1 PUSH2 0xC2A JUMP JUMPDEST DUP1 PUSH1 0x1F ADD PUSH1 0x20 DUP1 SWAP2 DIV MUL PUSH1 0x20 ADD PUSH1 0x40 MLOAD SWAP1 DUP2 ADD PUSH1 0x40 MSTORE DUP1 SWAP3 SWAP2 SWAP1 DUP2 DUP2 MSTORE PUSH1 0x20 ADD DUP3 DUP1 SLOAD PUSH2 0x2F2 SWAP1 PUSH2 0xC2A JUMP JUMPDEST DUP1 ISZERO PUSH2 0x33F JUMPI DUP1 PUSH1 0x1F LT PUSH2 0x314 JUMPI PUSH2 0x100 DUP1 DUP4 SLOAD DIV MUL DUP4 MSTORE SWAP2 PUSH1 0x20 ADD SWAP2 PUSH2 0x33F JUMP JUMPDEST DUP3 ADD SWAP2 SWAP1 PUSH1 0x0 MSTORE PUSH1 0x20 PUSH1 0x0 KECCAK256 SWAP1 JUMPDEST DUP2 SLOAD DUP2 MSTORE SWAP1 PUSH1 0x1 ADD SWAP1 PUSH1 0x20 ADD DUP1 DUP4 GT PUSH2 0x322 JUMPI DUP3 SWAP1 SUB PUSH1 0x1F AND DUP3 ADD SWAP2 JUMPDEST POP POP POP POP POP DUP2 JUMP JUMPDEST PUSH1 0x2 DUP1 SLOAD PUSH2 0x354 SWAP1 PUSH2 0xC2A JUMP JUMPDEST DUP1 PUSH1 0x1F ADD PUSH1 0x20 DUP1 SWAP2 DIV MUL PUSH1 0x20 ADD PUSH1 0x40 MLOAD SWAP1 DUP2 ADD PUSH1 0x40 MSTORE DUP1 SWAP3 SWAP2 SWAP1 DUP2 DUP2 MSTORE PUSH1 0x20 ADD DUP3 DUP1 SLOAD PUSH2 0x380 SWAP1 PUSH2 0xC2A JUMP JUMPDEST DUP1 ISZERO PUSH2 0x3CD JUMPI DUP1 PUSH1 0x1F LT PUSH2 0x3A2 JUMPI PUSH2 0x100 DUP1 DUP4 SLOAD DIV MUL DUP4 MSTORE SWAP2 PUSH1 0x20 ADD SWAP2 PUSH2 0x3CD JUMP JUMPDEST DUP3 ADD SWAP2 SWAP1 PUSH1 0x0 MSTORE PUSH1 0x20 PUSH1 0x0 KECCAK256 SWAP1 JUMPDEST DUP2 SLOAD DUP2 MSTORE SWAP1 PUSH1 0x1 ADD SWAP1 PUSH1 0x20 ADD DUP1 DUP4 GT PUSH2 0x3B0 JUMPI DUP3 SWAP1 SUB PUSH1 0x1F AND DUP3 ADD SWAP2 JUMPDEST POP POP POP POP POP DUP2 JUMP JUMPDEST PUSH1 0x9 DUP1 SLOAD PUSH2 0x3E2 SWAP1 PUSH2 0xC2A JUMP JUMPDEST DUP1 PUSH1 0x1F ADD PUSH1 0x20 DUP1 SWAP2 DIV MUL PUSH1 0x20 ADD PUSH1 0x40 MLOAD SWAP1 DUP2 ADD PUSH1 0x40 MSTORE DUP1 SWAP3 SWAP2 SWAP1 DUP2 DUP2 MSTORE PUSH1 0x20 ADD DUP3 DUP1 SLOAD PUSH2 0x40E SWAP1 PUSH2 0xC2A JUMP JUMPDEST DUP1 ISZERO PUSH2 0x45B JUMPI DUP1 PUSH1 0x1F LT PUSH2 0x430 JUMPI PUSH2 0x100 DUP1 DUP4 SLOAD DIV MUL DUP4 MSTORE SWAP2 PUSH1 0x20 ADD SWAP2 PUSH2 0x45B JUMP JUMPDEST DUP3 ADD SWAP2 SWAP1 PUSH1 0x0 MSTORE PUSH1 0x20 PUSH1 0x0 KECCAK256 SWAP1 JUMPDEST DUP2 SLOAD DUP2 MSTORE SWAP1 PUSH1 0x1 ADD SWAP1 PUSH1 0x20 ADD DUP1 DUP4 GT PUSH2 0x43E JUMPI DUP3 SWAP1 SUB PUSH1 0x1F AND DUP3 ADD SWAP2 JUMPDEST POP POP POP POP POP DUP2 JUMP JUMPDEST PUSH1 0x5 DUP2 DUP2 SLOAD DUP2 LT PUSH2 0x473 JUMPI PUSH1 0x0 DUP1 REVERT JUMPDEST SWAP1 PUSH1 0x0 MSTORE PUSH1 0x20 PUSH1 0x0 KECCAK256 ADD PUSH1 0x0 SWAP2 POP SWAP1 POP SLOAD DUP2 JUMP JUMPDEST PUSH1 0x0 PUSH32 0x666F6F6261720000000000000000000000000000000000000000000000000000 PUSH1 0x0 SHL SWAP1 POP SWAP2 SWAP1 POP JUMP JUMPDEST PUSH1 0x4 PUSH1 0x20 MSTORE DUP1 PUSH1 0x0 MSTORE PUSH1 0x40 PUSH1 0x0 KECCAK256 PUSH1 0x0 SWAP2 POP SWAP1 POP DUP1 PUSH1 0x0 ADD PUSH1 0x0 SWAP1 SLOAD SWAP1 PUSH2 0x100 EXP SWAP1 DIV PUSH1 0xFF AND SWAP1 DUP1 PUSH1 0x0 ADD PUSH1 0x1 SWAP1 SLOAD SWAP1 PUSH2 0x100 EXP SWAP1 DIV PUSH1 0xFF AND SWAP1 DUP1 PUSH1 0x1 ADD DUP1 SLOAD PUSH2 0x4FD SWAP1 PUSH2 0xC2A JUMP JUMPDEST DUP1 PUSH1 0x1F ADD PUSH1 0x20 DUP1 SWAP2 DIV MUL PUSH1 0x20 ADD PUSH1 0x40 MLOAD SWAP1 DUP2 ADD PUSH1 0x40 MSTORE DUP1 SWAP3 SWAP2 SWAP1 DUP2 DUP2 MSTORE PUSH1 0x20 ADD DUP3 DUP1 SLOAD PUSH2 0x529 SWAP1 PUSH2 0xC2A JUMP JUMPDEST DUP1 ISZERO PUSH2 0x576 JUMPI DUP1 PUSH1 0x1F LT PUSH2 0x54B JUMPI PUSH2 0x100 DUP1 DUP4 SLOAD DIV MUL DUP4 MSTORE SWAP2 PUSH1 0x20 ADD SWAP2 PUSH2 0x576 JUMP JUMPDEST DUP3 ADD SWAP2 SWAP1 PUSH1 0x0 MSTORE PUSH1 0x20 PUSH1 0x0 KECCAK256 SWAP1 JUMPDEST DUP2 SLOAD DUP2 MSTORE SWAP1 PUSH1 0x1 ADD SWAP1 PUSH1 0x20 ADD DUP1 DUP4 GT PUSH2 0x559 JUMPI DUP3 SWAP1 SUB PUSH1 0x1F AND DUP3 ADD SWAP2 JUMPDEST POP POP POP POP POP SWAP1 DUP1 PUSH1 0x2 ADD DUP1 SLOAD PUSH2 0x58B SWAP1 PUSH2 0xC2A JUMP JUMPDEST DUP1 PUSH1 0x1F ADD PUSH1 0x20 DUP1 SWAP2 DIV MUL PUSH1 0x20 ADD PUSH1 0x40 MLOAD SWAP1 DUP2 ADD PUSH1 0x40 MSTORE DUP1 SWAP3 SWAP2 SWAP1 DUP2 DUP2 MSTORE PUSH1 0x20 ADD DUP3 DUP1 SLOAD PUSH2 0x5B7 SWAP1 PUSH2 0xC2A JUMP JUMPDEST DUP1 ISZERO PUSH2 0x604 JUMPI DUP1 PUSH1 0x1F LT PUSH2 0x5D9 JUMPI PUSH2 0x100 DUP1 DUP4 SLOAD DIV MUL DUP4 MSTORE SWAP2 PUSH1 0x20 ADD SWAP2 PUSH2 0x604 JUMP JUMPDEST DUP3 ADD SWAP2 SWAP1 PUSH1 0x0 MSTORE PUSH1 0x20 PUSH1 0x0 KECCAK256 SWAP1 JUMPDEST DUP2 SLOAD DUP2 MSTORE SWAP1 PUSH1 0x1 ADD SWAP1 PUSH1 0x20 ADD DUP1 DUP4 GT PUSH2 0x5E7 JUMPI DUP3 SWAP1 SUB PUSH1 0x1F AND DUP3 ADD SWAP2 JUMPDEST POP POP POP POP POP SWAP1 POP DUP5 JUMP JUMPDEST PUSH1 0x1 SLOAD DUP2 JUMP JUMPDEST PUSH1 0x4 PUSH1 0x0 DUP5 DUP2 MSTORE PUSH1 0x20 ADD SWAP1 DUP2 MSTORE PUSH1 0x20 ADD PUSH1 0x0 KECCAK256 PUSH1 0x0 ADD PUSH1 0x1 SWAP1 SLOAD SWAP1 PUSH2 0x100 EXP SWAP1 DIV PUSH1 0xFF AND PUSH2 0x677 JUMPI PUSH1 0x40 MLOAD PUSH32 0x8C379A000000000000000000000000000000000000000000000000000000000 DUP2 MSTORE PUSH1 0x4 ADD PUSH2 0x66E SWAP1 PUSH2 0xCA7 JUMP JUMPDEST PUSH1 0x40 MLOAD DUP1 SWAP2 SUB SWAP1 REVERT JUMPDEST DUP1 PUSH1 0x3 SWAP1 DUP2 PUSH2 0x686 SWAP2 SWAP1 PUSH2 0xE73 JUMP JUMPDEST POP DUP2 PUSH1 0x2 SWAP1 DUP2 PUSH2 0x696 SWAP2 SWAP1 PUSH2 0xE73 JUMP JUMPDEST POP PUSH1 0x1 PUSH1 0x4 PUSH1 0x0 DUP6 DUP2 MSTORE PUSH1 0x20 ADD SWAP1 DUP2 MSTORE PUSH1 0x20 ADD PUSH1 0x0 KECCAK256 PUSH1 0x0 ADD PUSH1 0x0 PUSH2 0x100 EXP DUP2 SLOAD DUP2 PUSH1 0xFF MUL NOT AND SWAP1 DUP4 ISZERO ISZERO MUL OR SWAP1 SSTORE POP DUP2 PUSH1 0x4 PUSH1 0x0 DUP6 DUP2 MSTORE PUSH1 0x20 ADD SWAP1 DUP2 MSTORE PUSH1 0x20 ADD PUSH1 0x0 KECCAK256 PUSH1 0x1 ADD SWAP1 DUP2 PUSH2 0x6E9 SWAP2 SWAP1 PUSH2 0xE73 JUMP JUMPDEST POP DUP1 PUSH1 0x4 PUSH1 0x0 DUP6 DUP2 MSTORE PUSH1 0x20 ADD SWAP1 DUP2 MSTORE PUSH1 0x20 ADD PUSH1 0x0 KECCAK256 PUSH1 0x2 ADD SWAP1 DUP2 PUSH2 0x70D SWAP2 SWAP1 PUSH2 0xE73 JUMP JUMPDEST POP DUP2 PUSH1 0x0 SWAP1 DUP2 PUSH2 0x71D SWAP2 SWAP1 PUSH2 0xFA0 JUMP JUMPDEST POP DUP3 PUSH32 0x160ED0AAFFBEF6885155188B91459CB5A97D5DAADCCF7561D8C46DEEA6641B50 PUSH1 0x0 PUSH1 0x2 PUSH1 0x3 PUSH1 0x40 MLOAD PUSH2 0x755 SWAP4 SWAP3 SWAP2 SWAP1 PUSH2 0x117A JUMP JUMPDEST PUSH1 0x40 MLOAD DUP1 SWAP2 SUB SWAP1 LOG2 POP POP POP JUMP JUMPDEST PUSH1 0x0 PUSH8 0xFFFFFFFFFFFFFFFF DUP3 AND SWAP1 POP SWAP2 SWAP1 POP JUMP JUMPDEST PUSH2 0x77F DUP2 PUSH2 0x762 JUMP JUMPDEST DUP3 MSTORE POP POP JUMP JUMPDEST PUSH1 0x0 PUSH1 0x20 DUP3 ADD SWAP1 POP PUSH2 0x79A PUSH1 0x0 DUP4 ADD DUP5 PUSH2 0x776 JUMP JUMPDEST SWAP3 SWAP2 POP POP JUMP JUMPDEST PUSH1 0x0 PUSH1 0x40 MLOAD SWAP1 POP SWAP1 JUMP JUMPDEST PUSH1 0x0 DUP1 REVERT JUMPDEST PUSH1 0x0 DUP1 REVERT JUMPDEST PUSH1 0x0 DUP2 SWAP1 POP SWAP2 SWAP1 POP JUMP JUMPDEST PUSH2 0x7C7 DUP2 PUSH2 0x7B4 JUMP JUMPDEST DUP2 EQ PUSH2 0x7D2 JUMPI PUSH1 0x0 DUP1 REVERT JUMPDEST POP JUMP JUMPDEST PUSH1 0x0 DUP2 CALLDATALOAD SWAP1 POP PUSH2 0x7E4 DUP2 PUSH2 0x7BE JUMP JUMPDEST SWAP3 SWAP2 POP POP JUMP JUMPDEST PUSH1 0x0 DUP1 REVERT JUMPDEST PUSH1 0x0 DUP1 REVERT JUMPDEST PUSH1 0x0 PUSH1 0x1F NOT PUSH1 0x1F DUP4 ADD AND SWAP1 POP SWAP2 SWAP1 POP JUMP JUMPDEST PUSH32 0x4E487B7100000000000000000000000000000000000000000000000000000000 PUSH1 0x0 MSTORE PUSH1 0x41 PUSH1 0x4 MSTORE PUSH1 0x24 PUSH1 0x0 REVERT JUMPDEST PUSH2 0x83D DUP3 PUSH2 0x7F4 JUMP JUMPDEST DUP2 ADD DUP2 DUP2 LT PUSH8 0xFFFFFFFFFFFFFFFF DUP3 GT OR ISZERO PUSH2 0x85C JUMPI PUSH2 0x85B PUSH2 0x805 JUMP JUMPDEST JUMPDEST DUP1 PUSH1 0x40 MSTORE POP POP POP JUMP JUMPDEST PUSH1 0x0 PUSH2 0x86F PUSH2 0x7A0 JUMP JUMPDEST SWAP1 POP PUSH2 0x87B DUP3 DUP3 PUSH2 0x834 JUMP JUMPDEST SWAP2 SWAP1 POP JUMP JUMPDEST PUSH1 0x0 PUSH8 0xFFFFFFFFFFFFFFFF DUP3 GT ISZERO PUSH2 0x89B JUMPI PUSH2 0x89A PUSH2 0x805 JUMP JUMPDEST JUMPDEST PUSH2 0x8A4 DUP3 PUSH2 0x7F4 JUMP JUMPDEST SWAP1 POP PUSH1 0x20 DUP2 ADD SWAP1 POP SWAP2 SWAP1 POP JUMP JUMPDEST DUP3 DUP2 DUP4 CALLDATACOPY PUSH1 0x0 DUP4 DUP4 ADD MSTORE POP POP POP JUMP JUMPDEST PUSH1 0x0 PUSH2 0x8D3 PUSH2 0x8CE DUP5 PUSH2 0x880 JUMP JUMPDEST PUSH2 0x865 JUMP JUMPDEST SWAP1 POP DUP3 DUP2 MSTORE PUSH1 0x20 DUP2 ADD DUP5 DUP5 DUP5 ADD GT ISZERO PUSH2 0x8EF JUMPI PUSH2 0x8EE PUSH2 0x7EF JUMP JUMPDEST JUMPDEST PUSH2 0x8FA DUP5 DUP3 DUP6 PUSH2 0x8B1 JUMP JUMPDEST POP SWAP4 SWAP3 POP POP POP JUMP JUMPDEST PUSH1 0x0 DUP3 PUSH1 0x1F DUP4 ADD SLT PUSH2 0x917 JUMPI PUSH2 0x916 PUSH2 0x7EA JUMP JUMPDEST JUMPDEST DUP2 CALLDATALOAD PUSH2 0x927 DUP5 DUP3 PUSH1 0x20 DUP7 ADD PUSH2 0x8C0 JUMP JUMPDEST SWAP2 POP POP SWAP3 SWAP2 POP POP JUMP JUMPDEST PUSH1 0x0 DUP1 PUSH1 0x0 PUSH1 0x60 DUP5 DUP7 SUB SLT ISZERO PUSH2 0x949 JUMPI PUSH2 0x948 PUSH2 0x7AA JUMP JUMPDEST JUMPDEST PUSH1 0x0 PUSH2 0x957 DUP7 DUP3 DUP8 ADD PUSH2 0x7D5 JUMP JUMPDEST SWAP4 POP POP PUSH1 0x20 DUP5 ADD CALLDATALOAD PUSH8 0xFFFFFFFFFFFFFFFF DUP2 GT ISZERO PUSH2 0x978 JUMPI PUSH2 0x977 PUSH2 0x7AF JUMP JUMPDEST JUMPDEST PUSH2 0x984 DUP7 DUP3 DUP8 ADD PUSH2 0x902 JUMP JUMPDEST SWAP3 POP POP PUSH1 0x40 DUP5 ADD CALLDATALOAD PUSH8 0xFFFFFFFFFFFFFFFF DUP2 GT ISZERO PUSH2 0x9A5 JUMPI PUSH2 0x9A4 PUSH2 0x7AF JUMP JUMPDEST JUMPDEST PUSH2 0x9B1 DUP7 DUP3 DUP8 ADD PUSH2 0x902 JUMP JUMPDEST SWAP2 POP POP SWAP3 POP SWAP3 POP SWAP3 JUMP JUMPDEST PUSH1 0x0 DUP2 MLOAD SWAP1 POP SWAP2 SWAP1 POP JUMP JUMPDEST PUSH1 0x0 DUP3 DUP3 MSTORE PUSH1 0x20 DUP3 ADD SWAP1 POP SWAP3 SWAP2 POP POP JUMP JUMPDEST PUSH1 0x0 JUMPDEST DUP4 DUP2 LT ISZERO PUSH2 0x9F5 JUMPI DUP1 DUP3 ADD MLOAD DUP2 DUP5 ADD MSTORE PUSH1 0x20 DUP2 ADD SWAP1 POP PUSH2 0x9DA JUMP JUMPDEST PUSH1 0x0 DUP5 DUP5 ADD MSTORE POP POP POP POP JUMP JUMPDEST PUSH1 0x0 PUSH2 0xA0C DUP3 PUSH2 0x9BB JUMP JUMPDEST PUSH2 0xA16 DUP2 DUP6 PUSH2 0x9C6 JUMP JUMPDEST SWAP4 POP PUSH2 0xA26 DUP2 DUP6 PUSH1 0x20 DUP7 ADD PUSH2 0x9D7 JUMP JUMPDEST PUSH2 0xA2F DUP2 PUSH2 0x7F4 JUMP JUMPDEST DUP5 ADD SWAP2 POP POP SWAP3 SWAP2 POP POP JUMP JUMPDEST PUSH1 0x0 PUSH1 0x20 DUP3 ADD SWAP1 POP DUP2 DUP2 SUB PUSH1 0x0 DUP4 ADD MSTORE PUSH2 0xA54 DUP2 DUP5 PUSH2 0xA01 JUMP JUMPDEST SWAP1 POP SWAP3 SWAP2 POP POP JUMP JUMPDEST PUSH1 0x0 DUP2 MLOAD SWAP1 POP SWAP2 SWAP1 POP JUMP JUMPDEST PUSH1 0x0 DUP3 DUP3 MSTORE PUSH1 0x20 DUP3 ADD SWAP1 POP SWAP3 SWAP2 POP POP JUMP JUMPDEST PUSH1 0x0 PUSH2 0xA83 DUP3 PUSH2 0xA5C JUMP JUMPDEST PUSH2 0xA8D DUP2 DUP6 PUSH2 0xA67 JUMP JUMPDEST SWAP4 POP PUSH2 0xA9D DUP2 DUP6 PUSH1 0x20 DUP7 ADD PUSH2 0x9D7 JUMP JUMPDEST PUSH2 0xAA6 DUP2 PUSH2 0x7F4 JUMP JUMPDEST DUP5 ADD SWAP2 POP POP SWAP3 SWAP2 POP POP JUMP JUMPDEST PUSH1 0x0 PUSH1 0x20 DUP3 ADD SWAP1 POP DUP2 DUP2 SUB PUSH1 0x0 DUP4 ADD MSTORE PUSH2 0xACB DUP2 DUP5 PUSH2 0xA78 JUMP JUMPDEST SWAP1 POP SWAP3 SWAP2 POP POP JUMP JUMPDEST PUSH1 0x0 DUP2 SWAP1 POP SWAP2 SWAP1 POP JUMP JUMPDEST PUSH2 0xAE6 DUP2 PUSH2 0xAD3 JUMP JUMPDEST DUP2 EQ PUSH2 0xAF1 JUMPI PUSH1 0x0 DUP1 REVERT JUMPDEST POP JUMP JUMPDEST PUSH1 0x0 DUP2 CALLDATALOAD SWAP1 POP PUSH2 0xB03 DUP2 PUSH2 0xADD JUMP JUMPDEST SWAP3 SWAP2 POP POP JUMP JUMPDEST PUSH1 0x0 PUSH1 0x20 DUP3 DUP5 SUB SLT ISZERO PUSH2 0xB1F JUMPI PUSH2 0xB1E PUSH2 0x7AA JUMP JUMPDEST JUMPDEST PUSH1 0x0 PUSH2 0xB2D DUP5 DUP3 DUP6 ADD PUSH2 0xAF4 JUMP JUMPDEST SWAP2 POP POP SWAP3 SWAP2 POP POP JUMP JUMPDEST PUSH2 0xB3F DUP2 PUSH2 0x7B4 JUMP JUMPDEST DUP3 MSTORE POP POP JUMP JUMPDEST PUSH1 0x0 PUSH1 0x20 DUP3 ADD SWAP1 POP PUSH2 0xB5A PUSH1 0x0 DUP4 ADD DUP5 PUSH2 0xB36 JUMP JUMPDEST SWAP3 SWAP2 POP POP JUMP JUMPDEST PUSH1 0x0 PUSH1 0x20 DUP3 DUP5 SUB SLT ISZERO PUSH2 0xB76 JUMPI PUSH2 0xB75 PUSH2 0x7AA JUMP JUMPDEST JUMPDEST PUSH1 0x0 PUSH2 0xB84 DUP5 DUP3 DUP6 ADD PUSH2 0x7D5 JUMP JUMPDEST SWAP2 POP POP SWAP3 SWAP2 POP POP JUMP JUMPDEST PUSH1 0x0 DUP2 ISZERO ISZERO SWAP1 POP SWAP2 SWAP1 POP JUMP JUMPDEST PUSH2 0xBA2 DUP2 PUSH2 0xB8D JUMP JUMPDEST DUP3 MSTORE POP POP JUMP JUMPDEST PUSH1 0x0 PUSH1 0x80 DUP3 ADD SWAP1 POP PUSH2 0xBBD PUSH1 0x0 DUP4 ADD DUP8 PUSH2 0xB99 JUMP JUMPDEST PUSH2 0xBCA PUSH1 0x20 DUP4 ADD DUP7 PUSH2 0xB99 JUMP JUMPDEST DUP2 DUP2 SUB PUSH1 0x40 DUP4 ADD MSTORE PUSH2 0xBDC DUP2 DUP6 PUSH2 0xA01 JUMP JUMPDEST SWAP1 POP DUP2 DUP2 SUB PUSH1 0x60 DUP4 ADD MSTORE PUSH2 0xBF0 DUP2 DUP5 PUSH2 0xA01 JUMP JUMPDEST SWAP1 POP SWAP6 SWAP5 POP POP POP POP POP JUMP JUMPDEST PUSH32 0x4E487B7100000000000000000000000000000000000000000000000000000000 PUSH1 0x0 MSTORE PUSH1 0x22 PUSH1 0x4 MSTORE PUSH1 0x24 PUSH1 0x0 REVERT JUMPDEST PUSH1 0x0 PUSH1 0x2 DUP3 DIV SWAP1 POP PUSH1 0x1 DUP3 AND DUP1 PUSH2 0xC42 JUMPI PUSH1 0x7F DUP3 AND SWAP2 POP JUMPDEST PUSH1 0x20 DUP3 LT DUP2 SUB PUSH2 0xC55 JUMPI PUSH2 0xC54 PUSH2 0xBFB JUMP JUMPDEST JUMPDEST POP SWAP2 SWAP1 POP JUMP JUMPDEST PUSH32 0x72657175657374206E6F7420666F756E64000000000000000000000000000000 PUSH1 0x0 DUP3 ADD MSTORE POP JUMP JUMPDEST PUSH1 0x0 PUSH2 0xC91 PUSH1 0x11 DUP4 PUSH2 0xA67 JUMP JUMPDEST SWAP2 POP PUSH2 0xC9C DUP3 PUSH2 0xC5B JUMP JUMPDEST PUSH1 0x20 DUP3 ADD SWAP1 POP SWAP2 SWAP1 POP JUMP JUMPDEST PUSH1 0x0 PUSH1 0x20 DUP3 ADD SWAP1 POP DUP2 DUP2 SUB PUSH1 0x0 DUP4 ADD MSTORE PUSH2 0xCC0 DUP2 PUSH2 0xC84 JUMP JUMPDEST SWAP1 POP SWAP2 SWAP1 POP JUMP JUMPDEST PUSH1 0x0 DUP2 SWAP1 POP DUP2 PUSH1 0x0 MSTORE PUSH1 0x20 PUSH1 0x0 KECCAK256 SWAP1 POP SWAP2 SWAP1 POP JUMP JUMPDEST PUSH1 0x0 PUSH1 0x20 PUSH1 0x1F DUP4 ADD DIV SWAP1 POP SWAP2 SWAP1 POP JUMP JUMPDEST PUSH1 0x0 DUP3 DUP3 SHL SWAP1 POP SWAP3 SWAP2 POP POP JUMP JUMPDEST PUSH1 0x0 PUSH1 0x8 DUP4 MUL PUSH2 0xD29 PUSH32 0xFFFFFFFFFFFFFFFFFFFFFFFFFFFFFFFFFFFFFFFFFFFFFFFFFFFFFFFFFFFFFFFF DUP3 PUSH2 0xCEC JUMP JUMPDEST PUSH2 0xD33 DUP7 DUP4 PUSH2 0xCEC JUMP JUMPDEST SWAP6 POP DUP1 NOT DUP5 AND SWAP4 POP DUP1 DUP7 AND DUP5 OR SWAP3 POP POP POP SWAP4 SWAP3 POP POP POP JUMP JUMPDEST PUSH1 0x0 DUP2 SWAP1 POP SWAP2 SWAP1 POP JUMP JUMPDEST PUSH1 0x0 PUSH2 0xD70 PUSH2 0xD6B PUSH2 0xD66 DUP5 PUSH2 0xAD3 JUMP JUMPDEST PUSH2 0xD4B JUMP JUMPDEST PUSH2 0xAD3 JUMP JUMPDEST SWAP1 POP SWAP2 SWAP1 POP JUMP JUMPDEST PUSH1 0x0 DUP2 SWAP1 POP SWAP2 SWAP1 POP JUMP JUMPDEST PUSH2 0xD8A DUP4 PUSH2 0xD55 JUMP JUMPDEST PUSH2 0xD9E PUSH2 0xD96 DUP3 PUSH2 0xD77 JUMP JUMPDEST DUP5 DUP5 SLOAD PUSH2 0xCF9 JUMP JUMPDEST DUP3 SSTORE POP POP POP POP JUMP JUMPDEST PUSH1 0x0 SWAP1 JUMP JUMPDEST PUSH2 0xDB3 PUSH2 0xDA6 JUMP JUMPDEST PUSH2 0xDBE DUP2 DUP5 DUP5 PUSH2 0xD81 JUMP JUMPDEST POP POP POP JUMP JUMPDEST JUMPDEST DUP2 DUP2 LT ISZERO PUSH2 0xDE2 JUMPI PUSH2 0xDD7 PUSH1 0x0 DUP3 PUSH2 0xDAB JUMP JUMPDEST PUSH1 0x1 DUP2 ADD SWAP1 POP PUSH2 0xDC4 JUMP JUMPDEST POP POP JUMP JUMPDEST PUSH1 0x1F DUP3 GT ISZERO PUSH2 0xE27 JUMPI PUSH2 0xDF8 DUP2 PUSH2 0xCC7 JUMP JUMPDEST PUSH2 0xE01 DUP5 PUSH2 0xCDC JUMP JUMPDEST DUP2 ADD PUSH1 0x20 DUP6 LT ISZERO PUSH2 0xE10 JUMPI DUP2 SWAP1 POP JUMPDEST PUSH2 0xE24 PUSH2 0xE1C DUP6 PUSH2 0xCDC JUMP JUMPDEST DUP4 ADD DUP3 PUSH2 0xDC3 JUMP JUMPDEST POP POP JUMPDEST POP POP POP JUMP JUMPDEST PUSH1 0x0 DUP3 DUP3 SHR SWAP1 POP SWAP3 SWAP2 POP POP JUMP JUMPDEST PUSH1 0x0 PUSH2 0xE4A PUSH1 0x0 NOT DUP5 PUSH1 0x8 MUL PUSH2 0xE2C JUMP JUMPDEST NOT DUP1 DUP4 AND SWAP2 POP POP SWAP3 SWAP2 POP POP JUMP JUMPDEST PUSH1 0x0 PUSH2 0xE63 DUP4 DUP4 PUSH2 0xE39 JUMP JUMPDEST SWAP2 POP DUP3 PUSH1 0x2 MUL DUP3 OR SWAP1 POP SWAP3 SWAP2 POP POP JUMP JUMPDEST PUSH2 0xE7C DUP3 PUSH2 0x9BB JUMP JUMPDEST PUSH8 0xFFFFFFFFFFFFFFFF DUP2 GT ISZERO PUSH2 0xE95 JUMPI PUSH2 0xE94 PUSH2 0x805 JUMP JUMPDEST JUMPDEST PUSH2 0xE9F DUP3 SLOAD PUSH2 0xC2A JUMP JUMPDEST PUSH2 0xEAA DUP3 DUP3 DUP6 PUSH2 0xDE6 JUMP JUMPDEST PUSH1 0x0 PUSH1 0x20 SWAP1 POP PUSH1 0x1F DUP4 GT PUSH1 0x1 DUP2 EQ PUSH2 0xEDD JUMPI PUSH1 0x0 DUP5 ISZERO PUSH2 0xECB JUMPI DUP3 DUP8 ADD MLOAD SWAP1 POP JUMPDEST PUSH2 0xED5 DUP6 DUP3 PUSH2 0xE57 JUMP JUMPDEST DUP7 SSTORE POP PUSH2 0xF3D JUMP JUMPDEST PUSH1 0x1F NOT DUP5 AND PUSH2 0xEEB DUP7 PUSH2 0xCC7 JUMP JUMPDEST PUSH1 0x0 JUMPDEST DUP3 DUP2 LT ISZERO PUSH2 0xF13 JUMPI DUP5 DUP10 ADD MLOAD DUP3 SSTORE PUSH1 0x1 DUP3 ADD SWAP2 POP PUSH1 0x20 DUP6 ADD SWAP5 POP PUSH1 0x20 DUP2 ADD SWAP1 POP PUSH2 0xEEE JUMP JUMPDEST DUP7 DUP4 LT ISZERO PUSH2 0xF30 JUMPI DUP5 DUP10 ADD MLOAD PUSH2 0xF2C PUSH1 0x1F DUP10 AND DUP3 PUSH2 0xE39 JUMP JUMPDEST DUP4 SSTORE POP JUMPDEST PUSH1 0x1 PUSH1 0x2 DUP9 MUL ADD DUP9 SSTORE POP POP POP JUMPDEST POP POP POP POP POP POP JUMP JUMPDEST PUSH1 0x0 DUP2 SWAP1 POP DUP2 PUSH1 0x0 MSTORE PUSH1 0x20 PUSH1 0x0 KECCAK256 SWAP1 POP SWAP2 SWAP1 POP JUMP JUMPDEST PUSH1 0x1F DUP3 GT ISZERO PUSH2 0xF9B JUMPI PUSH2 0xF6C DUP2 PUSH2 0xF45 JUMP JUMPDEST PUSH2 0xF75 DUP5 PUSH2 0xCDC JUMP JUMPDEST DUP2 ADD PUSH1 0x20 DUP6 LT ISZERO PUSH2 0xF84 JUMPI DUP2 SWAP1 POP JUMPDEST PUSH2 0xF98 PUSH2 0xF90 DUP6 PUSH2 0xCDC JUMP JUMPDEST DUP4 ADD DUP3 PUSH2 0xDC3 JUMP JUMPDEST POP POP JUMPDEST POP POP POP JUMP JUMPDEST PUSH2 0xFA9 DUP3 PUSH2 0xA5C JUMP JUMPDEST PUSH8 0xFFFFFFFFFFFFFFFF DUP2 GT ISZERO PUSH2 0xFC2 JUMPI PUSH2 0xFC1 PUSH2 0x805 JUMP JUMPDEST JUMPDEST PUSH2 0xFCC DUP3 SLOAD PUSH2 0xC2A JUMP JUMPDEST PUSH2 0xFD7 DUP3 DUP3 DUP6 PUSH2 0xF5A JUMP JUMPDEST PUSH1 0x0 PUSH1 0x20 SWAP1 POP PUSH1 0x1F DUP4 GT PUSH1 0x1 DUP2 EQ PUSH2 0x100A JUMPI PUSH1 0x0 DUP5 ISZERO PUSH2 0xFF8 JUMPI DUP3 DUP8 ADD MLOAD SWAP1 POP JUMPDEST PUSH2 0x1002 DUP6 DUP3 PUSH2 0xE57 JUMP JUMPDEST DUP7 SSTORE POP PUSH2 0x106A JUMP JUMPDEST PUSH1 0x1F NOT DUP5 AND PUSH2 0x1018 DUP7 PUSH2 0xF45 JUMP JUMPDEST PUSH1 0x0 JUMPDEST DUP3 DUP2 LT ISZERO PUSH2 0x1040 JUMPI DUP5 DUP10 ADD MLOAD DUP3 SSTORE PUSH1 0x1 DUP3 ADD SWAP2 POP PUSH1 0x20 DUP6 ADD SWAP5 POP PUSH1 0x20 DUP2 ADD SWAP1 POP PUSH2 0x101B JUMP JUMPDEST DUP7 DUP4 LT ISZERO PUSH2 0x105D JUMPI DUP5 DUP10 ADD MLOAD PUSH2 0x1059 PUSH1 0x1F DUP10 AND DUP3 PUSH2 0xE39 JUMP JUMPDEST DUP4 SSTORE POP JUMPDEST PUSH1 0x1 PUSH1 0x2 DUP9 MUL ADD DUP9 SSTORE POP POP POP JUMPDEST POP POP POP POP POP POP JUMP JUMPDEST PUSH1 0x0 DUP2 SLOAD PUSH2 0x107F DUP2 PUSH2 0xC2A JUMP JUMPDEST PUSH2 0x1089 DUP2 DUP7 PUSH2 0xA67 JUMP JUMPDEST SWAP5 POP PUSH1 0x1 DUP3 AND PUSH1 0x0 DUP2 EQ PUSH2 0x10A4 JUMPI PUSH1 0x1 DUP2 EQ PUSH2 0x10BA JUMPI PUSH2 0x10ED JUMP JUMPDEST PUSH1 0xFF NOT DUP4 AND DUP7 MSTORE DUP2 ISZERO ISZERO PUSH1 0x20 MUL DUP7 ADD SWAP4 POP PUSH2 0x10ED JUMP JUMPDEST PUSH2 0x10C3 DUP6 PUSH2 0xF45 JUMP JUMPDEST PUSH1 0x0 JUMPDEST DUP4 DUP2 LT ISZERO PUSH2 0x10E5 JUMPI DUP2 SLOAD DUP2 DUP10 ADD MSTORE PUSH1 0x1 DUP3 ADD SWAP2 POP PUSH1 0x20 DUP2 ADD SWAP1 POP PUSH2 0x10C6 JUMP JUMPDEST DUP1 DUP9 ADD SWAP6 POP POP POP JUMPDEST POP POP POP SWAP3 SWAP2 POP POP JUMP JUMPDEST PUSH1 0x0 DUP2 SLOAD PUSH2 0x1103 DUP2 PUSH2 0xC2A JUMP JUMPDEST PUSH2 0x110D DUP2 DUP7 PUSH2 0x9C6 JUMP JUMPDEST SWAP5 POP PUSH1 0x1 DUP3 AND PUSH1 0x0 DUP2 EQ PUSH2 0x1128 JUMPI PUSH1 0x1 DUP2 EQ PUSH2 0x113E JUMPI PUSH2 0x1171 JUMP JUMPDEST PUSH1 0xFF NOT DUP4 AND DUP7 MSTORE DUP2 ISZERO ISZERO PUSH1 0x20 MUL DUP7 ADD SWAP4 POP PUSH2 0x1171 JUMP JUMPDEST PUSH2 0x1147 DUP6 PUSH2 0xCC7 JUMP JUMPDEST PUSH1 0x0 JUMPDEST DUP4 DUP2 LT ISZERO PUSH2 0x1169 JUMPI DUP2 SLOAD DUP2 DUP10 ADD MSTORE PUSH1 0x1 DUP3 ADD SWAP2 POP PUSH1 0x20 DUP2 ADD SWAP1 POP PUSH2 0x114A JUMP JUMPDEST DUP1 DUP9 ADD SWAP6 POP POP POP JUMPDEST POP POP POP SWAP3 SWAP2 POP POP JUMP JUMPDEST PUSH1 0x0 PUSH1 0x60 DUP3 ADD SWAP1 POP DUP2 DUP2 SUB PUSH1 0x0 DUP4 ADD MSTORE PUSH2 0x1194 DUP2 DUP7 PUSH2 0x1072 JUMP JUMPDEST SWAP1 POP DUP2 DUP2 SUB PUSH1 0x20 DUP4 ADD MSTORE PUSH2 0x11A8 DUP2 DUP6 PUSH2 0x10F6 JUMP JUMPDEST SWAP1 POP DUP2 DUP2 SUB PUSH1 0x40 DUP4 ADD MSTORE PUSH2 0x11BC DUP2 DUP5 PUSH2 0x10F6 JUMP JUMPDEST SWAP1 POP SWAP5 SWAP4 POP POP POP POP JUMP INVALID LOG2 PUSH5 0x6970667358 0x22 SLT KECCAK256 PUSH4 0xC7A5F2C7 SWAP1 PUSH18 0x8E02728C7809EEF0461CDC44332BCBF4DA45 0x5D SSTORE MSTORE DUP3 BALANCE PUSH18 0x3D64736F6C63430008130033636F6E737420 PUSH6 0x6E6572677943 PUSH16 0x6E747261637473203D20617267735B30 0x5D EXTCODESIZE PUSH4 0x6F6E7374 KECCAK256 PUSH2 0x7069 MSTORE PUSH6 0x73706F6E7365 KECCAK256 RETURNDATASIZE KECCAK256 PUSH2 0x7761 PUSH10 0x742046756E6374696F6E PUSH20 0x2E6D616B654874747052657175657374287B7572 PUSH13 0x3A206068747470733A2F2F6261 PUSH16 0x656E657267792D617069322E6F6E7265 PUSH15 0x6465722E636F6D2F63616C63756C61 PUSH21 0x652F3F76616C7565733D7B656E65726779436F6E74 PUSH19 0x616374737D602C726573706F6E736554797065 GASPRICE KECCAK256 0x27 PUSH21 0x657874277D293B69662028617069526573706F6E73 PUSH6 0x2E6572726F72 0x29 KECCAK256 PUSH28 0x7468726F77204572726F72282752657175657374206661696C656427 0x29 EXTCODESIZE PUSH30 0x636F6E7374207B2064617461207D203D20617069526573706F6E73653B6C PUSH6 0x74206E657744 PUSH2 0x7461 KECCAK256 RETURNDATASIZE KECCAK256 0x4A MSTORE8 0x4F 0x4E 0x2E PUSH20 0x7472696E6769667928646174612972657475726E KECCAK256 CHAINID PUSH22 0x6E6374696F6E732E656E636F6465537472696E67286E PUSH6 0x774461746129 EXTCODESIZE "},"methodIdentifiers":{"getAllMeanPrice(uint256)":"90e1e607","handleOracleFulfillment(bytes32,bytes,bytes)":"0ca76175","lastError()":"29f0de3f","lastRequestId()":"fc2a88c3","lastResponse()":"62747e42","requestIds(uint256)":"8796ba8c","requests(bytes32)":"9d866985","source()":"67e828bf","subscriptionId()":"09c1ba2e"}}}}}