{"contracts/BaoFunction.sol":{"BaoFunction":{"abi":[{"inputs":[{"internalType":"uint64","name":"functionsSubscriptionId","type":"uint64"}],"stateMutability":"nonpayable","type":"constructor"},{"inputs":[],"name":"EmptyArgs","type":"error"},{"inputs":[],"name":"EmptySource","type":"error"},{"inputs":[],"name":"NoInlineSecrets","type":"error"},{"inputs":[],"name":"OnlyRouterCanFulfill","type":"error"},{"inputs":[{"internalType":"uint256","name":"value","type":"uint256"},{"internalType":"uint256","name":"length","type":"uint256"}],"name":"StringsInsufficientHexLength","type":"error"},{"anonymous":false,"inputs":[{"indexed":true,"internalType":"bytes32","name":"id","type":"bytes32"}],"name":"RequestFulfilled","type":"event"},{"anonymous":false,"inputs":[{"indexed":true,"internalType":"bytes32","name":"id","type":"bytes32"}],"name":"RequestSent","type":"event"},{"anonymous":false,"inputs":[{"indexed":true,"internalType":"bytes32","name":"requestId","type":"bytes32"},{"indexed":false,"internalType":"string","name":"averagePrice","type":"string"},{"indexed":false,"internalType":"bytes","name":"response","type":"bytes"},{"indexed":false,"internalType":"bytes","name":"err","type":"bytes"}],"name":"Response","type":"event"},{"inputs":[{"internalType":"uint256","name":"_localId","type":"uint256"},{"internalType":"uint256","name":"_index","type":"uint256"}],"name":"getAllMeanPrice","outputs":[{"internalType":"bytes32","name":"","type":"bytes32"}],"stateMutability":"nonpayable","type":"function"},{"inputs":[{"internalType":"bytes32","name":"requestId","type":"bytes32"},{"internalType":"bytes","name":"response","type":"bytes"},{"internalType":"bytes","name":"err","type":"bytes"}],"name":"handleOracleFulfillment","outputs":[],"stateMutability":"nonpayable","type":"function"},{"inputs":[],"name":"lastError","outputs":[{"internalType":"bytes","name":"","type":"bytes"}],"stateMutability":"view","type":"function"},{"inputs":[],"name":"lastRequestId","outputs":[{"internalType":"bytes32","name":"","type":"bytes32"}],"stateMutability":"view","type":"function"},{"inputs":[],"name":"lastResponse","outputs":[{"internalType":"bytes","name":"","type":"bytes"}],"stateMutability":"view","type":"function"},{"inputs":[{"internalType":"uint256","name":"","type":"uint256"},{"internalType":"uint256","name":"","type":"uint256"}],"name":"localToContract","outputs":[{"internalType":"address","name":"consumer","type":"address"},{"internalType":"uint256","name":"energyConsume","type":"uint256"},{"internalType":"uint256","name":"pricePerMonth","type":"uint256"},{"internalType":"uint256","name":"timeStamp","type":"uint256"},{"internalType":"uint256","name":"localId","type":"uint256"},{"internalType":"bool","name":"active","type":"bool"},{"internalType":"uint256","name":"contractDeadLine","type":"uint256"}],"stateMutability":"view","type":"function"},{"inputs":[{"internalType":"uint256","name":"","type":"uint256"}],"name":"requestIds","outputs":[{"internalType":"bytes32","name":"","type":"bytes32"}],"stateMutability":"view","type":"function"},{"inputs":[{"internalType":"bytes32","name":"","type":"bytes32"}],"name":"requests","outputs":[{"internalType":"bool","name":"fulfilled","type":"bool"},{"internalType":"bool","name":"exists","type":"bool"},{"internalType":"bytes","name":"response","type":"bytes"},{"internalType":"bytes","name":"err","type":"bytes"}],"stateMutability":"view","type":"function"},{"inputs":[],"name":"source","outputs":[{"internalType":"string","name":"","type":"string"}],"stateMutability":"view","type":"function"},{"inputs":[],"name":"subscriptionId","outputs":[{"internalType":"uint64","name":"","type":"uint64"}],"stateMutability":"view","type":"function"}],"evm":{"bytecode":{"linkReferences":{},"object":"60a060405273b83e47c2bc239b3bf370bc41e1459a34b41238d0600760006101000a81548173ffffffffffffffffffffffffffffffffffffffff021916908373ffffffffffffffffffffffffffffffffffffffff1602179055507f66756e2d657468657265756d2d7365706f6c69612d310000000000000000000060001b600855620493e0600960006101000a81548163ffffffff021916908363ffffffff16021790555060405180610160016040528061013d81526020016200347061013d9139600a9081620000d1919062000407565b50348015620000df57600080fd5b50604051620035ad380380620035ad833981810160405281019062000105919062000538565b600760009054906101000a900473ffffffffffffffffffffffffffffffffffffffff168073ffffffffffffffffffffffffffffffffffffffff1660808173ffffffffffffffffffffffffffffffffffffffff16815250505080600960046101000a81548167ffffffffffffffff021916908367ffffffffffffffff160217905550506200056a565b600081519050919050565b7f4e487b7100000000000000000000000000000000000000000000000000000000600052604160045260246000fd5b7f4e487b7100000000000000000000000000000000000000000000000000000000600052602260045260246000fd5b600060028204905060018216806200020f57607f821691505b602082108103620002255762000224620001c7565b5b50919050565b60008190508160005260206000209050919050565b60006020601f8301049050919050565b600082821b905092915050565b6000600883026200028f7fffffffffffffffffffffffffffffffffffffffffffffffffffffffffffffffff8262000250565b6200029b868362000250565b95508019841693508086168417925050509392505050565b6000819050919050565b6000819050919050565b6000620002e8620002e2620002dc84620002b3565b620002bd565b620002b3565b9050919050565b6000819050919050565b6200030483620002c7565b6200031c6200031382620002ef565b8484546200025d565b825550505050565b600090565b6200033362000324565b62000340818484620002f9565b505050565b5b8181101562000368576200035c60008262000329565b60018101905062000346565b5050565b601f821115620003b75762000381816200022b565b6200038c8462000240565b810160208510156200039c578190505b620003b4620003ab8562000240565b83018262000345565b50505b505050565b600082821c905092915050565b6000620003dc60001984600802620003bc565b1980831691505092915050565b6000620003f78383620003c9565b9150826002028217905092915050565b62000412826200018d565b67ffffffffffffffff8111156200042e576200042d62000198565b5b6200043a8254620001f6565b620004478282856200036c565b600060209050601f8311600181146200047f57600084156200046a578287015190505b620004768582620003e9565b865550620004e6565b601f1984166200048f866200022b565b60005b82811015620004b95784890151825560018201915060208501945060208101905062000492565b86831015620004d95784890151620004d5601f891682620003c9565b8355505b6001600288020188555050505b505050505050565b600080fd5b600067ffffffffffffffff82169050919050565b6200051281620004f3565b81146200051e57600080fd5b50565b600081519050620005328162000507565b92915050565b600060208284031215620005515762000550620004ee565b5b6000620005618482850162000521565b91505092915050565b608051612ee36200058d6000396000818161023a01526113000152612ee36000f3fe608060405234801561001057600080fd5b506004361061009e5760003560e01c80638796ba8c116100665780638796ba8c146101375780639d86698514610167578063d483337d1461019a578063f3de41ad146101ca578063fc2a88c3146102005761009e565b806309c1ba2e146100a35780630ca76175146100c157806329f0de3f146100dd57806362747e42146100fb57806367e828bf14610119575b600080fd5b6100ab61021e565b6040516100b89190611e6b565b60405180910390f35b6100db60048036038101906100d69190612016565b610238565b005b6100e56102fa565b6040516100f29190612120565b60405180910390f35b610103610388565b6040516101109190612120565b60405180910390f35b610121610416565b60405161012e9190612197565b60405180910390f35b610151600480360381019061014c91906121ef565b6104a4565b60405161015e919061222b565b60405180910390f35b610181600480360381019061017c9190612246565b6104c8565b604051610191949392919061228e565b60405180910390f35b6101b460048036038101906101af91906122e1565b610622565b6040516101c1919061222b565b60405180910390f35b6101e460048036038101906101df91906122e1565b610b7f565b6040516101f79796959493929190612371565b60405180910390f35b610208610c0b565b604051610215919061222b565b60405180910390f35b600960049054906101000a900467ffffffffffffffff1681565b7f000000000000000000000000000000000000000000000000000000000000000073ffffffffffffffffffffffffffffffffffffffff163373ffffffffffffffffffffffffffffffffffffffff16146102bd576040517fc6829f8300000000000000000000000000000000000000000000000000000000815260040160405180910390fd5b6102c8838383610c11565b827f85e1543bf2f84fe80c6badbce3648c8539ad1df4d2b3d822938ca0538be727e660405160405180910390a2505050565b600480546103079061240f565b80601f01602080910402602001604051908101604052809291908181526020018280546103339061240f565b80156103805780601f1061035557610100808354040283529160200191610380565b820191906000526020600020905b81548152906001019060200180831161036357829003601f168201915b505050505081565b600380546103959061240f565b80601f01602080910402602001604051908101604052809291908181526020018280546103c19061240f565b801561040e5780601f106103e35761010080835404028352916020019161040e565b820191906000526020600020905b8154815290600101906020018083116103f157829003601f168201915b505050505081565b600a80546104239061240f565b80601f016020809104026020016040519081016040528092919081815260200182805461044f9061240f565b801561049c5780601f106104715761010080835404028352916020019161049c565b820191906000526020600020905b81548152906001019060200180831161047f57829003601f168201915b505050505081565b600681815481106104b457600080fd5b906000526020600020016000915090505481565b60056020528060005260406000206000915090508060000160009054906101000a900460ff16908060000160019054906101000a900460ff16908060010180546105119061240f565b80601f016020809104026020016040519081016040528092919081815260200182805461053d9061240f565b801561058a5780601f1061055f5761010080835404028352916020019161058a565b820191906000526020600020905b81548152906001019060200180831161056d57829003601f168201915b50505050509080600201805461059f9061240f565b80601f01602080910402602001604051908101604052809291908181526020018280546105cb9061240f565b80156106185780601f106105ed57610100808354040283529160200191610618565b820191906000526020600020905b8154815290600101906020018083116105fb57829003601f168201915b5050505050905084565b60008060016000858152602001908152602001600020805480602002602001604051908101604052809291908181526020016000905b8282101561072d57838290600052602060002090600702016040518060e00160405290816000820160009054906101000a900473ffffffffffffffffffffffffffffffffffffffff1673ffffffffffffffffffffffffffffffffffffffff1673ffffffffffffffffffffffffffffffffffffffff168152602001600182015481526020016002820154815260200160038201548152602001600482015481526020016005820160009054906101000a900460ff1615151515815260200160068201548152505081526020019060010190610658565b505050509050606060005b8251811015610921576108f06108c461082a6107fe6107d26107a661077a89888151811061076957610768612440565b5b602002602001015160000151610d5f565b6107a18a89815181106107905761078f612440565b5b602002602001015160200151610d8c565b610e5a565b6107cd8988815181106107bc576107bb612440565b5b602002602001015160400151610d8c565b610e5a565b6107f98887815181106107e8576107e7612440565b5b602002602001015160600151610d8c565b610e5a565b61082587868151811061081457610813612440565b5b602002602001015160800151610d8c565b610e5a565b85848151811061083d5761083c612440565b5b602002602001015160a00151610888576040518060400160405280600581526020017f66616c73650000000000000000000000000000000000000000000000000000008152506108bf565b6040518060400160405280600481526020017f74727565000000000000000000000000000000000000000000000000000000008152505b610e5a565b6108eb8584815181106108da576108d9612440565b5b602002602001015160c00151610d8c565b610e5a565b82828151811061090357610902612440565b5b602002602001018190525080806109199061249e565b915050610738565b506000600167ffffffffffffffff81111561093f5761093e611eeb565b5b60405190808252806020026020018201604052801561097257816020015b606081526020019060019003908161095d5790505b50905061097d611d9c565b610a1a600a805461098d9061240f565b80601f01602080910402602001604051908101604052809291908181526020018280546109b99061240f565b8015610a065780601f106109db57610100808354040283529160200191610a06565b820191906000526020600020905b8154815290600101906020018083116109e957829003601f168201915b505050505082610e8690919063ffffffff16565b600082511115610a3857610a378382610e9790919063ffffffff16565b5b610a76610a4482610edf565b600960049054906101000a900467ffffffffffffffff16600960009054906101000a900463ffffffff166008546112fb565b60028190555060405180608001604052806000151581526020016001151581526020016040518060200160405280600081525081526020016040518060200160405280600081525081525060056000600254815260200190815260200160002060008201518160000160006101000a81548160ff02191690831515021790555060208201518160000160016101000a81548160ff0219169083151502179055506040820151816001019081610b2b9190612692565b506060820151816002019081610b419190612692565b509050506006600254908060018154018082558091505060019003906000526020600020016000909190919091505560025494505050505092915050565b60016020528160005260406000208181548110610b9b57600080fd5b9060005260206000209060070201600091509150508060000160009054906101000a900473ffffffffffffffffffffffffffffffffffffffff16908060010154908060020154908060030154908060040154908060050160009054906101000a900460ff16908060060154905087565b60025481565b6005600084815260200190815260200160002060000160019054906101000a900460ff16610c74576040517f08c379a0000000000000000000000000000000000000000000000000000000008152600401610c6b906127b0565b60405180910390fd5b8060049081610c839190612692565b508160039081610c939190612692565b5060016005600085815260200190815260200160002060000160006101000a81548160ff02191690831515021790555081600560008581526020019081526020016000206001019081610ce69190612692565b5080600560008581526020019081526020016000206002019081610d0a9190612692565b508160009081610d1a919061282b565b50827f160ed0aaffbef6885155188b91459cb5a97d5daadccf7561d8c46deea6641b50600060036004604051610d5293929190612a05565b60405180910390a2505050565b6060610d858273ffffffffffffffffffffffffffffffffffffffff16601460ff166113de565b9050919050565b606060006001610d9b84611624565b01905060008167ffffffffffffffff811115610dba57610db9611eeb565b5b6040519080825280601f01601f191660200182016040528015610dec5781602001600182028036833780820191505090505b509050600082602001820190505b600115610e4f578080600190039150507f3031323334353637383961626364656600000000000000000000000000000000600a86061a8153600a8581610e4357610e42612a51565b5b04945060008503610dfa575b819350505050919050565b60608282604051602001610e6f929190612abc565b604051602081830303815290604052905092915050565b610e938260008084611777565b5050565b6000815103610ed2576040517ffe936cb700000000000000000000000000000000000000000000000000000000815260040160405180910390fd5b808260a001819052505050565b60606000610eee610100611821565b9050610f386040518060400160405280600c81526020017f636f64654c6f636174696f6e00000000000000000000000000000000000000008152508261184890919063ffffffff16565b610f6183600001516002811115610f5257610f51612ae0565b5b8261187190919063ffffffff16565b610fa96040518060400160405280600881526020017f6c616e67756167650000000000000000000000000000000000000000000000008152508261184890919063ffffffff16565b610fd283604001516000811115610fc357610fc2612ae0565b5b8261187190919063ffffffff16565b61101a6040518060400160405280600681526020017f736f7572636500000000000000000000000000000000000000000000000000008152508261184890919063ffffffff16565b61103183606001518261184890919063ffffffff16565b60008360a001515111156110ed576110876040518060400160405280600481526020017f61726773000000000000000000000000000000000000000000000000000000008152508261184890919063ffffffff16565b611090816118c1565b60005b8360a00151518110156110e2576110d18460a0015182815181106110ba576110b9612440565b5b60200260200101518361184890919063ffffffff16565b806110db9061249e565b9050611093565b506110ec816118e9565b5b6000836080015151111561122e576000600281111561110f5761110e612ae0565b5b8360200151600281111561112657611125612ae0565b5b0361115d576040517fa80d31f700000000000000000000000000000000000000000000000000000000815260040160405180910390fd5b6111a56040518060400160405280600f81526020017f736563726574734c6f636174696f6e00000000000000000000000000000000008152508261184890919063ffffffff16565b6111ce836020015160028111156111bf576111be612ae0565b5b8261187190919063ffffffff16565b6112166040518060400160405280600781526020017f73656372657473000000000000000000000000000000000000000000000000008152508261184890919063ffffffff16565b61122d83608001518261191190919063ffffffff16565b5b60008360c001515111156112ea576112846040518060400160405280600981526020017f62797465734172677300000000000000000000000000000000000000000000008152508261184890919063ffffffff16565b61128d816118c1565b60005b8360c00151518110156112df576112ce8460c0015182815181106112b7576112b6612440565b5b60200260200101518361191190919063ffffffff16565b806112d89061249e565b9050611290565b506112e9816118e9565b5b806000015160000151915050919050565b6000807f000000000000000000000000000000000000000000000000000000000000000073ffffffffffffffffffffffffffffffffffffffff1663461d27628688600188886040518663ffffffff1660e01b8152600401611360959493929190612b4b565b6020604051808303816000875af115801561137f573d6000803e3d6000fd5b505050506040513d601f19601f820116820180604052508101906113a39190612bba565b9050807f1131472297a800fee664d1d89cfa8f7676ff07189ecc53f80bbb5f4969099db860405160405180910390a280915050949350505050565b60606000839050600060028460026113f69190612be7565b6114009190612c29565b67ffffffffffffffff81111561141957611418611eeb565b5b6040519080825280601f01601f19166020018201604052801561144b5781602001600182028036833780820191505090505b5090507f30000000000000000000000000000000000000000000000000000000000000008160008151811061148357611482612440565b5b60200101907effffffffffffffffffffffffffffffffffffffffffffffffffffffffffffff1916908160001a9053507f7800000000000000000000000000000000000000000000000000000000000000816001815181106114e7576114e6612440565b5b60200101907effffffffffffffffffffffffffffffffffffffffffffffffffffffffffffff1916908160001a905350600060018560026115279190612be7565b6115319190612c29565b90505b60018111156115d1577f3031323334353637383961626364656600000000000000000000000000000000600f84166010811061157357611572612440565b5b1a60f81b82828151811061158a57611589612440565b5b60200101907effffffffffffffffffffffffffffffffffffffffffffffffffffffffffffff1916908160001a905350600483901c9250806115ca90612c5d565b9050611534565b50600082146116195784846040517fe22e27eb000000000000000000000000000000000000000000000000000000008152600401611610929190612c86565b60405180910390fd5b809250505092915050565b600080600090507a184f03e93ff9f4daa797ed6e38ed64bf6a1f0100000000000000008310611682577a184f03e93ff9f4daa797ed6e38ed64bf6a1f010000000000000000838161167857611677612a51565b5b0492506040810190505b6d04ee2d6d415b85acef810000000083106116bf576d04ee2d6d415b85acef810000000083816116b5576116b4612a51565b5b0492506020810190505b662386f26fc1000083106116ee57662386f26fc1000083816116e4576116e3612a51565b5b0492506010810190505b6305f5e1008310611717576305f5e100838161170d5761170c612a51565b5b0492506008810190505b612710831061173c57612710838161173257611731612a51565b5b0492506004810190505b6064831061175f576064838161175557611754612a51565b5b0492506002810190505b600a831061176e576001810190505b80915050919050565b60008151036117b2576040517f22ce3edd00000000000000000000000000000000000000000000000000000000815260040160405180910390fd5b82846000019060028111156117ca576117c9612ae0565b5b908160028111156117de576117dd612ae0565b5b8152505081846040019060008111156117fa576117f9612ae0565b5b9081600081111561180e5761180d612ae0565b5b8152505080846060018190525050505050565b611829611e0e565b61183781600001518361193a565b506000816020018181525050919050565b61185582600383516119b3565b61186c818360000151611b5c90919063ffffffff16565b505050565b61189360026005600660ff16901b178360000151611b7890919063ffffffff16565b506118bd82826040516020016118a99190612caf565b604051602081830303815290604052611911565b5050565b6118cc816004611be2565b6001816020018181516118df9190612c29565b9150818152505050565b6118f4816007611be2565b6001816020018181516119079190612cca565b9150818152505050565b61191e82600283516119b3565b611935818360000151611b5c90919063ffffffff16565b505050565b611942611e2e565b60006020836119519190612cfe565b1461197d576020826119639190612cfe565b602061196f9190612cca565b8261197a9190612c29565b91505b8183602001818152505060405180845260008152828101602001818110156119a457600080fd5b80604052505082905092915050565b60178167ffffffffffffffff16116119ee576119e88160058460ff16901b60ff16178460000151611b7890919063ffffffff16565b50611b57565b60ff8167ffffffffffffffff1611611a4c57611a21601860058460ff16901b178460000151611b7890919063ffffffff16565b50611a468167ffffffffffffffff1660018560000151611c089092919063ffffffff16565b50611b56565b61ffff8167ffffffffffffffff1611611aab57611a80601960058460ff16901b178460000151611b7890919063ffffffff16565b50611aa58167ffffffffffffffff1660028560000151611c089092919063ffffffff16565b50611b55565b63ffffffff8167ffffffffffffffff1611611b0c57611ae1601a60058460ff16901b178460000151611b7890919063ffffffff16565b50611b068167ffffffffffffffff1660048560000151611c089092919063ffffffff16565b50611b54565b611b2d601b60058460ff16901b178460000151611b7890919063ffffffff16565b50611b528167ffffffffffffffff1660088560000151611c089092919063ffffffff16565b505b5b5b5b505050565b611b64611e2e565b611b7083838451611c95565b905092915050565b611b80611e2e565b600083600001515190506000600182611b999190612c29565b905084602001518210611bbd57611bbc85600283611bb79190612be7565b611d78565b5b84516020838201018581538151831115611bd5578282525b5050849250505092915050565b611c03601f60058360ff16901b178360000151611b7890919063ffffffff16565b505050565b611c10611e2e565b6000846000015151905060008184611c289190612c29565b90508560200151811115611c4d57611c4c86600283611c479190612be7565b611d78565b5b6000600185610100611c5f9190612e62565b611c699190612cca565b905086518281018783198251161781528151841115611c86578382525b50508693505050509392505050565b611c9d611e2e565b8251821115611cab57600080fd5b6000846000015151905060008382611cc39190612c29565b90508560200151811115611ce857611ce786600283611ce29190612be7565b611d78565b5b60008087518051856020830101935080851115611d03578482525b60208901925050505b60208610611d4a5780518252602082611d259190612c29565b9150602081611d349190612c29565b9050602086611d439190612cca565b9550611d0c565b60006001876020036101000a0390508019825116818451168181178552505050879450505050509392505050565b600082600001519050611d8b838361193a565b50611d968382611b5c565b50505050565b6040518060e0016040528060006002811115611dbb57611dba612ae0565b5b815260200160006002811115611dd457611dd3612ae0565b5b8152602001600080811115611dec57611deb612ae0565b5b8152602001606081526020016060815260200160608152602001606081525090565b6040518060400160405280611e21611e2e565b8152602001600081525090565b604051806040016040528060608152602001600081525090565b600067ffffffffffffffff82169050919050565b611e6581611e48565b82525050565b6000602082019050611e806000830184611e5c565b92915050565b6000604051905090565b600080fd5b600080fd5b6000819050919050565b611ead81611e9a565b8114611eb857600080fd5b50565b600081359050611eca81611ea4565b92915050565b600080fd5b600080fd5b6000601f19601f8301169050919050565b7f4e487b7100000000000000000000000000000000000000000000000000000000600052604160045260246000fd5b611f2382611eda565b810181811067ffffffffffffffff82111715611f4257611f41611eeb565b5b80604052505050565b6000611f55611e86565b9050611f618282611f1a565b919050565b600067ffffffffffffffff821115611f8157611f80611eeb565b5b611f8a82611eda565b9050602081019050919050565b82818337600083830152505050565b6000611fb9611fb484611f66565b611f4b565b905082815260208101848484011115611fd557611fd4611ed5565b5b611fe0848285611f97565b509392505050565b600082601f830112611ffd57611ffc611ed0565b5b813561200d848260208601611fa6565b91505092915050565b60008060006060848603121561202f5761202e611e90565b5b600061203d86828701611ebb565b935050602084013567ffffffffffffffff81111561205e5761205d611e95565b5b61206a86828701611fe8565b925050604084013567ffffffffffffffff81111561208b5761208a611e95565b5b61209786828701611fe8565b9150509250925092565b600081519050919050565b600082825260208201905092915050565b60005b838110156120db5780820151818401526020810190506120c0565b60008484015250505050565b60006120f2826120a1565b6120fc81856120ac565b935061210c8185602086016120bd565b61211581611eda565b840191505092915050565b6000602082019050818103600083015261213a81846120e7565b905092915050565b600081519050919050565b600082825260208201905092915050565b600061216982612142565b612173818561214d565b93506121838185602086016120bd565b61218c81611eda565b840191505092915050565b600060208201905081810360008301526121b1818461215e565b905092915050565b6000819050919050565b6121cc816121b9565b81146121d757600080fd5b50565b6000813590506121e9816121c3565b92915050565b60006020828403121561220557612204611e90565b5b6000612213848285016121da565b91505092915050565b61222581611e9a565b82525050565b6000602082019050612240600083018461221c565b92915050565b60006020828403121561225c5761225b611e90565b5b600061226a84828501611ebb565b91505092915050565b60008115159050919050565b61228881612273565b82525050565b60006080820190506122a3600083018761227f565b6122b0602083018661227f565b81810360408301526122c281856120e7565b905081810360608301526122d681846120e7565b905095945050505050565b600080604083850312156122f8576122f7611e90565b5b6000612306858286016121da565b9250506020612317858286016121da565b9150509250929050565b600073ffffffffffffffffffffffffffffffffffffffff82169050919050565b600061234c82612321565b9050919050565b61235c81612341565b82525050565b61236b816121b9565b82525050565b600060e082019050612386600083018a612353565b6123936020830189612362565b6123a06040830188612362565b6123ad6060830187612362565b6123ba6080830186612362565b6123c760a083018561227f565b6123d460c0830184612362565b98975050505050505050565b7f4e487b7100000000000000000000000000000000000000000000000000000000600052602260045260246000fd5b6000600282049050600182168061242757607f821691505b60208210810361243a576124396123e0565b5b50919050565b7f4e487b7100000000000000000000000000000000000000000000000000000000600052603260045260246000fd5b7f4e487b7100000000000000000000000000000000000000000000000000000000600052601160045260246000fd5b60006124a9826121b9565b91507fffffffffffffffffffffffffffffffffffffffffffffffffffffffffffffffff82036124db576124da61246f565b5b600182019050919050565b60008190508160005260206000209050919050565b60006020601f8301049050919050565b600082821b905092915050565b6000600883026125487fffffffffffffffffffffffffffffffffffffffffffffffffffffffffffffffff8261250b565b612552868361250b565b95508019841693508086168417925050509392505050565b6000819050919050565b600061258f61258a612585846121b9565b61256a565b6121b9565b9050919050565b6000819050919050565b6125a983612574565b6125bd6125b582612596565b848454612518565b825550505050565b600090565b6125d26125c5565b6125dd8184846125a0565b505050565b5b81811015612601576125f66000826125ca565b6001810190506125e3565b5050565b601f82111561264657612617816124e6565b612620846124fb565b8101602085101561262f578190505b61264361263b856124fb565b8301826125e2565b50505b505050565b600082821c905092915050565b60006126696000198460080261264b565b1980831691505092915050565b60006126828383612658565b9150826002028217905092915050565b61269b826120a1565b67ffffffffffffffff8111156126b4576126b3611eeb565b5b6126be825461240f565b6126c9828285612605565b600060209050601f8311600181146126fc57600084156126ea578287015190505b6126f48582612676565b86555061275c565b601f19841661270a866124e6565b60005b828110156127325784890151825560018201915060208501945060208101905061270d565b8683101561274f578489015161274b601f891682612658565b8355505b6001600288020188555050505b505050505050565b7f72657175657374206e6f7420666f756e64000000000000000000000000000000600082015250565b600061279a60118361214d565b91506127a582612764565b602082019050919050565b600060208201905081810360008301526127c98161278d565b9050919050565b60008190508160005260206000209050919050565b601f821115612826576127f7816127d0565b612800846124fb565b8101602085101561280f578190505b61282361281b856124fb565b8301826125e2565b50505b505050565b61283482612142565b67ffffffffffffffff81111561284d5761284c611eeb565b5b612857825461240f565b6128628282856127e5565b600060209050601f8311600181146128955760008415612883578287015190505b61288d8582612676565b8655506128f5565b601f1984166128a3866127d0565b60005b828110156128cb578489015182556001820191506020850194506020810190506128a6565b868310156128e857848901516128e4601f891682612658565b8355505b6001600288020188555050505b505050505050565b6000815461290a8161240f565b612914818661214d565b9450600182166000811461292f576001811461294557612978565b60ff198316865281151560200286019350612978565b61294e856127d0565b60005b8381101561297057815481890152600182019150602081019050612951565b808801955050505b50505092915050565b6000815461298e8161240f565b61299881866120ac565b945060018216600081146129b357600181146129c9576129fc565b60ff1983168652811515602002860193506129fc565b6129d2856124e6565b60005b838110156129f4578154818901526001820191506020810190506129d5565b808801955050505b50505092915050565b60006060820190508181036000830152612a1f81866128fd565b90508181036020830152612a338185612981565b90508181036040830152612a478184612981565b9050949350505050565b7f4e487b7100000000000000000000000000000000000000000000000000000000600052601260045260246000fd5b600081905092915050565b6000612a9682612142565b612aa08185612a80565b9350612ab08185602086016120bd565b80840191505092915050565b6000612ac88285612a8b565b9150612ad48284612a8b565b91508190509392505050565b7f4e487b7100000000000000000000000000000000000000000000000000000000600052602160045260246000fd5b600061ffff82169050919050565b612b2681612b0f565b82525050565b600063ffffffff82169050919050565b612b4581612b2c565b82525050565b600060a082019050612b606000830188611e5c565b8181036020830152612b7281876120e7565b9050612b816040830186612b1d565b612b8e6060830185612b3c565b612b9b608083018461221c565b9695505050505050565b600081519050612bb481611ea4565b92915050565b600060208284031215612bd057612bcf611e90565b5b6000612bde84828501612ba5565b91505092915050565b6000612bf2826121b9565b9150612bfd836121b9565b9250828202612c0b816121b9565b91508282048414831517612c2257612c2161246f565b5b5092915050565b6000612c34826121b9565b9150612c3f836121b9565b9250828201905080821115612c5757612c5661246f565b5b92915050565b6000612c68826121b9565b915060008203612c7b57612c7a61246f565b5b600182039050919050565b6000604082019050612c9b6000830185612362565b612ca86020830184612362565b9392505050565b6000602082019050612cc46000830184612362565b92915050565b6000612cd5826121b9565b9150612ce0836121b9565b9250828203905081811115612cf857612cf761246f565b5b92915050565b6000612d09826121b9565b9150612d14836121b9565b925082612d2457612d23612a51565b5b828206905092915050565b60008160011c9050919050565b6000808291508390505b6001851115612d8657808604811115612d6257612d6161246f565b5b6001851615612d715780820291505b8081029050612d7f85612d2f565b9450612d46565b94509492505050565b600082612d9f5760019050612e5b565b81612dad5760009050612e5b565b8160018114612dc35760028114612dcd57612dfc565b6001915050612e5b565b60ff841115612ddf57612dde61246f565b5b8360020a915084821115612df657612df561246f565b5b50612e5b565b5060208310610133831016604e8410600b8410161715612e315782820a905083811115612e2c57612e2b61246f565b5b612e5b565b612e3e8484846001612d3c565b92509050818404811115612e5557612e5461246f565b5b81810290505b9392505050565b6000612e6d826121b9565b9150612e78836121b9565b9250612ea57fffffffffffffffffffffffffffffffffffffffffffffffffffffffffffffffff8484612d8f565b90509291505056fea2646970667358221220aa52ae59ae245cb9f59cc9a987ea82ab812f9c94b1c29f1f097e2b089487da6e64736f6c63430008130033636f6e737420656e65726779436f6e747261637473203d20617267735b305d3b636f6e737420617069526573706f6e7365203d2061776169742046756e6374696f6e732e6d616b654874747052657175657374287b75726c3a206068747470733a2f2f777474722e696e2f3f636f6e7472616374733d7b656e65726779436f6e7472616374737d602c726573706f6e7365547970653a202774657874277d293b69662028617069526573706f6e73652e6572726f7229207b7468726f77204572726f72282752657175657374206661696c656427293b7d636f6e7374207b2064617461207d203d20617069526573706f6e73653b6c6574206e657744617461203d204a534f4e2e737472696e6769667928646174612972657475726e2046756e6374696f6e732e656e636f6465537472696e67286e657744617461293b","opcodes":"PUSH1 0xA0 PUSH1 0x40 MSTORE PUSH20 0xB83E47C2BC239B3BF370BC41E1459A34B41238D0 PUSH1 0x7 PUSH1 0x0 PUSH2 0x100 EXP DUP2 SLOAD DUP2 PUSH20 0xFFFFFFFFFFFFFFFFFFFFFFFFFFFFFFFFFFFFFFFF MUL NOT AND SWAP1 DUP4 PUSH20 0xFFFFFFFFFFFFFFFFFFFFFFFFFFFFFFFFFFFFFFFF AND MUL OR SWAP1 SSTORE POP PUSH32 0x66756E2D657468657265756D2D7365706F6C69612D3100000000000000000000 PUSH1 0x0 SHL PUSH1 0x8 SSTORE PUSH3 0x493E0 PUSH1 0x9 PUSH1 0x0 PUSH2 0x100 EXP DUP2 SLOAD DUP2 PUSH4 0xFFFFFFFF MUL NOT AND SWAP1 DUP4 PUSH4 0xFFFFFFFF AND MUL OR SWAP1 SSTORE POP PUSH1 0x40 MLOAD DUP1 PUSH2 0x160 ADD PUSH1 0x40 MSTORE DUP1 PUSH2 0x13D DUP2 MSTORE PUSH1 0x20 ADD PUSH3 0x3470 PUSH2 0x13D SWAP2 CODECOPY PUSH1 0xA SWAP1 DUP2 PUSH3 0xD1 SWAP2 SWAP1 PUSH3 0x407 JUMP JUMPDEST POP CALLVALUE DUP1 ISZERO PUSH3 0xDF JUMPI PUSH1 0x0 DUP1 REVERT JUMPDEST POP PUSH1 0x40 MLOAD PUSH3 0x35AD CODESIZE SUB DUP1 PUSH3 0x35AD DUP4 CODECOPY DUP2 DUP2 ADD PUSH1 0x40 MSTORE DUP2 ADD SWAP1 PUSH3 0x105 SWAP2 SWAP1 PUSH3 0x538 JUMP JUMPDEST PUSH1 0x7 PUSH1 0x0 SWAP1 SLOAD SWAP1 PUSH2 0x100 EXP SWAP1 DIV PUSH20 0xFFFFFFFFFFFFFFFFFFFFFFFFFFFFFFFFFFFFFFFF AND DUP1 PUSH20 0xFFFFFFFFFFFFFFFFFFFFFFFFFFFFFFFFFFFFFFFF AND PUSH1 0x80 DUP2 PUSH20 0xFFFFFFFFFFFFFFFFFFFFFFFFFFFFFFFFFFFFFFFF AND DUP2 MSTORE POP POP POP DUP1 PUSH1 0x9 PUSH1 0x4 PUSH2 0x100 EXP DUP2 SLOAD DUP2 PUSH8 0xFFFFFFFFFFFFFFFF MUL NOT AND SWAP1 DUP4 PUSH8 0xFFFFFFFFFFFFFFFF AND MUL OR SWAP1 SSTORE POP POP PUSH3 0x56A JUMP JUMPDEST PUSH1 0x0 DUP2 MLOAD SWAP1 POP SWAP2 SWAP1 POP JUMP JUMPDEST PUSH32 0x4E487B7100000000000000000000000000000000000000000000000000000000 PUSH1 0x0 MSTORE PUSH1 0x41 PUSH1 0x4 MSTORE PUSH1 0x24 PUSH1 0x0 REVERT JUMPDEST PUSH32 0x4E487B7100000000000000000000000000000000000000000000000000000000 PUSH1 0x0 MSTORE PUSH1 0x22 PUSH1 0x4 MSTORE PUSH1 0x24 PUSH1 0x0 REVERT JUMPDEST PUSH1 0x0 PUSH1 0x2 DUP3 DIV SWAP1 POP PUSH1 0x1 DUP3 AND DUP1 PUSH3 0x20F JUMPI PUSH1 0x7F DUP3 AND SWAP2 POP JUMPDEST PUSH1 0x20 DUP3 LT DUP2 SUB PUSH3 0x225 JUMPI PUSH3 0x224 PUSH3 0x1C7 JUMP JUMPDEST JUMPDEST POP SWAP2 SWAP1 POP JUMP JUMPDEST PUSH1 0x0 DUP2 SWAP1 POP DUP2 PUSH1 0x0 MSTORE PUSH1 0x20 PUSH1 0x0 KECCAK256 SWAP1 POP SWAP2 SWAP1 POP JUMP JUMPDEST PUSH1 0x0 PUSH1 0x20 PUSH1 0x1F DUP4 ADD DIV SWAP1 POP SWAP2 SWAP1 POP JUMP JUMPDEST PUSH1 0x0 DUP3 DUP3 SHL SWAP1 POP SWAP3 SWAP2 POP POP JUMP JUMPDEST PUSH1 0x0 PUSH1 0x8 DUP4 MUL PUSH3 0x28F PUSH32 0xFFFFFFFFFFFFFFFFFFFFFFFFFFFFFFFFFFFFFFFFFFFFFFFFFFFFFFFFFFFFFFFF DUP3 PUSH3 0x250 JUMP JUMPDEST PUSH3 0x29B DUP7 DUP4 PUSH3 0x250 JUMP JUMPDEST SWAP6 POP DUP1 NOT DUP5 AND SWAP4 POP DUP1 DUP7 AND DUP5 OR SWAP3 POP POP POP SWAP4 SWAP3 POP POP POP JUMP JUMPDEST PUSH1 0x0 DUP2 SWAP1 POP SWAP2 SWAP1 POP JUMP JUMPDEST PUSH1 0x0 DUP2 SWAP1 POP SWAP2 SWAP1 POP JUMP JUMPDEST PUSH1 0x0 PUSH3 0x2E8 PUSH3 0x2E2 PUSH3 0x2DC DUP5 PUSH3 0x2B3 JUMP JUMPDEST PUSH3 0x2BD JUMP JUMPDEST PUSH3 0x2B3 JUMP JUMPDEST SWAP1 POP SWAP2 SWAP1 POP JUMP JUMPDEST PUSH1 0x0 DUP2 SWAP1 POP SWAP2 SWAP1 POP JUMP JUMPDEST PUSH3 0x304 DUP4 PUSH3 0x2C7 JUMP JUMPDEST PUSH3 0x31C PUSH3 0x313 DUP3 PUSH3 0x2EF JUMP JUMPDEST DUP5 DUP5 SLOAD PUSH3 0x25D JUMP JUMPDEST DUP3 SSTORE POP POP POP POP JUMP JUMPDEST PUSH1 0x0 SWAP1 JUMP JUMPDEST PUSH3 0x333 PUSH3 0x324 JUMP JUMPDEST PUSH3 0x340 DUP2 DUP5 DUP5 PUSH3 0x2F9 JUMP JUMPDEST POP POP POP JUMP JUMPDEST JUMPDEST DUP2 DUP2 LT ISZERO PUSH3 0x368 JUMPI PUSH3 0x35C PUSH1 0x0 DUP3 PUSH3 0x329 JUMP JUMPDEST PUSH1 0x1 DUP2 ADD SWAP1 POP PUSH3 0x346 JUMP JUMPDEST POP POP JUMP JUMPDEST PUSH1 0x1F DUP3 GT ISZERO PUSH3 0x3B7 JUMPI PUSH3 0x381 DUP2 PUSH3 0x22B JUMP JUMPDEST PUSH3 0x38C DUP5 PUSH3 0x240 JUMP JUMPDEST DUP2 ADD PUSH1 0x20 DUP6 LT ISZERO PUSH3 0x39C JUMPI DUP2 SWAP1 POP JUMPDEST PUSH3 0x3B4 PUSH3 0x3AB DUP6 PUSH3 0x240 JUMP JUMPDEST DUP4 ADD DUP3 PUSH3 0x345 JUMP JUMPDEST POP POP JUMPDEST POP POP POP JUMP JUMPDEST PUSH1 0x0 DUP3 DUP3 SHR SWAP1 POP SWAP3 SWAP2 POP POP JUMP JUMPDEST PUSH1 0x0 PUSH3 0x3DC PUSH1 0x0 NOT DUP5 PUSH1 0x8 MUL PUSH3 0x3BC JUMP JUMPDEST NOT DUP1 DUP4 AND SWAP2 POP POP SWAP3 SWAP2 POP POP JUMP JUMPDEST PUSH1 0x0 PUSH3 0x3F7 DUP4 DUP4 PUSH3 0x3C9 JUMP JUMPDEST SWAP2 POP DUP3 PUSH1 0x2 MUL DUP3 OR SWAP1 POP SWAP3 SWAP2 POP POP JUMP JUMPDEST PUSH3 0x412 DUP3 PUSH3 0x18D JUMP JUMPDEST PUSH8 0xFFFFFFFFFFFFFFFF DUP2 GT ISZERO PUSH3 0x42E JUMPI PUSH3 0x42D PUSH3 0x198 JUMP JUMPDEST JUMPDEST PUSH3 0x43A DUP3 SLOAD PUSH3 0x1F6 JUMP JUMPDEST PUSH3 0x447 DUP3 DUP3 DUP6 PUSH3 0x36C JUMP JUMPDEST PUSH1 0x0 PUSH1 0x20 SWAP1 POP PUSH1 0x1F DUP4 GT PUSH1 0x1 DUP2 EQ PUSH3 0x47F JUMPI PUSH1 0x0 DUP5 ISZERO PUSH3 0x46A JUMPI DUP3 DUP8 ADD MLOAD SWAP1 POP JUMPDEST PUSH3 0x476 DUP6 DUP3 PUSH3 0x3E9 JUMP JUMPDEST DUP7 SSTORE POP PUSH3 0x4E6 JUMP JUMPDEST PUSH1 0x1F NOT DUP5 AND PUSH3 0x48F DUP7 PUSH3 0x22B JUMP JUMPDEST PUSH1 0x0 JUMPDEST DUP3 DUP2 LT ISZERO PUSH3 0x4B9 JUMPI DUP5 DUP10 ADD MLOAD DUP3 SSTORE PUSH1 0x1 DUP3 ADD SWAP2 POP PUSH1 0x20 DUP6 ADD SWAP5 POP PUSH1 0x20 DUP2 ADD SWAP1 POP PUSH3 0x492 JUMP JUMPDEST DUP7 DUP4 LT ISZERO PUSH3 0x4D9 JUMPI DUP5 DUP10 ADD MLOAD PUSH3 0x4D5 PUSH1 0x1F DUP10 AND DUP3 PUSH3 0x3C9 JUMP JUMPDEST DUP4 SSTORE POP JUMPDEST PUSH1 0x1 PUSH1 0x2 DUP9 MUL ADD DUP9 SSTORE POP POP POP JUMPDEST POP POP POP POP POP POP JUMP JUMPDEST PUSH1 0x0 DUP1 REVERT JUMPDEST PUSH1 0x0 PUSH8 0xFFFFFFFFFFFFFFFF DUP3 AND SWAP1 POP SWAP2 SWAP1 POP JUMP JUMPDEST PUSH3 0x512 DUP2 PUSH3 0x4F3 JUMP JUMPDEST DUP2 EQ PUSH3 0x51E JUMPI PUSH1 0x0 DUP1 REVERT JUMPDEST POP JUMP JUMPDEST PUSH1 0x0 DUP2 MLOAD SWAP1 POP PUSH3 0x532 DUP2 PUSH3 0x507 JUMP JUMPDEST SWAP3 SWAP2 POP POP JUMP JUMPDEST PUSH1 0x0 PUSH1 0x20 DUP3 DUP5 SUB SLT ISZERO PUSH3 0x551 JUMPI PUSH3 0x550 PUSH3 0x4EE JUMP JUMPDEST JUMPDEST PUSH1 0x0 PUSH3 0x561 DUP5 DUP3 DUP6 ADD PUSH3 0x521 JUMP JUMPDEST SWAP2 POP POP SWAP3 SWAP2 POP POP JUMP JUMPDEST PUSH1 0x80 MLOAD PUSH2 0x2EE3 PUSH3 0x58D PUSH1 0x0 CODECOPY PUSH1 0x0 DUP2 DUP2 PUSH2 0x23A ADD MSTORE PUSH2 0x1300 ADD MSTORE PUSH2 0x2EE3 PUSH1 0x0 RETURN INVALID PUSH1 0x80 PUSH1 0x40 MSTORE CALLVALUE DUP1 ISZERO PUSH2 0x10 JUMPI PUSH1 0x0 DUP1 REVERT JUMPDEST POP PUSH1 0x4 CALLDATASIZE LT PUSH2 0x9E JUMPI PUSH1 0x0 CALLDATALOAD PUSH1 0xE0 SHR DUP1 PUSH4 0x8796BA8C GT PUSH2 0x66 JUMPI DUP1 PUSH4 0x8796BA8C EQ PUSH2 0x137 JUMPI DUP1 PUSH4 0x9D866985 EQ PUSH2 0x167 JUMPI DUP1 PUSH4 0xD483337D EQ PUSH2 0x19A JUMPI DUP1 PUSH4 0xF3DE41AD EQ PUSH2 0x1CA JUMPI DUP1 PUSH4 0xFC2A88C3 EQ PUSH2 0x200 JUMPI PUSH2 0x9E JUMP JUMPDEST DUP1 PUSH4 0x9C1BA2E EQ PUSH2 0xA3 JUMPI DUP1 PUSH4 0xCA76175 EQ PUSH2 0xC1 JUMPI DUP1 PUSH4 0x29F0DE3F EQ PUSH2 0xDD JUMPI DUP1 PUSH4 0x62747E42 EQ PUSH2 0xFB JUMPI DUP1 PUSH4 0x67E828BF EQ PUSH2 0x119 JUMPI JUMPDEST PUSH1 0x0 DUP1 REVERT JUMPDEST PUSH2 0xAB PUSH2 0x21E JUMP JUMPDEST PUSH1 0x40 MLOAD PUSH2 0xB8 SWAP2 SWAP1 PUSH2 0x1E6B JUMP JUMPDEST PUSH1 0x40 MLOAD DUP1 SWAP2 SUB SWAP1 RETURN JUMPDEST PUSH2 0xDB PUSH1 0x4 DUP1 CALLDATASIZE SUB DUP2 ADD SWAP1 PUSH2 0xD6 SWAP2 SWAP1 PUSH2 0x2016 JUMP JUMPDEST PUSH2 0x238 JUMP JUMPDEST STOP JUMPDEST PUSH2 0xE5 PUSH2 0x2FA JUMP JUMPDEST PUSH1 0x40 MLOAD PUSH2 0xF2 SWAP2 SWAP1 PUSH2 0x2120 JUMP JUMPDEST PUSH1 0x40 MLOAD DUP1 SWAP2 SUB SWAP1 RETURN JUMPDEST PUSH2 0x103 PUSH2 0x388 JUMP JUMPDEST PUSH1 0x40 MLOAD PUSH2 0x110 SWAP2 SWAP1 PUSH2 0x2120 JUMP JUMPDEST PUSH1 0x40 MLOAD DUP1 SWAP2 SUB SWAP1 RETURN JUMPDEST PUSH2 0x121 PUSH2 0x416 JUMP JUMPDEST PUSH1 0x40 MLOAD PUSH2 0x12E SWAP2 SWAP1 PUSH2 0x2197 JUMP JUMPDEST PUSH1 0x40 MLOAD DUP1 SWAP2 SUB SWAP1 RETURN JUMPDEST PUSH2 0x151 PUSH1 0x4 DUP1 CALLDATASIZE SUB DUP2 ADD SWAP1 PUSH2 0x14C SWAP2 SWAP1 PUSH2 0x21EF JUMP JUMPDEST PUSH2 0x4A4 JUMP JUMPDEST PUSH1 0x40 MLOAD PUSH2 0x15E SWAP2 SWAP1 PUSH2 0x222B JUMP JUMPDEST PUSH1 0x40 MLOAD DUP1 SWAP2 SUB SWAP1 RETURN JUMPDEST PUSH2 0x181 PUSH1 0x4 DUP1 CALLDATASIZE SUB DUP2 ADD SWAP1 PUSH2 0x17C SWAP2 SWAP1 PUSH2 0x2246 JUMP JUMPDEST PUSH2 0x4C8 JUMP JUMPDEST PUSH1 0x40 MLOAD PUSH2 0x191 SWAP5 SWAP4 SWAP3 SWAP2 SWAP1 PUSH2 0x228E JUMP JUMPDEST PUSH1 0x40 MLOAD DUP1 SWAP2 SUB SWAP1 RETURN JUMPDEST PUSH2 0x1B4 PUSH1 0x4 DUP1 CALLDATASIZE SUB DUP2 ADD SWAP1 PUSH2 0x1AF SWAP2 SWAP1 PUSH2 0x22E1 JUMP JUMPDEST PUSH2 0x622 JUMP JUMPDEST PUSH1 0x40 MLOAD PUSH2 0x1C1 SWAP2 SWAP1 PUSH2 0x222B JUMP JUMPDEST PUSH1 0x40 MLOAD DUP1 SWAP2 SUB SWAP1 RETURN JUMPDEST PUSH2 0x1E4 PUSH1 0x4 DUP1 CALLDATASIZE SUB DUP2 ADD SWAP1 PUSH2 0x1DF SWAP2 SWAP1 PUSH2 0x22E1 JUMP JUMPDEST PUSH2 0xB7F JUMP JUMPDEST PUSH1 0x40 MLOAD PUSH2 0x1F7 SWAP8 SWAP7 SWAP6 SWAP5 SWAP4 SWAP3 SWAP2 SWAP1 PUSH2 0x2371 JUMP JUMPDEST PUSH1 0x40 MLOAD DUP1 SWAP2 SUB SWAP1 RETURN JUMPDEST PUSH2 0x208 PUSH2 0xC0B JUMP JUMPDEST PUSH1 0x40 MLOAD PUSH2 0x215 SWAP2 SWAP1 PUSH2 0x222B JUMP JUMPDEST PUSH1 0x40 MLOAD DUP1 SWAP2 SUB SWAP1 RETURN JUMPDEST PUSH1 0x9 PUSH1 0x4 SWAP1 SLOAD SWAP1 PUSH2 0x100 EXP SWAP1 DIV PUSH8 0xFFFFFFFFFFFFFFFF AND DUP2 JUMP JUMPDEST PUSH32 0x0 PUSH20 0xFFFFFFFFFFFFFFFFFFFFFFFFFFFFFFFFFFFFFFFF AND CALLER PUSH20 0xFFFFFFFFFFFFFFFFFFFFFFFFFFFFFFFFFFFFFFFF AND EQ PUSH2 0x2BD JUMPI PUSH1 0x40 MLOAD PUSH32 0xC6829F8300000000000000000000000000000000000000000000000000000000 DUP2 MSTORE PUSH1 0x4 ADD PUSH1 0x40 MLOAD DUP1 SWAP2 SUB SWAP1 REVERT JUMPDEST PUSH2 0x2C8 DUP4 DUP4 DUP4 PUSH2 0xC11 JUMP JUMPDEST DUP3 PUSH32 0x85E1543BF2F84FE80C6BADBCE3648C8539AD1DF4D2B3D822938CA0538BE727E6 PUSH1 0x40 MLOAD PUSH1 0x40 MLOAD DUP1 SWAP2 SUB SWAP1 LOG2 POP POP POP JUMP JUMPDEST PUSH1 0x4 DUP1 SLOAD PUSH2 0x307 SWAP1 PUSH2 0x240F JUMP JUMPDEST DUP1 PUSH1 0x1F ADD PUSH1 0x20 DUP1 SWAP2 DIV MUL PUSH1 0x20 ADD PUSH1 0x40 MLOAD SWAP1 DUP2 ADD PUSH1 0x40 MSTORE DUP1 SWAP3 SWAP2 SWAP1 DUP2 DUP2 MSTORE PUSH1 0x20 ADD DUP3 DUP1 SLOAD PUSH2 0x333 SWAP1 PUSH2 0x240F JUMP JUMPDEST DUP1 ISZERO PUSH2 0x380 JUMPI DUP1 PUSH1 0x1F LT PUSH2 0x355 JUMPI PUSH2 0x100 DUP1 DUP4 SLOAD DIV MUL DUP4 MSTORE SWAP2 PUSH1 0x20 ADD SWAP2 PUSH2 0x380 JUMP JUMPDEST DUP3 ADD SWAP2 SWAP1 PUSH1 0x0 MSTORE PUSH1 0x20 PUSH1 0x0 KECCAK256 SWAP1 JUMPDEST DUP2 SLOAD DUP2 MSTORE SWAP1 PUSH1 0x1 ADD SWAP1 PUSH1 0x20 ADD DUP1 DUP4 GT PUSH2 0x363 JUMPI DUP3 SWAP1 SUB PUSH1 0x1F AND DUP3 ADD SWAP2 JUMPDEST POP POP POP POP POP DUP2 JUMP JUMPDEST PUSH1 0x3 DUP1 SLOAD PUSH2 0x395 SWAP1 PUSH2 0x240F JUMP JUMPDEST DUP1 PUSH1 0x1F ADD PUSH1 0x20 DUP1 SWAP2 DIV MUL PUSH1 0x20 ADD PUSH1 0x40 MLOAD SWAP1 DUP2 ADD PUSH1 0x40 MSTORE DUP1 SWAP3 SWAP2 SWAP1 DUP2 DUP2 MSTORE PUSH1 0x20 ADD DUP3 DUP1 SLOAD PUSH2 0x3C1 SWAP1 PUSH2 0x240F JUMP JUMPDEST DUP1 ISZERO PUSH2 0x40E JUMPI DUP1 PUSH1 0x1F LT PUSH2 0x3E3 JUMPI PUSH2 0x100 DUP1 DUP4 SLOAD DIV MUL DUP4 MSTORE SWAP2 PUSH1 0x20 ADD SWAP2 PUSH2 0x40E JUMP JUMPDEST DUP3 ADD SWAP2 SWAP1 PUSH1 0x0 MSTORE PUSH1 0x20 PUSH1 0x0 KECCAK256 SWAP1 JUMPDEST DUP2 SLOAD DUP2 MSTORE SWAP1 PUSH1 0x1 ADD SWAP1 PUSH1 0x20 ADD DUP1 DUP4 GT PUSH2 0x3F1 JUMPI DUP3 SWAP1 SUB PUSH1 0x1F AND DUP3 ADD SWAP2 JUMPDEST POP POP POP POP POP DUP2 JUMP JUMPDEST PUSH1 0xA DUP1 SLOAD PUSH2 0x423 SWAP1 PUSH2 0x240F JUMP JUMPDEST DUP1 PUSH1 0x1F ADD PUSH1 0x20 DUP1 SWAP2 DIV MUL PUSH1 0x20 ADD PUSH1 0x40 MLOAD SWAP1 DUP2 ADD PUSH1 0x40 MSTORE DUP1 SWAP3 SWAP2 SWAP1 DUP2 DUP2 MSTORE PUSH1 0x20 ADD DUP3 DUP1 SLOAD PUSH2 0x44F SWAP1 PUSH2 0x240F JUMP JUMPDEST DUP1 ISZERO PUSH2 0x49C JUMPI DUP1 PUSH1 0x1F LT PUSH2 0x471 JUMPI PUSH2 0x100 DUP1 DUP4 SLOAD DIV MUL DUP4 MSTORE SWAP2 PUSH1 0x20 ADD SWAP2 PUSH2 0x49C JUMP JUMPDEST DUP3 ADD SWAP2 SWAP1 PUSH1 0x0 MSTORE PUSH1 0x20 PUSH1 0x0 KECCAK256 SWAP1 JUMPDEST DUP2 SLOAD DUP2 MSTORE SWAP1 PUSH1 0x1 ADD SWAP1 PUSH1 0x20 ADD DUP1 DUP4 GT PUSH2 0x47F JUMPI DUP3 SWAP1 SUB PUSH1 0x1F AND DUP3 ADD SWAP2 JUMPDEST POP POP POP POP POP DUP2 JUMP JUMPDEST PUSH1 0x6 DUP2 DUP2 SLOAD DUP2 LT PUSH2 0x4B4 JUMPI PUSH1 0x0 DUP1 REVERT JUMPDEST SWAP1 PUSH1 0x0 MSTORE PUSH1 0x20 PUSH1 0x0 KECCAK256 ADD PUSH1 0x0 SWAP2 POP SWAP1 POP SLOAD DUP2 JUMP JUMPDEST PUSH1 0x5 PUSH1 0x20 MSTORE DUP1 PUSH1 0x0 MSTORE PUSH1 0x40 PUSH1 0x0 KECCAK256 PUSH1 0x0 SWAP2 POP SWAP1 POP DUP1 PUSH1 0x0 ADD PUSH1 0x0 SWAP1 SLOAD SWAP1 PUSH2 0x100 EXP SWAP1 DIV PUSH1 0xFF AND SWAP1 DUP1 PUSH1 0x0 ADD PUSH1 0x1 SWAP1 SLOAD SWAP1 PUSH2 0x100 EXP SWAP1 DIV PUSH1 0xFF AND SWAP1 DUP1 PUSH1 0x1 ADD DUP1 SLOAD PUSH2 0x511 SWAP1 PUSH2 0x240F JUMP JUMPDEST DUP1 PUSH1 0x1F ADD PUSH1 0x20 DUP1 SWAP2 DIV MUL PUSH1 0x20 ADD PUSH1 0x40 MLOAD SWAP1 DUP2 ADD PUSH1 0x40 MSTORE DUP1 SWAP3 SWAP2 SWAP1 DUP2 DUP2 MSTORE PUSH1 0x20 ADD DUP3 DUP1 SLOAD PUSH2 0x53D SWAP1 PUSH2 0x240F JUMP JUMPDEST DUP1 ISZERO PUSH2 0x58A JUMPI DUP1 PUSH1 0x1F LT PUSH2 0x55F JUMPI PUSH2 0x100 DUP1 DUP4 SLOAD DIV MUL DUP4 MSTORE SWAP2 PUSH1 0x20 ADD SWAP2 PUSH2 0x58A JUMP JUMPDEST DUP3 ADD SWAP2 SWAP1 PUSH1 0x0 MSTORE PUSH1 0x20 PUSH1 0x0 KECCAK256 SWAP1 JUMPDEST DUP2 SLOAD DUP2 MSTORE SWAP1 PUSH1 0x1 ADD SWAP1 PUSH1 0x20 ADD DUP1 DUP4 GT PUSH2 0x56D JUMPI DUP3 SWAP1 SUB PUSH1 0x1F AND DUP3 ADD SWAP2 JUMPDEST POP POP POP POP POP SWAP1 DUP1 PUSH1 0x2 ADD DUP1 SLOAD PUSH2 0x59F SWAP1 PUSH2 0x240F JUMP JUMPDEST DUP1 PUSH1 0x1F ADD PUSH1 0x20 DUP1 SWAP2 DIV MUL PUSH1 0x20 ADD PUSH1 0x40 MLOAD SWAP1 DUP2 ADD PUSH1 0x40 MSTORE DUP1 SWAP3 SWAP2 SWAP1 DUP2 DUP2 MSTORE PUSH1 0x20 ADD DUP3 DUP1 SLOAD PUSH2 0x5CB SWAP1 PUSH2 0x240F JUMP JUMPDEST DUP1 ISZERO PUSH2 0x618 JUMPI DUP1 PUSH1 0x1F LT PUSH2 0x5ED JUMPI PUSH2 0x100 DUP1 DUP4 SLOAD DIV MUL DUP4 MSTORE SWAP2 PUSH1 0x20 ADD SWAP2 PUSH2 0x618 JUMP JUMPDEST DUP3 ADD SWAP2 SWAP1 PUSH1 0x0 MSTORE PUSH1 0x20 PUSH1 0x0 KECCAK256 SWAP1 JUMPDEST DUP2 SLOAD DUP2 MSTORE SWAP1 PUSH1 0x1 ADD SWAP1 PUSH1 0x20 ADD DUP1 DUP4 GT PUSH2 0x5FB JUMPI DUP3 SWAP1 SUB PUSH1 0x1F AND DUP3 ADD SWAP2 JUMPDEST POP POP POP POP POP SWAP1 POP DUP5 JUMP JUMPDEST PUSH1 0x0 DUP1 PUSH1 0x1 PUSH1 0x0 DUP6 DUP2 MSTORE PUSH1 0x20 ADD SWAP1 DUP2 MSTORE PUSH1 0x20 ADD PUSH1 0x0 KECCAK256 DUP1 SLOAD DUP1 PUSH1 0x20 MUL PUSH1 0x20 ADD PUSH1 0x40 MLOAD SWAP1 DUP2 ADD PUSH1 0x40 MSTORE DUP1 SWAP3 SWAP2 SWAP1 DUP2 DUP2 MSTORE PUSH1 0x20 ADD PUSH1 0x0 SWAP1 JUMPDEST DUP3 DUP3 LT ISZERO PUSH2 0x72D JUMPI DUP4 DUP3 SWAP1 PUSH1 0x0 MSTORE PUSH1 0x20 PUSH1 0x0 KECCAK256 SWAP1 PUSH1 0x7 MUL ADD PUSH1 0x40 MLOAD DUP1 PUSH1 0xE0 ADD PUSH1 0x40 MSTORE SWAP1 DUP2 PUSH1 0x0 DUP3 ADD PUSH1 0x0 SWAP1 SLOAD SWAP1 PUSH2 0x100 EXP SWAP1 DIV PUSH20 0xFFFFFFFFFFFFFFFFFFFFFFFFFFFFFFFFFFFFFFFF AND PUSH20 0xFFFFFFFFFFFFFFFFFFFFFFFFFFFFFFFFFFFFFFFF AND PUSH20 0xFFFFFFFFFFFFFFFFFFFFFFFFFFFFFFFFFFFFFFFF AND DUP2 MSTORE PUSH1 0x20 ADD PUSH1 0x1 DUP3 ADD SLOAD DUP2 MSTORE PUSH1 0x20 ADD PUSH1 0x2 DUP3 ADD SLOAD DUP2 MSTORE PUSH1 0x20 ADD PUSH1 0x3 DUP3 ADD SLOAD DUP2 MSTORE PUSH1 0x20 ADD PUSH1 0x4 DUP3 ADD SLOAD DUP2 MSTORE PUSH1 0x20 ADD PUSH1 0x5 DUP3 ADD PUSH1 0x0 SWAP1 SLOAD SWAP1 PUSH2 0x100 EXP SWAP1 DIV PUSH1 0xFF AND ISZERO ISZERO ISZERO ISZERO DUP2 MSTORE PUSH1 0x20 ADD PUSH1 0x6 DUP3 ADD SLOAD DUP2 MSTORE POP POP DUP2 MSTORE PUSH1 0x20 ADD SWAP1 PUSH1 0x1 ADD SWAP1 PUSH2 0x658 JUMP JUMPDEST POP POP POP POP SWAP1 POP PUSH1 0x60 PUSH1 0x0 JUMPDEST DUP3 MLOAD DUP2 LT ISZERO PUSH2 0x921 JUMPI PUSH2 0x8F0 PUSH2 0x8C4 PUSH2 0x82A PUSH2 0x7FE PUSH2 0x7D2 PUSH2 0x7A6 PUSH2 0x77A DUP10 DUP9 DUP2 MLOAD DUP2 LT PUSH2 0x769 JUMPI PUSH2 0x768 PUSH2 0x2440 JUMP JUMPDEST JUMPDEST PUSH1 0x20 MUL PUSH1 0x20 ADD ADD MLOAD PUSH1 0x0 ADD MLOAD PUSH2 0xD5F JUMP JUMPDEST PUSH2 0x7A1 DUP11 DUP10 DUP2 MLOAD DUP2 LT PUSH2 0x790 JUMPI PUSH2 0x78F PUSH2 0x2440 JUMP JUMPDEST JUMPDEST PUSH1 0x20 MUL PUSH1 0x20 ADD ADD MLOAD PUSH1 0x20 ADD MLOAD PUSH2 0xD8C JUMP JUMPDEST PUSH2 0xE5A JUMP JUMPDEST PUSH2 0x7CD DUP10 DUP9 DUP2 MLOAD DUP2 LT PUSH2 0x7BC JUMPI PUSH2 0x7BB PUSH2 0x2440 JUMP JUMPDEST JUMPDEST PUSH1 0x20 MUL PUSH1 0x20 ADD ADD MLOAD PUSH1 0x40 ADD MLOAD PUSH2 0xD8C JUMP JUMPDEST PUSH2 0xE5A JUMP JUMPDEST PUSH2 0x7F9 DUP9 DUP8 DUP2 MLOAD DUP2 LT PUSH2 0x7E8 JUMPI PUSH2 0x7E7 PUSH2 0x2440 JUMP JUMPDEST JUMPDEST PUSH1 0x20 MUL PUSH1 0x20 ADD ADD MLOAD PUSH1 0x60 ADD MLOAD PUSH2 0xD8C JUMP JUMPDEST PUSH2 0xE5A JUMP JUMPDEST PUSH2 0x825 DUP8 DUP7 DUP2 MLOAD DUP2 LT PUSH2 0x814 JUMPI PUSH2 0x813 PUSH2 0x2440 JUMP JUMPDEST JUMPDEST PUSH1 0x20 MUL PUSH1 0x20 ADD ADD MLOAD PUSH1 0x80 ADD MLOAD PUSH2 0xD8C JUMP JUMPDEST PUSH2 0xE5A JUMP JUMPDEST DUP6 DUP5 DUP2 MLOAD DUP2 LT PUSH2 0x83D JUMPI PUSH2 0x83C PUSH2 0x2440 JUMP JUMPDEST JUMPDEST PUSH1 0x20 MUL PUSH1 0x20 ADD ADD MLOAD PUSH1 0xA0 ADD MLOAD PUSH2 0x888 JUMPI PUSH1 0x40 MLOAD DUP1 PUSH1 0x40 ADD PUSH1 0x40 MSTORE DUP1 PUSH1 0x5 DUP2 MSTORE PUSH1 0x20 ADD PUSH32 0x66616C7365000000000000000000000000000000000000000000000000000000 DUP2 MSTORE POP PUSH2 0x8BF JUMP JUMPDEST PUSH1 0x40 MLOAD DUP1 PUSH1 0x40 ADD PUSH1 0x40 MSTORE DUP1 PUSH1 0x4 DUP2 MSTORE PUSH1 0x20 ADD PUSH32 0x7472756500000000000000000000000000000000000000000000000000000000 DUP2 MSTORE POP JUMPDEST PUSH2 0xE5A JUMP JUMPDEST PUSH2 0x8EB DUP6 DUP5 DUP2 MLOAD DUP2 LT PUSH2 0x8DA JUMPI PUSH2 0x8D9 PUSH2 0x2440 JUMP JUMPDEST JUMPDEST PUSH1 0x20 MUL PUSH1 0x20 ADD ADD MLOAD PUSH1 0xC0 ADD MLOAD PUSH2 0xD8C JUMP JUMPDEST PUSH2 0xE5A JUMP JUMPDEST DUP3 DUP3 DUP2 MLOAD DUP2 LT PUSH2 0x903 JUMPI PUSH2 0x902 PUSH2 0x2440 JUMP JUMPDEST JUMPDEST PUSH1 0x20 MUL PUSH1 0x20 ADD ADD DUP2 SWAP1 MSTORE POP DUP1 DUP1 PUSH2 0x919 SWAP1 PUSH2 0x249E JUMP JUMPDEST SWAP2 POP POP PUSH2 0x738 JUMP JUMPDEST POP PUSH1 0x0 PUSH1 0x1 PUSH8 0xFFFFFFFFFFFFFFFF DUP2 GT ISZERO PUSH2 0x93F JUMPI PUSH2 0x93E PUSH2 0x1EEB JUMP JUMPDEST JUMPDEST PUSH1 0x40 MLOAD SWAP1 DUP1 DUP3 MSTORE DUP1 PUSH1 0x20 MUL PUSH1 0x20 ADD DUP3 ADD PUSH1 0x40 MSTORE DUP1 ISZERO PUSH2 0x972 JUMPI DUP2 PUSH1 0x20 ADD JUMPDEST PUSH1 0x60 DUP2 MSTORE PUSH1 0x20 ADD SWAP1 PUSH1 0x1 SWAP1 SUB SWAP1 DUP2 PUSH2 0x95D JUMPI SWAP1 POP JUMPDEST POP SWAP1 POP PUSH2 0x97D PUSH2 0x1D9C JUMP JUMPDEST PUSH2 0xA1A PUSH1 0xA DUP1 SLOAD PUSH2 0x98D SWAP1 PUSH2 0x240F JUMP JUMPDEST DUP1 PUSH1 0x1F ADD PUSH1 0x20 DUP1 SWAP2 DIV MUL PUSH1 0x20 ADD PUSH1 0x40 MLOAD SWAP1 DUP2 ADD PUSH1 0x40 MSTORE DUP1 SWAP3 SWAP2 SWAP1 DUP2 DUP2 MSTORE PUSH1 0x20 ADD DUP3 DUP1 SLOAD PUSH2 0x9B9 SWAP1 PUSH2 0x240F JUMP JUMPDEST DUP1 ISZERO PUSH2 0xA06 JUMPI DUP1 PUSH1 0x1F LT PUSH2 0x9DB JUMPI PUSH2 0x100 DUP1 DUP4 SLOAD DIV MUL DUP4 MSTORE SWAP2 PUSH1 0x20 ADD SWAP2 PUSH2 0xA06 JUMP JUMPDEST DUP3 ADD SWAP2 SWAP1 PUSH1 0x0 MSTORE PUSH1 0x20 PUSH1 0x0 KECCAK256 SWAP1 JUMPDEST DUP2 SLOAD DUP2 MSTORE SWAP1 PUSH1 0x1 ADD SWAP1 PUSH1 0x20 ADD DUP1 DUP4 GT PUSH2 0x9E9 JUMPI DUP3 SWAP1 SUB PUSH1 0x1F AND DUP3 ADD SWAP2 JUMPDEST POP POP POP POP POP DUP3 PUSH2 0xE86 SWAP1 SWAP2 SWAP1 PUSH4 0xFFFFFFFF AND JUMP JUMPDEST PUSH1 0x0 DUP3 MLOAD GT ISZERO PUSH2 0xA38 JUMPI PUSH2 0xA37 DUP4 DUP3 PUSH2 0xE97 SWAP1 SWAP2 SWAP1 PUSH4 0xFFFFFFFF AND JUMP JUMPDEST JUMPDEST PUSH2 0xA76 PUSH2 0xA44 DUP3 PUSH2 0xEDF JUMP JUMPDEST PUSH1 0x9 PUSH1 0x4 SWAP1 SLOAD SWAP1 PUSH2 0x100 EXP SWAP1 DIV PUSH8 0xFFFFFFFFFFFFFFFF AND PUSH1 0x9 PUSH1 0x0 SWAP1 SLOAD SWAP1 PUSH2 0x100 EXP SWAP1 DIV PUSH4 0xFFFFFFFF AND PUSH1 0x8 SLOAD PUSH2 0x12FB JUMP JUMPDEST PUSH1 0x2 DUP2 SWAP1 SSTORE POP PUSH1 0x40 MLOAD DUP1 PUSH1 0x80 ADD PUSH1 0x40 MSTORE DUP1 PUSH1 0x0 ISZERO ISZERO DUP2 MSTORE PUSH1 0x20 ADD PUSH1 0x1 ISZERO ISZERO DUP2 MSTORE PUSH1 0x20 ADD PUSH1 0x40 MLOAD DUP1 PUSH1 0x20 ADD PUSH1 0x40 MSTORE DUP1 PUSH1 0x0 DUP2 MSTORE POP DUP2 MSTORE PUSH1 0x20 ADD PUSH1 0x40 MLOAD DUP1 PUSH1 0x20 ADD PUSH1 0x40 MSTORE DUP1 PUSH1 0x0 DUP2 MSTORE POP DUP2 MSTORE POP PUSH1 0x5 PUSH1 0x0 PUSH1 0x2 SLOAD DUP2 MSTORE PUSH1 0x20 ADD SWAP1 DUP2 MSTORE PUSH1 0x20 ADD PUSH1 0x0 KECCAK256 PUSH1 0x0 DUP3 ADD MLOAD DUP2 PUSH1 0x0 ADD PUSH1 0x0 PUSH2 0x100 EXP DUP2 SLOAD DUP2 PUSH1 0xFF MUL NOT AND SWAP1 DUP4 ISZERO ISZERO MUL OR SWAP1 SSTORE POP PUSH1 0x20 DUP3 ADD MLOAD DUP2 PUSH1 0x0 ADD PUSH1 0x1 PUSH2 0x100 EXP DUP2 SLOAD DUP2 PUSH1 0xFF MUL NOT AND SWAP1 DUP4 ISZERO ISZERO MUL OR SWAP1 SSTORE POP PUSH1 0x40 DUP3 ADD MLOAD DUP2 PUSH1 0x1 ADD SWAP1 DUP2 PUSH2 0xB2B SWAP2 SWAP1 PUSH2 0x2692 JUMP JUMPDEST POP PUSH1 0x60 DUP3 ADD MLOAD DUP2 PUSH1 0x2 ADD SWAP1 DUP2 PUSH2 0xB41 SWAP2 SWAP1 PUSH2 0x2692 JUMP JUMPDEST POP SWAP1 POP POP PUSH1 0x6 PUSH1 0x2 SLOAD SWAP1 DUP1 PUSH1 0x1 DUP2 SLOAD ADD DUP1 DUP3 SSTORE DUP1 SWAP2 POP POP PUSH1 0x1 SWAP1 SUB SWAP1 PUSH1 0x0 MSTORE PUSH1 0x20 PUSH1 0x0 KECCAK256 ADD PUSH1 0x0 SWAP1 SWAP2 SWAP1 SWAP2 SWAP1 SWAP2 POP SSTORE PUSH1 0x2 SLOAD SWAP5 POP POP POP POP POP SWAP3 SWAP2 POP POP JUMP JUMPDEST PUSH1 0x1 PUSH1 0x20 MSTORE DUP2 PUSH1 0x0 MSTORE PUSH1 0x40 PUSH1 0x0 KECCAK256 DUP2 DUP2 SLOAD DUP2 LT PUSH2 0xB9B JUMPI PUSH1 0x0 DUP1 REVERT JUMPDEST SWAP1 PUSH1 0x0 MSTORE PUSH1 0x20 PUSH1 0x0 KECCAK256 SWAP1 PUSH1 0x7 MUL ADD PUSH1 0x0 SWAP2 POP SWAP2 POP POP DUP1 PUSH1 0x0 ADD PUSH1 0x0 SWAP1 SLOAD SWAP1 PUSH2 0x100 EXP SWAP1 DIV PUSH20 0xFFFFFFFFFFFFFFFFFFFFFFFFFFFFFFFFFFFFFFFF AND SWAP1 DUP1 PUSH1 0x1 ADD SLOAD SWAP1 DUP1 PUSH1 0x2 ADD SLOAD SWAP1 DUP1 PUSH1 0x3 ADD SLOAD SWAP1 DUP1 PUSH1 0x4 ADD SLOAD SWAP1 DUP1 PUSH1 0x5 ADD PUSH1 0x0 SWAP1 SLOAD SWAP1 PUSH2 0x100 EXP SWAP1 DIV PUSH1 0xFF AND SWAP1 DUP1 PUSH1 0x6 ADD SLOAD SWAP1 POP DUP8 JUMP JUMPDEST PUSH1 0x2 SLOAD DUP2 JUMP JUMPDEST PUSH1 0x5 PUSH1 0x0 DUP5 DUP2 MSTORE PUSH1 0x20 ADD SWAP1 DUP2 MSTORE PUSH1 0x20 ADD PUSH1 0x0 KECCAK256 PUSH1 0x0 ADD PUSH1 0x1 SWAP1 SLOAD SWAP1 PUSH2 0x100 EXP SWAP1 DIV PUSH1 0xFF AND PUSH2 0xC74 JUMPI PUSH1 0x40 MLOAD PUSH32 0x8C379A000000000000000000000000000000000000000000000000000000000 DUP2 MSTORE PUSH1 0x4 ADD PUSH2 0xC6B SWAP1 PUSH2 0x27B0 JUMP JUMPDEST PUSH1 0x40 MLOAD DUP1 SWAP2 SUB SWAP1 REVERT JUMPDEST DUP1 PUSH1 0x4 SWAP1 DUP2 PUSH2 0xC83 SWAP2 SWAP1 PUSH2 0x2692 JUMP JUMPDEST POP DUP2 PUSH1 0x3 SWAP1 DUP2 PUSH2 0xC93 SWAP2 SWAP1 PUSH2 0x2692 JUMP JUMPDEST POP PUSH1 0x1 PUSH1 0x5 PUSH1 0x0 DUP6 DUP2 MSTORE PUSH1 0x20 ADD SWAP1 DUP2 MSTORE PUSH1 0x20 ADD PUSH1 0x0 KECCAK256 PUSH1 0x0 ADD PUSH1 0x0 PUSH2 0x100 EXP DUP2 SLOAD DUP2 PUSH1 0xFF MUL NOT AND SWAP1 DUP4 ISZERO ISZERO MUL OR SWAP1 SSTORE POP DUP2 PUSH1 0x5 PUSH1 0x0 DUP6 DUP2 MSTORE PUSH1 0x20 ADD SWAP1 DUP2 MSTORE PUSH1 0x20 ADD PUSH1 0x0 KECCAK256 PUSH1 0x1 ADD SWAP1 DUP2 PUSH2 0xCE6 SWAP2 SWAP1 PUSH2 0x2692 JUMP JUMPDEST POP DUP1 PUSH1 0x5 PUSH1 0x0 DUP6 DUP2 MSTORE PUSH1 0x20 ADD SWAP1 DUP2 MSTORE PUSH1 0x20 ADD PUSH1 0x0 KECCAK256 PUSH1 0x2 ADD SWAP1 DUP2 PUSH2 0xD0A SWAP2 SWAP1 PUSH2 0x2692 JUMP JUMPDEST POP DUP2 PUSH1 0x0 SWAP1 DUP2 PUSH2 0xD1A SWAP2 SWAP1 PUSH2 0x282B JUMP JUMPDEST POP DUP3 PUSH32 0x160ED0AAFFBEF6885155188B91459CB5A97D5DAADCCF7561D8C46DEEA6641B50 PUSH1 0x0 PUSH1 0x3 PUSH1 0x4 PUSH1 0x40 MLOAD PUSH2 0xD52 SWAP4 SWAP3 SWAP2 SWAP1 PUSH2 0x2A05 JUMP JUMPDEST PUSH1 0x40 MLOAD DUP1 SWAP2 SUB SWAP1 LOG2 POP POP POP JUMP JUMPDEST PUSH1 0x60 PUSH2 0xD85 DUP3 PUSH20 0xFFFFFFFFFFFFFFFFFFFFFFFFFFFFFFFFFFFFFFFF AND PUSH1 0x14 PUSH1 0xFF AND PUSH2 0x13DE JUMP JUMPDEST SWAP1 POP SWAP2 SWAP1 POP JUMP JUMPDEST PUSH1 0x60 PUSH1 0x0 PUSH1 0x1 PUSH2 0xD9B DUP5 PUSH2 0x1624 JUMP JUMPDEST ADD SWAP1 POP PUSH1 0x0 DUP2 PUSH8 0xFFFFFFFFFFFFFFFF DUP2 GT ISZERO PUSH2 0xDBA JUMPI PUSH2 0xDB9 PUSH2 0x1EEB JUMP JUMPDEST JUMPDEST PUSH1 0x40 MLOAD SWAP1 DUP1 DUP3 MSTORE DUP1 PUSH1 0x1F ADD PUSH1 0x1F NOT AND PUSH1 0x20 ADD DUP3 ADD PUSH1 0x40 MSTORE DUP1 ISZERO PUSH2 0xDEC JUMPI DUP2 PUSH1 0x20 ADD PUSH1 0x1 DUP3 MUL DUP1 CALLDATASIZE DUP4 CALLDATACOPY DUP1 DUP3 ADD SWAP2 POP POP SWAP1 POP JUMPDEST POP SWAP1 POP PUSH1 0x0 DUP3 PUSH1 0x20 ADD DUP3 ADD SWAP1 POP JUMPDEST PUSH1 0x1 ISZERO PUSH2 0xE4F JUMPI DUP1 DUP1 PUSH1 0x1 SWAP1 SUB SWAP2 POP POP PUSH32 0x3031323334353637383961626364656600000000000000000000000000000000 PUSH1 0xA DUP7 MOD BYTE DUP2 MSTORE8 PUSH1 0xA DUP6 DUP2 PUSH2 0xE43 JUMPI PUSH2 0xE42 PUSH2 0x2A51 JUMP JUMPDEST JUMPDEST DIV SWAP5 POP PUSH1 0x0 DUP6 SUB PUSH2 0xDFA JUMPI JUMPDEST DUP2 SWAP4 POP POP POP POP SWAP2 SWAP1 POP JUMP JUMPDEST PUSH1 0x60 DUP3 DUP3 PUSH1 0x40 MLOAD PUSH1 0x20 ADD PUSH2 0xE6F SWAP3 SWAP2 SWAP1 PUSH2 0x2ABC JUMP JUMPDEST PUSH1 0x40 MLOAD PUSH1 0x20 DUP2 DUP4 SUB SUB DUP2 MSTORE SWAP1 PUSH1 0x40 MSTORE SWAP1 POP SWAP3 SWAP2 POP POP JUMP JUMPDEST PUSH2 0xE93 DUP3 PUSH1 0x0 DUP1 DUP5 PUSH2 0x1777 JUMP JUMPDEST POP POP JUMP JUMPDEST PUSH1 0x0 DUP2 MLOAD SUB PUSH2 0xED2 JUMPI PUSH1 0x40 MLOAD PUSH32 0xFE936CB700000000000000000000000000000000000000000000000000000000 DUP2 MSTORE PUSH1 0x4 ADD PUSH1 0x40 MLOAD DUP1 SWAP2 SUB SWAP1 REVERT JUMPDEST DUP1 DUP3 PUSH1 0xA0 ADD DUP2 SWAP1 MSTORE POP POP POP JUMP JUMPDEST PUSH1 0x60 PUSH1 0x0 PUSH2 0xEEE PUSH2 0x100 PUSH2 0x1821 JUMP JUMPDEST SWAP1 POP PUSH2 0xF38 PUSH1 0x40 MLOAD DUP1 PUSH1 0x40 ADD PUSH1 0x40 MSTORE DUP1 PUSH1 0xC DUP2 MSTORE PUSH1 0x20 ADD PUSH32 0x636F64654C6F636174696F6E0000000000000000000000000000000000000000 DUP2 MSTORE POP DUP3 PUSH2 0x1848 SWAP1 SWAP2 SWAP1 PUSH4 0xFFFFFFFF AND JUMP JUMPDEST PUSH2 0xF61 DUP4 PUSH1 0x0 ADD MLOAD PUSH1 0x2 DUP2 GT ISZERO PUSH2 0xF52 JUMPI PUSH2 0xF51 PUSH2 0x2AE0 JUMP JUMPDEST JUMPDEST DUP3 PUSH2 0x1871 SWAP1 SWAP2 SWAP1 PUSH4 0xFFFFFFFF AND JUMP JUMPDEST PUSH2 0xFA9 PUSH1 0x40 MLOAD DUP1 PUSH1 0x40 ADD PUSH1 0x40 MSTORE DUP1 PUSH1 0x8 DUP2 MSTORE PUSH1 0x20 ADD PUSH32 0x6C616E6775616765000000000000000000000000000000000000000000000000 DUP2 MSTORE POP DUP3 PUSH2 0x1848 SWAP1 SWAP2 SWAP1 PUSH4 0xFFFFFFFF AND JUMP JUMPDEST PUSH2 0xFD2 DUP4 PUSH1 0x40 ADD MLOAD PUSH1 0x0 DUP2 GT ISZERO PUSH2 0xFC3 JUMPI PUSH2 0xFC2 PUSH2 0x2AE0 JUMP JUMPDEST JUMPDEST DUP3 PUSH2 0x1871 SWAP1 SWAP2 SWAP1 PUSH4 0xFFFFFFFF AND JUMP JUMPDEST PUSH2 0x101A PUSH1 0x40 MLOAD DUP1 PUSH1 0x40 ADD PUSH1 0x40 MSTORE DUP1 PUSH1 0x6 DUP2 MSTORE PUSH1 0x20 ADD PUSH32 0x736F757263650000000000000000000000000000000000000000000000000000 DUP2 MSTORE POP DUP3 PUSH2 0x1848 SWAP1 SWAP2 SWAP1 PUSH4 0xFFFFFFFF AND JUMP JUMPDEST PUSH2 0x1031 DUP4 PUSH1 0x60 ADD MLOAD DUP3 PUSH2 0x1848 SWAP1 SWAP2 SWAP1 PUSH4 0xFFFFFFFF AND JUMP JUMPDEST PUSH1 0x0 DUP4 PUSH1 0xA0 ADD MLOAD MLOAD GT ISZERO PUSH2 0x10ED JUMPI PUSH2 0x1087 PUSH1 0x40 MLOAD DUP1 PUSH1 0x40 ADD PUSH1 0x40 MSTORE DUP1 PUSH1 0x4 DUP2 MSTORE PUSH1 0x20 ADD PUSH32 0x6172677300000000000000000000000000000000000000000000000000000000 DUP2 MSTORE POP DUP3 PUSH2 0x1848 SWAP1 SWAP2 SWAP1 PUSH4 0xFFFFFFFF AND JUMP JUMPDEST PUSH2 0x1090 DUP2 PUSH2 0x18C1 JUMP JUMPDEST PUSH1 0x0 JUMPDEST DUP4 PUSH1 0xA0 ADD MLOAD MLOAD DUP2 LT ISZERO PUSH2 0x10E2 JUMPI PUSH2 0x10D1 DUP5 PUSH1 0xA0 ADD MLOAD DUP3 DUP2 MLOAD DUP2 LT PUSH2 0x10BA JUMPI PUSH2 0x10B9 PUSH2 0x2440 JUMP JUMPDEST JUMPDEST PUSH1 0x20 MUL PUSH1 0x20 ADD ADD MLOAD DUP4 PUSH2 0x1848 SWAP1 SWAP2 SWAP1 PUSH4 0xFFFFFFFF AND JUMP JUMPDEST DUP1 PUSH2 0x10DB SWAP1 PUSH2 0x249E JUMP JUMPDEST SWAP1 POP PUSH2 0x1093 JUMP JUMPDEST POP PUSH2 0x10EC DUP2 PUSH2 0x18E9 JUMP JUMPDEST JUMPDEST PUSH1 0x0 DUP4 PUSH1 0x80 ADD MLOAD MLOAD GT ISZERO PUSH2 0x122E JUMPI PUSH1 0x0 PUSH1 0x2 DUP2 GT ISZERO PUSH2 0x110F JUMPI PUSH2 0x110E PUSH2 0x2AE0 JUMP JUMPDEST JUMPDEST DUP4 PUSH1 0x20 ADD MLOAD PUSH1 0x2 DUP2 GT ISZERO PUSH2 0x1126 JUMPI PUSH2 0x1125 PUSH2 0x2AE0 JUMP JUMPDEST JUMPDEST SUB PUSH2 0x115D JUMPI PUSH1 0x40 MLOAD PUSH32 0xA80D31F700000000000000000000000000000000000000000000000000000000 DUP2 MSTORE PUSH1 0x4 ADD PUSH1 0x40 MLOAD DUP1 SWAP2 SUB SWAP1 REVERT JUMPDEST PUSH2 0x11A5 PUSH1 0x40 MLOAD DUP1 PUSH1 0x40 ADD PUSH1 0x40 MSTORE DUP1 PUSH1 0xF DUP2 MSTORE PUSH1 0x20 ADD PUSH32 0x736563726574734C6F636174696F6E0000000000000000000000000000000000 DUP2 MSTORE POP DUP3 PUSH2 0x1848 SWAP1 SWAP2 SWAP1 PUSH4 0xFFFFFFFF AND JUMP JUMPDEST PUSH2 0x11CE DUP4 PUSH1 0x20 ADD MLOAD PUSH1 0x2 DUP2 GT ISZERO PUSH2 0x11BF JUMPI PUSH2 0x11BE PUSH2 0x2AE0 JUMP JUMPDEST JUMPDEST DUP3 PUSH2 0x1871 SWAP1 SWAP2 SWAP1 PUSH4 0xFFFFFFFF AND JUMP JUMPDEST PUSH2 0x1216 PUSH1 0x40 MLOAD DUP1 PUSH1 0x40 ADD PUSH1 0x40 MSTORE DUP1 PUSH1 0x7 DUP2 MSTORE PUSH1 0x20 ADD PUSH32 0x7365637265747300000000000000000000000000000000000000000000000000 DUP2 MSTORE POP DUP3 PUSH2 0x1848 SWAP1 SWAP2 SWAP1 PUSH4 0xFFFFFFFF AND JUMP JUMPDEST PUSH2 0x122D DUP4 PUSH1 0x80 ADD MLOAD DUP3 PUSH2 0x1911 SWAP1 SWAP2 SWAP1 PUSH4 0xFFFFFFFF AND JUMP JUMPDEST JUMPDEST PUSH1 0x0 DUP4 PUSH1 0xC0 ADD MLOAD MLOAD GT ISZERO PUSH2 0x12EA JUMPI PUSH2 0x1284 PUSH1 0x40 MLOAD DUP1 PUSH1 0x40 ADD PUSH1 0x40 MSTORE DUP1 PUSH1 0x9 DUP2 MSTORE PUSH1 0x20 ADD PUSH32 0x6279746573417267730000000000000000000000000000000000000000000000 DUP2 MSTORE POP DUP3 PUSH2 0x1848 SWAP1 SWAP2 SWAP1 PUSH4 0xFFFFFFFF AND JUMP JUMPDEST PUSH2 0x128D DUP2 PUSH2 0x18C1 JUMP JUMPDEST PUSH1 0x0 JUMPDEST DUP4 PUSH1 0xC0 ADD MLOAD MLOAD DUP2 LT ISZERO PUSH2 0x12DF JUMPI PUSH2 0x12CE DUP5 PUSH1 0xC0 ADD MLOAD DUP3 DUP2 MLOAD DUP2 LT PUSH2 0x12B7 JUMPI PUSH2 0x12B6 PUSH2 0x2440 JUMP JUMPDEST JUMPDEST PUSH1 0x20 MUL PUSH1 0x20 ADD ADD MLOAD DUP4 PUSH2 0x1911 SWAP1 SWAP2 SWAP1 PUSH4 0xFFFFFFFF AND JUMP JUMPDEST DUP1 PUSH2 0x12D8 SWAP1 PUSH2 0x249E JUMP JUMPDEST SWAP1 POP PUSH2 0x1290 JUMP JUMPDEST POP PUSH2 0x12E9 DUP2 PUSH2 0x18E9 JUMP JUMPDEST JUMPDEST DUP1 PUSH1 0x0 ADD MLOAD PUSH1 0x0 ADD MLOAD SWAP2 POP POP SWAP2 SWAP1 POP JUMP JUMPDEST PUSH1 0x0 DUP1 PUSH32 0x0 PUSH20 0xFFFFFFFFFFFFFFFFFFFFFFFFFFFFFFFFFFFFFFFF AND PUSH4 0x461D2762 DUP7 DUP9 PUSH1 0x1 DUP9 DUP9 PUSH1 0x40 MLOAD DUP7 PUSH4 0xFFFFFFFF AND PUSH1 0xE0 SHL DUP2 MSTORE PUSH1 0x4 ADD PUSH2 0x1360 SWAP6 SWAP5 SWAP4 SWAP3 SWAP2 SWAP1 PUSH2 0x2B4B JUMP JUMPDEST PUSH1 0x20 PUSH1 0x40 MLOAD DUP1 DUP4 SUB DUP2 PUSH1 0x0 DUP8 GAS CALL ISZERO DUP1 ISZERO PUSH2 0x137F JUMPI RETURNDATASIZE PUSH1 0x0 DUP1 RETURNDATACOPY RETURNDATASIZE PUSH1 0x0 REVERT JUMPDEST POP POP POP POP PUSH1 0x40 MLOAD RETURNDATASIZE PUSH1 0x1F NOT PUSH1 0x1F DUP3 ADD AND DUP3 ADD DUP1 PUSH1 0x40 MSTORE POP DUP2 ADD SWAP1 PUSH2 0x13A3 SWAP2 SWAP1 PUSH2 0x2BBA JUMP JUMPDEST SWAP1 POP DUP1 PUSH32 0x1131472297A800FEE664D1D89CFA8F7676FF07189ECC53F80BBB5F4969099DB8 PUSH1 0x40 MLOAD PUSH1 0x40 MLOAD DUP1 SWAP2 SUB SWAP1 LOG2 DUP1 SWAP2 POP POP SWAP5 SWAP4 POP POP POP POP JUMP JUMPDEST PUSH1 0x60 PUSH1 0x0 DUP4 SWAP1 POP PUSH1 0x0 PUSH1 0x2 DUP5 PUSH1 0x2 PUSH2 0x13F6 SWAP2 SWAP1 PUSH2 0x2BE7 JUMP JUMPDEST PUSH2 0x1400 SWAP2 SWAP1 PUSH2 0x2C29 JUMP JUMPDEST PUSH8 0xFFFFFFFFFFFFFFFF DUP2 GT ISZERO PUSH2 0x1419 JUMPI PUSH2 0x1418 PUSH2 0x1EEB JUMP JUMPDEST JUMPDEST PUSH1 0x40 MLOAD SWAP1 DUP1 DUP3 MSTORE DUP1 PUSH1 0x1F ADD PUSH1 0x1F NOT AND PUSH1 0x20 ADD DUP3 ADD PUSH1 0x40 MSTORE DUP1 ISZERO PUSH2 0x144B JUMPI DUP2 PUSH1 0x20 ADD PUSH1 0x1 DUP3 MUL DUP1 CALLDATASIZE DUP4 CALLDATACOPY DUP1 DUP3 ADD SWAP2 POP POP SWAP1 POP JUMPDEST POP SWAP1 POP PUSH32 0x3000000000000000000000000000000000000000000000000000000000000000 DUP2 PUSH1 0x0 DUP2 MLOAD DUP2 LT PUSH2 0x1483 JUMPI PUSH2 0x1482 PUSH2 0x2440 JUMP JUMPDEST JUMPDEST PUSH1 0x20 ADD ADD SWAP1 PUSH31 0xFFFFFFFFFFFFFFFFFFFFFFFFFFFFFFFFFFFFFFFFFFFFFFFFFFFFFFFFFFFFFF NOT AND SWAP1 DUP2 PUSH1 0x0 BYTE SWAP1 MSTORE8 POP PUSH32 0x7800000000000000000000000000000000000000000000000000000000000000 DUP2 PUSH1 0x1 DUP2 MLOAD DUP2 LT PUSH2 0x14E7 JUMPI PUSH2 0x14E6 PUSH2 0x2440 JUMP JUMPDEST JUMPDEST PUSH1 0x20 ADD ADD SWAP1 PUSH31 0xFFFFFFFFFFFFFFFFFFFFFFFFFFFFFFFFFFFFFFFFFFFFFFFFFFFFFFFFFFFFFF NOT AND SWAP1 DUP2 PUSH1 0x0 BYTE SWAP1 MSTORE8 POP PUSH1 0x0 PUSH1 0x1 DUP6 PUSH1 0x2 PUSH2 0x1527 SWAP2 SWAP1 PUSH2 0x2BE7 JUMP JUMPDEST PUSH2 0x1531 SWAP2 SWAP1 PUSH2 0x2C29 JUMP JUMPDEST SWAP1 POP JUMPDEST PUSH1 0x1 DUP2 GT ISZERO PUSH2 0x15D1 JUMPI PUSH32 0x3031323334353637383961626364656600000000000000000000000000000000 PUSH1 0xF DUP5 AND PUSH1 0x10 DUP2 LT PUSH2 0x1573 JUMPI PUSH2 0x1572 PUSH2 0x2440 JUMP JUMPDEST JUMPDEST BYTE PUSH1 0xF8 SHL DUP3 DUP3 DUP2 MLOAD DUP2 LT PUSH2 0x158A JUMPI PUSH2 0x1589 PUSH2 0x2440 JUMP JUMPDEST JUMPDEST PUSH1 0x20 ADD ADD SWAP1 PUSH31 0xFFFFFFFFFFFFFFFFFFFFFFFFFFFFFFFFFFFFFFFFFFFFFFFFFFFFFFFFFFFFFF NOT AND SWAP1 DUP2 PUSH1 0x0 BYTE SWAP1 MSTORE8 POP PUSH1 0x4 DUP4 SWAP1 SHR SWAP3 POP DUP1 PUSH2 0x15CA SWAP1 PUSH2 0x2C5D JUMP JUMPDEST SWAP1 POP PUSH2 0x1534 JUMP JUMPDEST POP PUSH1 0x0 DUP3 EQ PUSH2 0x1619 JUMPI DUP5 DUP5 PUSH1 0x40 MLOAD PUSH32 0xE22E27EB00000000000000000000000000000000000000000000000000000000 DUP2 MSTORE PUSH1 0x4 ADD PUSH2 0x1610 SWAP3 SWAP2 SWAP1 PUSH2 0x2C86 JUMP JUMPDEST PUSH1 0x40 MLOAD DUP1 SWAP2 SUB SWAP1 REVERT JUMPDEST DUP1 SWAP3 POP POP POP SWAP3 SWAP2 POP POP JUMP JUMPDEST PUSH1 0x0 DUP1 PUSH1 0x0 SWAP1 POP PUSH27 0x184F03E93FF9F4DAA797ED6E38ED64BF6A1F010000000000000000 DUP4 LT PUSH2 0x1682 JUMPI PUSH27 0x184F03E93FF9F4DAA797ED6E38ED64BF6A1F010000000000000000 DUP4 DUP2 PUSH2 0x1678 JUMPI PUSH2 0x1677 PUSH2 0x2A51 JUMP JUMPDEST JUMPDEST DIV SWAP3 POP PUSH1 0x40 DUP2 ADD SWAP1 POP JUMPDEST PUSH14 0x4EE2D6D415B85ACEF8100000000 DUP4 LT PUSH2 0x16BF JUMPI PUSH14 0x4EE2D6D415B85ACEF8100000000 DUP4 DUP2 PUSH2 0x16B5 JUMPI PUSH2 0x16B4 PUSH2 0x2A51 JUMP JUMPDEST JUMPDEST DIV SWAP3 POP PUSH1 0x20 DUP2 ADD SWAP1 POP JUMPDEST PUSH7 0x2386F26FC10000 DUP4 LT PUSH2 0x16EE JUMPI PUSH7 0x2386F26FC10000 DUP4 DUP2 PUSH2 0x16E4 JUMPI PUSH2 0x16E3 PUSH2 0x2A51 JUMP JUMPDEST JUMPDEST DIV SWAP3 POP PUSH1 0x10 DUP2 ADD SWAP1 POP JUMPDEST PUSH4 0x5F5E100 DUP4 LT PUSH2 0x1717 JUMPI PUSH4 0x5F5E100 DUP4 DUP2 PUSH2 0x170D JUMPI PUSH2 0x170C PUSH2 0x2A51 JUMP JUMPDEST JUMPDEST DIV SWAP3 POP PUSH1 0x8 DUP2 ADD SWAP1 POP JUMPDEST PUSH2 0x2710 DUP4 LT PUSH2 0x173C JUMPI PUSH2 0x2710 DUP4 DUP2 PUSH2 0x1732 JUMPI PUSH2 0x1731 PUSH2 0x2A51 JUMP JUMPDEST JUMPDEST DIV SWAP3 POP PUSH1 0x4 DUP2 ADD SWAP1 POP JUMPDEST PUSH1 0x64 DUP4 LT PUSH2 0x175F JUMPI PUSH1 0x64 DUP4 DUP2 PUSH2 0x1755 JUMPI PUSH2 0x1754 PUSH2 0x2A51 JUMP JUMPDEST JUMPDEST DIV SWAP3 POP PUSH1 0x2 DUP2 ADD SWAP1 POP JUMPDEST PUSH1 0xA DUP4 LT PUSH2 0x176E JUMPI PUSH1 0x1 DUP2 ADD SWAP1 POP JUMPDEST DUP1 SWAP2 POP POP SWAP2 SWAP1 POP JUMP JUMPDEST PUSH1 0x0 DUP2 MLOAD SUB PUSH2 0x17B2 JUMPI PUSH1 0x40 MLOAD PUSH32 0x22CE3EDD00000000000000000000000000000000000000000000000000000000 DUP2 MSTORE PUSH1 0x4 ADD PUSH1 0x40 MLOAD DUP1 SWAP2 SUB SWAP1 REVERT JUMPDEST DUP3 DUP5 PUSH1 0x0 ADD SWAP1 PUSH1 0x2 DUP2 GT ISZERO PUSH2 0x17CA JUMPI PUSH2 0x17C9 PUSH2 0x2AE0 JUMP JUMPDEST JUMPDEST SWAP1 DUP2 PUSH1 0x2 DUP2 GT ISZERO PUSH2 0x17DE JUMPI PUSH2 0x17DD PUSH2 0x2AE0 JUMP JUMPDEST JUMPDEST DUP2 MSTORE POP POP DUP2 DUP5 PUSH1 0x40 ADD SWAP1 PUSH1 0x0 DUP2 GT ISZERO PUSH2 0x17FA JUMPI PUSH2 0x17F9 PUSH2 0x2AE0 JUMP JUMPDEST JUMPDEST SWAP1 DUP2 PUSH1 0x0 DUP2 GT ISZERO PUSH2 0x180E JUMPI PUSH2 0x180D PUSH2 0x2AE0 JUMP JUMPDEST JUMPDEST DUP2 MSTORE POP POP DUP1 DUP5 PUSH1 0x60 ADD DUP2 SWAP1 MSTORE POP POP POP POP POP JUMP JUMPDEST PUSH2 0x1829 PUSH2 0x1E0E JUMP JUMPDEST PUSH2 0x1837 DUP2 PUSH1 0x0 ADD MLOAD DUP4 PUSH2 0x193A JUMP JUMPDEST POP PUSH1 0x0 DUP2 PUSH1 0x20 ADD DUP2 DUP2 MSTORE POP POP SWAP2 SWAP1 POP JUMP JUMPDEST PUSH2 0x1855 DUP3 PUSH1 0x3 DUP4 MLOAD PUSH2 0x19B3 JUMP JUMPDEST PUSH2 0x186C DUP2 DUP4 PUSH1 0x0 ADD MLOAD PUSH2 0x1B5C SWAP1 SWAP2 SWAP1 PUSH4 0xFFFFFFFF AND JUMP JUMPDEST POP POP POP JUMP JUMPDEST PUSH2 0x1893 PUSH1 0x2 PUSH1 0x5 PUSH1 0x6 PUSH1 0xFF AND SWAP1 SHL OR DUP4 PUSH1 0x0 ADD MLOAD PUSH2 0x1B78 SWAP1 SWAP2 SWAP1 PUSH4 0xFFFFFFFF AND JUMP JUMPDEST POP PUSH2 0x18BD DUP3 DUP3 PUSH1 0x40 MLOAD PUSH1 0x20 ADD PUSH2 0x18A9 SWAP2 SWAP1 PUSH2 0x2CAF JUMP JUMPDEST PUSH1 0x40 MLOAD PUSH1 0x20 DUP2 DUP4 SUB SUB DUP2 MSTORE SWAP1 PUSH1 0x40 MSTORE PUSH2 0x1911 JUMP JUMPDEST POP POP JUMP JUMPDEST PUSH2 0x18CC DUP2 PUSH1 0x4 PUSH2 0x1BE2 JUMP JUMPDEST PUSH1 0x1 DUP2 PUSH1 0x20 ADD DUP2 DUP2 MLOAD PUSH2 0x18DF SWAP2 SWAP1 PUSH2 0x2C29 JUMP JUMPDEST SWAP2 POP DUP2 DUP2 MSTORE POP POP POP JUMP JUMPDEST PUSH2 0x18F4 DUP2 PUSH1 0x7 PUSH2 0x1BE2 JUMP JUMPDEST PUSH1 0x1 DUP2 PUSH1 0x20 ADD DUP2 DUP2 MLOAD PUSH2 0x1907 SWAP2 SWAP1 PUSH2 0x2CCA JUMP JUMPDEST SWAP2 POP DUP2 DUP2 MSTORE POP POP POP JUMP JUMPDEST PUSH2 0x191E DUP3 PUSH1 0x2 DUP4 MLOAD PUSH2 0x19B3 JUMP JUMPDEST PUSH2 0x1935 DUP2 DUP4 PUSH1 0x0 ADD MLOAD PUSH2 0x1B5C SWAP1 SWAP2 SWAP1 PUSH4 0xFFFFFFFF AND JUMP JUMPDEST POP POP POP JUMP JUMPDEST PUSH2 0x1942 PUSH2 0x1E2E JUMP JUMPDEST PUSH1 0x0 PUSH1 0x20 DUP4 PUSH2 0x1951 SWAP2 SWAP1 PUSH2 0x2CFE JUMP JUMPDEST EQ PUSH2 0x197D JUMPI PUSH1 0x20 DUP3 PUSH2 0x1963 SWAP2 SWAP1 PUSH2 0x2CFE JUMP JUMPDEST PUSH1 0x20 PUSH2 0x196F SWAP2 SWAP1 PUSH2 0x2CCA JUMP JUMPDEST DUP3 PUSH2 0x197A SWAP2 SWAP1 PUSH2 0x2C29 JUMP JUMPDEST SWAP2 POP JUMPDEST DUP2 DUP4 PUSH1 0x20 ADD DUP2 DUP2 MSTORE POP POP PUSH1 0x40 MLOAD DUP1 DUP5 MSTORE PUSH1 0x0 DUP2 MSTORE DUP3 DUP2 ADD PUSH1 0x20 ADD DUP2 DUP2 LT ISZERO PUSH2 0x19A4 JUMPI PUSH1 0x0 DUP1 REVERT JUMPDEST DUP1 PUSH1 0x40 MSTORE POP POP DUP3 SWAP1 POP SWAP3 SWAP2 POP POP JUMP JUMPDEST PUSH1 0x17 DUP2 PUSH8 0xFFFFFFFFFFFFFFFF AND GT PUSH2 0x19EE JUMPI PUSH2 0x19E8 DUP2 PUSH1 0x5 DUP5 PUSH1 0xFF AND SWAP1 SHL PUSH1 0xFF AND OR DUP5 PUSH1 0x0 ADD MLOAD PUSH2 0x1B78 SWAP1 SWAP2 SWAP1 PUSH4 0xFFFFFFFF AND JUMP JUMPDEST POP PUSH2 0x1B57 JUMP JUMPDEST PUSH1 0xFF DUP2 PUSH8 0xFFFFFFFFFFFFFFFF AND GT PUSH2 0x1A4C JUMPI PUSH2 0x1A21 PUSH1 0x18 PUSH1 0x5 DUP5 PUSH1 0xFF AND SWAP1 SHL OR DUP5 PUSH1 0x0 ADD MLOAD PUSH2 0x1B78 SWAP1 SWAP2 SWAP1 PUSH4 0xFFFFFFFF AND JUMP JUMPDEST POP PUSH2 0x1A46 DUP2 PUSH8 0xFFFFFFFFFFFFFFFF AND PUSH1 0x1 DUP6 PUSH1 0x0 ADD MLOAD PUSH2 0x1C08 SWAP1 SWAP3 SWAP2 SWAP1 PUSH4 0xFFFFFFFF AND JUMP JUMPDEST POP PUSH2 0x1B56 JUMP JUMPDEST PUSH2 0xFFFF DUP2 PUSH8 0xFFFFFFFFFFFFFFFF AND GT PUSH2 0x1AAB JUMPI PUSH2 0x1A80 PUSH1 0x19 PUSH1 0x5 DUP5 PUSH1 0xFF AND SWAP1 SHL OR DUP5 PUSH1 0x0 ADD MLOAD PUSH2 0x1B78 SWAP1 SWAP2 SWAP1 PUSH4 0xFFFFFFFF AND JUMP JUMPDEST POP PUSH2 0x1AA5 DUP2 PUSH8 0xFFFFFFFFFFFFFFFF AND PUSH1 0x2 DUP6 PUSH1 0x0 ADD MLOAD PUSH2 0x1C08 SWAP1 SWAP3 SWAP2 SWAP1 PUSH4 0xFFFFFFFF AND JUMP JUMPDEST POP PUSH2 0x1B55 JUMP JUMPDEST PUSH4 0xFFFFFFFF DUP2 PUSH8 0xFFFFFFFFFFFFFFFF AND GT PUSH2 0x1B0C JUMPI PUSH2 0x1AE1 PUSH1 0x1A PUSH1 0x5 DUP5 PUSH1 0xFF AND SWAP1 SHL OR DUP5 PUSH1 0x0 ADD MLOAD PUSH2 0x1B78 SWAP1 SWAP2 SWAP1 PUSH4 0xFFFFFFFF AND JUMP JUMPDEST POP PUSH2 0x1B06 DUP2 PUSH8 0xFFFFFFFFFFFFFFFF AND PUSH1 0x4 DUP6 PUSH1 0x0 ADD MLOAD PUSH2 0x1C08 SWAP1 SWAP3 SWAP2 SWAP1 PUSH4 0xFFFFFFFF AND JUMP JUMPDEST POP PUSH2 0x1B54 JUMP JUMPDEST PUSH2 0x1B2D PUSH1 0x1B PUSH1 0x5 DUP5 PUSH1 0xFF AND SWAP1 SHL OR DUP5 PUSH1 0x0 ADD MLOAD PUSH2 0x1B78 SWAP1 SWAP2 SWAP1 PUSH4 0xFFFFFFFF AND JUMP JUMPDEST POP PUSH2 0x1B52 DUP2 PUSH8 0xFFFFFFFFFFFFFFFF AND PUSH1 0x8 DUP6 PUSH1 0x0 ADD MLOAD PUSH2 0x1C08 SWAP1 SWAP3 SWAP2 SWAP1 PUSH4 0xFFFFFFFF AND JUMP JUMPDEST POP JUMPDEST JUMPDEST JUMPDEST JUMPDEST POP POP POP JUMP JUMPDEST PUSH2 0x1B64 PUSH2 0x1E2E JUMP JUMPDEST PUSH2 0x1B70 DUP4 DUP4 DUP5 MLOAD PUSH2 0x1C95 JUMP JUMPDEST SWAP1 POP SWAP3 SWAP2 POP POP JUMP JUMPDEST PUSH2 0x1B80 PUSH2 0x1E2E JUMP JUMPDEST PUSH1 0x0 DUP4 PUSH1 0x0 ADD MLOAD MLOAD SWAP1 POP PUSH1 0x0 PUSH1 0x1 DUP3 PUSH2 0x1B99 SWAP2 SWAP1 PUSH2 0x2C29 JUMP JUMPDEST SWAP1 POP DUP5 PUSH1 0x20 ADD MLOAD DUP3 LT PUSH2 0x1BBD JUMPI PUSH2 0x1BBC DUP6 PUSH1 0x2 DUP4 PUSH2 0x1BB7 SWAP2 SWAP1 PUSH2 0x2BE7 JUMP JUMPDEST PUSH2 0x1D78 JUMP JUMPDEST JUMPDEST DUP5 MLOAD PUSH1 0x20 DUP4 DUP3 ADD ADD DUP6 DUP2 MSTORE8 DUP2 MLOAD DUP4 GT ISZERO PUSH2 0x1BD5 JUMPI DUP3 DUP3 MSTORE JUMPDEST POP POP DUP5 SWAP3 POP POP POP SWAP3 SWAP2 POP POP JUMP JUMPDEST PUSH2 0x1C03 PUSH1 0x1F PUSH1 0x5 DUP4 PUSH1 0xFF AND SWAP1 SHL OR DUP4 PUSH1 0x0 ADD MLOAD PUSH2 0x1B78 SWAP1 SWAP2 SWAP1 PUSH4 0xFFFFFFFF AND JUMP JUMPDEST POP POP POP JUMP JUMPDEST PUSH2 0x1C10 PUSH2 0x1E2E JUMP JUMPDEST PUSH1 0x0 DUP5 PUSH1 0x0 ADD MLOAD MLOAD SWAP1 POP PUSH1 0x0 DUP2 DUP5 PUSH2 0x1C28 SWAP2 SWAP1 PUSH2 0x2C29 JUMP JUMPDEST SWAP1 POP DUP6 PUSH1 0x20 ADD MLOAD DUP2 GT ISZERO PUSH2 0x1C4D JUMPI PUSH2 0x1C4C DUP7 PUSH1 0x2 DUP4 PUSH2 0x1C47 SWAP2 SWAP1 PUSH2 0x2BE7 JUMP JUMPDEST PUSH2 0x1D78 JUMP JUMPDEST JUMPDEST PUSH1 0x0 PUSH1 0x1 DUP6 PUSH2 0x100 PUSH2 0x1C5F SWAP2 SWAP1 PUSH2 0x2E62 JUMP JUMPDEST PUSH2 0x1C69 SWAP2 SWAP1 PUSH2 0x2CCA JUMP JUMPDEST SWAP1 POP DUP7 MLOAD DUP3 DUP2 ADD DUP8 DUP4 NOT DUP3 MLOAD AND OR DUP2 MSTORE DUP2 MLOAD DUP5 GT ISZERO PUSH2 0x1C86 JUMPI DUP4 DUP3 MSTORE JUMPDEST POP POP DUP7 SWAP4 POP POP POP POP SWAP4 SWAP3 POP POP POP JUMP JUMPDEST PUSH2 0x1C9D PUSH2 0x1E2E JUMP JUMPDEST DUP3 MLOAD DUP3 GT ISZERO PUSH2 0x1CAB JUMPI PUSH1 0x0 DUP1 REVERT JUMPDEST PUSH1 0x0 DUP5 PUSH1 0x0 ADD MLOAD MLOAD SWAP1 POP PUSH1 0x0 DUP4 DUP3 PUSH2 0x1CC3 SWAP2 SWAP1 PUSH2 0x2C29 JUMP JUMPDEST SWAP1 POP DUP6 PUSH1 0x20 ADD MLOAD DUP2 GT ISZERO PUSH2 0x1CE8 JUMPI PUSH2 0x1CE7 DUP7 PUSH1 0x2 DUP4 PUSH2 0x1CE2 SWAP2 SWAP1 PUSH2 0x2BE7 JUMP JUMPDEST PUSH2 0x1D78 JUMP JUMPDEST JUMPDEST PUSH1 0x0 DUP1 DUP8 MLOAD DUP1 MLOAD DUP6 PUSH1 0x20 DUP4 ADD ADD SWAP4 POP DUP1 DUP6 GT ISZERO PUSH2 0x1D03 JUMPI DUP5 DUP3 MSTORE JUMPDEST PUSH1 0x20 DUP10 ADD SWAP3 POP POP POP JUMPDEST PUSH1 0x20 DUP7 LT PUSH2 0x1D4A JUMPI DUP1 MLOAD DUP3 MSTORE PUSH1 0x20 DUP3 PUSH2 0x1D25 SWAP2 SWAP1 PUSH2 0x2C29 JUMP JUMPDEST SWAP2 POP PUSH1 0x20 DUP2 PUSH2 0x1D34 SWAP2 SWAP1 PUSH2 0x2C29 JUMP JUMPDEST SWAP1 POP PUSH1 0x20 DUP7 PUSH2 0x1D43 SWAP2 SWAP1 PUSH2 0x2CCA JUMP JUMPDEST SWAP6 POP PUSH2 0x1D0C JUMP JUMPDEST PUSH1 0x0 PUSH1 0x1 DUP8 PUSH1 0x20 SUB PUSH2 0x100 EXP SUB SWAP1 POP DUP1 NOT DUP3 MLOAD AND DUP2 DUP5 MLOAD AND DUP2 DUP2 OR DUP6 MSTORE POP POP POP DUP8 SWAP5 POP POP POP POP POP SWAP4 SWAP3 POP POP POP JUMP JUMPDEST PUSH1 0x0 DUP3 PUSH1 0x0 ADD MLOAD SWAP1 POP PUSH2 0x1D8B DUP4 DUP4 PUSH2 0x193A JUMP JUMPDEST POP PUSH2 0x1D96 DUP4 DUP3 PUSH2 0x1B5C JUMP JUMPDEST POP POP POP POP JUMP JUMPDEST PUSH1 0x40 MLOAD DUP1 PUSH1 0xE0 ADD PUSH1 0x40 MSTORE DUP1 PUSH1 0x0 PUSH1 0x2 DUP2 GT ISZERO PUSH2 0x1DBB JUMPI PUSH2 0x1DBA PUSH2 0x2AE0 JUMP JUMPDEST JUMPDEST DUP2 MSTORE PUSH1 0x20 ADD PUSH1 0x0 PUSH1 0x2 DUP2 GT ISZERO PUSH2 0x1DD4 JUMPI PUSH2 0x1DD3 PUSH2 0x2AE0 JUMP JUMPDEST JUMPDEST DUP2 MSTORE PUSH1 0x20 ADD PUSH1 0x0 DUP1 DUP2 GT ISZERO PUSH2 0x1DEC JUMPI PUSH2 0x1DEB PUSH2 0x2AE0 JUMP JUMPDEST JUMPDEST DUP2 MSTORE PUSH1 0x20 ADD PUSH1 0x60 DUP2 MSTORE PUSH1 0x20 ADD PUSH1 0x60 DUP2 MSTORE PUSH1 0x20 ADD PUSH1 0x60 DUP2 MSTORE PUSH1 0x20 ADD PUSH1 0x60 DUP2 MSTORE POP SWAP1 JUMP JUMPDEST PUSH1 0x40 MLOAD DUP1 PUSH1 0x40 ADD PUSH1 0x40 MSTORE DUP1 PUSH2 0x1E21 PUSH2 0x1E2E JUMP JUMPDEST DUP2 MSTORE PUSH1 0x20 ADD PUSH1 0x0 DUP2 MSTORE POP SWAP1 JUMP JUMPDEST PUSH1 0x40 MLOAD DUP1 PUSH1 0x40 ADD PUSH1 0x40 MSTORE DUP1 PUSH1 0x60 DUP2 MSTORE PUSH1 0x20 ADD PUSH1 0x0 DUP2 MSTORE POP SWAP1 JUMP JUMPDEST PUSH1 0x0 PUSH8 0xFFFFFFFFFFFFFFFF DUP3 AND SWAP1 POP SWAP2 SWAP1 POP JUMP JUMPDEST PUSH2 0x1E65 DUP2 PUSH2 0x1E48 JUMP JUMPDEST DUP3 MSTORE POP POP JUMP JUMPDEST PUSH1 0x0 PUSH1 0x20 DUP3 ADD SWAP1 POP PUSH2 0x1E80 PUSH1 0x0 DUP4 ADD DUP5 PUSH2 0x1E5C JUMP JUMPDEST SWAP3 SWAP2 POP POP JUMP JUMPDEST PUSH1 0x0 PUSH1 0x40 MLOAD SWAP1 POP SWAP1 JUMP JUMPDEST PUSH1 0x0 DUP1 REVERT JUMPDEST PUSH1 0x0 DUP1 REVERT JUMPDEST PUSH1 0x0 DUP2 SWAP1 POP SWAP2 SWAP1 POP JUMP JUMPDEST PUSH2 0x1EAD DUP2 PUSH2 0x1E9A JUMP JUMPDEST DUP2 EQ PUSH2 0x1EB8 JUMPI PUSH1 0x0 DUP1 REVERT JUMPDEST POP JUMP JUMPDEST PUSH1 0x0 DUP2 CALLDATALOAD SWAP1 POP PUSH2 0x1ECA DUP2 PUSH2 0x1EA4 JUMP JUMPDEST SWAP3 SWAP2 POP POP JUMP JUMPDEST PUSH1 0x0 DUP1 REVERT JUMPDEST PUSH1 0x0 DUP1 REVERT JUMPDEST PUSH1 0x0 PUSH1 0x1F NOT PUSH1 0x1F DUP4 ADD AND SWAP1 POP SWAP2 SWAP1 POP JUMP JUMPDEST PUSH32 0x4E487B7100000000000000000000000000000000000000000000000000000000 PUSH1 0x0 MSTORE PUSH1 0x41 PUSH1 0x4 MSTORE PUSH1 0x24 PUSH1 0x0 REVERT JUMPDEST PUSH2 0x1F23 DUP3 PUSH2 0x1EDA JUMP JUMPDEST DUP2 ADD DUP2 DUP2 LT PUSH8 0xFFFFFFFFFFFFFFFF DUP3 GT OR ISZERO PUSH2 0x1F42 JUMPI PUSH2 0x1F41 PUSH2 0x1EEB JUMP JUMPDEST JUMPDEST DUP1 PUSH1 0x40 MSTORE POP POP POP JUMP JUMPDEST PUSH1 0x0 PUSH2 0x1F55 PUSH2 0x1E86 JUMP JUMPDEST SWAP1 POP PUSH2 0x1F61 DUP3 DUP3 PUSH2 0x1F1A JUMP JUMPDEST SWAP2 SWAP1 POP JUMP JUMPDEST PUSH1 0x0 PUSH8 0xFFFFFFFFFFFFFFFF DUP3 GT ISZERO PUSH2 0x1F81 JUMPI PUSH2 0x1F80 PUSH2 0x1EEB JUMP JUMPDEST JUMPDEST PUSH2 0x1F8A DUP3 PUSH2 0x1EDA JUMP JUMPDEST SWAP1 POP PUSH1 0x20 DUP2 ADD SWAP1 POP SWAP2 SWAP1 POP JUMP JUMPDEST DUP3 DUP2 DUP4 CALLDATACOPY PUSH1 0x0 DUP4 DUP4 ADD MSTORE POP POP POP JUMP JUMPDEST PUSH1 0x0 PUSH2 0x1FB9 PUSH2 0x1FB4 DUP5 PUSH2 0x1F66 JUMP JUMPDEST PUSH2 0x1F4B JUMP JUMPDEST SWAP1 POP DUP3 DUP2 MSTORE PUSH1 0x20 DUP2 ADD DUP5 DUP5 DUP5 ADD GT ISZERO PUSH2 0x1FD5 JUMPI PUSH2 0x1FD4 PUSH2 0x1ED5 JUMP JUMPDEST JUMPDEST PUSH2 0x1FE0 DUP5 DUP3 DUP6 PUSH2 0x1F97 JUMP JUMPDEST POP SWAP4 SWAP3 POP POP POP JUMP JUMPDEST PUSH1 0x0 DUP3 PUSH1 0x1F DUP4 ADD SLT PUSH2 0x1FFD JUMPI PUSH2 0x1FFC PUSH2 0x1ED0 JUMP JUMPDEST JUMPDEST DUP2 CALLDATALOAD PUSH2 0x200D DUP5 DUP3 PUSH1 0x20 DUP7 ADD PUSH2 0x1FA6 JUMP JUMPDEST SWAP2 POP POP SWAP3 SWAP2 POP POP JUMP JUMPDEST PUSH1 0x0 DUP1 PUSH1 0x0 PUSH1 0x60 DUP5 DUP7 SUB SLT ISZERO PUSH2 0x202F JUMPI PUSH2 0x202E PUSH2 0x1E90 JUMP JUMPDEST JUMPDEST PUSH1 0x0 PUSH2 0x203D DUP7 DUP3 DUP8 ADD PUSH2 0x1EBB JUMP JUMPDEST SWAP4 POP POP PUSH1 0x20 DUP5 ADD CALLDATALOAD PUSH8 0xFFFFFFFFFFFFFFFF DUP2 GT ISZERO PUSH2 0x205E JUMPI PUSH2 0x205D PUSH2 0x1E95 JUMP JUMPDEST JUMPDEST PUSH2 0x206A DUP7 DUP3 DUP8 ADD PUSH2 0x1FE8 JUMP JUMPDEST SWAP3 POP POP PUSH1 0x40 DUP5 ADD CALLDATALOAD PUSH8 0xFFFFFFFFFFFFFFFF DUP2 GT ISZERO PUSH2 0x208B JUMPI PUSH2 0x208A PUSH2 0x1E95 JUMP JUMPDEST JUMPDEST PUSH2 0x2097 DUP7 DUP3 DUP8 ADD PUSH2 0x1FE8 JUMP JUMPDEST SWAP2 POP POP SWAP3 POP SWAP3 POP SWAP3 JUMP JUMPDEST PUSH1 0x0 DUP2 MLOAD SWAP1 POP SWAP2 SWAP1 POP JUMP JUMPDEST PUSH1 0x0 DUP3 DUP3 MSTORE PUSH1 0x20 DUP3 ADD SWAP1 POP SWAP3 SWAP2 POP POP JUMP JUMPDEST PUSH1 0x0 JUMPDEST DUP4 DUP2 LT ISZERO PUSH2 0x20DB JUMPI DUP1 DUP3 ADD MLOAD DUP2 DUP5 ADD MSTORE PUSH1 0x20 DUP2 ADD SWAP1 POP PUSH2 0x20C0 JUMP JUMPDEST PUSH1 0x0 DUP5 DUP5 ADD MSTORE POP POP POP POP JUMP JUMPDEST PUSH1 0x0 PUSH2 0x20F2 DUP3 PUSH2 0x20A1 JUMP JUMPDEST PUSH2 0x20FC DUP2 DUP6 PUSH2 0x20AC JUMP JUMPDEST SWAP4 POP PUSH2 0x210C DUP2 DUP6 PUSH1 0x20 DUP7 ADD PUSH2 0x20BD JUMP JUMPDEST PUSH2 0x2115 DUP2 PUSH2 0x1EDA JUMP JUMPDEST DUP5 ADD SWAP2 POP POP SWAP3 SWAP2 POP POP JUMP JUMPDEST PUSH1 0x0 PUSH1 0x20 DUP3 ADD SWAP1 POP DUP2 DUP2 SUB PUSH1 0x0 DUP4 ADD MSTORE PUSH2 0x213A DUP2 DUP5 PUSH2 0x20E7 JUMP JUMPDEST SWAP1 POP SWAP3 SWAP2 POP POP JUMP JUMPDEST PUSH1 0x0 DUP2 MLOAD SWAP1 POP SWAP2 SWAP1 POP JUMP JUMPDEST PUSH1 0x0 DUP3 DUP3 MSTORE PUSH1 0x20 DUP3 ADD SWAP1 POP SWAP3 SWAP2 POP POP JUMP JUMPDEST PUSH1 0x0 PUSH2 0x2169 DUP3 PUSH2 0x2142 JUMP JUMPDEST PUSH2 0x2173 DUP2 DUP6 PUSH2 0x214D JUMP JUMPDEST SWAP4 POP PUSH2 0x2183 DUP2 DUP6 PUSH1 0x20 DUP7 ADD PUSH2 0x20BD JUMP JUMPDEST PUSH2 0x218C DUP2 PUSH2 0x1EDA JUMP JUMPDEST DUP5 ADD SWAP2 POP POP SWAP3 SWAP2 POP POP JUMP JUMPDEST PUSH1 0x0 PUSH1 0x20 DUP3 ADD SWAP1 POP DUP2 DUP2 SUB PUSH1 0x0 DUP4 ADD MSTORE PUSH2 0x21B1 DUP2 DUP5 PUSH2 0x215E JUMP JUMPDEST SWAP1 POP SWAP3 SWAP2 POP POP JUMP JUMPDEST PUSH1 0x0 DUP2 SWAP1 POP SWAP2 SWAP1 POP JUMP JUMPDEST PUSH2 0x21CC DUP2 PUSH2 0x21B9 JUMP JUMPDEST DUP2 EQ PUSH2 0x21D7 JUMPI PUSH1 0x0 DUP1 REVERT JUMPDEST POP JUMP JUMPDEST PUSH1 0x0 DUP2 CALLDATALOAD SWAP1 POP PUSH2 0x21E9 DUP2 PUSH2 0x21C3 JUMP JUMPDEST SWAP3 SWAP2 POP POP JUMP JUMPDEST PUSH1 0x0 PUSH1 0x20 DUP3 DUP5 SUB SLT ISZERO PUSH2 0x2205 JUMPI PUSH2 0x2204 PUSH2 0x1E90 JUMP JUMPDEST JUMPDEST PUSH1 0x0 PUSH2 0x2213 DUP5 DUP3 DUP6 ADD PUSH2 0x21DA JUMP JUMPDEST SWAP2 POP POP SWAP3 SWAP2 POP POP JUMP JUMPDEST PUSH2 0x2225 DUP2 PUSH2 0x1E9A JUMP JUMPDEST DUP3 MSTORE POP POP JUMP JUMPDEST PUSH1 0x0 PUSH1 0x20 DUP3 ADD SWAP1 POP PUSH2 0x2240 PUSH1 0x0 DUP4 ADD DUP5 PUSH2 0x221C JUMP JUMPDEST SWAP3 SWAP2 POP POP JUMP JUMPDEST PUSH1 0x0 PUSH1 0x20 DUP3 DUP5 SUB SLT ISZERO PUSH2 0x225C JUMPI PUSH2 0x225B PUSH2 0x1E90 JUMP JUMPDEST JUMPDEST PUSH1 0x0 PUSH2 0x226A DUP5 DUP3 DUP6 ADD PUSH2 0x1EBB JUMP JUMPDEST SWAP2 POP POP SWAP3 SWAP2 POP POP JUMP JUMPDEST PUSH1 0x0 DUP2 ISZERO ISZERO SWAP1 POP SWAP2 SWAP1 POP JUMP JUMPDEST PUSH2 0x2288 DUP2 PUSH2 0x2273 JUMP JUMPDEST DUP3 MSTORE POP POP JUMP JUMPDEST PUSH1 0x0 PUSH1 0x80 DUP3 ADD SWAP1 POP PUSH2 0x22A3 PUSH1 0x0 DUP4 ADD DUP8 PUSH2 0x227F JUMP JUMPDEST PUSH2 0x22B0 PUSH1 0x20 DUP4 ADD DUP7 PUSH2 0x227F JUMP JUMPDEST DUP2 DUP2 SUB PUSH1 0x40 DUP4 ADD MSTORE PUSH2 0x22C2 DUP2 DUP6 PUSH2 0x20E7 JUMP JUMPDEST SWAP1 POP DUP2 DUP2 SUB PUSH1 0x60 DUP4 ADD MSTORE PUSH2 0x22D6 DUP2 DUP5 PUSH2 0x20E7 JUMP JUMPDEST SWAP1 POP SWAP6 SWAP5 POP POP POP POP POP JUMP JUMPDEST PUSH1 0x0 DUP1 PUSH1 0x40 DUP4 DUP6 SUB SLT ISZERO PUSH2 0x22F8 JUMPI PUSH2 0x22F7 PUSH2 0x1E90 JUMP JUMPDEST JUMPDEST PUSH1 0x0 PUSH2 0x2306 DUP6 DUP3 DUP7 ADD PUSH2 0x21DA JUMP JUMPDEST SWAP3 POP POP PUSH1 0x20 PUSH2 0x2317 DUP6 DUP3 DUP7 ADD PUSH2 0x21DA JUMP JUMPDEST SWAP2 POP POP SWAP3 POP SWAP3 SWAP1 POP JUMP JUMPDEST PUSH1 0x0 PUSH20 0xFFFFFFFFFFFFFFFFFFFFFFFFFFFFFFFFFFFFFFFF DUP3 AND SWAP1 POP SWAP2 SWAP1 POP JUMP JUMPDEST PUSH1 0x0 PUSH2 0x234C DUP3 PUSH2 0x2321 JUMP JUMPDEST SWAP1 POP SWAP2 SWAP1 POP JUMP JUMPDEST PUSH2 0x235C DUP2 PUSH2 0x2341 JUMP JUMPDEST DUP3 MSTORE POP POP JUMP JUMPDEST PUSH2 0x236B DUP2 PUSH2 0x21B9 JUMP JUMPDEST DUP3 MSTORE POP POP JUMP JUMPDEST PUSH1 0x0 PUSH1 0xE0 DUP3 ADD SWAP1 POP PUSH2 0x2386 PUSH1 0x0 DUP4 ADD DUP11 PUSH2 0x2353 JUMP JUMPDEST PUSH2 0x2393 PUSH1 0x20 DUP4 ADD DUP10 PUSH2 0x2362 JUMP JUMPDEST PUSH2 0x23A0 PUSH1 0x40 DUP4 ADD DUP9 PUSH2 0x2362 JUMP JUMPDEST PUSH2 0x23AD PUSH1 0x60 DUP4 ADD DUP8 PUSH2 0x2362 JUMP JUMPDEST PUSH2 0x23BA PUSH1 0x80 DUP4 ADD DUP7 PUSH2 0x2362 JUMP JUMPDEST PUSH2 0x23C7 PUSH1 0xA0 DUP4 ADD DUP6 PUSH2 0x227F JUMP JUMPDEST PUSH2 0x23D4 PUSH1 0xC0 DUP4 ADD DUP5 PUSH2 0x2362 JUMP JUMPDEST SWAP9 SWAP8 POP POP POP POP POP POP POP POP JUMP JUMPDEST PUSH32 0x4E487B7100000000000000000000000000000000000000000000000000000000 PUSH1 0x0 MSTORE PUSH1 0x22 PUSH1 0x4 MSTORE PUSH1 0x24 PUSH1 0x0 REVERT JUMPDEST PUSH1 0x0 PUSH1 0x2 DUP3 DIV SWAP1 POP PUSH1 0x1 DUP3 AND DUP1 PUSH2 0x2427 JUMPI PUSH1 0x7F DUP3 AND SWAP2 POP JUMPDEST PUSH1 0x20 DUP3 LT DUP2 SUB PUSH2 0x243A JUMPI PUSH2 0x2439 PUSH2 0x23E0 JUMP JUMPDEST JUMPDEST POP SWAP2 SWAP1 POP JUMP JUMPDEST PUSH32 0x4E487B7100000000000000000000000000000000000000000000000000000000 PUSH1 0x0 MSTORE PUSH1 0x32 PUSH1 0x4 MSTORE PUSH1 0x24 PUSH1 0x0 REVERT JUMPDEST PUSH32 0x4E487B7100000000000000000000000000000000000000000000000000000000 PUSH1 0x0 MSTORE PUSH1 0x11 PUSH1 0x4 MSTORE PUSH1 0x24 PUSH1 0x0 REVERT JUMPDEST PUSH1 0x0 PUSH2 0x24A9 DUP3 PUSH2 0x21B9 JUMP JUMPDEST SWAP2 POP PUSH32 0xFFFFFFFFFFFFFFFFFFFFFFFFFFFFFFFFFFFFFFFFFFFFFFFFFFFFFFFFFFFFFFFF DUP3 SUB PUSH2 0x24DB JUMPI PUSH2 0x24DA PUSH2 0x246F JUMP JUMPDEST JUMPDEST PUSH1 0x1 DUP3 ADD SWAP1 POP SWAP2 SWAP1 POP JUMP JUMPDEST PUSH1 0x0 DUP2 SWAP1 POP DUP2 PUSH1 0x0 MSTORE PUSH1 0x20 PUSH1 0x0 KECCAK256 SWAP1 POP SWAP2 SWAP1 POP JUMP JUMPDEST PUSH1 0x0 PUSH1 0x20 PUSH1 0x1F DUP4 ADD DIV SWAP1 POP SWAP2 SWAP1 POP JUMP JUMPDEST PUSH1 0x0 DUP3 DUP3 SHL SWAP1 POP SWAP3 SWAP2 POP POP JUMP JUMPDEST PUSH1 0x0 PUSH1 0x8 DUP4 MUL PUSH2 0x2548 PUSH32 0xFFFFFFFFFFFFFFFFFFFFFFFFFFFFFFFFFFFFFFFFFFFFFFFFFFFFFFFFFFFFFFFF DUP3 PUSH2 0x250B JUMP JUMPDEST PUSH2 0x2552 DUP7 DUP4 PUSH2 0x250B JUMP JUMPDEST SWAP6 POP DUP1 NOT DUP5 AND SWAP4 POP DUP1 DUP7 AND DUP5 OR SWAP3 POP POP POP SWAP4 SWAP3 POP POP POP JUMP JUMPDEST PUSH1 0x0 DUP2 SWAP1 POP SWAP2 SWAP1 POP JUMP JUMPDEST PUSH1 0x0 PUSH2 0x258F PUSH2 0x258A PUSH2 0x2585 DUP5 PUSH2 0x21B9 JUMP JUMPDEST PUSH2 0x256A JUMP JUMPDEST PUSH2 0x21B9 JUMP JUMPDEST SWAP1 POP SWAP2 SWAP1 POP JUMP JUMPDEST PUSH1 0x0 DUP2 SWAP1 POP SWAP2 SWAP1 POP JUMP JUMPDEST PUSH2 0x25A9 DUP4 PUSH2 0x2574 JUMP JUMPDEST PUSH2 0x25BD PUSH2 0x25B5 DUP3 PUSH2 0x2596 JUMP JUMPDEST DUP5 DUP5 SLOAD PUSH2 0x2518 JUMP JUMPDEST DUP3 SSTORE POP POP POP POP JUMP JUMPDEST PUSH1 0x0 SWAP1 JUMP JUMPDEST PUSH2 0x25D2 PUSH2 0x25C5 JUMP JUMPDEST PUSH2 0x25DD DUP2 DUP5 DUP5 PUSH2 0x25A0 JUMP JUMPDEST POP POP POP JUMP JUMPDEST JUMPDEST DUP2 DUP2 LT ISZERO PUSH2 0x2601 JUMPI PUSH2 0x25F6 PUSH1 0x0 DUP3 PUSH2 0x25CA JUMP JUMPDEST PUSH1 0x1 DUP2 ADD SWAP1 POP PUSH2 0x25E3 JUMP JUMPDEST POP POP JUMP JUMPDEST PUSH1 0x1F DUP3 GT ISZERO PUSH2 0x2646 JUMPI PUSH2 0x2617 DUP2 PUSH2 0x24E6 JUMP JUMPDEST PUSH2 0x2620 DUP5 PUSH2 0x24FB JUMP JUMPDEST DUP2 ADD PUSH1 0x20 DUP6 LT ISZERO PUSH2 0x262F JUMPI DUP2 SWAP1 POP JUMPDEST PUSH2 0x2643 PUSH2 0x263B DUP6 PUSH2 0x24FB JUMP JUMPDEST DUP4 ADD DUP3 PUSH2 0x25E2 JUMP JUMPDEST POP POP JUMPDEST POP POP POP JUMP JUMPDEST PUSH1 0x0 DUP3 DUP3 SHR SWAP1 POP SWAP3 SWAP2 POP POP JUMP JUMPDEST PUSH1 0x0 PUSH2 0x2669 PUSH1 0x0 NOT DUP5 PUSH1 0x8 MUL PUSH2 0x264B JUMP JUMPDEST NOT DUP1 DUP4 AND SWAP2 POP POP SWAP3 SWAP2 POP POP JUMP JUMPDEST PUSH1 0x0 PUSH2 0x2682 DUP4 DUP4 PUSH2 0x2658 JUMP JUMPDEST SWAP2 POP DUP3 PUSH1 0x2 MUL DUP3 OR SWAP1 POP SWAP3 SWAP2 POP POP JUMP JUMPDEST PUSH2 0x269B DUP3 PUSH2 0x20A1 JUMP JUMPDEST PUSH8 0xFFFFFFFFFFFFFFFF DUP2 GT ISZERO PUSH2 0x26B4 JUMPI PUSH2 0x26B3 PUSH2 0x1EEB JUMP JUMPDEST JUMPDEST PUSH2 0x26BE DUP3 SLOAD PUSH2 0x240F JUMP JUMPDEST PUSH2 0x26C9 DUP3 DUP3 DUP6 PUSH2 0x2605 JUMP JUMPDEST PUSH1 0x0 PUSH1 0x20 SWAP1 POP PUSH1 0x1F DUP4 GT PUSH1 0x1 DUP2 EQ PUSH2 0x26FC JUMPI PUSH1 0x0 DUP5 ISZERO PUSH2 0x26EA JUMPI DUP3 DUP8 ADD MLOAD SWAP1 POP JUMPDEST PUSH2 0x26F4 DUP6 DUP3 PUSH2 0x2676 JUMP JUMPDEST DUP7 SSTORE POP PUSH2 0x275C JUMP JUMPDEST PUSH1 0x1F NOT DUP5 AND PUSH2 0x270A DUP7 PUSH2 0x24E6 JUMP JUMPDEST PUSH1 0x0 JUMPDEST DUP3 DUP2 LT ISZERO PUSH2 0x2732 JUMPI DUP5 DUP10 ADD MLOAD DUP3 SSTORE PUSH1 0x1 DUP3 ADD SWAP2 POP PUSH1 0x20 DUP6 ADD SWAP5 POP PUSH1 0x20 DUP2 ADD SWAP1 POP PUSH2 0x270D JUMP JUMPDEST DUP7 DUP4 LT ISZERO PUSH2 0x274F JUMPI DUP5 DUP10 ADD MLOAD PUSH2 0x274B PUSH1 0x1F DUP10 AND DUP3 PUSH2 0x2658 JUMP JUMPDEST DUP4 SSTORE POP JUMPDEST PUSH1 0x1 PUSH1 0x2 DUP9 MUL ADD DUP9 SSTORE POP POP POP JUMPDEST POP POP POP POP POP POP JUMP JUMPDEST PUSH32 0x72657175657374206E6F7420666F756E64000000000000000000000000000000 PUSH1 0x0 DUP3 ADD MSTORE POP JUMP JUMPDEST PUSH1 0x0 PUSH2 0x279A PUSH1 0x11 DUP4 PUSH2 0x214D JUMP JUMPDEST SWAP2 POP PUSH2 0x27A5 DUP3 PUSH2 0x2764 JUMP JUMPDEST PUSH1 0x20 DUP3 ADD SWAP1 POP SWAP2 SWAP1 POP JUMP JUMPDEST PUSH1 0x0 PUSH1 0x20 DUP3 ADD SWAP1 POP DUP2 DUP2 SUB PUSH1 0x0 DUP4 ADD MSTORE PUSH2 0x27C9 DUP2 PUSH2 0x278D JUMP JUMPDEST SWAP1 POP SWAP2 SWAP1 POP JUMP JUMPDEST PUSH1 0x0 DUP2 SWAP1 POP DUP2 PUSH1 0x0 MSTORE PUSH1 0x20 PUSH1 0x0 KECCAK256 SWAP1 POP SWAP2 SWAP1 POP JUMP JUMPDEST PUSH1 0x1F DUP3 GT ISZERO PUSH2 0x2826 JUMPI PUSH2 0x27F7 DUP2 PUSH2 0x27D0 JUMP JUMPDEST PUSH2 0x2800 DUP5 PUSH2 0x24FB JUMP JUMPDEST DUP2 ADD PUSH1 0x20 DUP6 LT ISZERO PUSH2 0x280F JUMPI DUP2 SWAP1 POP JUMPDEST PUSH2 0x2823 PUSH2 0x281B DUP6 PUSH2 0x24FB JUMP JUMPDEST DUP4 ADD DUP3 PUSH2 0x25E2 JUMP JUMPDEST POP POP JUMPDEST POP POP POP JUMP JUMPDEST PUSH2 0x2834 DUP3 PUSH2 0x2142 JUMP JUMPDEST PUSH8 0xFFFFFFFFFFFFFFFF DUP2 GT ISZERO PUSH2 0x284D JUMPI PUSH2 0x284C PUSH2 0x1EEB JUMP JUMPDEST JUMPDEST PUSH2 0x2857 DUP3 SLOAD PUSH2 0x240F JUMP JUMPDEST PUSH2 0x2862 DUP3 DUP3 DUP6 PUSH2 0x27E5 JUMP JUMPDEST PUSH1 0x0 PUSH1 0x20 SWAP1 POP PUSH1 0x1F DUP4 GT PUSH1 0x1 DUP2 EQ PUSH2 0x2895 JUMPI PUSH1 0x0 DUP5 ISZERO PUSH2 0x2883 JUMPI DUP3 DUP8 ADD MLOAD SWAP1 POP JUMPDEST PUSH2 0x288D DUP6 DUP3 PUSH2 0x2676 JUMP JUMPDEST DUP7 SSTORE POP PUSH2 0x28F5 JUMP JUMPDEST PUSH1 0x1F NOT DUP5 AND PUSH2 0x28A3 DUP7 PUSH2 0x27D0 JUMP JUMPDEST PUSH1 0x0 JUMPDEST DUP3 DUP2 LT ISZERO PUSH2 0x28CB JUMPI DUP5 DUP10 ADD MLOAD DUP3 SSTORE PUSH1 0x1 DUP3 ADD SWAP2 POP PUSH1 0x20 DUP6 ADD SWAP5 POP PUSH1 0x20 DUP2 ADD SWAP1 POP PUSH2 0x28A6 JUMP JUMPDEST DUP7 DUP4 LT ISZERO PUSH2 0x28E8 JUMPI DUP5 DUP10 ADD MLOAD PUSH2 0x28E4 PUSH1 0x1F DUP10 AND DUP3 PUSH2 0x2658 JUMP JUMPDEST DUP4 SSTORE POP JUMPDEST PUSH1 0x1 PUSH1 0x2 DUP9 MUL ADD DUP9 SSTORE POP POP POP JUMPDEST POP POP POP POP POP POP JUMP JUMPDEST PUSH1 0x0 DUP2 SLOAD PUSH2 0x290A DUP2 PUSH2 0x240F JUMP JUMPDEST PUSH2 0x2914 DUP2 DUP7 PUSH2 0x214D JUMP JUMPDEST SWAP5 POP PUSH1 0x1 DUP3 AND PUSH1 0x0 DUP2 EQ PUSH2 0x292F JUMPI PUSH1 0x1 DUP2 EQ PUSH2 0x2945 JUMPI PUSH2 0x2978 JUMP JUMPDEST PUSH1 0xFF NOT DUP4 AND DUP7 MSTORE DUP2 ISZERO ISZERO PUSH1 0x20 MUL DUP7 ADD SWAP4 POP PUSH2 0x2978 JUMP JUMPDEST PUSH2 0x294E DUP6 PUSH2 0x27D0 JUMP JUMPDEST PUSH1 0x0 JUMPDEST DUP4 DUP2 LT ISZERO PUSH2 0x2970 JUMPI DUP2 SLOAD DUP2 DUP10 ADD MSTORE PUSH1 0x1 DUP3 ADD SWAP2 POP PUSH1 0x20 DUP2 ADD SWAP1 POP PUSH2 0x2951 JUMP JUMPDEST DUP1 DUP9 ADD SWAP6 POP POP POP JUMPDEST POP POP POP SWAP3 SWAP2 POP POP JUMP JUMPDEST PUSH1 0x0 DUP2 SLOAD PUSH2 0x298E DUP2 PUSH2 0x240F JUMP JUMPDEST PUSH2 0x2998 DUP2 DUP7 PUSH2 0x20AC JUMP JUMPDEST SWAP5 POP PUSH1 0x1 DUP3 AND PUSH1 0x0 DUP2 EQ PUSH2 0x29B3 JUMPI PUSH1 0x1 DUP2 EQ PUSH2 0x29C9 JUMPI PUSH2 0x29FC JUMP JUMPDEST PUSH1 0xFF NOT DUP4 AND DUP7 MSTORE DUP2 ISZERO ISZERO PUSH1 0x20 MUL DUP7 ADD SWAP4 POP PUSH2 0x29FC JUMP JUMPDEST PUSH2 0x29D2 DUP6 PUSH2 0x24E6 JUMP JUMPDEST PUSH1 0x0 JUMPDEST DUP4 DUP2 LT ISZERO PUSH2 0x29F4 JUMPI DUP2 SLOAD DUP2 DUP10 ADD MSTORE PUSH1 0x1 DUP3 ADD SWAP2 POP PUSH1 0x20 DUP2 ADD SWAP1 POP PUSH2 0x29D5 JUMP JUMPDEST DUP1 DUP9 ADD SWAP6 POP POP POP JUMPDEST POP POP POP SWAP3 SWAP2 POP POP JUMP JUMPDEST PUSH1 0x0 PUSH1 0x60 DUP3 ADD SWAP1 POP DUP2 DUP2 SUB PUSH1 0x0 DUP4 ADD MSTORE PUSH2 0x2A1F DUP2 DUP7 PUSH2 0x28FD JUMP JUMPDEST SWAP1 POP DUP2 DUP2 SUB PUSH1 0x20 DUP4 ADD MSTORE PUSH2 0x2A33 DUP2 DUP6 PUSH2 0x2981 JUMP JUMPDEST SWAP1 POP DUP2 DUP2 SUB PUSH1 0x40 DUP4 ADD MSTORE PUSH2 0x2A47 DUP2 DUP5 PUSH2 0x2981 JUMP JUMPDEST SWAP1 POP SWAP5 SWAP4 POP POP POP POP JUMP JUMPDEST PUSH32 0x4E487B7100000000000000000000000000000000000000000000000000000000 PUSH1 0x0 MSTORE PUSH1 0x12 PUSH1 0x4 MSTORE PUSH1 0x24 PUSH1 0x0 REVERT JUMPDEST PUSH1 0x0 DUP2 SWAP1 POP SWAP3 SWAP2 POP POP JUMP JUMPDEST PUSH1 0x0 PUSH2 0x2A96 DUP3 PUSH2 0x2142 JUMP JUMPDEST PUSH2 0x2AA0 DUP2 DUP6 PUSH2 0x2A80 JUMP JUMPDEST SWAP4 POP PUSH2 0x2AB0 DUP2 DUP6 PUSH1 0x20 DUP7 ADD PUSH2 0x20BD JUMP JUMPDEST DUP1 DUP5 ADD SWAP2 POP POP SWAP3 SWAP2 POP POP JUMP JUMPDEST PUSH1 0x0 PUSH2 0x2AC8 DUP3 DUP6 PUSH2 0x2A8B JUMP JUMPDEST SWAP2 POP PUSH2 0x2AD4 DUP3 DUP5 PUSH2 0x2A8B JUMP JUMPDEST SWAP2 POP DUP2 SWAP1 POP SWAP4 SWAP3 POP POP POP JUMP JUMPDEST PUSH32 0x4E487B7100000000000000000000000000000000000000000000000000000000 PUSH1 0x0 MSTORE PUSH1 0x21 PUSH1 0x4 MSTORE PUSH1 0x24 PUSH1 0x0 REVERT JUMPDEST PUSH1 0x0 PUSH2 0xFFFF DUP3 AND SWAP1 POP SWAP2 SWAP1 POP JUMP JUMPDEST PUSH2 0x2B26 DUP2 PUSH2 0x2B0F JUMP JUMPDEST DUP3 MSTORE POP POP JUMP JUMPDEST PUSH1 0x0 PUSH4 0xFFFFFFFF DUP3 AND SWAP1 POP SWAP2 SWAP1 POP JUMP JUMPDEST PUSH2 0x2B45 DUP2 PUSH2 0x2B2C JUMP JUMPDEST DUP3 MSTORE POP POP JUMP JUMPDEST PUSH1 0x0 PUSH1 0xA0 DUP3 ADD SWAP1 POP PUSH2 0x2B60 PUSH1 0x0 DUP4 ADD DUP9 PUSH2 0x1E5C JUMP JUMPDEST DUP2 DUP2 SUB PUSH1 0x20 DUP4 ADD MSTORE PUSH2 0x2B72 DUP2 DUP8 PUSH2 0x20E7 JUMP JUMPDEST SWAP1 POP PUSH2 0x2B81 PUSH1 0x40 DUP4 ADD DUP7 PUSH2 0x2B1D JUMP JUMPDEST PUSH2 0x2B8E PUSH1 0x60 DUP4 ADD DUP6 PUSH2 0x2B3C JUMP JUMPDEST PUSH2 0x2B9B PUSH1 0x80 DUP4 ADD DUP5 PUSH2 0x221C JUMP JUMPDEST SWAP7 SWAP6 POP POP POP POP POP POP JUMP JUMPDEST PUSH1 0x0 DUP2 MLOAD SWAP1 POP PUSH2 0x2BB4 DUP2 PUSH2 0x1EA4 JUMP JUMPDEST SWAP3 SWAP2 POP POP JUMP JUMPDEST PUSH1 0x0 PUSH1 0x20 DUP3 DUP5 SUB SLT ISZERO PUSH2 0x2BD0 JUMPI PUSH2 0x2BCF PUSH2 0x1E90 JUMP JUMPDEST JUMPDEST PUSH1 0x0 PUSH2 0x2BDE DUP5 DUP3 DUP6 ADD PUSH2 0x2BA5 JUMP JUMPDEST SWAP2 POP POP SWAP3 SWAP2 POP POP JUMP JUMPDEST PUSH1 0x0 PUSH2 0x2BF2 DUP3 PUSH2 0x21B9 JUMP JUMPDEST SWAP2 POP PUSH2 0x2BFD DUP4 PUSH2 0x21B9 JUMP JUMPDEST SWAP3 POP DUP3 DUP3 MUL PUSH2 0x2C0B DUP2 PUSH2 0x21B9 JUMP JUMPDEST SWAP2 POP DUP3 DUP3 DIV DUP5 EQ DUP4 ISZERO OR PUSH2 0x2C22 JUMPI PUSH2 0x2C21 PUSH2 0x246F JUMP JUMPDEST JUMPDEST POP SWAP3 SWAP2 POP POP JUMP JUMPDEST PUSH1 0x0 PUSH2 0x2C34 DUP3 PUSH2 0x21B9 JUMP JUMPDEST SWAP2 POP PUSH2 0x2C3F DUP4 PUSH2 0x21B9 JUMP JUMPDEST SWAP3 POP DUP3 DUP3 ADD SWAP1 POP DUP1 DUP3 GT ISZERO PUSH2 0x2C57 JUMPI PUSH2 0x2C56 PUSH2 0x246F JUMP JUMPDEST JUMPDEST SWAP3 SWAP2 POP POP JUMP JUMPDEST PUSH1 0x0 PUSH2 0x2C68 DUP3 PUSH2 0x21B9 JUMP JUMPDEST SWAP2 POP PUSH1 0x0 DUP3 SUB PUSH2 0x2C7B JUMPI PUSH2 0x2C7A PUSH2 0x246F JUMP JUMPDEST JUMPDEST PUSH1 0x1 DUP3 SUB SWAP1 POP SWAP2 SWAP1 POP JUMP JUMPDEST PUSH1 0x0 PUSH1 0x40 DUP3 ADD SWAP1 POP PUSH2 0x2C9B PUSH1 0x0 DUP4 ADD DUP6 PUSH2 0x2362 JUMP JUMPDEST PUSH2 0x2CA8 PUSH1 0x20 DUP4 ADD DUP5 PUSH2 0x2362 JUMP JUMPDEST SWAP4 SWAP3 POP POP POP JUMP JUMPDEST PUSH1 0x0 PUSH1 0x20 DUP3 ADD SWAP1 POP PUSH2 0x2CC4 PUSH1 0x0 DUP4 ADD DUP5 PUSH2 0x2362 JUMP JUMPDEST SWAP3 SWAP2 POP POP JUMP JUMPDEST PUSH1 0x0 PUSH2 0x2CD5 DUP3 PUSH2 0x21B9 JUMP JUMPDEST SWAP2 POP PUSH2 0x2CE0 DUP4 PUSH2 0x21B9 JUMP JUMPDEST SWAP3 POP DUP3 DUP3 SUB SWAP1 POP DUP2 DUP2 GT ISZERO PUSH2 0x2CF8 JUMPI PUSH2 0x2CF7 PUSH2 0x246F JUMP JUMPDEST JUMPDEST SWAP3 SWAP2 POP POP JUMP JUMPDEST PUSH1 0x0 PUSH2 0x2D09 DUP3 PUSH2 0x21B9 JUMP JUMPDEST SWAP2 POP PUSH2 0x2D14 DUP4 PUSH2 0x21B9 JUMP JUMPDEST SWAP3 POP DUP3 PUSH2 0x2D24 JUMPI PUSH2 0x2D23 PUSH2 0x2A51 JUMP JUMPDEST JUMPDEST DUP3 DUP3 MOD SWAP1 POP SWAP3 SWAP2 POP POP JUMP JUMPDEST PUSH1 0x0 DUP2 PUSH1 0x1 SHR SWAP1 POP SWAP2 SWAP1 POP JUMP JUMPDEST PUSH1 0x0 DUP1 DUP3 SWAP2 POP DUP4 SWAP1 POP JUMPDEST PUSH1 0x1 DUP6 GT ISZERO PUSH2 0x2D86 JUMPI DUP1 DUP7 DIV DUP2 GT ISZERO PUSH2 0x2D62 JUMPI PUSH2 0x2D61 PUSH2 0x246F JUMP JUMPDEST JUMPDEST PUSH1 0x1 DUP6 AND ISZERO PUSH2 0x2D71 JUMPI DUP1 DUP3 MUL SWAP2 POP JUMPDEST DUP1 DUP2 MUL SWAP1 POP PUSH2 0x2D7F DUP6 PUSH2 0x2D2F JUMP JUMPDEST SWAP5 POP PUSH2 0x2D46 JUMP JUMPDEST SWAP5 POP SWAP5 SWAP3 POP POP POP JUMP JUMPDEST PUSH1 0x0 DUP3 PUSH2 0x2D9F JUMPI PUSH1 0x1 SWAP1 POP PUSH2 0x2E5B JUMP JUMPDEST DUP2 PUSH2 0x2DAD JUMPI PUSH1 0x0 SWAP1 POP PUSH2 0x2E5B JUMP JUMPDEST DUP2 PUSH1 0x1 DUP2 EQ PUSH2 0x2DC3 JUMPI PUSH1 0x2 DUP2 EQ PUSH2 0x2DCD JUMPI PUSH2 0x2DFC JUMP JUMPDEST PUSH1 0x1 SWAP2 POP POP PUSH2 0x2E5B JUMP JUMPDEST PUSH1 0xFF DUP5 GT ISZERO PUSH2 0x2DDF JUMPI PUSH2 0x2DDE PUSH2 0x246F JUMP JUMPDEST JUMPDEST DUP4 PUSH1 0x2 EXP SWAP2 POP DUP5 DUP3 GT ISZERO PUSH2 0x2DF6 JUMPI PUSH2 0x2DF5 PUSH2 0x246F JUMP JUMPDEST JUMPDEST POP PUSH2 0x2E5B JUMP JUMPDEST POP PUSH1 0x20 DUP4 LT PUSH2 0x133 DUP4 LT AND PUSH1 0x4E DUP5 LT PUSH1 0xB DUP5 LT AND OR ISZERO PUSH2 0x2E31 JUMPI DUP3 DUP3 EXP SWAP1 POP DUP4 DUP2 GT ISZERO PUSH2 0x2E2C JUMPI PUSH2 0x2E2B PUSH2 0x246F JUMP JUMPDEST JUMPDEST PUSH2 0x2E5B JUMP JUMPDEST PUSH2 0x2E3E DUP5 DUP5 DUP5 PUSH1 0x1 PUSH2 0x2D3C JUMP JUMPDEST SWAP3 POP SWAP1 POP DUP2 DUP5 DIV DUP2 GT ISZERO PUSH2 0x2E55 JUMPI PUSH2 0x2E54 PUSH2 0x246F JUMP JUMPDEST JUMPDEST DUP2 DUP2 MUL SWAP1 POP JUMPDEST SWAP4 SWAP3 POP POP POP JUMP JUMPDEST PUSH1 0x0 PUSH2 0x2E6D DUP3 PUSH2 0x21B9 JUMP JUMPDEST SWAP2 POP PUSH2 0x2E78 DUP4 PUSH2 0x21B9 JUMP JUMPDEST SWAP3 POP PUSH2 0x2EA5 PUSH32 0xFFFFFFFFFFFFFFFFFFFFFFFFFFFFFFFFFFFFFFFFFFFFFFFFFFFFFFFFFFFFFFFF DUP5 DUP5 PUSH2 0x2D8F JUMP JUMPDEST SWAP1 POP SWAP3 SWAP2 POP POP JUMP INVALID LOG2 PUSH5 0x6970667358 0x22 SLT KECCAK256 0xAA MSTORE 0xAE MSIZE 0xAE 0x24 0x5C 0xB9 CREATE2 SWAP13 0xC9 0xA9 DUP8 0xEA DUP3 0xAB DUP2 0x2F SWAP13 SWAP5 0xB1 0xC2 SWAP16 0x1F MULMOD PUSH31 0x2B089487DA6E64736F6C63430008130033636F6E737420656E65726779436F PUSH15 0x747261637473203D20617267735B30 0x5D EXTCODESIZE PUSH4 0x6F6E7374 KECCAK256 PUSH2 0x7069 MSTORE PUSH6 0x73706F6E7365 KECCAK256 RETURNDATASIZE KECCAK256 PUSH2 0x7761 PUSH10 0x742046756E6374696F6E PUSH20 0x2E6D616B654874747052657175657374287B7572 PUSH13 0x3A206068747470733A2F2F7774 PUSH21 0x722E696E2F3F636F6E7472616374733D7B656E6572 PUSH8 0x79436F6E74726163 PUSH21 0x737D602C726573706F6E7365547970653A20277465 PUSH25 0x74277D293B69662028617069526573706F6E73652E6572726F PUSH19 0x29207B7468726F77204572726F722827526571 PUSH22 0x657374206661696C656427293B7D636F6E7374207B20 PUSH5 0x617461207D KECCAK256 RETURNDATASIZE KECCAK256 PUSH2 0x7069 MSTORE PUSH6 0x73706F6E7365 EXTCODESIZE PUSH13 0x6574206E657744617461203D20 0x4A MSTORE8 0x4F 0x4E 0x2E PUSH20 0x7472696E6769667928646174612972657475726E KECCAK256 CHAINID PUSH22 0x6E6374696F6E732E656E636F6465537472696E67286E PUSH6 0x774461746129 EXTCODESIZE "},"methodIdentifiers":{"getAllMeanPrice(uint256,uint256)":"d483337d","handleOracleFulfillment(bytes32,bytes,bytes)":"0ca76175","lastError()":"29f0de3f","lastRequestId()":"fc2a88c3","lastResponse()":"62747e42","localToContract(uint256,uint256)":"f3de41ad","requestIds(uint256)":"8796ba8c","requests(bytes32)":"9d866985","source()":"67e828bf","subscriptionId()":"09c1ba2e"}}}}}