{"contracts/BaoEnergy.sol":{"BaoEnergy":{"abi":[{"inputs":[{"internalType":"uint64","name":"functionsSubscriptionId","type":"uint64"}],"stateMutability":"nonpayable","type":"constructor"},{"inputs":[],"name":"EmptyArgs","type":"error"},{"inputs":[],"name":"EmptySource","type":"error"},{"inputs":[],"name":"NoInlineSecrets","type":"error"},{"inputs":[],"name":"OnlyRouterCanFulfill","type":"error"},{"inputs":[{"internalType":"uint256","name":"value","type":"uint256"},{"internalType":"uint256","name":"length","type":"uint256"}],"name":"StringsInsufficientHexLength","type":"error"},{"anonymous":false,"inputs":[{"indexed":true,"internalType":"bytes32","name":"id","type":"bytes32"}],"name":"RequestFulfilled","type":"event"},{"anonymous":false,"inputs":[{"indexed":true,"internalType":"bytes32","name":"id","type":"bytes32"}],"name":"RequestSent","type":"event"},{"anonymous":false,"inputs":[{"indexed":true,"internalType":"bytes32","name":"requestId","type":"bytes32"},{"indexed":false,"internalType":"string","name":"averagePrice","type":"string"},{"indexed":false,"internalType":"bytes","name":"response","type":"bytes"},{"indexed":false,"internalType":"bytes","name":"err","type":"bytes"}],"name":"Response","type":"event"},{"anonymous":false,"inputs":[{"indexed":true,"internalType":"uint256","name":"_id","type":"uint256"},{"indexed":false,"internalType":"bool","name":"_decision","type":"bool"}],"name":"answeredPropose","type":"event"},{"anonymous":false,"inputs":[{"indexed":true,"internalType":"address","name":"consumer","type":"address"}],"name":"newConsumerRegistered","type":"event"},{"anonymous":false,"inputs":[{"indexed":true,"internalType":"address","name":"_distributor","type":"address"}],"name":"newDistributorAdded","type":"event"},{"anonymous":false,"inputs":[{"indexed":true,"internalType":"address","name":"_distributor","type":"address"}],"name":"newProposeAdded","type":"event"},{"inputs":[{"internalType":"uint256","name":"_cnpj","type":"uint256"},{"internalType":"uint256","name":"_pricePerMonthKWH","type":"uint256"},{"internalType":"uint256","name":"_localId","type":"uint256"}],"name":"addDistributor","outputs":[],"stateMutability":"nonpayable","type":"function"},{"inputs":[{"internalType":"uint256","name":"_energyConsume","type":"uint256"},{"internalType":"uint256","name":"_pricePerMonth","type":"uint256"},{"internalType":"address","name":"_distributor","type":"address"},{"internalType":"uint256","name":"_localId","type":"uint256"}],"name":"addPropose","outputs":[],"stateMutability":"nonpayable","type":"function"},{"inputs":[{"internalType":"uint256","name":"_id","type":"uint256"},{"internalType":"bool","name":"_decision","type":"bool"}],"name":"answerPropose","outputs":[],"stateMutability":"nonpayable","type":"function"},{"inputs":[{"internalType":"uint256","name":"_localId","type":"uint256"}],"name":"bestOptions","outputs":[{"components":[{"internalType":"uint256","name":"cnpj","type":"uint256"},{"internalType":"uint256","name":"pricePerMonthKWH","type":"uint256"},{"internalType":"uint256","name":"localId","type":"uint256"},{"internalType":"bool","name":"active","type":"bool"}],"internalType":"struct BaoEnergy.Distributor[]","name":"","type":"tuple[]"}],"stateMutability":"view","type":"function"},{"inputs":[{"internalType":"address","name":"","type":"address"}],"name":"consumerToUserContract","outputs":[{"internalType":"address","name":"consumer","type":"address"},{"internalType":"uint256","name":"energyConsume","type":"uint256"},{"internalType":"uint256","name":"pricePerMonth","type":"uint256"},{"internalType":"uint256","name":"timeStamp","type":"uint256"},{"internalType":"uint256","name":"localId","type":"uint256"},{"internalType":"bool","name":"active","type":"bool"},{"internalType":"uint256","name":"contractDeadLine","type":"uint256"}],"stateMutability":"view","type":"function"},{"inputs":[{"internalType":"address","name":"","type":"address"}],"name":"consumers","outputs":[{"internalType":"bool","name":"isMemberOfFreeEnergyMarket","type":"bool"},{"internalType":"uint256","name":"cnpj","type":"uint256"},{"internalType":"uint256","name":"localId","type":"uint256"},{"internalType":"bool","name":"active","type":"bool"}],"stateMutability":"view","type":"function"},{"inputs":[{"internalType":"address","name":"","type":"address"}],"name":"distributors","outputs":[{"internalType":"uint256","name":"cnpj","type":"uint256"},{"internalType":"uint256","name":"pricePerMonthKWH","type":"uint256"},{"internalType":"uint256","name":"localId","type":"uint256"},{"internalType":"bool","name":"active","type":"bool"}],"stateMutability":"view","type":"function"},{"inputs":[{"internalType":"uint256","name":"_localId","type":"uint256"},{"internalType":"uint256","name":"_index","type":"uint256"}],"name":"getAllMeanPrice","outputs":[{"internalType":"bytes32","name":"","type":"bytes32"}],"stateMutability":"nonpayable","type":"function"},{"inputs":[],"name":"getProposes","outputs":[{"components":[{"components":[{"internalType":"address","name":"consumer","type":"address"},{"internalType":"uint256","name":"energyConsume","type":"uint256"},{"internalType":"uint256","name":"pricePerMonth","type":"uint256"},{"internalType":"uint256","name":"timeStamp","type":"uint256"},{"internalType":"uint256","name":"localId","type":"uint256"},{"internalType":"bool","name":"active","type":"bool"},{"internalType":"uint256","name":"contractDeadLine","type":"uint256"}],"internalType":"struct BaoFunction.UserContract","name":"userContract","type":"tuple"},{"internalType":"address","name":"distributor","type":"address"},{"internalType":"address","name":"consumer","type":"address"},{"internalType":"bool","name":"answered","type":"bool"}],"internalType":"struct BaoEnergy.Propose[]","name":"","type":"tuple[]"}],"stateMutability":"view","type":"function"},{"inputs":[{"internalType":"bytes32","name":"requestId","type":"bytes32"},{"internalType":"bytes","name":"response","type":"bytes"},{"internalType":"bytes","name":"err","type":"bytes"}],"name":"handleOracleFulfillment","outputs":[],"stateMutability":"nonpayable","type":"function"},{"inputs":[],"name":"lastError","outputs":[{"internalType":"bytes","name":"","type":"bytes"}],"stateMutability":"view","type":"function"},{"inputs":[],"name":"lastRequestId","outputs":[{"internalType":"bytes32","name":"","type":"bytes32"}],"stateMutability":"view","type":"function"},{"inputs":[],"name":"lastResponse","outputs":[{"internalType":"bytes","name":"","type":"bytes"}],"stateMutability":"view","type":"function"},{"inputs":[{"internalType":"uint256","name":"","type":"uint256"},{"internalType":"uint256","name":"","type":"uint256"}],"name":"localIdToDistributors","outputs":[{"internalType":"uint256","name":"cnpj","type":"uint256"},{"internalType":"uint256","name":"pricePerMonthKWH","type":"uint256"},{"internalType":"uint256","name":"localId","type":"uint256"},{"internalType":"bool","name":"active","type":"bool"}],"stateMutability":"view","type":"function"},{"inputs":[{"internalType":"uint256","name":"","type":"uint256"},{"internalType":"uint256","name":"","type":"uint256"}],"name":"localToContract","outputs":[{"internalType":"address","name":"consumer","type":"address"},{"internalType":"uint256","name":"energyConsume","type":"uint256"},{"internalType":"uint256","name":"pricePerMonth","type":"uint256"},{"internalType":"uint256","name":"timeStamp","type":"uint256"},{"internalType":"uint256","name":"localId","type":"uint256"},{"internalType":"bool","name":"active","type":"bool"},{"internalType":"uint256","name":"contractDeadLine","type":"uint256"}],"stateMutability":"view","type":"function"},{"inputs":[{"internalType":"address","name":"","type":"address"},{"internalType":"uint256","name":"","type":"uint256"}],"name":"proposes","outputs":[{"components":[{"internalType":"address","name":"consumer","type":"address"},{"internalType":"uint256","name":"energyConsume","type":"uint256"},{"internalType":"uint256","name":"pricePerMonth","type":"uint256"},{"internalType":"uint256","name":"timeStamp","type":"uint256"},{"internalType":"uint256","name":"localId","type":"uint256"},{"internalType":"bool","name":"active","type":"bool"},{"internalType":"uint256","name":"contractDeadLine","type":"uint256"}],"internalType":"struct BaoFunction.UserContract","name":"userContract","type":"tuple"},{"internalType":"address","name":"distributor","type":"address"},{"internalType":"address","name":"consumer","type":"address"},{"internalType":"bool","name":"answered","type":"bool"}],"stateMutability":"view","type":"function"},{"inputs":[{"internalType":"uint256","name":"_cnpj","type":"uint256"},{"internalType":"uint256","name":"_localId","type":"uint256"},{"internalType":"bool","name":"_isMemberOfFreeEnergyMarket","type":"bool"}],"name":"registerConsumer","outputs":[],"stateMutability":"nonpayable","type":"function"},{"inputs":[{"internalType":"uint256","name":"","type":"uint256"}],"name":"requestIds","outputs":[{"internalType":"bytes32","name":"","type":"bytes32"}],"stateMutability":"view","type":"function"},{"inputs":[{"internalType":"bytes32","name":"","type":"bytes32"}],"name":"requests","outputs":[{"internalType":"bool","name":"fulfilled","type":"bool"},{"internalType":"bool","name":"exists","type":"bool"},{"internalType":"bytes","name":"response","type":"bytes"},{"internalType":"bytes","name":"err","type":"bytes"}],"stateMutability":"view","type":"function"},{"inputs":[],"name":"source","outputs":[{"internalType":"string","name":"","type":"string"}],"stateMutability":"view","type":"function"},{"inputs":[],"name":"subscriptionId","outputs":[{"internalType":"uint64","name":"","type":"uint64"}],"stateMutability":"view","type":"function"}],"evm":{"bytecode":{"linkReferences":{},"object":"60a060405273b83e47c2bc239b3bf370bc41e1459a34b41238d0600760006101000a81548173ffffffffffffffffffffffffffffffffffffffff021916908373ffffffffffffffffffffffffffffffffffffffff1602179055507f66756e2d657468657265756d2d7365706f6c69612d310000000000000000000060001b600855620493e0600960006101000a81548163ffffffff021916908363ffffffff16021790555060405180610160016040528061013d8152602001620050ef61013d9139600a9081620000d1919062000409565b50348015620000df57600080fd5b506040516200522c3803806200522c83398181016040528101906200010591906200053a565b80600760009054906101000a900473ffffffffffffffffffffffffffffffffffffffff168073ffffffffffffffffffffffffffffffffffffffff1660808173ffffffffffffffffffffffffffffffffffffffff16815250505080600960046101000a81548167ffffffffffffffff021916908367ffffffffffffffff16021790555050506200056c565b600081519050919050565b7f4e487b7100000000000000000000000000000000000000000000000000000000600052604160045260246000fd5b7f4e487b7100000000000000000000000000000000000000000000000000000000600052602260045260246000fd5b600060028204905060018216806200021157607f821691505b602082108103620002275762000226620001c9565b5b50919050565b60008190508160005260206000209050919050565b60006020601f8301049050919050565b600082821b905092915050565b600060088302620002917fffffffffffffffffffffffffffffffffffffffffffffffffffffffffffffffff8262000252565b6200029d868362000252565b95508019841693508086168417925050509392505050565b6000819050919050565b6000819050919050565b6000620002ea620002e4620002de84620002b5565b620002bf565b620002b5565b9050919050565b6000819050919050565b6200030683620002c9565b6200031e6200031582620002f1565b8484546200025f565b825550505050565b600090565b6200033562000326565b62000342818484620002fb565b505050565b5b818110156200036a576200035e6000826200032b565b60018101905062000348565b5050565b601f821115620003b95762000383816200022d565b6200038e8462000242565b810160208510156200039e578190505b620003b6620003ad8562000242565b83018262000347565b50505b505050565b600082821c905092915050565b6000620003de60001984600802620003be565b1980831691505092915050565b6000620003f98383620003cb565b9150826002028217905092915050565b62000414826200018f565b67ffffffffffffffff81111562000430576200042f6200019a565b5b6200043c8254620001f8565b620004498282856200036e565b600060209050601f8311600181146200048157600084156200046c578287015190505b620004788582620003eb565b865550620004e8565b601f19841662000491866200022d565b60005b82811015620004bb5784890151825560018201915060208501945060208101905062000494565b86831015620004db5784890151620004d7601f891682620003cb565b8355505b6001600288020188555050505b505050505050565b600080fd5b600067ffffffffffffffff82169050919050565b6200051481620004f5565b81146200052057600080fd5b50565b600081519050620005348162000509565b92915050565b600060208284031215620005535762000552620004f0565b5b6000620005638482850162000523565b91505092915050565b608051614b606200058f6000396000818161054c01526126720152614b606000f3fe608060405234801561001057600080fd5b50600436106101375760003560e01c80636d37a202116100b8578063c2729bfb1161007c578063c2729bfb14610386578063cc642784146103a2578063d3e64ffa146103d5578063d483337d146103f3578063f3de41ad14610423578063fc2a88c31461045957610137565b80636d37a202146102a45780637c732f85146102d45780638796ba8c146102f05780639af96a73146103205780639d8669851461035357610137565b80632e8376dc116100ff5780632e8376dc146101fd5780632eafc9051461021957806362747e4214610235578063642cb0911461025357806367e828bf1461028657610137565b806305ef317a1461013c57806309c1ba2e146101725780630bf53668146101905780630ca76175146101c357806329f0de3f146101df575b600080fd5b6101566004803603810190610151919061322c565b610477565b604051610169979695949392919061329c565b60405180910390f35b61017a6104e6565b604051610187919061332e565b60405180910390f35b6101aa60048036038101906101a5919061322c565b610500565b6040516101ba9493929190613349565b60405180910390f35b6101dd60048036038101906101d8919061350a565b61054a565b005b6101e761060c565b6040516101f49190613614565b60405180910390f35b61021760048036038101906102129190613662565b61069a565b005b610233600480360381019061022e91906136b5565b610899565b005b61023d610c71565b60405161024a9190613614565b60405180910390f35b61026d6004803603810190610268919061371c565b610cff565b60405161027d9493929190613817565b60405180910390f35b61028e610e46565b60405161029b91906138b4565b60405180910390f35b6102be60048036038101906102b991906138d6565b610ed4565b6040516102cb9190613a07565b60405180910390f35b6102ee60048036038101906102e99190613a55565b610f7f565b005b61030a600480360381019061030591906138d6565b611119565b6040516103179190613ab7565b60405180910390f35b61033a60048036038101906103359190613ad2565b61113d565b60405161034a9493929190613b12565b60405180910390f35b61036d60048036038101906103689190613b57565b611197565b60405161037d9493929190613b84565b60405180910390f35b6103a0600480360381019061039b9190613bd7565b6112f1565b005b6103bc60048036038101906103b7919061322c565b61173d565b6040516103cc9493929190613b12565b60405180910390f35b6103dd61177a565b6040516103ea9190613dad565b60405180910390f35b61040d60048036038101906104089190613ad2565b611994565b60405161041a9190613ab7565b60405180910390f35b61043d60048036038101906104389190613ad2565b611ef1565b604051610450979695949392919061329c565b60405180910390f35b610461611f7d565b60405161046e9190613ab7565b60405180910390f35b600f6020528060005260406000206000915090508060000160009054906101000a900473ffffffffffffffffffffffffffffffffffffffff16908060010154908060020154908060030154908060040154908060050160009054906101000a900460ff16908060060154905087565b600960049054906101000a900467ffffffffffffffff1681565b600c6020528060005260406000206000915090508060000160009054906101000a900460ff16908060010154908060020154908060030160009054906101000a900460ff16905084565b7f000000000000000000000000000000000000000000000000000000000000000073ffffffffffffffffffffffffffffffffffffffff163373ffffffffffffffffffffffffffffffffffffffff16146105cf576040517fc6829f8300000000000000000000000000000000000000000000000000000000815260040160405180910390fd5b6105da838383611f83565b827f85e1543bf2f84fe80c6badbce3648c8539ad1df4d2b3d822938ca0538be727e660405160405180910390a2505050565b6004805461061990613dfe565b80601f016020809104026020016040519081016040528092919081815260200182805461064590613dfe565b80156106925780601f1061066757610100808354040283529160200191610692565b820191906000526020600020905b81548152906001019060200180831161067557829003601f168201915b505050505081565b600c60003373ffffffffffffffffffffffffffffffffffffffff1673ffffffffffffffffffffffffffffffffffffffff16815260200190815260200160002060030160009054906101000a900460ff161561072a576040517f08c379a000000000000000000000000000000000000000000000000000000000815260040161072190613ea1565b60405180910390fd5b60006040518060800160405280858152602001848152602001838152602001600115158152509050600d600083815260200190815260200160002081908060018154018082558091505060019003906000526020600020906004020160009091909190915060008201518160000155602082015181600101556040820151816002015560608201518160030160006101000a81548160ff021916908315150217905550505080600e60003373ffffffffffffffffffffffffffffffffffffffff1673ffffffffffffffffffffffffffffffffffffffff16815260200190815260200160002060008201518160000155602082015181600101556040820151816002015560608201518160030160006101000a81548160ff0219169083151502179055509050503373ffffffffffffffffffffffffffffffffffffffff167f539fce68fd46dd4d63494ec1197510a27bfb96eb9b09f050eec103bbdf2b315b60405160405180910390a250505050565b600c60003373ffffffffffffffffffffffffffffffffffffffff1673ffffffffffffffffffffffffffffffffffffffff16815260200190815260200160002060030160009054906101000a900460ff16610928576040517f08c379a000000000000000000000000000000000000000000000000000000000815260040161091f90613f0d565b60405180910390fd5b600e60008373ffffffffffffffffffffffffffffffffffffffff1673ffffffffffffffffffffffffffffffffffffffff16815260200190815260200160002060030160009054906101000a900460ff166109b7576040517f08c379a00000000000000000000000000000000000000000000000000000000081526004016109ae90613f9f565b60405180910390fd5b60006040518060e001604052803373ffffffffffffffffffffffffffffffffffffffff16815260200186815260200185815260200142815260200183815260200160011515815260200162278d0042610a109190613fee565b8152509050600060405180608001604052808381526020013373ffffffffffffffffffffffffffffffffffffffff1681526020018573ffffffffffffffffffffffffffffffffffffffff168152602001600015158152509050600b60008573ffffffffffffffffffffffffffffffffffffffff1673ffffffffffffffffffffffffffffffffffffffff16815260200190815260200160002081908060018154018082558091505060019003906000526020600020906009020160009091909190915060008201518160000160008201518160000160006101000a81548173ffffffffffffffffffffffffffffffffffffffff021916908373ffffffffffffffffffffffffffffffffffffffff1602179055506020820151816001015560408201518160020155606082015181600301556080820151816004015560a08201518160050160006101000a81548160ff02191690831515021790555060c08201518160060155505060208201518160070160006101000a81548173ffffffffffffffffffffffffffffffffffffffff021916908373ffffffffffffffffffffffffffffffffffffffff16021790555060408201518160080160006101000a81548173ffffffffffffffffffffffffffffffffffffffff021916908373ffffffffffffffffffffffffffffffffffffffff16021790555060608201518160080160146101000a81548160ff02191690831515021790555050508373ffffffffffffffffffffffffffffffffffffffff167f0d7314c5e85e24751b97c4af5bf2002b2fc093e77d2d0a27785467743c21a17660405160405180910390a2505050505050565b60038054610c7e90613dfe565b80601f0160208091040260200160405190810160405280929190818152602001828054610caa90613dfe565b8015610cf75780601f10610ccc57610100808354040283529160200191610cf7565b820191906000526020600020905b815481529060010190602001808311610cda57829003601f168201915b505050505081565b600b6020528160005260406000208181548110610d1b57600080fd5b906000526020600020906009020160009150915050806000016040518060e00160405290816000820160009054906101000a900473ffffffffffffffffffffffffffffffffffffffff1673ffffffffffffffffffffffffffffffffffffffff1673ffffffffffffffffffffffffffffffffffffffff168152602001600182015481526020016002820154815260200160038201548152602001600482015481526020016005820160009054906101000a900460ff16151515158152602001600682015481525050908060070160009054906101000a900473ffffffffffffffffffffffffffffffffffffffff16908060080160009054906101000a900473ffffffffffffffffffffffffffffffffffffffff16908060080160149054906101000a900460ff16905084565b600a8054610e5390613dfe565b80601f0160208091040260200160405190810160405280929190818152602001828054610e7f90613dfe565b8015610ecc5780601f10610ea157610100808354040283529160200191610ecc565b820191906000526020600020905b815481529060010190602001808311610eaf57829003601f168201915b505050505081565b6060600d6000838152602001908152602001600020805480602002602001604051908101604052809291908181526020016000905b82821015610f7457838290600052602060002090600402016040518060800160405290816000820154815260200160018201548152602001600282015481526020016003820160009054906101000a900460ff16151515158152505081526020019060010190610f09565b505050509050919050565b600e60003373ffffffffffffffffffffffffffffffffffffffff1673ffffffffffffffffffffffffffffffffffffffff16815260200190815260200160002060030160009054906101000a900460ff161561100f576040517f08c379a000000000000000000000000000000000000000000000000000000000815260040161100690613ea1565b60405180910390fd5b60006040518060800160405280831515815260200185815260200184815260200160011515815250905080600c60003373ffffffffffffffffffffffffffffffffffffffff1673ffffffffffffffffffffffffffffffffffffffff16815260200190815260200160002060008201518160000160006101000a81548160ff021916908315150217905550602082015181600101556040820151816002015560608201518160030160006101000a81548160ff0219169083151502179055509050503373ffffffffffffffffffffffffffffffffffffffff167fb7a62362dd2be01445191c65d35b774ea413e6b88e82b9ca3b52ab8a4f5e245060405160405180910390a250505050565b6006818154811061112957600080fd5b906000526020600020016000915090505481565b600d602052816000526040600020818154811061115957600080fd5b9060005260206000209060040201600091509150508060000154908060010154908060020154908060030160009054906101000a900460ff16905084565b60056020528060005260406000206000915090508060000160009054906101000a900460ff16908060000160019054906101000a900460ff16908060010180546111e090613dfe565b80601f016020809104026020016040519081016040528092919081815260200182805461120c90613dfe565b80156112595780601f1061122e57610100808354040283529160200191611259565b820191906000526020600020905b81548152906001019060200180831161123c57829003601f168201915b50505050509080600201805461126e90613dfe565b80601f016020809104026020016040519081016040528092919081815260200182805461129a90613dfe565b80156112e75780601f106112bc576101008083540402835291602001916112e7565b820191906000526020600020905b8154815290600101906020018083116112ca57829003601f168201915b5050505050905084565b600e60003373ffffffffffffffffffffffffffffffffffffffff1673ffffffffffffffffffffffffffffffffffffffff16815260200190815260200160002060030160009054906101000a900460ff16611380576040517f08c379a00000000000000000000000000000000000000000000000000000000081526004016113779061406e565b60405180910390fd5b6000600b60003373ffffffffffffffffffffffffffffffffffffffff1673ffffffffffffffffffffffffffffffffffffffff16815260200190815260200160002083815481106113d3576113d261408e565b5b906000526020600020906009020190503373ffffffffffffffffffffffffffffffffffffffff168160070160009054906101000a900473ffffffffffffffffffffffffffffffffffffffff1673ffffffffffffffffffffffffffffffffffffffff1603611475576040517f08c379a000000000000000000000000000000000000000000000000000000000815260040161146c9061412f565b60405180910390fd5b60018160080160146101000a81548160ff02191690831515021790555081156116f55780600001600f60008360080160009054906101000a900473ffffffffffffffffffffffffffffffffffffffff1673ffffffffffffffffffffffffffffffffffffffff1673ffffffffffffffffffffffffffffffffffffffff1681526020019081526020016000206000820160009054906101000a900473ffffffffffffffffffffffffffffffffffffffff168160000160006101000a81548173ffffffffffffffffffffffffffffffffffffffff021916908373ffffffffffffffffffffffffffffffffffffffff160217905550600182015481600101556002820154816002015560038201548160030155600482015481600401556005820160009054906101000a900460ff168160050160006101000a81548160ff0219169083151502179055506006820154816006015590505060016000826000016004015481526020019081526020016000208160000190806001815401808255809150506001900390600052602060002090600702016000909190919091506000820160009054906101000a900473ffffffffffffffffffffffffffffffffffffffff168160000160006101000a81548173ffffffffffffffffffffffffffffffffffffffff021916908373ffffffffffffffffffffffffffffffffffffffff160217905550600182015481600101556002820154816002015560038201548160030155600482015481600401556005820160009054906101000a900460ff168160050160006101000a81548160ff02191690831515021790555060068201548160060155505060018160080160146101000a81548160ff0219169083151502179055505b3373ffffffffffffffffffffffffffffffffffffffff167f0d7314c5e85e24751b97c4af5bf2002b2fc093e77d2d0a27785467743c21a17660405160405180910390a2505050565b600e6020528060005260406000206000915090508060000154908060010154908060020154908060030160009054906101000a900460ff16905084565b6060600b60003373ffffffffffffffffffffffffffffffffffffffff1673ffffffffffffffffffffffffffffffffffffffff168152602001908152602001600020805480602002602001604051908101604052809291908181526020016000905b8282101561198b5783829060005260206000209060090201604051806080016040529081600082016040518060e00160405290816000820160009054906101000a900473ffffffffffffffffffffffffffffffffffffffff1673ffffffffffffffffffffffffffffffffffffffff1673ffffffffffffffffffffffffffffffffffffffff168152602001600182015481526020016002820154815260200160038201548152602001600482015481526020016005820160009054906101000a900460ff1615151515815260200160068201548152505081526020016007820160009054906101000a900473ffffffffffffffffffffffffffffffffffffffff1673ffffffffffffffffffffffffffffffffffffffff1673ffffffffffffffffffffffffffffffffffffffff1681526020016008820160009054906101000a900473ffffffffffffffffffffffffffffffffffffffff1673ffffffffffffffffffffffffffffffffffffffff1673ffffffffffffffffffffffffffffffffffffffff1681526020016008820160149054906101000a900460ff161515151581525050815260200190600101906117db565b50505050905090565b60008060016000858152602001908152602001600020805480602002602001604051908101604052809291908181526020016000905b82821015611a9f57838290600052602060002090600702016040518060e00160405290816000820160009054906101000a900473ffffffffffffffffffffffffffffffffffffffff1673ffffffffffffffffffffffffffffffffffffffff1673ffffffffffffffffffffffffffffffffffffffff168152602001600182015481526020016002820154815260200160038201548152602001600482015481526020016005820160009054906101000a900460ff16151515158152602001600682015481525050815260200190600101906119ca565b505050509050606060005b8251811015611c9357611c62611c36611b9c611b70611b44611b18611aec898881518110611adb57611ada61408e565b5b6020026020010151600001516120d1565b611b138a8981518110611b0257611b0161408e565b5b6020026020010151602001516120fe565b6121cc565b611b3f898881518110611b2e57611b2d61408e565b5b6020026020010151604001516120fe565b6121cc565b611b6b888781518110611b5a57611b5961408e565b5b6020026020010151606001516120fe565b6121cc565b611b97878681518110611b8657611b8561408e565b5b6020026020010151608001516120fe565b6121cc565b858481518110611baf57611bae61408e565b5b602002602001015160a00151611bfa576040518060400160405280600581526020017f66616c7365000000000000000000000000000000000000000000000000000000815250611c31565b6040518060400160405280600481526020017f74727565000000000000000000000000000000000000000000000000000000008152505b6121cc565b611c5d858481518110611c4c57611c4b61408e565b5b602002602001015160c001516120fe565b6121cc565b828281518110611c7557611c7461408e565b5b60200260200101819052508080611c8b9061414f565b915050611aaa565b506000600167ffffffffffffffff811115611cb157611cb06133df565b5b604051908082528060200260200182016040528015611ce457816020015b6060815260200190600190039081611ccf5790505b509050611cef61310e565b611d8c600a8054611cff90613dfe565b80601f0160208091040260200160405190810160405280929190818152602001828054611d2b90613dfe565b8015611d785780601f10611d4d57610100808354040283529160200191611d78565b820191906000526020600020905b815481529060010190602001808311611d5b57829003601f168201915b5050505050826121f890919063ffffffff16565b600082511115611daa57611da9838261220990919063ffffffff16565b5b611de8611db682612251565b600960049054906101000a900467ffffffffffffffff16600960009054906101000a900463ffffffff1660085461266d565b60028190555060405180608001604052806000151581526020016001151581526020016040518060200160405280600081525081526020016040518060200160405280600081525081525060056000600254815260200190815260200160002060008201518160000160006101000a81548160ff02191690831515021790555060208201518160000160016101000a81548160ff0219169083151502179055506040820151816001019081611e9d9190614343565b506060820151816002019081611eb39190614343565b509050506006600254908060018154018082558091505060019003906000526020600020016000909190919091505560025494505050505092915050565b60016020528160005260406000208181548110611f0d57600080fd5b9060005260206000209060070201600091509150508060000160009054906101000a900473ffffffffffffffffffffffffffffffffffffffff16908060010154908060020154908060030154908060040154908060050160009054906101000a900460ff16908060060154905087565b60025481565b6005600084815260200190815260200160002060000160019054906101000a900460ff16611fe6576040517f08c379a0000000000000000000000000000000000000000000000000000000008152600401611fdd90614461565b60405180910390fd5b8060049081611ff59190614343565b5081600390816120059190614343565b5060016005600085815260200190815260200160002060000160006101000a81548160ff021916908315150217905550816005600085815260200190815260200160002060010190816120589190614343565b508060056000858152602001908152602001600020600201908161207c9190614343565b50816000908161208c91906144dc565b50827f160ed0aaffbef6885155188b91459cb5a97d5daadccf7561d8c46deea6641b506000600360046040516120c4939291906146b6565b60405180910390a2505050565b60606120f78273ffffffffffffffffffffffffffffffffffffffff16601460ff16612750565b9050919050565b60606000600161210d84612996565b01905060008167ffffffffffffffff81111561212c5761212b6133df565b5b6040519080825280601f01601f19166020018201604052801561215e5781602001600182028036833780820191505090505b509050600082602001820190505b6001156121c1578080600190039150507f3031323334353637383961626364656600000000000000000000000000000000600a86061a8153600a85816121b5576121b4614702565b5b0494506000850361216c575b819350505050919050565b606082826040516020016121e192919061476d565b604051602081830303815290604052905092915050565b6122058260008084612ae9565b5050565b6000815103612244576040517ffe936cb700000000000000000000000000000000000000000000000000000000815260040160405180910390fd5b808260a001819052505050565b60606000612260610100612b93565b90506122aa6040518060400160405280600c81526020017f636f64654c6f636174696f6e000000000000000000000000000000000000000081525082612bba90919063ffffffff16565b6122d3836000015160028111156122c4576122c3614791565b5b82612be390919063ffffffff16565b61231b6040518060400160405280600881526020017f6c616e677561676500000000000000000000000000000000000000000000000081525082612bba90919063ffffffff16565b6123448360400151600081111561233557612334614791565b5b82612be390919063ffffffff16565b61238c6040518060400160405280600681526020017f736f75726365000000000000000000000000000000000000000000000000000081525082612bba90919063ffffffff16565b6123a3836060015182612bba90919063ffffffff16565b60008360a0015151111561245f576123f96040518060400160405280600481526020017f617267730000000000000000000000000000000000000000000000000000000081525082612bba90919063ffffffff16565b61240281612c33565b60005b8360a0015151811015612454576124438460a00151828151811061242c5761242b61408e565b5b602002602001015183612bba90919063ffffffff16565b8061244d9061414f565b9050612405565b5061245e81612c5b565b5b600083608001515111156125a0576000600281111561248157612480614791565b5b8360200151600281111561249857612497614791565b5b036124cf576040517fa80d31f700000000000000000000000000000000000000000000000000000000815260040160405180910390fd5b6125176040518060400160405280600f81526020017f736563726574734c6f636174696f6e000000000000000000000000000000000081525082612bba90919063ffffffff16565b6125408360200151600281111561253157612530614791565b5b82612be390919063ffffffff16565b6125886040518060400160405280600781526020017f736563726574730000000000000000000000000000000000000000000000000081525082612bba90919063ffffffff16565b61259f836080015182612c8390919063ffffffff16565b5b60008360c0015151111561265c576125f66040518060400160405280600981526020017f627974657341726773000000000000000000000000000000000000000000000081525082612bba90919063ffffffff16565b6125ff81612c33565b60005b8360c0015151811015612651576126408460c0015182815181106126295761262861408e565b5b602002602001015183612c8390919063ffffffff16565b8061264a9061414f565b9050612602565b5061265b81612c5b565b5b806000015160000151915050919050565b6000807f000000000000000000000000000000000000000000000000000000000000000073ffffffffffffffffffffffffffffffffffffffff1663461d27628688600188886040518663ffffffff1660e01b81526004016126d29594939291906147fc565b6020604051808303816000875af11580156126f1573d6000803e3d6000fd5b505050506040513d601f19601f82011682018060405250810190612715919061486b565b9050807f1131472297a800fee664d1d89cfa8f7676ff07189ecc53f80bbb5f4969099db860405160405180910390a280915050949350505050565b60606000839050600060028460026127689190614898565b6127729190613fee565b67ffffffffffffffff81111561278b5761278a6133df565b5b6040519080825280601f01601f1916602001820160405280156127bd5781602001600182028036833780820191505090505b5090507f3000000000000000000000000000000000000000000000000000000000000000816000815181106127f5576127f461408e565b5b60200101907effffffffffffffffffffffffffffffffffffffffffffffffffffffffffffff1916908160001a9053507f7800000000000000000000000000000000000000000000000000000000000000816001815181106128595761285861408e565b5b60200101907effffffffffffffffffffffffffffffffffffffffffffffffffffffffffffff1916908160001a905350600060018560026128999190614898565b6128a39190613fee565b90505b6001811115612943577f3031323334353637383961626364656600000000000000000000000000000000600f8416601081106128e5576128e461408e565b5b1a60f81b8282815181106128fc576128fb61408e565b5b60200101907effffffffffffffffffffffffffffffffffffffffffffffffffffffffffffff1916908160001a905350600483901c92508061293c906148da565b90506128a6565b506000821461298b5784846040517fe22e27eb000000000000000000000000000000000000000000000000000000008152600401612982929190614903565b60405180910390fd5b809250505092915050565b600080600090507a184f03e93ff9f4daa797ed6e38ed64bf6a1f01000000000000000083106129f4577a184f03e93ff9f4daa797ed6e38ed64bf6a1f01000000000000000083816129ea576129e9614702565b5b0492506040810190505b6d04ee2d6d415b85acef81000000008310612a31576d04ee2d6d415b85acef81000000008381612a2757612a26614702565b5b0492506020810190505b662386f26fc100008310612a6057662386f26fc100008381612a5657612a55614702565b5b0492506010810190505b6305f5e1008310612a89576305f5e1008381612a7f57612a7e614702565b5b0492506008810190505b6127108310612aae576127108381612aa457612aa3614702565b5b0492506004810190505b60648310612ad15760648381612ac757612ac6614702565b5b0492506002810190505b600a8310612ae0576001810190505b80915050919050565b6000815103612b24576040517f22ce3edd00000000000000000000000000000000000000000000000000000000815260040160405180910390fd5b8284600001906002811115612b3c57612b3b614791565b5b90816002811115612b5057612b4f614791565b5b815250508184604001906000811115612b6c57612b6b614791565b5b90816000811115612b8057612b7f614791565b5b8152505080846060018190525050505050565b612b9b613180565b612ba9816000015183612cac565b506000816020018181525050919050565b612bc78260038351612d25565b612bde818360000151612ece90919063ffffffff16565b505050565b612c0560026005600660ff16901b178360000151612eea90919063ffffffff16565b50612c2f8282604051602001612c1b919061492c565b604051602081830303815290604052612c83565b5050565b612c3e816004612f54565b600181602001818151612c519190613fee565b9150818152505050565b612c66816007612f54565b600181602001818151612c799190614947565b9150818152505050565b612c908260028351612d25565b612ca7818360000151612ece90919063ffffffff16565b505050565b612cb46131a0565b6000602083612cc3919061497b565b14612cef57602082612cd5919061497b565b6020612ce19190614947565b82612cec9190613fee565b91505b818360200181815250506040518084526000815282810160200181811015612d1657600080fd5b80604052505082905092915050565b60178167ffffffffffffffff1611612d6057612d5a8160058460ff16901b60ff16178460000151612eea90919063ffffffff16565b50612ec9565b60ff8167ffffffffffffffff1611612dbe57612d93601860058460ff16901b178460000151612eea90919063ffffffff16565b50612db88167ffffffffffffffff1660018560000151612f7a9092919063ffffffff16565b50612ec8565b61ffff8167ffffffffffffffff1611612e1d57612df2601960058460ff16901b178460000151612eea90919063ffffffff16565b50612e178167ffffffffffffffff1660028560000151612f7a9092919063ffffffff16565b50612ec7565b63ffffffff8167ffffffffffffffff1611612e7e57612e53601a60058460ff16901b178460000151612eea90919063ffffffff16565b50612e788167ffffffffffffffff1660048560000151612f7a9092919063ffffffff16565b50612ec6565b612e9f601b60058460ff16901b178460000151612eea90919063ffffffff16565b50612ec48167ffffffffffffffff1660088560000151612f7a9092919063ffffffff16565b505b5b5b5b505050565b612ed66131a0565b612ee283838451613007565b905092915050565b612ef26131a0565b600083600001515190506000600182612f0b9190613fee565b905084602001518210612f2f57612f2e85600283612f299190614898565b6130ea565b5b84516020838201018581538151831115612f47578282525b5050849250505092915050565b612f75601f60058360ff16901b178360000151612eea90919063ffffffff16565b505050565b612f826131a0565b6000846000015151905060008184612f9a9190613fee565b90508560200151811115612fbf57612fbe86600283612fb99190614898565b6130ea565b5b6000600185610100612fd19190614adf565b612fdb9190614947565b905086518281018783198251161781528151841115612ff8578382525b50508693505050509392505050565b61300f6131a0565b825182111561301d57600080fd5b60008460000151519050600083826130359190613fee565b9050856020015181111561305a57613059866002836130549190614898565b6130ea565b5b60008087518051856020830101935080851115613075578482525b60208901925050505b602086106130bc57805182526020826130979190613fee565b91506020816130a69190613fee565b90506020866130b59190614947565b955061307e565b60006001876020036101000a0390508019825116818451168181178552505050879450505050509392505050565b6000826000015190506130fd8383612cac565b506131088382612ece565b50505050565b6040518060e001604052806000600281111561312d5761312c614791565b5b81526020016000600281111561314657613145614791565b5b815260200160008081111561315e5761315d614791565b5b8152602001606081526020016060815260200160608152602001606081525090565b60405180604001604052806131936131a0565b8152602001600081525090565b604051806040016040528060608152602001600081525090565b6000604051905090565b600080fd5b600080fd5b600073ffffffffffffffffffffffffffffffffffffffff82169050919050565b60006131f9826131ce565b9050919050565b613209816131ee565b811461321457600080fd5b50565b60008135905061322681613200565b92915050565b600060208284031215613242576132416131c4565b5b600061325084828501613217565b91505092915050565b613262816131ee565b82525050565b6000819050919050565b61327b81613268565b82525050565b60008115159050919050565b61329681613281565b82525050565b600060e0820190506132b1600083018a613259565b6132be6020830189613272565b6132cb6040830188613272565b6132d86060830187613272565b6132e56080830186613272565b6132f260a083018561328d565b6132ff60c0830184613272565b98975050505050505050565b600067ffffffffffffffff82169050919050565b6133288161330b565b82525050565b6000602082019050613343600083018461331f565b92915050565b600060808201905061335e600083018761328d565b61336b6020830186613272565b6133786040830185613272565b613385606083018461328d565b95945050505050565b6000819050919050565b6133a18161338e565b81146133ac57600080fd5b50565b6000813590506133be81613398565b92915050565b600080fd5b600080fd5b6000601f19601f8301169050919050565b7f4e487b7100000000000000000000000000000000000000000000000000000000600052604160045260246000fd5b613417826133ce565b810181811067ffffffffffffffff82111715613436576134356133df565b5b80604052505050565b60006134496131ba565b9050613455828261340e565b919050565b600067ffffffffffffffff821115613475576134746133df565b5b61347e826133ce565b9050602081019050919050565b82818337600083830152505050565b60006134ad6134a88461345a565b61343f565b9050828152602081018484840111156134c9576134c86133c9565b5b6134d484828561348b565b509392505050565b600082601f8301126134f1576134f06133c4565b5b813561350184826020860161349a565b91505092915050565b600080600060608486031215613523576135226131c4565b5b6000613531868287016133af565b935050602084013567ffffffffffffffff811115613552576135516131c9565b5b61355e868287016134dc565b925050604084013567ffffffffffffffff81111561357f5761357e6131c9565b5b61358b868287016134dc565b9150509250925092565b600081519050919050565b600082825260208201905092915050565b60005b838110156135cf5780820151818401526020810190506135b4565b60008484015250505050565b60006135e682613595565b6135f081856135a0565b93506136008185602086016135b1565b613609816133ce565b840191505092915050565b6000602082019050818103600083015261362e81846135db565b905092915050565b61363f81613268565b811461364a57600080fd5b50565b60008135905061365c81613636565b92915050565b60008060006060848603121561367b5761367a6131c4565b5b60006136898682870161364d565b935050602061369a8682870161364d565b92505060406136ab8682870161364d565b9150509250925092565b600080600080608085870312156136cf576136ce6131c4565b5b60006136dd8782880161364d565b94505060206136ee8782880161364d565b93505060406136ff87828801613217565b92505060606137108782880161364d565b91505092959194509250565b60008060408385031215613733576137326131c4565b5b600061374185828601613217565b92505060206137528582860161364d565b9150509250929050565b613765816131ee565b82525050565b61377481613268565b82525050565b61378381613281565b82525050565b60e08201600082015161379f600085018261375c565b5060208201516137b2602085018261376b565b5060408201516137c5604085018261376b565b5060608201516137d8606085018261376b565b5060808201516137eb608085018261376b565b5060a08201516137fe60a085018261377a565b5060c082015161381160c085018261376b565b50505050565b60006101408201905061382d6000830187613789565b61383a60e0830186613259565b613848610100830185613259565b61385661012083018461328d565b95945050505050565b600081519050919050565b600082825260208201905092915050565b60006138868261385f565b613890818561386a565b93506138a08185602086016135b1565b6138a9816133ce565b840191505092915050565b600060208201905081810360008301526138ce818461387b565b905092915050565b6000602082840312156138ec576138eb6131c4565b5b60006138fa8482850161364d565b91505092915050565b600081519050919050565b600082825260208201905092915050565b6000819050602082019050919050565b608082016000820151613945600085018261376b565b506020820151613958602085018261376b565b50604082015161396b604085018261376b565b50606082015161397e606085018261377a565b50505050565b6000613990838361392f565b60808301905092915050565b6000602082019050919050565b60006139b482613903565b6139be818561390e565b93506139c98361391f565b8060005b838110156139fa5781516139e18882613984565b97506139ec8361399c565b9250506001810190506139cd565b5085935050505092915050565b60006020820190508181036000830152613a2181846139a9565b905092915050565b613a3281613281565b8114613a3d57600080fd5b50565b600081359050613a4f81613a29565b92915050565b600080600060608486031215613a6e57613a6d6131c4565b5b6000613a7c8682870161364d565b9350506020613a8d8682870161364d565b9250506040613a9e86828701613a40565b9150509250925092565b613ab18161338e565b82525050565b6000602082019050613acc6000830184613aa8565b92915050565b60008060408385031215613ae957613ae86131c4565b5b6000613af78582860161364d565b9250506020613b088582860161364d565b9150509250929050565b6000608082019050613b276000830187613272565b613b346020830186613272565b613b416040830185613272565b613b4e606083018461328d565b95945050505050565b600060208284031215613b6d57613b6c6131c4565b5b6000613b7b848285016133af565b91505092915050565b6000608082019050613b99600083018761328d565b613ba6602083018661328d565b8181036040830152613bb881856135db565b90508181036060830152613bcc81846135db565b905095945050505050565b60008060408385031215613bee57613bed6131c4565b5b6000613bfc8582860161364d565b9250506020613c0d85828601613a40565b9150509250929050565b600081519050919050565b600082825260208201905092915050565b6000819050602082019050919050565b60e082016000820151613c59600085018261375c565b506020820151613c6c602085018261376b565b506040820151613c7f604085018261376b565b506060820151613c92606085018261376b565b506080820151613ca5608085018261376b565b5060a0820151613cb860a085018261377a565b5060c0820151613ccb60c085018261376b565b50505050565b61014082016000820151613ce86000850182613c43565b506020820151613cfb60e085018261375c565b506040820151613d0f61010085018261375c565b506060820151613d2361012085018261377a565b50505050565b6000613d358383613cd1565b6101408301905092915050565b6000602082019050919050565b6000613d5a82613c17565b613d648185613c22565b9350613d6f83613c33565b8060005b83811015613da0578151613d878882613d29565b9750613d9283613d42565b925050600181019050613d73565b5085935050505092915050565b60006020820190508181036000830152613dc78184613d4f565b905092915050565b7f4e487b7100000000000000000000000000000000000000000000000000000000600052602260045260246000fd5b60006002820490506001821680613e1657607f821691505b602082108103613e2957613e28613dcf565b5b50919050565b7f566f6365206e616f20706f64652073657220756d20646973747269627569646f60008201527f72206520756d20636f6e73756d69646f7220616f206d65736d6f2074656d706f602082015250565b6000613e8b60408361386a565b9150613e9682613e2f565b604082019050919050565b60006020820190508181036000830152613eba81613e7e565b9050919050565b7f566f6365206e616f206520756d20636f6e73756d69646f720000000000000000600082015250565b6000613ef760188361386a565b9150613f0282613ec1565b602082019050919050565b60006020820190508181036000830152613f2681613eea565b9050919050565b7f4f20656e64657265636f207061737361646f206e616f206520756d206469737460008201527f7269627569646f72000000000000000000000000000000000000000000000000602082015250565b6000613f8960288361386a565b9150613f9482613f2d565b604082019050919050565b60006020820190508181036000830152613fb881613f7c565b9050919050565b7f4e487b7100000000000000000000000000000000000000000000000000000000600052601160045260246000fd5b6000613ff982613268565b915061400483613268565b925082820190508082111561401c5761401b613fbf565b5b92915050565b7f566f6365206e616f206520756d20646973747269627569646f72000000000000600082015250565b6000614058601a8361386a565b915061406382614022565b602082019050919050565b600060208201905081810360008301526140878161404b565b9050919050565b7f4e487b7100000000000000000000000000000000000000000000000000000000600052603260045260246000fd5b7f566f6365206e616f2065206f20646973747269627569646f722064657373612060008201527f70726f706f737461000000000000000000000000000000000000000000000000602082015250565b600061411960288361386a565b9150614124826140bd565b604082019050919050565b600060208201905081810360008301526141488161410c565b9050919050565b600061415a82613268565b91507fffffffffffffffffffffffffffffffffffffffffffffffffffffffffffffffff820361418c5761418b613fbf565b5b600182019050919050565b60008190508160005260206000209050919050565b60006020601f8301049050919050565b600082821b905092915050565b6000600883026141f97fffffffffffffffffffffffffffffffffffffffffffffffffffffffffffffffff826141bc565b61420386836141bc565b95508019841693508086168417925050509392505050565b6000819050919050565b600061424061423b61423684613268565b61421b565b613268565b9050919050565b6000819050919050565b61425a83614225565b61426e61426682614247565b8484546141c9565b825550505050565b600090565b614283614276565b61428e818484614251565b505050565b5b818110156142b2576142a760008261427b565b600181019050614294565b5050565b601f8211156142f7576142c881614197565b6142d1846141ac565b810160208510156142e0578190505b6142f46142ec856141ac565b830182614293565b50505b505050565b600082821c905092915050565b600061431a600019846008026142fc565b1980831691505092915050565b60006143338383614309565b9150826002028217905092915050565b61434c82613595565b67ffffffffffffffff811115614365576143646133df565b5b61436f8254613dfe565b61437a8282856142b6565b600060209050601f8311600181146143ad576000841561439b578287015190505b6143a58582614327565b86555061440d565b601f1984166143bb86614197565b60005b828110156143e3578489015182556001820191506020850194506020810190506143be565b8683101561440057848901516143fc601f891682614309565b8355505b6001600288020188555050505b505050505050565b7f72657175657374206e6f7420666f756e64000000000000000000000000000000600082015250565b600061444b60118361386a565b915061445682614415565b602082019050919050565b6000602082019050818103600083015261447a8161443e565b9050919050565b60008190508160005260206000209050919050565b601f8211156144d7576144a881614481565b6144b1846141ac565b810160208510156144c0578190505b6144d46144cc856141ac565b830182614293565b50505b505050565b6144e58261385f565b67ffffffffffffffff8111156144fe576144fd6133df565b5b6145088254613dfe565b614513828285614496565b600060209050601f8311600181146145465760008415614534578287015190505b61453e8582614327565b8655506145a6565b601f19841661455486614481565b60005b8281101561457c57848901518255600182019150602085019450602081019050614557565b868310156145995784890151614595601f891682614309565b8355505b6001600288020188555050505b505050505050565b600081546145bb81613dfe565b6145c5818661386a565b945060018216600081146145e057600181146145f657614629565b60ff198316865281151560200286019350614629565b6145ff85614481565b60005b8381101561462157815481890152600182019150602081019050614602565b808801955050505b50505092915050565b6000815461463f81613dfe565b61464981866135a0565b94506001821660008114614664576001811461467a576146ad565b60ff1983168652811515602002860193506146ad565b61468385614197565b60005b838110156146a557815481890152600182019150602081019050614686565b808801955050505b50505092915050565b600060608201905081810360008301526146d081866145ae565b905081810360208301526146e48185614632565b905081810360408301526146f88184614632565b9050949350505050565b7f4e487b7100000000000000000000000000000000000000000000000000000000600052601260045260246000fd5b600081905092915050565b60006147478261385f565b6147518185614731565b93506147618185602086016135b1565b80840191505092915050565b6000614779828561473c565b9150614785828461473c565b91508190509392505050565b7f4e487b7100000000000000000000000000000000000000000000000000000000600052602160045260246000fd5b600061ffff82169050919050565b6147d7816147c0565b82525050565b600063ffffffff82169050919050565b6147f6816147dd565b82525050565b600060a082019050614811600083018861331f565b818103602083015261482381876135db565b905061483260408301866147ce565b61483f60608301856147ed565b61484c6080830184613aa8565b9695505050505050565b60008151905061486581613398565b92915050565b600060208284031215614881576148806131c4565b5b600061488f84828501614856565b91505092915050565b60006148a382613268565b91506148ae83613268565b92508282026148bc81613268565b915082820484148315176148d3576148d2613fbf565b5b5092915050565b60006148e582613268565b9150600082036148f8576148f7613fbf565b5b600182039050919050565b60006040820190506149186000830185613272565b6149256020830184613272565b9392505050565b60006020820190506149416000830184613272565b92915050565b600061495282613268565b915061495d83613268565b925082820390508181111561497557614974613fbf565b5b92915050565b600061498682613268565b915061499183613268565b9250826149a1576149a0614702565b5b828206905092915050565b60008160011c9050919050565b6000808291508390505b6001851115614a03578086048111156149df576149de613fbf565b5b60018516156149ee5780820291505b80810290506149fc856149ac565b94506149c3565b94509492505050565b600082614a1c5760019050614ad8565b81614a2a5760009050614ad8565b8160018114614a405760028114614a4a57614a79565b6001915050614ad8565b60ff841115614a5c57614a5b613fbf565b5b8360020a915084821115614a7357614a72613fbf565b5b50614ad8565b5060208310610133831016604e8410600b8410161715614aae5782820a905083811115614aa957614aa8613fbf565b5b614ad8565b614abb84848460016149b9565b92509050818404811115614ad257614ad1613fbf565b5b81810290505b9392505050565b6000614aea82613268565b9150614af583613268565b9250614b227fffffffffffffffffffffffffffffffffffffffffffffffffffffffffffffffff8484614a0c565b90509291505056fea26469706673582212205ac7d90463c1c57dd6b42680fbce273306109b4309b943d842af5c0469d2a06b64736f6c63430008130033636f6e737420656e65726779436f6e747261637473203d20617267735b305d3b636f6e737420617069526573706f6e7365203d2061776169742046756e6374696f6e732e6d616b654874747052657175657374287b75726c3a206068747470733a2f2f777474722e696e2f3f636f6e7472616374733d7b656e65726779436f6e7472616374737d602c726573706f6e7365547970653a202774657874277d293b69662028617069526573706f6e73652e6572726f7229207b7468726f77204572726f72282752657175657374206661696c656427293b7d636f6e7374207b2064617461207d203d20617069526573706f6e73653b6c6574206e657744617461203d204a534f4e2e737472696e6769667928646174612972657475726e2046756e6374696f6e732e656e636f6465537472696e67286e657744617461293b","opcodes":"PUSH1 0xA0 PUSH1 0x40 MSTORE PUSH20 0xB83E47C2BC239B3BF370BC41E1459A34B41238D0 PUSH1 0x7 PUSH1 0x0 PUSH2 0x100 EXP DUP2 SLOAD DUP2 PUSH20 0xFFFFFFFFFFFFFFFFFFFFFFFFFFFFFFFFFFFFFFFF MUL NOT AND SWAP1 DUP4 PUSH20 0xFFFFFFFFFFFFFFFFFFFFFFFFFFFFFFFFFFFFFFFF AND MUL OR SWAP1 SSTORE POP PUSH32 0x66756E2D657468657265756D2D7365706F6C69612D3100000000000000000000 PUSH1 0x0 SHL PUSH1 0x8 SSTORE PUSH3 0x493E0 PUSH1 0x9 PUSH1 0x0 PUSH2 0x100 EXP DUP2 SLOAD DUP2 PUSH4 0xFFFFFFFF MUL NOT AND SWAP1 DUP4 PUSH4 0xFFFFFFFF AND MUL OR SWAP1 SSTORE POP PUSH1 0x40 MLOAD DUP1 PUSH2 0x160 ADD PUSH1 0x40 MSTORE DUP1 PUSH2 0x13D DUP2 MSTORE PUSH1 0x20 ADD PUSH3 0x50EF PUSH2 0x13D SWAP2 CODECOPY PUSH1 0xA SWAP1 DUP2 PUSH3 0xD1 SWAP2 SWAP1 PUSH3 0x409 JUMP JUMPDEST POP CALLVALUE DUP1 ISZERO PUSH3 0xDF JUMPI PUSH1 0x0 DUP1 REVERT JUMPDEST POP PUSH1 0x40 MLOAD PUSH3 0x522C CODESIZE SUB DUP1 PUSH3 0x522C DUP4 CODECOPY DUP2 DUP2 ADD PUSH1 0x40 MSTORE DUP2 ADD SWAP1 PUSH3 0x105 SWAP2 SWAP1 PUSH3 0x53A JUMP JUMPDEST DUP1 PUSH1 0x7 PUSH1 0x0 SWAP1 SLOAD SWAP1 PUSH2 0x100 EXP SWAP1 DIV PUSH20 0xFFFFFFFFFFFFFFFFFFFFFFFFFFFFFFFFFFFFFFFF AND DUP1 PUSH20 0xFFFFFFFFFFFFFFFFFFFFFFFFFFFFFFFFFFFFFFFF AND PUSH1 0x80 DUP2 PUSH20 0xFFFFFFFFFFFFFFFFFFFFFFFFFFFFFFFFFFFFFFFF AND DUP2 MSTORE POP POP POP DUP1 PUSH1 0x9 PUSH1 0x4 PUSH2 0x100 EXP DUP2 SLOAD DUP2 PUSH8 0xFFFFFFFFFFFFFFFF MUL NOT AND SWAP1 DUP4 PUSH8 0xFFFFFFFFFFFFFFFF AND MUL OR SWAP1 SSTORE POP POP POP PUSH3 0x56C JUMP JUMPDEST PUSH1 0x0 DUP2 MLOAD SWAP1 POP SWAP2 SWAP1 POP JUMP JUMPDEST PUSH32 0x4E487B7100000000000000000000000000000000000000000000000000000000 PUSH1 0x0 MSTORE PUSH1 0x41 PUSH1 0x4 MSTORE PUSH1 0x24 PUSH1 0x0 REVERT JUMPDEST PUSH32 0x4E487B7100000000000000000000000000000000000000000000000000000000 PUSH1 0x0 MSTORE PUSH1 0x22 PUSH1 0x4 MSTORE PUSH1 0x24 PUSH1 0x0 REVERT JUMPDEST PUSH1 0x0 PUSH1 0x2 DUP3 DIV SWAP1 POP PUSH1 0x1 DUP3 AND DUP1 PUSH3 0x211 JUMPI PUSH1 0x7F DUP3 AND SWAP2 POP JUMPDEST PUSH1 0x20 DUP3 LT DUP2 SUB PUSH3 0x227 JUMPI PUSH3 0x226 PUSH3 0x1C9 JUMP JUMPDEST JUMPDEST POP SWAP2 SWAP1 POP JUMP JUMPDEST PUSH1 0x0 DUP2 SWAP1 POP DUP2 PUSH1 0x0 MSTORE PUSH1 0x20 PUSH1 0x0 KECCAK256 SWAP1 POP SWAP2 SWAP1 POP JUMP JUMPDEST PUSH1 0x0 PUSH1 0x20 PUSH1 0x1F DUP4 ADD DIV SWAP1 POP SWAP2 SWAP1 POP JUMP JUMPDEST PUSH1 0x0 DUP3 DUP3 SHL SWAP1 POP SWAP3 SWAP2 POP POP JUMP JUMPDEST PUSH1 0x0 PUSH1 0x8 DUP4 MUL PUSH3 0x291 PUSH32 0xFFFFFFFFFFFFFFFFFFFFFFFFFFFFFFFFFFFFFFFFFFFFFFFFFFFFFFFFFFFFFFFF DUP3 PUSH3 0x252 JUMP JUMPDEST PUSH3 0x29D DUP7 DUP4 PUSH3 0x252 JUMP JUMPDEST SWAP6 POP DUP1 NOT DUP5 AND SWAP4 POP DUP1 DUP7 AND DUP5 OR SWAP3 POP POP POP SWAP4 SWAP3 POP POP POP JUMP JUMPDEST PUSH1 0x0 DUP2 SWAP1 POP SWAP2 SWAP1 POP JUMP JUMPDEST PUSH1 0x0 DUP2 SWAP1 POP SWAP2 SWAP1 POP JUMP JUMPDEST PUSH1 0x0 PUSH3 0x2EA PUSH3 0x2E4 PUSH3 0x2DE DUP5 PUSH3 0x2B5 JUMP JUMPDEST PUSH3 0x2BF JUMP JUMPDEST PUSH3 0x2B5 JUMP JUMPDEST SWAP1 POP SWAP2 SWAP1 POP JUMP JUMPDEST PUSH1 0x0 DUP2 SWAP1 POP SWAP2 SWAP1 POP JUMP JUMPDEST PUSH3 0x306 DUP4 PUSH3 0x2C9 JUMP JUMPDEST PUSH3 0x31E PUSH3 0x315 DUP3 PUSH3 0x2F1 JUMP JUMPDEST DUP5 DUP5 SLOAD PUSH3 0x25F JUMP JUMPDEST DUP3 SSTORE POP POP POP POP JUMP JUMPDEST PUSH1 0x0 SWAP1 JUMP JUMPDEST PUSH3 0x335 PUSH3 0x326 JUMP JUMPDEST PUSH3 0x342 DUP2 DUP5 DUP5 PUSH3 0x2FB JUMP JUMPDEST POP POP POP JUMP JUMPDEST JUMPDEST DUP2 DUP2 LT ISZERO PUSH3 0x36A JUMPI PUSH3 0x35E PUSH1 0x0 DUP3 PUSH3 0x32B JUMP JUMPDEST PUSH1 0x1 DUP2 ADD SWAP1 POP PUSH3 0x348 JUMP JUMPDEST POP POP JUMP JUMPDEST PUSH1 0x1F DUP3 GT ISZERO PUSH3 0x3B9 JUMPI PUSH3 0x383 DUP2 PUSH3 0x22D JUMP JUMPDEST PUSH3 0x38E DUP5 PUSH3 0x242 JUMP JUMPDEST DUP2 ADD PUSH1 0x20 DUP6 LT ISZERO PUSH3 0x39E JUMPI DUP2 SWAP1 POP JUMPDEST PUSH3 0x3B6 PUSH3 0x3AD DUP6 PUSH3 0x242 JUMP JUMPDEST DUP4 ADD DUP3 PUSH3 0x347 JUMP JUMPDEST POP POP JUMPDEST POP POP POP JUMP JUMPDEST PUSH1 0x0 DUP3 DUP3 SHR SWAP1 POP SWAP3 SWAP2 POP POP JUMP JUMPDEST PUSH1 0x0 PUSH3 0x3DE PUSH1 0x0 NOT DUP5 PUSH1 0x8 MUL PUSH3 0x3BE JUMP JUMPDEST NOT DUP1 DUP4 AND SWAP2 POP POP SWAP3 SWAP2 POP POP JUMP JUMPDEST PUSH1 0x0 PUSH3 0x3F9 DUP4 DUP4 PUSH3 0x3CB JUMP JUMPDEST SWAP2 POP DUP3 PUSH1 0x2 MUL DUP3 OR SWAP1 POP SWAP3 SWAP2 POP POP JUMP JUMPDEST PUSH3 0x414 DUP3 PUSH3 0x18F JUMP JUMPDEST PUSH8 0xFFFFFFFFFFFFFFFF DUP2 GT ISZERO PUSH3 0x430 JUMPI PUSH3 0x42F PUSH3 0x19A JUMP JUMPDEST JUMPDEST PUSH3 0x43C DUP3 SLOAD PUSH3 0x1F8 JUMP JUMPDEST PUSH3 0x449 DUP3 DUP3 DUP6 PUSH3 0x36E JUMP JUMPDEST PUSH1 0x0 PUSH1 0x20 SWAP1 POP PUSH1 0x1F DUP4 GT PUSH1 0x1 DUP2 EQ PUSH3 0x481 JUMPI PUSH1 0x0 DUP5 ISZERO PUSH3 0x46C JUMPI DUP3 DUP8 ADD MLOAD SWAP1 POP JUMPDEST PUSH3 0x478 DUP6 DUP3 PUSH3 0x3EB JUMP JUMPDEST DUP7 SSTORE POP PUSH3 0x4E8 JUMP JUMPDEST PUSH1 0x1F NOT DUP5 AND PUSH3 0x491 DUP7 PUSH3 0x22D JUMP JUMPDEST PUSH1 0x0 JUMPDEST DUP3 DUP2 LT ISZERO PUSH3 0x4BB JUMPI DUP5 DUP10 ADD MLOAD DUP3 SSTORE PUSH1 0x1 DUP3 ADD SWAP2 POP PUSH1 0x20 DUP6 ADD SWAP5 POP PUSH1 0x20 DUP2 ADD SWAP1 POP PUSH3 0x494 JUMP JUMPDEST DUP7 DUP4 LT ISZERO PUSH3 0x4DB JUMPI DUP5 DUP10 ADD MLOAD PUSH3 0x4D7 PUSH1 0x1F DUP10 AND DUP3 PUSH3 0x3CB JUMP JUMPDEST DUP4 SSTORE POP JUMPDEST PUSH1 0x1 PUSH1 0x2 DUP9 MUL ADD DUP9 SSTORE POP POP POP JUMPDEST POP POP POP POP POP POP JUMP JUMPDEST PUSH1 0x0 DUP1 REVERT JUMPDEST PUSH1 0x0 PUSH8 0xFFFFFFFFFFFFFFFF DUP3 AND SWAP1 POP SWAP2 SWAP1 POP JUMP JUMPDEST PUSH3 0x514 DUP2 PUSH3 0x4F5 JUMP JUMPDEST DUP2 EQ PUSH3 0x520 JUMPI PUSH1 0x0 DUP1 REVERT JUMPDEST POP JUMP JUMPDEST PUSH1 0x0 DUP2 MLOAD SWAP1 POP PUSH3 0x534 DUP2 PUSH3 0x509 JUMP JUMPDEST SWAP3 SWAP2 POP POP JUMP JUMPDEST PUSH1 0x0 PUSH1 0x20 DUP3 DUP5 SUB SLT ISZERO PUSH3 0x553 JUMPI PUSH3 0x552 PUSH3 0x4F0 JUMP JUMPDEST JUMPDEST PUSH1 0x0 PUSH3 0x563 DUP5 DUP3 DUP6 ADD PUSH3 0x523 JUMP JUMPDEST SWAP2 POP POP SWAP3 SWAP2 POP POP JUMP JUMPDEST PUSH1 0x80 MLOAD PUSH2 0x4B60 PUSH3 0x58F PUSH1 0x0 CODECOPY PUSH1 0x0 DUP2 DUP2 PUSH2 0x54C ADD MSTORE PUSH2 0x2672 ADD MSTORE PUSH2 0x4B60 PUSH1 0x0 RETURN INVALID PUSH1 0x80 PUSH1 0x40 MSTORE CALLVALUE DUP1 ISZERO PUSH2 0x10 JUMPI PUSH1 0x0 DUP1 REVERT JUMPDEST POP PUSH1 0x4 CALLDATASIZE LT PUSH2 0x137 JUMPI PUSH1 0x0 CALLDATALOAD PUSH1 0xE0 SHR DUP1 PUSH4 0x6D37A202 GT PUSH2 0xB8 JUMPI DUP1 PUSH4 0xC2729BFB GT PUSH2 0x7C JUMPI DUP1 PUSH4 0xC2729BFB EQ PUSH2 0x386 JUMPI DUP1 PUSH4 0xCC642784 EQ PUSH2 0x3A2 JUMPI DUP1 PUSH4 0xD3E64FFA EQ PUSH2 0x3D5 JUMPI DUP1 PUSH4 0xD483337D EQ PUSH2 0x3F3 JUMPI DUP1 PUSH4 0xF3DE41AD EQ PUSH2 0x423 JUMPI DUP1 PUSH4 0xFC2A88C3 EQ PUSH2 0x459 JUMPI PUSH2 0x137 JUMP JUMPDEST DUP1 PUSH4 0x6D37A202 EQ PUSH2 0x2A4 JUMPI DUP1 PUSH4 0x7C732F85 EQ PUSH2 0x2D4 JUMPI DUP1 PUSH4 0x8796BA8C EQ PUSH2 0x2F0 JUMPI DUP1 PUSH4 0x9AF96A73 EQ PUSH2 0x320 JUMPI DUP1 PUSH4 0x9D866985 EQ PUSH2 0x353 JUMPI PUSH2 0x137 JUMP JUMPDEST DUP1 PUSH4 0x2E8376DC GT PUSH2 0xFF JUMPI DUP1 PUSH4 0x2E8376DC EQ PUSH2 0x1FD JUMPI DUP1 PUSH4 0x2EAFC905 EQ PUSH2 0x219 JUMPI DUP1 PUSH4 0x62747E42 EQ PUSH2 0x235 JUMPI DUP1 PUSH4 0x642CB091 EQ PUSH2 0x253 JUMPI DUP1 PUSH4 0x67E828BF EQ PUSH2 0x286 JUMPI PUSH2 0x137 JUMP JUMPDEST DUP1 PUSH4 0x5EF317A EQ PUSH2 0x13C JUMPI DUP1 PUSH4 0x9C1BA2E EQ PUSH2 0x172 JUMPI DUP1 PUSH4 0xBF53668 EQ PUSH2 0x190 JUMPI DUP1 PUSH4 0xCA76175 EQ PUSH2 0x1C3 JUMPI DUP1 PUSH4 0x29F0DE3F EQ PUSH2 0x1DF JUMPI JUMPDEST PUSH1 0x0 DUP1 REVERT JUMPDEST PUSH2 0x156 PUSH1 0x4 DUP1 CALLDATASIZE SUB DUP2 ADD SWAP1 PUSH2 0x151 SWAP2 SWAP1 PUSH2 0x322C JUMP JUMPDEST PUSH2 0x477 JUMP JUMPDEST PUSH1 0x40 MLOAD PUSH2 0x169 SWAP8 SWAP7 SWAP6 SWAP5 SWAP4 SWAP3 SWAP2 SWAP1 PUSH2 0x329C JUMP JUMPDEST PUSH1 0x40 MLOAD DUP1 SWAP2 SUB SWAP1 RETURN JUMPDEST PUSH2 0x17A PUSH2 0x4E6 JUMP JUMPDEST PUSH1 0x40 MLOAD PUSH2 0x187 SWAP2 SWAP1 PUSH2 0x332E JUMP JUMPDEST PUSH1 0x40 MLOAD DUP1 SWAP2 SUB SWAP1 RETURN JUMPDEST PUSH2 0x1AA PUSH1 0x4 DUP1 CALLDATASIZE SUB DUP2 ADD SWAP1 PUSH2 0x1A5 SWAP2 SWAP1 PUSH2 0x322C JUMP JUMPDEST PUSH2 0x500 JUMP JUMPDEST PUSH1 0x40 MLOAD PUSH2 0x1BA SWAP5 SWAP4 SWAP3 SWAP2 SWAP1 PUSH2 0x3349 JUMP JUMPDEST PUSH1 0x40 MLOAD DUP1 SWAP2 SUB SWAP1 RETURN JUMPDEST PUSH2 0x1DD PUSH1 0x4 DUP1 CALLDATASIZE SUB DUP2 ADD SWAP1 PUSH2 0x1D8 SWAP2 SWAP1 PUSH2 0x350A JUMP JUMPDEST PUSH2 0x54A JUMP JUMPDEST STOP JUMPDEST PUSH2 0x1E7 PUSH2 0x60C JUMP JUMPDEST PUSH1 0x40 MLOAD PUSH2 0x1F4 SWAP2 SWAP1 PUSH2 0x3614 JUMP JUMPDEST PUSH1 0x40 MLOAD DUP1 SWAP2 SUB SWAP1 RETURN JUMPDEST PUSH2 0x217 PUSH1 0x4 DUP1 CALLDATASIZE SUB DUP2 ADD SWAP1 PUSH2 0x212 SWAP2 SWAP1 PUSH2 0x3662 JUMP JUMPDEST PUSH2 0x69A JUMP JUMPDEST STOP JUMPDEST PUSH2 0x233 PUSH1 0x4 DUP1 CALLDATASIZE SUB DUP2 ADD SWAP1 PUSH2 0x22E SWAP2 SWAP1 PUSH2 0x36B5 JUMP JUMPDEST PUSH2 0x899 JUMP JUMPDEST STOP JUMPDEST PUSH2 0x23D PUSH2 0xC71 JUMP JUMPDEST PUSH1 0x40 MLOAD PUSH2 0x24A SWAP2 SWAP1 PUSH2 0x3614 JUMP JUMPDEST PUSH1 0x40 MLOAD DUP1 SWAP2 SUB SWAP1 RETURN JUMPDEST PUSH2 0x26D PUSH1 0x4 DUP1 CALLDATASIZE SUB DUP2 ADD SWAP1 PUSH2 0x268 SWAP2 SWAP1 PUSH2 0x371C JUMP JUMPDEST PUSH2 0xCFF JUMP JUMPDEST PUSH1 0x40 MLOAD PUSH2 0x27D SWAP5 SWAP4 SWAP3 SWAP2 SWAP1 PUSH2 0x3817 JUMP JUMPDEST PUSH1 0x40 MLOAD DUP1 SWAP2 SUB SWAP1 RETURN JUMPDEST PUSH2 0x28E PUSH2 0xE46 JUMP JUMPDEST PUSH1 0x40 MLOAD PUSH2 0x29B SWAP2 SWAP1 PUSH2 0x38B4 JUMP JUMPDEST PUSH1 0x40 MLOAD DUP1 SWAP2 SUB SWAP1 RETURN JUMPDEST PUSH2 0x2BE PUSH1 0x4 DUP1 CALLDATASIZE SUB DUP2 ADD SWAP1 PUSH2 0x2B9 SWAP2 SWAP1 PUSH2 0x38D6 JUMP JUMPDEST PUSH2 0xED4 JUMP JUMPDEST PUSH1 0x40 MLOAD PUSH2 0x2CB SWAP2 SWAP1 PUSH2 0x3A07 JUMP JUMPDEST PUSH1 0x40 MLOAD DUP1 SWAP2 SUB SWAP1 RETURN JUMPDEST PUSH2 0x2EE PUSH1 0x4 DUP1 CALLDATASIZE SUB DUP2 ADD SWAP1 PUSH2 0x2E9 SWAP2 SWAP1 PUSH2 0x3A55 JUMP JUMPDEST PUSH2 0xF7F JUMP JUMPDEST STOP JUMPDEST PUSH2 0x30A PUSH1 0x4 DUP1 CALLDATASIZE SUB DUP2 ADD SWAP1 PUSH2 0x305 SWAP2 SWAP1 PUSH2 0x38D6 JUMP JUMPDEST PUSH2 0x1119 JUMP JUMPDEST PUSH1 0x40 MLOAD PUSH2 0x317 SWAP2 SWAP1 PUSH2 0x3AB7 JUMP JUMPDEST PUSH1 0x40 MLOAD DUP1 SWAP2 SUB SWAP1 RETURN JUMPDEST PUSH2 0x33A PUSH1 0x4 DUP1 CALLDATASIZE SUB DUP2 ADD SWAP1 PUSH2 0x335 SWAP2 SWAP1 PUSH2 0x3AD2 JUMP JUMPDEST PUSH2 0x113D JUMP JUMPDEST PUSH1 0x40 MLOAD PUSH2 0x34A SWAP5 SWAP4 SWAP3 SWAP2 SWAP1 PUSH2 0x3B12 JUMP JUMPDEST PUSH1 0x40 MLOAD DUP1 SWAP2 SUB SWAP1 RETURN JUMPDEST PUSH2 0x36D PUSH1 0x4 DUP1 CALLDATASIZE SUB DUP2 ADD SWAP1 PUSH2 0x368 SWAP2 SWAP1 PUSH2 0x3B57 JUMP JUMPDEST PUSH2 0x1197 JUMP JUMPDEST PUSH1 0x40 MLOAD PUSH2 0x37D SWAP5 SWAP4 SWAP3 SWAP2 SWAP1 PUSH2 0x3B84 JUMP JUMPDEST PUSH1 0x40 MLOAD DUP1 SWAP2 SUB SWAP1 RETURN JUMPDEST PUSH2 0x3A0 PUSH1 0x4 DUP1 CALLDATASIZE SUB DUP2 ADD SWAP1 PUSH2 0x39B SWAP2 SWAP1 PUSH2 0x3BD7 JUMP JUMPDEST PUSH2 0x12F1 JUMP JUMPDEST STOP JUMPDEST PUSH2 0x3BC PUSH1 0x4 DUP1 CALLDATASIZE SUB DUP2 ADD SWAP1 PUSH2 0x3B7 SWAP2 SWAP1 PUSH2 0x322C JUMP JUMPDEST PUSH2 0x173D JUMP JUMPDEST PUSH1 0x40 MLOAD PUSH2 0x3CC SWAP5 SWAP4 SWAP3 SWAP2 SWAP1 PUSH2 0x3B12 JUMP JUMPDEST PUSH1 0x40 MLOAD DUP1 SWAP2 SUB SWAP1 RETURN JUMPDEST PUSH2 0x3DD PUSH2 0x177A JUMP JUMPDEST PUSH1 0x40 MLOAD PUSH2 0x3EA SWAP2 SWAP1 PUSH2 0x3DAD JUMP JUMPDEST PUSH1 0x40 MLOAD DUP1 SWAP2 SUB SWAP1 RETURN JUMPDEST PUSH2 0x40D PUSH1 0x4 DUP1 CALLDATASIZE SUB DUP2 ADD SWAP1 PUSH2 0x408 SWAP2 SWAP1 PUSH2 0x3AD2 JUMP JUMPDEST PUSH2 0x1994 JUMP JUMPDEST PUSH1 0x40 MLOAD PUSH2 0x41A SWAP2 SWAP1 PUSH2 0x3AB7 JUMP JUMPDEST PUSH1 0x40 MLOAD DUP1 SWAP2 SUB SWAP1 RETURN JUMPDEST PUSH2 0x43D PUSH1 0x4 DUP1 CALLDATASIZE SUB DUP2 ADD SWAP1 PUSH2 0x438 SWAP2 SWAP1 PUSH2 0x3AD2 JUMP JUMPDEST PUSH2 0x1EF1 JUMP JUMPDEST PUSH1 0x40 MLOAD PUSH2 0x450 SWAP8 SWAP7 SWAP6 SWAP5 SWAP4 SWAP3 SWAP2 SWAP1 PUSH2 0x329C JUMP JUMPDEST PUSH1 0x40 MLOAD DUP1 SWAP2 SUB SWAP1 RETURN JUMPDEST PUSH2 0x461 PUSH2 0x1F7D JUMP JUMPDEST PUSH1 0x40 MLOAD PUSH2 0x46E SWAP2 SWAP1 PUSH2 0x3AB7 JUMP JUMPDEST PUSH1 0x40 MLOAD DUP1 SWAP2 SUB SWAP1 RETURN JUMPDEST PUSH1 0xF PUSH1 0x20 MSTORE DUP1 PUSH1 0x0 MSTORE PUSH1 0x40 PUSH1 0x0 KECCAK256 PUSH1 0x0 SWAP2 POP SWAP1 POP DUP1 PUSH1 0x0 ADD PUSH1 0x0 SWAP1 SLOAD SWAP1 PUSH2 0x100 EXP SWAP1 DIV PUSH20 0xFFFFFFFFFFFFFFFFFFFFFFFFFFFFFFFFFFFFFFFF AND SWAP1 DUP1 PUSH1 0x1 ADD SLOAD SWAP1 DUP1 PUSH1 0x2 ADD SLOAD SWAP1 DUP1 PUSH1 0x3 ADD SLOAD SWAP1 DUP1 PUSH1 0x4 ADD SLOAD SWAP1 DUP1 PUSH1 0x5 ADD PUSH1 0x0 SWAP1 SLOAD SWAP1 PUSH2 0x100 EXP SWAP1 DIV PUSH1 0xFF AND SWAP1 DUP1 PUSH1 0x6 ADD SLOAD SWAP1 POP DUP8 JUMP JUMPDEST PUSH1 0x9 PUSH1 0x4 SWAP1 SLOAD SWAP1 PUSH2 0x100 EXP SWAP1 DIV PUSH8 0xFFFFFFFFFFFFFFFF AND DUP2 JUMP JUMPDEST PUSH1 0xC PUSH1 0x20 MSTORE DUP1 PUSH1 0x0 MSTORE PUSH1 0x40 PUSH1 0x0 KECCAK256 PUSH1 0x0 SWAP2 POP SWAP1 POP DUP1 PUSH1 0x0 ADD PUSH1 0x0 SWAP1 SLOAD SWAP1 PUSH2 0x100 EXP SWAP1 DIV PUSH1 0xFF AND SWAP1 DUP1 PUSH1 0x1 ADD SLOAD SWAP1 DUP1 PUSH1 0x2 ADD SLOAD SWAP1 DUP1 PUSH1 0x3 ADD PUSH1 0x0 SWAP1 SLOAD SWAP1 PUSH2 0x100 EXP SWAP1 DIV PUSH1 0xFF AND SWAP1 POP DUP5 JUMP JUMPDEST PUSH32 0x0 PUSH20 0xFFFFFFFFFFFFFFFFFFFFFFFFFFFFFFFFFFFFFFFF AND CALLER PUSH20 0xFFFFFFFFFFFFFFFFFFFFFFFFFFFFFFFFFFFFFFFF AND EQ PUSH2 0x5CF JUMPI PUSH1 0x40 MLOAD PUSH32 0xC6829F8300000000000000000000000000000000000000000000000000000000 DUP2 MSTORE PUSH1 0x4 ADD PUSH1 0x40 MLOAD DUP1 SWAP2 SUB SWAP1 REVERT JUMPDEST PUSH2 0x5DA DUP4 DUP4 DUP4 PUSH2 0x1F83 JUMP JUMPDEST DUP3 PUSH32 0x85E1543BF2F84FE80C6BADBCE3648C8539AD1DF4D2B3D822938CA0538BE727E6 PUSH1 0x40 MLOAD PUSH1 0x40 MLOAD DUP1 SWAP2 SUB SWAP1 LOG2 POP POP POP JUMP JUMPDEST PUSH1 0x4 DUP1 SLOAD PUSH2 0x619 SWAP1 PUSH2 0x3DFE JUMP JUMPDEST DUP1 PUSH1 0x1F ADD PUSH1 0x20 DUP1 SWAP2 DIV MUL PUSH1 0x20 ADD PUSH1 0x40 MLOAD SWAP1 DUP2 ADD PUSH1 0x40 MSTORE DUP1 SWAP3 SWAP2 SWAP1 DUP2 DUP2 MSTORE PUSH1 0x20 ADD DUP3 DUP1 SLOAD PUSH2 0x645 SWAP1 PUSH2 0x3DFE JUMP JUMPDEST DUP1 ISZERO PUSH2 0x692 JUMPI DUP1 PUSH1 0x1F LT PUSH2 0x667 JUMPI PUSH2 0x100 DUP1 DUP4 SLOAD DIV MUL DUP4 MSTORE SWAP2 PUSH1 0x20 ADD SWAP2 PUSH2 0x692 JUMP JUMPDEST DUP3 ADD SWAP2 SWAP1 PUSH1 0x0 MSTORE PUSH1 0x20 PUSH1 0x0 KECCAK256 SWAP1 JUMPDEST DUP2 SLOAD DUP2 MSTORE SWAP1 PUSH1 0x1 ADD SWAP1 PUSH1 0x20 ADD DUP1 DUP4 GT PUSH2 0x675 JUMPI DUP3 SWAP1 SUB PUSH1 0x1F AND DUP3 ADD SWAP2 JUMPDEST POP POP POP POP POP DUP2 JUMP JUMPDEST PUSH1 0xC PUSH1 0x0 CALLER PUSH20 0xFFFFFFFFFFFFFFFFFFFFFFFFFFFFFFFFFFFFFFFF AND PUSH20 0xFFFFFFFFFFFFFFFFFFFFFFFFFFFFFFFFFFFFFFFF AND DUP2 MSTORE PUSH1 0x20 ADD SWAP1 DUP2 MSTORE PUSH1 0x20 ADD PUSH1 0x0 KECCAK256 PUSH1 0x3 ADD PUSH1 0x0 SWAP1 SLOAD SWAP1 PUSH2 0x100 EXP SWAP1 DIV PUSH1 0xFF AND ISZERO PUSH2 0x72A JUMPI PUSH1 0x40 MLOAD PUSH32 0x8C379A000000000000000000000000000000000000000000000000000000000 DUP2 MSTORE PUSH1 0x4 ADD PUSH2 0x721 SWAP1 PUSH2 0x3EA1 JUMP JUMPDEST PUSH1 0x40 MLOAD DUP1 SWAP2 SUB SWAP1 REVERT JUMPDEST PUSH1 0x0 PUSH1 0x40 MLOAD DUP1 PUSH1 0x80 ADD PUSH1 0x40 MSTORE DUP1 DUP6 DUP2 MSTORE PUSH1 0x20 ADD DUP5 DUP2 MSTORE PUSH1 0x20 ADD DUP4 DUP2 MSTORE PUSH1 0x20 ADD PUSH1 0x1 ISZERO ISZERO DUP2 MSTORE POP SWAP1 POP PUSH1 0xD PUSH1 0x0 DUP4 DUP2 MSTORE PUSH1 0x20 ADD SWAP1 DUP2 MSTORE PUSH1 0x20 ADD PUSH1 0x0 KECCAK256 DUP2 SWAP1 DUP1 PUSH1 0x1 DUP2 SLOAD ADD DUP1 DUP3 SSTORE DUP1 SWAP2 POP POP PUSH1 0x1 SWAP1 SUB SWAP1 PUSH1 0x0 MSTORE PUSH1 0x20 PUSH1 0x0 KECCAK256 SWAP1 PUSH1 0x4 MUL ADD PUSH1 0x0 SWAP1 SWAP2 SWAP1 SWAP2 SWAP1 SWAP2 POP PUSH1 0x0 DUP3 ADD MLOAD DUP2 PUSH1 0x0 ADD SSTORE PUSH1 0x20 DUP3 ADD MLOAD DUP2 PUSH1 0x1 ADD SSTORE PUSH1 0x40 DUP3 ADD MLOAD DUP2 PUSH1 0x2 ADD SSTORE PUSH1 0x60 DUP3 ADD MLOAD DUP2 PUSH1 0x3 ADD PUSH1 0x0 PUSH2 0x100 EXP DUP2 SLOAD DUP2 PUSH1 0xFF MUL NOT AND SWAP1 DUP4 ISZERO ISZERO MUL OR SWAP1 SSTORE POP POP POP DUP1 PUSH1 0xE PUSH1 0x0 CALLER PUSH20 0xFFFFFFFFFFFFFFFFFFFFFFFFFFFFFFFFFFFFFFFF AND PUSH20 0xFFFFFFFFFFFFFFFFFFFFFFFFFFFFFFFFFFFFFFFF AND DUP2 MSTORE PUSH1 0x20 ADD SWAP1 DUP2 MSTORE PUSH1 0x20 ADD PUSH1 0x0 KECCAK256 PUSH1 0x0 DUP3 ADD MLOAD DUP2 PUSH1 0x0 ADD SSTORE PUSH1 0x20 DUP3 ADD MLOAD DUP2 PUSH1 0x1 ADD SSTORE PUSH1 0x40 DUP3 ADD MLOAD DUP2 PUSH1 0x2 ADD SSTORE PUSH1 0x60 DUP3 ADD MLOAD DUP2 PUSH1 0x3 ADD PUSH1 0x0 PUSH2 0x100 EXP DUP2 SLOAD DUP2 PUSH1 0xFF MUL NOT AND SWAP1 DUP4 ISZERO ISZERO MUL OR SWAP1 SSTORE POP SWAP1 POP POP CALLER PUSH20 0xFFFFFFFFFFFFFFFFFFFFFFFFFFFFFFFFFFFFFFFF AND PUSH32 0x539FCE68FD46DD4D63494EC1197510A27BFB96EB9B09F050EEC103BBDF2B315B PUSH1 0x40 MLOAD PUSH1 0x40 MLOAD DUP1 SWAP2 SUB SWAP1 LOG2 POP POP POP POP JUMP JUMPDEST PUSH1 0xC PUSH1 0x0 CALLER PUSH20 0xFFFFFFFFFFFFFFFFFFFFFFFFFFFFFFFFFFFFFFFF AND PUSH20 0xFFFFFFFFFFFFFFFFFFFFFFFFFFFFFFFFFFFFFFFF AND DUP2 MSTORE PUSH1 0x20 ADD SWAP1 DUP2 MSTORE PUSH1 0x20 ADD PUSH1 0x0 KECCAK256 PUSH1 0x3 ADD PUSH1 0x0 SWAP1 SLOAD SWAP1 PUSH2 0x100 EXP SWAP1 DIV PUSH1 0xFF AND PUSH2 0x928 JUMPI PUSH1 0x40 MLOAD PUSH32 0x8C379A000000000000000000000000000000000000000000000000000000000 DUP2 MSTORE PUSH1 0x4 ADD PUSH2 0x91F SWAP1 PUSH2 0x3F0D JUMP JUMPDEST PUSH1 0x40 MLOAD DUP1 SWAP2 SUB SWAP1 REVERT JUMPDEST PUSH1 0xE PUSH1 0x0 DUP4 PUSH20 0xFFFFFFFFFFFFFFFFFFFFFFFFFFFFFFFFFFFFFFFF AND PUSH20 0xFFFFFFFFFFFFFFFFFFFFFFFFFFFFFFFFFFFFFFFF AND DUP2 MSTORE PUSH1 0x20 ADD SWAP1 DUP2 MSTORE PUSH1 0x20 ADD PUSH1 0x0 KECCAK256 PUSH1 0x3 ADD PUSH1 0x0 SWAP1 SLOAD SWAP1 PUSH2 0x100 EXP SWAP1 DIV PUSH1 0xFF AND PUSH2 0x9B7 JUMPI PUSH1 0x40 MLOAD PUSH32 0x8C379A000000000000000000000000000000000000000000000000000000000 DUP2 MSTORE PUSH1 0x4 ADD PUSH2 0x9AE SWAP1 PUSH2 0x3F9F JUMP JUMPDEST PUSH1 0x40 MLOAD DUP1 SWAP2 SUB SWAP1 REVERT JUMPDEST PUSH1 0x0 PUSH1 0x40 MLOAD DUP1 PUSH1 0xE0 ADD PUSH1 0x40 MSTORE DUP1 CALLER PUSH20 0xFFFFFFFFFFFFFFFFFFFFFFFFFFFFFFFFFFFFFFFF AND DUP2 MSTORE PUSH1 0x20 ADD DUP7 DUP2 MSTORE PUSH1 0x20 ADD DUP6 DUP2 MSTORE PUSH1 0x20 ADD TIMESTAMP DUP2 MSTORE PUSH1 0x20 ADD DUP4 DUP2 MSTORE PUSH1 0x20 ADD PUSH1 0x1 ISZERO ISZERO DUP2 MSTORE PUSH1 0x20 ADD PUSH3 0x278D00 TIMESTAMP PUSH2 0xA10 SWAP2 SWAP1 PUSH2 0x3FEE JUMP JUMPDEST DUP2 MSTORE POP SWAP1 POP PUSH1 0x0 PUSH1 0x40 MLOAD DUP1 PUSH1 0x80 ADD PUSH1 0x40 MSTORE DUP1 DUP4 DUP2 MSTORE PUSH1 0x20 ADD CALLER PUSH20 0xFFFFFFFFFFFFFFFFFFFFFFFFFFFFFFFFFFFFFFFF AND DUP2 MSTORE PUSH1 0x20 ADD DUP6 PUSH20 0xFFFFFFFFFFFFFFFFFFFFFFFFFFFFFFFFFFFFFFFF AND DUP2 MSTORE PUSH1 0x20 ADD PUSH1 0x0 ISZERO ISZERO DUP2 MSTORE POP SWAP1 POP PUSH1 0xB PUSH1 0x0 DUP6 PUSH20 0xFFFFFFFFFFFFFFFFFFFFFFFFFFFFFFFFFFFFFFFF AND PUSH20 0xFFFFFFFFFFFFFFFFFFFFFFFFFFFFFFFFFFFFFFFF AND DUP2 MSTORE PUSH1 0x20 ADD SWAP1 DUP2 MSTORE PUSH1 0x20 ADD PUSH1 0x0 KECCAK256 DUP2 SWAP1 DUP1 PUSH1 0x1 DUP2 SLOAD ADD DUP1 DUP3 SSTORE DUP1 SWAP2 POP POP PUSH1 0x1 SWAP1 SUB SWAP1 PUSH1 0x0 MSTORE PUSH1 0x20 PUSH1 0x0 KECCAK256 SWAP1 PUSH1 0x9 MUL ADD PUSH1 0x0 SWAP1 SWAP2 SWAP1 SWAP2 SWAP1 SWAP2 POP PUSH1 0x0 DUP3 ADD MLOAD DUP2 PUSH1 0x0 ADD PUSH1 0x0 DUP3 ADD MLOAD DUP2 PUSH1 0x0 ADD PUSH1 0x0 PUSH2 0x100 EXP DUP2 SLOAD DUP2 PUSH20 0xFFFFFFFFFFFFFFFFFFFFFFFFFFFFFFFFFFFFFFFF MUL NOT AND SWAP1 DUP4 PUSH20 0xFFFFFFFFFFFFFFFFFFFFFFFFFFFFFFFFFFFFFFFF AND MUL OR SWAP1 SSTORE POP PUSH1 0x20 DUP3 ADD MLOAD DUP2 PUSH1 0x1 ADD SSTORE PUSH1 0x40 DUP3 ADD MLOAD DUP2 PUSH1 0x2 ADD SSTORE PUSH1 0x60 DUP3 ADD MLOAD DUP2 PUSH1 0x3 ADD SSTORE PUSH1 0x80 DUP3 ADD MLOAD DUP2 PUSH1 0x4 ADD SSTORE PUSH1 0xA0 DUP3 ADD MLOAD DUP2 PUSH1 0x5 ADD PUSH1 0x0 PUSH2 0x100 EXP DUP2 SLOAD DUP2 PUSH1 0xFF MUL NOT AND SWAP1 DUP4 ISZERO ISZERO MUL OR SWAP1 SSTORE POP PUSH1 0xC0 DUP3 ADD MLOAD DUP2 PUSH1 0x6 ADD SSTORE POP POP PUSH1 0x20 DUP3 ADD MLOAD DUP2 PUSH1 0x7 ADD PUSH1 0x0 PUSH2 0x100 EXP DUP2 SLOAD DUP2 PUSH20 0xFFFFFFFFFFFFFFFFFFFFFFFFFFFFFFFFFFFFFFFF MUL NOT AND SWAP1 DUP4 PUSH20 0xFFFFFFFFFFFFFFFFFFFFFFFFFFFFFFFFFFFFFFFF AND MUL OR SWAP1 SSTORE POP PUSH1 0x40 DUP3 ADD MLOAD DUP2 PUSH1 0x8 ADD PUSH1 0x0 PUSH2 0x100 EXP DUP2 SLOAD DUP2 PUSH20 0xFFFFFFFFFFFFFFFFFFFFFFFFFFFFFFFFFFFFFFFF MUL NOT AND SWAP1 DUP4 PUSH20 0xFFFFFFFFFFFFFFFFFFFFFFFFFFFFFFFFFFFFFFFF AND MUL OR SWAP1 SSTORE POP PUSH1 0x60 DUP3 ADD MLOAD DUP2 PUSH1 0x8 ADD PUSH1 0x14 PUSH2 0x100 EXP DUP2 SLOAD DUP2 PUSH1 0xFF MUL NOT AND SWAP1 DUP4 ISZERO ISZERO MUL OR SWAP1 SSTORE POP POP POP DUP4 PUSH20 0xFFFFFFFFFFFFFFFFFFFFFFFFFFFFFFFFFFFFFFFF AND PUSH32 0xD7314C5E85E24751B97C4AF5BF2002B2FC093E77D2D0A27785467743C21A176 PUSH1 0x40 MLOAD PUSH1 0x40 MLOAD DUP1 SWAP2 SUB SWAP1 LOG2 POP POP POP POP POP POP JUMP JUMPDEST PUSH1 0x3 DUP1 SLOAD PUSH2 0xC7E SWAP1 PUSH2 0x3DFE JUMP JUMPDEST DUP1 PUSH1 0x1F ADD PUSH1 0x20 DUP1 SWAP2 DIV MUL PUSH1 0x20 ADD PUSH1 0x40 MLOAD SWAP1 DUP2 ADD PUSH1 0x40 MSTORE DUP1 SWAP3 SWAP2 SWAP1 DUP2 DUP2 MSTORE PUSH1 0x20 ADD DUP3 DUP1 SLOAD PUSH2 0xCAA SWAP1 PUSH2 0x3DFE JUMP JUMPDEST DUP1 ISZERO PUSH2 0xCF7 JUMPI DUP1 PUSH1 0x1F LT PUSH2 0xCCC JUMPI PUSH2 0x100 DUP1 DUP4 SLOAD DIV MUL DUP4 MSTORE SWAP2 PUSH1 0x20 ADD SWAP2 PUSH2 0xCF7 JUMP JUMPDEST DUP3 ADD SWAP2 SWAP1 PUSH1 0x0 MSTORE PUSH1 0x20 PUSH1 0x0 KECCAK256 SWAP1 JUMPDEST DUP2 SLOAD DUP2 MSTORE SWAP1 PUSH1 0x1 ADD SWAP1 PUSH1 0x20 ADD DUP1 DUP4 GT PUSH2 0xCDA JUMPI DUP3 SWAP1 SUB PUSH1 0x1F AND DUP3 ADD SWAP2 JUMPDEST POP POP POP POP POP DUP2 JUMP JUMPDEST PUSH1 0xB PUSH1 0x20 MSTORE DUP2 PUSH1 0x0 MSTORE PUSH1 0x40 PUSH1 0x0 KECCAK256 DUP2 DUP2 SLOAD DUP2 LT PUSH2 0xD1B JUMPI PUSH1 0x0 DUP1 REVERT JUMPDEST SWAP1 PUSH1 0x0 MSTORE PUSH1 0x20 PUSH1 0x0 KECCAK256 SWAP1 PUSH1 0x9 MUL ADD PUSH1 0x0 SWAP2 POP SWAP2 POP POP DUP1 PUSH1 0x0 ADD PUSH1 0x40 MLOAD DUP1 PUSH1 0xE0 ADD PUSH1 0x40 MSTORE SWAP1 DUP2 PUSH1 0x0 DUP3 ADD PUSH1 0x0 SWAP1 SLOAD SWAP1 PUSH2 0x100 EXP SWAP1 DIV PUSH20 0xFFFFFFFFFFFFFFFFFFFFFFFFFFFFFFFFFFFFFFFF AND PUSH20 0xFFFFFFFFFFFFFFFFFFFFFFFFFFFFFFFFFFFFFFFF AND PUSH20 0xFFFFFFFFFFFFFFFFFFFFFFFFFFFFFFFFFFFFFFFF AND DUP2 MSTORE PUSH1 0x20 ADD PUSH1 0x1 DUP3 ADD SLOAD DUP2 MSTORE PUSH1 0x20 ADD PUSH1 0x2 DUP3 ADD SLOAD DUP2 MSTORE PUSH1 0x20 ADD PUSH1 0x3 DUP3 ADD SLOAD DUP2 MSTORE PUSH1 0x20 ADD PUSH1 0x4 DUP3 ADD SLOAD DUP2 MSTORE PUSH1 0x20 ADD PUSH1 0x5 DUP3 ADD PUSH1 0x0 SWAP1 SLOAD SWAP1 PUSH2 0x100 EXP SWAP1 DIV PUSH1 0xFF AND ISZERO ISZERO ISZERO ISZERO DUP2 MSTORE PUSH1 0x20 ADD PUSH1 0x6 DUP3 ADD SLOAD DUP2 MSTORE POP POP SWAP1 DUP1 PUSH1 0x7 ADD PUSH1 0x0 SWAP1 SLOAD SWAP1 PUSH2 0x100 EXP SWAP1 DIV PUSH20 0xFFFFFFFFFFFFFFFFFFFFFFFFFFFFFFFFFFFFFFFF AND SWAP1 DUP1 PUSH1 0x8 ADD PUSH1 0x0 SWAP1 SLOAD SWAP1 PUSH2 0x100 EXP SWAP1 DIV PUSH20 0xFFFFFFFFFFFFFFFFFFFFFFFFFFFFFFFFFFFFFFFF AND SWAP1 DUP1 PUSH1 0x8 ADD PUSH1 0x14 SWAP1 SLOAD SWAP1 PUSH2 0x100 EXP SWAP1 DIV PUSH1 0xFF AND SWAP1 POP DUP5 JUMP JUMPDEST PUSH1 0xA DUP1 SLOAD PUSH2 0xE53 SWAP1 PUSH2 0x3DFE JUMP JUMPDEST DUP1 PUSH1 0x1F ADD PUSH1 0x20 DUP1 SWAP2 DIV MUL PUSH1 0x20 ADD PUSH1 0x40 MLOAD SWAP1 DUP2 ADD PUSH1 0x40 MSTORE DUP1 SWAP3 SWAP2 SWAP1 DUP2 DUP2 MSTORE PUSH1 0x20 ADD DUP3 DUP1 SLOAD PUSH2 0xE7F SWAP1 PUSH2 0x3DFE JUMP JUMPDEST DUP1 ISZERO PUSH2 0xECC JUMPI DUP1 PUSH1 0x1F LT PUSH2 0xEA1 JUMPI PUSH2 0x100 DUP1 DUP4 SLOAD DIV MUL DUP4 MSTORE SWAP2 PUSH1 0x20 ADD SWAP2 PUSH2 0xECC JUMP JUMPDEST DUP3 ADD SWAP2 SWAP1 PUSH1 0x0 MSTORE PUSH1 0x20 PUSH1 0x0 KECCAK256 SWAP1 JUMPDEST DUP2 SLOAD DUP2 MSTORE SWAP1 PUSH1 0x1 ADD SWAP1 PUSH1 0x20 ADD DUP1 DUP4 GT PUSH2 0xEAF JUMPI DUP3 SWAP1 SUB PUSH1 0x1F AND DUP3 ADD SWAP2 JUMPDEST POP POP POP POP POP DUP2 JUMP JUMPDEST PUSH1 0x60 PUSH1 0xD PUSH1 0x0 DUP4 DUP2 MSTORE PUSH1 0x20 ADD SWAP1 DUP2 MSTORE PUSH1 0x20 ADD PUSH1 0x0 KECCAK256 DUP1 SLOAD DUP1 PUSH1 0x20 MUL PUSH1 0x20 ADD PUSH1 0x40 MLOAD SWAP1 DUP2 ADD PUSH1 0x40 MSTORE DUP1 SWAP3 SWAP2 SWAP1 DUP2 DUP2 MSTORE PUSH1 0x20 ADD PUSH1 0x0 SWAP1 JUMPDEST DUP3 DUP3 LT ISZERO PUSH2 0xF74 JUMPI DUP4 DUP3 SWAP1 PUSH1 0x0 MSTORE PUSH1 0x20 PUSH1 0x0 KECCAK256 SWAP1 PUSH1 0x4 MUL ADD PUSH1 0x40 MLOAD DUP1 PUSH1 0x80 ADD PUSH1 0x40 MSTORE SWAP1 DUP2 PUSH1 0x0 DUP3 ADD SLOAD DUP2 MSTORE PUSH1 0x20 ADD PUSH1 0x1 DUP3 ADD SLOAD DUP2 MSTORE PUSH1 0x20 ADD PUSH1 0x2 DUP3 ADD SLOAD DUP2 MSTORE PUSH1 0x20 ADD PUSH1 0x3 DUP3 ADD PUSH1 0x0 SWAP1 SLOAD SWAP1 PUSH2 0x100 EXP SWAP1 DIV PUSH1 0xFF AND ISZERO ISZERO ISZERO ISZERO DUP2 MSTORE POP POP DUP2 MSTORE PUSH1 0x20 ADD SWAP1 PUSH1 0x1 ADD SWAP1 PUSH2 0xF09 JUMP JUMPDEST POP POP POP POP SWAP1 POP SWAP2 SWAP1 POP JUMP JUMPDEST PUSH1 0xE PUSH1 0x0 CALLER PUSH20 0xFFFFFFFFFFFFFFFFFFFFFFFFFFFFFFFFFFFFFFFF AND PUSH20 0xFFFFFFFFFFFFFFFFFFFFFFFFFFFFFFFFFFFFFFFF AND DUP2 MSTORE PUSH1 0x20 ADD SWAP1 DUP2 MSTORE PUSH1 0x20 ADD PUSH1 0x0 KECCAK256 PUSH1 0x3 ADD PUSH1 0x0 SWAP1 SLOAD SWAP1 PUSH2 0x100 EXP SWAP1 DIV PUSH1 0xFF AND ISZERO PUSH2 0x100F JUMPI PUSH1 0x40 MLOAD PUSH32 0x8C379A000000000000000000000000000000000000000000000000000000000 DUP2 MSTORE PUSH1 0x4 ADD PUSH2 0x1006 SWAP1 PUSH2 0x3EA1 JUMP JUMPDEST PUSH1 0x40 MLOAD DUP1 SWAP2 SUB SWAP1 REVERT JUMPDEST PUSH1 0x0 PUSH1 0x40 MLOAD DUP1 PUSH1 0x80 ADD PUSH1 0x40 MSTORE DUP1 DUP4 ISZERO ISZERO DUP2 MSTORE PUSH1 0x20 ADD DUP6 DUP2 MSTORE PUSH1 0x20 ADD DUP5 DUP2 MSTORE PUSH1 0x20 ADD PUSH1 0x1 ISZERO ISZERO DUP2 MSTORE POP SWAP1 POP DUP1 PUSH1 0xC PUSH1 0x0 CALLER PUSH20 0xFFFFFFFFFFFFFFFFFFFFFFFFFFFFFFFFFFFFFFFF AND PUSH20 0xFFFFFFFFFFFFFFFFFFFFFFFFFFFFFFFFFFFFFFFF AND DUP2 MSTORE PUSH1 0x20 ADD SWAP1 DUP2 MSTORE PUSH1 0x20 ADD PUSH1 0x0 KECCAK256 PUSH1 0x0 DUP3 ADD MLOAD DUP2 PUSH1 0x0 ADD PUSH1 0x0 PUSH2 0x100 EXP DUP2 SLOAD DUP2 PUSH1 0xFF MUL NOT AND SWAP1 DUP4 ISZERO ISZERO MUL OR SWAP1 SSTORE POP PUSH1 0x20 DUP3 ADD MLOAD DUP2 PUSH1 0x1 ADD SSTORE PUSH1 0x40 DUP3 ADD MLOAD DUP2 PUSH1 0x2 ADD SSTORE PUSH1 0x60 DUP3 ADD MLOAD DUP2 PUSH1 0x3 ADD PUSH1 0x0 PUSH2 0x100 EXP DUP2 SLOAD DUP2 PUSH1 0xFF MUL NOT AND SWAP1 DUP4 ISZERO ISZERO MUL OR SWAP1 SSTORE POP SWAP1 POP POP CALLER PUSH20 0xFFFFFFFFFFFFFFFFFFFFFFFFFFFFFFFFFFFFFFFF AND PUSH32 0xB7A62362DD2BE01445191C65D35B774EA413E6B88E82B9CA3B52AB8A4F5E2450 PUSH1 0x40 MLOAD PUSH1 0x40 MLOAD DUP1 SWAP2 SUB SWAP1 LOG2 POP POP POP POP JUMP JUMPDEST PUSH1 0x6 DUP2 DUP2 SLOAD DUP2 LT PUSH2 0x1129 JUMPI PUSH1 0x0 DUP1 REVERT JUMPDEST SWAP1 PUSH1 0x0 MSTORE PUSH1 0x20 PUSH1 0x0 KECCAK256 ADD PUSH1 0x0 SWAP2 POP SWAP1 POP SLOAD DUP2 JUMP JUMPDEST PUSH1 0xD PUSH1 0x20 MSTORE DUP2 PUSH1 0x0 MSTORE PUSH1 0x40 PUSH1 0x0 KECCAK256 DUP2 DUP2 SLOAD DUP2 LT PUSH2 0x1159 JUMPI PUSH1 0x0 DUP1 REVERT JUMPDEST SWAP1 PUSH1 0x0 MSTORE PUSH1 0x20 PUSH1 0x0 KECCAK256 SWAP1 PUSH1 0x4 MUL ADD PUSH1 0x0 SWAP2 POP SWAP2 POP POP DUP1 PUSH1 0x0 ADD SLOAD SWAP1 DUP1 PUSH1 0x1 ADD SLOAD SWAP1 DUP1 PUSH1 0x2 ADD SLOAD SWAP1 DUP1 PUSH1 0x3 ADD PUSH1 0x0 SWAP1 SLOAD SWAP1 PUSH2 0x100 EXP SWAP1 DIV PUSH1 0xFF AND SWAP1 POP DUP5 JUMP JUMPDEST PUSH1 0x5 PUSH1 0x20 MSTORE DUP1 PUSH1 0x0 MSTORE PUSH1 0x40 PUSH1 0x0 KECCAK256 PUSH1 0x0 SWAP2 POP SWAP1 POP DUP1 PUSH1 0x0 ADD PUSH1 0x0 SWAP1 SLOAD SWAP1 PUSH2 0x100 EXP SWAP1 DIV PUSH1 0xFF AND SWAP1 DUP1 PUSH1 0x0 ADD PUSH1 0x1 SWAP1 SLOAD SWAP1 PUSH2 0x100 EXP SWAP1 DIV PUSH1 0xFF AND SWAP1 DUP1 PUSH1 0x1 ADD DUP1 SLOAD PUSH2 0x11E0 SWAP1 PUSH2 0x3DFE JUMP JUMPDEST DUP1 PUSH1 0x1F ADD PUSH1 0x20 DUP1 SWAP2 DIV MUL PUSH1 0x20 ADD PUSH1 0x40 MLOAD SWAP1 DUP2 ADD PUSH1 0x40 MSTORE DUP1 SWAP3 SWAP2 SWAP1 DUP2 DUP2 MSTORE PUSH1 0x20 ADD DUP3 DUP1 SLOAD PUSH2 0x120C SWAP1 PUSH2 0x3DFE JUMP JUMPDEST DUP1 ISZERO PUSH2 0x1259 JUMPI DUP1 PUSH1 0x1F LT PUSH2 0x122E JUMPI PUSH2 0x100 DUP1 DUP4 SLOAD DIV MUL DUP4 MSTORE SWAP2 PUSH1 0x20 ADD SWAP2 PUSH2 0x1259 JUMP JUMPDEST DUP3 ADD SWAP2 SWAP1 PUSH1 0x0 MSTORE PUSH1 0x20 PUSH1 0x0 KECCAK256 SWAP1 JUMPDEST DUP2 SLOAD DUP2 MSTORE SWAP1 PUSH1 0x1 ADD SWAP1 PUSH1 0x20 ADD DUP1 DUP4 GT PUSH2 0x123C JUMPI DUP3 SWAP1 SUB PUSH1 0x1F AND DUP3 ADD SWAP2 JUMPDEST POP POP POP POP POP SWAP1 DUP1 PUSH1 0x2 ADD DUP1 SLOAD PUSH2 0x126E SWAP1 PUSH2 0x3DFE JUMP JUMPDEST DUP1 PUSH1 0x1F ADD PUSH1 0x20 DUP1 SWAP2 DIV MUL PUSH1 0x20 ADD PUSH1 0x40 MLOAD SWAP1 DUP2 ADD PUSH1 0x40 MSTORE DUP1 SWAP3 SWAP2 SWAP1 DUP2 DUP2 MSTORE PUSH1 0x20 ADD DUP3 DUP1 SLOAD PUSH2 0x129A SWAP1 PUSH2 0x3DFE JUMP JUMPDEST DUP1 ISZERO PUSH2 0x12E7 JUMPI DUP1 PUSH1 0x1F LT PUSH2 0x12BC JUMPI PUSH2 0x100 DUP1 DUP4 SLOAD DIV MUL DUP4 MSTORE SWAP2 PUSH1 0x20 ADD SWAP2 PUSH2 0x12E7 JUMP JUMPDEST DUP3 ADD SWAP2 SWAP1 PUSH1 0x0 MSTORE PUSH1 0x20 PUSH1 0x0 KECCAK256 SWAP1 JUMPDEST DUP2 SLOAD DUP2 MSTORE SWAP1 PUSH1 0x1 ADD SWAP1 PUSH1 0x20 ADD DUP1 DUP4 GT PUSH2 0x12CA JUMPI DUP3 SWAP1 SUB PUSH1 0x1F AND DUP3 ADD SWAP2 JUMPDEST POP POP POP POP POP SWAP1 POP DUP5 JUMP JUMPDEST PUSH1 0xE PUSH1 0x0 CALLER PUSH20 0xFFFFFFFFFFFFFFFFFFFFFFFFFFFFFFFFFFFFFFFF AND PUSH20 0xFFFFFFFFFFFFFFFFFFFFFFFFFFFFFFFFFFFFFFFF AND DUP2 MSTORE PUSH1 0x20 ADD SWAP1 DUP2 MSTORE PUSH1 0x20 ADD PUSH1 0x0 KECCAK256 PUSH1 0x3 ADD PUSH1 0x0 SWAP1 SLOAD SWAP1 PUSH2 0x100 EXP SWAP1 DIV PUSH1 0xFF AND PUSH2 0x1380 JUMPI PUSH1 0x40 MLOAD PUSH32 0x8C379A000000000000000000000000000000000000000000000000000000000 DUP2 MSTORE PUSH1 0x4 ADD PUSH2 0x1377 SWAP1 PUSH2 0x406E JUMP JUMPDEST PUSH1 0x40 MLOAD DUP1 SWAP2 SUB SWAP1 REVERT JUMPDEST PUSH1 0x0 PUSH1 0xB PUSH1 0x0 CALLER PUSH20 0xFFFFFFFFFFFFFFFFFFFFFFFFFFFFFFFFFFFFFFFF AND PUSH20 0xFFFFFFFFFFFFFFFFFFFFFFFFFFFFFFFFFFFFFFFF AND DUP2 MSTORE PUSH1 0x20 ADD SWAP1 DUP2 MSTORE PUSH1 0x20 ADD PUSH1 0x0 KECCAK256 DUP4 DUP2 SLOAD DUP2 LT PUSH2 0x13D3 JUMPI PUSH2 0x13D2 PUSH2 0x408E JUMP JUMPDEST JUMPDEST SWAP1 PUSH1 0x0 MSTORE PUSH1 0x20 PUSH1 0x0 KECCAK256 SWAP1 PUSH1 0x9 MUL ADD SWAP1 POP CALLER PUSH20 0xFFFFFFFFFFFFFFFFFFFFFFFFFFFFFFFFFFFFFFFF AND DUP2 PUSH1 0x7 ADD PUSH1 0x0 SWAP1 SLOAD SWAP1 PUSH2 0x100 EXP SWAP1 DIV PUSH20 0xFFFFFFFFFFFFFFFFFFFFFFFFFFFFFFFFFFFFFFFF AND PUSH20 0xFFFFFFFFFFFFFFFFFFFFFFFFFFFFFFFFFFFFFFFF AND SUB PUSH2 0x1475 JUMPI PUSH1 0x40 MLOAD PUSH32 0x8C379A000000000000000000000000000000000000000000000000000000000 DUP2 MSTORE PUSH1 0x4 ADD PUSH2 0x146C SWAP1 PUSH2 0x412F JUMP JUMPDEST PUSH1 0x40 MLOAD DUP1 SWAP2 SUB SWAP1 REVERT JUMPDEST PUSH1 0x1 DUP2 PUSH1 0x8 ADD PUSH1 0x14 PUSH2 0x100 EXP DUP2 SLOAD DUP2 PUSH1 0xFF MUL NOT AND SWAP1 DUP4 ISZERO ISZERO MUL OR SWAP1 SSTORE POP DUP2 ISZERO PUSH2 0x16F5 JUMPI DUP1 PUSH1 0x0 ADD PUSH1 0xF PUSH1 0x0 DUP4 PUSH1 0x8 ADD PUSH1 0x0 SWAP1 SLOAD SWAP1 PUSH2 0x100 EXP SWAP1 DIV PUSH20 0xFFFFFFFFFFFFFFFFFFFFFFFFFFFFFFFFFFFFFFFF AND PUSH20 0xFFFFFFFFFFFFFFFFFFFFFFFFFFFFFFFFFFFFFFFF AND PUSH20 0xFFFFFFFFFFFFFFFFFFFFFFFFFFFFFFFFFFFFFFFF AND DUP2 MSTORE PUSH1 0x20 ADD SWAP1 DUP2 MSTORE PUSH1 0x20 ADD PUSH1 0x0 KECCAK256 PUSH1 0x0 DUP3 ADD PUSH1 0x0 SWAP1 SLOAD SWAP1 PUSH2 0x100 EXP SWAP1 DIV PUSH20 0xFFFFFFFFFFFFFFFFFFFFFFFFFFFFFFFFFFFFFFFF AND DUP2 PUSH1 0x0 ADD PUSH1 0x0 PUSH2 0x100 EXP DUP2 SLOAD DUP2 PUSH20 0xFFFFFFFFFFFFFFFFFFFFFFFFFFFFFFFFFFFFFFFF MUL NOT AND SWAP1 DUP4 PUSH20 0xFFFFFFFFFFFFFFFFFFFFFFFFFFFFFFFFFFFFFFFF AND MUL OR SWAP1 SSTORE POP PUSH1 0x1 DUP3 ADD SLOAD DUP2 PUSH1 0x1 ADD SSTORE PUSH1 0x2 DUP3 ADD SLOAD DUP2 PUSH1 0x2 ADD SSTORE PUSH1 0x3 DUP3 ADD SLOAD DUP2 PUSH1 0x3 ADD SSTORE PUSH1 0x4 DUP3 ADD SLOAD DUP2 PUSH1 0x4 ADD SSTORE PUSH1 0x5 DUP3 ADD PUSH1 0x0 SWAP1 SLOAD SWAP1 PUSH2 0x100 EXP SWAP1 DIV PUSH1 0xFF AND DUP2 PUSH1 0x5 ADD PUSH1 0x0 PUSH2 0x100 EXP DUP2 SLOAD DUP2 PUSH1 0xFF MUL NOT AND SWAP1 DUP4 ISZERO ISZERO MUL OR SWAP1 SSTORE POP PUSH1 0x6 DUP3 ADD SLOAD DUP2 PUSH1 0x6 ADD SSTORE SWAP1 POP POP PUSH1 0x1 PUSH1 0x0 DUP3 PUSH1 0x0 ADD PUSH1 0x4 ADD SLOAD DUP2 MSTORE PUSH1 0x20 ADD SWAP1 DUP2 MSTORE PUSH1 0x20 ADD PUSH1 0x0 KECCAK256 DUP2 PUSH1 0x0 ADD SWAP1 DUP1 PUSH1 0x1 DUP2 SLOAD ADD DUP1 DUP3 SSTORE DUP1 SWAP2 POP POP PUSH1 0x1 SWAP1 SUB SWAP1 PUSH1 0x0 MSTORE PUSH1 0x20 PUSH1 0x0 KECCAK256 SWAP1 PUSH1 0x7 MUL ADD PUSH1 0x0 SWAP1 SWAP2 SWAP1 SWAP2 SWAP1 SWAP2 POP PUSH1 0x0 DUP3 ADD PUSH1 0x0 SWAP1 SLOAD SWAP1 PUSH2 0x100 EXP SWAP1 DIV PUSH20 0xFFFFFFFFFFFFFFFFFFFFFFFFFFFFFFFFFFFFFFFF AND DUP2 PUSH1 0x0 ADD PUSH1 0x0 PUSH2 0x100 EXP DUP2 SLOAD DUP2 PUSH20 0xFFFFFFFFFFFFFFFFFFFFFFFFFFFFFFFFFFFFFFFF MUL NOT AND SWAP1 DUP4 PUSH20 0xFFFFFFFFFFFFFFFFFFFFFFFFFFFFFFFFFFFFFFFF AND MUL OR SWAP1 SSTORE POP PUSH1 0x1 DUP3 ADD SLOAD DUP2 PUSH1 0x1 ADD SSTORE PUSH1 0x2 DUP3 ADD SLOAD DUP2 PUSH1 0x2 ADD SSTORE PUSH1 0x3 DUP3 ADD SLOAD DUP2 PUSH1 0x3 ADD SSTORE PUSH1 0x4 DUP3 ADD SLOAD DUP2 PUSH1 0x4 ADD SSTORE PUSH1 0x5 DUP3 ADD PUSH1 0x0 SWAP1 SLOAD SWAP1 PUSH2 0x100 EXP SWAP1 DIV PUSH1 0xFF AND DUP2 PUSH1 0x5 ADD PUSH1 0x0 PUSH2 0x100 EXP DUP2 SLOAD DUP2 PUSH1 0xFF MUL NOT AND SWAP1 DUP4 ISZERO ISZERO MUL OR SWAP1 SSTORE POP PUSH1 0x6 DUP3 ADD SLOAD DUP2 PUSH1 0x6 ADD SSTORE POP POP PUSH1 0x1 DUP2 PUSH1 0x8 ADD PUSH1 0x14 PUSH2 0x100 EXP DUP2 SLOAD DUP2 PUSH1 0xFF MUL NOT AND SWAP1 DUP4 ISZERO ISZERO MUL OR SWAP1 SSTORE POP JUMPDEST CALLER PUSH20 0xFFFFFFFFFFFFFFFFFFFFFFFFFFFFFFFFFFFFFFFF AND PUSH32 0xD7314C5E85E24751B97C4AF5BF2002B2FC093E77D2D0A27785467743C21A176 PUSH1 0x40 MLOAD PUSH1 0x40 MLOAD DUP1 SWAP2 SUB SWAP1 LOG2 POP POP POP JUMP JUMPDEST PUSH1 0xE PUSH1 0x20 MSTORE DUP1 PUSH1 0x0 MSTORE PUSH1 0x40 PUSH1 0x0 KECCAK256 PUSH1 0x0 SWAP2 POP SWAP1 POP DUP1 PUSH1 0x0 ADD SLOAD SWAP1 DUP1 PUSH1 0x1 ADD SLOAD SWAP1 DUP1 PUSH1 0x2 ADD SLOAD SWAP1 DUP1 PUSH1 0x3 ADD PUSH1 0x0 SWAP1 SLOAD SWAP1 PUSH2 0x100 EXP SWAP1 DIV PUSH1 0xFF AND SWAP1 POP DUP5 JUMP JUMPDEST PUSH1 0x60 PUSH1 0xB PUSH1 0x0 CALLER PUSH20 0xFFFFFFFFFFFFFFFFFFFFFFFFFFFFFFFFFFFFFFFF AND PUSH20 0xFFFFFFFFFFFFFFFFFFFFFFFFFFFFFFFFFFFFFFFF AND DUP2 MSTORE PUSH1 0x20 ADD SWAP1 DUP2 MSTORE PUSH1 0x20 ADD PUSH1 0x0 KECCAK256 DUP1 SLOAD DUP1 PUSH1 0x20 MUL PUSH1 0x20 ADD PUSH1 0x40 MLOAD SWAP1 DUP2 ADD PUSH1 0x40 MSTORE DUP1 SWAP3 SWAP2 SWAP1 DUP2 DUP2 MSTORE PUSH1 0x20 ADD PUSH1 0x0 SWAP1 JUMPDEST DUP3 DUP3 LT ISZERO PUSH2 0x198B JUMPI DUP4 DUP3 SWAP1 PUSH1 0x0 MSTORE PUSH1 0x20 PUSH1 0x0 KECCAK256 SWAP1 PUSH1 0x9 MUL ADD PUSH1 0x40 MLOAD DUP1 PUSH1 0x80 ADD PUSH1 0x40 MSTORE SWAP1 DUP2 PUSH1 0x0 DUP3 ADD PUSH1 0x40 MLOAD DUP1 PUSH1 0xE0 ADD PUSH1 0x40 MSTORE SWAP1 DUP2 PUSH1 0x0 DUP3 ADD PUSH1 0x0 SWAP1 SLOAD SWAP1 PUSH2 0x100 EXP SWAP1 DIV PUSH20 0xFFFFFFFFFFFFFFFFFFFFFFFFFFFFFFFFFFFFFFFF AND PUSH20 0xFFFFFFFFFFFFFFFFFFFFFFFFFFFFFFFFFFFFFFFF AND PUSH20 0xFFFFFFFFFFFFFFFFFFFFFFFFFFFFFFFFFFFFFFFF AND DUP2 MSTORE PUSH1 0x20 ADD PUSH1 0x1 DUP3 ADD SLOAD DUP2 MSTORE PUSH1 0x20 ADD PUSH1 0x2 DUP3 ADD SLOAD DUP2 MSTORE PUSH1 0x20 ADD PUSH1 0x3 DUP3 ADD SLOAD DUP2 MSTORE PUSH1 0x20 ADD PUSH1 0x4 DUP3 ADD SLOAD DUP2 MSTORE PUSH1 0x20 ADD PUSH1 0x5 DUP3 ADD PUSH1 0x0 SWAP1 SLOAD SWAP1 PUSH2 0x100 EXP SWAP1 DIV PUSH1 0xFF AND ISZERO ISZERO ISZERO ISZERO DUP2 MSTORE PUSH1 0x20 ADD PUSH1 0x6 DUP3 ADD SLOAD DUP2 MSTORE POP POP DUP2 MSTORE PUSH1 0x20 ADD PUSH1 0x7 DUP3 ADD PUSH1 0x0 SWAP1 SLOAD SWAP1 PUSH2 0x100 EXP SWAP1 DIV PUSH20 0xFFFFFFFFFFFFFFFFFFFFFFFFFFFFFFFFFFFFFFFF AND PUSH20 0xFFFFFFFFFFFFFFFFFFFFFFFFFFFFFFFFFFFFFFFF AND PUSH20 0xFFFFFFFFFFFFFFFFFFFFFFFFFFFFFFFFFFFFFFFF AND DUP2 MSTORE PUSH1 0x20 ADD PUSH1 0x8 DUP3 ADD PUSH1 0x0 SWAP1 SLOAD SWAP1 PUSH2 0x100 EXP SWAP1 DIV PUSH20 0xFFFFFFFFFFFFFFFFFFFFFFFFFFFFFFFFFFFFFFFF AND PUSH20 0xFFFFFFFFFFFFFFFFFFFFFFFFFFFFFFFFFFFFFFFF AND PUSH20 0xFFFFFFFFFFFFFFFFFFFFFFFFFFFFFFFFFFFFFFFF AND DUP2 MSTORE PUSH1 0x20 ADD PUSH1 0x8 DUP3 ADD PUSH1 0x14 SWAP1 SLOAD SWAP1 PUSH2 0x100 EXP SWAP1 DIV PUSH1 0xFF AND ISZERO ISZERO ISZERO ISZERO DUP2 MSTORE POP POP DUP2 MSTORE PUSH1 0x20 ADD SWAP1 PUSH1 0x1 ADD SWAP1 PUSH2 0x17DB JUMP JUMPDEST POP POP POP POP SWAP1 POP SWAP1 JUMP JUMPDEST PUSH1 0x0 DUP1 PUSH1 0x1 PUSH1 0x0 DUP6 DUP2 MSTORE PUSH1 0x20 ADD SWAP1 DUP2 MSTORE PUSH1 0x20 ADD PUSH1 0x0 KECCAK256 DUP1 SLOAD DUP1 PUSH1 0x20 MUL PUSH1 0x20 ADD PUSH1 0x40 MLOAD SWAP1 DUP2 ADD PUSH1 0x40 MSTORE DUP1 SWAP3 SWAP2 SWAP1 DUP2 DUP2 MSTORE PUSH1 0x20 ADD PUSH1 0x0 SWAP1 JUMPDEST DUP3 DUP3 LT ISZERO PUSH2 0x1A9F JUMPI DUP4 DUP3 SWAP1 PUSH1 0x0 MSTORE PUSH1 0x20 PUSH1 0x0 KECCAK256 SWAP1 PUSH1 0x7 MUL ADD PUSH1 0x40 MLOAD DUP1 PUSH1 0xE0 ADD PUSH1 0x40 MSTORE SWAP1 DUP2 PUSH1 0x0 DUP3 ADD PUSH1 0x0 SWAP1 SLOAD SWAP1 PUSH2 0x100 EXP SWAP1 DIV PUSH20 0xFFFFFFFFFFFFFFFFFFFFFFFFFFFFFFFFFFFFFFFF AND PUSH20 0xFFFFFFFFFFFFFFFFFFFFFFFFFFFFFFFFFFFFFFFF AND PUSH20 0xFFFFFFFFFFFFFFFFFFFFFFFFFFFFFFFFFFFFFFFF AND DUP2 MSTORE PUSH1 0x20 ADD PUSH1 0x1 DUP3 ADD SLOAD DUP2 MSTORE PUSH1 0x20 ADD PUSH1 0x2 DUP3 ADD SLOAD DUP2 MSTORE PUSH1 0x20 ADD PUSH1 0x3 DUP3 ADD SLOAD DUP2 MSTORE PUSH1 0x20 ADD PUSH1 0x4 DUP3 ADD SLOAD DUP2 MSTORE PUSH1 0x20 ADD PUSH1 0x5 DUP3 ADD PUSH1 0x0 SWAP1 SLOAD SWAP1 PUSH2 0x100 EXP SWAP1 DIV PUSH1 0xFF AND ISZERO ISZERO ISZERO ISZERO DUP2 MSTORE PUSH1 0x20 ADD PUSH1 0x6 DUP3 ADD SLOAD DUP2 MSTORE POP POP DUP2 MSTORE PUSH1 0x20 ADD SWAP1 PUSH1 0x1 ADD SWAP1 PUSH2 0x19CA JUMP JUMPDEST POP POP POP POP SWAP1 POP PUSH1 0x60 PUSH1 0x0 JUMPDEST DUP3 MLOAD DUP2 LT ISZERO PUSH2 0x1C93 JUMPI PUSH2 0x1C62 PUSH2 0x1C36 PUSH2 0x1B9C PUSH2 0x1B70 PUSH2 0x1B44 PUSH2 0x1B18 PUSH2 0x1AEC DUP10 DUP9 DUP2 MLOAD DUP2 LT PUSH2 0x1ADB JUMPI PUSH2 0x1ADA PUSH2 0x408E JUMP JUMPDEST JUMPDEST PUSH1 0x20 MUL PUSH1 0x20 ADD ADD MLOAD PUSH1 0x0 ADD MLOAD PUSH2 0x20D1 JUMP JUMPDEST PUSH2 0x1B13 DUP11 DUP10 DUP2 MLOAD DUP2 LT PUSH2 0x1B02 JUMPI PUSH2 0x1B01 PUSH2 0x408E JUMP JUMPDEST JUMPDEST PUSH1 0x20 MUL PUSH1 0x20 ADD ADD MLOAD PUSH1 0x20 ADD MLOAD PUSH2 0x20FE JUMP JUMPDEST PUSH2 0x21CC JUMP JUMPDEST PUSH2 0x1B3F DUP10 DUP9 DUP2 MLOAD DUP2 LT PUSH2 0x1B2E JUMPI PUSH2 0x1B2D PUSH2 0x408E JUMP JUMPDEST JUMPDEST PUSH1 0x20 MUL PUSH1 0x20 ADD ADD MLOAD PUSH1 0x40 ADD MLOAD PUSH2 0x20FE JUMP JUMPDEST PUSH2 0x21CC JUMP JUMPDEST PUSH2 0x1B6B DUP9 DUP8 DUP2 MLOAD DUP2 LT PUSH2 0x1B5A JUMPI PUSH2 0x1B59 PUSH2 0x408E JUMP JUMPDEST JUMPDEST PUSH1 0x20 MUL PUSH1 0x20 ADD ADD MLOAD PUSH1 0x60 ADD MLOAD PUSH2 0x20FE JUMP JUMPDEST PUSH2 0x21CC JUMP JUMPDEST PUSH2 0x1B97 DUP8 DUP7 DUP2 MLOAD DUP2 LT PUSH2 0x1B86 JUMPI PUSH2 0x1B85 PUSH2 0x408E JUMP JUMPDEST JUMPDEST PUSH1 0x20 MUL PUSH1 0x20 ADD ADD MLOAD PUSH1 0x80 ADD MLOAD PUSH2 0x20FE JUMP JUMPDEST PUSH2 0x21CC JUMP JUMPDEST DUP6 DUP5 DUP2 MLOAD DUP2 LT PUSH2 0x1BAF JUMPI PUSH2 0x1BAE PUSH2 0x408E JUMP JUMPDEST JUMPDEST PUSH1 0x20 MUL PUSH1 0x20 ADD ADD MLOAD PUSH1 0xA0 ADD MLOAD PUSH2 0x1BFA JUMPI PUSH1 0x40 MLOAD DUP1 PUSH1 0x40 ADD PUSH1 0x40 MSTORE DUP1 PUSH1 0x5 DUP2 MSTORE PUSH1 0x20 ADD PUSH32 0x66616C7365000000000000000000000000000000000000000000000000000000 DUP2 MSTORE POP PUSH2 0x1C31 JUMP JUMPDEST PUSH1 0x40 MLOAD DUP1 PUSH1 0x40 ADD PUSH1 0x40 MSTORE DUP1 PUSH1 0x4 DUP2 MSTORE PUSH1 0x20 ADD PUSH32 0x7472756500000000000000000000000000000000000000000000000000000000 DUP2 MSTORE POP JUMPDEST PUSH2 0x21CC JUMP JUMPDEST PUSH2 0x1C5D DUP6 DUP5 DUP2 MLOAD DUP2 LT PUSH2 0x1C4C JUMPI PUSH2 0x1C4B PUSH2 0x408E JUMP JUMPDEST JUMPDEST PUSH1 0x20 MUL PUSH1 0x20 ADD ADD MLOAD PUSH1 0xC0 ADD MLOAD PUSH2 0x20FE JUMP JUMPDEST PUSH2 0x21CC JUMP JUMPDEST DUP3 DUP3 DUP2 MLOAD DUP2 LT PUSH2 0x1C75 JUMPI PUSH2 0x1C74 PUSH2 0x408E JUMP JUMPDEST JUMPDEST PUSH1 0x20 MUL PUSH1 0x20 ADD ADD DUP2 SWAP1 MSTORE POP DUP1 DUP1 PUSH2 0x1C8B SWAP1 PUSH2 0x414F JUMP JUMPDEST SWAP2 POP POP PUSH2 0x1AAA JUMP JUMPDEST POP PUSH1 0x0 PUSH1 0x1 PUSH8 0xFFFFFFFFFFFFFFFF DUP2 GT ISZERO PUSH2 0x1CB1 JUMPI PUSH2 0x1CB0 PUSH2 0x33DF JUMP JUMPDEST JUMPDEST PUSH1 0x40 MLOAD SWAP1 DUP1 DUP3 MSTORE DUP1 PUSH1 0x20 MUL PUSH1 0x20 ADD DUP3 ADD PUSH1 0x40 MSTORE DUP1 ISZERO PUSH2 0x1CE4 JUMPI DUP2 PUSH1 0x20 ADD JUMPDEST PUSH1 0x60 DUP2 MSTORE PUSH1 0x20 ADD SWAP1 PUSH1 0x1 SWAP1 SUB SWAP1 DUP2 PUSH2 0x1CCF JUMPI SWAP1 POP JUMPDEST POP SWAP1 POP PUSH2 0x1CEF PUSH2 0x310E JUMP JUMPDEST PUSH2 0x1D8C PUSH1 0xA DUP1 SLOAD PUSH2 0x1CFF SWAP1 PUSH2 0x3DFE JUMP JUMPDEST DUP1 PUSH1 0x1F ADD PUSH1 0x20 DUP1 SWAP2 DIV MUL PUSH1 0x20 ADD PUSH1 0x40 MLOAD SWAP1 DUP2 ADD PUSH1 0x40 MSTORE DUP1 SWAP3 SWAP2 SWAP1 DUP2 DUP2 MSTORE PUSH1 0x20 ADD DUP3 DUP1 SLOAD PUSH2 0x1D2B SWAP1 PUSH2 0x3DFE JUMP JUMPDEST DUP1 ISZERO PUSH2 0x1D78 JUMPI DUP1 PUSH1 0x1F LT PUSH2 0x1D4D JUMPI PUSH2 0x100 DUP1 DUP4 SLOAD DIV MUL DUP4 MSTORE SWAP2 PUSH1 0x20 ADD SWAP2 PUSH2 0x1D78 JUMP JUMPDEST DUP3 ADD SWAP2 SWAP1 PUSH1 0x0 MSTORE PUSH1 0x20 PUSH1 0x0 KECCAK256 SWAP1 JUMPDEST DUP2 SLOAD DUP2 MSTORE SWAP1 PUSH1 0x1 ADD SWAP1 PUSH1 0x20 ADD DUP1 DUP4 GT PUSH2 0x1D5B JUMPI DUP3 SWAP1 SUB PUSH1 0x1F AND DUP3 ADD SWAP2 JUMPDEST POP POP POP POP POP DUP3 PUSH2 0x21F8 SWAP1 SWAP2 SWAP1 PUSH4 0xFFFFFFFF AND JUMP JUMPDEST PUSH1 0x0 DUP3 MLOAD GT ISZERO PUSH2 0x1DAA JUMPI PUSH2 0x1DA9 DUP4 DUP3 PUSH2 0x2209 SWAP1 SWAP2 SWAP1 PUSH4 0xFFFFFFFF AND JUMP JUMPDEST JUMPDEST PUSH2 0x1DE8 PUSH2 0x1DB6 DUP3 PUSH2 0x2251 JUMP JUMPDEST PUSH1 0x9 PUSH1 0x4 SWAP1 SLOAD SWAP1 PUSH2 0x100 EXP SWAP1 DIV PUSH8 0xFFFFFFFFFFFFFFFF AND PUSH1 0x9 PUSH1 0x0 SWAP1 SLOAD SWAP1 PUSH2 0x100 EXP SWAP1 DIV PUSH4 0xFFFFFFFF AND PUSH1 0x8 SLOAD PUSH2 0x266D JUMP JUMPDEST PUSH1 0x2 DUP2 SWAP1 SSTORE POP PUSH1 0x40 MLOAD DUP1 PUSH1 0x80 ADD PUSH1 0x40 MSTORE DUP1 PUSH1 0x0 ISZERO ISZERO DUP2 MSTORE PUSH1 0x20 ADD PUSH1 0x1 ISZERO ISZERO DUP2 MSTORE PUSH1 0x20 ADD PUSH1 0x40 MLOAD DUP1 PUSH1 0x20 ADD PUSH1 0x40 MSTORE DUP1 PUSH1 0x0 DUP2 MSTORE POP DUP2 MSTORE PUSH1 0x20 ADD PUSH1 0x40 MLOAD DUP1 PUSH1 0x20 ADD PUSH1 0x40 MSTORE DUP1 PUSH1 0x0 DUP2 MSTORE POP DUP2 MSTORE POP PUSH1 0x5 PUSH1 0x0 PUSH1 0x2 SLOAD DUP2 MSTORE PUSH1 0x20 ADD SWAP1 DUP2 MSTORE PUSH1 0x20 ADD PUSH1 0x0 KECCAK256 PUSH1 0x0 DUP3 ADD MLOAD DUP2 PUSH1 0x0 ADD PUSH1 0x0 PUSH2 0x100 EXP DUP2 SLOAD DUP2 PUSH1 0xFF MUL NOT AND SWAP1 DUP4 ISZERO ISZERO MUL OR SWAP1 SSTORE POP PUSH1 0x20 DUP3 ADD MLOAD DUP2 PUSH1 0x0 ADD PUSH1 0x1 PUSH2 0x100 EXP DUP2 SLOAD DUP2 PUSH1 0xFF MUL NOT AND SWAP1 DUP4 ISZERO ISZERO MUL OR SWAP1 SSTORE POP PUSH1 0x40 DUP3 ADD MLOAD DUP2 PUSH1 0x1 ADD SWAP1 DUP2 PUSH2 0x1E9D SWAP2 SWAP1 PUSH2 0x4343 JUMP JUMPDEST POP PUSH1 0x60 DUP3 ADD MLOAD DUP2 PUSH1 0x2 ADD SWAP1 DUP2 PUSH2 0x1EB3 SWAP2 SWAP1 PUSH2 0x4343 JUMP JUMPDEST POP SWAP1 POP POP PUSH1 0x6 PUSH1 0x2 SLOAD SWAP1 DUP1 PUSH1 0x1 DUP2 SLOAD ADD DUP1 DUP3 SSTORE DUP1 SWAP2 POP POP PUSH1 0x1 SWAP1 SUB SWAP1 PUSH1 0x0 MSTORE PUSH1 0x20 PUSH1 0x0 KECCAK256 ADD PUSH1 0x0 SWAP1 SWAP2 SWAP1 SWAP2 SWAP1 SWAP2 POP SSTORE PUSH1 0x2 SLOAD SWAP5 POP POP POP POP POP SWAP3 SWAP2 POP POP JUMP JUMPDEST PUSH1 0x1 PUSH1 0x20 MSTORE DUP2 PUSH1 0x0 MSTORE PUSH1 0x40 PUSH1 0x0 KECCAK256 DUP2 DUP2 SLOAD DUP2 LT PUSH2 0x1F0D JUMPI PUSH1 0x0 DUP1 REVERT JUMPDEST SWAP1 PUSH1 0x0 MSTORE PUSH1 0x20 PUSH1 0x0 KECCAK256 SWAP1 PUSH1 0x7 MUL ADD PUSH1 0x0 SWAP2 POP SWAP2 POP POP DUP1 PUSH1 0x0 ADD PUSH1 0x0 SWAP1 SLOAD SWAP1 PUSH2 0x100 EXP SWAP1 DIV PUSH20 0xFFFFFFFFFFFFFFFFFFFFFFFFFFFFFFFFFFFFFFFF AND SWAP1 DUP1 PUSH1 0x1 ADD SLOAD SWAP1 DUP1 PUSH1 0x2 ADD SLOAD SWAP1 DUP1 PUSH1 0x3 ADD SLOAD SWAP1 DUP1 PUSH1 0x4 ADD SLOAD SWAP1 DUP1 PUSH1 0x5 ADD PUSH1 0x0 SWAP1 SLOAD SWAP1 PUSH2 0x100 EXP SWAP1 DIV PUSH1 0xFF AND SWAP1 DUP1 PUSH1 0x6 ADD SLOAD SWAP1 POP DUP8 JUMP JUMPDEST PUSH1 0x2 SLOAD DUP2 JUMP JUMPDEST PUSH1 0x5 PUSH1 0x0 DUP5 DUP2 MSTORE PUSH1 0x20 ADD SWAP1 DUP2 MSTORE PUSH1 0x20 ADD PUSH1 0x0 KECCAK256 PUSH1 0x0 ADD PUSH1 0x1 SWAP1 SLOAD SWAP1 PUSH2 0x100 EXP SWAP1 DIV PUSH1 0xFF AND PUSH2 0x1FE6 JUMPI PUSH1 0x40 MLOAD PUSH32 0x8C379A000000000000000000000000000000000000000000000000000000000 DUP2 MSTORE PUSH1 0x4 ADD PUSH2 0x1FDD SWAP1 PUSH2 0x4461 JUMP JUMPDEST PUSH1 0x40 MLOAD DUP1 SWAP2 SUB SWAP1 REVERT JUMPDEST DUP1 PUSH1 0x4 SWAP1 DUP2 PUSH2 0x1FF5 SWAP2 SWAP1 PUSH2 0x4343 JUMP JUMPDEST POP DUP2 PUSH1 0x3 SWAP1 DUP2 PUSH2 0x2005 SWAP2 SWAP1 PUSH2 0x4343 JUMP JUMPDEST POP PUSH1 0x1 PUSH1 0x5 PUSH1 0x0 DUP6 DUP2 MSTORE PUSH1 0x20 ADD SWAP1 DUP2 MSTORE PUSH1 0x20 ADD PUSH1 0x0 KECCAK256 PUSH1 0x0 ADD PUSH1 0x0 PUSH2 0x100 EXP DUP2 SLOAD DUP2 PUSH1 0xFF MUL NOT AND SWAP1 DUP4 ISZERO ISZERO MUL OR SWAP1 SSTORE POP DUP2 PUSH1 0x5 PUSH1 0x0 DUP6 DUP2 MSTORE PUSH1 0x20 ADD SWAP1 DUP2 MSTORE PUSH1 0x20 ADD PUSH1 0x0 KECCAK256 PUSH1 0x1 ADD SWAP1 DUP2 PUSH2 0x2058 SWAP2 SWAP1 PUSH2 0x4343 JUMP JUMPDEST POP DUP1 PUSH1 0x5 PUSH1 0x0 DUP6 DUP2 MSTORE PUSH1 0x20 ADD SWAP1 DUP2 MSTORE PUSH1 0x20 ADD PUSH1 0x0 KECCAK256 PUSH1 0x2 ADD SWAP1 DUP2 PUSH2 0x207C SWAP2 SWAP1 PUSH2 0x4343 JUMP JUMPDEST POP DUP2 PUSH1 0x0 SWAP1 DUP2 PUSH2 0x208C SWAP2 SWAP1 PUSH2 0x44DC JUMP JUMPDEST POP DUP3 PUSH32 0x160ED0AAFFBEF6885155188B91459CB5A97D5DAADCCF7561D8C46DEEA6641B50 PUSH1 0x0 PUSH1 0x3 PUSH1 0x4 PUSH1 0x40 MLOAD PUSH2 0x20C4 SWAP4 SWAP3 SWAP2 SWAP1 PUSH2 0x46B6 JUMP JUMPDEST PUSH1 0x40 MLOAD DUP1 SWAP2 SUB SWAP1 LOG2 POP POP POP JUMP JUMPDEST PUSH1 0x60 PUSH2 0x20F7 DUP3 PUSH20 0xFFFFFFFFFFFFFFFFFFFFFFFFFFFFFFFFFFFFFFFF AND PUSH1 0x14 PUSH1 0xFF AND PUSH2 0x2750 JUMP JUMPDEST SWAP1 POP SWAP2 SWAP1 POP JUMP JUMPDEST PUSH1 0x60 PUSH1 0x0 PUSH1 0x1 PUSH2 0x210D DUP5 PUSH2 0x2996 JUMP JUMPDEST ADD SWAP1 POP PUSH1 0x0 DUP2 PUSH8 0xFFFFFFFFFFFFFFFF DUP2 GT ISZERO PUSH2 0x212C JUMPI PUSH2 0x212B PUSH2 0x33DF JUMP JUMPDEST JUMPDEST PUSH1 0x40 MLOAD SWAP1 DUP1 DUP3 MSTORE DUP1 PUSH1 0x1F ADD PUSH1 0x1F NOT AND PUSH1 0x20 ADD DUP3 ADD PUSH1 0x40 MSTORE DUP1 ISZERO PUSH2 0x215E JUMPI DUP2 PUSH1 0x20 ADD PUSH1 0x1 DUP3 MUL DUP1 CALLDATASIZE DUP4 CALLDATACOPY DUP1 DUP3 ADD SWAP2 POP POP SWAP1 POP JUMPDEST POP SWAP1 POP PUSH1 0x0 DUP3 PUSH1 0x20 ADD DUP3 ADD SWAP1 POP JUMPDEST PUSH1 0x1 ISZERO PUSH2 0x21C1 JUMPI DUP1 DUP1 PUSH1 0x1 SWAP1 SUB SWAP2 POP POP PUSH32 0x3031323334353637383961626364656600000000000000000000000000000000 PUSH1 0xA DUP7 MOD BYTE DUP2 MSTORE8 PUSH1 0xA DUP6 DUP2 PUSH2 0x21B5 JUMPI PUSH2 0x21B4 PUSH2 0x4702 JUMP JUMPDEST JUMPDEST DIV SWAP5 POP PUSH1 0x0 DUP6 SUB PUSH2 0x216C JUMPI JUMPDEST DUP2 SWAP4 POP POP POP POP SWAP2 SWAP1 POP JUMP JUMPDEST PUSH1 0x60 DUP3 DUP3 PUSH1 0x40 MLOAD PUSH1 0x20 ADD PUSH2 0x21E1 SWAP3 SWAP2 SWAP1 PUSH2 0x476D JUMP JUMPDEST PUSH1 0x40 MLOAD PUSH1 0x20 DUP2 DUP4 SUB SUB DUP2 MSTORE SWAP1 PUSH1 0x40 MSTORE SWAP1 POP SWAP3 SWAP2 POP POP JUMP JUMPDEST PUSH2 0x2205 DUP3 PUSH1 0x0 DUP1 DUP5 PUSH2 0x2AE9 JUMP JUMPDEST POP POP JUMP JUMPDEST PUSH1 0x0 DUP2 MLOAD SUB PUSH2 0x2244 JUMPI PUSH1 0x40 MLOAD PUSH32 0xFE936CB700000000000000000000000000000000000000000000000000000000 DUP2 MSTORE PUSH1 0x4 ADD PUSH1 0x40 MLOAD DUP1 SWAP2 SUB SWAP1 REVERT JUMPDEST DUP1 DUP3 PUSH1 0xA0 ADD DUP2 SWAP1 MSTORE POP POP POP JUMP JUMPDEST PUSH1 0x60 PUSH1 0x0 PUSH2 0x2260 PUSH2 0x100 PUSH2 0x2B93 JUMP JUMPDEST SWAP1 POP PUSH2 0x22AA PUSH1 0x40 MLOAD DUP1 PUSH1 0x40 ADD PUSH1 0x40 MSTORE DUP1 PUSH1 0xC DUP2 MSTORE PUSH1 0x20 ADD PUSH32 0x636F64654C6F636174696F6E0000000000000000000000000000000000000000 DUP2 MSTORE POP DUP3 PUSH2 0x2BBA SWAP1 SWAP2 SWAP1 PUSH4 0xFFFFFFFF AND JUMP JUMPDEST PUSH2 0x22D3 DUP4 PUSH1 0x0 ADD MLOAD PUSH1 0x2 DUP2 GT ISZERO PUSH2 0x22C4 JUMPI PUSH2 0x22C3 PUSH2 0x4791 JUMP JUMPDEST JUMPDEST DUP3 PUSH2 0x2BE3 SWAP1 SWAP2 SWAP1 PUSH4 0xFFFFFFFF AND JUMP JUMPDEST PUSH2 0x231B PUSH1 0x40 MLOAD DUP1 PUSH1 0x40 ADD PUSH1 0x40 MSTORE DUP1 PUSH1 0x8 DUP2 MSTORE PUSH1 0x20 ADD PUSH32 0x6C616E6775616765000000000000000000000000000000000000000000000000 DUP2 MSTORE POP DUP3 PUSH2 0x2BBA SWAP1 SWAP2 SWAP1 PUSH4 0xFFFFFFFF AND JUMP JUMPDEST PUSH2 0x2344 DUP4 PUSH1 0x40 ADD MLOAD PUSH1 0x0 DUP2 GT ISZERO PUSH2 0x2335 JUMPI PUSH2 0x2334 PUSH2 0x4791 JUMP JUMPDEST JUMPDEST DUP3 PUSH2 0x2BE3 SWAP1 SWAP2 SWAP1 PUSH4 0xFFFFFFFF AND JUMP JUMPDEST PUSH2 0x238C PUSH1 0x40 MLOAD DUP1 PUSH1 0x40 ADD PUSH1 0x40 MSTORE DUP1 PUSH1 0x6 DUP2 MSTORE PUSH1 0x20 ADD PUSH32 0x736F757263650000000000000000000000000000000000000000000000000000 DUP2 MSTORE POP DUP3 PUSH2 0x2BBA SWAP1 SWAP2 SWAP1 PUSH4 0xFFFFFFFF AND JUMP JUMPDEST PUSH2 0x23A3 DUP4 PUSH1 0x60 ADD MLOAD DUP3 PUSH2 0x2BBA SWAP1 SWAP2 SWAP1 PUSH4 0xFFFFFFFF AND JUMP JUMPDEST PUSH1 0x0 DUP4 PUSH1 0xA0 ADD MLOAD MLOAD GT ISZERO PUSH2 0x245F JUMPI PUSH2 0x23F9 PUSH1 0x40 MLOAD DUP1 PUSH1 0x40 ADD PUSH1 0x40 MSTORE DUP1 PUSH1 0x4 DUP2 MSTORE PUSH1 0x20 ADD PUSH32 0x6172677300000000000000000000000000000000000000000000000000000000 DUP2 MSTORE POP DUP3 PUSH2 0x2BBA SWAP1 SWAP2 SWAP1 PUSH4 0xFFFFFFFF AND JUMP JUMPDEST PUSH2 0x2402 DUP2 PUSH2 0x2C33 JUMP JUMPDEST PUSH1 0x0 JUMPDEST DUP4 PUSH1 0xA0 ADD MLOAD MLOAD DUP2 LT ISZERO PUSH2 0x2454 JUMPI PUSH2 0x2443 DUP5 PUSH1 0xA0 ADD MLOAD DUP3 DUP2 MLOAD DUP2 LT PUSH2 0x242C JUMPI PUSH2 0x242B PUSH2 0x408E JUMP JUMPDEST JUMPDEST PUSH1 0x20 MUL PUSH1 0x20 ADD ADD MLOAD DUP4 PUSH2 0x2BBA SWAP1 SWAP2 SWAP1 PUSH4 0xFFFFFFFF AND JUMP JUMPDEST DUP1 PUSH2 0x244D SWAP1 PUSH2 0x414F JUMP JUMPDEST SWAP1 POP PUSH2 0x2405 JUMP JUMPDEST POP PUSH2 0x245E DUP2 PUSH2 0x2C5B JUMP JUMPDEST JUMPDEST PUSH1 0x0 DUP4 PUSH1 0x80 ADD MLOAD MLOAD GT ISZERO PUSH2 0x25A0 JUMPI PUSH1 0x0 PUSH1 0x2 DUP2 GT ISZERO PUSH2 0x2481 JUMPI PUSH2 0x2480 PUSH2 0x4791 JUMP JUMPDEST JUMPDEST DUP4 PUSH1 0x20 ADD MLOAD PUSH1 0x2 DUP2 GT ISZERO PUSH2 0x2498 JUMPI PUSH2 0x2497 PUSH2 0x4791 JUMP JUMPDEST JUMPDEST SUB PUSH2 0x24CF JUMPI PUSH1 0x40 MLOAD PUSH32 0xA80D31F700000000000000000000000000000000000000000000000000000000 DUP2 MSTORE PUSH1 0x4 ADD PUSH1 0x40 MLOAD DUP1 SWAP2 SUB SWAP1 REVERT JUMPDEST PUSH2 0x2517 PUSH1 0x40 MLOAD DUP1 PUSH1 0x40 ADD PUSH1 0x40 MSTORE DUP1 PUSH1 0xF DUP2 MSTORE PUSH1 0x20 ADD PUSH32 0x736563726574734C6F636174696F6E0000000000000000000000000000000000 DUP2 MSTORE POP DUP3 PUSH2 0x2BBA SWAP1 SWAP2 SWAP1 PUSH4 0xFFFFFFFF AND JUMP JUMPDEST PUSH2 0x2540 DUP4 PUSH1 0x20 ADD MLOAD PUSH1 0x2 DUP2 GT ISZERO PUSH2 0x2531 JUMPI PUSH2 0x2530 PUSH2 0x4791 JUMP JUMPDEST JUMPDEST DUP3 PUSH2 0x2BE3 SWAP1 SWAP2 SWAP1 PUSH4 0xFFFFFFFF AND JUMP JUMPDEST PUSH2 0x2588 PUSH1 0x40 MLOAD DUP1 PUSH1 0x40 ADD PUSH1 0x40 MSTORE DUP1 PUSH1 0x7 DUP2 MSTORE PUSH1 0x20 ADD PUSH32 0x7365637265747300000000000000000000000000000000000000000000000000 DUP2 MSTORE POP DUP3 PUSH2 0x2BBA SWAP1 SWAP2 SWAP1 PUSH4 0xFFFFFFFF AND JUMP JUMPDEST PUSH2 0x259F DUP4 PUSH1 0x80 ADD MLOAD DUP3 PUSH2 0x2C83 SWAP1 SWAP2 SWAP1 PUSH4 0xFFFFFFFF AND JUMP JUMPDEST JUMPDEST PUSH1 0x0 DUP4 PUSH1 0xC0 ADD MLOAD MLOAD GT ISZERO PUSH2 0x265C JUMPI PUSH2 0x25F6 PUSH1 0x40 MLOAD DUP1 PUSH1 0x40 ADD PUSH1 0x40 MSTORE DUP1 PUSH1 0x9 DUP2 MSTORE PUSH1 0x20 ADD PUSH32 0x6279746573417267730000000000000000000000000000000000000000000000 DUP2 MSTORE POP DUP3 PUSH2 0x2BBA SWAP1 SWAP2 SWAP1 PUSH4 0xFFFFFFFF AND JUMP JUMPDEST PUSH2 0x25FF DUP2 PUSH2 0x2C33 JUMP JUMPDEST PUSH1 0x0 JUMPDEST DUP4 PUSH1 0xC0 ADD MLOAD MLOAD DUP2 LT ISZERO PUSH2 0x2651 JUMPI PUSH2 0x2640 DUP5 PUSH1 0xC0 ADD MLOAD DUP3 DUP2 MLOAD DUP2 LT PUSH2 0x2629 JUMPI PUSH2 0x2628 PUSH2 0x408E JUMP JUMPDEST JUMPDEST PUSH1 0x20 MUL PUSH1 0x20 ADD ADD MLOAD DUP4 PUSH2 0x2C83 SWAP1 SWAP2 SWAP1 PUSH4 0xFFFFFFFF AND JUMP JUMPDEST DUP1 PUSH2 0x264A SWAP1 PUSH2 0x414F JUMP JUMPDEST SWAP1 POP PUSH2 0x2602 JUMP JUMPDEST POP PUSH2 0x265B DUP2 PUSH2 0x2C5B JUMP JUMPDEST JUMPDEST DUP1 PUSH1 0x0 ADD MLOAD PUSH1 0x0 ADD MLOAD SWAP2 POP POP SWAP2 SWAP1 POP JUMP JUMPDEST PUSH1 0x0 DUP1 PUSH32 0x0 PUSH20 0xFFFFFFFFFFFFFFFFFFFFFFFFFFFFFFFFFFFFFFFF AND PUSH4 0x461D2762 DUP7 DUP9 PUSH1 0x1 DUP9 DUP9 PUSH1 0x40 MLOAD DUP7 PUSH4 0xFFFFFFFF AND PUSH1 0xE0 SHL DUP2 MSTORE PUSH1 0x4 ADD PUSH2 0x26D2 SWAP6 SWAP5 SWAP4 SWAP3 SWAP2 SWAP1 PUSH2 0x47FC JUMP JUMPDEST PUSH1 0x20 PUSH1 0x40 MLOAD DUP1 DUP4 SUB DUP2 PUSH1 0x0 DUP8 GAS CALL ISZERO DUP1 ISZERO PUSH2 0x26F1 JUMPI RETURNDATASIZE PUSH1 0x0 DUP1 RETURNDATACOPY RETURNDATASIZE PUSH1 0x0 REVERT JUMPDEST POP POP POP POP PUSH1 0x40 MLOAD RETURNDATASIZE PUSH1 0x1F NOT PUSH1 0x1F DUP3 ADD AND DUP3 ADD DUP1 PUSH1 0x40 MSTORE POP DUP2 ADD SWAP1 PUSH2 0x2715 SWAP2 SWAP1 PUSH2 0x486B JUMP JUMPDEST SWAP1 POP DUP1 PUSH32 0x1131472297A800FEE664D1D89CFA8F7676FF07189ECC53F80BBB5F4969099DB8 PUSH1 0x40 MLOAD PUSH1 0x40 MLOAD DUP1 SWAP2 SUB SWAP1 LOG2 DUP1 SWAP2 POP POP SWAP5 SWAP4 POP POP POP POP JUMP JUMPDEST PUSH1 0x60 PUSH1 0x0 DUP4 SWAP1 POP PUSH1 0x0 PUSH1 0x2 DUP5 PUSH1 0x2 PUSH2 0x2768 SWAP2 SWAP1 PUSH2 0x4898 JUMP JUMPDEST PUSH2 0x2772 SWAP2 SWAP1 PUSH2 0x3FEE JUMP JUMPDEST PUSH8 0xFFFFFFFFFFFFFFFF DUP2 GT ISZERO PUSH2 0x278B JUMPI PUSH2 0x278A PUSH2 0x33DF JUMP JUMPDEST JUMPDEST PUSH1 0x40 MLOAD SWAP1 DUP1 DUP3 MSTORE DUP1 PUSH1 0x1F ADD PUSH1 0x1F NOT AND PUSH1 0x20 ADD DUP3 ADD PUSH1 0x40 MSTORE DUP1 ISZERO PUSH2 0x27BD JUMPI DUP2 PUSH1 0x20 ADD PUSH1 0x1 DUP3 MUL DUP1 CALLDATASIZE DUP4 CALLDATACOPY DUP1 DUP3 ADD SWAP2 POP POP SWAP1 POP JUMPDEST POP SWAP1 POP PUSH32 0x3000000000000000000000000000000000000000000000000000000000000000 DUP2 PUSH1 0x0 DUP2 MLOAD DUP2 LT PUSH2 0x27F5 JUMPI PUSH2 0x27F4 PUSH2 0x408E JUMP JUMPDEST JUMPDEST PUSH1 0x20 ADD ADD SWAP1 PUSH31 0xFFFFFFFFFFFFFFFFFFFFFFFFFFFFFFFFFFFFFFFFFFFFFFFFFFFFFFFFFFFFFF NOT AND SWAP1 DUP2 PUSH1 0x0 BYTE SWAP1 MSTORE8 POP PUSH32 0x7800000000000000000000000000000000000000000000000000000000000000 DUP2 PUSH1 0x1 DUP2 MLOAD DUP2 LT PUSH2 0x2859 JUMPI PUSH2 0x2858 PUSH2 0x408E JUMP JUMPDEST JUMPDEST PUSH1 0x20 ADD ADD SWAP1 PUSH31 0xFFFFFFFFFFFFFFFFFFFFFFFFFFFFFFFFFFFFFFFFFFFFFFFFFFFFFFFFFFFFFF NOT AND SWAP1 DUP2 PUSH1 0x0 BYTE SWAP1 MSTORE8 POP PUSH1 0x0 PUSH1 0x1 DUP6 PUSH1 0x2 PUSH2 0x2899 SWAP2 SWAP1 PUSH2 0x4898 JUMP JUMPDEST PUSH2 0x28A3 SWAP2 SWAP1 PUSH2 0x3FEE JUMP JUMPDEST SWAP1 POP JUMPDEST PUSH1 0x1 DUP2 GT ISZERO PUSH2 0x2943 JUMPI PUSH32 0x3031323334353637383961626364656600000000000000000000000000000000 PUSH1 0xF DUP5 AND PUSH1 0x10 DUP2 LT PUSH2 0x28E5 JUMPI PUSH2 0x28E4 PUSH2 0x408E JUMP JUMPDEST JUMPDEST BYTE PUSH1 0xF8 SHL DUP3 DUP3 DUP2 MLOAD DUP2 LT PUSH2 0x28FC JUMPI PUSH2 0x28FB PUSH2 0x408E JUMP JUMPDEST JUMPDEST PUSH1 0x20 ADD ADD SWAP1 PUSH31 0xFFFFFFFFFFFFFFFFFFFFFFFFFFFFFFFFFFFFFFFFFFFFFFFFFFFFFFFFFFFFFF NOT AND SWAP1 DUP2 PUSH1 0x0 BYTE SWAP1 MSTORE8 POP PUSH1 0x4 DUP4 SWAP1 SHR SWAP3 POP DUP1 PUSH2 0x293C SWAP1 PUSH2 0x48DA JUMP JUMPDEST SWAP1 POP PUSH2 0x28A6 JUMP JUMPDEST POP PUSH1 0x0 DUP3 EQ PUSH2 0x298B JUMPI DUP5 DUP5 PUSH1 0x40 MLOAD PUSH32 0xE22E27EB00000000000000000000000000000000000000000000000000000000 DUP2 MSTORE PUSH1 0x4 ADD PUSH2 0x2982 SWAP3 SWAP2 SWAP1 PUSH2 0x4903 JUMP JUMPDEST PUSH1 0x40 MLOAD DUP1 SWAP2 SUB SWAP1 REVERT JUMPDEST DUP1 SWAP3 POP POP POP SWAP3 SWAP2 POP POP JUMP JUMPDEST PUSH1 0x0 DUP1 PUSH1 0x0 SWAP1 POP PUSH27 0x184F03E93FF9F4DAA797ED6E38ED64BF6A1F010000000000000000 DUP4 LT PUSH2 0x29F4 JUMPI PUSH27 0x184F03E93FF9F4DAA797ED6E38ED64BF6A1F010000000000000000 DUP4 DUP2 PUSH2 0x29EA JUMPI PUSH2 0x29E9 PUSH2 0x4702 JUMP JUMPDEST JUMPDEST DIV SWAP3 POP PUSH1 0x40 DUP2 ADD SWAP1 POP JUMPDEST PUSH14 0x4EE2D6D415B85ACEF8100000000 DUP4 LT PUSH2 0x2A31 JUMPI PUSH14 0x4EE2D6D415B85ACEF8100000000 DUP4 DUP2 PUSH2 0x2A27 JUMPI PUSH2 0x2A26 PUSH2 0x4702 JUMP JUMPDEST JUMPDEST DIV SWAP3 POP PUSH1 0x20 DUP2 ADD SWAP1 POP JUMPDEST PUSH7 0x2386F26FC10000 DUP4 LT PUSH2 0x2A60 JUMPI PUSH7 0x2386F26FC10000 DUP4 DUP2 PUSH2 0x2A56 JUMPI PUSH2 0x2A55 PUSH2 0x4702 JUMP JUMPDEST JUMPDEST DIV SWAP3 POP PUSH1 0x10 DUP2 ADD SWAP1 POP JUMPDEST PUSH4 0x5F5E100 DUP4 LT PUSH2 0x2A89 JUMPI PUSH4 0x5F5E100 DUP4 DUP2 PUSH2 0x2A7F JUMPI PUSH2 0x2A7E PUSH2 0x4702 JUMP JUMPDEST JUMPDEST DIV SWAP3 POP PUSH1 0x8 DUP2 ADD SWAP1 POP JUMPDEST PUSH2 0x2710 DUP4 LT PUSH2 0x2AAE JUMPI PUSH2 0x2710 DUP4 DUP2 PUSH2 0x2AA4 JUMPI PUSH2 0x2AA3 PUSH2 0x4702 JUMP JUMPDEST JUMPDEST DIV SWAP3 POP PUSH1 0x4 DUP2 ADD SWAP1 POP JUMPDEST PUSH1 0x64 DUP4 LT PUSH2 0x2AD1 JUMPI PUSH1 0x64 DUP4 DUP2 PUSH2 0x2AC7 JUMPI PUSH2 0x2AC6 PUSH2 0x4702 JUMP JUMPDEST JUMPDEST DIV SWAP3 POP PUSH1 0x2 DUP2 ADD SWAP1 POP JUMPDEST PUSH1 0xA DUP4 LT PUSH2 0x2AE0 JUMPI PUSH1 0x1 DUP2 ADD SWAP1 POP JUMPDEST DUP1 SWAP2 POP POP SWAP2 SWAP1 POP JUMP JUMPDEST PUSH1 0x0 DUP2 MLOAD SUB PUSH2 0x2B24 JUMPI PUSH1 0x40 MLOAD PUSH32 0x22CE3EDD00000000000000000000000000000000000000000000000000000000 DUP2 MSTORE PUSH1 0x4 ADD PUSH1 0x40 MLOAD DUP1 SWAP2 SUB SWAP1 REVERT JUMPDEST DUP3 DUP5 PUSH1 0x0 ADD SWAP1 PUSH1 0x2 DUP2 GT ISZERO PUSH2 0x2B3C JUMPI PUSH2 0x2B3B PUSH2 0x4791 JUMP JUMPDEST JUMPDEST SWAP1 DUP2 PUSH1 0x2 DUP2 GT ISZERO PUSH2 0x2B50 JUMPI PUSH2 0x2B4F PUSH2 0x4791 JUMP JUMPDEST JUMPDEST DUP2 MSTORE POP POP DUP2 DUP5 PUSH1 0x40 ADD SWAP1 PUSH1 0x0 DUP2 GT ISZERO PUSH2 0x2B6C JUMPI PUSH2 0x2B6B PUSH2 0x4791 JUMP JUMPDEST JUMPDEST SWAP1 DUP2 PUSH1 0x0 DUP2 GT ISZERO PUSH2 0x2B80 JUMPI PUSH2 0x2B7F PUSH2 0x4791 JUMP JUMPDEST JUMPDEST DUP2 MSTORE POP POP DUP1 DUP5 PUSH1 0x60 ADD DUP2 SWAP1 MSTORE POP POP POP POP POP JUMP JUMPDEST PUSH2 0x2B9B PUSH2 0x3180 JUMP JUMPDEST PUSH2 0x2BA9 DUP2 PUSH1 0x0 ADD MLOAD DUP4 PUSH2 0x2CAC JUMP JUMPDEST POP PUSH1 0x0 DUP2 PUSH1 0x20 ADD DUP2 DUP2 MSTORE POP POP SWAP2 SWAP1 POP JUMP JUMPDEST PUSH2 0x2BC7 DUP3 PUSH1 0x3 DUP4 MLOAD PUSH2 0x2D25 JUMP JUMPDEST PUSH2 0x2BDE DUP2 DUP4 PUSH1 0x0 ADD MLOAD PUSH2 0x2ECE SWAP1 SWAP2 SWAP1 PUSH4 0xFFFFFFFF AND JUMP JUMPDEST POP POP POP JUMP JUMPDEST PUSH2 0x2C05 PUSH1 0x2 PUSH1 0x5 PUSH1 0x6 PUSH1 0xFF AND SWAP1 SHL OR DUP4 PUSH1 0x0 ADD MLOAD PUSH2 0x2EEA SWAP1 SWAP2 SWAP1 PUSH4 0xFFFFFFFF AND JUMP JUMPDEST POP PUSH2 0x2C2F DUP3 DUP3 PUSH1 0x40 MLOAD PUSH1 0x20 ADD PUSH2 0x2C1B SWAP2 SWAP1 PUSH2 0x492C JUMP JUMPDEST PUSH1 0x40 MLOAD PUSH1 0x20 DUP2 DUP4 SUB SUB DUP2 MSTORE SWAP1 PUSH1 0x40 MSTORE PUSH2 0x2C83 JUMP JUMPDEST POP POP JUMP JUMPDEST PUSH2 0x2C3E DUP2 PUSH1 0x4 PUSH2 0x2F54 JUMP JUMPDEST PUSH1 0x1 DUP2 PUSH1 0x20 ADD DUP2 DUP2 MLOAD PUSH2 0x2C51 SWAP2 SWAP1 PUSH2 0x3FEE JUMP JUMPDEST SWAP2 POP DUP2 DUP2 MSTORE POP POP POP JUMP JUMPDEST PUSH2 0x2C66 DUP2 PUSH1 0x7 PUSH2 0x2F54 JUMP JUMPDEST PUSH1 0x1 DUP2 PUSH1 0x20 ADD DUP2 DUP2 MLOAD PUSH2 0x2C79 SWAP2 SWAP1 PUSH2 0x4947 JUMP JUMPDEST SWAP2 POP DUP2 DUP2 MSTORE POP POP POP JUMP JUMPDEST PUSH2 0x2C90 DUP3 PUSH1 0x2 DUP4 MLOAD PUSH2 0x2D25 JUMP JUMPDEST PUSH2 0x2CA7 DUP2 DUP4 PUSH1 0x0 ADD MLOAD PUSH2 0x2ECE SWAP1 SWAP2 SWAP1 PUSH4 0xFFFFFFFF AND JUMP JUMPDEST POP POP POP JUMP JUMPDEST PUSH2 0x2CB4 PUSH2 0x31A0 JUMP JUMPDEST PUSH1 0x0 PUSH1 0x20 DUP4 PUSH2 0x2CC3 SWAP2 SWAP1 PUSH2 0x497B JUMP JUMPDEST EQ PUSH2 0x2CEF JUMPI PUSH1 0x20 DUP3 PUSH2 0x2CD5 SWAP2 SWAP1 PUSH2 0x497B JUMP JUMPDEST PUSH1 0x20 PUSH2 0x2CE1 SWAP2 SWAP1 PUSH2 0x4947 JUMP JUMPDEST DUP3 PUSH2 0x2CEC SWAP2 SWAP1 PUSH2 0x3FEE JUMP JUMPDEST SWAP2 POP JUMPDEST DUP2 DUP4 PUSH1 0x20 ADD DUP2 DUP2 MSTORE POP POP PUSH1 0x40 MLOAD DUP1 DUP5 MSTORE PUSH1 0x0 DUP2 MSTORE DUP3 DUP2 ADD PUSH1 0x20 ADD DUP2 DUP2 LT ISZERO PUSH2 0x2D16 JUMPI PUSH1 0x0 DUP1 REVERT JUMPDEST DUP1 PUSH1 0x40 MSTORE POP POP DUP3 SWAP1 POP SWAP3 SWAP2 POP POP JUMP JUMPDEST PUSH1 0x17 DUP2 PUSH8 0xFFFFFFFFFFFFFFFF AND GT PUSH2 0x2D60 JUMPI PUSH2 0x2D5A DUP2 PUSH1 0x5 DUP5 PUSH1 0xFF AND SWAP1 SHL PUSH1 0xFF AND OR DUP5 PUSH1 0x0 ADD MLOAD PUSH2 0x2EEA SWAP1 SWAP2 SWAP1 PUSH4 0xFFFFFFFF AND JUMP JUMPDEST POP PUSH2 0x2EC9 JUMP JUMPDEST PUSH1 0xFF DUP2 PUSH8 0xFFFFFFFFFFFFFFFF AND GT PUSH2 0x2DBE JUMPI PUSH2 0x2D93 PUSH1 0x18 PUSH1 0x5 DUP5 PUSH1 0xFF AND SWAP1 SHL OR DUP5 PUSH1 0x0 ADD MLOAD PUSH2 0x2EEA SWAP1 SWAP2 SWAP1 PUSH4 0xFFFFFFFF AND JUMP JUMPDEST POP PUSH2 0x2DB8 DUP2 PUSH8 0xFFFFFFFFFFFFFFFF AND PUSH1 0x1 DUP6 PUSH1 0x0 ADD MLOAD PUSH2 0x2F7A SWAP1 SWAP3 SWAP2 SWAP1 PUSH4 0xFFFFFFFF AND JUMP JUMPDEST POP PUSH2 0x2EC8 JUMP JUMPDEST PUSH2 0xFFFF DUP2 PUSH8 0xFFFFFFFFFFFFFFFF AND GT PUSH2 0x2E1D JUMPI PUSH2 0x2DF2 PUSH1 0x19 PUSH1 0x5 DUP5 PUSH1 0xFF AND SWAP1 SHL OR DUP5 PUSH1 0x0 ADD MLOAD PUSH2 0x2EEA SWAP1 SWAP2 SWAP1 PUSH4 0xFFFFFFFF AND JUMP JUMPDEST POP PUSH2 0x2E17 DUP2 PUSH8 0xFFFFFFFFFFFFFFFF AND PUSH1 0x2 DUP6 PUSH1 0x0 ADD MLOAD PUSH2 0x2F7A SWAP1 SWAP3 SWAP2 SWAP1 PUSH4 0xFFFFFFFF AND JUMP JUMPDEST POP PUSH2 0x2EC7 JUMP JUMPDEST PUSH4 0xFFFFFFFF DUP2 PUSH8 0xFFFFFFFFFFFFFFFF AND GT PUSH2 0x2E7E JUMPI PUSH2 0x2E53 PUSH1 0x1A PUSH1 0x5 DUP5 PUSH1 0xFF AND SWAP1 SHL OR DUP5 PUSH1 0x0 ADD MLOAD PUSH2 0x2EEA SWAP1 SWAP2 SWAP1 PUSH4 0xFFFFFFFF AND JUMP JUMPDEST POP PUSH2 0x2E78 DUP2 PUSH8 0xFFFFFFFFFFFFFFFF AND PUSH1 0x4 DUP6 PUSH1 0x0 ADD MLOAD PUSH2 0x2F7A SWAP1 SWAP3 SWAP2 SWAP1 PUSH4 0xFFFFFFFF AND JUMP JUMPDEST POP PUSH2 0x2EC6 JUMP JUMPDEST PUSH2 0x2E9F PUSH1 0x1B PUSH1 0x5 DUP5 PUSH1 0xFF AND SWAP1 SHL OR DUP5 PUSH1 0x0 ADD MLOAD PUSH2 0x2EEA SWAP1 SWAP2 SWAP1 PUSH4 0xFFFFFFFF AND JUMP JUMPDEST POP PUSH2 0x2EC4 DUP2 PUSH8 0xFFFFFFFFFFFFFFFF AND PUSH1 0x8 DUP6 PUSH1 0x0 ADD MLOAD PUSH2 0x2F7A SWAP1 SWAP3 SWAP2 SWAP1 PUSH4 0xFFFFFFFF AND JUMP JUMPDEST POP JUMPDEST JUMPDEST JUMPDEST JUMPDEST POP POP POP JUMP JUMPDEST PUSH2 0x2ED6 PUSH2 0x31A0 JUMP JUMPDEST PUSH2 0x2EE2 DUP4 DUP4 DUP5 MLOAD PUSH2 0x3007 JUMP JUMPDEST SWAP1 POP SWAP3 SWAP2 POP POP JUMP JUMPDEST PUSH2 0x2EF2 PUSH2 0x31A0 JUMP JUMPDEST PUSH1 0x0 DUP4 PUSH1 0x0 ADD MLOAD MLOAD SWAP1 POP PUSH1 0x0 PUSH1 0x1 DUP3 PUSH2 0x2F0B SWAP2 SWAP1 PUSH2 0x3FEE JUMP JUMPDEST SWAP1 POP DUP5 PUSH1 0x20 ADD MLOAD DUP3 LT PUSH2 0x2F2F JUMPI PUSH2 0x2F2E DUP6 PUSH1 0x2 DUP4 PUSH2 0x2F29 SWAP2 SWAP1 PUSH2 0x4898 JUMP JUMPDEST PUSH2 0x30EA JUMP JUMPDEST JUMPDEST DUP5 MLOAD PUSH1 0x20 DUP4 DUP3 ADD ADD DUP6 DUP2 MSTORE8 DUP2 MLOAD DUP4 GT ISZERO PUSH2 0x2F47 JUMPI DUP3 DUP3 MSTORE JUMPDEST POP POP DUP5 SWAP3 POP POP POP SWAP3 SWAP2 POP POP JUMP JUMPDEST PUSH2 0x2F75 PUSH1 0x1F PUSH1 0x5 DUP4 PUSH1 0xFF AND SWAP1 SHL OR DUP4 PUSH1 0x0 ADD MLOAD PUSH2 0x2EEA SWAP1 SWAP2 SWAP1 PUSH4 0xFFFFFFFF AND JUMP JUMPDEST POP POP POP JUMP JUMPDEST PUSH2 0x2F82 PUSH2 0x31A0 JUMP JUMPDEST PUSH1 0x0 DUP5 PUSH1 0x0 ADD MLOAD MLOAD SWAP1 POP PUSH1 0x0 DUP2 DUP5 PUSH2 0x2F9A SWAP2 SWAP1 PUSH2 0x3FEE JUMP JUMPDEST SWAP1 POP DUP6 PUSH1 0x20 ADD MLOAD DUP2 GT ISZERO PUSH2 0x2FBF JUMPI PUSH2 0x2FBE DUP7 PUSH1 0x2 DUP4 PUSH2 0x2FB9 SWAP2 SWAP1 PUSH2 0x4898 JUMP JUMPDEST PUSH2 0x30EA JUMP JUMPDEST JUMPDEST PUSH1 0x0 PUSH1 0x1 DUP6 PUSH2 0x100 PUSH2 0x2FD1 SWAP2 SWAP1 PUSH2 0x4ADF JUMP JUMPDEST PUSH2 0x2FDB SWAP2 SWAP1 PUSH2 0x4947 JUMP JUMPDEST SWAP1 POP DUP7 MLOAD DUP3 DUP2 ADD DUP8 DUP4 NOT DUP3 MLOAD AND OR DUP2 MSTORE DUP2 MLOAD DUP5 GT ISZERO PUSH2 0x2FF8 JUMPI DUP4 DUP3 MSTORE JUMPDEST POP POP DUP7 SWAP4 POP POP POP POP SWAP4 SWAP3 POP POP POP JUMP JUMPDEST PUSH2 0x300F PUSH2 0x31A0 JUMP JUMPDEST DUP3 MLOAD DUP3 GT ISZERO PUSH2 0x301D JUMPI PUSH1 0x0 DUP1 REVERT JUMPDEST PUSH1 0x0 DUP5 PUSH1 0x0 ADD MLOAD MLOAD SWAP1 POP PUSH1 0x0 DUP4 DUP3 PUSH2 0x3035 SWAP2 SWAP1 PUSH2 0x3FEE JUMP JUMPDEST SWAP1 POP DUP6 PUSH1 0x20 ADD MLOAD DUP2 GT ISZERO PUSH2 0x305A JUMPI PUSH2 0x3059 DUP7 PUSH1 0x2 DUP4 PUSH2 0x3054 SWAP2 SWAP1 PUSH2 0x4898 JUMP JUMPDEST PUSH2 0x30EA JUMP JUMPDEST JUMPDEST PUSH1 0x0 DUP1 DUP8 MLOAD DUP1 MLOAD DUP6 PUSH1 0x20 DUP4 ADD ADD SWAP4 POP DUP1 DUP6 GT ISZERO PUSH2 0x3075 JUMPI DUP5 DUP3 MSTORE JUMPDEST PUSH1 0x20 DUP10 ADD SWAP3 POP POP POP JUMPDEST PUSH1 0x20 DUP7 LT PUSH2 0x30BC JUMPI DUP1 MLOAD DUP3 MSTORE PUSH1 0x20 DUP3 PUSH2 0x3097 SWAP2 SWAP1 PUSH2 0x3FEE JUMP JUMPDEST SWAP2 POP PUSH1 0x20 DUP2 PUSH2 0x30A6 SWAP2 SWAP1 PUSH2 0x3FEE JUMP JUMPDEST SWAP1 POP PUSH1 0x20 DUP7 PUSH2 0x30B5 SWAP2 SWAP1 PUSH2 0x4947 JUMP JUMPDEST SWAP6 POP PUSH2 0x307E JUMP JUMPDEST PUSH1 0x0 PUSH1 0x1 DUP8 PUSH1 0x20 SUB PUSH2 0x100 EXP SUB SWAP1 POP DUP1 NOT DUP3 MLOAD AND DUP2 DUP5 MLOAD AND DUP2 DUP2 OR DUP6 MSTORE POP POP POP DUP8 SWAP5 POP POP POP POP POP SWAP4 SWAP3 POP POP POP JUMP JUMPDEST PUSH1 0x0 DUP3 PUSH1 0x0 ADD MLOAD SWAP1 POP PUSH2 0x30FD DUP4 DUP4 PUSH2 0x2CAC JUMP JUMPDEST POP PUSH2 0x3108 DUP4 DUP3 PUSH2 0x2ECE JUMP JUMPDEST POP POP POP POP JUMP JUMPDEST PUSH1 0x40 MLOAD DUP1 PUSH1 0xE0 ADD PUSH1 0x40 MSTORE DUP1 PUSH1 0x0 PUSH1 0x2 DUP2 GT ISZERO PUSH2 0x312D JUMPI PUSH2 0x312C PUSH2 0x4791 JUMP JUMPDEST JUMPDEST DUP2 MSTORE PUSH1 0x20 ADD PUSH1 0x0 PUSH1 0x2 DUP2 GT ISZERO PUSH2 0x3146 JUMPI PUSH2 0x3145 PUSH2 0x4791 JUMP JUMPDEST JUMPDEST DUP2 MSTORE PUSH1 0x20 ADD PUSH1 0x0 DUP1 DUP2 GT ISZERO PUSH2 0x315E JUMPI PUSH2 0x315D PUSH2 0x4791 JUMP JUMPDEST JUMPDEST DUP2 MSTORE PUSH1 0x20 ADD PUSH1 0x60 DUP2 MSTORE PUSH1 0x20 ADD PUSH1 0x60 DUP2 MSTORE PUSH1 0x20 ADD PUSH1 0x60 DUP2 MSTORE PUSH1 0x20 ADD PUSH1 0x60 DUP2 MSTORE POP SWAP1 JUMP JUMPDEST PUSH1 0x40 MLOAD DUP1 PUSH1 0x40 ADD PUSH1 0x40 MSTORE DUP1 PUSH2 0x3193 PUSH2 0x31A0 JUMP JUMPDEST DUP2 MSTORE PUSH1 0x20 ADD PUSH1 0x0 DUP2 MSTORE POP SWAP1 JUMP JUMPDEST PUSH1 0x40 MLOAD DUP1 PUSH1 0x40 ADD PUSH1 0x40 MSTORE DUP1 PUSH1 0x60 DUP2 MSTORE PUSH1 0x20 ADD PUSH1 0x0 DUP2 MSTORE POP SWAP1 JUMP JUMPDEST PUSH1 0x0 PUSH1 0x40 MLOAD SWAP1 POP SWAP1 JUMP JUMPDEST PUSH1 0x0 DUP1 REVERT JUMPDEST PUSH1 0x0 DUP1 REVERT JUMPDEST PUSH1 0x0 PUSH20 0xFFFFFFFFFFFFFFFFFFFFFFFFFFFFFFFFFFFFFFFF DUP3 AND SWAP1 POP SWAP2 SWAP1 POP JUMP JUMPDEST PUSH1 0x0 PUSH2 0x31F9 DUP3 PUSH2 0x31CE JUMP JUMPDEST SWAP1 POP SWAP2 SWAP1 POP JUMP JUMPDEST PUSH2 0x3209 DUP2 PUSH2 0x31EE JUMP JUMPDEST DUP2 EQ PUSH2 0x3214 JUMPI PUSH1 0x0 DUP1 REVERT JUMPDEST POP JUMP JUMPDEST PUSH1 0x0 DUP2 CALLDATALOAD SWAP1 POP PUSH2 0x3226 DUP2 PUSH2 0x3200 JUMP JUMPDEST SWAP3 SWAP2 POP POP JUMP JUMPDEST PUSH1 0x0 PUSH1 0x20 DUP3 DUP5 SUB SLT ISZERO PUSH2 0x3242 JUMPI PUSH2 0x3241 PUSH2 0x31C4 JUMP JUMPDEST JUMPDEST PUSH1 0x0 PUSH2 0x3250 DUP5 DUP3 DUP6 ADD PUSH2 0x3217 JUMP JUMPDEST SWAP2 POP POP SWAP3 SWAP2 POP POP JUMP JUMPDEST PUSH2 0x3262 DUP2 PUSH2 0x31EE JUMP JUMPDEST DUP3 MSTORE POP POP JUMP JUMPDEST PUSH1 0x0 DUP2 SWAP1 POP SWAP2 SWAP1 POP JUMP JUMPDEST PUSH2 0x327B DUP2 PUSH2 0x3268 JUMP JUMPDEST DUP3 MSTORE POP POP JUMP JUMPDEST PUSH1 0x0 DUP2 ISZERO ISZERO SWAP1 POP SWAP2 SWAP1 POP JUMP JUMPDEST PUSH2 0x3296 DUP2 PUSH2 0x3281 JUMP JUMPDEST DUP3 MSTORE POP POP JUMP JUMPDEST PUSH1 0x0 PUSH1 0xE0 DUP3 ADD SWAP1 POP PUSH2 0x32B1 PUSH1 0x0 DUP4 ADD DUP11 PUSH2 0x3259 JUMP JUMPDEST PUSH2 0x32BE PUSH1 0x20 DUP4 ADD DUP10 PUSH2 0x3272 JUMP JUMPDEST PUSH2 0x32CB PUSH1 0x40 DUP4 ADD DUP9 PUSH2 0x3272 JUMP JUMPDEST PUSH2 0x32D8 PUSH1 0x60 DUP4 ADD DUP8 PUSH2 0x3272 JUMP JUMPDEST PUSH2 0x32E5 PUSH1 0x80 DUP4 ADD DUP7 PUSH2 0x3272 JUMP JUMPDEST PUSH2 0x32F2 PUSH1 0xA0 DUP4 ADD DUP6 PUSH2 0x328D JUMP JUMPDEST PUSH2 0x32FF PUSH1 0xC0 DUP4 ADD DUP5 PUSH2 0x3272 JUMP JUMPDEST SWAP9 SWAP8 POP POP POP POP POP POP POP POP JUMP JUMPDEST PUSH1 0x0 PUSH8 0xFFFFFFFFFFFFFFFF DUP3 AND SWAP1 POP SWAP2 SWAP1 POP JUMP JUMPDEST PUSH2 0x3328 DUP2 PUSH2 0x330B JUMP JUMPDEST DUP3 MSTORE POP POP JUMP JUMPDEST PUSH1 0x0 PUSH1 0x20 DUP3 ADD SWAP1 POP PUSH2 0x3343 PUSH1 0x0 DUP4 ADD DUP5 PUSH2 0x331F JUMP JUMPDEST SWAP3 SWAP2 POP POP JUMP JUMPDEST PUSH1 0x0 PUSH1 0x80 DUP3 ADD SWAP1 POP PUSH2 0x335E PUSH1 0x0 DUP4 ADD DUP8 PUSH2 0x328D JUMP JUMPDEST PUSH2 0x336B PUSH1 0x20 DUP4 ADD DUP7 PUSH2 0x3272 JUMP JUMPDEST PUSH2 0x3378 PUSH1 0x40 DUP4 ADD DUP6 PUSH2 0x3272 JUMP JUMPDEST PUSH2 0x3385 PUSH1 0x60 DUP4 ADD DUP5 PUSH2 0x328D JUMP JUMPDEST SWAP6 SWAP5 POP POP POP POP POP JUMP JUMPDEST PUSH1 0x0 DUP2 SWAP1 POP SWAP2 SWAP1 POP JUMP JUMPDEST PUSH2 0x33A1 DUP2 PUSH2 0x338E JUMP JUMPDEST DUP2 EQ PUSH2 0x33AC JUMPI PUSH1 0x0 DUP1 REVERT JUMPDEST POP JUMP JUMPDEST PUSH1 0x0 DUP2 CALLDATALOAD SWAP1 POP PUSH2 0x33BE DUP2 PUSH2 0x3398 JUMP JUMPDEST SWAP3 SWAP2 POP POP JUMP JUMPDEST PUSH1 0x0 DUP1 REVERT JUMPDEST PUSH1 0x0 DUP1 REVERT JUMPDEST PUSH1 0x0 PUSH1 0x1F NOT PUSH1 0x1F DUP4 ADD AND SWAP1 POP SWAP2 SWAP1 POP JUMP JUMPDEST PUSH32 0x4E487B7100000000000000000000000000000000000000000000000000000000 PUSH1 0x0 MSTORE PUSH1 0x41 PUSH1 0x4 MSTORE PUSH1 0x24 PUSH1 0x0 REVERT JUMPDEST PUSH2 0x3417 DUP3 PUSH2 0x33CE JUMP JUMPDEST DUP2 ADD DUP2 DUP2 LT PUSH8 0xFFFFFFFFFFFFFFFF DUP3 GT OR ISZERO PUSH2 0x3436 JUMPI PUSH2 0x3435 PUSH2 0x33DF JUMP JUMPDEST JUMPDEST DUP1 PUSH1 0x40 MSTORE POP POP POP JUMP JUMPDEST PUSH1 0x0 PUSH2 0x3449 PUSH2 0x31BA JUMP JUMPDEST SWAP1 POP PUSH2 0x3455 DUP3 DUP3 PUSH2 0x340E JUMP JUMPDEST SWAP2 SWAP1 POP JUMP JUMPDEST PUSH1 0x0 PUSH8 0xFFFFFFFFFFFFFFFF DUP3 GT ISZERO PUSH2 0x3475 JUMPI PUSH2 0x3474 PUSH2 0x33DF JUMP JUMPDEST JUMPDEST PUSH2 0x347E DUP3 PUSH2 0x33CE JUMP JUMPDEST SWAP1 POP PUSH1 0x20 DUP2 ADD SWAP1 POP SWAP2 SWAP1 POP JUMP JUMPDEST DUP3 DUP2 DUP4 CALLDATACOPY PUSH1 0x0 DUP4 DUP4 ADD MSTORE POP POP POP JUMP JUMPDEST PUSH1 0x0 PUSH2 0x34AD PUSH2 0x34A8 DUP5 PUSH2 0x345A JUMP JUMPDEST PUSH2 0x343F JUMP JUMPDEST SWAP1 POP DUP3 DUP2 MSTORE PUSH1 0x20 DUP2 ADD DUP5 DUP5 DUP5 ADD GT ISZERO PUSH2 0x34C9 JUMPI PUSH2 0x34C8 PUSH2 0x33C9 JUMP JUMPDEST JUMPDEST PUSH2 0x34D4 DUP5 DUP3 DUP6 PUSH2 0x348B JUMP JUMPDEST POP SWAP4 SWAP3 POP POP POP JUMP JUMPDEST PUSH1 0x0 DUP3 PUSH1 0x1F DUP4 ADD SLT PUSH2 0x34F1 JUMPI PUSH2 0x34F0 PUSH2 0x33C4 JUMP JUMPDEST JUMPDEST DUP2 CALLDATALOAD PUSH2 0x3501 DUP5 DUP3 PUSH1 0x20 DUP7 ADD PUSH2 0x349A JUMP JUMPDEST SWAP2 POP POP SWAP3 SWAP2 POP POP JUMP JUMPDEST PUSH1 0x0 DUP1 PUSH1 0x0 PUSH1 0x60 DUP5 DUP7 SUB SLT ISZERO PUSH2 0x3523 JUMPI PUSH2 0x3522 PUSH2 0x31C4 JUMP JUMPDEST JUMPDEST PUSH1 0x0 PUSH2 0x3531 DUP7 DUP3 DUP8 ADD PUSH2 0x33AF JUMP JUMPDEST SWAP4 POP POP PUSH1 0x20 DUP5 ADD CALLDATALOAD PUSH8 0xFFFFFFFFFFFFFFFF DUP2 GT ISZERO PUSH2 0x3552 JUMPI PUSH2 0x3551 PUSH2 0x31C9 JUMP JUMPDEST JUMPDEST PUSH2 0x355E DUP7 DUP3 DUP8 ADD PUSH2 0x34DC JUMP JUMPDEST SWAP3 POP POP PUSH1 0x40 DUP5 ADD CALLDATALOAD PUSH8 0xFFFFFFFFFFFFFFFF DUP2 GT ISZERO PUSH2 0x357F JUMPI PUSH2 0x357E PUSH2 0x31C9 JUMP JUMPDEST JUMPDEST PUSH2 0x358B DUP7 DUP3 DUP8 ADD PUSH2 0x34DC JUMP JUMPDEST SWAP2 POP POP SWAP3 POP SWAP3 POP SWAP3 JUMP JUMPDEST PUSH1 0x0 DUP2 MLOAD SWAP1 POP SWAP2 SWAP1 POP JUMP JUMPDEST PUSH1 0x0 DUP3 DUP3 MSTORE PUSH1 0x20 DUP3 ADD SWAP1 POP SWAP3 SWAP2 POP POP JUMP JUMPDEST PUSH1 0x0 JUMPDEST DUP4 DUP2 LT ISZERO PUSH2 0x35CF JUMPI DUP1 DUP3 ADD MLOAD DUP2 DUP5 ADD MSTORE PUSH1 0x20 DUP2 ADD SWAP1 POP PUSH2 0x35B4 JUMP JUMPDEST PUSH1 0x0 DUP5 DUP5 ADD MSTORE POP POP POP POP JUMP JUMPDEST PUSH1 0x0 PUSH2 0x35E6 DUP3 PUSH2 0x3595 JUMP JUMPDEST PUSH2 0x35F0 DUP2 DUP6 PUSH2 0x35A0 JUMP JUMPDEST SWAP4 POP PUSH2 0x3600 DUP2 DUP6 PUSH1 0x20 DUP7 ADD PUSH2 0x35B1 JUMP JUMPDEST PUSH2 0x3609 DUP2 PUSH2 0x33CE JUMP JUMPDEST DUP5 ADD SWAP2 POP POP SWAP3 SWAP2 POP POP JUMP JUMPDEST PUSH1 0x0 PUSH1 0x20 DUP3 ADD SWAP1 POP DUP2 DUP2 SUB PUSH1 0x0 DUP4 ADD MSTORE PUSH2 0x362E DUP2 DUP5 PUSH2 0x35DB JUMP JUMPDEST SWAP1 POP SWAP3 SWAP2 POP POP JUMP JUMPDEST PUSH2 0x363F DUP2 PUSH2 0x3268 JUMP JUMPDEST DUP2 EQ PUSH2 0x364A JUMPI PUSH1 0x0 DUP1 REVERT JUMPDEST POP JUMP JUMPDEST PUSH1 0x0 DUP2 CALLDATALOAD SWAP1 POP PUSH2 0x365C DUP2 PUSH2 0x3636 JUMP JUMPDEST SWAP3 SWAP2 POP POP JUMP JUMPDEST PUSH1 0x0 DUP1 PUSH1 0x0 PUSH1 0x60 DUP5 DUP7 SUB SLT ISZERO PUSH2 0x367B JUMPI PUSH2 0x367A PUSH2 0x31C4 JUMP JUMPDEST JUMPDEST PUSH1 0x0 PUSH2 0x3689 DUP7 DUP3 DUP8 ADD PUSH2 0x364D JUMP JUMPDEST SWAP4 POP POP PUSH1 0x20 PUSH2 0x369A DUP7 DUP3 DUP8 ADD PUSH2 0x364D JUMP JUMPDEST SWAP3 POP POP PUSH1 0x40 PUSH2 0x36AB DUP7 DUP3 DUP8 ADD PUSH2 0x364D JUMP JUMPDEST SWAP2 POP POP SWAP3 POP SWAP3 POP SWAP3 JUMP JUMPDEST PUSH1 0x0 DUP1 PUSH1 0x0 DUP1 PUSH1 0x80 DUP6 DUP8 SUB SLT ISZERO PUSH2 0x36CF JUMPI PUSH2 0x36CE PUSH2 0x31C4 JUMP JUMPDEST JUMPDEST PUSH1 0x0 PUSH2 0x36DD DUP8 DUP3 DUP9 ADD PUSH2 0x364D JUMP JUMPDEST SWAP5 POP POP PUSH1 0x20 PUSH2 0x36EE DUP8 DUP3 DUP9 ADD PUSH2 0x364D JUMP JUMPDEST SWAP4 POP POP PUSH1 0x40 PUSH2 0x36FF DUP8 DUP3 DUP9 ADD PUSH2 0x3217 JUMP JUMPDEST SWAP3 POP POP PUSH1 0x60 PUSH2 0x3710 DUP8 DUP3 DUP9 ADD PUSH2 0x364D JUMP JUMPDEST SWAP2 POP POP SWAP3 SWAP6 SWAP2 SWAP5 POP SWAP3 POP JUMP JUMPDEST PUSH1 0x0 DUP1 PUSH1 0x40 DUP4 DUP6 SUB SLT ISZERO PUSH2 0x3733 JUMPI PUSH2 0x3732 PUSH2 0x31C4 JUMP JUMPDEST JUMPDEST PUSH1 0x0 PUSH2 0x3741 DUP6 DUP3 DUP7 ADD PUSH2 0x3217 JUMP JUMPDEST SWAP3 POP POP PUSH1 0x20 PUSH2 0x3752 DUP6 DUP3 DUP7 ADD PUSH2 0x364D JUMP JUMPDEST SWAP2 POP POP SWAP3 POP SWAP3 SWAP1 POP JUMP JUMPDEST PUSH2 0x3765 DUP2 PUSH2 0x31EE JUMP JUMPDEST DUP3 MSTORE POP POP JUMP JUMPDEST PUSH2 0x3774 DUP2 PUSH2 0x3268 JUMP JUMPDEST DUP3 MSTORE POP POP JUMP JUMPDEST PUSH2 0x3783 DUP2 PUSH2 0x3281 JUMP JUMPDEST DUP3 MSTORE POP POP JUMP JUMPDEST PUSH1 0xE0 DUP3 ADD PUSH1 0x0 DUP3 ADD MLOAD PUSH2 0x379F PUSH1 0x0 DUP6 ADD DUP3 PUSH2 0x375C JUMP JUMPDEST POP PUSH1 0x20 DUP3 ADD MLOAD PUSH2 0x37B2 PUSH1 0x20 DUP6 ADD DUP3 PUSH2 0x376B JUMP JUMPDEST POP PUSH1 0x40 DUP3 ADD MLOAD PUSH2 0x37C5 PUSH1 0x40 DUP6 ADD DUP3 PUSH2 0x376B JUMP JUMPDEST POP PUSH1 0x60 DUP3 ADD MLOAD PUSH2 0x37D8 PUSH1 0x60 DUP6 ADD DUP3 PUSH2 0x376B JUMP JUMPDEST POP PUSH1 0x80 DUP3 ADD MLOAD PUSH2 0x37EB PUSH1 0x80 DUP6 ADD DUP3 PUSH2 0x376B JUMP JUMPDEST POP PUSH1 0xA0 DUP3 ADD MLOAD PUSH2 0x37FE PUSH1 0xA0 DUP6 ADD DUP3 PUSH2 0x377A JUMP JUMPDEST POP PUSH1 0xC0 DUP3 ADD MLOAD PUSH2 0x3811 PUSH1 0xC0 DUP6 ADD DUP3 PUSH2 0x376B JUMP JUMPDEST POP POP POP POP JUMP JUMPDEST PUSH1 0x0 PUSH2 0x140 DUP3 ADD SWAP1 POP PUSH2 0x382D PUSH1 0x0 DUP4 ADD DUP8 PUSH2 0x3789 JUMP JUMPDEST PUSH2 0x383A PUSH1 0xE0 DUP4 ADD DUP7 PUSH2 0x3259 JUMP JUMPDEST PUSH2 0x3848 PUSH2 0x100 DUP4 ADD DUP6 PUSH2 0x3259 JUMP JUMPDEST PUSH2 0x3856 PUSH2 0x120 DUP4 ADD DUP5 PUSH2 0x328D JUMP JUMPDEST SWAP6 SWAP5 POP POP POP POP POP JUMP JUMPDEST PUSH1 0x0 DUP2 MLOAD SWAP1 POP SWAP2 SWAP1 POP JUMP JUMPDEST PUSH1 0x0 DUP3 DUP3 MSTORE PUSH1 0x20 DUP3 ADD SWAP1 POP SWAP3 SWAP2 POP POP JUMP JUMPDEST PUSH1 0x0 PUSH2 0x3886 DUP3 PUSH2 0x385F JUMP JUMPDEST PUSH2 0x3890 DUP2 DUP6 PUSH2 0x386A JUMP JUMPDEST SWAP4 POP PUSH2 0x38A0 DUP2 DUP6 PUSH1 0x20 DUP7 ADD PUSH2 0x35B1 JUMP JUMPDEST PUSH2 0x38A9 DUP2 PUSH2 0x33CE JUMP JUMPDEST DUP5 ADD SWAP2 POP POP SWAP3 SWAP2 POP POP JUMP JUMPDEST PUSH1 0x0 PUSH1 0x20 DUP3 ADD SWAP1 POP DUP2 DUP2 SUB PUSH1 0x0 DUP4 ADD MSTORE PUSH2 0x38CE DUP2 DUP5 PUSH2 0x387B JUMP JUMPDEST SWAP1 POP SWAP3 SWAP2 POP POP JUMP JUMPDEST PUSH1 0x0 PUSH1 0x20 DUP3 DUP5 SUB SLT ISZERO PUSH2 0x38EC JUMPI PUSH2 0x38EB PUSH2 0x31C4 JUMP JUMPDEST JUMPDEST PUSH1 0x0 PUSH2 0x38FA DUP5 DUP3 DUP6 ADD PUSH2 0x364D JUMP JUMPDEST SWAP2 POP POP SWAP3 SWAP2 POP POP JUMP JUMPDEST PUSH1 0x0 DUP2 MLOAD SWAP1 POP SWAP2 SWAP1 POP JUMP JUMPDEST PUSH1 0x0 DUP3 DUP3 MSTORE PUSH1 0x20 DUP3 ADD SWAP1 POP SWAP3 SWAP2 POP POP JUMP JUMPDEST PUSH1 0x0 DUP2 SWAP1 POP PUSH1 0x20 DUP3 ADD SWAP1 POP SWAP2 SWAP1 POP JUMP JUMPDEST PUSH1 0x80 DUP3 ADD PUSH1 0x0 DUP3 ADD MLOAD PUSH2 0x3945 PUSH1 0x0 DUP6 ADD DUP3 PUSH2 0x376B JUMP JUMPDEST POP PUSH1 0x20 DUP3 ADD MLOAD PUSH2 0x3958 PUSH1 0x20 DUP6 ADD DUP3 PUSH2 0x376B JUMP JUMPDEST POP PUSH1 0x40 DUP3 ADD MLOAD PUSH2 0x396B PUSH1 0x40 DUP6 ADD DUP3 PUSH2 0x376B JUMP JUMPDEST POP PUSH1 0x60 DUP3 ADD MLOAD PUSH2 0x397E PUSH1 0x60 DUP6 ADD DUP3 PUSH2 0x377A JUMP JUMPDEST POP POP POP POP JUMP JUMPDEST PUSH1 0x0 PUSH2 0x3990 DUP4 DUP4 PUSH2 0x392F JUMP JUMPDEST PUSH1 0x80 DUP4 ADD SWAP1 POP SWAP3 SWAP2 POP POP JUMP JUMPDEST PUSH1 0x0 PUSH1 0x20 DUP3 ADD SWAP1 POP SWAP2 SWAP1 POP JUMP JUMPDEST PUSH1 0x0 PUSH2 0x39B4 DUP3 PUSH2 0x3903 JUMP JUMPDEST PUSH2 0x39BE DUP2 DUP6 PUSH2 0x390E JUMP JUMPDEST SWAP4 POP PUSH2 0x39C9 DUP4 PUSH2 0x391F JUMP JUMPDEST DUP1 PUSH1 0x0 JUMPDEST DUP4 DUP2 LT ISZERO PUSH2 0x39FA JUMPI DUP2 MLOAD PUSH2 0x39E1 DUP9 DUP3 PUSH2 0x3984 JUMP JUMPDEST SWAP8 POP PUSH2 0x39EC DUP4 PUSH2 0x399C JUMP JUMPDEST SWAP3 POP POP PUSH1 0x1 DUP2 ADD SWAP1 POP PUSH2 0x39CD JUMP JUMPDEST POP DUP6 SWAP4 POP POP POP POP SWAP3 SWAP2 POP POP JUMP JUMPDEST PUSH1 0x0 PUSH1 0x20 DUP3 ADD SWAP1 POP DUP2 DUP2 SUB PUSH1 0x0 DUP4 ADD MSTORE PUSH2 0x3A21 DUP2 DUP5 PUSH2 0x39A9 JUMP JUMPDEST SWAP1 POP SWAP3 SWAP2 POP POP JUMP JUMPDEST PUSH2 0x3A32 DUP2 PUSH2 0x3281 JUMP JUMPDEST DUP2 EQ PUSH2 0x3A3D JUMPI PUSH1 0x0 DUP1 REVERT JUMPDEST POP JUMP JUMPDEST PUSH1 0x0 DUP2 CALLDATALOAD SWAP1 POP PUSH2 0x3A4F DUP2 PUSH2 0x3A29 JUMP JUMPDEST SWAP3 SWAP2 POP POP JUMP JUMPDEST PUSH1 0x0 DUP1 PUSH1 0x0 PUSH1 0x60 DUP5 DUP7 SUB SLT ISZERO PUSH2 0x3A6E JUMPI PUSH2 0x3A6D PUSH2 0x31C4 JUMP JUMPDEST JUMPDEST PUSH1 0x0 PUSH2 0x3A7C DUP7 DUP3 DUP8 ADD PUSH2 0x364D JUMP JUMPDEST SWAP4 POP POP PUSH1 0x20 PUSH2 0x3A8D DUP7 DUP3 DUP8 ADD PUSH2 0x364D JUMP JUMPDEST SWAP3 POP POP PUSH1 0x40 PUSH2 0x3A9E DUP7 DUP3 DUP8 ADD PUSH2 0x3A40 JUMP JUMPDEST SWAP2 POP POP SWAP3 POP SWAP3 POP SWAP3 JUMP JUMPDEST PUSH2 0x3AB1 DUP2 PUSH2 0x338E JUMP JUMPDEST DUP3 MSTORE POP POP JUMP JUMPDEST PUSH1 0x0 PUSH1 0x20 DUP3 ADD SWAP1 POP PUSH2 0x3ACC PUSH1 0x0 DUP4 ADD DUP5 PUSH2 0x3AA8 JUMP JUMPDEST SWAP3 SWAP2 POP POP JUMP JUMPDEST PUSH1 0x0 DUP1 PUSH1 0x40 DUP4 DUP6 SUB SLT ISZERO PUSH2 0x3AE9 JUMPI PUSH2 0x3AE8 PUSH2 0x31C4 JUMP JUMPDEST JUMPDEST PUSH1 0x0 PUSH2 0x3AF7 DUP6 DUP3 DUP7 ADD PUSH2 0x364D JUMP JUMPDEST SWAP3 POP POP PUSH1 0x20 PUSH2 0x3B08 DUP6 DUP3 DUP7 ADD PUSH2 0x364D JUMP JUMPDEST SWAP2 POP POP SWAP3 POP SWAP3 SWAP1 POP JUMP JUMPDEST PUSH1 0x0 PUSH1 0x80 DUP3 ADD SWAP1 POP PUSH2 0x3B27 PUSH1 0x0 DUP4 ADD DUP8 PUSH2 0x3272 JUMP JUMPDEST PUSH2 0x3B34 PUSH1 0x20 DUP4 ADD DUP7 PUSH2 0x3272 JUMP JUMPDEST PUSH2 0x3B41 PUSH1 0x40 DUP4 ADD DUP6 PUSH2 0x3272 JUMP JUMPDEST PUSH2 0x3B4E PUSH1 0x60 DUP4 ADD DUP5 PUSH2 0x328D JUMP JUMPDEST SWAP6 SWAP5 POP POP POP POP POP JUMP JUMPDEST PUSH1 0x0 PUSH1 0x20 DUP3 DUP5 SUB SLT ISZERO PUSH2 0x3B6D JUMPI PUSH2 0x3B6C PUSH2 0x31C4 JUMP JUMPDEST JUMPDEST PUSH1 0x0 PUSH2 0x3B7B DUP5 DUP3 DUP6 ADD PUSH2 0x33AF JUMP JUMPDEST SWAP2 POP POP SWAP3 SWAP2 POP POP JUMP JUMPDEST PUSH1 0x0 PUSH1 0x80 DUP3 ADD SWAP1 POP PUSH2 0x3B99 PUSH1 0x0 DUP4 ADD DUP8 PUSH2 0x328D JUMP JUMPDEST PUSH2 0x3BA6 PUSH1 0x20 DUP4 ADD DUP7 PUSH2 0x328D JUMP JUMPDEST DUP2 DUP2 SUB PUSH1 0x40 DUP4 ADD MSTORE PUSH2 0x3BB8 DUP2 DUP6 PUSH2 0x35DB JUMP JUMPDEST SWAP1 POP DUP2 DUP2 SUB PUSH1 0x60 DUP4 ADD MSTORE PUSH2 0x3BCC DUP2 DUP5 PUSH2 0x35DB JUMP JUMPDEST SWAP1 POP SWAP6 SWAP5 POP POP POP POP POP JUMP JUMPDEST PUSH1 0x0 DUP1 PUSH1 0x40 DUP4 DUP6 SUB SLT ISZERO PUSH2 0x3BEE JUMPI PUSH2 0x3BED PUSH2 0x31C4 JUMP JUMPDEST JUMPDEST PUSH1 0x0 PUSH2 0x3BFC DUP6 DUP3 DUP7 ADD PUSH2 0x364D JUMP JUMPDEST SWAP3 POP POP PUSH1 0x20 PUSH2 0x3C0D DUP6 DUP3 DUP7 ADD PUSH2 0x3A40 JUMP JUMPDEST SWAP2 POP POP SWAP3 POP SWAP3 SWAP1 POP JUMP JUMPDEST PUSH1 0x0 DUP2 MLOAD SWAP1 POP SWAP2 SWAP1 POP JUMP JUMPDEST PUSH1 0x0 DUP3 DUP3 MSTORE PUSH1 0x20 DUP3 ADD SWAP1 POP SWAP3 SWAP2 POP POP JUMP JUMPDEST PUSH1 0x0 DUP2 SWAP1 POP PUSH1 0x20 DUP3 ADD SWAP1 POP SWAP2 SWAP1 POP JUMP JUMPDEST PUSH1 0xE0 DUP3 ADD PUSH1 0x0 DUP3 ADD MLOAD PUSH2 0x3C59 PUSH1 0x0 DUP6 ADD DUP3 PUSH2 0x375C JUMP JUMPDEST POP PUSH1 0x20 DUP3 ADD MLOAD PUSH2 0x3C6C PUSH1 0x20 DUP6 ADD DUP3 PUSH2 0x376B JUMP JUMPDEST POP PUSH1 0x40 DUP3 ADD MLOAD PUSH2 0x3C7F PUSH1 0x40 DUP6 ADD DUP3 PUSH2 0x376B JUMP JUMPDEST POP PUSH1 0x60 DUP3 ADD MLOAD PUSH2 0x3C92 PUSH1 0x60 DUP6 ADD DUP3 PUSH2 0x376B JUMP JUMPDEST POP PUSH1 0x80 DUP3 ADD MLOAD PUSH2 0x3CA5 PUSH1 0x80 DUP6 ADD DUP3 PUSH2 0x376B JUMP JUMPDEST POP PUSH1 0xA0 DUP3 ADD MLOAD PUSH2 0x3CB8 PUSH1 0xA0 DUP6 ADD DUP3 PUSH2 0x377A JUMP JUMPDEST POP PUSH1 0xC0 DUP3 ADD MLOAD PUSH2 0x3CCB PUSH1 0xC0 DUP6 ADD DUP3 PUSH2 0x376B JUMP JUMPDEST POP POP POP POP JUMP JUMPDEST PUSH2 0x140 DUP3 ADD PUSH1 0x0 DUP3 ADD MLOAD PUSH2 0x3CE8 PUSH1 0x0 DUP6 ADD DUP3 PUSH2 0x3C43 JUMP JUMPDEST POP PUSH1 0x20 DUP3 ADD MLOAD PUSH2 0x3CFB PUSH1 0xE0 DUP6 ADD DUP3 PUSH2 0x375C JUMP JUMPDEST POP PUSH1 0x40 DUP3 ADD MLOAD PUSH2 0x3D0F PUSH2 0x100 DUP6 ADD DUP3 PUSH2 0x375C JUMP JUMPDEST POP PUSH1 0x60 DUP3 ADD MLOAD PUSH2 0x3D23 PUSH2 0x120 DUP6 ADD DUP3 PUSH2 0x377A JUMP JUMPDEST POP POP POP POP JUMP JUMPDEST PUSH1 0x0 PUSH2 0x3D35 DUP4 DUP4 PUSH2 0x3CD1 JUMP JUMPDEST PUSH2 0x140 DUP4 ADD SWAP1 POP SWAP3 SWAP2 POP POP JUMP JUMPDEST PUSH1 0x0 PUSH1 0x20 DUP3 ADD SWAP1 POP SWAP2 SWAP1 POP JUMP JUMPDEST PUSH1 0x0 PUSH2 0x3D5A DUP3 PUSH2 0x3C17 JUMP JUMPDEST PUSH2 0x3D64 DUP2 DUP6 PUSH2 0x3C22 JUMP JUMPDEST SWAP4 POP PUSH2 0x3D6F DUP4 PUSH2 0x3C33 JUMP JUMPDEST DUP1 PUSH1 0x0 JUMPDEST DUP4 DUP2 LT ISZERO PUSH2 0x3DA0 JUMPI DUP2 MLOAD PUSH2 0x3D87 DUP9 DUP3 PUSH2 0x3D29 JUMP JUMPDEST SWAP8 POP PUSH2 0x3D92 DUP4 PUSH2 0x3D42 JUMP JUMPDEST SWAP3 POP POP PUSH1 0x1 DUP2 ADD SWAP1 POP PUSH2 0x3D73 JUMP JUMPDEST POP DUP6 SWAP4 POP POP POP POP SWAP3 SWAP2 POP POP JUMP JUMPDEST PUSH1 0x0 PUSH1 0x20 DUP3 ADD SWAP1 POP DUP2 DUP2 SUB PUSH1 0x0 DUP4 ADD MSTORE PUSH2 0x3DC7 DUP2 DUP5 PUSH2 0x3D4F JUMP JUMPDEST SWAP1 POP SWAP3 SWAP2 POP POP JUMP JUMPDEST PUSH32 0x4E487B7100000000000000000000000000000000000000000000000000000000 PUSH1 0x0 MSTORE PUSH1 0x22 PUSH1 0x4 MSTORE PUSH1 0x24 PUSH1 0x0 REVERT JUMPDEST PUSH1 0x0 PUSH1 0x2 DUP3 DIV SWAP1 POP PUSH1 0x1 DUP3 AND DUP1 PUSH2 0x3E16 JUMPI PUSH1 0x7F DUP3 AND SWAP2 POP JUMPDEST PUSH1 0x20 DUP3 LT DUP2 SUB PUSH2 0x3E29 JUMPI PUSH2 0x3E28 PUSH2 0x3DCF JUMP JUMPDEST JUMPDEST POP SWAP2 SWAP1 POP JUMP JUMPDEST PUSH32 0x566F6365206E616F20706F64652073657220756D20646973747269627569646F PUSH1 0x0 DUP3 ADD MSTORE PUSH32 0x72206520756D20636F6E73756D69646F7220616F206D65736D6F2074656D706F PUSH1 0x20 DUP3 ADD MSTORE POP JUMP JUMPDEST PUSH1 0x0 PUSH2 0x3E8B PUSH1 0x40 DUP4 PUSH2 0x386A JUMP JUMPDEST SWAP2 POP PUSH2 0x3E96 DUP3 PUSH2 0x3E2F JUMP JUMPDEST PUSH1 0x40 DUP3 ADD SWAP1 POP SWAP2 SWAP1 POP JUMP JUMPDEST PUSH1 0x0 PUSH1 0x20 DUP3 ADD SWAP1 POP DUP2 DUP2 SUB PUSH1 0x0 DUP4 ADD MSTORE PUSH2 0x3EBA DUP2 PUSH2 0x3E7E JUMP JUMPDEST SWAP1 POP SWAP2 SWAP1 POP JUMP JUMPDEST PUSH32 0x566F6365206E616F206520756D20636F6E73756D69646F720000000000000000 PUSH1 0x0 DUP3 ADD MSTORE POP JUMP JUMPDEST PUSH1 0x0 PUSH2 0x3EF7 PUSH1 0x18 DUP4 PUSH2 0x386A JUMP JUMPDEST SWAP2 POP PUSH2 0x3F02 DUP3 PUSH2 0x3EC1 JUMP JUMPDEST PUSH1 0x20 DUP3 ADD SWAP1 POP SWAP2 SWAP1 POP JUMP JUMPDEST PUSH1 0x0 PUSH1 0x20 DUP3 ADD SWAP1 POP DUP2 DUP2 SUB PUSH1 0x0 DUP4 ADD MSTORE PUSH2 0x3F26 DUP2 PUSH2 0x3EEA JUMP JUMPDEST SWAP1 POP SWAP2 SWAP1 POP JUMP JUMPDEST PUSH32 0x4F20656E64657265636F207061737361646F206E616F206520756D2064697374 PUSH1 0x0 DUP3 ADD MSTORE PUSH32 0x7269627569646F72000000000000000000000000000000000000000000000000 PUSH1 0x20 DUP3 ADD MSTORE POP JUMP JUMPDEST PUSH1 0x0 PUSH2 0x3F89 PUSH1 0x28 DUP4 PUSH2 0x386A JUMP JUMPDEST SWAP2 POP PUSH2 0x3F94 DUP3 PUSH2 0x3F2D JUMP JUMPDEST PUSH1 0x40 DUP3 ADD SWAP1 POP SWAP2 SWAP1 POP JUMP JUMPDEST PUSH1 0x0 PUSH1 0x20 DUP3 ADD SWAP1 POP DUP2 DUP2 SUB PUSH1 0x0 DUP4 ADD MSTORE PUSH2 0x3FB8 DUP2 PUSH2 0x3F7C JUMP JUMPDEST SWAP1 POP SWAP2 SWAP1 POP JUMP JUMPDEST PUSH32 0x4E487B7100000000000000000000000000000000000000000000000000000000 PUSH1 0x0 MSTORE PUSH1 0x11 PUSH1 0x4 MSTORE PUSH1 0x24 PUSH1 0x0 REVERT JUMPDEST PUSH1 0x0 PUSH2 0x3FF9 DUP3 PUSH2 0x3268 JUMP JUMPDEST SWAP2 POP PUSH2 0x4004 DUP4 PUSH2 0x3268 JUMP JUMPDEST SWAP3 POP DUP3 DUP3 ADD SWAP1 POP DUP1 DUP3 GT ISZERO PUSH2 0x401C JUMPI PUSH2 0x401B PUSH2 0x3FBF JUMP JUMPDEST JUMPDEST SWAP3 SWAP2 POP POP JUMP JUMPDEST PUSH32 0x566F6365206E616F206520756D20646973747269627569646F72000000000000 PUSH1 0x0 DUP3 ADD MSTORE POP JUMP JUMPDEST PUSH1 0x0 PUSH2 0x4058 PUSH1 0x1A DUP4 PUSH2 0x386A JUMP JUMPDEST SWAP2 POP PUSH2 0x4063 DUP3 PUSH2 0x4022 JUMP JUMPDEST PUSH1 0x20 DUP3 ADD SWAP1 POP SWAP2 SWAP1 POP JUMP JUMPDEST PUSH1 0x0 PUSH1 0x20 DUP3 ADD SWAP1 POP DUP2 DUP2 SUB PUSH1 0x0 DUP4 ADD MSTORE PUSH2 0x4087 DUP2 PUSH2 0x404B JUMP JUMPDEST SWAP1 POP SWAP2 SWAP1 POP JUMP JUMPDEST PUSH32 0x4E487B7100000000000000000000000000000000000000000000000000000000 PUSH1 0x0 MSTORE PUSH1 0x32 PUSH1 0x4 MSTORE PUSH1 0x24 PUSH1 0x0 REVERT JUMPDEST PUSH32 0x566F6365206E616F2065206F20646973747269627569646F7220646573736120 PUSH1 0x0 DUP3 ADD MSTORE PUSH32 0x70726F706F737461000000000000000000000000000000000000000000000000 PUSH1 0x20 DUP3 ADD MSTORE POP JUMP JUMPDEST PUSH1 0x0 PUSH2 0x4119 PUSH1 0x28 DUP4 PUSH2 0x386A JUMP JUMPDEST SWAP2 POP PUSH2 0x4124 DUP3 PUSH2 0x40BD JUMP JUMPDEST PUSH1 0x40 DUP3 ADD SWAP1 POP SWAP2 SWAP1 POP JUMP JUMPDEST PUSH1 0x0 PUSH1 0x20 DUP3 ADD SWAP1 POP DUP2 DUP2 SUB PUSH1 0x0 DUP4 ADD MSTORE PUSH2 0x4148 DUP2 PUSH2 0x410C JUMP JUMPDEST SWAP1 POP SWAP2 SWAP1 POP JUMP JUMPDEST PUSH1 0x0 PUSH2 0x415A DUP3 PUSH2 0x3268 JUMP JUMPDEST SWAP2 POP PUSH32 0xFFFFFFFFFFFFFFFFFFFFFFFFFFFFFFFFFFFFFFFFFFFFFFFFFFFFFFFFFFFFFFFF DUP3 SUB PUSH2 0x418C JUMPI PUSH2 0x418B PUSH2 0x3FBF JUMP JUMPDEST JUMPDEST PUSH1 0x1 DUP3 ADD SWAP1 POP SWAP2 SWAP1 POP JUMP JUMPDEST PUSH1 0x0 DUP2 SWAP1 POP DUP2 PUSH1 0x0 MSTORE PUSH1 0x20 PUSH1 0x0 KECCAK256 SWAP1 POP SWAP2 SWAP1 POP JUMP JUMPDEST PUSH1 0x0 PUSH1 0x20 PUSH1 0x1F DUP4 ADD DIV SWAP1 POP SWAP2 SWAP1 POP JUMP JUMPDEST PUSH1 0x0 DUP3 DUP3 SHL SWAP1 POP SWAP3 SWAP2 POP POP JUMP JUMPDEST PUSH1 0x0 PUSH1 0x8 DUP4 MUL PUSH2 0x41F9 PUSH32 0xFFFFFFFFFFFFFFFFFFFFFFFFFFFFFFFFFFFFFFFFFFFFFFFFFFFFFFFFFFFFFFFF DUP3 PUSH2 0x41BC JUMP JUMPDEST PUSH2 0x4203 DUP7 DUP4 PUSH2 0x41BC JUMP JUMPDEST SWAP6 POP DUP1 NOT DUP5 AND SWAP4 POP DUP1 DUP7 AND DUP5 OR SWAP3 POP POP POP SWAP4 SWAP3 POP POP POP JUMP JUMPDEST PUSH1 0x0 DUP2 SWAP1 POP SWAP2 SWAP1 POP JUMP JUMPDEST PUSH1 0x0 PUSH2 0x4240 PUSH2 0x423B PUSH2 0x4236 DUP5 PUSH2 0x3268 JUMP JUMPDEST PUSH2 0x421B JUMP JUMPDEST PUSH2 0x3268 JUMP JUMPDEST SWAP1 POP SWAP2 SWAP1 POP JUMP JUMPDEST PUSH1 0x0 DUP2 SWAP1 POP SWAP2 SWAP1 POP JUMP JUMPDEST PUSH2 0x425A DUP4 PUSH2 0x4225 JUMP JUMPDEST PUSH2 0x426E PUSH2 0x4266 DUP3 PUSH2 0x4247 JUMP JUMPDEST DUP5 DUP5 SLOAD PUSH2 0x41C9 JUMP JUMPDEST DUP3 SSTORE POP POP POP POP JUMP JUMPDEST PUSH1 0x0 SWAP1 JUMP JUMPDEST PUSH2 0x4283 PUSH2 0x4276 JUMP JUMPDEST PUSH2 0x428E DUP2 DUP5 DUP5 PUSH2 0x4251 JUMP JUMPDEST POP POP POP JUMP JUMPDEST JUMPDEST DUP2 DUP2 LT ISZERO PUSH2 0x42B2 JUMPI PUSH2 0x42A7 PUSH1 0x0 DUP3 PUSH2 0x427B JUMP JUMPDEST PUSH1 0x1 DUP2 ADD SWAP1 POP PUSH2 0x4294 JUMP JUMPDEST POP POP JUMP JUMPDEST PUSH1 0x1F DUP3 GT ISZERO PUSH2 0x42F7 JUMPI PUSH2 0x42C8 DUP2 PUSH2 0x4197 JUMP JUMPDEST PUSH2 0x42D1 DUP5 PUSH2 0x41AC JUMP JUMPDEST DUP2 ADD PUSH1 0x20 DUP6 LT ISZERO PUSH2 0x42E0 JUMPI DUP2 SWAP1 POP JUMPDEST PUSH2 0x42F4 PUSH2 0x42EC DUP6 PUSH2 0x41AC JUMP JUMPDEST DUP4 ADD DUP3 PUSH2 0x4293 JUMP JUMPDEST POP POP JUMPDEST POP POP POP JUMP JUMPDEST PUSH1 0x0 DUP3 DUP3 SHR SWAP1 POP SWAP3 SWAP2 POP POP JUMP JUMPDEST PUSH1 0x0 PUSH2 0x431A PUSH1 0x0 NOT DUP5 PUSH1 0x8 MUL PUSH2 0x42FC JUMP JUMPDEST NOT DUP1 DUP4 AND SWAP2 POP POP SWAP3 SWAP2 POP POP JUMP JUMPDEST PUSH1 0x0 PUSH2 0x4333 DUP4 DUP4 PUSH2 0x4309 JUMP JUMPDEST SWAP2 POP DUP3 PUSH1 0x2 MUL DUP3 OR SWAP1 POP SWAP3 SWAP2 POP POP JUMP JUMPDEST PUSH2 0x434C DUP3 PUSH2 0x3595 JUMP JUMPDEST PUSH8 0xFFFFFFFFFFFFFFFF DUP2 GT ISZERO PUSH2 0x4365 JUMPI PUSH2 0x4364 PUSH2 0x33DF JUMP JUMPDEST JUMPDEST PUSH2 0x436F DUP3 SLOAD PUSH2 0x3DFE JUMP JUMPDEST PUSH2 0x437A DUP3 DUP3 DUP6 PUSH2 0x42B6 JUMP JUMPDEST PUSH1 0x0 PUSH1 0x20 SWAP1 POP PUSH1 0x1F DUP4 GT PUSH1 0x1 DUP2 EQ PUSH2 0x43AD JUMPI PUSH1 0x0 DUP5 ISZERO PUSH2 0x439B JUMPI DUP3 DUP8 ADD MLOAD SWAP1 POP JUMPDEST PUSH2 0x43A5 DUP6 DUP3 PUSH2 0x4327 JUMP JUMPDEST DUP7 SSTORE POP PUSH2 0x440D JUMP JUMPDEST PUSH1 0x1F NOT DUP5 AND PUSH2 0x43BB DUP7 PUSH2 0x4197 JUMP JUMPDEST PUSH1 0x0 JUMPDEST DUP3 DUP2 LT ISZERO PUSH2 0x43E3 JUMPI DUP5 DUP10 ADD MLOAD DUP3 SSTORE PUSH1 0x1 DUP3 ADD SWAP2 POP PUSH1 0x20 DUP6 ADD SWAP5 POP PUSH1 0x20 DUP2 ADD SWAP1 POP PUSH2 0x43BE JUMP JUMPDEST DUP7 DUP4 LT ISZERO PUSH2 0x4400 JUMPI DUP5 DUP10 ADD MLOAD PUSH2 0x43FC PUSH1 0x1F DUP10 AND DUP3 PUSH2 0x4309 JUMP JUMPDEST DUP4 SSTORE POP JUMPDEST PUSH1 0x1 PUSH1 0x2 DUP9 MUL ADD DUP9 SSTORE POP POP POP JUMPDEST POP POP POP POP POP POP JUMP JUMPDEST PUSH32 0x72657175657374206E6F7420666F756E64000000000000000000000000000000 PUSH1 0x0 DUP3 ADD MSTORE POP JUMP JUMPDEST PUSH1 0x0 PUSH2 0x444B PUSH1 0x11 DUP4 PUSH2 0x386A JUMP JUMPDEST SWAP2 POP PUSH2 0x4456 DUP3 PUSH2 0x4415 JUMP JUMPDEST PUSH1 0x20 DUP3 ADD SWAP1 POP SWAP2 SWAP1 POP JUMP JUMPDEST PUSH1 0x0 PUSH1 0x20 DUP3 ADD SWAP1 POP DUP2 DUP2 SUB PUSH1 0x0 DUP4 ADD MSTORE PUSH2 0x447A DUP2 PUSH2 0x443E JUMP JUMPDEST SWAP1 POP SWAP2 SWAP1 POP JUMP JUMPDEST PUSH1 0x0 DUP2 SWAP1 POP DUP2 PUSH1 0x0 MSTORE PUSH1 0x20 PUSH1 0x0 KECCAK256 SWAP1 POP SWAP2 SWAP1 POP JUMP JUMPDEST PUSH1 0x1F DUP3 GT ISZERO PUSH2 0x44D7 JUMPI PUSH2 0x44A8 DUP2 PUSH2 0x4481 JUMP JUMPDEST PUSH2 0x44B1 DUP5 PUSH2 0x41AC JUMP JUMPDEST DUP2 ADD PUSH1 0x20 DUP6 LT ISZERO PUSH2 0x44C0 JUMPI DUP2 SWAP1 POP JUMPDEST PUSH2 0x44D4 PUSH2 0x44CC DUP6 PUSH2 0x41AC JUMP JUMPDEST DUP4 ADD DUP3 PUSH2 0x4293 JUMP JUMPDEST POP POP JUMPDEST POP POP POP JUMP JUMPDEST PUSH2 0x44E5 DUP3 PUSH2 0x385F JUMP JUMPDEST PUSH8 0xFFFFFFFFFFFFFFFF DUP2 GT ISZERO PUSH2 0x44FE JUMPI PUSH2 0x44FD PUSH2 0x33DF JUMP JUMPDEST JUMPDEST PUSH2 0x4508 DUP3 SLOAD PUSH2 0x3DFE JUMP JUMPDEST PUSH2 0x4513 DUP3 DUP3 DUP6 PUSH2 0x4496 JUMP JUMPDEST PUSH1 0x0 PUSH1 0x20 SWAP1 POP PUSH1 0x1F DUP4 GT PUSH1 0x1 DUP2 EQ PUSH2 0x4546 JUMPI PUSH1 0x0 DUP5 ISZERO PUSH2 0x4534 JUMPI DUP3 DUP8 ADD MLOAD SWAP1 POP JUMPDEST PUSH2 0x453E DUP6 DUP3 PUSH2 0x4327 JUMP JUMPDEST DUP7 SSTORE POP PUSH2 0x45A6 JUMP JUMPDEST PUSH1 0x1F NOT DUP5 AND PUSH2 0x4554 DUP7 PUSH2 0x4481 JUMP JUMPDEST PUSH1 0x0 JUMPDEST DUP3 DUP2 LT ISZERO PUSH2 0x457C JUMPI DUP5 DUP10 ADD MLOAD DUP3 SSTORE PUSH1 0x1 DUP3 ADD SWAP2 POP PUSH1 0x20 DUP6 ADD SWAP5 POP PUSH1 0x20 DUP2 ADD SWAP1 POP PUSH2 0x4557 JUMP JUMPDEST DUP7 DUP4 LT ISZERO PUSH2 0x4599 JUMPI DUP5 DUP10 ADD MLOAD PUSH2 0x4595 PUSH1 0x1F DUP10 AND DUP3 PUSH2 0x4309 JUMP JUMPDEST DUP4 SSTORE POP JUMPDEST PUSH1 0x1 PUSH1 0x2 DUP9 MUL ADD DUP9 SSTORE POP POP POP JUMPDEST POP POP POP POP POP POP JUMP JUMPDEST PUSH1 0x0 DUP2 SLOAD PUSH2 0x45BB DUP2 PUSH2 0x3DFE JUMP JUMPDEST PUSH2 0x45C5 DUP2 DUP7 PUSH2 0x386A JUMP JUMPDEST SWAP5 POP PUSH1 0x1 DUP3 AND PUSH1 0x0 DUP2 EQ PUSH2 0x45E0 JUMPI PUSH1 0x1 DUP2 EQ PUSH2 0x45F6 JUMPI PUSH2 0x4629 JUMP JUMPDEST PUSH1 0xFF NOT DUP4 AND DUP7 MSTORE DUP2 ISZERO ISZERO PUSH1 0x20 MUL DUP7 ADD SWAP4 POP PUSH2 0x4629 JUMP JUMPDEST PUSH2 0x45FF DUP6 PUSH2 0x4481 JUMP JUMPDEST PUSH1 0x0 JUMPDEST DUP4 DUP2 LT ISZERO PUSH2 0x4621 JUMPI DUP2 SLOAD DUP2 DUP10 ADD MSTORE PUSH1 0x1 DUP3 ADD SWAP2 POP PUSH1 0x20 DUP2 ADD SWAP1 POP PUSH2 0x4602 JUMP JUMPDEST DUP1 DUP9 ADD SWAP6 POP POP POP JUMPDEST POP POP POP SWAP3 SWAP2 POP POP JUMP JUMPDEST PUSH1 0x0 DUP2 SLOAD PUSH2 0x463F DUP2 PUSH2 0x3DFE JUMP JUMPDEST PUSH2 0x4649 DUP2 DUP7 PUSH2 0x35A0 JUMP JUMPDEST SWAP5 POP PUSH1 0x1 DUP3 AND PUSH1 0x0 DUP2 EQ PUSH2 0x4664 JUMPI PUSH1 0x1 DUP2 EQ PUSH2 0x467A JUMPI PUSH2 0x46AD JUMP JUMPDEST PUSH1 0xFF NOT DUP4 AND DUP7 MSTORE DUP2 ISZERO ISZERO PUSH1 0x20 MUL DUP7 ADD SWAP4 POP PUSH2 0x46AD JUMP JUMPDEST PUSH2 0x4683 DUP6 PUSH2 0x4197 JUMP JUMPDEST PUSH1 0x0 JUMPDEST DUP4 DUP2 LT ISZERO PUSH2 0x46A5 JUMPI DUP2 SLOAD DUP2 DUP10 ADD MSTORE PUSH1 0x1 DUP3 ADD SWAP2 POP PUSH1 0x20 DUP2 ADD SWAP1 POP PUSH2 0x4686 JUMP JUMPDEST DUP1 DUP9 ADD SWAP6 POP POP POP JUMPDEST POP POP POP SWAP3 SWAP2 POP POP JUMP JUMPDEST PUSH1 0x0 PUSH1 0x60 DUP3 ADD SWAP1 POP DUP2 DUP2 SUB PUSH1 0x0 DUP4 ADD MSTORE PUSH2 0x46D0 DUP2 DUP7 PUSH2 0x45AE JUMP JUMPDEST SWAP1 POP DUP2 DUP2 SUB PUSH1 0x20 DUP4 ADD MSTORE PUSH2 0x46E4 DUP2 DUP6 PUSH2 0x4632 JUMP JUMPDEST SWAP1 POP DUP2 DUP2 SUB PUSH1 0x40 DUP4 ADD MSTORE PUSH2 0x46F8 DUP2 DUP5 PUSH2 0x4632 JUMP JUMPDEST SWAP1 POP SWAP5 SWAP4 POP POP POP POP JUMP JUMPDEST PUSH32 0x4E487B7100000000000000000000000000000000000000000000000000000000 PUSH1 0x0 MSTORE PUSH1 0x12 PUSH1 0x4 MSTORE PUSH1 0x24 PUSH1 0x0 REVERT JUMPDEST PUSH1 0x0 DUP2 SWAP1 POP SWAP3 SWAP2 POP POP JUMP JUMPDEST PUSH1 0x0 PUSH2 0x4747 DUP3 PUSH2 0x385F JUMP JUMPDEST PUSH2 0x4751 DUP2 DUP6 PUSH2 0x4731 JUMP JUMPDEST SWAP4 POP PUSH2 0x4761 DUP2 DUP6 PUSH1 0x20 DUP7 ADD PUSH2 0x35B1 JUMP JUMPDEST DUP1 DUP5 ADD SWAP2 POP POP SWAP3 SWAP2 POP POP JUMP JUMPDEST PUSH1 0x0 PUSH2 0x4779 DUP3 DUP6 PUSH2 0x473C JUMP JUMPDEST SWAP2 POP PUSH2 0x4785 DUP3 DUP5 PUSH2 0x473C JUMP JUMPDEST SWAP2 POP DUP2 SWAP1 POP SWAP4 SWAP3 POP POP POP JUMP JUMPDEST PUSH32 0x4E487B7100000000000000000000000000000000000000000000000000000000 PUSH1 0x0 MSTORE PUSH1 0x21 PUSH1 0x4 MSTORE PUSH1 0x24 PUSH1 0x0 REVERT JUMPDEST PUSH1 0x0 PUSH2 0xFFFF DUP3 AND SWAP1 POP SWAP2 SWAP1 POP JUMP JUMPDEST PUSH2 0x47D7 DUP2 PUSH2 0x47C0 JUMP JUMPDEST DUP3 MSTORE POP POP JUMP JUMPDEST PUSH1 0x0 PUSH4 0xFFFFFFFF DUP3 AND SWAP1 POP SWAP2 SWAP1 POP JUMP JUMPDEST PUSH2 0x47F6 DUP2 PUSH2 0x47DD JUMP JUMPDEST DUP3 MSTORE POP POP JUMP JUMPDEST PUSH1 0x0 PUSH1 0xA0 DUP3 ADD SWAP1 POP PUSH2 0x4811 PUSH1 0x0 DUP4 ADD DUP9 PUSH2 0x331F JUMP JUMPDEST DUP2 DUP2 SUB PUSH1 0x20 DUP4 ADD MSTORE PUSH2 0x4823 DUP2 DUP8 PUSH2 0x35DB JUMP JUMPDEST SWAP1 POP PUSH2 0x4832 PUSH1 0x40 DUP4 ADD DUP7 PUSH2 0x47CE JUMP JUMPDEST PUSH2 0x483F PUSH1 0x60 DUP4 ADD DUP6 PUSH2 0x47ED JUMP JUMPDEST PUSH2 0x484C PUSH1 0x80 DUP4 ADD DUP5 PUSH2 0x3AA8 JUMP JUMPDEST SWAP7 SWAP6 POP POP POP POP POP POP JUMP JUMPDEST PUSH1 0x0 DUP2 MLOAD SWAP1 POP PUSH2 0x4865 DUP2 PUSH2 0x3398 JUMP JUMPDEST SWAP3 SWAP2 POP POP JUMP JUMPDEST PUSH1 0x0 PUSH1 0x20 DUP3 DUP5 SUB SLT ISZERO PUSH2 0x4881 JUMPI PUSH2 0x4880 PUSH2 0x31C4 JUMP JUMPDEST JUMPDEST PUSH1 0x0 PUSH2 0x488F DUP5 DUP3 DUP6 ADD PUSH2 0x4856 JUMP JUMPDEST SWAP2 POP POP SWAP3 SWAP2 POP POP JUMP JUMPDEST PUSH1 0x0 PUSH2 0x48A3 DUP3 PUSH2 0x3268 JUMP JUMPDEST SWAP2 POP PUSH2 0x48AE DUP4 PUSH2 0x3268 JUMP JUMPDEST SWAP3 POP DUP3 DUP3 MUL PUSH2 0x48BC DUP2 PUSH2 0x3268 JUMP JUMPDEST SWAP2 POP DUP3 DUP3 DIV DUP5 EQ DUP4 ISZERO OR PUSH2 0x48D3 JUMPI PUSH2 0x48D2 PUSH2 0x3FBF JUMP JUMPDEST JUMPDEST POP SWAP3 SWAP2 POP POP JUMP JUMPDEST PUSH1 0x0 PUSH2 0x48E5 DUP3 PUSH2 0x3268 JUMP JUMPDEST SWAP2 POP PUSH1 0x0 DUP3 SUB PUSH2 0x48F8 JUMPI PUSH2 0x48F7 PUSH2 0x3FBF JUMP JUMPDEST JUMPDEST PUSH1 0x1 DUP3 SUB SWAP1 POP SWAP2 SWAP1 POP JUMP JUMPDEST PUSH1 0x0 PUSH1 0x40 DUP3 ADD SWAP1 POP PUSH2 0x4918 PUSH1 0x0 DUP4 ADD DUP6 PUSH2 0x3272 JUMP JUMPDEST PUSH2 0x4925 PUSH1 0x20 DUP4 ADD DUP5 PUSH2 0x3272 JUMP JUMPDEST SWAP4 SWAP3 POP POP POP JUMP JUMPDEST PUSH1 0x0 PUSH1 0x20 DUP3 ADD SWAP1 POP PUSH2 0x4941 PUSH1 0x0 DUP4 ADD DUP5 PUSH2 0x3272 JUMP JUMPDEST SWAP3 SWAP2 POP POP JUMP JUMPDEST PUSH1 0x0 PUSH2 0x4952 DUP3 PUSH2 0x3268 JUMP JUMPDEST SWAP2 POP PUSH2 0x495D DUP4 PUSH2 0x3268 JUMP JUMPDEST SWAP3 POP DUP3 DUP3 SUB SWAP1 POP DUP2 DUP2 GT ISZERO PUSH2 0x4975 JUMPI PUSH2 0x4974 PUSH2 0x3FBF JUMP JUMPDEST JUMPDEST SWAP3 SWAP2 POP POP JUMP JUMPDEST PUSH1 0x0 PUSH2 0x4986 DUP3 PUSH2 0x3268 JUMP JUMPDEST SWAP2 POP PUSH2 0x4991 DUP4 PUSH2 0x3268 JUMP JUMPDEST SWAP3 POP DUP3 PUSH2 0x49A1 JUMPI PUSH2 0x49A0 PUSH2 0x4702 JUMP JUMPDEST JUMPDEST DUP3 DUP3 MOD SWAP1 POP SWAP3 SWAP2 POP POP JUMP JUMPDEST PUSH1 0x0 DUP2 PUSH1 0x1 SHR SWAP1 POP SWAP2 SWAP1 POP JUMP JUMPDEST PUSH1 0x0 DUP1 DUP3 SWAP2 POP DUP4 SWAP1 POP JUMPDEST PUSH1 0x1 DUP6 GT ISZERO PUSH2 0x4A03 JUMPI DUP1 DUP7 DIV DUP2 GT ISZERO PUSH2 0x49DF JUMPI PUSH2 0x49DE PUSH2 0x3FBF JUMP JUMPDEST JUMPDEST PUSH1 0x1 DUP6 AND ISZERO PUSH2 0x49EE JUMPI DUP1 DUP3 MUL SWAP2 POP JUMPDEST DUP1 DUP2 MUL SWAP1 POP PUSH2 0x49FC DUP6 PUSH2 0x49AC JUMP JUMPDEST SWAP5 POP PUSH2 0x49C3 JUMP JUMPDEST SWAP5 POP SWAP5 SWAP3 POP POP POP JUMP JUMPDEST PUSH1 0x0 DUP3 PUSH2 0x4A1C JUMPI PUSH1 0x1 SWAP1 POP PUSH2 0x4AD8 JUMP JUMPDEST DUP2 PUSH2 0x4A2A JUMPI PUSH1 0x0 SWAP1 POP PUSH2 0x4AD8 JUMP JUMPDEST DUP2 PUSH1 0x1 DUP2 EQ PUSH2 0x4A40 JUMPI PUSH1 0x2 DUP2 EQ PUSH2 0x4A4A JUMPI PUSH2 0x4A79 JUMP JUMPDEST PUSH1 0x1 SWAP2 POP POP PUSH2 0x4AD8 JUMP JUMPDEST PUSH1 0xFF DUP5 GT ISZERO PUSH2 0x4A5C JUMPI PUSH2 0x4A5B PUSH2 0x3FBF JUMP JUMPDEST JUMPDEST DUP4 PUSH1 0x2 EXP SWAP2 POP DUP5 DUP3 GT ISZERO PUSH2 0x4A73 JUMPI PUSH2 0x4A72 PUSH2 0x3FBF JUMP JUMPDEST JUMPDEST POP PUSH2 0x4AD8 JUMP JUMPDEST POP PUSH1 0x20 DUP4 LT PUSH2 0x133 DUP4 LT AND PUSH1 0x4E DUP5 LT PUSH1 0xB DUP5 LT AND OR ISZERO PUSH2 0x4AAE JUMPI DUP3 DUP3 EXP SWAP1 POP DUP4 DUP2 GT ISZERO PUSH2 0x4AA9 JUMPI PUSH2 0x4AA8 PUSH2 0x3FBF JUMP JUMPDEST JUMPDEST PUSH2 0x4AD8 JUMP JUMPDEST PUSH2 0x4ABB DUP5 DUP5 DUP5 PUSH1 0x1 PUSH2 0x49B9 JUMP JUMPDEST SWAP3 POP SWAP1 POP DUP2 DUP5 DIV DUP2 GT ISZERO PUSH2 0x4AD2 JUMPI PUSH2 0x4AD1 PUSH2 0x3FBF JUMP JUMPDEST JUMPDEST DUP2 DUP2 MUL SWAP1 POP JUMPDEST SWAP4 SWAP3 POP POP POP JUMP JUMPDEST PUSH1 0x0 PUSH2 0x4AEA DUP3 PUSH2 0x3268 JUMP JUMPDEST SWAP2 POP PUSH2 0x4AF5 DUP4 PUSH2 0x3268 JUMP JUMPDEST SWAP3 POP PUSH2 0x4B22 PUSH32 0xFFFFFFFFFFFFFFFFFFFFFFFFFFFFFFFFFFFFFFFFFFFFFFFFFFFFFFFFFFFFFFFF DUP5 DUP5 PUSH2 0x4A0C JUMP JUMPDEST SWAP1 POP SWAP3 SWAP2 POP POP JUMP INVALID LOG2 PUSH5 0x6970667358 0x22 SLT KECCAK256 GAS 0xC7 0xD9 DIV PUSH4 0xC1C57DD6 0xB4 0x26 DUP1 0xFB 0xCE 0x27 CALLER MOD LT SWAP12 NUMBER MULMOD 0xB9 NUMBER 0xD8 TIMESTAMP 0xAF 0x5C DIV PUSH10 0xD2A06B64736F6C634300 ADDMOD SGT STOP CALLER PUSH4 0x6F6E7374 KECCAK256 PUSH6 0x6E6572677943 PUSH16 0x6E747261637473203D20617267735B30 0x5D EXTCODESIZE PUSH4 0x6F6E7374 KECCAK256 PUSH2 0x7069 MSTORE PUSH6 0x73706F6E7365 KECCAK256 RETURNDATASIZE KECCAK256 PUSH2 0x7761 PUSH10 0x742046756E6374696F6E PUSH20 0x2E6D616B654874747052657175657374287B7572 PUSH13 0x3A206068747470733A2F2F7774 PUSH21 0x722E696E2F3F636F6E7472616374733D7B656E6572 PUSH8 0x79436F6E74726163 PUSH21 0x737D602C726573706F6E7365547970653A20277465 PUSH25 0x74277D293B69662028617069526573706F6E73652E6572726F PUSH19 0x29207B7468726F77204572726F722827526571 PUSH22 0x657374206661696C656427293B7D636F6E7374207B20 PUSH5 0x617461207D KECCAK256 RETURNDATASIZE KECCAK256 PUSH2 0x7069 MSTORE PUSH6 0x73706F6E7365 EXTCODESIZE PUSH13 0x6574206E657744617461203D20 0x4A MSTORE8 0x4F 0x4E 0x2E PUSH20 0x7472696E6769667928646174612972657475726E KECCAK256 CHAINID PUSH22 0x6E6374696F6E732E656E636F6465537472696E67286E PUSH6 0x774461746129 EXTCODESIZE "},"methodIdentifiers":{"addDistributor(uint256,uint256,uint256)":"2e8376dc","addPropose(uint256,uint256,address,uint256)":"2eafc905","answerPropose(uint256,bool)":"c2729bfb","bestOptions(uint256)":"6d37a202","consumerToUserContract(address)":"05ef317a","consumers(address)":"0bf53668","distributors(address)":"cc642784","getAllMeanPrice(uint256,uint256)":"d483337d","getProposes()":"d3e64ffa","handleOracleFulfillment(bytes32,bytes,bytes)":"0ca76175","lastError()":"29f0de3f","lastRequestId()":"fc2a88c3","lastResponse()":"62747e42","localIdToDistributors(uint256,uint256)":"9af96a73","localToContract(uint256,uint256)":"f3de41ad","proposes(address,uint256)":"642cb091","registerConsumer(uint256,uint256,bool)":"7c732f85","requestIds(uint256)":"8796ba8c","requests(bytes32)":"9d866985","source()":"67e828bf","subscriptionId()":"09c1ba2e"}}}}}